:0300000002881F54
:0C881F00787FE4F6D8FD75816D02886654
:0BA60A00E0248DF582E43402F5832289
:10A40300C2BCD2AC759852758DFAE4F58BD28E909E
:06A4130002F1F0A3F022AB
:10A541009002F1E0FFA3E0B507037F00227F012223
:10A3B9009002F112A60AE0FF9002F1E004F0E0C376
:08A3C90094644002E4F0D2AC00
:01A3D1002269
:080003003099FD8F99C299228A
:03002300029F0930
:109F0900C0E0C083C082C0D0309819C2989002F2D4
:109F190012A60AE599F09002F2E004F0E0C3946415
:0D9F29004002E4F0D0D0D082D083D0E032EE
:109A9600E0F580D2A3E4900335F0A3F022C390034F
:109AA60035E0940022900335E004F0229001E4E0D2
:109AB600FBA3E0FAA3E0F922EDF0A3EBF0E4FFC28A
:0C9AC600AF22D2B6D2B77580FFD2AF221B
:108E15009001F3129ABE12A65F9001F3E0FF70066F
:108E2500C2B7C2B68012EFB40106C2B7D2B6800887
:108E3500EFB40204D2B7C2B69001F4129A96129A10
:108E4500A3500BA3E004F070F5129AAB80F0C2A317
:108E55009001F5E0F580C2A1129A9B129AA3500BDE
:108E6500A3E004F070F5129AAB80F0D2A112A65FD0
:048E7500129AC82263
:108937009001D8129ABE12A65F9001D8E0FF700688
:10894700C2B7C2B68012EFB40106C2B7D2B680086A
:10895700EFB40204D2B7C2B69001D9E0FF04F08F9A
:1089670080129A99129AA3500BA3E004F070F512A3
:108977009AAB80F0C2A39001DAE0FBA3E475F001A3
:10898700122763A9F0FA12268EF580C2A1129A9BCC
:10899700129AA3500BA3E004F070F5129AAB80F083
:1089A700D2A19001DDE014F070AE12A65F129AC852
:0189B700229D
:0B88AB009001F2EFF0A3EDF0A3EBF062
:1088B600C2AF12A65FE49001F2F0A3E0FF7006C219
:1088C600B7C2B68012EFB40106C2B7D2B68008EFBF
:1088D600B40204D2B7C2B69001F4129A96129AA3C1
:1088E600500BA3E004F070F5129AAB80F0C2A375AA
:1088F60080FF129A9B129AA3500BA3E004F070F526
:10890600129AAB80F0C2A29001F5E580F0129A9B14
:10891600129AA3500BA3E004F070F5129AAB80F004
:10892600D2A212A65FD2B6D2B7D2AF9001F5E0FFBF
:01893600221E
:109284009001E4EBF0A3EAF0A3E9F0129AB21227FA
:1092940079F47003E5F0F46038122779FBAAF0EA58
:1092A400FDE4FF1288AB129AB29000021226A7FCCA
:1092B4006F6012122779FBAAF0EAFD9001F5ECF039
:1092C400E4FF128E159001E5E475F00312274D803A
:0292D400BA22BC
:01A6A2002295
:105420002562782025627820256278000A3C523E69
:1054300025303262785B25303262785D3D2530322E
:105440006278002562782025627800256278202520
:1054500062782025627820256278200025316278E4
:105460002025316278202531627820005265616400
:105470004173696342797465203D3D20256278203F
:105480000A0063682562643A256264200063682527
:1054900062643A2562642063682562643A25626426
:1054A000200063682562643A25626420636825628F
:1054B000643A2562642063682562643A2562642048
:1054C0000063682562643A2562642063682562642B
:1054D0003A2562642063682562643A256264206329
:1054E000682562643A256264200063682562643A34
:1054F0002562642063682562643A256264206368DB
:105500002562643A2562642063682562643A2562F4
:10551000642063682562643A256264200025626421
:1055200020000A203D3D3D3D3D3D3D3D2050414751
:10553000452025623278203D3D3D3D3D3D3D3D3D90
:105540003D3D3D3D0A002562327809000A002531C3
:105550006278202531627820636825316278206383
:105560006825316278206368253162782063682578
:105570003162782000656E726563616C6C00656EE7
:10558000667265657A6500656E686D6972726F72C4
:1055900000656E766D6972726F7200656E656E6819
:1055A000616E636500656E626C616E6B00656E6254
:1055B0006F756E6400656E626C696E6B0064697312
:1055C000726563616C6C00646973667265657A65A7
:1055D00000646973686D6972726F720064697376D2
:1055E0006D6972726F7200646973656E68616E6373
:1055F0006500646973626C616E6B00646973626FED
:10560000756E6400646973626C696E6B003D3D3D4C
:105610003D3D20466F726D6174203A206368303DD5
:105620005B2562785D206368313D5B2562785D2093
:105630006368323D5B2562785D206368333D5B259E
:1056400062785D203D3D3D3D3D0A00256278202584
:1056500062782063682562783A256278206368253D
:1056600062783A2562782063682562783A25627804
:105670002063682562783A2562782000333400621E
:105680007573770079766D6978006873636F6D0064
:0E5690006D6F646500370038000102040810D9
:046CC60041039B00EB
:10569E00A3F0A3E4F0A37400F0A37414F0A3E4F059
:1056AE00A37400F0A37419F0A3E4F0A37400F0A3A4
:1056BE007415F0A3E4F0A37400F0A3741AF0A3E43D
:1056CE00F0A37400F07416A3F0A3E4F0A322A3F0E9
:1056DE00A3E4F0A37400F0A37426F0A3E4F0A37483
:1056EE0000F0A3742BF0A3E4F0A37400F0A37427CE
:1056FE00F0A3E4F0A37400F0A3742CF0A3E4F0A3E1
:10570E007400F07428A3F0A3E4F0A322A3F0A3E4A2
:10571E00F0A37400F0A37443F0A3E4F0A37400F0BC
:10572E00A37447F0A3E4F0A37400F07444A3F0A3B1
:10573E00E4F0A322A3F09003B6E0FBA3E0FAA3E00B
:10574E00F9229001E074FFF0A37454F07482A3F078
:10575E00A3E4F0A3227400F0A3741BF0A3E4F0A35F
:10576E007400F07417A3F0A3E4F0A3227400F0A366
:10577E00742DF0A3E4F0A37400F07429A3F0A3E455
:10578E00F0A3227400F0A37448F0A3E4F0A3740015
:10579E00F07445A3F0A3E4F0A3229001E074FFF0AF
:1057AE00A37454F0748DA3F0A3E4F0A3229001E04F
:1057BE0074FFF0A37455F0741DA3F0A3E4F0A322BC
:1057CE007400F07414A3F0A3E4F0A3227400F07438
:1057DE0026A3F0A3E4F0A3229001E074FFF0A3222D
:1057EE00EBF0A3EAF0A3E9F09001E07401F0A3223C
:1057FE00A3F0A37401F0A37403F07483A3F0A37455
:10580E0001F0A322A3F0A3E4F0A322A3F0A3E4F0FB
:10581E00A322A3F0A3E4F0A322A3F0A3E4F0A32217
:10582E00A3F0A3E4F0A322FFE0248CF582E434037A
:10583E00F583EFF022E0FF9001E17401F0A3740311
:10584E00F0A37488F07B017A03798322A3F0A3E49A
:10585E00F0A322A3F0A3E4F0A322EBF0A3EAF0A3BB
:10586E00E9F022900001E475F0010227A47BFF7A93
:10587E0054792C90033BF022A3F0A3E4F0A322E092
:10588E005401FB7D2022253DF53DA3E0540322E586
:10589E001590569993FFE514932F2212296F022625
:0F58AE008EA3F0A3E4F0A32212A6A39001D522AB
:108B97009001DD125868A31257471258A97002FFB7
:108BA700229001E01257471258A9B4200B9001E018
:108BB70012574712587180E99001E012574712295E
:108BC7006FC003C002C0019001DD12574712298F01
:108BD70080239001E01257471258A9FEB42010E4F1
:108BE7001226D49001E01257471258717F0122EEE6
:108BF70070037F01229001E012574712587180D20B
:069A59009001DD125868C7
:109A5F00E4F53AF53B9001DD12574712268E60224E
:109A6F009001DDA3E475F001122763A9F0FA122625
:109A7F008EFF3395E0FEEF253BF53BEE353AF53A99
:069A8F0080D3AE3AAF3BAC
:019A950022AE
:01A6A3002294
:10953300E4F53D900383E0540312589425E025E0BD
:10954300125894C454F0125894C4333354C0253D74
:10955300F53D900382E0B5070D900387E0B53D0626
:10956300E4900392F0229003927401F0900387E554
:079573003DF0900382EFF0D0
:01957A0022CE
:1095C3001257E67454F074201256D57400F0745494
:1095D3001257137400F0745512573B7400F0A374C0
:1095E30056F0124B6FAB55AD54E4FF1288AB9003AA
:1095F3003DEFF0E55412587BA3E555F01247EC0517
:0696030055E555B556DFE8
:01960900223E
:109C2E001257E67454F0744312575C7400F0741EAD
:109C3E001257737400F0A3741FF0124B6FAB1FAD6D
:109C4E001EE4FF1288AB90033DEFF0E51E12587B29
:079C5E00A3E51FF00247EC33
:109DDF001257E67454F0742012578A7400F07457B7
:109DEF001257A17400F074581257B47400F0A37492
:109DFF0059F0124B6F9001F5E559F0AB58AD57E4A0
:049E0F00FF028E15AB
:10932600E4F53AF53BF53CF53DC003C0021257E6BD
:109336007454F0744B1257C77400F0743A1257D332
:109346007400F0743B1257DF7400F0743C1258122C
:109356007400F0A3743DF0D002D003124B6F90015D
:0D936600F5E53DF0AB3CAD3BE4FF028E159C
:10957B00E4F550F551F552F5531257E67454F07467
:10958B005C1258127400F074501258197400F07475
:10959B00511258197400F0A37452F0124B6FAB5266
:1095AB00AD51E4FF1288AB8F537BFF7A54796C90EB
:0895BB00033BE553F00247EC0D
:036706009003B647
:106709001257EE7403F0A374B6F07B017A0379B9DA
:10671900128B97E4FB7D1FFF129D099003B9125755
:1067290047127DAFEE600302682EEF24FE60361437
:10673900605A1460781470030267DB240460030252
:10674900682E1257501257CE7400F074191257421E
:10675900124B6FAB19AD14E4FF128B26E51490565A
:1067690099930268261257A81257CE7400F074192B
:106779001258207400F074151258207400F0741A1D
:1067890012574212682F12589D0268261257E67452
:1067990054F074A212569E7400F0A3741B1257434E
:1067A90012682FAB1BAD161268450268261257E610
:1067B9007454F074C112569E1257637400F0A37496
:1067C9001C12574312685B126845FFE517932F02A5
:1067D90068261257E67454F0A374EA12569F1257AA
:1067E900637400F0741C1258277400F0741812585E
:1067F900277400F0A3741D12574312685BE4FF125B
:106809008B26AB1DAD18E4FF128B2612589DFFE5B0
:1068190016932FFFE517932FFFE518932FFD7B01A3
:05682900E4FF129D09CF
:10682E0022124B6FAB19AD14E4FF128B26AB1AADCF
:10683E0015E4FF128B2622E4FF128B26E5159056E7
:10684E009993FFE514932FFFE516932F22124B6FAA
:10685E00AB19AD14E4FF128B26AB1AAD15E4FF1283
:10686E008B26AB1BAD16E4FF128B26AB1CAD17228D
:0FA57100E4FB7D1FFF129D097DFFE4FF029EABFF
:036F77009003BCC8
:106F7A001257EE7403F0A374BCF07B017A0379BF55
:106F8A00128B979003BF125747127DAFEE60030230
:106F9A007085EF24FE60301460561460711470031B
:106FAA0002703C240460030270851257501257DAAB
:106FBA007400F0A3742BF09003BC125747124B6F66
:106FCA00AB2BAD260270801257A81257DA7400F064
:106FDA00742B12582E7400F0742712582E7400F075
:106FEA00A3742CF09003BC1257471270A002708051
:106FFA001257E67454F074A21256DC7400F0A374AB
:10700A002DF09003BC1257471270860270801257F7
:10701A00E67454F074C11256DC12577A7400F0A365
:10702A00742EF09003BC1257471270861270B10288
:10703A0070801257E67454F0A374EA1256DD1257A0
:10704A007A7400F0742E12585A7400F0742A125886
:10705A005A7400F0A3742FF09003BC1257471270B1
:10706A00A0E4FF128C07AB2DAD281270B1E4FF1219
:0B707A008C07AB2FAD2AE4FF128C073F
:1070850022124B6FAB2BAD26E4FF128C07AB2CAD58
:1070950027E4FF128C07AB2DAD2822124B6FAB2BCB
:1070A500AD26E4FF128C07AB2CAD2722E4FF128C32
:0670B50007AB2EAD2922FD
:10A45A001257BB7400F0A37469F0124B6FAD69E434
:04A46A00FF029EABA4
:1093BF00E4F55E7BFF7A55792290033BE55EF01270
:1093CF0047ECE4F55DAB5DAD5EE4FF1288AB900357
:1093DF003BEFF07BFF7A5579461247EC055DE55D73
:1093EF00540F70097BFF7A55794C1247ECE55D708D
:0A93FF00D4055EE55EC3940340B997
:019409002240
:1091DA00C003C002C0011257E67455F0744E12580B
:1091EA00617400F0745F1258617400F07460125771
:1091FA00FE7403F0748412580A7403F0A37485127F
:10920A00580B7403F0A37486F0D001D002D0031275
:10921A004B6FE55FC454F0FFE560540F2FF55F1202
:06922A005853FF026245EB
:0658BD009003C2125868BE
:1058C300E4F5387B019001E004F0A37403F0A374C2
:1058D300C2F07A0379C5128B979003C5125747120A
:1058E3007DAF8F391257F6125AB59003C512574739
:1058F300129A598E308F317A557975125A92B53181
:105903000AEEB530067532800259927A55797E12C5
:105913005A92B5310AEEB530067532400259927A81
:10592300557987125A99B53109EEB530057532208C
:10593300805D7A557991125A99B53109EEB53005E2
:10594300753210804A7A55799B125AA0B53109EE07
:10595300B5300575320880377A5579A5125AA0B546
:105963003109EEB5300575320480247A5579AD12CC
:105973005AA7B53109EEB5300575320280117A5553
:1059830079B5125AA7B5310DEEB5300975320175E7
:105993003301025A3C7A5579BD125AAEB5310AEE3B
:1059A300B53006753280025A1F7A5579C7125AAE3E
:1059B300B53109EEB5300575324080607A5579D13D
:1059C300125AC6B53109EEB53005753220804D7ACD
:1059D3005579DC125AC6B53109EEB530057532106A
:1059E300803A7A5579E7125ACDB53109EEB53005CB
:1059F30075320880277A5579F2125ACDB53109EEFE
:105A0300B5300575320480147BFF7A5579FB129A01
:105A130059EFB5310CEEB53008753202E4F5338039
:105A2300187BFF7A567904129A59EF65317003EEA9
:105A33006530705A753201F5331257F6125AB5EFC5
:105A430060339003C512574712268EB477EB90004C
:105A5300011226A7B469E29000021226A7B46ED9F8
:105A6300E92403F9E43AFA127DAF74342538F8A631
:105A730007053880C4E53860152433F8E6FFC3957D
:0E5A8300395007AB33AD32129DAA153880E7BB
:105A9100227BFF129A59EF227BFF129A59EF227B48
:105AA100FF129A59EF227BFF129A59EF227BFF12C4
:105AB1009A59EF227403F0A374C2F07B017A03793F
:105AC100C5128B97227BFF129A59EF227BFF129A04
:035AD10059EF2268
:10A50B001257BB7400F0A3743AF0124B6FAF3A02C0
:02A51B00A46E2C
:109B4900E4FF12940AC0077F0112940AC0077F023A
:109B590012940AC0077F0312940A90033EEFF09013
:109B6900033DD0E0F090033CD0E0F090033BD0E01F
:0A9B7900F07BFF7A56790D0247ECED
:0377BE009003C86D
:1077C1001257EE7403F0A374C8F07B017A0379CBEE
:1077D100128B979003CB125747127DAFEE600302D5
:1077E10078B0EF24FE602B14605314607924036099
:1077F100030278B01257507400F074431258867423
:1078010000F0A37447F09003C81257471278CF02D3
:1078110078AB1257E67454F0748D12571A7400F055
:10782100A37448F09003C81257471278CFE4FF12AF
:107831009EDBE548C454F0FBAD440278AB1257E639
:107841007454F074A212571A1257917400F0A37471
:1078510049F09003C81257471278B1E549C454F072
:10786100FBAD450278AB1257E67454F0A374C11214
:10787100571B1257917400F074491258867400F026
:1078810074461258AF7400F0A3744AF09003C81202
:1078910057471278B1E549C454F0FBAD45E4FF12F6
:0F78A1009EDBE54AC454F0FBAD46E4FF129EDBCC
:1078B00022124B6FE547C454F0FBAD43E4FF129E28
:1078C000DBE548C454F0FBAD44E4FF129EDB22121A
:0B78D0004B6FE547C454F0FBAD4322B2
:039007009003CE05
:10900A001257EE129054125747127DAF8F611257C2
:10901A00F6129054125747127DAF8F627F0412A640
:10902A009C7F0312A69F7F0512A3269003CEE0F928
:10903A00A3E0FAA3E09003B2C9125869AB62AD612A
:0A904A007F011290C97F05029CD33C
:109054007403F0A374CEF07B017A0379D1128B9759
:049064009003D12282
:10960A00756401E4F56374882563F582E43403F52F
:10961A0083E030E41574832563F582E43403F5832B
:10962A00E0FDE4FF129EABE4F5640563E563C394D1
:10963A000440D3E564600FE4FB7D1FFF129D097DA2
:06964A00FFE4FF129EABDD
:0196500022F7
:106E2900C003C002C0011257E67456F0744B1258E1
:106E3900AF7400F0A3743BF0A3E4F0A37400F07402
:106E49003C1257FE7403F0A3748812580B7403F0B4
:106E5900A3748412580B7403F0A3748912580B7429
:106E690003F0A3748512580B7403F0A3748A1258A3
:106E79000B7403F0A3748612580B7403F0A3748B7C
:106E8900F0D001D002D003124B6FE53BC454F0FFA0
:106E990090037FE0FEC433333354802FFFE53C5425
:106EA9000F2F900391F0900388E0900383125835D7
:106EB900900389E090038412583590038AE0FF908B
:106EC900038512583690038BE0FF900386125836DB
:106ED90090038C12588DE4FF129AD290038D1258A8
:106EE9008D7F01129AD290038E12588D7F02129AC9
:106EF900D290038F12588D7F03129AD27B017A03A5
:106F0900798C1270BB900391125843125128900347
:106F190091E0FF125853126245E4F53A7488253A14
:106F2900F582E43403F58312588DAF3A129DAA0510
:106F39003AE53AC3940440E4E4F508F509F50A751D
:106F49000B057F0112A632900391E0FF1295337F62
:106F590008129E13E4FF12A39F1298877B017A03FC
:0D6F690079881243D3900391E090039BF0D0
:016F760022F8
:108CDC00E4FF12940AEFB40202C32290037FE0B5C2
:108CEC000702D32290037FEFF0E0C4333333548078
:108CFC00FF900382E0547F4FF07F01129CD39003CE
:108D0C007FE0FF128E797B017A03798C1270BB9015
:108D1C000382125843125128900382E0FF125853D9
:108D2C00126245E4FF12A39F1298877B017A0379A4
:088D3C00881243D312A20ED3EA
:018D4400220C
:10A419001257E67455F0A3741D12580B7403F0A378
:06A429007480F0024B6F8D
:050026007F01029CD3E4
:10A4D20090567CE493FF12000390567CA3E493FF12
:03A4E20002000372
:037BE3009001D539
:107BE6001257EE7401F0A374D5F07B017A0179DAAD
:107BF600128B979001DA125747129A599001D8EED4
:107C0600F0A3EFF07A56797F127CB6B50611A3E0A1
:107C1600B5070C9001D5125747129326027CB37A0A
:107C2600567984127CB6B50611A3E0B5070C125836
:107C3600B612574712A50B027CB37A56798A127C84
:107C4600C0E0B50618A3E0B507131258B612574799
:107C5600126E2912A20EE4FF12A63280507A5679CD
:107C660090127CC0E0B50610A3E0B5070B1258B61B
:107C760012574712A41980357A567995127CC9E0B5
:107C8600B5060FA3E0B5070A900276E090028BF0E6
:107C9600801B7A567997127CC9E0B50610A3E0B529
:0F7CA600070B129E47900276E0FF129F367F0178
:107CB500227BFF129A599001D8E0227BFF129A5934
:0D7CC5009001D8227BFF129A599001D8221D
:105CB9000D0A0050435400FFC896643200627573A0
:105CC90077203020312041312031316275737720BE
:105CD90030203120413220443779766D697820347B
:105CE900206D6F64652030206873636F6D203120EB
:105CF90031206368303A3130206368313A303020DE
:105D09006368323A3030206368333A303020687340
:105D1900636F6D20312031206368323A313020635E
:105D290068313A3030206368303A30302063683364
:105D39003A3030206873636F6D20312031206368F9
:105D4900313A3130206368303A3030206368323A72
:105D59003030206368333A3030206873636F6D20C8
:105D6900322032206368323A3130206368303A3168
:105D790030206368313A3030206368333A3030205C
:105D89006873636F6D20322032206368303A313096
:105D9900206368323A3130206368313A3030206309
:105DA90068333A3030206873636F6D2032203220B7
:105DB9006368313A3130206368303A3130206368A2
:105DC900323A3030206368333A3030206873636F79
:105DD9006D20322032206368303A313020636831D7
:105DE9003A3130206368323A3030206368333A30D0
:105DF90030206873636F6D20322032206368313A36
:105E09003130206368323A3130206368303A3030BB
:105E1900206368333A3030206873636F6D20322015
:105E290032206368323A3130206368313A313020A8
:105E39006368323A3030206368333A30302068730F
:105E4900636F6D20332033206368303A313020632B
:105E590068313A3130206368323A3130206368332F
:105E69003A3030206873636F6D20312031206368C8
:105E7900333A3030206368313A3030206368323A3F
:0A5E89003030206368303A303020DA
:106CCA00C12844032E00000000410332004103336F
:106CDA000041032D0141032C0241032A0141032BE8
:106CEA000041032100420322000042032400004223
:106CFA000326000042032800004102F5014102F484
:096D0A0000410334004102F300D2
:108031007D017BFF7E007F26022668900213E0FE11
:10804100740B2FF582E43402F5832274DF2FF5825D
:10805100E43401F583E022900006E0FAA3E0FB7C22
:1080610000FFAE020226F878F67C027D017B012238
:108071007D017BFF7E000226687C00AF03AE021209
:1080810026F8900006ECF0A3EDF022E4F0A3F0A3B3
:10809100F0A322E4FDFC900009E0F8A3E0F9A3E0DD
:1080A100FAA3E0FBC302290E7D017BFF7E007F0E58
:1080B100022668E53AF0900274E004F02290020B87
:1080C1007402F0A37432F0A322E4FCFD90000902D3
:1080D1002932900244E090032D2234FFFE7C007D82
:1080E100060226F87420F0A37403F0E4A3F02290B2
:0D80F1000274E0240B227B017A0279F62252
:107E8A0012A541EF64016003027F5B43E11012A374
:107E9A00B98F3AE53AB40218900242E070129002A1
:107EAA007404F090020BE53AF09002427401F02259
:107EBA00E53A6403702A90020CE0FF64526004EF12
:107ECA00B4531D9002F3E07017900274E0FFD3944C
:107EDA0003500D9002F37401F01280411280B42213
:107EEA00E53AB4031B900246E070151280F0128046
:107EFA00441280B49002467401F0E49002F3F02236
:107F0A00900246E0640170371280F0128044E53A2C
:107F1A00F07B017A02790B7D04125AD4EF602F901C
:107F2A0003207401F090020CE09002F6F0E4A3F052
:107F3A0090020DE0900276F090031F7402F0221274
:107F4A0080F01280441280B4E0D39408400A02A15F
:087F5A00E8E4900328F0A3F015
:017F620022FC
:09A629007BFF7A5C79B902A16F94
:0B9D75009003EFEBF0A3EAF0A3E9F08D
:109D80009003EFE0FBA3E0FAA3E0F912268E60193E
:109D90009003EFA3E475F001122763A9F0FA1226ED
:099DA0008EF56AFF12000380D762
:019DA9002297
:10A1E800E4900242F0900246F0900274F090020B64
:10A1F80012808D12808DF0A3F0A3F090031FF0A3BE
:06A20800F09002F6F022C6
:09A63200EF6003C20122D20122F3
:0CA5FE00C200C201C227E4900408F02251
:109F63009003F2EBF0A3EAF0A3E9F020001D9003C5
:109F7300F2E0FBA3E0FAA3E0F8AC02AD037BFF7AC7
:0C9F83005C79BC122B82EF7002D200222D
:0892D6009001D5EEF0A3EFF0CA
:1092DE009001D5E07002A3E0603DE49001D7F0A3C9
:1092EE00F09001D7E0FEA3E0FFE4FCFD7B1BFAF952
:1092FE00F8D312290E40109001D8E004F070E290DD
:10930E0001D7E004F080DA9001D6E024FFF090015E
:07931E00D5E034FFF080B937
:019325002225
:10687E0090000012808C74C8F0A37464F0E4A3F04E
:10688E0012945512A58012A5FE12A1E8E4FF12A5DE
:10689E00611289B87F4D124E08750E00750F28755E
:1068AE0010017511E09003227401F0A374E0F075ED
:1068BE001200751304A37407F0A304F07F9812A6B8
:1068CE008AEF5410FFC4540F900005F0127E8A9088
:1068DE000320E0B401061280F7127BE3900320E060
:1068EE00B4010312A1E8302707128CDC5002C22734
:1068FE0012A541EF6009900003E0750A00F50BE563
:10690E000B6401450A700DF50AF50B900004E07555
:10691E000800F509E509640145087021900242E07E
:10692E00701B129651128FA490028BE0FF90028979
:10693E00E06F6003124E08750800750914E51364C4
:10694E00014512701990024EE0C39401401090025E
:10695E003AE0B401097512007513041279F6E50FC9
:10696E006401450E703C90024EE0703690023AE0A3
:10697E00B4012F900321E0FF74017E00A807088068
:10698E0005C333CE33CED8F9FF129B0E900321E010
:10699E0004F0750E00750F28E0C394064007E4F06E
:1069AE008003129E79900322E07004A3E0640170CC
:1069BE000F90022EF0A3F090032204F0A374E0F0E7
:1069CE00900324E07004A3E06401701690023AE094
:1069DE00B4010F900005E0FF1294E9E4900324F057
:0869EE00A3F043E1100268DA96
:10945500E4F5B8F5A8F58775E127F5D0758922F506
:109465008812A40312A63B12A382E4F58EF5A2D2BC
:1094750099D2AF00F593F5944391035392FCF5957A
:10948500F596F5B1F5B2F5B375B404C2E9C292C269
:0A94950093C294C295C296C29722BA
:087F63009001DDEFF0A3EDF049
:107F6B0078DF7C017A5C79C07F061280719001DD2D
:107F7B00E014603014604714605E14607514700375
:107F8B0002801724056003028030E4F5EA9001DEDD
:107F9B00E0FF7004F5DA800375DA4212804CF5FAD3
:107FAB00E4F5F222E4F5EB9001DEE0FF7004F5DB83
:107FBB00800375DB4212804CF5FBE4F5F322E4F50C
:107FCB00EC9001DEE0FF7004F5DC800375DC4212FF
:107FDB00804CF5FCE4F5F422E4F5ED9001DEE0FFD6
:107FEB007004F5DD800375DD4212804CF5FDE4F580
:107FFB00F522E4F5EE9001DEE0FF7004F5DE800380
:10800B0075DE4212804CF5FEE4F5F622E4F5EF90B6
:10801B0001DEE0FF7004F5DF800375DF4212804C58
:05802B00F5FFE4F5F78C
:01803000222D
:0FA58000E4F5E9F5F975D90475D84043A68022B2
:054E0800900006EFF030
:104E0D0078077C007A5C79C61280A978157C007AC7
:104E1D005C79D41280A978237C007D017BFF7A5CBC
:104E2D0079E27E007F08122668782B7C007A5C7907
:104E3D00EA7F0712807178327C007A5C79F11280FA
:104E4D003178587C007A5D7917128031787E7C003C
:104E5D007D017BFF7A5D793D12803578A47C007DE4
:104E6D00017BFF7A5D796312803578CA7C007D0104
:104E7D007BFF7A5D798912803578F07C007D017B2E
:104E8D00FF7A5D79AF12803578167C017D017BFF4D
:104E9D007A5D79D5128035783C7C017D017BFF7A76
:104EAD005D79FB12803578627C017D017BFF7A5E36
:104EBD00792112803578887C017D017BFF7A5E79BE
:104ECD004712803578AE7C017D017BFF7A5E796D6E
:104EDD00128035E49001D4F0900006E0FE24B6FF78
:104EED00C3940A400674FC2FFF8005E4900277F00E
:104EFD00900289EEF0EFB408005062904F0FF82841
:104F0D002873024F27024F2C024F33024F39024FA5
:104F1D0040024F4E024F5A024F629003338041E4DC
:104F2D00900333F0803DE490024580199002457462
:104F3D000180129002447401F090032D7404F080EE
:104F4D0022E4900244F090032D04F0801690027735
:104F5D007414F0800E9002777441F0800690032D4A
:104F6D007401F0900277E0FFC39401400890033282
:104F7D00EFF0025003900333E06401704990024555
:104F8D00E0601B1280D3B4010B7402F090032C74FB
:104F9D0004F080237402F090032C14F08019128019
:104FAD00D3B4010B7404F090032C7402F0800874D8
:104FBD0001F090032C04F090032DE0C454F0FF9009
:104FCD00032CE04F802C900245E0600590032D806E
:104FDD000C1280D3B4010B7404F090032C7402F006
:104FED0080087401F090032C04F090032DE0FFC4B1
:104FFD0054F0900332F090032AE060251299551277
:10500D0080687A00790712510F7A00791512510FC5
:10501D007A00792B7E007F071226681280F7127BAB
:10502D00E3900332E01229DE505410507A12507E74
:10503D0014505620507C21509024505F4050874191
:10504D00507A42000050A280091280687A00795887
:10505D0080071280687A0079321280359001F574DC
:10506D0003F07B0F7D01E4FF128E158032801D80D1
:10507D00121280687A0079F080221280687A0179A4
:10508D001680191280687A0079CA80101280687AA9
:10509D000079A480071280687A007932128035E495
:1050AD0090032AF01280F7127BE3900332E012296D
:1050BD00DE50DD1050E71250EF1450DF2050EB2181
:1050CD0050FA2450E34050F34150FE420000510984
:1050DD008000E4FF8012E4FF80197F01800A7F01C8
:1050ED0080067F0180027F01128AB3800F7F0180CD
:1050FD00027F01128AB39001D47401F09001D4E0C3
:01510D00FFA2
:10510E00227E007F0E1226687B017A0279F6127BD0
:0A511E00E378F67C027D017B01229C
:029F3600AB0777
:109F3800E4FFFEEBC3943D4021EBD39461501BEB4F
:109F480024C3FFEE1280DBAA07EB24C3FFE41280D0
:0A9F5800DBAE05AF02127F637F014C
:019F620022DC
:10912700E4FBFAFD7F90129698EEC4F854F0C868F5
:10913700FEEFC4540F48FFEEC4F854F0C868FAEFC6
:10914700C4540F48FB2091047A007B637C007D0A9E
:10915700AF03AE021226F8D3ED9409EC9400500742
:10916700ED2430900221F0AE02AF037C007D0A129D
:0991770026F8EF2430900226F0E6
:0191800022CC
:1076A00090000612808C12293E00000000E4FF12B8
:1076B000A306900006EEF0A3EFF0900006E0FEA314
:1076C000E0FF1280CA7F6E7E021280944042E47F07
:1076D000A57E03FDFC900009E0F8A3A3A3E0D3126C
:1076E000290E9000095020E0F8A3A3A3C374A59B22
:1076F000FF74039AFEE499FDE498FCE47B707A0140
:10770000F9F81227F1802B12293E00030AE8803194
:107710007FF37E01128094401E900006E0FEA3E0FD
:10772000FF746E9FFF74029EFE7C007DD21226E6DF
:10773000E4FD1280CD800A90000912293E0000F27B
:1077400094E47B64FAF9F8900009E0FCA3E0FDA35F
:10775000E0FEA3E0FF12287C900006EEF0FAA3EF13
:10776000F0FB1280CAD3EB940FEA9427400A9000F2
:10777000067427F0A3740FF0900006E0FAA3E0FB74
:107780007C037DE8128062EF243090021BF07C03C2
:107790007DE812807C7D64128058EF243090021ABC
:1077A000F07D6412807A7D0A128058EF24309002B6
:0D77B00019F07D0A12807A2430900218F042
:0177BD0022A9
:109230001280BE7450F0A37430F0A374611280C326
:109240001280E590000CF090000CE0FFD3940750E2
:109250001312803CE0FFEE6F900213F090000CE0E0
:1092600004F080E3E490000CF090000CE0FFD39455
:10927000085010128041E0FF12000390000CE0043F
:03928000F080E695
:0192830022C8
:108F41001280BE744FF090023FE090020EF090024A
:108F510040E090020FF0900241E0900210F0A31265
:108F610080E590000CF090000CE0FFD394075013C3
:108F710012803CE0FFEE6F900213F090000CE004D1
:108F8100F080E3E490000CF090000CE0FFD3940833
:108F91005010128041E0FF12000390000CE004F039
:028FA10080E668
:018FA30022AB
:10002E001010FFFFFFFFFFFFFFFFFFFFFFFFFFFFB0
:10003E00FFFFFFFFFFFFFFFFFFFFFFFFFFFFFFFFC2
:10004E00FFFFFFFFFFFFFFFFFFFFFFFFFFFFFFFFB2
:10005E00FFFFFFFFFFFFFFFFFFFFFFFFFFFFFFFFA2
:10006E00FFFFFFFFFFFFFFFFFFFFFFFFFFFFFFFF92
:10007E00FFFFFFFFFFFFFFFFFFFFFFFFFFFFFFFF82
:10008E00FFFFFFFFFFFFFFFFFFFFFFFFFFFFFFFF72
:10009E00FFFFFFFFFFFFFFFFFFFFFFFFFFFFFFFF62
:1000AE00FFFFFFFFFFFFFFFFFFFFFFFFFFFFFFFF52
:1000BE00FFFFFFFFFFFFFFFFFFFFFFFFFFFFFFFF42
:1000CE00FFFFFFFFFFFFFFFFFFFFFFFFFFFFFFFF32
:1000DE00FFFFFFFFFFFFFFFFFFFFFFFFFFFFFFFF22
:1000EE00FFFFFFFFFFFFFFFFFFFFFFFFFFFFFFFF12
:1000FE00FFFFFFFFFFFFFFFFFFFFFFFFFFFFFFFF02
:10010E00FFFFFFFFFFFFFFFFFFFFFFFFFFFFFFFFF1
:10011E00FFFFFFFFFFFFFFFFFFFFFFFFFFFFFFFFE1
:10012E00FFFF1010FFFFFFFFFFFFFFFFFFFFFFFFAF
:10013E00FFFFFFFFFFFFFFFFFFFFFFFFFFFFFFFFC1
:10014E00FFFFFFFFFFFFFFFFFFFFFFFFFFFFFFFFB1
:10015E00FFFFFFFFFFFFFFFFFFFFFFFFFFFFFFFFA1
:10016E00FFFFFFFFFFFFFFFFFFFFFFFFFFFFFFFF91
:10017E00FFFFFFFFFFFFFFFFFFFFFFFFFFFFFFFF81
:10018E00FFFFFFFFFFFFFFFFFFFFFFFFFFFFFFFF71
:10019E00FFFFFFFFFFFFFFFFFFFFFFFFFFFFFFFF61
:1001AE00FFFFFFFFFFFFFFFFFFFFFFFFFFFFFFFF51
:1001BE00FFFFFFFFFFFFFFFFFFFFFFFFFFFFFFFF41
:1001CE00FFFFFFFFFFFFFFFFFFFFFFFFFFFFFFFF31
:1001DE00FFFFFFFFFFFFFFFFFFFFFFFFFFFFFFFF21
:1001EE00FFFFFFFFFFFFFFFFFFFFFFFFFFFFFFFF11
:1001FE00FFFFFFFFFFFFFFFFFFFFFFFFFFFFFFFF01
:10020E00FFFFFFFFFFFFFFFFFFFFFFFFFFFFFFFFF0
:10021E00FFFFFFFFFFFFFFFFFFFFFFFFFFFFFFFFE0
:10022E00FFFFFFFF1010FFFFFFFFFFFFFFFFFFFFAE
:10023E00FFFFFFFFFFFFFFFFFFFFFFFFFFFFFFFFC0
:10024E00FFFFFFFFFFFFFFFFFFFFFFFFFFFFFFFFB0
:10025E00FFFFFFFFFFFFFFFFFFFFFFFFFFFFFFFFA0
:10026E00FFFFFFFFFFFFFFFFFFFFFFFFFFFFFFFF90
:10027E00FFFFFFFFFFFFFFFFFFFFFFFFFFFFFFFF80
:10028E00FFFFFFFFFFFFFFFFFFFFFFFFFFFFFFFF70
:10029E00FFFFFFFFFFFFFFFFFFFFFFFFFFFFFFFF60
:1002AE00FFFFFFFFFFFFFFFFFFFFFFFFFFFFFFFF50
:1002BE00FFFFFFFFFFFFFFFFFFFFFFFFFFFFFFFF40
:1002CE00FFFFFFFFFFFFFFFFFFFFFFFFFFFFFFFF30
:1002DE00FFFFFFFFFFFFFFFFFFFFFFFFFFFFFFFF20
:1002EE00FFFFFFFFFFFFFFFFFFFFFFFFFFFFFFFF10
:1002FE00FFFFFFFFFFFFFFFFFFFFFFFFFFFFFFFF00
:10030E00FFFFFFFFFFFFFFFFFFFFFFFFFFFFFFFFEF
:10031E00FFFFFFFFFFFFFFFFFFFFFFFFFFFFFFFFDF
:10032E00FFFFFFFFFFFF1010FFFFFFFFFFFFFFFFAD
:10033E00FFFFFFFFFFFFFFFFFFFFFFFFFFFFFFFFBF
:10034E00FFFFFFFFFFFFFFFFFFFFFFFFFFFFFFFFAF
:10035E00FFFFFFFFFFFFFFFFFFFFFFFFFFFFFFFF9F
:10036E00FFFFFFFFFFFFFFFFFFFFFFFFFFFFFFFF8F
:10037E00FFFFFFFFFFFFFFFFFFFFFFFFFFFFFFFF7F
:10038E00FFFFFFFFFFFFFFFFFFFFFFFFFFFFFFFF6F
:10039E00FFFFFFFFFFFFFFFFFFFFFFFFFFFFFFFF5F
:1003AE00FFFFFFFFFFFFFFFFFFFFFFFFFFFFFFFF4F
:1003BE00FFFFFFFFFFFFFFFFFFFFFFFFFFFFFFFF3F
:1003CE00FFFFFFFFFFFFFFFFFFFFFFFFFFFFFFFF2F
:1003DE00FFFFFFFFFFFFFFFFFFFFFFFFFFFFFFFF1F
:1003EE00FFFFFFFFFFFFFFFFFFFFFFFFFFFFFFFF0F
:1003FE00FFFFFFFFFFFFFFFFFFFFFFFFFFFFFFFFFF
:10040E00FFFFFFFFFFFFFFFFFFFFFFFFFFFFFFFFEE
:10041E00FFFFFFFFFFFFFFFFFFFFFFFFFFFFFFFFDE
:10042E00FFFFFFFFFFFFFFFF1010FFFFFFFFFFFFAC
:10043E00FFFFFFFFFFFFFFFFFFFFFFFFFFFFFFFFBE
:10044E00FFFFFFFFFFFFFFFFFFFFFFFFFFFFFFFFAE
:10045E00FFFFFFFFFFFFFFFFFFFFFFFFFFFFFFFF9E
:10046E00FFFFFFFFFFFFFFFFFFFFFFFFFFFFFFFF8E
:10047E00FFFFFFFFFFFFFFFFFFFFFFFFFFFFFFFF7E
:10048E00FFFFFFFFFFFFFFFFFFFFFFFFFFFFFFFF6E
:10049E00FFFFFFFFFFFFFFFFFFFFFFFFFFFFFFFF5E
:1004AE00FFFFFFFFFFFFFFFFFFFFFFFFFFFFFFFF4E
:1004BE00FFFFFFFFFFFFFFFFFFFFFFFFFFFFFFFF3E
:1004CE00FFFFFFFFFFFFFFFFFFFFFFFFFFFFFFFF2E
:1004DE00FFFFFFFFFFFFFFFFFFFFFFFFFFFFFFFF1E
:1004EE00FFFFFFFFFFFFFFFFFFFFFFFFFFFFFFFF0E
:1004FE00FFFFFFFFFFFFFFFFFFFFFFFFFFFFFFFFFE
:10050E00FFFFFFFFFFFFFFFFFFFFFFFFFFFFFFFFED
:10051E00FFFFFFFFFFFFFFFFFFFFFFFFFFFFFFFFDD
:10052E00FFFFFFFFFFFFFFFFFFFF1010FFFFFFFFAB
:10053E00FFFF00000000FFFFFFFFFFFFFFFFFFFFB9
:10054E00FF000000000000FFFFFFFFFFFFFFFFFFA7
:10055E000000020202020000FFFFFFFFFFFFFFFF8D
:10056E000000020202020000FFFFFFFFFFFFFF007C
:10057E00000202000002020000FFFFFFFFFFFF006B
:10058E00000202000002020000FFFFFFFFFF00005A
:10059E0002020000000002020000FFFFFFFF000049
:1005AE00020200FFFF0002020000FFFFFF00000238
:1005BE00020000FFFF000002020000FFFF00000229
:1005CE000200000000000002020000FF0000020214
:1005DE0002020202020202020202000000000202F5
:1005EE0002020202020202020202000000000202E5
:1005FE0000000000000000000202000000000202E5
:10060E000000FFFFFFFF00000202000000000202D8
:10061E000000FFFFFFFF00000202000000000000CC
:10062E000000FFFFFFFF00000000000010100000A0
:10063E00000000000000000000000000FFFF0002AC
:10064E0002020202020202020202000000FF000287
:10065E000202020202020202020202000000000076
:10066E000002020000000000020202020000FF0071
:10067E0000020200FFFFFF00000202020000FF0066
:10068E0000020200FFFFFF00000202020000FF0056
:10069E0000020200000000000202020000FFFF0044
:1006AE00000202020202020202020000FFFFFF002D
:1006BE00000202020202020202020000FFFFFF001D
:1006CE0000020200000000000202020000FFFF0014
:1006DE0000020200FFFFFF00000202020000FF0006
:1006EE0000020200FFFFFF000002020200000000F5
:1006FE0000020200000000000202020200000002DE
:10070E0002020202020202020202020000000002C3
:10071E0002020202020202020202000000FF0000B8
:10072E00000000000000000000000000FFFF10109D
:10073E00FFFFFF00000000000000000000FFFFFFB1
:10074E00FFFF00000202020202020202000000FF8E
:10075E00FF00000202020202020202020200000078
:10076E000000000202000000000000020202000071
:10077E0000000202020000FFFFFF00000202000064
:10078E00000002020000FFFFFFFFFF000202000058
:10079E00000002020000FFFFFFFFFFFF000000004D
:1007AE00000002020000FFFFFFFFFFFFFFFFFFFF41
:1007BE00000002020000FFFFFFFFFFFFFFFFFFFF31
:1007CE00000002020000FFFFFFFFFF00000000001C
:1007DE00000002020000FFFFFFFFFF000202000008
:1007EE0000000202000000FFFFFF000002020000F6
:1007FE0000000202020000000000000202020000DF
:10080E00FF000002020202020202020202000000C7
:10081E00FFFF00000202020202020202000000FFBD
:10082E00FFFFFF0000000000000000000000FFFFBF
:10083E001010000000000000000000000000FFFF8C
:10084E00FFFF00000202020202020202020000FF8B
:10085E00FFFF000002020202020202020202000078
:10086E00FFFF000002020000000000020202000072
:10087E00FFFF000002020000FFFF00000202000066
:10088E00FFFF000002020000FFFF00000202000056
:10089E00FFFF000002020000000000020202000042
:1008AE00FFFF00000202020202020202020000FF2B
:1008BE00FFFF00000202020202020202000000FF1D
:1008CE00FFFF000002020000020202000000FFFF14
:1008DE00FFFF000002020000000202020000FFFF04
:1008EE00FFFF00000202000000000202020000FFF3
:1008FE00FFFF000002020000FF00000202020000E3
:10090E00FFFF000002020000FFFF000002020200D3
:10091E0000FF000002020000FFFFFF0000020202C3
:10092E0000FF000000000000FFFFFFFF00000000BE
:10093E0000FF101000000000FFFFFFFFFFFFFFFF92
:10094E00000000000000000000FFFFFFFFFFFF009F
:10095E000000000000000C0C0000FFFFFFFF000075
:10096E000C0C000000000C0C0C0000000000000C31
:10097E000C0C000000000C0C0C0C000000000C0C09
:10098E000C0C000000000C0C0C0C0C0C0C0C0C0CC9
:10099E000C0C000000000C0C0C0C0C0C0C0C0C0CB9
:1009AE000C0C000000000C0C0C000C0C0C0C000CC1
:1009BE000C0C000000000C0C0C00000C0C00000CC9
:1009CE000C0C000000000C0C0C0000000000000CD1
:1009DE000C0C000000000C0C0C0000000000000CC1
:1009EE000C0C000000000C0C0C0000FFFF00000CB3
:1009FE000C0C000000000C0C0C0000FFFF00000CA3
:100A0E000C0C000000000C0C0C0000FFFF00000C92
:100A1E000C0C000000000C0C0C0000FFFF00000C82
:100A2E000C0C000000000000000000FFFF000000A2
:100A3E00000000001010FF00000000000000000089
:100A4E000000000000FFFF0000020202020202028C
:100A5E000202020000FFFF00000202020202020276
:100A6E000202020000FFFF00000000000000020270
:100A7E000200000000FFFFFFFFFFFFFF0000020269
:100A8E00020000FFFFFFFFFFFFFFFFFF000002025B
:100A9E00020000FFFFFFFFFFFFFFFFFF000002024B
:100AAE00020000FFFFFFFFFFFFFFFFFF000002023B
:100ABE00020000FFFFFFFFFFFFFFFFFF000002022B
:100ACE00020000FFFFFFFFFFFFFFFFFF000002021B
:100ADE00020000FFFFFFFF00000000FF0000020207
:100AEE00020000FFFFFFFF000202000000000202F2
:100AFE00020000FFFFFFFF000202020000020202DE
:100B0E00020000FFFFFFFF000002020202020202CB
:100B1E00000000FFFFFFFFFF0000020202020200C2
:100B2E000000FFFFFFFFFFFFFF00000000000000BE
:100B3E0000FFFFFFFFFF1010FFFFFFFFFFFFFFFF94
:100B4E00FFFFFFFFFFFFFFFFFFFFFFFFFF000000A4
:100B5E0000000000FFFFFFFFFFFFFFFF000001018D
:100B6E0001010000FFFFFFFFFFFFFF000001010179
:100B7E0001010000FFFFFFFFFFFF00000101010167
:100B8E00010000FFFFFFFFFFFF0000010101010157
:100B9E000000000000000000000001010101010141
:100BAE00010101010101000000010101010101012A
:100BBE00010101010101000000010101010101011A
:100BCE00010101010101000000000101010101010B
:100BDE000101010101010000FF00000101010101FD
:100BEE000000000000000000FFFF000001010101F5
:100BFE00010000FFFFFFFFFFFFFFFF0000010101EB
:100C0E0001010000FFFFFFFFFFFFFFFF00000101DA
:100C1E0001010000FFFFFFFFFFFFFFFFFF000000CD
:100C2E0000000000FFFFFFFFFFFFFFFFFFFFFFFFC2
:100C3E00FFFFFFFFFFFFFFFF1010FFFFFFFFFFFF94
:100C4E00FFFFFFFFFFFFFFFFFFFFFFFFFFFF0000A4
:100C5E000000000000FFFFFFFFFFFFFFFFFF00008F
:100C6E00010101010000FFFFFFFFFFFFFFFF00007A
:100C7E0001010101010000FFFFFFFFFFFFFFFF0069
:100C8E000001010101010000FFFF00000000000053
:100C9E00000001010101010000FF0000010101013E
:100CAE00010101010101010100000000010101012A
:100CBE000101010101010101010000000101010119
:100CCE00010101010101010101000000000000000D
:100CDE00000001010101010000FF00000000000002
:100CEE00000001010101010000FFFFFFFFFFFF00F7
:100CFE000001010101010000FFFFFFFFFFFF0000E7
:100D0E0001010101010000FFFFFFFFFFFFFF0000D7
:100D1E00010101010000FFFFFFFFFFFFFFFF0000C9
:100D2E000000000000FFFFFFFFFFFFFFFFFFFFFFC0
:100D3E00FFFFFFFFFFFFFFFFFFFF1010FFFFFFFF93
:100D4E000000000000000000FFFFFFFFFFFFFFFF9D
:100D5E000000010101010000FFFFFFFFFFFFFFFF89
:100D6E000000010101010000FFFFFFFFFFFFFFFF79
:100D7E000000010101010000FFFFFFFFFFFFFFFF69
:100D8E000000010101010000FFFFFFFF0000000055
:100D9E00000001010101000000000000000001013F
:100DAE00000001010101000001010000000001012D
:100DBE00010001010101000101010000000001011B
:100DCE000101010101010101010100000000010109
:100DDE00010101010101010101010000FF000001FB
:100DEE000101010101010101010000FFFFFF0000EF
:100DFE0001010101010101010000FFFFFFFFFF00E2
:100E0E00000101010101010000FFFFFFFFFFFFFFD5
:100E1E000000010101010000FFFFFFFFFFFFFFFFC8
:100E2E00FF000001010000FFFFFFFFFFFFFFFFFFBC
:100E3E00FFFF00000000FFFFFFFFFFFF1010FFFF8E
:100E4E00FFFFFFFFFFFF0000000000000000FFFF9C
:100E5E00FFFFFFFFFF000002020202020000FFFF81
:100E6E00FFFFFFFF00000202020202020000FFFF6E
:100E7E00FFFFFF000002020200000202000000005D
:100E8E00000000000202020000000202000000004A
:100E9E000202020202020200FF0002020000000033
:100EAE000202020202020200FF0002020000000023
:100EBE000202000000020200FF0002020000000019
:100ECE00020200FF00020200FF000202000000000A
:100EDE000202000000020200FF00020200000000F9
:100EEE000202020202020200FF00020200000000E3
:100EFE0002020202020202000000020200000000D2
:100F0E000000000000020202000002020000FFFFCB
:100F1E00FFFFFFFF00000202020202020000FFFFBD
:100F2E00FFFFFFFFFF000002020202020000FFFFB0
:100F3E00FFFFFFFFFFFF0000000000000000101089
:100F4E000000000000FFFFFFFFFFFF000000000099
:100F5E000001010100FFFFFFFFFFFF000101010083
:100F6E000001010100FFFFFFFFFFFF000101010073
:100F7E000001010100FFFFFFFFFFFF000101010063
:100F8E000001010100FFFFFFFFFFFF000101010053
:100F9E00000101010000FFFFFFFF00000101010041
:100FAE00000101010100FFFFFFFF0001010101002F
:100FBE00000001010100FFFFFFFF00010101000021
:100FCE0000000101010000FFFF000001010100000F
:100FDE00FF0000010101000000000101010000FFFF
:100FEE00FFFF000001010100000101010000FFFFF1
:100FFE00FFFF000000010100000101000000FFFFE3
:10100E00FFFFFF00000101010101010000FFFFFFD2
:10101E00FFFFFFFF0000010101010000FFFFFFFFC6
:10102E00FFFFFFFFFF00000101000000FFFFFFFFB9
:10103E00FFFFFFFFFFFF0000000000FFFFFFFFFFAD
:10104E00101000000000000000FFFFFFFFFFFFFF79
:10105E00FFFF00000101010000FFFFFFFFFFFFFF88
:10106E00FFFF00000101010000FFFFFFFFFFFFFF78
:10107E00FFFF00000101010000FFFFFFFFFFFFFF68
:10108E00FFFF00000101010000FFFFFFFFFFFFFF58
:10109E00FFFF00000101010000FFFFFFFFFFFFFF48
:1010AE00FFFF00000101010000FFFFFFFFFFFFFF38
:1010BE00FFFF00000101010000FFFFFFFFFFFFFF28
:1010CE00FFFF00000101010000FFFFFFFFFFFFFF18
:1010DE00FFFF00000101010000FFFFFFFFFF000006
:1010EE00000000000101010000FFFFFFFFFF0000F4
:1010FE00000000000101010000FFFFFFFF000001E2
:10110E0000000000010101000000000000000101CC
:10111E0000000000010101010101010101010101B5
:10112E0000000000010101010101010101010101A5
:10113E0000000000000000000000000000000000A1
:10114E0000001010FFFFFFFFFFFFFFFFFFFFFFFF7D
:10115E00FFFFFFFFFFFFFFFFFFFFFFFFFFFFFFFF91
:10116E00FFFFFFFFFFFFFFFFFFFFFFFFFFFFFFFF81
:10117E00FFFFFFFFFFFFFFFF00000000000000FF6A
:10118E00FFFFFFFFFFFFFF00000001010100000055
:10119E00FFFFFFFFFFFF0000010101010101010040
:1011AE0000FFFFFFFF00000101010000000101012F
:1011BE000000FFFF00000001010000FF0000010120
:1011CE00000000FF00000101010000FF000001010E
:1011DE00010000FF00000101010000FF00000101FD
:1011EE00010000FF00000101010000FF00000101ED
:1011FE00010000FF00000001010000FF00000101DE
:10120E00000000FFFF0000010101000000010101CC
:10121E000000FFFFFFFF00000101010101010100BD
:10122E0000FFFFFFFFFFFF000000010101000000B3
:10123E00FFFFFFFFFFFFFFFF00000000000000FFA9
:10124E00FFFFFFFF1010FFFFFFFFFFFFFFFFFFFF7E
:10125E00FFFFFFFFFFFFFFFFFFFF0000000000008A
:10126E000000FFFFFFFFFFFF00000000020202026E
:10127E00000000FFFFFFFF00000002020202020258
:10128E0002020000FFFFFF00000202020000000049
:10129E000202020000FFFF00000202020000FF0037
:1012AE000000000000FFFF0000000202020200002A
:1012BE000000FFFFFFFFFFFFFF000002020202021D
:1012CE00020000FFFFFFFFFFFFFF00000000020211
:1012DE0002020000FFFFFF0000000000FFFF000001
:1012EE000202020000FFFF000002020200000000E6
:1012FE000202020000FFFF000000020202020202D0
:10130E0002020000FFFFFFFFFF00000002020202C8
:10131E00000000FFFFFFFFFFFFFFFF0000000000C7
:10132E000000FFFFFFFFFFFFFFFFFFFFFFFFFFFFBD
:10133E00FFFFFFFFFFFFFFFFFFFFFFFFFFFFFFFFAF
:10134E00FFFFFFFFFFFF1010FFFFFFFFFFFFFFFF7D
:10135E00FFFFFFFFFFFFFFFFFFFFFFFFFFFFFFFF8F
:10136E00FFFFFFFFFFFFFFFFFFFFFFFFFFFFFFFF7F
:10137E00FFFFFFFFFFFFFFFFFFFFFFFFFFFFFFFF6F
:10138E00FFFFFFFFFFFFFFFFFFFFFFFFFFFFFFFF5F
:10139E00FFFFFFFFFFFFFFFFFFFFFFFFFFFFFFFF4F
:1013AE00FFFFFFFFFFFFFFFFFFFFFFFFFFFFFFFF3F
:1013BE00FFFFFFFFFFFFFFFFFFFFFFFFFFFFFFFF2F
:1013CE00FFFFFFFFFFFFFFFF1010FFFFFFFFFFFFFD
:1013DE00FFFFFFFFFFFFFFFFFFFFFFFFFFFFFFFF0F
:1013EE00FFFFFFFFFFFFFFFFFFFFFFFFFFFFFFFFFF
:1013FE00FFFFFFFFFFFFFFFFFFFFFFFFFFFFFFFFEF
:10140E00FFFFFFFFFFFFFFFFFFFFFFFFFFFFFFFFDE
:10141E00FFFFFFFFFFFFFFFFFFFFFFFFFFFFFFFFCE
:10142E00FFFFFFFFFFFFFFFFFFFFFFFFFFFFFFFFBE
:10143E00FFFFFFFFFFFFFFFFFFFFFFFFFFFFFFFFAE
:10144E00FFFFFFFFFFFFFFFFFFFF1010FFFFFFFF7C
:10145E00FFFFFFFFFFFFFFFFFFFFFFFFFFFFFFFF8E
:10146E00FFFFFFFFFFFFFFFFFFFFFFFFFFFFFFFF7E
:10147E00FFFFFFFFFFFFFFFFFFFFFFFFFFFFFFFF6E
:10148E00FFFFFFFFFFFFFFFFFFFFFFFFFFFFFFFF5E
:10149E00FFFFFFFFFFFFFFFFFFFFFFFFFFFFFFFF4E
:1014AE00FFFFFFFFFFFFFFFFFFFFFFFFFFFFFFFF3E
:1014BE00FFFFFFFFFFFFFFFFFFFFFFFFFFFFFFFF2E
:1014CE00FFFFFFFFFFFFFFFFFFFFFFFF1010FFFFFC
:1014DE00FFFFFFFFFFFFFFFFFFFFFFFFFFFFFFFF0E
:1014EE00FFFFFFFFFFFFFFFFFFFFFFFFFFFFFFFFFE
:1014FE00FFFFFFFFFFFFFFFFFFFFFFFFFFFFFFFFEE
:10150E00FFFFFFFFFFFFFFFFFFFFFFFFFFFFFFFFDD
:10151E00FFFFFFFFFFFFFFFFFFFFFFFFFFFFFFFFCD
:10152E00FFFFFFFFFFFFFFFFFFFFFFFFFFFFFFFFBD
:10153E00FFFFFFFFFFFFFFFFFFFFFFFFFFFFFFFFAD
:10154E00FFFFFFFFFFFFFFFFFFFFFFFFFFFF10107B
:10155E00FFFFFFFFFFFFFFFFFFFFFFFFFFFFFFFF8D
:10156E00FFFFFFFFFFFFFFFFFFFFFFFFFFFFFFFF7D
:10157E00FFFFFFFFFFFFFFFFFFFFFFFFFFFFFFFF6D
:10158E00FFFFFFFFFFFFFFFFFFFFFFFFFFFFFFFF5D
:10159E00FFFFFFFFFFFFFFFFFFFFFFFFFFFFFFFF4D
:1015AE00FFFFFFFFFFFFFFFFFFFFFFFFFFFFFFFF3D
:1015BE00FFFFFFFFFFFFFFFFFFFFFFFFFFFFFFFF2D
:1015CE00FFFFFFFFFFFFFFFFFFFFFFFFFFFFFFFF1D
:1015DE001010FFFFFF0000FFFFFFFFFFF000000FE6
:1015EE00FFFFFFFF00222200FFFFFFFF002222006D
:1015FE00FFFFFFF0022002200FFFFFF0022002206B
:10160E000FFFFF002200002200FFFF00220FF0223A
:10161E0000FFF002200FF002200FF0022000000267
:10162E00200F002222222222220000222222222207
:10163E0022000022000000002200002200FFFF0016
:10164E002200002200FFFF002200000000FFFF002A
:10165E000000101000000000000000FF02222222F5
:10166E002222000F0222222222222000000220002B
:10167E0000222200F00220FFF0022200F00220FFE2
:10168E00F0022200F00220000022200FF00222229F
:10169E00222200FFF0022222222200FFF00220006E
:1016AE000022200FF00220FFF0022200F00220FFA5
:1016BE00F00222000002200000222200022222223A
:1016CE0022222000022222222222000F00000000ED
:1016DE00000000FF1010101010101010101010103D
:0A16EE001010101010101010101052
:109BF6001226A7FF900407E02F9001F5F0229001AE
:109C0600EFE0FBA3E0FAA3E0F922F09001EFE0FB1E
:109C1600A3E475F001122763A9F0FA02268E9001DB
:089C2600E6E0D3648094802283
:06A67800E4900407F0224B
:06A67E00900407EFF0223A
:0B63E8009001E7EFF0A3ECF0A3EDF054
:1063F3009001E7E0FF25E0F0E02408F09001EEF0E3
:106403009001E8E0FEA3E07803C333CE33CED8F99E
:10641300F0EE9001E8F0A3E02408F09001E8E03406
:1064230000F0AF037E007C017D021226E6742E2F5E
:10643300F974003EFA9001EF74FFF0A3EAF0A3E9C8
:10644300129C109001EA129C109001EBF0E4A3F06F
:106453009001EAE0FF9001ECE0C39F400302652F47
:10646300E4A3F09001EBE0FF9001EDE0C39F400354
:10647300026510129C0412268E129BF9E4FB7D0226
:10648300FF128E15129C04900001129BF67B0112E1
:106493006559900002129BF67B0212655990000326
:1064A300129BF67B0312656C9001F57480F07B04FC
:1064B30012656C9001F0E475F00412274D9001EE23
:1064C300E09001F5F07B05126574A3E09001F5F00F
:1064D3007B07126574E07E007802C333CE33CED8D7
:1064E300F912653012657F20E7FA9001E8E025E0B4
:1064F30025E0440812653012657F20E7FA9001EE2B
:10650300E004F09001EDE02404F00264669001E7FA
:10651300E09001EEF09001E9E004F070069001E8EC
:0C652300E004F09001ECE004F00264538E
:10652F00229001F5F07B097D02E4FF128E157B0AA4
:10653F007D02E4FF1288ABEF543F44809001F5F0E9
:10654F007B0A7D02E4FF128E15227D02E4FF128E7C
:10655F00159001EFE0FBA3E0FAA3E0F9227D02E43E
:10656F00FF128E15227D02E4FF128E159001E82294
:0B657F007B0A7D02E4FF1288ABEF22D4
:0B9068009001E0EFF0A3EDF0A3EBF0AF
:10907300A3129C0712A4459001E6EFF0C364809409
:109083008040429001E0E030E0339001E1E0FFA353
:10909300E0FD7C00A3129C0712268EFB1263E8906E
:1090A30001E6E014F09001E4E475F00112274D901D
:1090B30001E1E02402F0129C2450CF8005129C248D
:0590C30050FB12A6A203
:0190C8002285
:10A2E6000500000600000700000800000900000A3B
:10A2F600000012000020000B000C000D000E0000F4
:036D13000121005B
:1081C100900383E075F003A424E6F974A235F0FA74
:1081D1009001E374FFF0A3229001DDE0FBA3E0FA3C
:1081E100A3E0F922900383E0FF74017E00A8070851
:1081F10022FF900390E0FDEF5D2274A3F0A37405CC
:10820100F0229000010226A774A2F0A374F2F022DA
:1082110074A3F0A37403F022EAF0A3E9F0E4FB22D3
:108221009000020226A712268E540C1313543FF518
:108231003A22EAF0A3E9F07B12227B017D127C0055
:10824100227D197B057C007F3A22EBF0A3EAF0A3A3
:10825100E9F0229000030226A77B017D0F7C00221A
:10826100EAF0A3E9F07B0F227B01E4FDFC7F1C22F5
:088271007B01E4FDFC7F4122CA
:109373001271FC12A6787F0412A69C7F0312A69F8B
:10938300E4F53AAF3A1293A9053AE53AC394064095
:10939300F27F01129CD37FFF12A69F7F081293A92D
:0593A300E4900380F0DE
:1093A8002212A3269001E1E4F0A37426F07B5AE48C
:0793B800FDFCFF1283DC2223
:1043D3009001DD12824B7F0212A69C7FFF12A69FE3
:1043E300900382E01229DE441811442721445B2202
:1043F300448F3144CD33450834454341459391457A
:10440300AAA145D6A245FFB14644B34685B446C7E3
:10441300C1000047241281D912268E20E1030247EE
:104423002402459F1281D912268E30E10D1281C1DB
:104433001282197DFF7F011290681281D9128203C3
:1044430020E1030247249003841281C4EAF0A3E924
:10445300F07B1D7D5D02471F1281D912268E30E14C
:10446300111281C1EAF0A3E9F07B0E7D487F0112AE
:1044730090681281D912820320E10302472490033A
:10448300841281C41282197D1402471F1281D9122A
:10449300268E30E1091281C11282191247711281ED
:1044A300D912820330E1099003841281C412475266
:1044B3001281D912822120E103024724900385123D
:1044C30081C41282617D3E02471F1281D912268E5A
:1044D30030E1061281C11247251281D912820330BD
:1044E300E1099003841281C41247431281D91282D5
:1044F3002120E1030247249003851281C4128261C3
:104503007D3E02471F1281D912268E30E1061281A9
:10451300C11247251281D912820330E10990038425
:104523001281C41247431281D912822120E103026E
:1045330047249003851281C41282617D1402471FB0
:104543001281D912268E30E1061281C1124734122C
:1045530081D912820330E10C9003841281C4128248
:10456300191247691281D912822130E1099003851A
:104573001281C41247521281D912825420E10302DC
:1045830047249003861281C41282617D3E02471F35
:104593001281D912268E20E1030247241281C1120F
:1045A30082197D2902471F1281D912268E30E10913
:1045B3001281C11282191247711281D9128203200A
:1045C300E1030247249003841281C41282337D29BC
:1045D30002471F1281D912268E30E1061281C112C1
:1045E30047341281D912820320E103024724900346
:1045F300841281C41282197D3E02471F1281D9128F
:10460300268E30E10D1281C11282197D297F01129C
:1046130090681281D912820330E10C9003841281D5
:10462300C41282331247611281D912822120E1031D
:104633000247249003851281C41282337D3E0247D0
:104643001F1281D912268E30E1091281C1128219FB
:104653001247611281D912820330E10C9003841254
:1046630081C41282191247691281D912822120E171
:10467300030247249003851281C41282337D3E02D4
:10468300471F1281D912268E30E1091281C112828D
:10469300191247791281D912820330E110900384F1
:1046A3001281C41282197D3E7F011290681281D952
:1046B30012822130E16B9003851281C41282337D13
:1046C3001402471F1281D912268E30E1091281C1CB
:1046D3001282191247791281D912820330E11090A4
:1046E30003841281C41282197D3E7F0112906812E5
:1046F30081D912822130E1109003851281C4128284
:10470300337D147F011290681281D912825430E1F3
:10471300109003861281C41282337D3E7F01129072
:104723006822EAF0A3E9F0E4FB7D147F01129068AC
:1047330022EAF0A3E9F0E4FB7D147F0112906822E2
:10474300EAF0A3E9F0E4FB7D3E7F0112906822EAE0
:10475300F0A3E9F07B0F7D147F01129068227D1492
:104763007F01129068227D3E7F01129068227D298D
:0E4773007F01129068227D147F01129068224F
:08A66800900381E04480F02220
:109651007B787D01E4FF1288ABEF540FFF900390FC
:10966100F0900381E06F602ED2277B31E4FDFF1281
:1096710088ABEF547F9001F5F07B31E4FDFF128E52
:10968100157F4D12A69C7F4012A67E12A6789003EC
:0796910090E0900381F0223C
:066B60009001DD12824BE2
:106B66007F4112A69C900382E01229DE6B9A116B7C
:106B7600AB216BDF226C16316C39336C56346B9A51
:106B8600916BABA16BDFA26C16B16C39B36C56B4CA
:106B960000006C939001DD1281DC128227600302F3
:106BA6006C21026C2F9001DD1281DC1282276012AB
:106BB600126C941281D01282197D1C7F011290688A
:106BC60080061282691282799001DD1281DC1282BE
:106BD6000312822A6037026C649001DD1281DC1296
:106BE60082276012126C941281D01282197D1C7F4A
:106BF6000112906880061282691282799001DD1274
:106C060081DC12820312822A6003026C64026C89A0
:106C16009001DD1281DC128227600E126CAD1281AA
:106C2600D01282197D31026C847B01E4FDFC7F3138
:106C3600026C909001DD1281DC128227600D126CCD
:106C4600AD1281D01282197D1C8033128269803A7E
:106C56009001DD1281DC12820312822A60257B02FA
:106C6600E4FDFCFF128279E53A25E0FFE433FE7489
:106C7600FB2FF974A23E1281D01282197D467F0144
:0D6C86000290687B01E4FDFC7F46128279DC
:106C9300227B02E4FDFCFF128279E53A25E0FFE462
:106CA30033FE74FB2FF974A23E227B02E4FDFCFF4A
:106CB300128279E53A25E0FFE433FE74FB2FF97481
:036CC300A23E22CC
:1031F2009001DD12824B7F0C12A69C900382E0129A
:1032020029DE32321132442132702232993132E4D3
:103212003333273433764133E4913401A1343CA271
:103222003475B134D2B33527B43582C1000035FBD1
:103232009001DD1281DC12268E30E0030233F002AF
:1032420033FA9001DD1281DC12268E30E00B1281FE
:10325200D112820912367E80031236539001DD129A
:1032620081DC12820330E0030234270234349001FD
:10327200DD1281DC12268E30E0081281D11235FC7B
:10328200800312361E9001DD1281DC12820330E0CF
:103292000302346202346F9001DD1281DC12268E49
:1032A20030E00B1281D112820912367E800312366F
:1032B200539001DD1281DC12820330E00B1281D1C6
:1032C2001282091236A8800812825A7F1712827956
:1032D2009001DD1281DC12822130E0030233D2023E
:1032E20033DD9001DD1281DC12268E30E00812817E
:1032F200D11235FC800312361E9001DD1281DC12E0
:10330200820330E00B1281D11282091236698003E6
:103312001236299001DD1281DC12822130E0030293
:1033220033D20233DD9001DD1281DC12268E30E0D1
:10333200081281D112360D80031236349001DD124B
:1033420081DC12820330E00B1281D1128209123623
:103352006980031236299001DD1281DC128221304C
:10336200E00B1281D11282097B0F0235727B017D43
:103372000F02357B9001DD1281DC12268E30E008CF
:103382001281D112360D80031236349001DD128182
:10339200DC12820330E00B1281D1128209123693C1
:1033A200800312365E9001DD1281DC12822130E050
:1033B2000B1281D11282091236A8800812825A7F1A
:1033C200171282799001DD1281DC12825430E00BF7
:1033D2001281D11282097B0F02346A7B017D0F02B6
:1033E20034CB9001DD1281DC12268E30E00A12818C
:1033F200D1128209E4FB80357B01E4FDFC8036902A
:1034020001DD1281DC12268E30E00B1281D1128294
:10341200091236B280031236889001DD1281DC1265
:10342200820330E00D1281D11282097B0F7D2C02C2
:1034320035EE12825A7F2C0235F89001DD1281DCC2
:1034420012268E30E00B1281D112820912363F8091
:10345200031236739001DD1281DC12820330E00D1B
:103462001281D1128209E4FB7D410235EE12827192
:103472000235F89001DD1281DC12268E30E00B124B
:1034820081D11282091236B280031236889001DD90
:103492001281DC12820330E00B1281D112820912F6
:1034A20036BC800812823B7F171282799001DD12AE
:1034B20081DC12822130E00D1281D11282097B124D
:1034C2007D410235EE7B017D127C007F410235F8A1
:1034D2009001DD1281DC12268E30E00B1281D112B6
:1034E200820912363F80031236739001DD1281DCAD
:1034F20012820330E00B1281D112820912369380BC
:103502000312365E9001DD1281DC12822130E00D61
:103512001281D11282097B127D410235EE12823B69
:103522007F410235F89001DD1281DC12268E30E0F7
:103532000B1281D1128209123649800312369D90F4
:1035420001DD1281DC12820330E00B1281D1128282
:10355200091236C680061282711282799001DD123A
:1035620081DC12822130E00D1281D11282097B129C
:103572007D170235EE7B017D127C007F170235F844
:103582009001DD1281DC12268E30E00B1281D11205
:103592008209123649800312369D9001DD1281DCC8
:1035A20012820330E00B1281D11282091236C680D8
:1035B200061282711282799001DD1281DC1282215F
:1035C20030E00B1281D11282091236BC80081282BD
:1035D2003B7F171282799001DD1281DC1282543016
:1035E200E00F1281D11282097B127D417F0102908C
:1035F2006812823B7F411282792274A2F0A374F294
:10360200F0E4FB7D177F011290682274A2F0A3748C
:10361200F2F0E4FB7D177F01129068227B01E4FD4A
:10362200FC7F17128279227B01E4FDFC7F4112822A
:1036320079227B01E4FDFC7F1712827922E4FB7D73
:10364200177F0112906822E4FB7D177F01129068B8
:10365200227B01E4FDFC7F2C128279227B01E4FDB6
:10366200FC7F4112827922E4FB7D417F0112906846
:10367200227B01E4FDFC7F1712827922E4FB7D2C80
:103682007F01129068227B01E4FDFC7F2C1282797B
:1036920022E4FB7D417F01129068227B01E4FDFC64
:1036A2007F17128279227B0F7D177F011290682289
:1036B200E4FB7D2C7F01129068227B127D177F0133
:0E36C20012906822E4FB7D417F011290682285
:1036D0009003F512824B7F0212A69C900382E012A7
:1036E00029DE370D11371F21374E2237773137C288
:1036F0003338053438544138C29138E5A23922B103
:10370000398CB339E1B43A39C100003AAF9003F5CE
:103710001281DC12268E30E4030238CE0238DB90B0
:1037200003F51281DC12268E30E40B1281D1128255
:1037300011123B478003123B279003F51281DC12E4
:10374000268E30E4030238CE12825A0238E090030B
:10375000F51281DC12268E30E4081281D1123AB0C3
:103760008003123AD29003F51281DC12820330E416
:103770000302390B0239189003F51281DC12268EF0
:1037800030E40B1281D1128211123B478003123BAD
:10379000279003F51281DC12820330E40B1281D1F1
:1037A000128211123B51800812825A7F1F128279B5
:1037B0009003F51281DC12822130E4030238B0025A
:1037C00038BB9003F51281DC12268E30E40812819A
:1037D000D1123AB08003123AD29003F51281DC1272
:1037E000820330E40B1281D1128211123B1D80033F
:1037F000123ADD9003F51281DC12822130E40302DB
:1038000038B00238BB9003F51281DC12268E30E40A
:10381000081281D1123AC18003123AE89003F512DE
:1038200081DC12820330E40B1281D1128211123B2F
:103830001D8003123ADD9003F51281DC12822130E3
:10384000E40B1281D11282117B0F023A297B017D98
:103850000F023A329003F51281DC12268E30E40812
:103860001281D1123AC18003123AE89003F5128115
:10387000DC12820330E40B1281D1128211123B322E
:103880008003123B079003F51281DC12822130E4A1
:103890000B1281D1128211123B51800812825A7F81
:1038A0001F1282799003F51281DC12825430E40BEE
:1038B0001281D11282117B0F0239137B017D0F021D
:1038C00039859003F51281DC12268E30E40D1281C9
:1038D000D1128211E4FB7D34023AA27B01E4FDFCAB
:1038E0007F34023AAC9003F51281DC12268E30E46C
:1038F0000B1281D1128211123AF38003123B129003
:1039000003F51281DC12820330E40D1281D11282A0
:1039100011E4FB7D49023AA27B01E4FDFC7F4902F0
:103920003AAC9003F51281DC12268E30E41112813C
:10393000D1128211E4FB7D347F01129068800A7BF2
:1039400001E4FDFC7F341282799003F51281DC12D0
:10395000820330E40B1281D1128211123B70800875
:1039600012823B7F1F1282799003F51281DC128252
:103970002130E40D1281D11282117B127D49023A6D
:10398000A27B017D127C007F49023AAC9003F512C4
:1039900081DC12268E30E40B1281D1128211123A90
:1039A000F38003123B129003F51281DC1282033084
:1039B000E40B1281D1128211123B328003123B07B9
:1039C0009003F51281DC12822130E40D1281D112B4
:1039D00082117B127D49023AA212823B7F49023A50
:1039E000AC9003F51281DC12268E30E40B1281D1EB
:1039F000128211123AFD8003123B3C9003F51281B2
:103A0000DC12820330E40B1281D1128211123B6668
:103A10008003123B5B9003F51281DC12822130E4BB
:103A20000D1281D11282117B127D1F023AA27B01FD
:103A30007D127C007F1F023AAC9003F51281DC12EC
:103A4000268E30E40B1281D1128211123AFD8003CE
:103A5000123B3C9003F51281DC12820330E40B121E
:103A600081D1128211123B668003123B5B9003F5F9
:103A70001281DC12822130E40B1281D112821112E8
:103A80003B70800812823B7F1F1282799003F512EF
:103A900081DC12825430E40F1281D11282117B1228
:103AA0007D497F0102906812823B7F491282792210
:103AB00074A3F0A37403F0E4FB7D1F7F01129068F0
:103AC0002274A3F0A37403F0E4FB7D1F7F01129026
:103AD00068227B01E4FDFC7F1F128279227B01E4D6
:103AE000FDFC7F49128279227B01E4FDFC7F1F12DD
:103AF000827922E4FB7D1F7F0112906822E4FB7D26
:103B00001F7F01129068227B01E4FDFC7F49128235
:103B100079227B01E4FDFC7F1F12827922E4FB7D88
:103B2000497F01129068227B01E4FDFC7F34128200
:103B30007922E4FB7D497F01129068227B01E4FD3C
:103B4000FC7F1F12827922E4FB7D347F0112906892
:103B5000227B0F7D1F7F01129068227B01E4FDFC18
:103B60007F4912827922E4FB7D497F01129068220D
:0A3B70007B127D1F7F011290682276
:102C6E00900390E0FD900381E06DF56BA3E01229D7
:102C7E00DE2CA7112CCA222D0F312D80332DE734D7
:102C8E002E55412EE4912F0DA22F5AB12FCAB330DB
:102C9E0034B430AFC10000313B1281E58005C3333F
:102CAE00CE33CED8F9FFEF5D600B1281D11281FBCE
:102CBE007B0D022EFD7B057D0D022F061281E58018
:102CCE0005C333CE33CED8F91281F2600B1281D107
:102CDE001281FB12319880031231549003841281B9
:102CEE00E88005C333CE33CED8F91281F2600B12D1
:102CFE0081D11281FB7B0D022F4A7B057D0D022FA8
:102D0E00531281E58005C333CE33CED8F91281F24A
:102D1E0060111281D11281FB7B077D257F011290FC
:102D2E006880057D071231DE9003841281E88005EC
:102D3E00C333CE33CED8F91281F2600D1281D11287
:102D4E0081FB7B151231B880031231A290038512DC
:102D5E0081E88005C333CE33CED8F91281F2600BF1
:102D6E001281D11281FB7B15022F4A7B057D150244
:102D7E002F531281E58005C333CE33CED8F912819D
:102D8E00F2600B1281D11281FB1231988003123145
:102D9E00549003841281E88005C333CE33CED8F924
:102DAE001281F2600B1281D11281FB1231AE8003BF
:102DBE001231609003851281E88005C333CE33CE85
:102DCE00D8F91281F2600B1281D11281FB7B1502B0
:102DDE002F4A7B057D15022F531281E58005C333E3
:102DEE00CE33CED8F91281F2600B1281D11281FB53
:102DFE0012316C800312313C9003841281E88005FD
:102E0E00C333CE33CED8F91281F2600D1281D112B6
:102E1E0081FB7D3A1231D680087D0D1282441282DA
:102E2E00799003851281E88005C333CE33CED8F96D
:102E3E001281F2600B1281D11281FB7B1502309F41
:102E4E007B057D150230A81281E58005C333CE3394
:102E5E00CED8F91281F2600B1281D11281FB1231A0
:102E6E006C800312313C9003841281E88005C333D9
:102E7E00CE33CED8F91281F2600B1281D11281FBC2
:102E8E001231AE80031231609003851281E8800505
:102E9E00C333CE33CED8F91281F260111281D11222
:102EAE0081FB7B157D107F0112906880031231A289
:102EBE009003861281E88005C333CE33CED8F91243
:102ECE0081F2600B1281D11281FB7B15022F4A7B9E
:102EDE00057D15022F531281E58005C333CE33CE07
:102EEE00D8F91281F2600D1281D11281FB7B107D17
:102EFE00250231307B057D107C007F250231381292
:102F0E0081E58005C333CE33CED8F91281F2600D40
:102F1E001281D11281FB7B101231B88003123176EF
:102F2E009003841281E88005C333CE33CED8F912D4
:102F3E0081F2600D1281D11281FB7B107D3A02313C
:102F4E00307B057D107C007F3A0231381281E5809E
:102F5E0005C333CE33CED8F91281F260111281D16E
:102F6E001281FB7B087D257F0112906880057D080C
:102F7E001231DE9003841281E88005C333CE33CE46
:102F8E00D8F91281F2600B1281D11281FB1231E855
:102F9E0080031231C09003851281E88005C333CEC1
:102FAE0033CED8F91281F2600D1281D11281FB7BE2
:102FBE00197D3A0231301282420231381281E58097
:102FCE0005C333CE33CED8F91281F2600D1281D102
:102FDE001281FB7D101231D680031231769003845C
:102FEE001281E88005C333CE33CED8F91281F26058
:102FFE000B1281D11281FB1231CC800312318C90D5
:10300E0003851281E88005C333CE33CED8F9128101
:10301E00F2600D1281D11281FB7B197D3A023130A3
:10302E001282420231381281E58005C333CE33CE8F
:10303E00D8F91281F2600B1281D11281FB1231820A
:10304E0080031231489003841281E88005C333CE89
:10305E0033CED8F91281F260111281D11281FB7B2D
:10306E00107D3A7F01129068800B7B057D107C00ED
:10307E007F3A1282799003851281E88005C333CEA0
:10308E0033CED8F91281F2600D1281D11281FB7B01
:10309E00197D100231307B057D197C007F100231C5
:1030AE00381281E58005C333CE33CED8F91281F2C2
:1030BE00600B1281D11281FB1231828003123148D2
:1030CE009003841281E88005C333CE33CED8F91233
:1030DE0081F2600B1281D11281FB1231CC8003126E
:1030EE00318C9003851281E88005C333CE33CED860
:1030FE00F91281F2600B1281D11281FB1231E8803C
:10310E00031231C09003861281E88005C333CE339B
:10311E00CED8F91281F2600F1281D11281FB7B1988
:0D312E007D3A7F0102906812824212827980
:10313B00227B057D077C007F10128279227B057D27
:10314B00087C007F10128279227B057D0D7C007F2D
:10315B0010128279227B057D077C007F3A128279DF
:10316B00227B077D107F01129068227B057D107CEE
:10317B00007F10128279227B087D107F01129068EC
:10318B00227B057D087C007F3A128279227B0D7DA4
:10319B00107F01129068227B057D157C007F101239
:1031AB008279227B077D3A7F01129068227D107F06
:1031BB0001129068227B057D197C007F10128279A9
:1031CB00227B087D3A7F01129068227B0D7F0112D2
:1031DB009068227B057C007F25128279227B197DEA
:0731EB00107F011290682221
:10988700E4FF12A326900380E024FE6011047029F0
:109897001298C11281D174A2F0A374F5800C1298AA
:1098A700C11281D174A2F0A374F8F0E4FB7D017FAB
:1098B700011290687FFF12A69F227F0312A69F7F47
:0598C7000412A69C2222
:10A20E00E4FF12A326900388E030E1127B017A036B
:10A21E0079881231F27B017A037988126B6012A66B
:06A22E0068E4FF029CD36E
:1016F80000000000000000000000000000000000E2
:1017080000000000000000000000000000000000D1
:10171800003E007E00FE01CE038E7F8E7F8E738E8C
:10172800738E738E7F8E7F8E01CE00FE007E003E0C
:1017380000000000020006000E001E003FFE7FFEB3
:101748007FFE3FFE1E000E000600020000000000A3
:101758000000000000400060007000787FFC7FFE01
:101768007FFE7FFC007800700060004000000000F1
:10177800000003C003C003C003C003C003C003C00C
:1017880003C03FFC1FF80FF007E003C00180000012
:1017980003C003C007E007E00E700E701C381C3849
:1017A800381C381C7FFE7FFE700E700E700E700E97
:1017B8007FF87FFC383E381E381E381E383C3FF80C
:1017C8003FF8383C381E381E381E383E7FFC7FF8FC
:1017D8000FF81FFC3C1C380E780E700E700070005D
:1017E80070007000700E700E380E3C1C1FFC0FF855
:1017F8007FF07FF07078703C703C703C70787FF0C0
:101808007FE0778073C071E070F07078703C701E74
:1018180000006006700E781E7C3E7FFE77EE73CE69
:10182800718E700E700E700E700E700E700E700E3F
:1018380000001FF81FF800E000E000E000E000E012
:1018480000E000E000E070E079E03FC01F800F009A
:1018580000000000000003C007800F001E003FFCCE
:101868003FFC1E000F00078003C0000000000000BE
:1018780000000000000003C001E000F000783FFC19
:101888003FFC007800F001E003C000000000000009
:1018980000000000018001800180018011881998F2
:1018A8001DB81FF80FF007E003C00180000000001A
:1018B800003E007E00FE01CE038E7F8E7F8E738EEB
:1018C800738E738E7F8E7F8E01CE00FE007E003E6B
:1018D800700E700E700E700E700E700E781E381C22
:1018E800381C1C381C380E700FF007E003C001804C
:1018F8000000380038003800380038003800380058
:1019080038003800380038063806380E3FFE3FFEEB
:101918000000000000000000000003800FE01C70C1
:10192800183038383838383818301C700FE00380D1
:101938000000000000000000000003C00FF01C3889
:101948001C000F0007E000F000381C380FF003C03F
:10195800000000000000000000000000000000007F
:10196800000000000000000000000000000000006F
:10197800000000000000000000000000000000005F
:10198800000000000000000000000000000000004F
:10199800000000000000000000000000000000003F
:1019A800000000000000000000000000000000002F
:1019B800000000000000000000000000000000001F
:1019C800000000000000000000000000000000000F
:1019D80000000000000000000000000000000000FF
:1019E80000000000000000000000000000000000EF
:1019F80000000000000000000000000000000000DF
:101A080000000000000000000000000000000000CE
:101A180000000000000000000000000000000000BE
:101A280000000000000000000000000000000000AE
:101A3800000000000000000000000000000000009E
:101A4800000000000000000000000000000000008E
:101A5800000000000000000000000000000000007E
:101A6800000000000000000000000000000000006E
:101A7800000000000000000000000000000000005E
:101A8800000000000000000000000000000000004E
:101A9800000000000000000000000000000000003E
:101AA800000000000000000000000000000000002E
:101AB800000000000000000000000000000000001E
:101AC800000000000000000000000000000000000E
:101AD80000000000000000000000000000000000FE
:101AE80000000000000000000000000000000000EE
:101AF80000000000000000000000000000000000DE
:101B080000000000000000000000000000000000CD
:101B1800000007000F800F800F800F80070007006C
:101B28000700020002000000020007000700020090
:101B38000000EE006600440088000000000000007D
:101B4800000000000000000000000000000000008D
:101B5800000008200820082008203FF80820082056
:101B68000820082008203FF808200820082008201E
:101B780000000FC01B603330333033001B000F00F0
:101B880003C0036013303B3033301B600FC00300C9
:101B980000003808441084200440048009001270B2
:101BA800E4880908120822084210822001C00000B7
:101BB80000000E001B00318031801B000E001C004D
:101BC8003678632061A060E0606030F01F9C000000
:101BD80000000000000000000000000000000000FD
:101BE800000000000000800060007000380018004D
:101BF8000000000400080018001000300030003019
:101C08000030003000300010001800080004000206
:101C180000008000400060002000300030003000EC
:101C280030003000300020006000400080000000DC
:101C3800000002004210222012400A800700FFFC28
:101C480007000A8012402220421002000200000011
:101C580000000000030003000300030003007FF8F6
:101C68007FF80300030003000300030000000000E6
:101C7800000000000000000000000000000000005C
:101C8800000018003C003C00180010002000400034
:101C980000000000000000000000000000007FF8C5
:101CA8007FF80000000000000000000000000000B5
:101CB800000000000000000000000000000000001C
:101CC8000000000000007800840084008400780090
:101CD800000000180030006000C00180030006000A
:101CE8000C00180030006000C000800000000000F8
:101CF80000000FE0183030183038307830D831987C
:101D0800331836183C183818301818300FE000000F
:101D18000000030007000F00030003000300030096
:101D28000300030003000300030003001FE000009A
:101D380000000FE01830301830183038007001C03B
:101D480003000E001800300830083FF83FF8000084
:101D5800000007C0183030183018003000E003C009
:101D680000E00030001830183018183007C00000A4
:101D7800000000C001C003C006C00CC018C030C0BD
:101D880060C0C0C0C0C0FFF800C000C003F00000C1
:101D980000003FF03FF030003000300037C03830EE
:101DA80030180018001830183018183007C0000014
:101DB800000007E01830303030003000300037E0E5
:101DC8003830301830183018301818300FC000006C
:101DD80000003FF83FF8201820180030006000C0CD
:101DE8000180030003000300030003000300000058
:101DF80000000780186030303030303018600FC075
:101E08001860303060186018601830300FC000005B
:101E1800000007801860303030183018301830381B
:101E2800187807980018303038301860078000009C
:101E3800000000000000000003000780030000000D
:101E480000000300078003000000000000000000FD
:101E580000000000000000000300078003000000ED
:101E680000000300078003800180070000000000D5
:101E780000000000001800600180060018006000E3
:101E88008000600018000600018000600018000053
:101E9800000000000000000000007FF87FF800004C
:101EA80000007FF87FF8000000000000000000003C
:101EB8000000800060001800060001800060001823
:101EC800000400180060018006001800600080000F
:101ED800000007800FC01CE038E038E011C0018026
:101EE80003000300020002000000020007000700D0
:101EF80000000FC030604010478888C890C890C85C
:101F080090C890C888D84770400830700FC000004B
:101F1800000003000300078007800CC00CC0186095
:101F280018601FE03030303060186018F03C000056
:101F380000003F80186018301830183018601FC033
:101F48001860183018181818181818303FC00000F2
:101F58000000078818683038601860086000600062
:101F6800600060006008601830301860078000006A
:101F780000007F8030E030383018301830183018C2
:101F88003018301830183018303030E07F800000BA
:101F980000003FF0183018101800188018801F80B3
:101FA8001880188018001800181018303FF000002A
:101FB80000003FF0183018101800188018801F8093
:101FC8001880188018001800180018003C0000003D
:101FD80000000F90187030306010601060006000D2
:101FE8006078603060306030307018F00FB00000FA
:101FF80000007878303030303030303030303FF0DA
:102008003030303030303030303030307878000098
:1020180000000FC0030003000300030003000300D7
:102028000300030003000300030003000FC00000C7
:10203800000001F000600060006000600060006067
:10204800006000603060306030E019C00F000000B0
:10205800000078F8306030C03180330036003C0032
:102068003E003300318030C030603030787C000072
:1020780000003C001800180018001800180018008C
:102088001800180018001808181818383FF8000029
:102098000000E03CE038F078F078D8D8D8D8C89874
:1020A800CD98CD98C518C718C218C018E07C000094
:1020B8000000C078E030F030F830DC30CE30C73087
