:030000000287680C
:0C876800787FE4F6D8FD7581670287AFCA
:0BA55300E0248CF582E43402F5832242
:10A37300C2BCD2AC759852758DFAE4F58BD28E902F
:06A3830002F0F0A3F0223D
:10A48A009002F0E0FFA3E0B507037F00227F0122DC
:10A311009002F012A553E0FF9002F0E004F0E0C3D8
:08A3210094644002E4F0D2ACA8
:01A329002211
:080003003099FD8F99C299228A
:03002300029E70CA
:109E7000C0E0C083C082C0D0309819C2989002F16F
:109E800012A553E599F09002F1E004F0E0C3946468
:0D9E90004002E4F0D0D0D082D083D0E03288
:109A0A00E0F580D2A3E4900334F0A3F022C39003DC
:109A1A0034E0940022900334E004F0229001E4E060
:109A2A00FBA3E0FAA3E0F922EDF0A3EBF0E4FFC216
:0C9A3A00AF22D2B6D2B77580FFD2AF22A7
:108E3E009001F3129A3212A5C79001F3E0FF70066B
:108E4E00C2B7C2B68012EFB40106C2B7D2B680085E
:108E5E00EFB40204D2B7C2B69001F4129A0A129A73
:108E6E0017500BA3E004F070F5129A1F80F0C2A306
:108E7E009001F5E0F580C2A1129A0F129A17500BCD
:108E8E00A3E004F070F5129A1F80F0D2A112A5C7CC
:048E9E00129A3C22C6
:108880009001D8129A3212A5C79001D8E0FF700665
:10889000C2B7C2B68012EFB40106C2B7D2B6800822
:1088A000EFB40204D2B7C2B69001D9E0FF04F08F52
:1088B00080129A0D129A17500BA3E004F070F51273
:1088C0009A1F80F0C2A39001DAE0FBA3E475F001E7
:1088D000122763A9F0FA12268EF580C2A1129A0F10
:1088E000129A17500BA3E004F070F5129A1F80F053
:1088F000D2A19001DDE014F070AE12A5C7129A3C2F
:018900002254
:0B87F4009001F2EFF0A3EDF0A3EBF01A
:1087FF00C2AF12A5C7E49001F2F0A3E0FF7006C26A
:10880F00B7C2B68012EFB40106C2B7D2B68008EF76
:10881F00B40204D2B7C2B69001F4129A0A129A1790
:10882F00500BA3E004F070F5129A1F80F0C2A375ED
:10883F0080FF129A0F129A17500BA3E004F070F5F5
:10884F00129A1F80F0C2A29001F5E580F0129A0FE4
:10885F00129A17500BA3E004F070F5129A1F80F0D4
:10886F00D2A212A5C7D2B6D2B7D2AF9001F5E0FF10
:01887F0022D6
:1091EE009001E4EBF0A3EAF0A3E9F0129A2612271D
:1091FE0079F47003E5F0F46038122779FBAAF0EAEF
:10920E00FDE4FF1287F4129A269000021226A7FCA4
:10921E006F6012122779FBAAF0EAFD9001F5ECF0CF
:10922E00E4FF128E3E9001E5E475F00312274D80A7
:02923E00BA2252
:01A60A00222D
:10544D002562782025627820256278000A3C523E3C
:10545D0025303262785B25303262785D3D25303201
:10546D0062780025627820256278002562782025F3
:10547D0062782025627820256278200025316278B7
:10548D0020253162782025316278200052656164D3
:10549D004173696342797465203D3D202562782012
:1054AD000A0063682562643A2562642000636825FA
:1054BD0062643A2562642063682562643A256264F9
:1054CD00200063682562643A256264206368256262
:1054DD00643A2562642063682562643A256264201B
:1054ED000063682562643A256264206368256264FE
:1054FD003A2562642063682562643A2562642063FC
:10550D00682562643A256264200063682562643A06
:10551D002562642063682562643A256264206368AD
:10552D002562643A2562642063682562643A2562C7
:10553D00642063682562643A2562642000256264F4
:10554D0020000A203D3D3D3D3D3D3D3D2050414724
:10555D00452025623278203D3D3D3D3D3D3D3D3D63
:10556D003D3D3D3D0A002562327809000A00253196
:10557D006278202531627820636825316278206356
:10558D00682531627820636825316278206368254B
:10559D003162782000656E726563616C6C00656EBA
:1055AD00667265657A6500656E686D6972726F7297
:1055BD0000656E766D6972726F7200656E656E68EC
:1055CD00616E636500656E626C616E6B00656E6227
:1055DD006F756E6400656E626C696E6B00646973E5
:1055ED00726563616C6C00646973667265657A657A
:1055FD0000646973686D6972726F720064697376A5
:10560D006D6972726F7200646973656E68616E6345
:10561D006500646973626C616E6B00646973626FBF
:10562D00756E6400646973626C696E6B003D3D3D1F
:10563D003D3D20466F726D6174203A206368303DA8
:10564D005B2562785D206368313D5B2562785D2066
:10565D006368323D5B2562785D206368333D5B2571
:10566D0062785D203D3D3D3D3D0A00256278202557
:10567D0062782063682562783A2562782063682510
:10568D0062783A2562782063682562783A256278D7
:10569D002063682562783A256278200033340062F1
:1056AD007573770079766D6978006873636F6D0037
:0E56BD006D6F646500370038000102040810AC
:046E3900410397007A
:1056CB00A3F0A3E4F0A37400F0A37408F0A3E4F038
:1056DB00A37400F0A3740DF0A3E4F0A37400F0A383
:1056EB007409F0A3E4F0A37400F0A3740EF0A3E428
:1056FB00F0A37400F0740AA3F0A3E4F0A322A3F0C8
:10570B00A3E4F0A37400F0A37412F0A3E4F0A37469
:10571B0000F0A37417F0A3E4F0A37400F0A37413C8
:10572B00F0A3E4F0A37400F0A37418F0A3E4F0A3C7
:10573B007400F07414A3F0A3E4F0A322A3F0A3E489
:10574B00F0A37400F0A37439F0A3E4F0A37400F099
:10575B00A3743DF0A3E4F0A37400F0743AA3F0A398
:10576B00E4F0A322A3F09003B2E0FBA3E0FAA3E0E2
:10577B00F9229001E074FFF0A37454F074AFA3F01E
:10578B00A3E4F0A3227400F0A3740FF0A3E4F0A33E
:10579B007400F0740BA3F0A3E4F0A3227400F0A345
:1057AB007419F0A3E4F0A37400F07415A3F0A3E450
:1057BB00F0A3227400F0A3743EF0A3E4F0A37400F2
:1057CB00F0743BA3F0A3E4F0A3229001E074FFF08C
:1057DB00A37454F074BAA3F0A3E4F0A3229001E0F5
:1057EB0074FFF0A37455F0744AA3F0A3E4F0A32262
:1057FB007400F07408A3F0A3E4F0A3227400F07417
:10580B0012A3F0A3E4F0A3229001E074FFF0A32213
:10581B00EBF0A3EAF0A3E9F09001E07401F0A3220E
:10582B00A3F0A37401F0A37403F07482A3F0A37428
:10583B0001F0A322A3F0A3E4F0A322A3F0A3E4F0CE
:10584B00A322A3F0A3E4F0A322A3F0A3E4F0A322EA
:10585B00A3F0A3E4F0A322FFE0248BF582E434034E
:10586B00F583EFF022E0FF9001E17401F0A37403E4
:10587B00F0A37487F07B017A03798222A3F0A3E46F
:10588B00F0A322A3F0A3E4F0A322EBF0A3EAF0A38E
:10589B00E9F022900001E475F0010227A47BFF7A66
:1058AB0054795990033AF022A3F0A3E4F0A322E039
:1058BB005401FB7D20222533F533A3E0540322E56D
:1058CB00099056C693FFE508932F2212296F0226E3
:0F58DB008EA3F0A3E4F0A32212A60B9001D52216
:108B59009001DD125895A31257741258D67002FF6E
:108B6900229001E01257741258D6B4200B9001E0FC
:108B790012577412589E80E99001E0125774122915
:108B89006FC003C002C0019001DD12577412298F12
:108B990080239001E01257741258D6FEB42010E4D5
:108BA9001226D49001E012577412589E7F0122EECA
:108BB90070037F01229001E012577412589E80D2EF
:0699CD009001DD12589527
:1099D300E4F530F5319001DD12577412268E6022C2
:1099E3009001DDA3E475F001122763A9F0FA1226B2
:1099F3008EFF3395E0FEEF2531F531EE3530F5304E
:069A030080D3AE30AF314C
:019A0900223A
:01A60B00222C
:1094EE00E4F533900382E054031258C125E025E0E1
:1094FE001258C1C454F01258C1C4333354C025336A
:10950E00F533900381E0B5070D900386E0B5330681
:10951E00E4900391F0229003917401F0900386E59C
:07952E0033F0900381EFF020
:019535002213
:10957E001258137454F0744D1257027400F0744C58
:10958E001257407400F0744D1257687400F0A374B3
:10959E004EF0124B9CAB4DAD4CE4FF1287F4900392
:1095AE003CEFF0E54C1258A8A3E54DF01248190512
:0695BE004DE54DB54EDF46
:0195C4002284
:109B67001258137454F074701257897400F07455B6
:109B77001257A07400F0A37456F0124B9CAB56AD6D
:109B870055E4FF1287F490033CEFF0E5551258A80F
:079B9700A3E556F002481996
:109D18001258137454F0744D1257B77400F0744FFE
:109D28001257CE7400F074501257E17400F0A37407
:109D380051F0124B9C9001F5E551F0AB50AD4FE45A
:049D4800FF028E3E4A
:1092E100E4F530F531F532F533C003C002125813FD
:1092F1007454F074781257F47400F07430125800FA
:109301007400F0743112580C7400F0743212583F2A
:109311007400F0A37433F0D002D003124B9C90017F
:0D932100F5E533F0AB32AD31E4FF028E3ED6
:10953600E4F51CF51DF51EF51F1258137454F0744E
:109546008912583F7400F0741C1258467400F07467
:109556001D1258467400F0A3741EF0124B9CAB1EED
:10956600AD1DE4FF1287F48F1F7BFF7A5479999023
:08957600033AE51FF002481959
:036725009003B22C
:1067280012581B7403F0A374B2F07B017A0379B595
:10673800128B59E4FB7D1FFF129C429003B5125740
:1067480074127D01EE600302684DEF24FE6036147A
:10675800605A1460781470030267FA240460030214
:10676800684D12577D1257FB7400F0740D12576F65
:10677800124B9CAB0DAD08E4FF128AE8E508905671
:10678800C6930268451257D51257FB7400F0740D72
:1067980012584D7400F0740912584D7400F0740EBC
:1067A80012576F12684E1258CA026845125813746D
:1067B80054F074CF1256CB7400F0A3740F125770B4
:1067C80012684EAB0FAD0A1268640268451258137E
:1067D8007454F074EE1256CB1257907400F0A374F0
:1067E8001012577012687A126864FFE50B932F0233
:1067F80068451258137455F0A374171256CC1257E3
:10680800907400F074101258547400F0740C1258FC
:10681800547400F0A3741112577012687AE4FF12CE
:106828008AE8AB11AD0CE4FF128AE81258CAFFE5FA
:106838000A932FFFE50B932FFFE50C932FFD7B01A8
:05684800E4FF129C4278
:10684D0022124B9CAB0DAD08E4FF128AE8AB0EADE6
:10685D0009E4FF128AE822E4FF128AE8E50990565E
:10686D00C693FFE508932FFFE50A932F22124B9C49
:10687D00AB0DAD08E4FF128AE8AB0EAD09E4FF12D3
:10688D008AE8AB0FAD0AE4FF128AE8AB10AD0B221C
:0FA4AA00E4FB7D1FFF129C427DFFE4FF029DE457
:0370E6009003B85C
:1070E90012581B7403F0A374B8F07B017A0379BBBF
:1070F900128B599003BB125774127D01EE60030283
:1071090071F4EF24FE60301460561460711470033A
:107119000271AB240460030271F412577D125807FF
:107129007400F0A37417F09003B8125774124B9CB3
:10713900AB17AD120271EF1257D51258077400F050
:10714900741712585B7400F0741312585B7400F0D2
:10715900A37418F09003B812577412720F0271EFEA
:107169001258137454F074CF1257097400F0A374B1
:1071790019F09003B81257741271F50271EF125891
:10718900137454F074EE1257091257A77400F0A340
:10719900741AF09003B81257741271F51272200222
:1071A90071EF1258137455F0A3741712570A125736
:1071B900A77400F0741A1258877400F074161258E4
:1071C900877400F0A3741BF09003B81257741272FD
:1071D9000FE4FF128BC9AB19AD14127220E4FF1230
:0B71E9008BC9AB1BAD16E4FF128BC975
:1071F40022124B9CAB17AD12E4FF128BC9AB18AD36
:1072040013E4FF128BC9AB19AD1422124B9CAB17BC
:10721400AD12E4FF128BC9AB18AD1322E4FF128B3D
:06722400C9AB1AAD1522F2
:10A3CA001257E87400F0A37463F0124B9CAD63E477
:04A3DA00FF029DE4FD
:10937A00E4F5587BFF7A55794F90033AE558F01295
:10938A004819E4F557AB57AD58E4FF1287F4900338
:10939A003AEFF07BFF7A5579731248190557E5576A
:1093AA00540F70097BFF7A557979124819E557707D
:0A93BA00D40558E558C3940340B9E8
:0193C4002286
:10914300C003C002C0011258137455F0747B125847
:109153008E7400F0745912588E7400F0745A1258B9
:109163002B7403F074831258377403F0A3748412BE
:1091730058387403F0A37485F0D001D002D00312E1
:109183004B9CE559C454F0FFE55A540F2FF559127F
:069193005880FF02626437
:0658EA009003BE12589568
:1058F000E4F52E7B019001E004F0A37403F0A3749F
:10590000BEF07A0379C1128B599003C112577412F9
:105910007D018F2F125823125AE29003C11257743F
:105920001299CD8E268F277A5579A2125ABFB527A4
:105930000AEEB526067528800259BF7A5579AB1252
:105940005ABFB5270AEEB526067528400259BF7A18
:105950005579B4125AC6B52709EEB5260575282023
:10596000805D7A5579BE125AC6B52709EEB526056F
:10597000752810804A7A5579C8125ACDB52709EE94
:10598000B5260575280880377A5579D2125ACDB5D3
:105990002709EEB5260575280480247A5579DA1290
:1059A0005AD4B52709EEB5260575280280117A5517
:1059B00079E2125AD4B5270DEEB52609752801757E
:1059C0002901025A697A5579EA125ADBB5270AEE9B
:1059D000B52606752880025A4C7A5579F4125ADB9E
:1059E000B52709EEB5260575284080607A5579FE01
:1059F000125AF3B52709EEB52605752820804D7A91
:105A0000567909125AF3B52709EEB52605752810FF
:105A1000803A7A567914125AFAB52709EEB5260556
:105A200075280880277A56791F125AFAB52709EE89
:105A3000B5260575280480147BFF7A5679281299BB
:105A4000CDEFB5270CEEB52608752802E4F52980C0
:105A5000187BFF7A5679311299CDEF65277003EEE6
:105A60006526705A752801F529125823125AE2EF5B
:105A700060339003C112577412268EB477EB9000F6
:105A8000011226A7B469E29000021226A7B46ED9CB
:105A9000E92403F9E43AFA127D01742A252EF8A6C6
:105AA00007052E80C4E52E60152429F8E6FFC3956E
:0E5AB0002F5007AB29AD28129CE3152E80E77E
:105ABE00227BFF1299CDEF227BFF1299CDEF227B35
:105ACE00FF1299CDEF227BFF1299CDEF227BFF12B1
:105ADE0099CDEF227403F0A374BEF07B017A0379A3
:105AEE00C1128B59227BFF1299CDEF227BFF1299A7
:035AFE00CDEF22C7
:10A454001257E87400F0A37430F0124B9CAF300232
:02A46400A3DE75
:109A8200E4FF1293C5C0077F011293C5C0077F028E
:109A92001293C5C0077F031293C590033DEFF09068
:109AA200033CD0E0F090033BD0E0F090033AD0E0EA
:0A9AB200F07BFF7A56793A0248195A
:03780B009003C423
:10780E0012581B7403F0A374C4F07B017A0379C77A
:10781E00128B599003C7125774127D01EE6003024A
:10782E0078FDEF24FE602B146053146079240360FE
:10783E00030278FD12577D7400F074391258B37438
:10784E0000F0A3743DF09003C412577412791C0219
:10785E0078F81258137454F074BA1257477400F033
:10786E00A3743EF09003C412577412791CE4FF12F5
:10787E009E14E53EC454F0FBAD3A0278F81258134C
:10788E007454F074CF1257471257BE7400F0A3749D
:10789E003FF09003C41257741278FEE53FC454F0C3
:1078AE00FBAD3B0278F81258137454F0A374EE1229
:1078BE0057481257BE7400F0743F1258B37400F05C
:1078CE00743C1258DC7400F0A37440F09003C412A0
:1078DE0057741278FEE53FC454F0FBAD3BE4FF1243
:0F78EE009E14E540C454F0FBAD3CE4FF129E1421
:1078FD0022124B9CE53DC454F0FBAD39E4FF129EC2
:10790D0014E53EC454F0FBAD3AE4FF129E1422126E
:0B791D004B9CE53DC454F0FBAD39224B
:038F69009003CAA8
:108F6C0012581B128FB6125774127D018F5B125858
:108F7C0023128FB6125774127D018F5C7F0412A6D8
:108F8C00047F0312A6077F0512A2459003CAE0F9DD
:108F9C00A3E0FAA3E09003AEC9125896AB5CAD5BAC
:0A8FAC007F0112908C7F05029C0CDF
:108FB6007403F0A374CAF07B017A0379CD128B593E
:048FC6009003CD2225
:1095C500755E01E4F55D7487255DF582E43403F588
:1095D50083E030E4157482255DF582E43403F58378
:1095E500E0FDE4FF129DE4E4F55E055DE55DC394F1
:1095F5000440D3E55E600FE4FB7D1FFF129C427DB6
:06960500FFE4FF129DE4EA
:01960B00223C
:106F9800C003C002C0011258137456F07478125816
:106FA800DC7400F0A37431F0A3E4F0A37400F0746F
:106FB8003212582B7403F0A374871258387403F0F4
:106FC800A374831258387403F0A374881258387461
:106FD80003F0A374841258387403F0A37489125808
:106FE800387403F0A374851258387403F0A3748AB4
:106FF800F0D001D002D003124B9CE531C454F0FF0D
:1070080090037EE0FEC433333354802FFFE53254BF
:107018000F2F900390F0900387E09003821258623C
:10702800900388E0900383125862900389E0FF90F0
:10703800038412586390038AE0FF90038512586313
:1070480090038B1258BAE4FF129A4690038C125898
:10705800BA7F01129A4690038D1258BA7F02129A8B
:107068004690038E1258BA7F03129A467B017A0320
:10707800798B12722A90039012587012515590030E
:1070880090E0FF125880126264E4F530748725306E
:10709800F582E43403F5831258BAAF30129CE30545
:1070A80030E530C3940440E4E4F541F542F5437516
:1070B80044057F0112A591900390E0FF1294EE7FA2
:1070C80008129D4CE4FF12A2F71297FB7B017A038A
:0D70D8007987124400900390E0900397F038
:0170E5002288
:108C9E00E4FF1293C5EFB40202C32290037EE0B547
:108CAE000702D32290037EEFF0E0C43333335480B7
:108CBE00FF900381E0547F4FF07F01129C0C9003D4
:108CCE007EE0FF128EA27B017A03798B12722A90BC
:108CDE000381125870125155900381E0FF12588093
:108CEE00126264E4FF12A2F71297FB7B017A0379FA
:088CFE008712440012A173D398
:018D0600224A
:10A389001258137455F0A3744A1258387403F0A381
:06A39900747FF0024B9CF2
:050026007F01029C0CAB
:10A42E009056A9E493FF1200039056A9A3E493FF5C
:03A43E0002000316
:037B35009001D5E7
:107B380012581B7401F0A374D5F07B017A0179DA2D
:107B4800128B599001DA1257741299CD9001D8EE20
:107B5800F0A3EFF07A5679AC127C08B50611A3E0D1
:107B6800B5070C9001D51257741292E1027C057A80
:107B78005679B1127C08B50611A3E0B5070C125866
:107B8800E312577412A454027C057A5679B7127C12
:107B980012E0B50618A3E0B507131258E31257749C
:107BA800126F9812A173E4FF12A59180507A56794A
:107BB800BD127C12E0B50610A3E0B5070B1258E31E
:107BC80012577412A38980357A5679C2127C1BE049
:107BD800B5060FA3E0B5070A900275E090028AF097
:107BE800801B7A5679C4127C1BE0B50610A3E0B559
:0F7BF800070B129D80900275E0FF129E9D7F018A
:107C0700227BFF1299CD9001D8E0227BFF1299CDFC
:0D7C17009001D8227BFF1299CD9001D82258
:105B01000D0A0050435400FFC89664320062757359
:105B11007720302031204131203131627573772077
:105B210030203120413220443779766D6978203434
:105B3100206D6F64652030206873636F6D203120A4
:105B410031206368303A3130206368313A30302097
:105B51006368323A3030206368333A3030206873FA
:105B6100636F6D20312031206368323A3130206318
:105B710068313A3030206368303A3030206368331E
:105B81003A3030206873636F6D20312031206368B3
:105B9100313A3130206368303A3030206368323A2C
:105BA1003030206368333A3030206873636F6D2082
:105BB100322032206368323A3130206368303A3122
:105BC10030206368313A3030206368333A30302016
:105BD1006873636F6D20322032206368303A313050
:105BE100206368323A3130206368313A30302063C3
:105BF10068333A3030206873636F6D203220322071
:105C01006368313A3130206368303A31302063685B
:105C1100323A3030206368333A3030206873636F32
:105C21006D20322032206368303A31302063683190
:105C31003A3130206368323A3030206368333A3089
:105C410030206873636F6D20322032206368313AEF
:105C51003130206368323A3130206368303A303075
:105C6100206368333A3030206873636F6D203220CF
:105C710032206368323A3130206368313A31302062
:105C81006368323A3030206368333A3030206873C9
:105C9100636F6D20332033206368303A31302063E5
:105CA10068313A3130206368323A313020636833E9
:105CB1003A3030206873636F6D2031203120636882
:105CC100333A3030206368313A3030206368323AF9
:0A5CD1003030206368303A30302094
:106E3D00C12844032D0000000041033100410332FD
:106E4D000041032C0141032B024103290141032A77
:106E5D0000410320004203210000420323000042B1
:106E6D000325000042032700004102F4014102F313
:096E7D0000410333004102F20060
:107EB5007D017BFF7E007F26022668900213E0FE8F
:107EC500740B2FF582E43402F5832274DF2FF582DB
:107ED500E43401F583E022900006E0FAA3E0FB7CA0
:107EE50000FFAE020226F878F57C027D017B0122B7
:107EF5007D017BFF7E000226687C00AF03AE021287
:107F050026F8900006ECF0A3EDF022E4F0A3F0A330
:107F1500F0A322E4FDFC900009E0F8A3E0F9A3E05A
:107F2500FAA3E0FBC302290E7D017BFF7E007F0ED5
:107F3500022668E530F0900273E004F022E4FCFDCF
:107F4500900009022932F0A37420F0A37403F0E431
:107F5500A3F022900243E090032C2290020B7402BE
:107F6500F0A37432F0A32234FFFE7C007D060226C6
:0F7F7500F8900273E0240B227B017A0279F52247
:107DDC0012A48AEF64016003027EAD43E11012A38A
:107DEC00118F30E530B40218900241E0701290020D
:107DFC007304F090020BE530F09002417401F02214
:107E0C00E5306403702A90020CE0FF64526004EFCA
:107E1C00B4531D9002F2E07017900273E0FFD394FC
:107E2C0003500D9002F27401F0127EC5127F3822BD
:107E3C00E530B4031B900245E07015127F76127E7C
:107E4C00C8127F389002457401F0E49002F2F022DF
:107E5C00900245E064017037127F76127EC8E530DF
:107E6C00F07B017A02790B7D0412608DEF602F900C
:107E7C00031F7401F090020CE09002F5F0E4A3F003
:107E8C0090020DE0900275F090031E7402F0221225
:107E9C007F76127EC8127F38E0D39408400A02A184
:087EAC004DE4900327F0A3F060
:017EB40022AB
:09A588007BFF7A5B790102A0ABB4
:0B9CAE009003EBEBF0A3EAF0A3E9F059
:109CB9009003EBE0FBA3E0FAA3E0F912268E60190A
:109CC9009003EBA3E475F001122763A9F0FA1226B9
:099CD9008EF564FF12000380D730
:019CE200225F
:10A14D00E4900241F0900245F0900273F090020B02
:10A15D00127F11127F11F0A3F0A3F090031EF0A354
:06A16D00F09002F5F02263
:09A59100EF6003C20122D2012295
:0CA54700C200C201C227E4900404F0220C
:109ECA009003EEEBF0A3EAF0A3E9F020001D900363
:109EDA00EEE0FBA3E0FAA3E0F8AC02AD037BFF7A65
:0C9EEA005B7904122BAFEF7002D2002253
:089291009001D5EEF0A3EFF00F
:109299009001D5E07002A3E0603DE49001D7F0A30E
:1092A900F09001D7E0FEA3E0FFE4FCFD7B1BFAF997
:1092B900F8D312290E40109001D8E004F070E29022
:1092C90001D7E004F080DA9001D6E024FFF09001A4
:0792D900D5E034FFF080B97D
:0192E000226B
:106CD600900000127F1074C8F0A37464F0E4A3F06F
:106CE60012941012A4B912A54712A14DE4FF12A4E2
:106CF6009A1289017F4D124E3575470075482875E1
:106D06004901754AE09003217401F0A374E0F0751F
:106D16004B00754C04A37407F0A304F07F9812A5EA
:106D2600F2EF5410FFC4540F900005F0127DDC9072
:106D3600031FE0B40106127F7D127B3590031FE02E
:106D4600B4010312A14D302707128C9E5002C227B0
:106D560012A48AEF6009900003E0754300F544E54C
:106D66004464014543700DF543F544900004E07515
:106D76004100F542E542640145417021900241E03F
:106D8600701B12960C128F0690028AE0FF90028802
:106D9600E06F6003124E35754100754214E54C6490
:106DA60001454B701290024DE0C394014009754BAA
:106DB60000754C04128513E548640145477035900B
:106DC600024DE0702F900320E0FF74017E00A807BB
:106DD600088005C333CE33CED8F9FF12990C900341
:106DE60020E004F0754700754828E0C3940D40077D
:106DF600E4F08003129DB2900321E07004A3E064E6
:106E060001700F90022DF0A3F090032104F0A374FB
:106E1600E0F0900323E07004A3E06401700F90009B
:106E260005E0FF1294A4E4900323F0A3F043E110DD
:036E3600026D32B8
:10941000E4F5B8F5A8F58775E127F5D0758922F54B
:109420008812A37312A59A12A2A1E4F58EF5A2D216
:1094300099D2AF00F593F5944391035392FCF595BF
:10944000F596F5B1F5B2F5B375B404C2E9C292C2AE
:0A94500093C294C295C296C29722FF
:087F84009001DDEFF0A3EDF028
:107F8C0078DF7C017A5B79087F06127EF59001DD43
:107F9C00E014603014604714605E14607514700354
:107FAC0002803824056003028051E4F5EA9001DE7A
:107FBC00E0FF7004F5DA800375DA42127ED0F5FA30
:107FCC00E4F5F222E4F5EB9001DEE0FF7004F5DB62
:107FDC00800375DB42127ED0F5FBE4F5F322E4F569
:107FEC00EC9001DEE0FF7004F5DC800375DC4212DE
:107FFC007ED0F5FCE4F5F422E4F5ED9001DEE0FF33
:10800C007004F5DD800375DD42127ED0F5FDE4F5DC
:10801C00F522E4F5EE9001DEE0FF7004F5DE80035E
:10802C0075DE42127ED0F5FEE4F5F622E4F5EF9013
:10803C0001DEE0FF7004F5DF800375DF42127ED0B5
:05804C00F5FFE4F5F76B
:01805100220C
:0FA4B900E4F5E9F5F975D90475D84043A680227A
:054E3500900006EFF003
:104E3A0078077C007A5B790E127F2D78157C007AD0
:104E4A005B791C127F2D78237C007D017BFF7A5BC6
:104E5A00792A7E007F08122668782B7C007A5B7993
:104E6A00327F07127EF578327C007A5B7939127EBE
:104E7A00B578587C007A5B795F127EB5787E7C00C3
:104E8A007D017BFF7A5B7985127EB978A47C007DEF
:104E9A00017BFF7A5B79AB127EB978CA7C007D010F
:104EAA007BFF7A5B79D1127EB978F07C007D017B39
:104EBA00FF7A5B79F7127EB978167C017D017BFF58
:104ECA007A5C791D127EB9783C7C017D017BFF7A80
:104EDA005C7943127EB978627C017D017BFF7A5C42
:104EEA007969127EB978887C017D017BFF7A5C79C9
:104EFA008F127EB978AE7C017D017BFF7A5C79B531
:104F0A00127EB9E49001D4F0900006E0FE24B6FFC8
:104F1A00C3940A400674FC2FFF8005E4900276F0E1
:104F2A00900288EEF0EFB408005062904F3CF828E7
:104F3A002873024F54024F59024F60024F66024FC4
:104F4A006D024F7B024F87024F8F9003328041E4FC
:104F5A00900332F0803DE490024480199002447438
:104F6A000180129002437401F090032C7404F080C3
:104F7A0022E4900243F090032C04F080169002760B
:104F8A007414F0800E9002767441F0800690032C1F
:104F9A007401F0900276E0FFC39401400890033157
:104FAA00EFF0025030900332E064017049900244FD
:104FBA00E0601B127F58B4010B7402F090032B744B
:104FCA0004F080237402F090032B14F08019127FEE
:104FDA0058B4010B7404F090032B7402F080087427
:104FEA0001F090032B04F090032CE0C454F0FF90DE
:104FFA00032BE04F802C900244E0600590032C8044
:10500A000C127F58B4010B7404F090032B7402F055
:10501A0080087401F090032B04F090032CE0FFC485
:10502A0054F0900331F0900329E060251298C912D8
:10503A007EEC7A00790712513C7A00791512513CBC
:10504A007A00792B7E007F07122668127F7D127BF9
:10505A0035900331E01229DE50811050A71250AB6F
:10506A001450832050A92150BD24508C4050B44183
:10507A0050A742000050CF8009127EEC7A0079587E
:10508A008007127EEC7A007932127EB99001F574AB
:10509A0003F07B0F7D01E4FF128E3E8032801D807B
:1050AA0012127EEC7A0079F08022127EEC7A017973
:1050BA00168019127EEC7A0079CA8010127EEC7A78
:1050CA000079A48007127EEC7A007932127EB9E464
:1050DA00900329F0127F7D127B35900331E012296B
:1050EA00DE510A10511412511C14510C205118216E
:1050FA00512724511040512041512B420000513672
:10510A008000E4FF8012E4FF80197F01800A7F019A
:10511A0080067F0180027F01128A75800F7F0180DD
:10512A00027F01128A759001D47401F09001D4E0D3
:01513A00FF75
:10513B00227E007F0E1226687B017A0279F5127BA4
:0A514B003578F57C027D017B01221E
:029E9D00AB0711
:109E9F00E4FFFEEBC3943D4021EBD39461501BEBE9
:109EAF0024C3FFEE127F6CAA07EB24C3FFE4127FDB
:0A9EBF006CAE05AF02127F847F0134
:019EC9002276
:10924000E4FBFAFD7F90129BD5EEC4F854F0C86899
:10925000FEEFC4540F48FFEEC4F854F0C868FAEFAC
:10926000C4540F48FB2091047A007B637C007D0A84
:10927000AF03AE021226F8ED2430900220F0AE02C9
:10928000AF037C007D0A1226F8EF2430900225F00F
:0192900022BB
:1076ED00900006127F1012293E00000000E4FF12E8
:1076FD00A225900006EEF0A3EFF0900006E0FEA3A9
:10770D00E0FF127F427F6E7E02127F184042E47FBF
:10771D00A57E03FDFC900009E0F8A3A3A3E0D3121E
:10772D00290E9000095020E0F8A3A3A3C374A59BD4
:10773D00FF74039AFEE499FDE498FCE47B707A01F2
:10774D00F9F81227F1802B12293E00030AE8803147
:10775D007FF37E01127F18401E900006E0FEA3E02D
:10776D00FF746E9FFF74029EFE7C007DD21226E692
:10777D00E4FD127F45800A90000912293E0000F2B7
:10778D0094E47B64FAF9F8900009E0FCA3E0FDA312
:10779D00E0FEA3E0FF12287C900006EEF0FAA3EFC6
:1077AD00F0FB127F42D3EB940FEA9427400A90002E
:1077BD00067427F0A3740FF0900006E0FAA3E0FB27
:1077CD007C037DE8127EE6EF243090021AF07C03F4
:1077DD007DE8127F007D64127EDCEF24309002196B
:1077ED00F07D64127EFE7D0A127EDCEF2430900265
:0D77FD0018F07D0A127EFE2430900217F075
:01780A00225B
:10919900127F607450F0A37430F0A37439F0A37493
:1091A90066127F4B90000CF090000CE0FFD39407FF
:1091B9005013127EC0E0FFEE6F900213F090000C86
:1091C900E004F080E3E490000CF090000CE0FFD3A1
:1091D90094085010127EC5E0FF12000390000CE0C5
:0491E90004F080E628
:0191ED00225F
:108FCA00127F60744FF090023EE090020EF0900221
:108FDA003FE090020FF0900240E0900210127F4BA7
:108FEA0090000CF090000CE0FFD394075013127E0F
:108FFA00C0E0FFEE6F900213F090000CE004F080E6
:10900A00E3E490000CF090000CE0FFD394085010B9
:10901A00127EC5E0FF12000390000CE004F080E627
:01902A002223
:10002E001010FFFFFFFFFFFFFFFFFFFFFFFFFFFFB0
:10003E00FFFFFFFFFFFFFFFFFFFFFFFFFFFFFFFFC2
:10004E00FFFFFFFFFFFFFFFFFFFFFFFFFFFFFFFFB2
:10005E00FFFFFFFFFFFFFFFFFFFFFFFFFFFFFFFFA2
:10006E00FFFFFFFFFFFFFFFFFFFFFFFFFFFFFFFF92
:10007E00FFFFFFFFFFFFFFFFFFFFFFFFFFFFFFFF82
:10008E00FFFFFFFFFFFFFFFFFFFFFFFFFFFFFFFF72
:10009E00FFFFFFFFFFFFFFFFFFFFFFFFFFFFFFFF62
:1000AE00FFFFFFFFFFFFFFFFFFFFFFFFFFFFFFFF52
:1000BE00FFFFFFFFFFFFFFFFFFFFFFFFFFFFFFFF42
:1000CE00FFFFFFFFFFFFFFFFFFFFFFFFFFFFFFFF32
:1000DE00FFFFFFFFFFFFFFFFFFFFFFFFFFFFFFFF22
:1000EE00FFFFFFFFFFFFFFFFFFFFFFFFFFFFFFFF12
:1000FE00FFFFFFFFFFFFFFFFFFFFFFFFFFFFFFFF02
:10010E00FFFFFFFFFFFFFFFFFFFFFFFFFFFFFFFFF1
:10011E00FFFFFFFFFFFFFFFFFFFFFFFFFFFFFFFFE1
:10012E00FFFF1010FFFFFFFFFFFFFFFFFFFFFFFFAF
:10013E00FFFFFFFFFFFFFFFFFFFFFFFFFFFFFFFFC1
:10014E00FFFFFFFFFFFFFFFFFFFFFFFFFFFFFFFFB1
:10015E00FFFFFFFFFFFFFFFFFFFFFFFFFFFFFFFFA1
:10016E00FFFFFFFFFFFFFFFFFFFFFFFFFFFFFFFF91
:10017E00FFFFFFFFFFFFFFFFFFFFFFFFFFFFFFFF81
:10018E00FFFFFFFFFFFFFFFFFFFFFFFFFFFFFFFF71
:10019E00FFFFFFFFFFFFFFFFFFFFFFFFFFFFFFFF61
:1001AE00FFFFFFFFFFFFFFFFFFFFFFFFFFFFFFFF51
:1001BE00FFFFFFFFFFFFFFFFFFFFFFFFFFFFFFFF41
:1001CE00FFFFFFFFFFFFFFFFFFFFFFFFFFFFFFFF31
:1001DE00FFFFFFFFFFFFFFFFFFFFFFFFFFFFFFFF21
:1001EE00FFFFFFFFFFFFFFFFFFFFFFFFFFFFFFFF11
:1001FE00FFFFFFFFFFFFFFFFFFFFFFFFFFFFFFFF01
:10020E00FFFFFFFFFFFFFFFFFFFFFFFFFFFFFFFFF0
:10021E00FFFFFFFFFFFFFFFFFFFFFFFFFFFFFFFFE0
:10022E00FFFFFFFF1010FFFFFFFFFFFFFFFFFFFFAE
:10023E00FFFFFFFFFFFFFFFFFFFFFFFFFFFFFFFFC0
:10024E00FFFFFFFFFFFFFFFFFFFFFFFFFFFFFFFFB0
:10025E00FFFFFFFFFFFFFFFFFFFFFFFFFFFFFFFFA0
:10026E00FFFFFFFFFFFFFFFFFFFFFFFFFFFFFFFF90
:10027E00FFFFFFFFFFFFFFFFFFFFFFFFFFFFFFFF80
:10028E00FFFFFFFFFFFFFFFFFFFFFFFFFFFFFFFF70
:10029E00FFFFFFFFFFFFFFFFFFFFFFFFFFFFFFFF60
:1002AE00FFFFFFFFFFFFFFFFFFFFFFFFFFFFFFFF50
:1002BE00FFFFFFFFFFFFFFFFFFFFFFFFFFFFFFFF40
:1002CE00FFFFFFFFFFFFFFFFFFFFFFFFFFFFFFFF30
:1002DE00FFFFFFFFFFFFFFFFFFFFFFFFFFFFFFFF20
:1002EE00FFFFFFFFFFFFFFFFFFFFFFFFFFFFFFFF10
:1002FE00FFFFFFFFFFFFFFFFFFFFFFFFFFFFFFFF00
:10030E00FFFFFFFFFFFFFFFFFFFFFFFFFFFFFFFFEF
:10031E00FFFFFFFFFFFFFFFFFFFFFFFFFFFFFFFFDF
:10032E00FFFFFFFFFFFF1010FFFFFFFFFFFFFFFFAD
:10033E00FFFFFFFFFFFFFFFFFFFFFFFFFFFFFFFFBF
:10034E00FFFFFFFFFFFFFFFFFFFFFFFFFFFFFFFFAF
:10035E00FFFFFFFFFFFFFFFFFFFFFFFFFFFFFFFF9F
:10036E00FFFFFFFFFFFFFFFFFFFFFFFFFFFFFFFF8F
:10037E00FFFFFFFFFFFFFFFFFFFFFFFFFFFFFFFF7F
:10038E00FFFFFFFFFFFFFFFFFFFFFFFFFFFFFFFF6F
:10039E00FFFFFFFFFFFFFFFFFFFFFFFFFFFFFFFF5F
:1003AE00FFFFFFFFFFFFFFFFFFFFFFFFFFFFFFFF4F
:1003BE00FFFFFFFFFFFFFFFFFFFFFFFFFFFFFFFF3F
:1003CE00FFFFFFFFFFFFFFFFFFFFFFFFFFFFFFFF2F
:1003DE00FFFFFFFFFFFFFFFFFFFFFFFFFFFFFFFF1F
:1003EE00FFFFFFFFFFFFFFFFFFFFFFFFFFFFFFFF0F
:1003FE00FFFFFFFFFFFFFFFFFFFFFFFFFFFFFFFFFF
:10040E00FFFFFFFFFFFFFFFFFFFFFFFFFFFFFFFFEE
:10041E00FFFFFFFFFFFFFFFFFFFFFFFFFFFFFFFFDE
:10042E00FFFFFFFFFFFFFFFF1010FFFFFFFFFFFFAC
:10043E00FFFFFFFFFFFFFFFFFFFFFFFFFFFFFFFFBE
:10044E00FFFFFFFFFFFFFFFFFFFFFFFFFFFFFFFFAE
:10045E00FFFFFFFFFFFFFFFFFFFFFFFFFFFFFFFF9E
:10046E00FFFFFFFFFFFFFFFFFFFFFFFFFFFFFFFF8E
:10047E00FFFFFFFFFFFFFFFFFFFFFFFFFFFFFFFF7E
:10048E00FFFFFFFFFFFFFFFFFFFFFFFFFFFFFFFF6E
:10049E00FFFFFFFFFFFFFFFFFFFFFFFFFFFFFFFF5E
:1004AE00FFFFFFFFFFFFFFFFFFFFFFFFFFFFFFFF4E
:1004BE00FFFFFFFFFFFFFFFFFFFFFFFFFFFFFFFF3E
:1004CE00FFFFFFFFFFFFFFFFFFFFFFFFFFFFFFFF2E
:1004DE00FFFFFFFFFFFFFFFFFFFFFFFFFFFFFFFF1E
:1004EE00FFFFFFFFFFFFFFFFFFFFFFFFFFFFFFFF0E
:1004FE00FFFFFFFFFFFFFFFFFFFFFFFFFFFFFFFFFE
:10050E00FFFFFFFFFFFFFFFFFFFFFFFFFFFFFFFFED
:10051E00FFFFFFFFFFFFFFFFFFFFFFFFFFFFFFFFDD
:10052E00FFFFFFFFFFFFFFFFFFFF1010FFFFFFFFAB
:10053E00FFFF00000000FFFFFFFFFFFFFFFFFFFFB9
:10054E00FF000000000000FFFFFFFFFFFFFFFFFFA7
:10055E000000020202020000FFFFFFFFFFFFFFFF8D
:10056E000000020202020000FFFFFFFFFFFFFF007C
:10057E00000202000002020000FFFFFFFFFFFF006B
:10058E00000202000002020000FFFFFFFFFF00005A
:10059E0002020000000002020000FFFFFFFF000049
:1005AE00020200FFFF0002020000FFFFFF00000238
:1005BE00020000FFFF000002020000FFFF00000229
:1005CE000200000000000002020000FF0000020214
:1005DE0002020202020202020202000000000202F5
:1005EE0002020202020202020202000000000202E5
:1005FE0000000000000000000202000000000202E5
:10060E000000FFFFFFFF00000202000000000202D8
:10061E000000FFFFFFFF00000202000000000000CC
:10062E000000FFFFFFFF00000000000010100000A0
:10063E00000000000000000000000000FFFF0002AC
:10064E0002020202020202020202000000FF000287
:10065E000202020202020202020202000000000076
:10066E000002020000000000020202020000FF0071
:10067E0000020200FFFFFF00000202020000FF0066
:10068E0000020200FFFFFF00000202020000FF0056
:10069E0000020200000000000202020000FFFF0044
:1006AE00000202020202020202020000FFFFFF002D
:1006BE00000202020202020202020000FFFFFF001D
:1006CE0000020200000000000202020000FFFF0014
:1006DE0000020200FFFFFF00000202020000FF0006
:1006EE0000020200FFFFFF000002020200000000F5
:1006FE0000020200000000000202020200000002DE
:10070E0002020202020202020202020000000002C3
:10071E0002020202020202020202000000FF0000B8
:10072E00000000000000000000000000FFFF10109D
:10073E00FFFFFF00000000000000000000FFFFFFB1
:10074E00FFFF00000202020202020202000000FF8E
:10075E00FF00000202020202020202020200000078
:10076E000000000202000000000000020202000071
:10077E0000000202020000FFFFFF00000202000064
:10078E00000002020000FFFFFFFFFF000202000058
:10079E00000002020000FFFFFFFFFFFF000000004D
:1007AE00000002020000FFFFFFFFFFFFFFFFFFFF41
:1007BE00000002020000FFFFFFFFFFFFFFFFFFFF31
:1007CE00000002020000FFFFFFFFFF00000000001C
:1007DE00000002020000FFFFFFFFFF000202000008
:1007EE0000000202000000FFFFFF000002020000F6
:1007FE0000000202020000000000000202020000DF
:10080E00FF000002020202020202020202000000C7
:10081E00FFFF00000202020202020202000000FFBD
:10082E00FFFFFF0000000000000000000000FFFFBF
:10083E001010000000000000000000000000FFFF8C
:10084E00FFFF00000202020202020202020000FF8B
:10085E00FFFF000002020202020202020202000078
:10086E00FFFF000002020000000000020202000072
:10087E00FFFF000002020000FFFF00000202000066
:10088E00FFFF000002020000FFFF00000202000056
:10089E00FFFF000002020000000000020202000042
:1008AE00FFFF00000202020202020202020000FF2B
:1008BE00FFFF00000202020202020202000000FF1D
:1008CE00FFFF000002020000020202000000FFFF14
:1008DE00FFFF000002020000000202020000FFFF04
:1008EE00FFFF00000202000000000202020000FFF3
:1008FE00FFFF000002020000FF00000202020000E3
:10090E00FFFF000002020000FFFF000002020200D3
:10091E0000FF000002020000FFFFFF0000020202C3
:10092E0000FF000000000000FFFFFFFF00000000BE
:10093E0000FF101000000000FFFFFFFFFFFFFFFF92
:10094E00000000000000000000FFFFFFFFFFFF009F
:10095E000000000000000C0C0000FFFFFFFF000075
:10096E000C0C000000000C0C0C0000000000000C31
:10097E000C0C000000000C0C0C0C000000000C0C09
:10098E000C0C000000000C0C0C0C0C0C0C0C0C0CC9
:10099E000C0C000000000C0C0C0C0C0C0C0C0C0CB9
:1009AE000C0C000000000C0C0C000C0C0C0C000CC1
:1009BE000C0C000000000C0C0C00000C0C00000CC9
:1009CE000C0C000000000C0C0C0000000000000CD1
:1009DE000C0C000000000C0C0C0000000000000CC1
:1009EE000C0C000000000C0C0C0000FFFF00000CB3
:1009FE000C0C000000000C0C0C0000FFFF00000CA3
:100A0E000C0C000000000C0C0C0000FFFF00000C92
:100A1E000C0C000000000C0C0C0000FFFF00000C82
:100A2E000C0C000000000000000000FFFF000000A2
:100A3E00000000001010FF00000000000000000089
:100A4E000000000000FFFF0000020202020202028C
:100A5E000202020000FFFF00000202020202020276
:100A6E000202020000FFFF00000000000000020270
:100A7E000200000000FFFFFFFFFFFFFF0000020269
:100A8E00020000FFFFFFFFFFFFFFFFFF000002025B
:100A9E00020000FFFFFFFFFFFFFFFFFF000002024B
:100AAE00020000FFFFFFFFFFFFFFFFFF000002023B
:100ABE00020000FFFFFFFFFFFFFFFFFF000002022B
:100ACE00020000FFFFFFFFFFFFFFFFFF000002021B
:100ADE00020000FFFFFFFF00000000FF0000020207
:100AEE00020000FFFFFFFF000202000000000202F2
:100AFE00020000FFFFFFFF000202020000020202DE
:100B0E00020000FFFFFFFF000002020202020202CB
:100B1E00000000FFFFFFFFFF0000020202020200C2
:100B2E000000FFFFFFFFFFFFFF00000000000000BE
:100B3E0000FFFFFFFFFF1010FFFFFFFFFFFFFFFF94
:100B4E00FFFFFFFFFFFFFFFFFFFFFFFFFF000000A4
:100B5E0000000000FFFFFFFFFFFFFFFF000001018D
:100B6E0001010000FFFFFFFFFFFFFF000001010179
:100B7E0001010000FFFFFFFFFFFF00000101010167
:100B8E00010000FFFFFFFFFFFF0000010101010157
:100B9E000000000000000000000001010101010141
:100BAE00010101010101000000010101010101012A
:100BBE00010101010101000000010101010101011A
:100BCE00010101010101000000000101010101010B
:100BDE000101010101010000FF00000101010101FD
:100BEE000000000000000000FFFF000001010101F5
:100BFE00010000FFFFFFFFFFFFFFFF0000010101EB
:100C0E0001010000FFFFFFFFFFFFFFFF00000101DA
:100C1E0001010000FFFFFFFFFFFFFFFFFF000000CD
:100C2E0000000000FFFFFFFFFFFFFFFFFFFFFFFFC2
:100C3E00FFFFFFFFFFFFFFFF1010FFFFFFFFFFFF94
:100C4E00FFFFFFFFFFFFFFFFFFFFFFFFFFFF0000A4
:100C5E000000000000FFFFFFFFFFFFFFFFFF00008F
:100C6E00010101010000FFFFFFFFFFFFFFFF00007A
:100C7E0001010101010000FFFFFFFFFFFFFFFF0069
:100C8E000001010101010000FFFF00000000000053
:100C9E00000001010101010000FF0000010101013E
:100CAE00010101010101010100000000010101012A
:100CBE000101010101010101010000000101010119
:100CCE00010101010101010101000000000000000D
:100CDE00000001010101010000FF00000000000002
:100CEE00000001010101010000FFFFFFFFFFFF00F7
:100CFE000001010101010000FFFFFFFFFFFF0000E7
:100D0E0001010101010000FFFFFFFFFFFFFF0000D7
:100D1E00010101010000FFFFFFFFFFFFFFFF0000C9
:100D2E000000000000FFFFFFFFFFFFFFFFFFFFFFC0
:100D3E00FFFFFFFFFFFFFFFFFFFF1010FFFFFFFF93
:100D4E000000000000000000FFFFFFFFFFFFFFFF9D
:100D5E000000010101010000FFFFFFFFFFFFFFFF89
:100D6E000000010101010000FFFFFFFFFFFFFFFF79
:100D7E000000010101010000FFFFFFFFFFFFFFFF69
:100D8E000000010101010000FFFFFFFF0000000055
:100D9E00000001010101000000000000000001013F
:100DAE00000001010101000001010000000001012D
:100DBE00010001010101000101010000000001011B
:100DCE000101010101010101010100000000010109
:100DDE00010101010101010101010000FF000001FB
:100DEE000101010101010101010000FFFFFF0000EF
:100DFE0001010101010101010000FFFFFFFFFF00E2
:100E0E00000101010101010000FFFFFFFFFFFFFFD5
:100E1E000000010101010000FFFFFFFFFFFFFFFFC8
:100E2E00FF000001010000FFFFFFFFFFFFFFFFFFBC
:100E3E00FFFF00000000FFFFFFFFFFFF1010FFFF8E
:100E4E00FFFFFFFFFFFF0000000000000000FFFF9C
:100E5E00FFFFFFFFFF000002020202020000FFFF81
:100E6E00FFFFFFFF00000202020202020000FFFF6E
:100E7E00FFFFFF000002020200000202000000005D
:100E8E00000000000202020000000202000000004A
:100E9E000202020202020200FF0002020000000033
:100EAE000202020202020200FF0002020000000023
:100EBE000202000000020200FF0002020000000019
:100ECE00020200FF00020200FF000202000000000A
:100EDE000202000000020200FF00020200000000F9
:100EEE000202020202020200FF00020200000000E3
:100EFE0002020202020202000000020200000000D2
:100F0E000000000000020202000002020000FFFFCB
:100F1E00FFFFFFFF00000202020202020000FFFFBD
:100F2E00FFFFFFFFFF000002020202020000FFFFB0
:100F3E00FFFFFFFFFFFF0000000000000000101089
:100F4E000000000000FFFFFFFFFFFF000000000099
:100F5E000001010100FFFFFFFFFFFF000101010083
:100F6E000001010100FFFFFFFFFFFF000101010073
:100F7E000001010100FFFFFFFFFFFF000101010063
:100F8E000001010100FFFFFFFFFFFF000101010053
:100F9E00000101010000FFFFFFFF00000101010041
:100FAE00000101010100FFFFFFFF0001010101002F
:100FBE00000001010100FFFFFFFF00010101000021
:100FCE0000000101010000FFFF000001010100000F
:100FDE00FF0000010101000000000101010000FFFF
:100FEE00FFFF000001010100000101010000FFFFF1
:100FFE00FFFF000000010100000101000000FFFFE3
:10100E00FFFFFF00000101010101010000FFFFFFD2
:10101E00FFFFFFFF0000010101010000FFFFFFFFC6
:10102E00FFFFFFFFFF00000101000000FFFFFFFFB9
:10103E00FFFFFFFFFFFF0000000000FFFFFFFFFFAD
:10104E00101000000000000000FFFFFFFFFFFFFF79
:10105E00FFFF00000101010000FFFFFFFFFFFFFF88
:10106E00FFFF00000101010000FFFFFFFFFFFFFF78
:10107E00FFFF00000101010000FFFFFFFFFFFFFF68
:10108E00FFFF00000101010000FFFFFFFFFFFFFF58
:10109E00FFFF00000101010000FFFFFFFFFFFFFF48
:1010AE00FFFF00000101010000FFFFFFFFFFFFFF38
:1010BE00FFFF00000101010000FFFFFFFFFFFFFF28
:1010CE00FFFF00000101010000FFFFFFFFFFFFFF18
:1010DE00FFFF00000101010000FFFFFFFFFF000006
:1010EE00000000000101010000FFFFFFFFFF0000F4
:1010FE00000000000101010000FFFFFFFF000001E2
:10110E0000000000010101000000000000000101CC
:10111E0000000000010101010101010101010101B5
:10112E0000000000010101010101010101010101A5
:10113E0000000000000000000000000000000000A1
:10114E0000001010FFFFFFFFFFFFFFFFFFFFFFFF7D
:10115E00FFFFFFFFFFFFFFFFFFFFFFFFFFFFFFFF91
:10116E00FFFFFFFFFFFFFFFFFFFFFFFFFFFFFFFF81
:10117E00FFFFFFFFFFFFFFFF00000000000000FF6A
:10118E00FFFFFFFFFFFFFF00000001010100000055
:10119E00FFFFFFFFFFFF0000010101010101010040
:1011AE0000FFFFFFFF00000101010000000101012F
:1011BE000000FFFF00000001010000FF0000010120
:1011CE00000000FF00000101010000FF000001010E
:1011DE00010000FF00000101010000FF00000101FD
:1011EE00010000FF00000101010000FF00000101ED
:1011FE00010000FF00000001010000FF00000101DE
:10120E00000000FFFF0000010101000000010101CC
:10121E000000FFFFFFFF00000101010101010100BD
:10122E0000FFFFFFFFFFFF000000010101000000B3
:10123E00FFFFFFFFFFFFFFFF00000000000000FFA9
:10124E00FFFFFFFF1010FFFFFFFFFFFFFFFFFFFF7E
:10125E00FFFFFFFFFFFFFFFFFFFF0000000000008A
:10126E000000FFFFFFFFFFFF00000000020202026E
:10127E00000000FFFFFFFF00000002020202020258
:10128E0002020000FFFFFF00000202020000000049
:10129E000202020000FFFF00000202020000FF0037
:1012AE000000000000FFFF0000000202020200002A
:1012BE000000FFFFFFFFFFFFFF000002020202021D
:1012CE00020000FFFFFFFFFFFFFF00000000020211
:1012DE0002020000FFFFFF0000000000FFFF000001
:1012EE000202020000FFFF000002020200000000E6
:1012FE000202020000FFFF000000020202020202D0
:10130E0002020000FFFFFFFFFF00000002020202C8
:10131E00000000FFFFFFFFFFFFFFFF0000000000C7
:10132E000000FFFFFFFFFFFFFFFFFFFFFFFFFFFFBD
:10133E00FFFFFFFFFFFFFFFFFFFFFFFFFFFFFFFFAF
:10134E00FFFFFFFFFFFF1010FFFFFFFFFFFFFFFF7D
:10135E00FFFFFFFFFFFFFFFFFFFFFFFFFFFFFFFF8F
:10136E00FFFFFFFFFFFFFFFFFFFFFFFFFFFFFFFF7F
:10137E00FFFFFFFFFFFFFFFFFFFFFFFFFFFFFFFF6F
:10138E00FFFFFFFFFFFFFFFFFFFFFFFFFFFFFFFF5F
:10139E00FFFFFFFFFFFFFFFFFFFFFFFFFFFFFFFF4F
:1013AE00FFFFFFFFFFFFFFFFFFFFFFFFFFFFFFFF3F
:1013BE00FFFFFFFFFFFFFFFFFFFFFFFFFFFFFFFF2F
:1013CE00FFFFFFFFFFFFFFFF1010FFFFFFFFFFFFFD
:1013DE00FFFFFFFFFFFFFFFFFFFFFFFFFFFFFFFF0F
:1013EE00FFFFFFFFFFFFFFFFFFFFFFFFFFFFFFFFFF
:1013FE00FFFFFFFFFFFFFFFFFFFFFFFFFFFFFFFFEF
:10140E00FFFFFFFFFFFFFFFFFFFFFFFFFFFFFFFFDE
:10141E00FFFFFFFFFFFFFFFFFFFFFFFFFFFFFFFFCE
:10142E00FFFFFFFFFFFFFFFFFFFFFFFFFFFFFFFFBE
:10143E00FFFFFFFFFFFFFFFFFFFFFFFFFFFFFFFFAE
:10144E00FFFFFFFFFFFFFFFFFFFF1010FFFFFFFF7C
:10145E00FFFFFFFFFFFFFFFFFFFFFFFFFFFFFFFF8E
:10146E00FFFFFFFFFFFFFFFFFFFFFFFFFFFFFFFF7E
:10147E00FFFFFFFFFFFFFFFFFFFFFFFFFFFFFFFF6E
:10148E00FFFFFFFFFFFFFFFFFFFFFFFFFFFFFFFF5E
:10149E00FFFFFFFFFFFFFFFFFFFFFFFFFFFFFFFF4E
:1014AE00FFFFFFFFFFFFFFFFFFFFFFFFFFFFFFFF3E
:1014BE00FFFFFFFFFFFFFFFFFFFFFFFFFFFFFFFF2E
:1014CE00FFFFFFFFFFFFFFFFFFFFFFFF1010FFFFFC
:1014DE00FFFFFFFFFFFFFFFFFFFFFFFFFFFFFFFF0E
:1014EE00FFFFFFFFFFFFFFFFFFFFFFFFFFFFFFFFFE
:1014FE00FFFFFFFFFFFFFFFFFFFFFFFFFFFFFFFFEE
:10150E00FFFFFFFFFFFFFFFFFFFFFFFFFFFFFFFFDD
:10151E00FFFFFFFFFFFFFFFFFFFFFFFFFFFFFFFFCD
:10152E00FFFFFFFFFFFFFFFFFFFFFFFFFFFFFFFFBD
:10153E00FFFFFFFFFFFFFFFFFFFFFFFFFFFFFFFFAD
:10154E00FFFFFFFFFFFFFFFFFFFFFFFFFFFF10107B
:10155E00FFFFFFFFFFFFFFFFFFFFFFFFFFFFFFFF8D
:10156E00FFFFFFFFFFFFFFFFFFFFFFFFFFFFFFFF7D
:10157E00FFFFFFFFFFFFFFFFFFFFFFFFFFFFFFFF6D
:10158E00FFFFFFFFFFFFFFFFFFFFFFFFFFFFFFFF5D
:10159E00FFFFFFFFFFFFFFFFFFFFFFFFFFFFFFFF4D
:1015AE00FFFFFFFFFFFFFFFFFFFFFFFFFFFFFFFF3D
:1015BE00FFFFFFFFFFFFFFFFFFFFFFFFFFFFFFFF2D
:1015CE00FFFFFFFFFFFFFFFFFFFFFFFFFFFFFFFF1D
:1015DE001010FFFFFF0000FFFFFFFFFFF000000FE6
:1015EE00FFFFFFFF00222200FFFFFFFF002222006D
:1015FE00FFFFFFF0022002200FFFFFF0022002206B
:10160E000FFFFF002200002200FFFF00220FF0223A
:10161E0000FFF002200FF002200FF0022000000267
:10162E00200F002222222222220000222222222207
:10163E0022000022000000002200002200FFFF0016
:10164E002200002200FFFF002200000000FFFF002A
:10165E000000101000000000000000FF02222222F5
:10166E002222000F0222222222222000000220002B
:10167E0000222200F00220FFF0022200F00220FFE2
:10168E00F0022200F00220000022200FF00222229F
:10169E00222200FFF0022222222200FFF00220006E
:1016AE000022200FF00220FFF0022200F00220FFA5
:1016BE00F00222000002200000222200022222223A
:1016CE0022222000022222222222000F00000000ED
:1016DE00000000FF1010101010101010101010103D
:0A16EE001010101010101010101052
:109B2F001226A7FF900403E02F9001F5F022900179
:109B3F00EFE0FBA3E0FAA3E0F922F09001EFE0FBE6
:109B4F00A3E475F001122763A9F0FA02268E9001A3
:089B5F00E6E0D364809480224B
:06A5E000E4900403F022E8
:06A5E600900403EFF022D7
:0B6407009001E7EFF0A3ECF0A3EDF034
:106412009001E7E0FF25E0F0E02408F09001EEF0C3
:106422009001E8E0FEA3E07803C333CE33CED8F97F
:10643200F0EE9001E8F0A3E02408F09001E8E034E7
:1064420000F0AF037E007C017D021226E6742E2F3F
:10645200F974003EFA9001EF74FFF0A3EAF0A3E9A9
:10646200129B499001EA129B499001EBF0E4A3F0E0
:106472009001EAE0FF9001ECE0C39F400302654E09
:10648200E4A3F09001EBE0FF9001EDE0C39F400335
:1064920002652F129B3D12268E129B32E4FB7D0277
:1064A200FF128E3E129B3D900001129B2F7B011228
:1064B2006578900002129B2F7B0212657890000390
:1064C200129B2F7B0312658B9001F57480F07B0485
:1064D20012658B9001F0E475F00412274D9001EEE5
:1064E200E09001F5F07B05126593A3E09001F5F0D1
:1064F2007B07126593E07E007802C333CE33CED899
:10650200F912654F12659E20E7FA9001E8E025E056
:1065120025E0440812654F12659E20E7FA9001EECD
:10652200E004F09001EDE02404F00264859001E7BC
:10653200E09001EEF09001E9E004F070069001E8CD
:0C654200E004F09001ECE004F002647250
:10654E00229001F5F07B097D02E4FF128E3E7B0A5C
:10655E007D02E4FF1287F4EF543F44809001F5F082
:10656E007B0A7D02E4FF128E3E227D02E4FF128E34
:10657E003E9001EFE0FBA3E0FAA3E0F9227D02E4F6
:10658E00FF128E3E227D02E4FF128E3E9001E82223
:0B659E007B0A7D02E4FF1287F4EF226D
:0B902B009001E0EFF0A3EDF0A3EBF0EC
:10903600A3129B4012A3B59001E6EFF0C36480949F
:109046008040429001E0E030E0339001E1E0FFA390
:10905600E0FD7C00A3129B4012268EFB1264079053
:1090660001E6E014F09001E4E475F00112274D905A
:1090760001E1E02402F0129B5D50CF8005129B5D5A
:0590860050FB12A60AD8
:01908B0022C2
:10A205000500000600000700000800000900000A1C
:10A21500000012000020000B000C000D000E0000D5
:036E8600012100E7
:10810C00900382E075F003A42405F974A235F0FA0B
:10811C009001E374FFF0A3229001DDE0FBA3E0FAF1
:10812C00A3E0F922900382E0FF74017E00A8070807
:10813C0022FF90038FE0FDEF5D2274A2F0A3742464
:10814C00F0229000010226A774A2F0A37411F02271
:10815C0074A2F0A37422F022EAF0A3E9F0E4FB226B
:10816C009000020226A712268E540C1313543FF5CE
:10817C003022EAF0A3E9F07B12227B017D127C0015
:10818C00227D197B057C007F3A22EBF0A3EAF0A359
:10819C00E9F0229000030226A77B017D0F7C0022D0
:1081AC00EAF0A3E9F07B0F227B01E4FDFC7F1C22AB
:0881BC007B01E4FDFC7F412280
:10932E0012736B12A5E07F0412A6047F0312A60728
:10933E00E4F530AF301293640530E530C394064047
:10934E00F27F01129C0C7FFF12A6077F0812936416
:05935E00E490037FF024
:109363002212A2459001E1E4F0A37426F07B5AE4B3
:07937300FDFCFF128327221D
:104400009001DD1281967F0212A6047FFF12A6079B
:10441000900381E01229DE4445114454214488224E
:1044200044BC3144FA3345353445704145C091456B
:10443000D7A14603A2462CB14671B346B2B446F4A6
:10444000C10000475112812412268E20E103024749
:10445000510245CC12812412268E30E10D12810CBE
:104460001281647DFF7F0112902B12812412814EF4
:1044700020E10302475190038312810FEAF0A3E980
:10448000F07B1D7D5D02474C12812412268E30E1A7
:104490001112810CEAF0A3E9F07B0E7D487F011236
:1044A000902B12812412814E20E103024751900388
:1044B0008312810F1281647D1402474C12812412F1
:1044C000268E30E10912810C12816412479E1281FE
:1044D0002412814E30E10990038312810F12477F2D
:1044E00012812412816C20E103024751900384124F
:1044F000810F1281AC7D3E02474C12812412268E20
:1045000030E10612810C12475212812412814E3082
:10451000E10990038312810F1247701281241281E6
:104520006C20E10302475190038412810F1281AC89
:104530007D3E02474C12812412268E30E106128104
:104540000C12475212812412814E30E109900383EC
:1045500012810F12477012812412816C20E1030234
:10456000475190038412810F1281AC7D1402474C95
:1045700012812412268E30E10612810C124761123C
:10458000812412814E30E10C90038312810F12813D
:104590006412479612812412816C30E109900384E1
:1045A00012810F12477F12812412819F20E10302A2
:1045B000475190038512810F1281AC7D3E02474C1A
:1045C00012812412268E20E10302475112810C121F
:1045D00081647D2902474C12812412268E30E10924
:1045E00012810C12816412479E12812412814E2086
:1045F000E10302475190038312810F12817E7D29CE
:1046000002474C12812412268E30E10612810C12D0
:10461000476112812412814E20E103024751900329
:104620008312810F1281647D3E02474C1281241255
:10463000268E30E10D12810C1281647D297F0112DA
:10464000902B12812412814E30E10C900383128151
:104650000F12817E12478E12812412816C20E10399
:1046600002475190038412810F12817E7D3E0247E2
:104670004C12812412268E30E10912810C128164C1
:1046800012478E12812412814E30E10C9003831266
:10469000810F12816412479612812412816C20E1ED
:1046A0000302475190038412810F12817E7D3E02E6
:1046B000474C12812412268E30E10912810C12819E
:1046C000641247A612812412814E30E110900383B8
:1046D00012810F1281647D3E7F0112902B12812482
:1046E00012816C30E16B90038412810F12817E7D08
:1046F0001402474C12812412268E30E10912810CDB
:104700001281641247A612812412814E30E110906A
:10471000038312810F1281647D3E7F0112902B1260
:10472000812412816C30E11090038412810F128178
:104730007E7D147F0112902B12812412819F30E123
:104740001090038512810F12817E7D3E7F011290B1
:104750002B22EAF0A3E9F0E4FB7D147F0112902BF9
:1047600022EAF0A3E9F0E4FB7D147F0112902B22F2
:10477000EAF0A3E9F0E4FB7D3E7F0112902B22EAF0
:10478000F0A3E9F07B0F7D147F0112902B227D14A2
:104790007F0112902B227D3E7F0112902B227D29DA
:0E47A0007F0112902B227D147F0112902B229C
:08A5D000900380E04480F022BA
:10960C007B787D01E4FF1287F4EF540FFF90038FFA
:10961C00F0900380E06F602ED2277B31E4FDFF12C7
:10962C0087F4EF547F9001F5F07B31E4FDFF128E4F
:10963C003E7F4D12A6047F4012A5E612A5E09003D2
:07964C008FE0900380F02283
:066B70009001DD12819688
:106B76007F4112A604900381E01229DE6BAA116BF5
:106B8600BB216BEF226C26316C49336C66346BAAE1
:106B9600916BBBA16BEFA26C26B16C49B36C66B46A
:106BA60000006CA39001DD1281271281726003023E
:106BB6006C31026C3F9001DD1281271281726012E6
:106BC600126CA412811B1281647D1C7F0112902B12
:106BD60080061281B41281C49001DD1281271281D0
:106BE6004E1281756037026C749001DD1281271296
:106BF60081726012126CA412811B1281647D1C7F4B
:106C06000112902B80061281B41281C49001DD120C
:106C1600812712814E1281756003026C74026C9991
:106C26009001DD128127128172600E126CBD1281F5
:106C36001B1281647D31026C947B01E4FDFC7F3183
:106C4600026CA09001DD128127128172600D126C18
:106C5600BD12811B1281647D1C80331281B4803A7F
:106C66009001DD12812712814E12817560257B020B
:106C7600E4FDFCFF1281C4E53025E0FFE433FE7439
:106C86001A2FF974A23E12811B1281647D467F0180
:0D6C960002902B7B01E4FDFC7F461281C4BF
:106CA300227B02E4FDFCFF1281C4E53025E0FFE412
:106CB30033FE741A2FF974A23E227B02E4FDFCFF1B
:106CC3001281C4E53025E0FFE433FE741A2FF97412
:036CD300A23E22BC
:10321F009001DD1281967F0C12A604900381E012BB
:10322F0029DE325F11327121329D2232C6313311C4
:10323F003333543433A341341191342EA13469A262
:10324F0034A2B134FFB33554B435AFC100003628C2
:10325F009001DD12812712268E30E00302341D0209
:10326F0034279001DD12812712268E30E00B128158
:10327F001C1281541236AB80031236809001DD127E
:10328F00812712814E30E0030234540234619001E1
:10329F00DD12812712268E30E00812811C1236298A
:1032AF00800312364B9001DD12812712814E30E0E0
:1032BF000302348F02349C9001DD12812712268E77
:1032CF0030E00B12811C1281541236AB8003123680
:1032DF00809001DD12812712814E30E00B12811C8C
:1032EF001281541236D580081281A57F171281C41E
:1032FF009001DD12812712816C30E0030233FF024F
:10330F00340A9001DD12812712268E30E0081281D7
:10331F001C123629800312364B9001DD12812712C1
:10332F00814E30E00B12811C1281541236968003AD
:10333F001236569001DD12812712816C30E00302A4
:10334F0033FF02340A9001DD12812712268E30E0FE
:10335F000812811C12363A80031236619001DD1279
:10336F00812712814E30E00B12811C1281541236CC
:10337F009680031236569001DD12812712816C3030
:10338F00E00B12811C1281547B0F02359F7B017D54
:10339F000F0235A89001DD12812712268E30E0082A
:1033AF0012811C12363A80031236619001DD1281B0
:1033BF002712814E30E00B12811C1281541236C03D
:1033CF00800312368B9001DD12812712816C30E061
:1033DF000B12811C1281541236D580081281A57FE1
:1033EF00171281C49001DD12812712819F30E00BEB
:1033FF0012811C1281547B0F0234977B017D0F02C7
:10340F0034F89001DD12812712268E30E00A1281E6
:10341F001C128154E4FB80357B01E4FDFC80369067
:10342F0001DD12812712268E30E00B12811C1281D2
:10343F00541236DF80031236B59001DD1281271248
:10344F00814E30E00D12811C1281547B0F7D2C02B6
:10345F00361B1281A57F2C0236259001DD128127A4
:10346F0012268E30E00B12811C12815412366C80A2
:10347F00031236A09001DD12812712814E30E00D2C
:10348F0012811C128154E4FB7D4102361B1281BC58
:10349F000236259001DD12812712268E30E00B12A5
:1034AF00811C1281541236DF80031236B59001DD74
:1034BF0012812712814E30E00B12811C128154129F
:1034CF0036E980081281867F171281C49001DD12C0
:1034DF00812712816C30E00D12811C1281547B12F6
:1034EF007D4102361B7B017D127C007F4102362518
:1034FF009001DD12812712268E30E00B12811C12F3
:10350F00815412366C80031236A09001DD12812790
:10351F0012814E30E00B12811C1281541236C08082
:10352F000312368B9001DD12812712816C30E00D72
:10353F0012811C1281547B127D4102361B1281862F
:10354F007F410236259001DD12812712268E30E051
:10355F000B12811C12815412367680031236CA90D8
:10356F0001DD12812712814E30E00B12811C128176
:10357F00541236F380061281BC1281C49001DD1201
:10358F00812712816C30E00D12811C1281547B1245
:10359F007D1702361B7B017D127C007F17023625BB
:1035AF009001DD12812712268E30E00B12811C1242
:1035BF00815412367680031236CA9001DD128127AC
:1035CF0012814E30E00B12811C1281541236F3809F
:1035DF00061281BC1281C49001DD12812712816C09
:1035EF0030E00B12811C1281541236E980081281CF
:1035FF00867F171281C49001DD12812712819F30BF
:10360F00E00F12811C1281547B127D417F010290C9
:10361F002B1281867F411281C42274A2F0A37411F0
:10362F00F0E4FB7D177F0112902B2274A2F0A3749C
:10363F0011F0E4FB7D177F0112902B227B01E4FD3B
:10364F00FC7F171281C4227B01E4FDFC7F411281B4
:10365F00C4227B01E4FDFC7F171281C422E4FB7DB1
:10366F00177F0112902B22E4FB7D177F0112902B05
:10367F00227B01E4FDFC7F2C1281C4227B01E4FD3F
:10368F00FC7F411281C422E4FB7D417F0112902B0C
:10369F00227B01E4FDFC7F171281C422E4FB7D2C09
:1036AF007F0112902B227B01E4FDFC7F2C1281C441
:1036BF0022E4FB7D417F0112902B227B01E4FDFC74
:1036CF007F171281C4227B0F7D177F0112902B224F
:1036DF00E4FB7D2C7F0112902B227B127D177F0143
:0E36EF0012902B22E4FB7D417F0112902B22D2
:1036FD009003F11281967F0212A604900381E012CD
:10370D0029DE373A11374C21377B2237A43137EF79
:10371D003338323438814138EF913912A2394FB1F3
:10372D0039B9B33A0EB43A66C100003ADC9003F1F0
:10373D0012812712268E30E4030238FB02390890DD
:10374D0003F112812712268E30E40B12811C128197
:10375D005C123B748003123B549003F112812712CB
:10376D00268E30E4030238FB1281A502390D900339
:10377D00F112812712268E30E40812811C123ADDD7
:10378D008003123AFF9003F112812712814E30E42B
:10379D00030239380239459003F112812712268E22
:1037AD0030E40B12811C12815C123B748003123BBE
:1037BD00549003F112812712814E30E40B12811CBB
:1037CD0012815C123B7E80081281A57F1F1281C47D
:1037DD009003F112812712816C30E4030238DD026F
:1037ED0038E89003F112812712268E30E4081281F9
:1037FD001C123ADD8003123AFF9003F11281271259
:10380D00814E30E40B12811C12815C123B4A800305
:10381D00123B0A9003F112812712816C30E40302EE
:10382D0038DD0238E89003F112812712268E30E43C
:10383D000812811C123AEE8003123B159003F1120F
:10384D00812712814E30E40B12811C12815C123BD8
:10385D004A8003123B0A9003F112812712816C30CA
:10386D00E40B12811C12815C7B0F023A567B017DA9
:10387D000F023A5F9003F112812712268E30E40871
:10388D0012811C123AEE8003123B159003F1128146
:10389D002712814E30E40B12811C12815C123B5FAA
:1038AD008003123B349003F112812712816C30E4B6
:1038BD000B12811C12815C123B7E80081281A57F48
:1038CD001F1281C49003F112812712819F30E40BE6
:1038DD0012811C12815C7B0F0239407B017D0F022E
:1038ED0039B29003F112812712268E30E40D128128
:1038FD001C12815CE4FB7D34023ACF7B01E4FDFCBC
:10390D007F34023AD99003F112812712268E30E4CA
:10391D000B12811C12815C123B208003123B3F90E5
:10392D0003F112812712814E30E40D12811C128198
:10393D005CE4FB7D49023ACF7B01E4FDFC7F49024B
:10394D003AD99003F112812712268E30E41112819B
:10395D001C12815CE4FB7D347F0112902B800A7B6D
:10396D0001E4FDFC7F341281C49003F11281271212
:10397D00814E30E40B12811C12815C123B9D80083C
:10398D001281867F1F1281C49003F112812712814B
:10399D006C30E40D12811C12815C7B127D49023A60
:1039AD00CF7B017D127C007F49023AD99003F11241
:1039BD00812712268E30E40B12811C12815C123B82
:1039CD00208003123B3F9003F112812712814E306C
:1039DD00E40B12811C12815C123B5F8003123B349D
:1039ED009003F112812712816C30E40D12811C12AB
:1039FD00815C7B127D49023ACF1281867F49023A62
:103A0D00D99003F112812712268E30E40B12811CFE
:103A1D0012815C123B2A8003123B699003F11281E3
:103A2D002712814E30E40B12811C12815C123B93E4
:103A3D008003123B889003F112812712816C30E4D0
:103A4D000D12811C12815C7B127D1F023ACF7B010E
:103A5D007D127C007F1F023AD99003F1128127124B
:103A6D00268E30E40B12811C12815C123B2A8003DE
:103A7D00123B699003F112812712814E30E40B1233
:103A8D00811C12815C123B938003123B889003F1E1
:103A9D0012812712816C30E40B12811C12815C1291
:103AAD003B9D80081281867F1F1281C49003F11205
:103ABD00812712819F30E40F12811C12815C7B12D1
:103ACD007D497F0102902B1281867F491281C4228C
:103ADD0074A2F0A37422F0E4FB7D1F7F0112902BE2
:103AED002274A2F0A37422F0E4FB7D1F7F011290DB
:103AFD002B227B01E4FDFC7F1F1281C4227B01E49C
:103B0D00FDFC7F491281C4227B01E4FDFC7F1F1265
:103B1D0081C422E4FB7D1F7F0112902B22E4FB7DEB
:103B2D001F7F0112902B227B01E4FDFC7F49128146
:103B3D00C4227B01E4FDFC7F1F1281C422E4FB7DC6
:103B4D00497F0112902B227B01E4FDFC7F34128111
:103B5D00C422E4FB7D497F0112902B227B01E4FD01
:103B6D00FC7F1F1281C422E4FB7D347F0112902B58
:103B7D00227B0F7D1F7F0112902B227B01E4FDFC28
:103B8D007F491281C422E4FB7D497F0112902B22D3
:0A3B9D007B127D1F7F0112902B2286
:102C9B0090038FE0FD900380E06DF565A3E01229B2
:102CAB00DE2CD4112CF7222D3C312DAD332E1434C8
:102CBB002E82412F11912F3AA22F87B12FF7B330CC
:102CCB0061B430DCC1000031681281308005C33340
:102CDB00CE33CED8F9FFEF5D600B12811C1281460B
:102CEB007B0D022F2A7B057D0D022F331281308045
:102CFB0005C333CE33CED8F912813D600B12811C44
:102D0B001281461231C580031231819003831281E7
:102D1B00338005C333CE33CED8F912813D600B120D
:102D2B00811C1281467B0D022F777B057D0D022FB7
:102D3B00801281308005C333CE33CED8F912813D5A
:102D4B00601112811C1281467B077D257F01129039
:102D5B002B80057D0712320B900383128133800584
:102D6B00C333CE33CED8F912813D600D12811C12C4
:102D7B0081467B151231E580031231CF900384120B
:102D8B0081338005C333CE33CED8F912813D600B2E
:102D9B0012811C1281467B15022F777B057D150254
:102DAB002F801281308005C333CE33CED8F91281F8
:102DBB003D600B12811C1281461231C5800312310A
:102DCB00819003831281338005C333CE33CED8F980
:102DDB0012813D600B12811C1281461231DB800384
:102DEB0012318D9003841281338005C333CE33CEE1
:102DFB00D8F912813D600B12811C1281467B1502A2
:102E0B002F777B057D15022F801281308005C33310
:102E1B00CE33CED8F912813D600B12811C12814644
:102E2B00123199800312316990038312813380052B
:102E3B00C333CE33CED8F912813D600D12811C12F3
:102E4B0081467D3A12320380087D0D12818F1281EB
:102E5B00C49003841281338005C333CE33CED8F9AB
:102E6B0012813D600B12811C1281467B150230CC06
:102E7B007B057D150230D51281308005C333CE33EF
:102E8B00CED8F912813D600B12811C128146123192
:102E9B009980031231699003831281338005C33308
:102EAB00CE33CED8F912813D600B12811C128146B4
:102EBB001231DB800312318D900384128133800534
:102ECB00C333CE33CED8F912813D601112811C125F
:102EDB0081467B157D107F0112902B80031231CF21
:102EEB009003851281338005C333CE33CED8F912CC
:102EFB00813D600B12811C1281467B15022F777B63
:102F0B00057D15022F801281308005C333CE33CE61
:102F1B00D8F912813D600D12811C1281467B107D08
:102F2B002502315D7B057D107C007F25023165120A
:102F3B0081308005C333CE33CED8F912813D600D7D
:102F4B0012811C1281467B101231E580031231A3D2
:102F5B009003831281338005C333CE33CED8F9125D
:102F6B00813D600D12811C1281467B107D3A02312E
:102F7B005D7B057D107C007F3A02316512813080CC
:102F8B0005C333CE33CED8F912813D601112811CAB
:102F9B001281467B087D257F0112902B80057D08D1
:102FAB0012320B9003831281338005C333CE33CEA1
:102FBB00D8F912813D600B12811C12814612321519
:102FCB0080031231ED9003841281338005C333CE1D
:102FDB0033CED8F912813D600D12811C1281467BD4
:102FEB00197D3A02315D12818D023165128130807B
:102FFB0005C333CE33CED8F912813D600D12811C3F
:10300B001281467D1012320380031231A390038389
:10301B001281338005C333CE33CED8F912813D6094
:10302B000B12811C1281461231F980031231B990B7
:10303B0003841281338005C333CE33CED8F912818A
:10304B003D600D12811C1281467B197D3A02315D68
:10305B0012818D0231651281308005C333CE33CEA0
:10306B00D8F912813D600B12811C1281461231AFCF
:10307B0080031231759003831281338005C333CEE5
:10308B0033CED8F912813D601112811C1281467B1F
:10309B00107D3A7F0112902B800B7B057D107C00FD
:1030AB007F3A1281C49003841281338005C333CEDF
:1030BB0033CED8F912813D600D12811C1281467BF3
:1030CB00197D1002315D7B057D197C007F1002316B
:1030DB00651281308005C333CE33CED8F912813DD2
:1030EB00600B12811C1281461231AF8003123175B5
:1030FB009003831281338005C333CE33CED8F912BC
:10310B00813D600B12811C1281461231F980031232
:10311B0031B99003841281338005C333CE33CED8BB
:10312B00F912813D600B12811C12814612321580FF
:10313B00031231ED9003851281338005C333CE33F7
:10314B00CED8F912813D600F12811C1281467B197A
:0D315B007D3A7F0102902B12818D1281C4FC
:10316800227B057D077C007F101281C4227B057DB0
:10317800087C007F101281C4227B057D0D7C007FB6
:10318800101281C4227B057D077C007F3A1281C41E
:10319800227B077D107F0112902B227B057D107CFE
:1031A800007F101281C4227B087D107F0112902BB2
:1031B800227B057D087C007F3A1281C4227B0D7D2D
:1031C800107F0112902B227B057D157C007F101249
:1031D80081C4227B077D3A7F0112902B227D107FCC
:1031E8000112902B227B057D197C007F101281C46F
:1031F800227B087D3A7F0112902B227B0D7F0112E2
:10320800902B227B057C007F251281C4227B197DAF
:07321800107F0112902B2230
:1097FB00E4FF12A24590037FE024FE601104702960
:10980B0012983512811C74A2F0A37414800C129858
:10981B003512811C74A2F0A37417F0E4FB7D017F59
:10982B000112902B7FFF12A607227F0312A6077F40
:05983B000412A6042246
:10A17300E4FF12A245900387E030E1127B017A03EA
:10A18300798712321F7B017A037987126B7012A5CC
:06A19300D0E4FF029C0C69
:1016F80000000000000000000000000000000000E2
:1017080000000000000000000000000000000000D1
:10171800003E007E00FE01CE038E7F8E7F8E738E8C
:10172800738E738E7F8E7F8E01CE00FE007E003E0C
:1017380000000000020006000E001E003FFE7FFEB3
:101748007FFE3FFE1E000E000600020000000000A3
:101758000000000000400060007000787FFC7FFE01
:101768007FFE7FFC007800700060004000000000F1
:10177800000003C003C003C003C003C003C003C00C
:1017880003C03FFC1FF80FF007E003C00180000012
:1017980003C003C007E007E00E700E701C381C3849
:1017A800381C381C7FFE7FFE700E700E700E700E97
:1017B8007FF87FFC383E381E381E381E383C3FF80C
:1017C8003FF8383C381E381E381E383E7FFC7FF8FC
:1017D8000FF81FFC3C1C380E780E700E700070005D
:1017E80070007000700E700E380E3C1C1FFC0FF855
:1017F8007FF07FF07078703C703C703C70787FF0C0
:101808007FE0778073C071E070F07078703C701E74
:1018180000006006700E781E7C3E7FFE77EE73CE69
:10182800718E700E700E700E700E700E700E700E3F
:1018380000001FF81FF800E000E000E000E000E012
:1018480000E000E000E070E079E03FC01F800F009A
:1018580000000000000003C007800F001E003FFCCE
:101868003FFC1E000F00078003C0000000000000BE
:1018780000000000000003C001E000F000783FFC19
:101888003FFC007800F001E003C000000000000009
:1018980000000000018001800180018011881998F2
:1018A8001DB81FF80FF007E003C00180000000001A
:1018B800003E007E00FE01CE038E7F8E7F8E738EEB
:1018C800738E738E7F8E7F8E01CE00FE007E003E6B
:1018D800700E700E700E700E700E700E781E381C22
:1018E800381C1C381C380E700FF007E003C001804C
:1018F8000000380038003800380038003800380058
:1019080038003800380038063806380E3FFE3FFEEB
:101918000000000000000000000003800FE01C70C1
:10192800183038383838383818301C700FE00380D1
:101938000000000000000000000003C00FF01C3889
:101948001C000F0007E000F000381C380FF003C03F
:10195800000000000000000000000000000000007F
:10196800000000000000000000000000000000006F
:10197800000000000000000000000000000000005F
:10198800000000000000000000000000000000004F
:10199800000000000000000000000000000000003F
:1019A800000000000000000000000000000000002F
:1019B800000000000000000000000000000000001F
:1019C800000000000000000000000000000000000F
:1019D80000000000000000000000000000000000FF
:1019E80000000000000000000000000000000000EF
:1019F80000000000000000000000000000000000DF
:101A080000000000000000000000000000000000CE
:101A180000000000000000000000000000000000BE
:101A280000000000000000000000000000000000AE
:101A3800000000000000000000000000000000009E
:101A4800000000000000000000000000000000008E
:101A5800000000000000000000000000000000007E
:101A6800000000000000000000000000000000006E
:101A7800000000000000000000000000000000005E
:101A8800000000000000000000000000000000004E
:101A9800000000000000000000000000000000003E
:101AA800000000000000000000000000000000002E
:101AB800000000000000000000000000000000001E
:101AC800000000000000000000000000000000000E
:101AD80000000000000000000000000000000000FE
:101AE80000000000000000000000000000000000EE
:101AF80000000000000000000000000000000000DE
:101B080000000000000000000000000000000000CD
:101B1800000007000F800F800F800F80070007006C
:101B28000700020002000000020007000700020090
:101B38000000EE006600440088000000000000007D
:101B4800000000000000000000000000000000008D
:101B5800000008200820082008203FF80820082056
:101B68000820082008203FF808200820082008201E
:101B780000000FC01B603330333033001B000F00F0
:101B880003C0036013303B3033301B600FC00300C9
:101B980000003808441084200440048009001270B2
:101BA800E4880908120822084210822001C00000B7
:101BB80000000E001B00318031801B000E001C004D
:101BC8003678632061A060E0606030F01F9C000000
:101BD80000000000000000000000000000000000FD
:101BE800000000000000800060007000380018004D
:101BF8000000000400080018001000300030003019
:101C08000030003000300010001800080004000206
:101C180000008000400060002000300030003000EC
:101C280030003000300020006000400080000000DC
:101C3800000002004210222012400A800700FFFC28
:101C480007000A8012402220421002000200000011
:101C580000000000030003000300030003007FF8F6
:101C68007FF80300030003000300030000000000E6
:101C7800000000000000000000000000000000005C
:101C8800000018003C003C00180010002000400034
:101C980000000000000000000000000000007FF8C5
:101CA8007FF80000000000000000000000000000B5
:101CB800000000000000000000000000000000001C
:101CC8000000000000007800840084008400780090
:101CD800000000180030006000C00180030006000A
:101CE8000C00180030006000C000800000000000F8
:101CF80000000FE0183030183038307830D831987C
:101D0800331836183C183818301818300FE000000F
:101D18000000030007000F00030003000300030096
:101D28000300030003000300030003001FE000009A
:101D380000000FE01830301830183038007001C03B
:101D480003000E001800300830083FF83FF8000084
:101D5800000007C0183030183018003000E003C009
:101D680000E00030001830183018183007C00000A4
:101D7800000000C001C003C006C00CC018C030C0BD
:101D880060C0C0C0C0C0FFF800C000C003F00000C1
:101D980000003FF03FF030003000300037C03830EE
:101DA80030180018001830183018183007C0000014
:101DB800000007E01830303030003000300037E0E5
:101DC8003830301830183018301818300FC000006C
:101DD80000003FF83FF8201820180030006000C0CD
:101DE8000180030003000300030003000300000058
:101DF80000000780186030303030303018600FC075
:101E08001860303060186018601830300FC000005B
:101E1800000007801860303030183018301830381B
:101E2800187807980018303038301860078000009C
:101E3800000000000000000003000780030000000D
:101E480000000300078003000000000000000000FD
:101E580000000000000000000300078003000000ED
:101E680000000300078003800180070000000000D5
:101E780000000000001800600180060018006000E3
:101E88008000600018000600018000600018000053
:101E9800000000000000000000007FF87FF800004C
:101EA80000007FF87FF8000000000000000000003C
:101EB8000000800060001800060001800060001823
:101EC800000400180060018006001800600080000F
:101ED800000007800FC01CE038E038E011C0018026
:101EE80003000300020002000000020007000700D0
:101EF80000000FC030604010478888C890C890C85C
:101F080090C890C888D84770400830700FC000004B
:101F1800000003000300078007800CC00CC0186095
:101F280018601FE03030303060186018F03C000056
:101F380000003F80186018301830183018601FC033
:101F48001860183018181818181818303FC00000F2
:101F58000000078818683038601860086000600062
:101F6800600060006008601830301860078000006A
:101F780000007F8030E030383018301830183018C2
:101F88003018301830183018303030E07F800000BA
:101F980000003FF0183018101800188018801F80B3
:101FA8001880188018001800181018303FF000002A
:101FB80000003FF0183018101800188018801F8093
:101FC8001880188018001800180018003C0000003D
:101FD80000000F90187030306010601060006000D2
:101FE8006078603060306030307018F00FB00000FA
:101FF80000007878303030303030303030303FF0DA
:102008003030303030303030303030307878000098
:1020180000000FC0030003000300030003000300D7
:102028000300030003000300030003000FC00000C7
:10203800000001F000600060006000600060006067
:10204800006000603060306030E019C00F000000B0
:10205800000078F8306030C03180330036003C0032
:102068003E003300318030C030603030787C000072
:1020780000003C001800180018001800180018008C
:102088001800180018001808181818383FF8000029
:102098000000E03CE038F078F078D8D8D8D8C89874
:1020A800CD98CD98C518C718C218C018E07C000094
:1020B8000000C078E030F030F830DC30CE30C73087
:1020C800C3B0C1F0C0F0C070C030C030E0780000CC
:1020D80000000FC0387070386018601860186018F9
