:030000000288F67D
:0C88F600787FE4F6D8FD75816702893DAB
:0BA68500E0248CF582E43402F583220F
:10A4A500C2BCD2AC759852758DFAE4F58BD28E90FC
:06A4B50002DCF0A3F0221E
:10A5BC009002DCE0FFA3E0B507037F00227F0122BD
:10A443009002DC12A685E0FF9002DCE004F0E0C39A
:08A4530094504002E4F0D2AC89
:01A45B0022DE
:080003003099FD8F99C299228A
:03002300029FA297
:109FA200C0E0C083C082C0D0309819C2989002DD50
:109FB20012A685E599F09002DDE004F0E0C394502A
:0D9FC2004002E4F0D0D0D082D083D0E03255
:109B0000E0F580D2A3E4900320F0A3F022C39003F9
:109B100020E0940022900320E004F0229001E4E091
:109B2000FBA3E0FAA3E0F922EDF0A3EBF0E4FFC21F
:0C9B3000AF22D2B6D2B77580FFD2AF22B0
:108FCA009001F3129B2812A6F99001F3E0FF7006B4
:108FDA00C2B7C2B68012EFB40106C2B7D2B68008D1
:108FEA00EFB40204D2B7C2B69001F4129B00129BEE
:108FFA000D500BA3E004F070F5129B1580F0C2A38C
:10900A009001F5E0F580C2A1129B05129B0D500B51
:10901A00A3E004F070F5129B1580F0D2A112A6F914
:04902A00129B322241
:108A0E009001D8129B2812A6F99001D8E0FF7006AB
:108A1E00C2B7C2B68012EFB40106C2B7D2B6800892
:108A2E00EFB40204D2B7C2B69001D9E0FF04F08FC2
:108A3E0080129B03129B0D500BA3E004F070F512F5
:108A4E009B1580F0C2A39001DAE0FBA3E475F00160
:108A5E00122763A9F0FA12268EF580C2A1129B0589
:108A6E00129B0D500BA3E004F070F5129B1580F0D5
:108A7E00D2A19001DDE014F070AE12A6F9129B3275
:018A8E0022C5
:0B8982009001F2EFF0A3EDF0A3EBF08A
:10898D00C2AF12A6F9E49001F2F0A3E0FF7006C2A7
:10899D00B7C2B68012EFB40106C2B7D2B68008EFE7
:1089AD00B40204D2B7C2B69001F4129B00129B0D13
:1089BD00500BA3E004F070F5129B1580F0C2A37567
:1089CD0080FF129B05129B0D500BA3E004F070F578
:1089DD00129B1580F0C2A29001F5E580F0129B0567
:1089ED00129B0D500BA3E004F070F5129B1580F057
:1089FD00D2A212A6F9D2B6D2B7D2AF9001F5E0FF4E
:018A0D002246
:109325009001E4EBF0A3EAF0A3E9F0129B1C1227ED
:1093350079F47003E5F0F46038122779FBAAF0EAB6
:10934500FDE4FF128982129B1C9000021226A7FCE5
:109355006F6012122779FBAAF0EAFD9001F5ECF097
:10936500E4FF128FCA9001E5E475F00312274D80E2
:02937500BA221A
:01A73C0022FA
:10544D002562782025627820256278000A3C523E3C
:10545D0025303262785B25303262785D3D25303201
:10546D0062780025627820256278002562782025F3
:10547D0062782025627820256278200025316278B7
:10548D0020253162782025316278200052656164D3
:10549D004173696342797465203D3D202562782012
:1054AD000A0063682562643A2562642000636825FA
:1054BD0062643A2562642063682562643A256264F9
:1054CD00200063682562643A256264206368256262
:1054DD00643A2562642063682562643A256264201B
:1054ED000063682562643A256264206368256264FE
:1054FD003A2562642063682562643A2562642063FC
:10550D00682562643A256264200063682562643A06
:10551D002562642063682562643A256264206368AD
:10552D002562643A2562642063682562643A2562C7
:10553D00642063682562643A2562642000256264F4
:10554D0020000A203D3D3D3D3D3D3D3D2050414724
:10555D00452025623278203D3D3D3D3D3D3D3D3D63
:10556D003D3D3D3D0A002562327809000A00253196
:10557D006278202531627820636825316278206356
:10558D00682531627820636825316278206368254B
:10559D003162782000656E726563616C6C00656EBA
:1055AD00667265657A6500656E686D6972726F7297
:1055BD0000656E766D6972726F7200656E656E68EC
:1055CD00616E636500656E626C616E6B00656E6227
:1055DD006F756E6400656E626C696E6B00646973E5
:1055ED00726563616C6C00646973667265657A657A
:1055FD0000646973686D6972726F720064697376A5
:10560D006D6972726F7200646973656E68616E6345
:10561D006500646973626C616E6B00646973626FBF
:10562D00756E6400646973626C696E6B003D3D3D1F
:10563D003D3D20466F726D6174203A206368303DA8
:10564D005B2562785D206368313D5B2562785D2066
:10565D006368323D5B2562785D206368333D5B2571
:10566D0062785D203D3D3D3D3D0A00256278202557
:10567D0062782063682562783A2562782063682510
:10568D0062783A2562782063682562783A256278D7
:10569D002063682562783A256278200033340062F1
:1056AD007573770079766D6978006873636F6D0037
:0E56BD006D6F646500370038000102040810AC
:046F4900410383007D
:10592E00A3F0A3E4F0A37400F0A37408F0A3E4F0D2
:10593E00A37400F0A3740DF0A3E4F0A37400F0A31D
:10594E007409F0A3E4F0A37400F0A3740EF0A3E4C2
:10595E00F0A37400F0740AA3F0A3E4F0A322A3F062
:10596E00A3E4F0A37400F0A37412F0A3E4F0A37404
:10597E0000F0A37417F0A3E4F0A37400F0A3741363
:10598E00F0A3E4F0A37400F0A37418F0A3E4F0A362
:10599E007400F07414A3F0A3E4F0A322A3F0A3E424
:1059AE00F0A37400F0A37439F0A3E4F0A37400F034
:1059BE00A3743DF0A3E4F0A37400F0743AA3F0A333
:1059CE00E4F0A322A3F090039EE0FBA3E0FAA3E091
:1059DE00F9229001E074FFF0A37454F074AFA3F0B9
:1059EE00A3E4F0A3227400F0A3740FF0A3E4F0A3D9
:1059FE007400F0740BA3F0A3E4F0A3227400F0A3E0
:105A0E007419F0A3E4F0A37400F07415A3F0A3E4EA
:105A1E00F0A3227400F0A3743EF0A3E4F0A374008C
:105A2E00F0743BA3F0A3E4F0A3229001E074FFF026
:105A3E00A37454F074BAA3F0A3E4F0A3229001E08F
:105A4E0074FFF0A37455F0744AA3F0A3E4F0A322FC
:105A5E007400F07408A3F0A3E4F0A3227400F074B1
:105A6E0012A3F0A3E4F0A3229001E074FFF0A322AE
:105A7E00EBF0A3EAF0A3E9F09001E07401F0A322A9
:105A8E00A3F0A37401F0A37403F0746EA3F0A374D7
:105A9E0001F0A322A3F0A3E4F0A322A3F0A3E4F069
:105AAE00A322A3F0A3E4F0A322A3F0A3E4F0A32285
:105ABE00A3F0A3E4F0A322FFE02477F582E43403FD
:105ACE00F583EFF022E0FF9001E17401F0A374037F
:105ADE00F0A37473F07B017A03796E22A3F0A3E432
:105AEE00F0A322A3F0A3E4F0A322EBF0A3EAF0A329
:105AFE00E9F022900001E475F0010227A47BFF7A01
:105B0E00547959900326F022A3F0A3E4F0A322E0E7
:105B1E005401FB7D20222533F533A3E0540322E507
:105B2E00099056C693FFE508932F2212296F02267D
:0F5B3E008EA3F0A3E4F0A32212A73D9001D5227D
:108CE7009001DD125AF8A31259D7125B397002FFAF
:108CF700229001E01259D7125B39B4200B9001E0A2
:108D07001259D7125B0180E99001E01259D7122955
:108D17006FC003C002C0019001DD1259D712298F1D
:108D270080239001E01259D7125B39FEB42010E47A
:108D37001226D49001E01259D7125B017F0122EE6F
:108D470070037F01229001E01259D7125B0180D294
:069AC3009001DD125AF8CB
:109AC900E4F530F5319001DD1259D712268E602266
:109AD9009001DDA3E475F001122763A9F0FA1226BB
:109AE9008EFF3395E0FEEF2531F531EE3530F53057
:069AF90080D3AE30AF3156
:019AFF002244
:01A73D0022F9
:10962500E4F53390036EE05403125B2425E025E056
:10963500125B24C454F0125B24C4333354C0253365
:10964500F53390036DE0B5070D900372E0B5330671
:10965500E490037DF02290037D7401F0900372E5A0
:0796650033F090036DEFF0FC
:01966C0022DB
:1096B500125A767454F0744D1259657400F0744C56
:1096C5001259A37400F0744D1259CB7400F0A374B1
:1096D5004EF0124B9CAB4DAD4CE4FF1289829003CA
:1096E50028EFF0E54C125B0BA3E54DF01248190588
:0696F5004DE54DB54EDF0E
:0196FB00224C
:109C9700125A767454F074701259EC7400F07455BB
:109CA700125A037400F0A37456F0124B9CAB56ADD6
:109CB70055E4FF128982900328EFF0E555125B0BFC
:079CC700A3E556F002481965
:109E4800125A767454F0744D125A1A7400F0744F02
:109E5800125A317400F07450125A447400F0A3740A
:109E680051F0124B9C9001F5E551F0AB50AD4FE429
:049E7800FF028FCA8C
:10941800E4F530F531F532F533C003C002125A765F
:109428007454F07478125A577400F07430125A63F6
:109438007400F07431125A6F7400F07432125AA228
:109448007400F0A37433F0D002D003124B9C900147
:0D945800F5E533F0AB32AD31E4FF028FCA11
:10966D00E4F51CF51DF51EF51F125A767454F074B1
:10967D0089125AA27400F0741C125AA97400F07465
:10968D001D125AA97400F0A3741EF0124B9CAB1E50
:10969D00AD1DE4FF1289828F1F7BFF7A547999905B
:0896AD000326E51FF002481935
:036B010090039E60
:106B0400125A7E7403F0A3749EF07B017A0379A178
:106B1400128CE7E4FB7D1FFF129D729003A11259B2
:106B2400D7127F5AEE6003026C29EF24FE603614FC
:106B3400605A146078147003026BD6240460030254
:106B44006C291259E0125A5E7400F0740D1259D275
:106B5400124B9CAB0DAD08E4FF128C76E508905601
:106B6400C693026C21125A38125A5E7400F0740DE6
:106B7400125AB07400F07409125AB07400F0740E12
:106B84001259D2126C2A125B2D026C21125A76749D
:106B940054F074CF12592E7400F0A3740F1259D309
:106BA400126C2AAB0FAD0A126C40026C21125A7699
:106BB4007454F074EE12592E1259F37400F0A37445
:106BC400101259D3126C56126C40FFE50B932F022E
:106BD4006C21125A767455F0A3741712592F125956
:106BE400F37400F07410125AB77400F0740C125A53
:106BF400B77400F0A374111259D3126C56E4FF1247
:106C04008C76AB11AD0CE4FF128C76125B2DFFE594
:106C14000A932FFFE50B932FFFE50C932FFD7B01C8
:056C2400E4FF129D7267
:106C290022124B9CAB0DAD08E4FF128C76AB0EAD76
:106C390009E4FF128C7622E4FF128C76E50990565E
:106C4900C693FFE508932FFFE50A932F22124B9C69
:106C5900AB0DAD08E4FF128C76AB0EAD09E4FF1263
:106C69008C76AB0FAD0AE4FF128C76AB10AD0B221C
:0FA5DC00E4FB7D1FFF129D727DFFE4FF029F16BF
:0371F6009003A45F
:1071F900125A7E7403F0A374A4F07B017A0379A771
:10720900128CE79003A71259D7127F5AEE60030236
:107219007304EF24FE603014605614607114700317
:107229000272BB240460030273041259E0125A6A01
:107239007400F0A37417F09003A41259D7124B9C51
:10724900AB17AD120272FF125A38125A6A7400F063
:107259007417125ABE7400F07413125ABE7400F0F7
:10726900A37418F09003A41259D712731F0272FF66
:10727900125A767454F074CF12596C7400F0A374D6
:1072890019F09003A41259D71273050272FF125A0A
:10729900767454F074EE12596C125A0A7400F0A301
:1072A900741AF09003A41259D7127305127330029D
:1072B90072FF125A767455F0A3741712596D125A47
:1072C9000A7400F0741A125AEA7400F07416125A09
:1072D900EA7400F0A3741BF09003A41259D7127337
:1072E9001FE4FF128D57AB19AD14127330E4FF126E
:0B72F9008D57AB1BAD16E4FF128D5744
:1073040022124B9CAB17AD12E4FF128D57AB18AD94
:1073140013E4FF128D57AB19AD1422124B9CAB171B
:10732400AD12E4FF128D57AB18AD1322E4FF128D9A
:0673340057AB1AAD152253
:10A4FC00125A4B7400F0A37463F0124B9CAD63E4DE
:04A50C00FF029F1695
:1094B100E4F5587BFF7A55794F900326E558F01271
:1094C1004819E4F557AB57AD58E4FF128982900370
:1094D10026EFF07BFF7A5579731248190557E55746
:1094E100540F70097BFF7A557979124819E5577045
:0A94F100D40558E558C3940340B9B0
:0194FB00224E
:1092CF00C003C002C001125A767455F0747B125A53
:1092DF00F17400F07459125AF17400F0745A125A62
:1092EF008E7403F0746F125A9A7403F0A374701291
:1092FF005A9B7403F0A37471F0D001D002D0031203
:10930F004B9CE559C454F0FFE55A540F2FF55912F1
:06931F005AE3FF0262FEAA
:065B4D009003AA125AF8B1
:105B5300E4F52E7B019001E004F0A37403F0A37439
:105B6300AAF07A0379AD128CE79003AD1259D712DC
:105B73007F5A8F2F125A86125D459003AD1259D763
:105B8300129AC38E268F277A5579A2125D22B527E2
:105B93000AEEB52606752880025C227A5579AB1287
:105BA3005D22B5270AEEB52606752840025C227AE7
:105BB3005579B4125D29B52709EEB5260575282058
:105BC300805D7A5579BE125D29B52709EEB52605A4
:105BD300752810804A7A5579C8125D30B52709EEC9
:105BE300B5260575280880377A5579D2125D30B508
:105BF3002709EEB5260575280480247A5579DA122B
:105C03005D37B52709EEB5260575280280117A554B
:105C130079E2125D37B5270DEEB5260975280175B2
:105C23002901025CCC7A5579EA125D3EB5270AEE6A
:105C3300B52606752880025CAF7A5579F4125D3E6D
:105C4300B52709EEB5260575284080607A5579FE9B
:105C5300125D56B52709EEB52605752820804D7AC5
:105C6300567909125D56B52709EEB5260575281034
:105C7300803A7A567914125D5DB52709EEB526058B
:105C830075280880277A56791F125D5DB52709EEBE
:105C9300B5260575280480147BFF7A567928129A55
:105CA300C3EFB5270CEEB52608752802E4F5298065
:105CB300187BFF7A567931129AC3EF65277003EE8A
:105CC3006526705A752801F529125A86125D45EF2B
:105CD30060339003AD1259D712268EB477EB900040
:105CE300011226A7B469E29000021226A7B46ED966
:105CF300E92403F9E43AFA127F5A742A252EF8A606
:105D030007052E80C4E52E60152429F8E6FFC39508
:0E5D13002F5007AB29AD28129E13152E80E7E6
:105D2100227BFF129AC3EF227BFF129AC3EF227BE1
:105D3100FF129AC3EF227BFF129AC3EF227BFF125D
:105D41009AC3EF227403F0A374AAF07B017A03795A
:105D5100AD128CE7227BFF129AC3EF227BFF129ACE
:035D6100C3EF226B
:10A58600125A4B7400F0A37430F0124B9CAF300299
:02A59600A5100E
:109B7800E4FF1294FCC0077F011294FCC0077F0227
:109B88001294FCC0077F031294FC900329EFF09015
:109B98000328D0E0F0900327D0E0F0900326D0E02F
:0A9BA800F07BFF7A56793A02481963
:03791B009003B026
:10791E00125A7E7403F0A374B0F07B017A0379B32C
:10792E00128CE79003B31259D7127F5AEE600302FE
:10793E007A0DEF24FE602B146053146079240360DB
:10794E0003027A0D1259E07400F07439125B16744A
:10795E0000F0A3743DF09003B01259D7127A2C02A6
:10796E007A08125A767454F074BA1259AA7400F046
:10797E00A3743EF09003B01259D7127A2CE4FF1282
:10798E009F46E53EC454F0FBAD3A027A08125A7691
:10799E007454F074CF1259AA125A217400F0A374C1
:1079AE003FF09003B01259D7127A0EE53FC454F04F
:1079BE00FBAD3B027A08125A767454F0A374EE12A1
:1079CE0059AB125A217400F0743F125B167400F01A
:1079DE00743C125B3F7400F0A37440F09003B0123D
:1079EE0059D7127A0EE53FC454F0FBAD3BE4FF12BB
:0F79FE009F46E540C454F0FBAD3CE4FF129F46AA
:107A0D0022124B9CE53DC454F0FBAD39E4FF129FAF
:107A1D0046E53EC454F0FBAD3AE4FF129F462212F8
:0B7A2D004B9CE53DC454F0FBAD39223A
:0390F5009003B62F
:1090F800125A7E1291421259D7127F5A8F5B125A16
:10910800861291421259D7127F5A8F5C7F0412A798
:10911800367F0312A7397F0512A3779003B6E0F9CB
:10912800A3E0FAA3E090039AC9125AF9AB5CAD5BCD
:0A9138007F011292187F05029D3C92
:109142007403F0A374B6F07B017A0379B9128CE749
:049152009003B922AB
:1096FC00755E01E4F55D7473255DF582E43403F564
:10970C0083E030E415746E255DF582E43403F58353
:10971C00E0FDE4FF129F16E4F55E055DE55DC39484
:10972C000440D3E55E600FE4FB7D1FFF129D727D4C
:06973C00FFE4FF129F167E
:019742002204
:1070A800C003C002C001125A767456F07478125B9D
:1070B8003F7400F0A37431F0A3E4F0A37400F074FB
:1070C80032125A8E7403F0A37473125A9B7403F02D
:1070D800A3746F125A9B7403F0A37474125A9B74AE
:1070E80003F0A37470125A9B7403F0A37475125AB8
:1070F8009B7403F0A37471125A9B7403F0A3747603
:10710800F0D001D002D003124B9CE531C454F0FFFB
:1071180090036AE0FEC433333354802FFFE53254C2
:107128000F2F90037CF0900373E090036E125AC502
:10713800900374E090036F125AC5900375E0FF90B6
:107148000370125AC6900376E0FF900371125AC674
:10715800900377125B1DE4FF129B3C900378125B4F
:107168001D7F01129B3C900379125B1D7F02129BCD
:107178003C90037A125B1D7F03129B3C7B017A03D0
:10718800797712733A90037C125AD31251559003AF
:107198007CE0FF125AE31262FEE4F5307473253086
:1071A800F582E43403F583125B1DAF30129E13059C
:1071B80030E530C3940440E4E4F541F542F5437505
:1071C80044057F0112A6C390037CE0FF1296257F39
:1071D80008129E7CE4FF12A4291299327B017A03DB
:0D71E800797312440090037CE0900383F063
:0171F5002277
:108E2C00E4FF1294FCEFB40202C32290036AE0B593
:108E3C000702D32290036AEFF0E0C433333354803B
:108E4C00FF90036DE0547F4FF07F01129D3C900327
:108E5C006AE0FF12902E7B017A03797712733A90B5
:108E6C00036D125AD312515590036DE0FF125AE361
:108E7C001262FEE4FF12A4291299327B017A037963
:088E8C007312440012A2A5D3E9
:018E940022BB
:10A4BB00125A767455F0A3744A125A9B7403F0A384
:06A4CB00746BF0024B9CD3
:050026007F01029D3C7A
:10A560009056A9E493FF1200039056A9A3E493FF29
:03A57000020003E3
:037E6B009001D5AE
:107E6E00125A7E7401F0A374D5F07B017A0179DA8F
:107E7E00128CE79001DA1259D7129AC39001D8EEFC
:107E8E00F0A3EFF07A5679AC127F3EB50611A3E05F
:107E9E00B5070C9001D51259D7129418027F3B7A70
:107EAE005679B1127F3EB50611A3E0B5070C125BF1
:107EBE00461259D712A586027F3B7A5679B7127FA2
:107ECE0048E0B50618A3E0B50713125B461259D762
:107EDE001270A812A2A5E4FF12A6C380507A56799A
:107EEE00BD127F48E0B50610A3E0B5070B125B4646
:107EFE001259D712A4BB80357A5679C2127F51E03F
:107F0E00B5060FA3E0B5070A900275E090028AF05D
:107F1E00801B7A5679C4127F51E0B50610A3E0B5E6
:0F7F2E00070B129EE4900275E0FF129FCF7F01B8
:107F3D00227BFF129AC39001D8E0227BFF129AC3D5
:0D7F4D009001D8227BFF129AC39001D82228
:105F4B000D0A0050435400FFC8966432006275730B
:105F5B007720302031204131203131627573772029
:105F6B0030203120413220443779766D69782034E6
:105F7B00206D6F64652030206873636F6D20312056
:105F8B0031206368303A3130206368313A30302049
:105F9B006368323A3030206368333A3030206873AC
:105FAB00636F6D20312031206368323A31302063CA
:105FBB0068313A3030206368303A303020636833D0
:105FCB003A3030206873636F6D2031203120636865
:105FDB00313A3130206368303A3030206368323ADE
:105FEB003030206368333A3030206873636F6D2034
:105FFB00322032206368323A3130206368303A31D4
:10600B0030206368313A3030206368333A303020C7
:10601B006873636F6D20322032206368303A313001
:10602B00206368323A3130206368313A3030206374
:10603B0068333A3030206873636F6D203220322022
:10604B006368313A3130206368303A31302063680D
:10605B00323A3030206368333A3030206873636FE4
:10606B006D20322032206368303A31302063683142
:10607B003A3130206368323A3030206368333A303B
:10608B0030206873636F6D20322032206368313AA1
:10609B003130206368323A3130206368303A303027
:1060AB00206368333A3030206873636F6D20322081
:1060BB0032206368323A3130206368313A31302014
:1060CB006368323A3030206368333A30302068737B
:1060DB00636F6D20332033206368303A3130206397
:1060EB0068313A3130206368323A3130206368339B
:1060FB003A3030206873636F6D2031203120636834
:10610B00333A3030206368313A3030206368323AAA
:0A611B003030206368303A30302045
:106F4D00C1284403190000000041031D0041031E28
:106F5D0000410318014103170241031501410316B6
:106F6D000041030C0042030D000042030F000042DC
:106F7D000311000042031300004102E0014102DF52
:096F8D000041031F004102DE0077
:1081D3007D017BFF7E007F2602266874DF2FF582F8
:1081E300E43401F583E022900006E0FAA3E0FB7C8F
:1081F30000FFAE020226F878E17C027D017B0122BA
:10820300900273E0240BF582E43402F583E530F049
:10821300227D017BFF7E000226687C00AF03AE0255
:108223001226F8900006ECF0A3EDF022E4F0A3F0A0
:10823300A3F0A322E4FDFC900009E0F8A3E0F9A376
:10824300E0FAA3E0FBC302290E7D017BFF7E007FE2
:108253000E022668E4FCFD900009022932740B2FFC
:10826300F582E43402F583E0FF22900243E09003B9
:10827300182234FFFE7C007D060226F8900273E08C
:0A82830004F0227B017A0279E12267
:1080350012A5BCEF640160030280FD43E11012A4A8
:10804500438F30E530B40218900241E0701290027F
:108055007304F090020BE530F09002417401F022B8
:10806500E5306403702D90020CE0FF64526004EF6C
:10807500B453209002DEE0701A900273E0FFD394AF
:108085000350109002DE7401F0740B2F1282091256
:10809500827F22E530B40318900245E07012128207
:1080A5000312827F9002457401F0E49002DEF02213
:1080B500900245E0640170311282037B017A0279F6
:1080C5000B7D04125D64EF602C90030B7401F0903E
:1080D500020CE09002E1F0E4A3F090020DE09002C2
:1080E50075F090030A7402F02212820312827FE077
:0F80F500D39408400A02A27FE4900313F0A3F093
:018104002258
:09A6BA007BFF7A5F794B02A1DD00
:0B9DDE009003D7EBF0A3EAF0A3E9F03C
:109DE9009003D7E0FBA3E0FAA3E0F912268E6019ED
:109DF9009003D7A3E475F001122763A9F0FA12269C
:099E09008EF564FF12000380D7FE
:019E1200222D
:10A27F00E4900241F0900245F0900273F090020BCF
:10A28F00128230128230F0A3F0A3F090030AF0A3F1
:06A29F00F09002E1F02244
:09A6C300EF6003C20122D2012262
:0CA67900C200C201C227E49003F0F022EE
:109FFC009003DAEBF0A3EAF0A3E9F020001D900344
:10A00C00DAE0FBA3E0FAA3E0F8AC02AD037BFF7A45
:0CA01C005F794E122BAFEF7002D20022D1
:0893C8009001D5EEF0A3EFF0D7
:1093D0009001D5E07002A3E0603DE49001D7F0A3D6
:1093E000F09001D7E0FEA3E0FFE4FCFD7B1BFAF95F
:1093F000F8D312290E40109001D8E004F070E290EA
:1094000001D7E004F080DA9001D6E024FFF090016B
:07941000D5E034FFF080B944
:019417002232
:1067E50090000012822F74C8F0A37464F0E4A3F043
:1067F50012954712A5EB12A67912A27FE4FF12A506
:10680500CC128A8F7F4D124E357547007548287515
:106815004901754AE090030D7401F0A374E0F07529
:106825004B00754C04A37407F0A304F07F9812A7DE
:1068350024EF5410FFC4540F900005F012803590DA
:10684500030BE0B40106128286127E6B90030BE007
:10685500B4010312A27F302707128E2C5002C227E3
:1068650012A5BCEF6009900003E0754300F544E50F
:106875004464014543700DF543F544900004E0750B
:106885004100F542E542640145417021900241E035
:10689500701B12974312909290028AE0FF90028833
:1068A500E06F6003124E35754100754214E54C6486
:1068B50001454B701290024DE0C394014009754BA0
:1068C50000754C041286A1900316E07041E54864FA
:1068D500014547703990024DE0703390030CE0FF9D
:1068E50074017E00A807088005C333CE33CED8F9DE
:1068F500FF129BEC90030CE004F0754700754828E7
:10690500E0C3940C4002E4F09003167401F0900388
:106915000DE07004A3E06401700F90022DF0A3F068
:1069250090030D04F0A374E0F0129EB090030FE005
:106935007004A3E064017039900005E0FF1295DB57
:10694500E490030FF0A3F080289002DFE0B4012665
:10695500C3900311E094004018900246E0FF9002B6
:1069650080E0FD1291B7E49002DFF0900313F0A3ED
:10697500F043E11080D3E4900311F0A3F0026841E5
:10954700E4F5B8F5A8F58775E127F5D0758922F513
:109557008812A4A512A6CC12A3D3E4F58EF5A2D245
:1095670099D2AF00F593F5944391035392FCF59587
:10957700F596F5B1F5B2F5B375B404C2E9C292C276
:0A95870093C294C295C296C29722C7
:088105009001DDEFF0A3EDF0A5
:10810D0078DF7C017A5F79527F061282149001DD4F
:10811D00E014603014604714605E146075147003D1
:10812D000281B9240560030281D2E4F5EA9001DEF3
:10813D00E0FF7004F5DA800375DA421281DEF5FA9C
:10814D00E4F5F222E4F5EB9001DEE0FF7004F5DBDF
:10815D00800375DB421281DEF5FBE4F5F322E4F5D5
:10816D00EC9001DEE0FF7004F5DC800375DC42125B
:10817D0081DEF5FCE4F5F422E4F5ED9001DEE0FF9F
:10818D007004F5DD800375DD421281DEF5FDE4F549
:10819D00F522E4F5EE9001DEE0FF7004F5DE8003DC
:1081AD0075DE421281DEF5FEE4F5F622E4F5EF9080
:1081BD0001DEE0FF7004F5DF800375DF421281DE22
:0581CD00F5FFE4F5F7E9
:0181D200228A
:0FA5EB00E4F5E9F5F975D90475D84043A6802247
:054E3500900006EFF003
:104E3A0078077C007A5F795812824C78157C007A60
:104E4A005F796612824C78237C007D017BFF7A5F52
:104E5A0079747E007F08122668782B7C007A5F7945
:104E6A007C7F0712821478327C007A5F7983128100
:104E7A00D378587C007A5F79A91281D3787E7C0036
:104E8A007D017BFF7A5F79CF1281D778A47C007D80
:104E9A00017BFF7A5F79F51281D778CA7C007D01A0
:104EAA007BFF7A60791B1281D778F07C007D017BC9
:104EBA00FF7A6079411281D778167C017D017BFFE8
:104ECA007A6079671281D7783C7C017D017BFF7A11
:104EDA0060798D1281D778627C017D017BFF7A60CF
:104EEA0079B31281D778887C017D017BFF7A60795A
:104EFA00D91281D778AE7C017D017BFF7A6079FF78
:104F0A001281D7E49001D4F0900006E0FE24B6FFA7
:104F1A00C3940A400674FC2FFF8005E4900276F0E1
:104F2A00900288EEF0EFB408005062904F3CF828E7
:104F3A002873024F54024F59024F60024F66024FC4
:104F4A006D024F7B024F87024F8F90031E8041E410
:104F5A0090031EF0803DE49002448019900244744C
:104F6A000180129002437401F09003187404F080D7
:104F7A0022E4900243F090031804F080169002761F
:104F8A007414F0800E9002767441F0800690031833
:104F9A007401F0900276E0FFC39401400890031D6B
:104FAA00EFF002503090031EE06401704990024411
:104FBA00E0601B12826DB4010B7402F09003177447
:104FCA0004F080237402F090031714F080191282FF
:104FDA006DB4010B7404F09003177402F080087426
:104FEA0001F090031704F0900318E0C454F0FF9006
:104FFA000317E04F802C900244E06005900318806C
:10500A000C12826DB4010B7404F09003177402F051
:10501A0080087401F090031704F0900318E0FFC4AD
:10502A0054F090031DF0900315E06025129A0012C7
:10503A0081FA7A00790712513C7A00791512513CAB
:10504A007A00792B7E007F07122668128286127EEA
:10505A006B90031DE01229DE50811050A71250AB4D
:10506A001450832050A92150BD24508C4050B44183
:10507A0050A742000050CF80091281FA7A0079586D
:10508A0080071281FA7A0079321281D79001F57479
:10509A0003F07B0F7D01E4FF128FCA8032801D80EE
:1050AA00121281FA7A0079F080221281FA7A017951
:1050BA001680191281FA7A0079CA80101281FA7A56
:1050CA000079A480071281FA7A0079321281D7E432
:1050DA00900315F0128286127E6B90031DE012294E
:1050EA00DE510A10511412511C14510C205118216E
:1050FA00512724511040512041512B420000513672
:10510A008000E4FF8012E4FF80197F01800A7F019A
:10511A0080067F0180027F01128C03800F7F01804D
:10512A00027F01128C039001D47401F09001D4E043
:01513A00FF75
:10513B00227E007F0E1226687B017A0279E1127EB5
:0A514B006B78E17C027D017B0122FC
:029FCF00AB07DE
:109FD100E4FFFEEBC3943D4021EBD39461501BEBB6
:109FE10024C3FFEE128275AA07EB24C3FFE4128299
:0A9FF10075AE05AF021281057F0175
:019FFB002243
:10937700E4FBFAFD7F90129D05EEC4F854F0C8682F
:10938700FEEFC4540F48FFEEC4F854F0C868FAEF74
:10939700C4540F48FB2091047A007B637C007D0A4C
:1093A700AF03AE021226F8ED2430900220F0AE0291
:1093B700AF037C007D0A1226F8EF2430900225F0D7
:0193C7002283
:1077FD0090000612822F12293E00000000E4FF12B5
:10780D00A357900006EEF0A3EFF0900006E0FEA364
:10781D00E0FF1282577F6E7E021282374042E47F74
:10782D00A57E03FDFC900009E0F8A3A3A3E0D3120D
:10783D00290E9000095020E0F8A3A3A3C374A59BC3
:10784D00FF74039AFEE499FDE498FCE47B707A01E1
:10785D00F9F81227F1802B12293E00030AE8803136
:10786D007FF37E01128237401E900006E0FEA3E0FA
:10787D00FF746E9FFF74029EFE7C007DD21226E681
:10788D00E4FD12825A800A90000912293E0000F28E
:10789D0094E47B64FAF9F8900009E0FCA3E0FDA301
:1078AD00E0FEA3E0FF12287C900006EEF0FAA3EFB5
:1078BD00F0FB128257D3EB940FEA9427400A900005
:1078CD00067427F0A3740FF0900006E0FAA3E0FB16
:1078DD007C037DE81281F4EF243090021AF07C03D2
:1078ED007DE812821F7D641281EAEF243090021927
:1078FD00F07D6412821D7D0A1281EAEF2430900220
:0D790D0018F07D0A12821D2430900217F040
:01791A00224A
:108E950090020B7402F0A37432F0A37450F0A37423
:108EA50030F0A37439F0A37464F0A37420F0A374B4
:108EB50003F0E4A3F0900007F0900007E0FFD394DF
:108EC500075016900213E0FE128260EE6F900213B7
:108ED500F0900007E004F080E0E4900007F09000D7
:108EE50007E0FFD39408500E128260120003900031
:068EF50007E004F080E834
:018EFB002254
:10002E001010FFFFFFFFFFFFFFFFFFFFFFFFFFFFB0
:10003E00FFFFFFFFFFFFFFFFFFFFFFFFFFFFFFFFC2
:10004E00FFFFFFFFFFFFFFFFFFFFFFFFFFFFFFFFB2
:10005E00FFFFFFFFFFFFFFFFFFFFFFFFFFFFFFFFA2
:10006E00FFFFFFFFFFFFFFFFFFFFFFFFFFFFFFFF92
:10007E00FFFFFFFFFFFFFFFFFFFFFFFFFFFFFFFF82
:10008E00FFFFFFFFFFFFFFFFFFFFFFFFFFFFFFFF72
:10009E00FFFFFFFFFFFFFFFFFFFFFFFFFFFFFFFF62
:1000AE00FFFFFFFFFFFFFFFFFFFFFFFFFFFFFFFF52
:1000BE00FFFFFFFFFFFFFFFFFFFFFFFFFFFFFFFF42
:1000CE00FFFFFFFFFFFFFFFFFFFFFFFFFFFFFFFF32
:1000DE00FFFFFFFFFFFFFFFFFFFFFFFFFFFFFFFF22
:1000EE00FFFFFFFFFFFFFFFFFFFFFFFFFFFFFFFF12
:1000FE00FFFFFFFFFFFFFFFFFFFFFFFFFFFFFFFF02
:10010E00FFFFFFFFFFFFFFFFFFFFFFFFFFFFFFFFF1
:10011E00FFFFFFFFFFFFFFFFFFFFFFFFFFFFFFFFE1
:10012E00FFFF1010FFFFFFFFFFFFFFFFFFFFFFFFAF
:10013E00FFFFFFFFFFFFFFFFFFFFFFFFFFFFFFFFC1
:10014E00FFFFFFFFFFFFFFFFFFFFFFFFFFFFFFFFB1
:10015E00FFFFFFFFFFFFFFFFFFFFFFFFFFFFFFFFA1
:10016E00FFFFFFFFFFFFFFFFFFFFFFFFFFFFFFFF91
:10017E00FFFFFFFFFFFFFFFFFFFFFFFFFFFFFFFF81
:10018E00FFFFFFFFFFFFFFFFFFFFFFFFFFFFFFFF71
:10019E00FFFFFFFFFFFFFFFFFFFFFFFFFFFFFFFF61
:1001AE00FFFFFFFFFFFFFFFFFFFFFFFFFFFFFFFF51
:1001BE00FFFFFFFFFFFFFFFFFFFFFFFFFFFFFFFF41
:1001CE00FFFFFFFFFFFFFFFFFFFFFFFFFFFFFFFF31
:1001DE00FFFFFFFFFFFFFFFFFFFFFFFFFFFFFFFF21
:1001EE00FFFFFFFFFFFFFFFFFFFFFFFFFFFFFFFF11
:1001FE00FFFFFFFFFFFFFFFFFFFFFFFFFFFFFFFF01
:10020E00FFFFFFFFFFFFFFFFFFFFFFFFFFFFFFFFF0
:10021E00FFFFFFFFFFFFFFFFFFFFFFFFFFFFFFFFE0
:10022E00FFFFFFFF1010FFFFFFFFFFFFFFFFFFFFAE
:10023E00FFFFFFFFFFFFFFFFFFFFFFFFFFFFFFFFC0
:10024E00FFFFFFFFFFFFFFFFFFFFFFFFFFFFFFFFB0
:10025E00FFFFFFFFFFFFFFFFFFFFFFFFFFFFFFFFA0
:10026E00FFFFFFFFFFFFFFFFFFFFFFFFFFFFFFFF90
:10027E00FFFFFFFFFFFFFFFFFFFFFFFFFFFFFFFF80
:10028E00FFFFFFFFFFFFFFFFFFFFFFFFFFFFFFFF70
:10029E00FFFFFFFFFFFFFFFFFFFFFFFFFFFFFFFF60
:1002AE00FFFFFFFFFFFFFFFFFFFFFFFFFFFFFFFF50
:1002BE00FFFFFFFFFFFFFFFFFFFFFFFFFFFFFFFF40
:1002CE00FFFFFFFFFFFFFFFFFFFFFFFFFFFFFFFF30
:1002DE00FFFFFFFFFFFFFFFFFFFFFFFFFFFFFFFF20
:1002EE00FFFFFFFFFFFFFFFFFFFFFFFFFFFFFFFF10
:1002FE00FFFFFFFFFFFFFFFFFFFFFFFFFFFFFFFF00
:10030E00FFFFFFFFFFFFFFFFFFFFFFFFFFFFFFFFEF
:10031E00FFFFFFFFFFFFFFFFFFFFFFFFFFFFFFFFDF
:10032E00FFFFFFFFFFFF1010FFFFFFFFFFFFFFFFAD
:10033E00FFFFFFFFFFFFFFFFFFFFFFFFFFFFFFFFBF
:10034E00FFFFFFFFFFFFFFFFFFFFFFFFFFFFFFFFAF
:10035E00FFFFFFFFFFFFFFFFFFFFFFFFFFFFFFFF9F
:10036E00FFFFFFFFFFFFFFFFFFFFFFFFFFFFFFFF8F
:10037E00FFFFFFFFFFFFFFFFFFFFFFFFFFFFFFFF7F
:10038E00FFFFFFFFFFFFFFFFFFFFFFFFFFFFFFFF6F
:10039E00FFFFFFFFFFFFFFFFFFFFFFFFFFFFFFFF5F
:1003AE00FFFFFFFFFFFFFFFFFFFFFFFFFFFFFFFF4F
:1003BE00FFFFFFFFFFFFFFFFFFFFFFFFFFFFFFFF3F
:1003CE00FFFFFFFFFFFFFFFFFFFFFFFFFFFFFFFF2F
:1003DE00FFFFFFFFFFFFFFFFFFFFFFFFFFFFFFFF1F
:1003EE00FFFFFFFFFFFFFFFFFFFFFFFFFFFFFFFF0F
:1003FE00FFFFFFFFFFFFFFFFFFFFFFFFFFFFFFFFFF
:10040E00FFFFFFFFFFFFFFFFFFFFFFFFFFFFFFFFEE
:10041E00FFFFFFFFFFFFFFFFFFFFFFFFFFFFFFFFDE
:10042E00FFFFFFFFFFFFFFFF1010FFFFFFFFFFFFAC
:10043E00FFFFFFFFFFFFFFFFFFFFFFFFFFFFFFFFBE
:10044E00FFFFFFFFFFFFFFFFFFFFFFFFFFFFFFFFAE
:10045E00FFFFFFFFFFFFFFFFFFFFFFFFFFFFFFFF9E
:10046E00FFFFFFFFFFFFFFFFFFFFFFFFFFFFFFFF8E
:10047E00FFFFFFFFFFFFFFFFFFFFFFFFFFFFFFFF7E
:10048E00FFFFFFFFFFFFFFFFFFFFFFFFFFFFFFFF6E
:10049E00FFFFFFFFFFFFFFFFFFFFFFFFFFFFFFFF5E
:1004AE00FFFFFFFFFFFFFFFFFFFFFFFFFFFFFFFF4E
:1004BE00FFFFFFFFFFFFFFFFFFFFFFFFFFFFFFFF3E
:1004CE00FFFFFFFFFFFFFFFFFFFFFFFFFFFFFFFF2E
:1004DE00FFFFFFFFFFFFFFFFFFFFFFFFFFFFFFFF1E
:1004EE00FFFFFFFFFFFFFFFFFFFFFFFFFFFFFFFF0E
:1004FE00FFFFFFFFFFFFFFFFFFFFFFFFFFFFFFFFFE
:10050E00FFFFFFFFFFFFFFFFFFFFFFFFFFFFFFFFED
:10051E00FFFFFFFFFFFFFFFFFFFFFFFFFFFFFFFFDD
:10052E00FFFFFFFFFFFFFFFFFFFF1010FFFFFFFFAB
:10053E00FFFF00000000FFFFFFFFFFFFFFFFFFFFB9
:10054E00FF000000000000FFFFFFFFFFFFFFFFFFA7
:10055E000000020202020000FFFFFFFFFFFFFFFF8D
:10056E000000020202020000FFFFFFFFFFFFFF007C
:10057E00000202000002020000FFFFFFFFFFFF006B
:10058E00000202000002020000FFFFFFFFFF00005A
:10059E0002020000000002020000FFFFFFFF000049
:1005AE00020200FFFF0002020000FFFFFF00000238
:1005BE00020000FFFF000002020000FFFF00000229
:1005CE000200000000000002020000FF0000020214
:1005DE0002020202020202020202000000000202F5
:1005EE0002020202020202020202000000000202E5
:1005FE0000000000000000000202000000000202E5
:10060E000000FFFFFFFF00000202000000000202D8
:10061E000000FFFFFFFF00000202000000000000CC
:10062E000000FFFFFFFF00000000000010100000A0
:10063E00000000000000000000000000FFFF0002AC
:10064E0002020202020202020202000000FF000287
:10065E000202020202020202020202000000000076
:10066E000002020000000000020202020000FF0071
:10067E0000020200FFFFFF00000202020000FF0066
:10068E0000020200FFFFFF00000202020000FF0056
:10069E0000020200000000000202020000FFFF0044
:1006AE00000202020202020202020000FFFFFF002D
:1006BE00000202020202020202020000FFFFFF001D
:1006CE0000020200000000000202020000FFFF0014
:1006DE0000020200FFFFFF00000202020000FF0006
:1006EE0000020200FFFFFF000002020200000000F5
:1006FE0000020200000000000202020200000002DE
:10070E0002020202020202020202020000000002C3
:10071E0002020202020202020202000000FF0000B8
:10072E00000000000000000000000000FFFF10109D
:10073E00FFFFFF00000000000000000000FFFFFFB1
:10074E00FFFF00000202020202020202000000FF8E
:10075E00FF00000202020202020202020200000078
:10076E000000000202000000000000020202000071
:10077E0000000202020000FFFFFF00000202000064
:10078E00000002020000FFFFFFFFFF000202000058
:10079E00000002020000FFFFFFFFFFFF000000004D
:1007AE00000002020000FFFFFFFFFFFFFFFFFFFF41
:1007BE00000002020000FFFFFFFFFFFFFFFFFFFF31
:1007CE00000002020000FFFFFFFFFF00000000001C
:1007DE00000002020000FFFFFFFFFF000202000008
:1007EE0000000202000000FFFFFF000002020000F6
:1007FE0000000202020000000000000202020000DF
:10080E00FF000002020202020202020202000000C7
:10081E00FFFF00000202020202020202000000FFBD
:10082E00FFFFFF0000000000000000000000FFFFBF
:10083E001010000000000000000000000000FFFF8C
:10084E00FFFF00000202020202020202020000FF8B
:10085E00FFFF000002020202020202020202000078
:10086E00FFFF000002020000000000020202000072
:10087E00FFFF000002020000FFFF00000202000066
:10088E00FFFF000002020000FFFF00000202000056
:10089E00FFFF000002020000000000020202000042
:1008AE00FFFF00000202020202020202020000FF2B
:1008BE00FFFF00000202020202020202000000FF1D
:1008CE00FFFF000002020000020202000000FFFF14
:1008DE00FFFF000002020000000202020000FFFF04
:1008EE00FFFF00000202000000000202020000FFF3
:1008FE00FFFF000002020000FF00000202020000E3
:10090E00FFFF000002020000FFFF000002020200D3
:10091E0000FF000002020000FFFFFF0000020202C3
:10092E0000FF000000000000FFFFFFFF00000000BE
:10093E0000FF101000000000FFFFFFFFFFFFFFFF92
:10094E00000000000000000000FFFFFFFFFFFF009F
:10095E000000000000000C0C0000FFFFFFFF000075
:10096E000C0C000000000C0C0C0000000000000C31
:10097E000C0C000000000C0C0C0C000000000C0C09
:10098E000C0C000000000C0C0C0C0C0C0C0C0C0CC9
:10099E000C0C000000000C0C0C0C0C0C0C0C0C0CB9
:1009AE000C0C000000000C0C0C000C0C0C0C000CC1
:1009BE000C0C000000000C0C0C00000C0C00000CC9
:1009CE000C0C000000000C0C0C0000000000000CD1
:1009DE000C0C000000000C0C0C0000000000000CC1
:1009EE000C0C000000000C0C0C0000FFFF00000CB3
:1009FE000C0C000000000C0C0C0000FFFF00000CA3
:100A0E000C0C000000000C0C0C0000FFFF00000C92
:100A1E000C0C000000000C0C0C0000FFFF00000C82
:100A2E000C0C000000000000000000FFFF000000A2
:100A3E00000000001010FF00000000000000000089
:100A4E000000000000FFFF0000020202020202028C
:100A5E000202020000FFFF00000202020202020276
:100A6E000202020000FFFF00000000000000020270
:100A7E000200000000FFFFFFFFFFFFFF0000020269
:100A8E00020000FFFFFFFFFFFFFFFFFF000002025B
:100A9E00020000FFFFFFFFFFFFFFFFFF000002024B
:100AAE00020000FFFFFFFFFFFFFFFFFF000002023B
:100ABE00020000FFFFFFFFFFFFFFFFFF000002022B
:100ACE00020000FFFFFFFFFFFFFFFFFF000002021B
:100ADE00020000FFFFFFFF00000000FF0000020207
:100AEE00020000FFFFFFFF000202000000000202F2
:100AFE00020000FFFFFFFF000202020000020202DE
:100B0E00020000FFFFFFFF000002020202020202CB
:100B1E00000000FFFFFFFFFF0000020202020200C2
:100B2E000000FFFFFFFFFFFFFF00000000000000BE
:100B3E0000FFFFFFFFFF1010FFFFFFFFFFFFFFFF94
:100B4E00FFFFFFFFFFFFFFFFFFFFFFFFFF000000A4
:100B5E0000000000FFFFFFFFFFFFFFFF000001018D
:100B6E0001010000FFFFFFFFFFFFFF000001010179
:100B7E0001010000FFFFFFFFFFFF00000101010167
:100B8E00010000FFFFFFFFFFFF0000010101010157
:100B9E000000000000000000000001010101010141
:100BAE00010101010101000000010101010101012A
:100BBE00010101010101000000010101010101011A
:100BCE00010101010101000000000101010101010B
:100BDE000101010101010000FF00000101010101FD
:100BEE000000000000000000FFFF000001010101F5
:100BFE00010000FFFFFFFFFFFFFFFF0000010101EB
:100C0E0001010000FFFFFFFFFFFFFFFF00000101DA
:100C1E0001010000FFFFFFFFFFFFFFFFFF000000CD
:100C2E0000000000FFFFFFFFFFFFFFFFFFFFFFFFC2
:100C3E00FFFFFFFFFFFFFFFF1010FFFFFFFFFFFF94
:100C4E00FFFFFFFFFFFFFFFFFFFFFFFFFFFF0000A4
:100C5E000000000000FFFFFFFFFFFFFFFFFF00008F
:100C6E00010101010000FFFFFFFFFFFFFFFF00007A
:100C7E0001010101010000FFFFFFFFFFFFFFFF0069
:100C8E000001010101010000FFFF00000000000053
:100C9E00000001010101010000FF0000010101013E
:100CAE00010101010101010100000000010101012A
:100CBE000101010101010101010000000101010119
:100CCE00010101010101010101000000000000000D
:100CDE00000001010101010000FF00000000000002
:100CEE00000001010101010000FFFFFFFFFFFF00F7
:100CFE000001010101010000FFFFFFFFFFFF0000E7
:100D0E0001010101010000FFFFFFFFFFFFFF0000D7
:100D1E00010101010000FFFFFFFFFFFFFFFF0000C9
:100D2E000000000000FFFFFFFFFFFFFFFFFFFFFFC0
:100D3E00FFFFFFFFFFFFFFFFFFFF1010FFFFFFFF93
:100D4E000000000000000000FFFFFFFFFFFFFFFF9D
:100D5E000000010101010000FFFFFFFFFFFFFFFF89
:100D6E000000010101010000FFFFFFFFFFFFFFFF79
:100D7E000000010101010000FFFFFFFFFFFFFFFF69
:100D8E000000010101010000FFFFFFFF0000000055
:100D9E00000001010101000000000000000001013F
:100DAE00000001010101000001010000000001012D
:100DBE00010001010101000101010000000001011B
:100DCE000101010101010101010100000000010109
:100DDE00010101010101010101010000FF000001FB
:100DEE000101010101010101010000FFFFFF0000EF
:100DFE0001010101010101010000FFFFFFFFFF00E2
:100E0E00000101010101010000FFFFFFFFFFFFFFD5
:100E1E000000010101010000FFFFFFFFFFFFFFFFC8
:100E2E00FF000001010000FFFFFFFFFFFFFFFFFFBC
:100E3E00FFFF00000000FFFFFFFFFFFF1010FFFF8E
:100E4E00FFFFFFFFFFFF0000000000000000FFFF9C
:100E5E00FFFFFFFFFF000002020202020000FFFF81
:100E6E00FFFFFFFF00000202020202020000FFFF6E
:100E7E00FFFFFF000002020200000202000000005D
:100E8E00000000000202020000000202000000004A
:100E9E000202020202020200FF0002020000000033
:100EAE000202020202020200FF0002020000000023
:100EBE000202000000020200FF0002020000000019
:100ECE00020200FF00020200FF000202000000000A
:100EDE000202000000020200FF00020200000000F9
:100EEE000202020202020200FF00020200000000E3
:100EFE0002020202020202000000020200000000D2
:100F0E000000000000020202000002020000FFFFCB
:100F1E00FFFFFFFF00000202020202020000FFFFBD
:100F2E00FFFFFFFFFF000002020202020000FFFFB0
:100F3E00FFFFFFFFFFFF0000000000000000101089
:100F4E000000000000FFFFFFFFFFFF000000000099
:100F5E000001010100FFFFFFFFFFFF000101010083
:100F6E000001010100FFFFFFFFFFFF000101010073
:100F7E000001010100FFFFFFFFFFFF000101010063
:100F8E000001010100FFFFFFFFFFFF000101010053
:100F9E00000101010000FFFFFFFF00000101010041
:100FAE00000101010100FFFFFFFF0001010101002F
:100FBE00000001010100FFFFFFFF00010101000021
:100FCE0000000101010000FFFF000001010100000F
:100FDE00FF0000010101000000000101010000FFFF
:100FEE00FFFF000001010100000101010000FFFFF1
:100FFE00FFFF000000010100000101000000FFFFE3
:10100E00FFFFFF00000101010101010000FFFFFFD2
:10101E00FFFFFFFF0000010101010000FFFFFFFFC6
:10102E00FFFFFFFFFF00000101000000FFFFFFFFB9
:10103E00FFFFFFFFFFFF0000000000FFFFFFFFFFAD
:10104E00101000000000000000FFFFFFFFFFFFFF79
:10105E00FFFF00000101010000FFFFFFFFFFFFFF88
:10106E00FFFF00000101010000FFFFFFFFFFFFFF78
:10107E00FFFF00000101010000FFFFFFFFFFFFFF68
:10108E00FFFF00000101010000FFFFFFFFFFFFFF58
:10109E00FFFF00000101010000FFFFFFFFFFFFFF48
:1010AE00FFFF00000101010000FFFFFFFFFFFFFF38
:1010BE00FFFF00000101010000FFFFFFFFFFFFFF28
:1010CE00FFFF00000101010000FFFFFFFFFFFFFF18
:1010DE00FFFF00000101010000FFFFFFFFFF000006
:1010EE00000000000101010000FFFFFFFFFF0000F4
:1010FE00000000000101010000FFFFFFFF000001E2
:10110E0000000000010101000000000000000101CC
:10111E0000000000010101010101010101010101B5
:10112E0000000000010101010101010101010101A5
:10113E0000000000000000000000000000000000A1
:10114E0000001010FFFFFFFFFFFFFFFFFFFFFFFF7D
:10115E00FFFFFFFFFFFFFFFFFFFFFFFFFFFFFFFF91
:10116E00FFFFFFFFFFFFFFFFFFFFFFFFFFFFFFFF81
:10117E00FFFFFFFFFFFFFFFF00000000000000FF6A
:10118E00FFFFFFFFFFFFFF00000001010100000055
:10119E00FFFFFFFFFFFF0000010101010101010040
:1011AE0000FFFFFFFF00000101010000000101012F
:1011BE000000FFFF00000001010000FF0000010120
:1011CE00000000FF00000101010000FF000001010E
:1011DE00010000FF00000101010000FF00000101FD
:1011EE00010000FF00000101010000FF00000101ED
:1011FE00010000FF00000001010000FF00000101DE
:10120E00000000FFFF0000010101000000010101CC
:10121E000000FFFFFFFF00000101010101010100BD
:10122E0000FFFFFFFFFFFF000000010101000000B3
:10123E00FFFFFFFFFFFFFFFF00000000000000FFA9
:10124E00FFFFFFFF1010FFFFFFFFFFFFFFFFFFFF7E
:10125E00FFFFFFFFFFFFFFFFFFFF0000000000008A
:10126E000000FFFFFFFFFFFF00000000020202026E
:10127E00000000FFFFFFFF00000002020202020258
:10128E0002020000FFFFFF00000202020000000049
:10129E000202020000FFFF00000202020000FF0037
:1012AE000000000000FFFF0000000202020200002A
:1012BE000000FFFFFFFFFFFFFF000002020202021D
:1012CE00020000FFFFFFFFFFFFFF00000000020211
:1012DE0002020000FFFFFF0000000000FFFF000001
:1012EE000202020000FFFF000002020200000000E6
:1012FE000202020000FFFF000000020202020202D0
:10130E0002020000FFFFFFFFFF00000002020202C8
:10131E00000000FFFFFFFFFFFFFFFF0000000000C7
:10132E000000FFFFFFFFFFFFFFFFFFFFFFFFFFFFBD
:10133E00FFFFFFFFFFFFFFFFFFFFFFFFFFFFFFFFAF
:10134E00FFFFFFFFFFFF1010FFFFFFFFFFFFFFFF7D
:10135E00FFFFFFFFFFFFFFFFFFFFFFFFFFFFFFFF8F
:10136E00FFFFFFFFFFFFFFFFFFFFFFFFFFFFFFFF7F
:10137E00FFFFFFFFFFFFFFFFFFFFFFFFFFFFFFFF6F
:10138E00FFFFFFFFFFFFFFFFFFFFFFFFFFFFFFFF5F
:10139E00FFFFFFFFFFFFFFFFFFFFFFFFFFFFFFFF4F
:1013AE00FFFFFFFFFFFFFFFFFFFFFFFFFFFFFFFF3F
:1013BE00FFFFFFFFFFFFFFFFFFFFFFFFFFFFFFFF2F
:1013CE00FFFFFFFFFFFFFFFF1010FFFFFFFFFFFFFD
:1013DE00FFFFFFFFFFFFFFFFFFFFFFFFFFFFFFFF0F
:1013EE00FFFFFFFFFFFFFFFFFFFFFFFFFFFFFFFFFF
:1013FE00FFFFFFFFFFFFFFFFFFFFFFFFFFFFFFFFEF
:10140E00FFFFFFFFFFFFFFFFFFFFFFFFFFFFFFFFDE
:10141E00FFFFFFFFFFFFFFFFFFFFFFFFFFFFFFFFCE
:10142E00FFFFFFFFFFFFFFFFFFFFFFFFFFFFFFFFBE
:10143E00FFFFFFFFFFFFFFFFFFFFFFFFFFFFFFFFAE
:10144E00FFFFFFFFFFFFFFFFFFFF1010FFFFFFFF7C
:10145E00FFFFFFFFFFFFFFFFFFFFFFFFFFFFFFFF8E
:10146E00FFFFFFFFFFFFFFFFFFFFFFFFFFFFFFFF7E
:10147E00FFFFFFFFFFFFFFFFFFFFFFFFFFFFFFFF6E
:10148E00FFFFFFFFFFFFFFFFFFFFFFFFFFFFFFFF5E
:10149E00FFFFFFFFFFFFFFFFFFFFFFFFFFFFFFFF4E
:1014AE00FFFFFFFFFFFFFFFFFFFFFFFFFFFFFFFF3E
:1014BE00FFFFFFFFFFFFFFFFFFFFFFFFFFFFFFFF2E
:1014CE00FFFFFFFFFFFFFFFFFFFFFFFF1010FFFFFC
:1014DE00FFFFFFFFFFFFFFFFFFFFFFFFFFFFFFFF0E
:1014EE00FFFFFFFFFFFFFFFFFFFFFFFFFFFFFFFFFE
:1014FE00FFFFFFFFFFFFFFFFFFFFFFFFFFFFFFFFEE
:10150E00FFFFFFFFFFFFFFFFFFFFFFFFFFFFFFFFDD
:10151E00FFFFFFFFFFFFFFFFFFFFFFFFFFFFFFFFCD
:10152E00FFFFFFFFFFFFFFFFFFFFFFFFFFFFFFFFBD
:10153E00FFFFFFFFFFFFFFFFFFFFFFFFFFFFFFFFAD
:10154E00FFFFFFFFFFFFFFFFFFFFFFFFFFFF10107B
:10155E00FFFFFFFFFFFFFFFFFFFFFFFFFFFFFFFF8D
:10156E00FFFFFFFFFFFFFFFFFFFFFFFFFFFFFFFF7D
:10157E00FFFFFFFFFFFFFFFFFFFFFFFFFFFFFFFF6D
:10158E00FFFFFFFFFFFFFFFFFFFFFFFFFFFFFFFF5D
:10159E00FFFFFFFFFFFFFFFFFFFFFFFFFFFFFFFF4D
:1015AE00FFFFFFFFFFFFFFFFFFFFFFFFFFFFFFFF3D
:1015BE00FFFFFFFFFFFFFFFFFFFFFFFFFFFFFFFF2D
:1015CE00FFFFFFFFFFFFFFFFFFFFFFFFFFFFFFFF1D
:1015DE001010FFFFFF0000FFFFFFFFFFF000000FE6
:1015EE00FFFFFFFF00222200FFFFFFFF002222006D
:1015FE00FFFFFFF0022002200FFFFFF0022002206B
:10160E000FFFFF002200002200FFFF00220FF0223A
:10161E0000FFF002200FF002200FF0022000000267
:10162E00200F002222222222220000222222222207
:10163E0022000022000000002200002200FFFF0016
:10164E002200002200FFFF002200000000FFFF002A
:10165E000000101000000000000000FF02222222F5
:10166E002222000F0222222222222000000220002B
:10167E0000222200F00220FFF0022200F00220FFE2
:10168E00F0022200F00220000022200FF00222229F
:10169E00222200FFF0022222222200FFF00220006E
:1016AE000022200FF00220FFF0022200F00220FFA5
:1016BE00F00222000002200000222200022222223A
:1016CE0022222000022222222222000F00000000ED
:1016DE00000000FF1010101010101010101010103D
:0A16EE001010101010101010101052
:109C5F001226A7FF9003EFE02F9001F5F02290015D
:109C6F00EFE0FBA3E0FAA3E0F922F09001EFE0FBB5
:109C7F00A3E475F001122763A9F0FA02268E900172
:089C8F00E6E0D364809480221A
:06A71200E49003EFF022C9
:06A718009003EFEFF022B8
:0B64A1009001E7EFF0A3ECF0A3EDF09A
:1064AC009001E7E0FF25E0F0E02408F09001EEF029
:1064BC009001E8E0FEA3E07803C333CE33CED8F9E5
:1064CC00F0EE9001E8F0A3E02408F09001E8E0344D
:1064DC0000F0AF037E007C017D021226E6742E2FA5
:1064EC00F974003EFA9001EF74FFF0A3EAF0A3E90F
:1064FC00129C799001EA129C799001EBF0E4A3F0E4
:10650C009001EAE0FF9001ECE0C39F40030265E8D4
:10651C00E4A3F09001EBE0FF9001EDE0C39F40039A
:10652C000265C9129C6D12268E129C62E4FB7D02E0
:10653C00FF128FCA129C6D900001129C5F7B01129E
:10654C006612900002129C5F7B021266129000038E
:10655C00129C5F7B031266259001F57480F07B041E
:10656C001266259001F0E475F00412274D9001EEAF
:10657C00E09001F5F07B0512662DA3E09001F5F09B
:10658C007B0712662DE07E007802C333CE33CED863
:10659C00F91265E912663820E7FA9001E8E025E087
:1065AC0025E044081265E912663820E7FA9001EEFE
:1065BC00E004F09001EDE02404F002651F9001E787
:1065CC00E09001EEF09001E9E004F070069001E833
:0C65DC00E004F09001ECE004F002650C1B
:1065E800229001F5F07B097D02E4FF128FCA7B0A35
:1065F8007D02E4FF128982EF543F44809001F5F058
:106608007B0A7D02E4FF128FCA227D02E4FF128F0B
:10661800CA9001EFE0FBA3E0FAA3E0F9227D02E4CF
:10662800FF128FCA227D02E4FF128FCA9001E8226E
:0B6638007B0A7D02E4FF128982EF2242
:0B9156009001E0EFF0A3EDF0A3EBF0C0
:10916100A3129C7012A4E79001E6EFF0C36480940F
:109171008040429001E0E030E0339001E1E0FFA364
:10918100E0FD7C00A3129C7012268EFB1264A1905C
:1091910001E6E014F09001E4E475F00112274D902E
:1091A10001E1E02402F0129C8D50CF8005129C8DCC
:0591B10050FB12A73C79
:0191B6002296
:10A337000500000600000700000800000900000AE9
:10A34700000012000020000B000C000D000E0000A2
:036F9600012100D6
:1083470090036EE075F003A42437F974A335F0FAAF
:108357009001E374FFF0A3229001DDE0FBA3E0FAB4
:10836700A3E0F92290036EE0FF74017E00A80708DE
:1083770022FF90037BE0FDEF5D2274A3F0A3745608
:10838700F0229000010226A774A3F0A37443F02201
:1083970074A3F0A37454F022EAF0A3E9F0E4FB22FB
:1083A7009000020226A712268E540C1313543FF591
:1083B7003022EAF0A3E9F07B12227B017D127C00D8
:1083C700227D197B057C007F3A22EBF0A3EAF0A31C
:1083D700E9F0229000030226A77B017D0F7C002293
:1083E700EAF0A3E9F07B0F227B01E4FDFC7F1C226E
:0883F7007B01E4FDFC7F412243
:1094650012747B12A7127F0412A7367F0312A73945
:10947500E4F530AF3012949B0530E530C3940640D7
:10948500F27F01129D3C7FFF12A7397F0812949B42
:05949500E490036BF000
:10949A002212A3779001E1E4F0A37426F07B5AE448
:0794AA00FDFCFF1284B52256
:104400009001DD1283D17F0212A7367FFF12A739F8
:1044100090036DE01229DE44451144542144882262
:1044200044BC3144FA3345353445704145C091456B
:10443000D7A14603A2462CB14671B346B2B446F4A6
:10444000C10000475112835F12268E20E10302470C
:10445000510245CC12835F12268E30E10D12834744
:1044600012839F7DFF7F0112915612835F12838911
:1044700020E10302475190036F12834AEAF0A3E957
:10448000F07B1D7D5D02474C12835F12268E30E16A
:1044900011128347EAF0A3E9F07B0E7D487F0112F9
:1044A000915612835F12838920E1030247519003E2
:1044B0006F12834A12839F7D1402474C12835F124E
:1044C000268E30E10912834712839F12479E128382
:1044D0005F12838930E10990036F12834A12477F8C
:1044E00012835F1283A720E10302475190037012E9
:1044F000834A1283E77D3E02474C12835F12268E69
:1045000030E10612834712475212835F12838930CB
:10451000E10990036F12834A12477012835F12837E
:10452000A720E10302475190037012834A1283E7E8
:104530007D3E02474C12835F12268E30E1061283C5
:104540004712475212835F12838930E10990036F4B
:1045500012834A12477012835F1283A720E103027D
:10456000475190037012834A1283E77D1402474C2F
:1045700012835F12268E30E10612834712476112C2
:10458000835F12838930E10C90036F12834A128398
:104590009F12479612835F1283A730E10990037040
:1045A00012834A12477F12835F1283DA20E10302EB
:1045B000475190037112834A1283E77D3E02474CB4
:1045C00012835F12268E20E10302475112834712A5
:1045D000839F7D2902474C12835F12268E30E109AA
:1045E00012834712839F12479E12835F1283892092
:1045F000E10302475190036F12834A1283B97D2968
:1046000002474C12835F12268E30E1061283471256
:10461000476112835F12838920E1030247519003AF
:104620006F12834A12839F7D3E02474C12835F12B2
:10463000268E30E10D12834712839F7D297F011260
:10464000915612835F12838930E10C90036F1283BD
:104650004A1283B912478E12835F1283A720E103A7
:1046600002475190037012834A1283B97D3E02477C
:104670004C12835F12268E30E10912834712839F0A
:1046800012478E12835F12838930E10C90036F1200
:10469000834A12839F12479612835F1283A720E1F9
:1046A0000302475190037012834A1283B97D3E0280
:1046B000474C12835F12268E30E109128347128322
:1046C0009F1247A612835F12838930E11090036F17
:1046D00012834A12839F7D3E7F0112915612835F9F
:1046E0001283A730E16B90037012834A1283B97D65
:1046F0001402474C12835F12268E30E10912834761
:1047000012839F1247A612835F12838930E11090B3
:10471000036F12834A12839F7D3E7F0112915612CE
:10472000835F1283A730E11090037012834A1283D3
:10473000B97D147F0112915612835F1283DA30E142
:104740001090037112834A1283B97D3E7F0112914A
:104750005622EAF0A3E9F0E4FB7D147F01129156A2
:1047600022EAF0A3E9F0E4FB7D147F0112915622C6
:10477000EAF0A3E9F0E4FB7D3E7F0112915622EAC4
:10478000F0A3E9F07B0F7D147F01129156227D1476
:104790007F01129156227D3E7F01129156227D2982
:0E47A0007F01129156227D147F011291562244
:08A7020090036CE04480F0229A
:109743007B787D01E4FF128982EF540FFF90037B46
:10975300F090036CE06F602ED2277B31E4FDFF12A3
:109763008982EF547F9001F5F07B31E4FDFF128F86
:10977300CA7F4D12A7367F4012A71812A712900373
:079783007BE090036CF02273
:066DE3009001DD1283D1D6
:106DE9007F4112A73690036DE01229DE6E1D116EE8
:106DF9002E216E62226E99316EBC336ED9346E1DAE
:106E0900916E2EA16E62A26E99B16EBCB36ED9B4A9
:106E190000006F169001DD1283621283AD600302D8
:106E29006EA4026EB29001DD1283621283AD60120C
:106E3900126F1712835612839F7D1C7F0112915680
:106E490080061283EF1283FF9001DD1283621283A1
:106E5900891283B06037026EE79001DD12836212F6
:106E690083AD6012126F1712835612839F7D1C7FA8
:106E79000112915680061283EF1283FF9001DD12F1
:106E890083621283891283B06003026EE7026F0C7A
:106E99009001DD1283621283AD600E126F3012838E
:106EA9005612839F7D31026F077B01E4FDFC7F3120
:106EB900026F139001DD1283621283AD600D126FB0
:106EC9003012835612839F7D1C80331283EF803AE0
:106ED9009001DD1283621283891283B060257B02DF
:106EE900E4FDFCFF1283FFE53025E0FFE433FE7487
:106EF9004C2FF974A33E12835612839F7D467F015E
:0D6F09000291567B01E4FDFC7F461283FFE0
:106F1600227B02E4FDFCFF1283FFE53025E0FFE45F
:106F260033FE744C2FF974A33E227B02E4FDFCFF72
:106F36001283FFE53025E0FFE433FE744C2FF9742D
:036F4600A33E2245
:10321F009001DD1283D17F0C12A73690036DE0125F
:10322F0029DE325F11327121329D2232C6313311C4
:10323F003333543433A341341191342EA13469A262
:10324F0034A2B134FFB33554B435AFC100003628C2
:10325F009001DD12836212268E30E00302341D02CC
:10326F0034279001DD12836212268E30E00B128319
:10327F005712838F1236AB80031236809001DD1206
:10328F00836212838930E003023454023461900167
:10329F00DD12836212268E30E00812835712362910
:1032AF00800312364B9001DD12836212838930E066
:1032BF000302348F02349C9001DD12836212268E3A
:1032CF0030E00B12835712838F1236AB8003123606
:1032DF00809001DD12836212838930E00B128357D5
:1032EF0012838F1236D580081283E07F171283FF67
:1032FF009001DD1283621283A730E0030233FF02D5
:10330F00340A9001DD12836212268E30E008128398
:10331F0057123629800312364B9001DD1283621249
:10332F00838930E00B12835712838F1236968003F6
:10333F001236569001DD1283621283A730E003022A
:10334F0033FF02340A9001DD12836212268E30E0C1
:10335F000812835712363A80031236619001DD123C
:10336F00836212838930E00B12835712838F1236D8
:10337F009680031236569001DD1283621283A730B6
:10338F00E00B12835712838F7B0F02359F7B017DDA
:10339F000F0235A89001DD12836212268E30E008ED
:1033AF0012835712363A80031236619001DD128371
:1033BF006212838930E00B12835712838F1236C04B
:1033CF00800312368B9001DD1283621283A730E0E7
:1033DF000B12835712838F1236D580081283E07F2A
:1033EF00171283FF9001DD1283621283DA30E00B34
:1033FF0012835712838F7B0F0234977B017D0F024D
:10340F0034F89001DD12836212268E30E00A1283A7
:10341F005712838FE4FB80357B01E4FDFC803690EF
:10342F0001DD12836212268E30E00B128357128356
:10343F008F1236DF80031236B59001DD12836212D0
:10344F00838930E00D12835712838F7B0F7D2C02FF
:10345F00361B1283E07F2C0236259001DD1283622A
:10346F0012268E30E00B12835712838F12366C8028
:10347F00031236A09001DD12836212838930E00DB2
:10348F0012835712838FE4FB7D4102361B1283F7A1
:10349F000236259001DD12836212268E30E00B1268
:1034AF00835712838F1236DF80031236B59001DDFA
:1034BF0012836212838930E00B12835712838F12AB
:1034CF0036E980081283C17F171283FF9001DD1246
:1034DF0083621283A730E00D12835712838F7B1202
:1034EF007D4102361B7B017D127C007F4102362518
:1034FF009001DD12836212268E30E00B1283571279
:10350F00838F12366C80031236A09001DD12836216
:10351F0012838930E00B12835712838F1236C080CB
:10352F000312368B9001DD1283621283A730E00DF8
:10353F0012835712838F7B127D4102361B1283C178
:10354F007F410236259001DD12836212268E30E014
:10355F000B12835712838F12367680031236CA905E
:10356F0001DD12836212838930E00B1283571283BD
:10357F008F1236F380061283F71283FF9001DD124C
:10358F0083621283A730E00D12835712838F7B1251
:10359F007D1702361B7B017D127C007F17023625BB
:1035AF009001DD12836212268E30E00B12835712C8
:1035BF00838F12367680031236CA9001DD12836232
:1035CF0012838930E00B12835712838F1236F380E8
:1035DF00061283F71283FF9001DD1283621283A715
:1035EF0030E00B12835712838F1236E98008128353
:1035FF00C17F171283FF9001DD1283621283DA30CD
:10360F00E00F12835712838F7B127D417F0102914E
:10361F00561283C17F411283FF2274A3F0A3744318
:10362F00F0E4FB7D177F011291562274A3F0A3746F
:10363F0043F0E4FB7D177F01129156227B01E4FDDD
:10364F00FC7F171283FF227B01E4FDFC7F41128375
:10365F00FF227B01E4FDFC7F171283FF22E4FB7D39
:10366F00177F0112915622E4FB7D177F01129156AD
:10367F00227B01E4FDFC7F2C1283FF227B01E4FD02
:10368F00FC7F411283FF22E4FB7D417F01129156A3
:10369F00227B01E4FDFC7F171283FF22E4FB7D2CCC
:1036AF007F01129156227B01E4FDFC7F2C1283FFD8
:1036BF0022E4FB7D417F01129156227B01E4FDFC48
:1036CF007F171283FF227B0F7D177F0112915622E6
:1036DF00E4FB7D2C7F01129156227B127D177F0117
:0E36EF0012915622E4FB7D417F01129156227A
:1036FD009003DD1283D17F0212A73690036DE01285
:10370D0029DE373A11374C21377B2237A43137EF79
:10371D003338323438814138EF913912A2394FB1F3
:10372D0039B9B33A0EB43A66C100003ADC9003DD04
:10373D0012836212268E30E4030238FB02390890A0
:10374D0003DD12836212268E30E40B12835712832F
:10375D0097123B748003123B549003DD1283621267
:10376D00268E30E4030238FB1283E002390D9003FC
:10377D00DD12836212268E30E408128357123ADD71
:10378D008003123AFF9003DD12836212838930E4C5
:10379D00030239380239459003DD12836212268EF9
:1037AD0030E40B128357128397123B748003123B44
:1037BD00549003DD12836212838930E40B12835718
:1037CD00128397123B7E80081283E07F1F1283FFC6
:1037DD009003DD1283621283A730E4030238DD0209
:1037ED0038E89003DD12836212268E30E4081283CE
:1037FD0057123ADD8003123AFF9003DD12836212F5
:10380D00838930E40B128357128397123B4A80034E
:10381D00123B0A9003DD1283621283A730E4030288
:10382D0038DD0238E89003DD12836212268E30E413
:10383D0008128357123AEE8003123B159003DD12E6
:10384D00836212838930E40B128357128397123BE4
:10385D004A8003123B0A9003DD1283621283A73064
:10386D00E40B1283571283977B0F023A567B017D2F
:10387D000F023A5F9003DD12836212268E30E40848
:10388D00128357123AEE8003123B159003DD12831B
:10389D006212838930E40B128357128397123B5FB8
:1038AD008003123B349003DD1283621283A730E450
:1038BD000B128357128397123B7E80081283E07F91
:1038CD001F1283FF9003DD1283621283DA30E40B43
:1038DD001283571283977B0F0239407B017D0F02B4
:1038ED0039B29003DD12836212268E30E40D1283FD
:1038FD0057128397E4FB7D34023ACF7B01E4FDFC44
:10390D007F34023AD99003DD12836212268E30E4A1
:10391D000B128357128397123B208003123B3F906B
:10392D0003DD12836212838930E40D1283571283F3
:10393D0097E4FB7D49023ACF7B01E4FDFC7F490210
:10394D003AD99003DD12836212268E30E411128370
:10395D0057128397E4FB7D347F01129156800A7BC9
:10396D0001E4FDFC7F341283FF9003DD12836212AC
:10397D00838930E40B128357128397123B9D800885
:10398D001283C17F1F1283FF9003DD1283621283A6
:10399D00A730E40D1283571283977B127D49023AAB
:1039AD00CF7B017D127C007F49023AD99003DD1255
:1039BD00836212268E30E40B128357128397123BCB
:1039CD00208003123B3F9003DD1283621283893006
:1039DD00E40B128357128397123B5F8003123B3423
:1039ED009003DD1283621283A730E40D1283571208
:1039FD0083977B127D49023ACF1283C17F49023AE8
:103A0D00D99003DD12836212268E30E40B12835798
:103A1D00128397123B2A8003123B699003DD1283B8
:103A2D006212838930E40B128357128397123B93F2
:103A3D008003123B889003DD1283621283A730E46A
:103A4D000D1283571283977B127D1F023ACF7B0194
:103A5D007D127C007F1F023AD99003DD1283621222
:103A6D00268E30E40B128357128397123B2A800364
:103A7D00123B699003DD12836212838930E40B12CD
:103A8D008357128397123B938003123B889003DD7B
:103A9D001283621283A730E40B128357128397129D
:103AAD003B9D80081283C17F1F1283FF9003DD129F
:103ABD0083621283DA30E40F1283571283977B12DD
:103ACD007D497F010291561283C17F491283FF22E6
:103ADD0074A3F0A37454F0E4FB7D1F7F0112915683
:103AED002274A3F0A37454F0E4FB7D1F7F011291A7
:103AFD0056227B01E4FDFC7F1F1283FF227B01E434
:103B0D00FDFC7F491283FF227B01E4FDFC7F1F1228
:103B1D0083FF22E4FB7D1F7F0112915622E4FB7D82
:103B2D001F7F01129156227B01E4FDFC7F49128318
:103B3D00FF227B01E4FDFC7F1F1283FF22E4FB7D4E
:103B4D00497F01129156227B01E4FDFC7F341283E3
:103B5D00FF22E4FB7D497F01129156227B01E4FD9A
:103B6D00FC7F1F1283FF22E4FB7D347F01129156EF
:103B7D00227B0F7D1F7F01129156227B01E4FDFCFC
:103B8D007F491283FF22E4FB7D497F01129156226A
:0A3B9D007B127D1F7F01129156225A
:102C9B0090037BE0FD90036CE06DF565A3E01229DA
:102CAB00DE2CD4112CF7222D3C312DAD332E1434C8
:102CBB002E82412F11912F3AA22F87B12FF7B330CC
:102CCB0061B430DCC10000316812836B8005C33303
:102CDB00CE33CED8F9FFEF5D600B12835712838191
:102CEB007B0D022F2A7B057D0D022F3312836B8008
:102CFB0005C333CE33CED8F9128378600B128357CA
:102D0B001283811231C5800312318190036F1283BC
:102D1B006E8005C333CE33CED8F9128378600B1295
:102D2B0083571283817B0D022F777B057D0D022F3D
:102D3B008012836B8005C333CE33CED8F9128378E0
:102D4B0060111283571283817B077D257F011291BE
:102D5B005680057D0712320B90036F12836E800530
:102D6B00C333CE33CED8F9128378600D128357124A
:102D7B0083817B151231E580031231CF90037012E2
:102D8B00836E8005C333CE33CED8F9128378600BB4
:102D9B001283571283817B15022F777B057D1502DA
:102DAB002F8012836B8005C333CE33CED8F91283B9
:102DBB0078600B1283571283811231C58003123155
:102DCB008190036F12836E8005C333CE33CED8F957
:102DDB00128378600B1283571283811231DB8003CD
:102DEB0012318D90037012836E8005C333CE33CEB8
:102DFB00D8F9128378600B1283571283817B1502EB
:102E0B002F777B057D15022F8012836B8005C333D3
:102E1B00CE33CED8F9128378600B1283571283818D
:102E2B00123199800312316990036F12836E800502
:102E3B00C333CE33CED8F9128378600D1283571279
:102E4B0083817D3A12320380087D0D1283CA12836F
:102E5B00FF90037012836E8005C333CE33CED8F947
:102E6B00128378600B1283571283817B150230CC4F
:102E7B007B057D150230D512836B8005C333CE33B2
:102E8B00CED8F9128378600B1283571283811231DB
:102E9B0099800312316990036F12836E8005C333DF
:102EAB00CE33CED8F9128378600B128357128381FD
:102EBB001231DB800312318D90037012836E80050B
:102ECB00C333CE33CED8F9128378601112835712E5
:102EDB0083817B157D107F0112915680031231CFB8
:102EEB0090037112836E8005C333CE33CED8F912A3
:102EFB008378600B1283571283817B15022F777BAC
:102F0B00057D15022F8012836B8005C333CE33CE24
:102F1B00D8F9128378600D1283571283817B107D51
:102F2B002502315D7B057D107C007F25023165120A
:102F3B00836B8005C333CE33CED8F9128378600D03
:102F4B001283571283817B101231E580031231A358
:102F5B0090036F12836E8005C333CE33CED8F91234
:102F6B008378600D1283571283817B107D3A023177
:102F7B005D7B057D107C007F3A02316512836B808F
:102F8B0005C333CE33CED8F9128378601112835731
:102F9B001283817B087D257F0112915680057D0868
:102FAB0012320B90036F12836E8005C333CE33CE78
:102FBB00D8F9128378600B12835712838112321562
:102FCB0080031231ED90037012836E8005C333CEF4
:102FDB0033CED8F9128378600D1283571283817B1D
:102FEB00197D3A02315D1283C802316512836B8001
:102FFB0005C333CE33CED8F9128378600D128357C5
:10300B001283817D1012320380031231A390036F60
:10301B0012836E8005C333CE33CED8F9128378601A
:10302B000B1283571283811231F980031231B9903D
:10303B00037012836E8005C333CE33CED8F912835F
:10304B0078600D1283571283817B197D3A02315DB3
:10305B001283C802316512836B8005C333CE33CE26
:10306B00D8F9128378600B1283571283811231AF18
:10307B00800312317590036F12836E8005C333CEBC
:10308B0033CED8F912837860111283571283817B68
:10309B00107D3A7F01129156800B7B057D107C00D1
:1030AB007F3A1283FF90037012836E8005C333CE79
:1030BB0033CED8F9128378600D1283571283817B3C
:1030CB00197D1002315D7B057D197C007F1002316B
:1030DB006512836B8005C333CE33CED8F912837858
:1030EB00600B1283571283811231AF80031231753B
:1030FB0090036F12836E8005C333CE33CED8F91293
:10310B008378600B1283571283811231F98003127B
:10311B0031B990037012836E8005C333CE33CED892
:10312B00F9128378600B1283571283811232158048
:10313B00031231ED90037112836E8005C333CE33CE
:10314B00CED8F9128378600F1283571283817B19C3
:0D315B007D3A7F010291561283C81283FF56
:10316800227B057D077C007F101283FF227B057D73
:10317800087C007F101283FF227B057D0D7C007F79
:10318800101283FF227B057D077C007F3A1283FFA4
:10319800227B077D107F01129156227B057D107CD2
:1031A800007F101283FF227B087D107F0112915649
:1031B800227B057D087C007F3A1283FF227B0D7DF0
:1031C800107F01129156227B057D157C007F10121D
:1031D80083FF227B077D3A7F01129156227D107F63
:1031E80001129156227B057D197C007F101283FF06
:1031F800227B087D3A7F01129156227B0D7F0112B6
:103208009156227B057C007F251283FF227B197D46
:07321800107F011291562204
:10993200E4FF12A37790036BE024FE601104702908
:1099420012996C12835774A3F0A37446800C129977
:109952006C12835774A3F0A37449F0E4FB7D017F7A
:10996200011291567FFF12A739227F0312A7397F76
:059972000412A73622DB
:10A2A500E4FF12A377900373E030E1127B017A0398
:10A2B500797312321F7B017A037973126DE312A74A
:06A2C50002E4FF029D3CD3
:1016F80000000000000000000000000000000000E2
:1017080000000000000000000000000000000000D1
:10171800003E007E00FE01CE038E7F8E7F8E738E8C
:10172800738E738E7F8E7F8E01CE00FE007E003E0C
:1017380000000000020006000E001E003FFE7FFEB3
:101748007FFE3FFE1E000E000600020000000000A3
:101758000000000000400060007000787FFC7FFE01
:101768007FFE7FFC007800700060004000000000F1
:10177800000003C003C003C003C003C003C003C00C
:1017880003C03FFC1FF80FF007E003C00180000012
:1017980003C003C007E007E00E700E701C381C3849
:1017A800381C381C7FFE7FFE700E700E700E700E97
:1017B8007FF87FFC383E381E381E381E383C3FF80C
:1017C8003FF8383C381E381E381E383E7FFC7FF8FC
:1017D8000FF81FFC3C1C380E780E700E700070005D
:1017E80070007000700E700E380E3C1C1FFC0FF855
:1017F8007FF07FF07078703C703C703C70787FF0C0
:101808007FE0778073C071E070F07078703C701E74
:1018180000006006700E781E7C3E7FFE77EE73CE69
:10182800718E700E700E700E700E700E700E700E3F
:1018380000001FF81FF800E000E000E000E000E012
:1018480000E000E000E070E079E03FC01F800F009A
:1018580000000000000003C007800F001E003FFCCE
:101868003FFC1E000F00078003C0000000000000BE
:1018780000000000000003C001E000F000783FFC19
:101888003FFC007800F001E003C000000000000009
:1018980000000000018001800180018011881998F2
:1018A8001DB81FF80FF007E003C00180000000001A
:1018B800003E007E00FE01CE038E7F8E7F8E738EEB
:1018C800738E738E7F8E7F8E01CE00FE007E003E6B
:1018D800700E700E700E700E700E700E781E381C22
:1018E800381C1C381C380E700FF007E003C001804C
:1018F8000000380038003800380038003800380058
:1019080038003800380038063806380E3FFE3FFEEB
:101918000000000000000000000003800FE01C70C1
:10192800183038383838383818301C700FE00380D1
:101938000000000000000000000003C00FF01C3889
:101948001C000F0007E000F000381C380FF003C03F
:10195800000000000000000000000000000000007F
:10196800000000000000000000000000000000006F
:10197800000000000000000000000000000000005F
:10198800000000000000000000000000000000004F
:10199800000000000000000000000000000000003F
:1019A800000000000000000000000000000000002F
:1019B800000000000000000000000000000000001F
:1019C800000000000000000000000000000000000F
:1019D80000000000000000000000000000000000FF
:1019E80000000000000000000000000000000000EF
:1019F80000000000000000000000000000000000DF
:101A080000000000000000000000000000000000CE
:101A180000000000000000000000000000000000BE
:101A280000000000000000000000000000000000AE
:101A3800000000000000000000000000000000009E
:101A4800000000000000000000000000000000008E
:101A5800000000000000000000000000000000007E
:101A6800000000000000000000000000000000006E
:101A7800000000000000000000000000000000005E
:101A8800000000000000000000000000000000004E
:101A9800000000000000000000000000000000003E
:101AA800000000000000000000000000000000002E
:101AB800000000000000000000000000000000001E
:101AC800000000000000000000000000000000000E
:101AD80000000000000000000000000000000000FE
:101AE80000000000000000000000000000000000EE
:101AF80000000000000000000000000000000000DE
:101B080000000000000000000000000000000000CD
:101B1800000007000F800F800F800F80070007006C
:101B28000700020002000000020007000700020090
:101B38000000EE006600440088000000000000007D
:101B4800000000000000000000000000000000008D
:101B5800000008200820082008203FF80820082056
:101B68000820082008203FF808200820082008201E
:101B780000000FC01B603330333033001B000F00F0
:101B880003C0036013303B3033301B600FC00300C9
:101B980000003808441084200440048009001270B2
:101BA800E4880908120822084210822001C00000B7
:101BB80000000E001B00318031801B000E001C004D
:101BC8003678632061A060E0606030F01F9C000000
:101BD80000000000000000000000000000000000FD
:101BE800000000000000800060007000380018004D
:101BF8000000000400080018001000300030003019
:101C08000030003000300010001800080004000206
:101C180000008000400060002000300030003000EC
:101C280030003000300020006000400080000000DC
:101C3800000002004210222012400A800700FFFC28
:101C480007000A8012402220421002000200000011
:101C580000000000030003000300030003007FF8F6
:101C68007FF80300030003000300030000000000E6
:101C7800000000000000000000000000000000005C
:101C8800000018003C003C00180010002000400034
:101C980000000000000000000000000000007FF8C5
:101CA8007FF80000000000000000000000000000B5
:101CB800000000000000000000000000000000001C
:101CC8000000000000007800840084008400780090
:101CD800000000180030006000C00180030006000A
:101CE8000C00180030006000C000800000000000F8
:101CF80000000FE0183030183038307830D831987C
:101D0800331836183C183818301818300FE000000F
:101D18000000030007000F00030003000300030096
:101D28000300030003000300030003001FE000009A
:101D380000000FE01830301830183038007001C03B
:101D480003000E001800300830083FF83FF8000084
:101D5800000007C0183030183018003000E003C009
:101D680000E00030001830183018183007C00000A4
:101D7800000000C001C003C006C00CC018C030C0BD
:101D880060C0C0C0C0C0FFF800C000C003F00000C1
:101D980000003FF03FF030003000300037C03830EE
:101DA80030180018001830183018183007C0000014
:101DB800000007E01830303030003000300037E0E5
:101DC8003830301830183018301818300FC000006C
:101DD80000003FF83FF8201820180030006000C0CD
:101DE8000180030003000300030003000300000058
:101DF80000000780186030303030303018600FC075
:101E08001860303060186018601830300FC000005B
:101E1800000007801860303030183018301830381B
:101E2800187807980018303038301860078000009C
:101E3800000000000000000003000780030000000D
:101E480000000300078003000000000000000000FD
:101E580000000000000000000300078003000000ED
:101E680000000300078003800180070000000000D5
:101E780000000000001800600180060018006000E3
:101E88008000600018000600018000600018000053
:101E9800000000000000000000007FF87FF800004C
:101EA80000007FF87FF8000000000000000000003C
:101EB8000000800060001800060001800060001823
:101EC800000400180060018006001800600080000F
:101ED800000007800FC01CE038E038E011C0018026
:101EE80003000300020002000000020007000700D0
:101EF80000000FC030604010478888C890C890C85C
:101F080090C890C888D84770400830700FC000004B
:101F1800000003000300078007800CC00CC0186095
:101F280018601FE03030303060186018F03C000056
:101F380000003F80186018301830183018601FC033
:101F48001860183018181818181818303FC00000F2
:101F58000000078818683038601860086000600062
:101F6800600060006008601830301860078000006A
:101F780000007F8030E030383018301830183018C2
:101F88003018301830183018303030E07F800000BA
:101F980000003FF0183018101800188018801F80B3
:101FA8001880188018001800181018303FF000002A
:101FB80000003FF0183018101800188018801F8093
:101FC8001880188018001800180018003C0000003D
:101FD80000000F90187030306010601060006000D2
:101FE8006078603060306030307018F00FB00000FA
:101FF80000007878303030303030303030303FF0DA
:102008003030303030303030303030307878000098
:1020180000000FC0030003000300030003000300D7
:102028000300030003000300030003000FC00000C7
:10203800000001F000600060006000600060006067
:10204800006000603060306030E019C00F000000B0
:10205800000078F8306030C03180330036003C0032
:102068003E003300318030C030603030787C000072
:1020780000003C001800180018001800180018008C
:102088001800180018001808181818383FF8000029
:102098000000E03CE038F078F078D8D8D8D8C89874
:1020A800CD98CD98C518C718C218C018E07C000094
:1020B8000000C078E030F030F830DC30CE30C73087
:1020C800C3B0C1F0C0F0C070C030C030E0780000CC
:1020D80000000FC0387070386018601860186018F9
:1020E8006018601860186018703838700FC00000E9
:1020F80000003FC0187018381818181818381870C9
:102108001FC0180018001800180018003C00000034
:1021180000001F8070E0E070C030C030C030C030B8
