:03000000026DD9B5
:0C6DD900787FE4F6D8FD758130026E2052
:0B834700E02495F582E43402F5832267
:1081F000C2BCD2AC759852758DFAE4F58BD28E90D4
:0682000002F9F0A3F022D8
:1082B6009002F9E0FFA3E0B507037F00227F0122C9
:1081BE009002F9128347E0FF9002F9E004F0E0C369
:0881CE0094644002E4F0D2AC1D
:0181D6002286
:080003003099FD8F99C299228A
:03002300027F1B3E
:107F1B00C0E0C083C082C0D0309819C2989002FADA
:107F2B00128347E599F09002FAE004F0E0C3946401
:0D7F3B004002E4F0D0D0D082D083D0E032FC
:107CF200E0F580D2A3E490033DF0A3F022C3900309
:107D02003DE094002290033DE004F0229001E4E083
:107D1200FBA3E0FAA3E0F922EDF0A3EBF0E4FFC24B
:0C7D2200AF22D2B6D2B77580FFD2AF22DC
:1073E40090020E127D1A12838990020EE0FF70063D
:1073F400C2B7C2B68012EFB40106C2B7D2B68008D3
:10740400EFB40204D2B7C2B690020F127CF2127C1F
:10741400FF500BA3E004F070F5127D0780F0C2A3C7
:10742400900210E0F580C2A1127CF7127CFF500B91
:10743400A3E004F070F5127D0780F0D2A1128389D5
:04744400127D24226F
:106F73009001D8127D1A1283899001D8E0FF700620
:106F8300C2B7C2B68012EFB40106C2B7D2B6800848
:106F9300EFB40204D2B7C2B69001D9E0FF04F08F78
:106FA30080127CF5127CFF500BA3E004F070F51205
:106FB3007D0780F0C2A39001DAE0FBA3E475F00142
:106FC300122B41A9F0FA122A6CF580C2A1127CF7A8
:106FD300127CFF500BA3E004F070F5127D0780F0E4
:106FE300D2A19001DDE014F070AE128389127D24EA
:016FF300227B
:0B6E6500900209EFF0A3EDF0A3EBF0AA
:106E7000C2AF128389E4900209F0A3E0FF7006C25A
:106E8000B7C2B68012EFB40106C2B7D2B68008EF1F
:106E9000B40204D2B7C2B690020B127CF2127CFF8D
:106EA000500BA3E004F070F5127D0780F0C2A375CB
:106EB00080FF127CF7127CFF500BA3E004F070F50A
:106EC000127D0780F0C2A290020CE580F0127CF7E0
:106ED000127CFF500BA3E004F070F5127D0780F0E8
:106EE000D2A2128389D2B6D2B7D2AF90020CE0FF01
:016EF000227F
:10779B009001E4EBF0A3EAF0A3E9F0127D0E122BBB
:1077AB0057F47003E5F0F46038122B57FBAAF0EA9C
:1077BB00FDE4FF126E65127D0E900002122A85FC0D
:1077CB006F6012122B57FBAAF0EAFD900210ECF03F
:1077DB00E4FF1273E49001E5E475F003122B2B80A8
:0277EB00BA22C0
:0100290022B4
:1071600025627820256278202562782025627820A3
:1071700000256264200025627820256278206368FB
:107180002562783A2562782063682562783A25621C
:10719000782063682562783A2562782063682562E2
:1071A000783A2562782000627573770079766D6988
:1071B00078006873636F6D006D6F64650037003829
:1071C0000030313233343536373839414243444563
:0271D000460077
:0454AC0041035C005C
:106EF10012002A9001D5E0FBA3E0FAA3E0F922A356
:106F0100F0A37401F0A322FFE0244DF582E43403E1
:106F1100F583EFF022E0FF9001E17401F0A3740327
:106F2100F0A37449F07B017A03794422EBF0A3EAE0
:106F3100F0A3E9F022A3F0A3E4F0A322900001E47E
:106F410075F001022B829001E074FFF0A322A3F0FF
:106F5100A3E4F0A322E05401FB7D2022250BF50BD5
:106F6100A3E0540322122DD4022A6CA3F0A3E4F06F
:026F7100A32259
:1071D2009001E3126F2DA3126EF7126F667002FF19
:1071E200229001E6126EF7126F66B4200B9001E650
:1071F200126EF7126F3D80E99001E6126EF7122DC2
:10720200D4C003C002C0019001E3126EF7122DF444
:1072120080239001E6126EF7126F66FEB42010E42E
:10722200122AB29001E6126EF7126F3D7F0122EE32
:1072320070037F01229001E6126EF7126F3D80D239
:067CB5009001DD126F2DAD
:107CBB00E4F508F5099001DD126EF7122A6C6022CB
:107CCB009001DDA3E475F001122B41A9F0FA122A01
:107CDB006CFF3395E0FEEF2509F509EE3508F50845
:067CEB0080D3AE08AF09D2
:017CF1002270
:01002A0022B3
:107A9500E4F50B900344E05403126F5D25E025E007
:107AA500126F5DC454F0126F5DC4333354C0250B9F
:107AB500F50B900343E0B5070D900348E0B50B06C1
:107AC500E4900353F0229003537401F0900348E5CA
:077AD5000BF0900343EFF0FA
:017ADC002287
:10783D00E4F508F509F50AF50BC003C002126F4710
:10784D007471F07460126F367400F07408126F3634
:10785D007400F07409126F4F7400F0740A126F4FB8
:10786D007400F0A3740BF0D002D003124303900206
:0D787D0010E50BF0AB0AAD09E4FF0273E467
:10818A00126F477471F07471126F6C7400F0A374FB
:0A819A0008F0124303AF080282311F
:06737F009001DD126F2DEC
:107385001273C9126EF71265A58F081273C9126EB2
:10739500F71265A58F097F041200267F031283BAB1
:1073A5007F0512814E9001DDE0F9A3E0FAA3E0909C
:1073B50001E6C9126F2EAB09AD087F011276357F44
:0473C50005027E1728
:1073C9009001E67401F0A37401F0A374DDF07B0170
:0B73D9007A0179E01271D29001E022ED
:1058E100C003C002C001126F477471F07476126F69
:1058F1006C7400F0A37409F0A3E4F0A37400F074D5
:105901000A126F007403F07444126F007403F0A361
:105911007449126F017403F0A37445126F0174038B
:10592100F0A3744A126F017403F0A37446126F015D
:105931007403F0A3744B126F017403F0A374471244
:105941006F017403F0A3744CF0D001D002D00312A4
:105951004303E509C454F0FF900340E0FEC4333330
:105961003354802FFFE50A540F2F900352F0900318
:1059710049E0900344126F0890034AE090034512F6
:105981006F0890034BE0FF900346126F0990034CA0
:10599100E0FF900347126F0990034D126F56E4FF29
:1059A100127BF690034E126F567F01127BF6900325
:1059B1004F126F567F02127BF6900350126F567F83
:1059C10003127BF67B017A03794D125A3790035209
:1059D100126F161245D4900352E0FF126F26124E39
:1059E10070E4F50874492508F582E43403F583125F
:1059F1006F56AF08127DA50508E508C3940440E47D
:105A0100E4F525F526F5277528057F0112835C90BD
:105A11000352E0FF127A957F08127E83E4FF128120
:105A2100A4127B6C7B017A037949123F0C900352DB
:055A3100E090035CF0B1
:015A3600224D
:1072AF00E4FF1278D6EFB40202C322900340E0B598
:1072BF000702D322900340EFF0E0C43333335480FE
:1072CF00FF900343E0547F4FF07F01127E1790032E
:1072DF0040E0FF1274487B017A03794D125A3790C0
:1072EF000343126F161245D4900343E0FF126F262B
:1072FF00124E70E4FF1281A4127B6C7B017A03792A
:08730F0049123F0C1280C5D3A6
:017317002253
:10820600126F477471F0A37471126F017403F0A3B7
:068216007441F002430375
:066002009001D5126F2D84
:106008009001E67401F0A37401F0A374D5F07B014C
:106018007A0179DA1271D29001DA126EF7127CB530
:106028009001D8EEF0A3EFF07A7179A71260ECB581
:10603800060EA3E0B50709126EF412783D0260E976
:106048007A7179AC1260ECB5060EA3E0B5070912B7
:106058006EF112818A0260E97A7179B21260F6B53E
:106068000616A3E0B50711126EF11258E11280C5A9
:10607800E4FF12835C0260E97A7179B81260F6B5C0
:10608800060DA3E0B50708126EF112820680527A57
:106098007179BD126100E0B5060FA3E0B5070A905B
:1060A800027DE0900293F080387A7179BF12610026
:1060B800E0B50612A3E0B5070D127EB790027DE0A9
:1060C800FF127F48801B7BFF7A7179C1127CB590E3
:1060D80001D8E0B5060BA3E0B50706126EF41273FB
:0360E8007F7F01B6
:1060EB00227BFF127CB59001D8E0227BFF127CB59E
:0E60FB009001D8E0227BFF127CB59001D822E4
:104C9D00FFF3EDE8E2DE62757377203020312041BD
:104CAD00312031316275737720302031204132202F
:104CBD00443779766D69782034206D6F64652030C6
:104CCD00206873636F6D20312031206368303A3175
:104CDD0030206368313A3030206368323A3030200A
:104CED006368333A3030206873636F6D2031203143
:104CFD00206368323A3130206368313A30302063B6
:104D0D0068303A3030206368333A3030206873634E
:104D1D006F6D20312031206368313A313020636866
:104D2D00303A3030206368323A3030206368333A9D
:104D3D003030206873636F6D20322032206368320B
:104D4D003A3130206368303A3130206368313A307F
:104D5D0030206368333A3030206873636F6D2032D2
:104D6D002032206368303A3130206368323A313076
:104D7D00206368313A3030206368333A3030206830
:104D8D0073636F6D20322032206368313A313020E9
:104D9D006368303A3130206368323A3030206368CE
:104DAD00333A3030206873636F6D203120312063CA
:104DBD0068313A3130206368303A303020636832E0
:104DCD003A3030206368333A3030206873636F6D4A
:104DDD0020322032206368313A3130206368323A14
:104DED003130206368303A3030206368333A3030E8
:104DFD00206873636F6D20322032206368323A3140
:104E0D0030206368313A3130206368323A303020D7
:104E1D006368333A3030206873636F6D203320330D
:104E2D00206368303A3130206368313A3130206385
:104E3D0068323A3130206368333A3030206873631A
:104E4D006F6D20312031206368333A303020636834
:104E5D00313A3030206368323A3030206368303A6E
:034E6D00303020C2
:1054B000C1244403360000000041033A0041033B8D
:1054C00000410335014103340241033201410333FA
:1054D000004103290042032A000042032C0000423D
:1054E000032E000042033000004102FD014102FC96
:0954F0000041033C004102FB00F5
:1068F4007D017BFF7E007F26022A4678FE7C027D96
:10690400017B0122900219E0FE74112FF582E43418
:1069140002F5832274DF2FF582E43401F583E0224B
:10692400900006E0FAA3E0FB7C00FFAE02022AD648
:106934007C00AF03AE02122AD6900006ECF0A3ED61
:10694400F0227D017BFF7E007F0E022A46E4F0A345
:10695400F0A3F0A322E508F090027BE004F0227D8E
:10696400017BFF7E00022A46900009E0F8A3E0F9CB
:10697400A3E0FAA3E0FB22E412283B900009022DD5
:1069840057F0A37420F0A37403F0E4A3F022900260
:10699400117402F0A37432F0A322900335F0900333
:1069A400342234FFFE7C007D06022AD690027BE06E
:0369B40024112289
:106680001282B6EF6401600302674F43E11012818A
:10669000BE8F08E508B40218900248E0701290021C
:1066A0007B04F0900211E508F09002487401F0229A
:1066B000E5086403702A900212E0FF64526004EF60
:1066C000B4531D9002FBE0701790027BE0FFD3945F
:1066D00003500D9002FB7401F012690D12695922EA
:1066E000E508B4031B90024CE070151269B0126902
:1066F0001012695990024C7401F0E49002FBF022F0
:1067000090024CE0640170351269B0126910E5081E
:10671000F07B017A027911124AB9EF602F900328B9
:106720007401F0900212E09002FEF0E4A3F09002F7
:1067300013E090027DF09003277402F0221269B0FA
:10674000126910126959E0D39408400A02809FE44C
:06675000900330F0A3F0FD
:016756002220
:10809F00E4900248F090024CF090027BF0900211B5
:1080AF00126952126952F0A3F0A3F0900327F0A3C4
:0680BF00F09002FEF02229
:09835C00EF6003C20122D20122EC
:0C833B00C200C201C223E490035EF022E5
:0877ED00900007EEF0A3EFF09D
:1077F500900007E07002A3E0603DE4900009F0A36B
:10780500F0900009E0FEA3E0FFE4FCFD7B1BFAF924
:10781500F8D3122D19401090000AE004F070E290A0
:107825000009E004F080DA900008E024FFF0900001
:0778350007E034FFF080B909
:01783C002229
:1053310090000012695174C8F0A37464F0E4A3F002
:105341001279B71282D612833B12809FE4FF128238
:10535100C6126FF47F4D123B8F127510752B0075BD
:105361002C28752D01752EE090032A7401F0A37489
:10537100E0F0752F00753004A37407F0A304F07FEB
:10538100981283AEEF5410FFC4540F900005F01231
:105391006680900328E0B401097B017A0279FE124C
:1053A1006002900328E0B4010312809F30230712AA
:1053B10072AF5002C2231282B6EF6009900003E07F
:1053C100752700F528E52864014527700DF527F5B7
:1053D10028900004E0752500F526E52664014525A1
:1053E100701E900248E07018127B25900293E0FF36
:1053F100900291E06F6003123B8F752500752614B2
:10540100E5306401452F7019900254E0C3940140C6
:1054110010900240E0B40109752F0075300412614B
:1054210009E52C6401452B703C900254E0703690E4
:105431000240E0B4012F900329E0FF74017E00A82F
:1054410007088005C333CE33CED8F9FF127D6A90A9
:105451000329E004F0752B00752C28E0C394064065
:1054610007E4F08003127EE990032AE07004A3E0D0
:105471006401700F900234F0A3F090032A04F0A3AA
:1054810074E0F090032CE07004A3E06401701690C6
:105491000240E0B4010F900005E0FF127A4BE49066
:0B54A100032CF0A3F043E11002539035
:1079B700E4F5B8F5A8F58775E127F5D0758922F5BF
:1079C700881281F012836512816DE4F58EF5A2D2DB
:1079D70099D2AF00F593F5944391035392FCF59533
:1079E700F596F5B1F5B2F5B375B404C2E9C292C222
:0A79F70093C294C295C296C2972273
:086826009001DDEFF0A3EDF09D
:10682E0078DF7C017A4C799D7F061269639001DDD9
:10683E00E014603014604714605E146075147003C9
:10684E000268DA240560030268F3E4F5EA9001DEDB
:10685E00E0FF7004F5DA800375DA42126918F5FA72
:10686E00E4F5F222E4F5EB9001DEE0FF7004F5DBD7
:10687E00800375DB42126918F5FBE4F5F322E4F5AB
:10688E00EC9001DEE0FF7004F5DC800375DC421253
:10689E006918F5FCE4F5F422E4F5ED9001DEE0FF75
:1068AE007004F5DD800375DD42126918F5FDE4F51F
:1068BE00F522E4F5EE9001DEE0FF7004F5DE8003D4
:1068CE0075DE42126918F5FEE4F5F622E4F5EF9056
:1068DE0001DEE0FF7004F5DF800375DF42126918F8
:0568EE00F5FFE4F5F7E1
:0168F3002282
:0F82D600E4F5E9F5F975D90475D84043A680227F
:053B8F00900006EFF0BC
:103B940078077C007A4C79A312694678157C007A00
:103BA4004C79B112694678237C007A4C79BF7F083E
:103BB400126963782B7C007D017BFF7A4C79C77E88
:103BC400007F07122A4678327C007A4C79CE12683C
:103BD400F478587C007A4C79F41268F4787E7C008E
:103BE4007D017BFF7A4D791A1268F878A47C007DF8
:103BF400017BFF7A4D79401268F878CA7C007D0118
:103C04007BFF7A4D79661268F878F07C007D017B41
:103C1400FF7A4D798C1268F878167C017D017BFF60
:103C24007A4D79B21268F8783C7C017D017BFF7A89
:103C34004D79D81268F878627C017D017BFF7A4D5A
:103C440079FE1268F878887C017D017BFF7A4E79D1
:103C5400241268F878AE7C017D017BFF7A4E794AA4
:103C64001268F8E49001D4F0900006E0FE24B6FF58
:103C7400C3940A400674FC2FFF8005E490027EF092
:103C8400900291EEF0EFB40800506E903C96F82844
:103C94002873023CAE023CB3023CBA023CC0023C74
:103CA400CD023CDA023CE5023CF290033B804DE459
:103CB40090033BF08049E490024B800590024B74E2
:103CC40001F090033504F0803690024A7401F090BC
:103CD400033574048010E490024AF09003350480A4
:103CE4000590027E7414F0E4900283F08011900237
:103CF4007E7441F090028380039003357401F09048
:103D0400027EE0FFC39401400890033AEFF0023DC5
:103D1400D190033BE06401706B90024BE06401704E
:103D24002B900283E0B40105900335800A90024A87
:103D3400E0900335B4010B7402F09003347404F082
:103D440080337402F090033414F08029900283E0ED
:103D5400B40105900335800A90024AE0900335B41B
:103D6400010B7404F09003347402F080087401F0C1
:103D740090033404F0900335E0C454F0FF9003340E
:103D8400E04F804590024BE0600D9003357402F0E3
:103D9400E0FFC454F0803290024AE0B4011074048D
:103DA40012699E7402F0A3E0FFC454F0801B9002D9
:103DB40083E0600890033A7441F080117401126941
:103DC4009E04F0A3E0FFC454F090033AF090033251
:103DD400E060191282809002107411F07BA1123FEE
:103DE4000490021074D7F07BA2123F0490033AE0CF
:103DF400122E433E16103E3D123E50143E18203EF5
:103E040047213E62243E16403E59413E7B4200001B
:103E14003E9480091268FF7A00795880071268FF7F
:103E24007A0079321268F89002107403F07B0F7DE7
:103E340001E4FF1273E4023E9E1268FF7A0079A443
:103E4400023E9B1268FF7A0079CA804B1268FF7A9F
:103E54000079F080421268FF7A017916803912687D
:103E6400FF7A0079CA1268F8900283E0602C126825
:103E7400FF7A01796280201268FF7A0079A41268BF
:103E8400F8900283E060131268FF7A01793C80079E
:103E94001268FF7A0079321268F8E4900332F07BFA
:103EA400017A0279FE12600290033AE0122E433E38
:103EB400D2103EDC123EE4143ED4203EE0213EEF1C
:103EC400243ED8403EE8413EF34200003EFE8000DE
:103ED400E4FF8012E4FF80197F01800A7F018006DD
:103EE4007F0180027F011270ED800F7F0180027FCD
:0F3EF400011270ED9001D47401F09001D4E0FF41
:093F0300227D01E4FF1273E422A7
:027F4800AB0785
:107F4A00E4FFFEEBC3943D4021EBD39461501BEB5D
:107F5A0024C3FFEE1269A6AA07EB24C3FFE4126941
:0A7F6A00A6AE05AF021268267F01E3
:017F740022EA
:10769300E4FBFAFD7F90127C36EEC4F854F0C86820
:1076A300FEEFC4540F48FFEEC4F854F0C868FAEF75
:1076B300C4540F48FB2091047A007B637C007D0A4D
:1076C300AF03AE02122AD6D3ED9409EC940050070F
:1076D300ED2430900227F0AE02AF037C007D0A1246
:0976E3002AD6EF243090022CF0AD
:0176EC00227B
:1062F600900006126951122D6300000000E4FF129F
:10630600812E900006EEF0A3EFF0E024E1F090007D
:1063160006E034FFF0E0FCA3E0FD12697B7F007E1F
:10632600807D8C7CC312696C12259F7B007A8079F4
:106336008C78431227997B9A7A9979CA78421226E1
:106346009012697FE4FFFE7D207C4112696C122663
:1063560090122874AD07AC0612693D12697B900055
:1063660006E0FEA3E0FFC394EBEE94034015D3EFE3
:1063760094FFEE9403500C9000067403F0A374F59A
:10638600F08013D3EF940FEE9427400A9000067422
:1063960027F0A3740FF0900006E0FAA3E0FB7C035D
:1063A6007DE812692EEF2430900221F07C037DE80F
:1063B6001269367D64126924EF2430900220F07D44
:1063C600641269347D0A126924EF243090021FF0AA
:0B63D6007D0A126934243090021EF092
:0163E1002299
:107746001269927450F0A37430F0A37461F0A374BC
:107756006412698590000CF090000CE0FFD394074A
:107766005013126908E0FFEE6F900219F090000CBA
:10777600E004F080E3E490000CF090000CE0FFD30E
:107786009408501012690DE0FF12000390000CE0FF
:0477960004F080E695
:01779A0022CC
:10757300126992744FF0900245E0900214F0900269
:1075830046E0900215F0900247E0900216126985DA
:1075930090000CF090000CE0FFD394075013126995
:1075A30008E0FFEE6F900219F090000CE004F08009
:1075B300E3E490000CF090000CE0FFD3940850102B
:1075C30012690DE0FF12000390000CE004F080E666
:0175D3002295
:10002E001010FFFFFFFFFFFFFFFFFFFFFFFFFFFFB0
:10003E00FFFFFFFFFFFFFFFFFFFFFFFFFFFFFFFFC2
:10004E00FFFFFFFFFFFFFFFFFFFFFFFFFFFFFFFFB2
:10005E00FFFFFFFFFFFFFFFFFFFFFFFFFFFFFFFFA2
:10006E00FFFFFFFFFFFFFFFFFFFFFFFFFFFFFFFF92
:10007E00FFFFFFFFFFFFFFFFFFFFFFFFFFFFFFFF82
:10008E00FFFFFFFFFFFFFFFFFFFFFFFFFFFFFFFF72
:10009E00FFFFFFFFFFFFFFFFFFFFFFFFFFFFFFFF62
:1000AE00FFFFFFFFFFFFFFFFFFFFFFFFFFFFFFFF52
:1000BE00FFFFFFFFFFFFFFFFFFFFFFFFFFFFFFFF42
:1000CE00FFFFFFFFFFFFFFFFFFFFFFFFFFFFFFFF32
:1000DE00FFFFFFFFFFFFFFFFFFFFFFFFFFFFFFFF22
:1000EE00FFFFFFFFFFFFFFFFFFFFFFFFFFFFFFFF12
:1000FE00FFFFFFFFFFFFFFFFFFFFFFFFFFFFFFFF02
:10010E00FFFFFFFFFFFFFFFFFFFFFFFFFFFFFFFFF1
:10011E00FFFFFFFFFFFFFFFFFFFFFFFFFFFFFFFFE1
:10012E00FFFF1010FFFFFFFFFFFFFFFFFFFFFFFFAF
:10013E00FFFFFFFFFFFFFFFFFFFFFFFFFFFFFFFFC1
:10014E00FFFFFFFFFFFFFFFFFFFFFFFFFFFFFFFFB1
:10015E00FFFFFFFFFFFFFFFFFFFFFFFFFFFFFFFFA1
:10016E00FFFFFFFFFFFFFFFFFFFFFFFFFFFFFFFF91
:10017E00FFFFFFFFFFFFFFFFFFFFFFFFFFFFFFFF81
:10018E00FFFFFFFFFFFFFFFFFFFFFFFFFFFFFFFF71
:10019E00FFFFFFFFFFFFFFFFFFFFFFFFFFFFFFFF61
:1001AE00FFFFFFFFFFFFFFFFFFFFFFFFFFFFFFFF51
:1001BE00FFFFFFFFFFFFFFFFFFFFFFFFFFFFFFFF41
:1001CE00FFFFFFFFFFFFFFFFFFFFFFFFFFFFFFFF31
:1001DE00FFFFFFFFFFFFFFFFFFFFFFFFFFFFFFFF21
:1001EE00FFFFFFFFFFFFFFFFFFFFFFFFFFFFFFFF11
:1001FE00FFFFFFFFFFFFFFFFFFFFFFFFFFFFFFFF01
:10020E00FFFFFFFFFFFFFFFFFFFFFFFFFFFFFFFFF0
:10021E00FFFFFFFFFFFFFFFFFFFFFFFFFFFFFFFFE0
:10022E00FFFFFFFF1010FFFFFFFFFFFFFFFFFFFFAE
:10023E00FFFFFFFFFFFFFFFFFFFFFFFFFFFFFFFFC0
:10024E00FFFFFFFFFFFFFFFFFFFFFFFFFFFFFFFFB0
:10025E00FFFFFFFFFFFFFFFFFFFFFFFFFFFFFFFFA0
:10026E00FFFFFFFFFFFFFFFFFFFFFFFFFFFFFFFF90
:10027E00FFFFFFFFFFFFFFFFFFFFFFFFFFFFFFFF80
:10028E00FFFFFFFFFFFFFFFFFFFFFFFFFFFFFFFF70
:10029E00FFFFFFFFFFFFFFFFFFFFFFFFFFFFFFFF60
:1002AE00FFFFFFFFFFFFFFFFFFFFFFFFFFFFFFFF50
:1002BE00FFFFFFFFFFFFFFFFFFFFFFFFFFFFFFFF40
:1002CE00FFFFFFFFFFFFFFFFFFFFFFFFFFFFFFFF30
:1002DE00FFFFFFFFFFFFFFFFFFFFFFFFFFFFFFFF20
:1002EE00FFFFFFFFFFFFFFFFFFFFFFFFFFFFFFFF10
:1002FE00FFFFFFFFFFFFFFFFFFFFFFFFFFFFFFFF00
:10030E00FFFFFFFFFFFFFFFFFFFFFFFFFFFFFFFFEF
:10031E00FFFFFFFFFFFFFFFFFFFFFFFFFFFFFFFFDF
:10032E00FFFFFFFFFFFF1010FFFFFFFFFFFFFFFFAD
:10033E00FFFFFFFFFFFFFFFFFFFFFFFFFFFFFFFFBF
:10034E00FFFFFFFFFFFFFFFFFFFFFFFFFFFFFFFFAF
:10035E00FFFFFFFFFFFFFFFFFFFFFFFFFFFFFFFF9F
:10036E00FFFFFFFFFFFFFFFFFFFFFFFFFFFFFFFF8F
:10037E00FFFFFFFFFFFFFFFFFFFFFFFFFFFFFFFF7F
:10038E00FFFFFFFFFFFFFFFFFFFFFFFFFFFFFFFF6F
:10039E00FFFFFFFFFFFFFFFFFFFFFFFFFFFFFFFF5F
:1003AE00FFFFFFFFFFFFFFFFFFFFFFFFFFFFFFFF4F
:1003BE00FFFFFFFFFFFFFFFFFFFFFFFFFFFFFFFF3F
:1003CE00FFFFFFFFFFFFFFFFFFFFFFFFFFFFFFFF2F
:1003DE00FFFFFFFFFFFFFFFFFFFFFFFFFFFFFFFF1F
:1003EE00FFFFFFFFFFFFFFFFFFFFFFFFFFFFFFFF0F
:1003FE00FFFFFFFFFFFFFFFFFFFFFFFFFFFFFFFFFF
:10040E00FFFFFFFFFFFFFFFFFFFFFFFFFFFFFFFFEE
:10041E00FFFFFFFFFFFFFFFFFFFFFFFFFFFFFFFFDE
:10042E00FFFFFFFFFFFFFFFF1010FFFFFFFFFFFFAC
:10043E00FFFFFFFFFFFFFFFFFFFFFFFFFFFFFFFFBE
:10044E00FFFFFFFFFFFFFFFFFFFFFFFFFFFFFFFFAE
:10045E00FFFFFFFFFFFFFFFFFFFFFFFFFFFFFFFF9E
:10046E00FFFFFFFFFFFFFFFFFFFFFFFFFFFFFFFF8E
:10047E00FFFFFFFFFFFFFFFFFFFFFFFFFFFFFFFF7E
:10048E00FFFFFFFFFFFFFFFFFFFFFFFFFFFFFFFF6E
:10049E00FFFFFFFFFFFFFFFFFFFFFFFFFFFFFFFF5E
:1004AE00FFFFFFFFFFFFFFFFFFFFFFFFFFFFFFFF4E
:1004BE00FFFFFFFFFFFFFFFFFFFFFFFFFFFFFFFF3E
:1004CE00FFFFFFFFFFFFFFFFFFFFFFFFFFFFFFFF2E
:1004DE00FFFFFFFFFFFFFFFFFFFFFFFFFFFFFFFF1E
:1004EE00FFFFFFFFFFFFFFFFFFFFFFFFFFFFFFFF0E
:1004FE00FFFFFFFFFFFFFFFFFFFFFFFFFFFFFFFFFE
:10050E00FFFFFFFFFFFFFFFFFFFFFFFFFFFFFFFFED
:10051E00FFFFFFFFFFFFFFFFFFFFFFFFFFFFFFFFDD
:10052E00FFFFFFFFFFFFFFFFFFFF1010FFFFFFFFAB
:10053E00FFFF00000000FFFFFFFFFFFFFFFFFFFFB9
:10054E00FF000000000000FFFFFFFFFFFFFFFFFFA7
:10055E000000020202020000FFFFFFFFFFFFFFFF8D
:10056E000000020202020000FFFFFFFFFFFFFF007C
:10057E00000202000002020000FFFFFFFFFFFF006B
:10058E00000202000002020000FFFFFFFFFF00005A
:10059E0002020000000002020000FFFFFFFF000049
:1005AE00020200FFFF0002020000FFFFFF00000238
:1005BE00020000FFFF000002020000FFFF00000229
:1005CE000200000000000002020000FF0000020214
:1005DE0002020202020202020202000000000202F5
:1005EE0002020202020202020202000000000202E5
:1005FE0000000000000000000202000000000202E5
:10060E000000FFFFFFFF00000202000000000202D8
:10061E000000FFFFFFFF00000202000000000000CC
:10062E000000FFFFFFFF00000000000010100000A0
:10063E00000000000000000000000000FFFF0002AC
:10064E0002020202020202020202000000FF000287
:10065E000202020202020202020202000000000076
:10066E000002020000000000020202020000FF0071
:10067E0000020200FFFFFF00000202020000FF0066
:10068E0000020200FFFFFF00000202020000FF0056
:10069E0000020200000000000202020000FFFF0044
:1006AE00000202020202020202020000FFFFFF002D
:1006BE00000202020202020202020000FFFFFF001D
:1006CE0000020200000000000202020000FFFF0014
:1006DE0000020200FFFFFF00000202020000FF0006
:1006EE0000020200FFFFFF000002020200000000F5
:1006FE0000020200000000000202020200000002DE
:10070E0002020202020202020202020000000002C3
:10071E0002020202020202020202000000FF0000B8
:10072E00000000000000000000000000FFFF10109D
:10073E00FFFFFF00000000000000000000FFFFFFB1
:10074E00FFFF00000202020202020202000000FF8E
:10075E00FF00000202020202020202020200000078
:10076E000000000202000000000000020202000071
:10077E0000000202020000FFFFFF00000202000064
:10078E00000002020000FFFFFFFFFF000202000058
:10079E00000002020000FFFFFFFFFFFF000000004D
:1007AE00000002020000FFFFFFFFFFFFFFFFFFFF41
:1007BE00000002020000FFFFFFFFFFFFFFFFFFFF31
:1007CE00000002020000FFFFFFFFFF00000000001C
:1007DE00000002020000FFFFFFFFFF000202000008
:1007EE0000000202000000FFFFFF000002020000F6
:1007FE0000000202020000000000000202020000DF
:10080E00FF000002020202020202020202000000C7
:10081E00FFFF00000202020202020202000000FFBD
:10082E00FFFFFF0000000000000000000000FFFFBF
:10083E001010000000000000000000000000FFFF8C
:10084E00FFFF00000202020202020202020000FF8B
:10085E00FFFF000002020202020202020202000078
:10086E00FFFF000002020000000000020202000072
:10087E00FFFF000002020000FFFF00000202000066
:10088E00FFFF000002020000FFFF00000202000056
:10089E00FFFF000002020000000000020202000042
:1008AE00FFFF00000202020202020202020000FF2B
:1008BE00FFFF00000202020202020202000000FF1D
:1008CE00FFFF000002020000020202000000FFFF14
:1008DE00FFFF000002020000000202020000FFFF04
:1008EE00FFFF00000202000000000202020000FFF3
:1008FE00FFFF000002020000FF00000202020000E3
:10090E00FFFF000002020000FFFF000002020200D3
:10091E0000FF000002020000FFFFFF0000020202C3
:10092E0000FF000000000000FFFFFFFF00000000BE
:10093E0000FF101000000000FFFFFFFFFFFFFFFF92
:10094E00000000000000000000FFFFFFFFFFFF009F
:10095E000000000000000C0C0000FFFFFFFF000075
:10096E000C0C000000000C0C0C0000000000000C31
:10097E000C0C000000000C0C0C0C000000000C0C09
:10098E000C0C000000000C0C0C0C0C0C0C0C0C0CC9
:10099E000C0C000000000C0C0C0C0C0C0C0C0C0CB9
:1009AE000C0C000000000C0C0C000C0C0C0C000CC1
:1009BE000C0C000000000C0C0C00000C0C00000CC9
:1009CE000C0C000000000C0C0C0000000000000CD1
:1009DE000C0C000000000C0C0C0000000000000CC1
:1009EE000C0C000000000C0C0C0000FFFF00000CB3
:1009FE000C0C000000000C0C0C0000FFFF00000CA3
:100A0E000C0C000000000C0C0C0000FFFF00000C92
:100A1E000C0C000000000C0C0C0000FFFF00000C82
:100A2E000C0C000000000000000000FFFF000000A2
:100A3E00000000001010FF00000000000000000089
:100A4E000000000000FFFF0000020202020202028C
:100A5E000202020000FFFF00000202020202020276
:100A6E000202020000FFFF00000000000000020270
:100A7E000200000000FFFFFFFFFFFFFF0000020269
:100A8E00020000FFFFFFFFFFFFFFFFFF000002025B
:100A9E00020000FFFFFFFFFFFFFFFFFF000002024B
:100AAE00020000FFFFFFFFFFFFFFFFFF000002023B
:100ABE00020000FFFFFFFFFFFFFFFFFF000002022B
:100ACE00020000FFFFFFFFFFFFFFFFFF000002021B
:100ADE00020000FFFFFFFF00000000FF0000020207
:100AEE00020000FFFFFFFF000202000000000202F2
:100AFE00020000FFFFFFFF000202020000020202DE
:100B0E00020000FFFFFFFF000002020202020202CB
:100B1E00000000FFFFFFFFFF0000020202020200C2
:100B2E000000FFFFFFFFFFFFFF00000000000000BE
:100B3E0000FFFFFFFFFF1010FFFFFFFFFFFFFFFF94
:100B4E00FFFFFFFFFFFFFFFFFFFFFFFFFF000000A4
:100B5E0000000000FFFFFFFFFFFFFFFF000001018D
:100B6E0001010000FFFFFFFFFFFFFF000001010179
:100B7E0001010000FFFFFFFFFFFF00000101010167
:100B8E00010000FFFFFFFFFFFF0000010101010157
:100B9E000000000000000000000001010101010141
:100BAE00010101010101000000010101010101012A
:100BBE00010101010101000000010101010101011A
:100BCE00010101010101000000000101010101010B
:100BDE000101010101010000FF00000101010101FD
:100BEE000000000000000000FFFF000001010101F5
:100BFE00010000FFFFFFFFFFFFFFFF0000010101EB
:100C0E0001010000FFFFFFFFFFFFFFFF00000101DA
:100C1E0001010000FFFFFFFFFFFFFFFFFF000000CD
:100C2E0000000000FFFFFFFFFFFFFFFFFFFFFFFFC2
:100C3E00FFFFFFFFFFFFFFFF1010FFFFFFFFFFFF94
:100C4E00FFFFFFFFFFFFFFFFFFFFFFFFFFFF0000A4
:100C5E000000000000FFFFFFFFFFFFFFFFFF00008F
:100C6E00010101010000FFFFFFFFFFFFFFFF00007A
:100C7E0001010101010000FFFFFFFFFFFFFFFF0069
:100C8E000001010101010000FFFF00000000000053
:100C9E00000001010101010000FF0000010101013E
:100CAE00010101010101010100000000010101012A
:100CBE000101010101010101010000000101010119
:100CCE00010101010101010101000000000000000D
:100CDE00000001010101010000FF00000000000002
:100CEE00000001010101010000FFFFFFFFFFFF00F7
:100CFE000001010101010000FFFFFFFFFFFF0000E7
:100D0E0001010101010000FFFFFFFFFFFFFF0000D7
:100D1E00010101010000FFFFFFFFFFFFFFFF0000C9
:100D2E000000000000FFFFFFFFFFFFFFFFFFFFFFC0
:100D3E00FFFFFFFFFFFFFFFFFFFF1010FFFFFFFF93
:100D4E000000000000000000FFFFFFFFFFFFFFFF9D
:100D5E000000010101010000FFFFFFFFFFFFFFFF89
:100D6E000000010101010000FFFFFFFFFFFFFFFF79
:100D7E000000010101010000FFFFFFFFFFFFFFFF69
:100D8E000000010101010000FFFFFFFF0000000055
:100D9E00000001010101000000000000000001013F
:100DAE00000001010101000001010000000001012D
:100DBE00010001010101000101010000000001011B
:100DCE000101010101010101010100000000010109
:100DDE00010101010101010101010000FF000001FB
:100DEE000101010101010101010000FFFFFF0000EF
:100DFE0001010101010101010000FFFFFFFFFF00E2
:100E0E00000101010101010000FFFFFFFFFFFFFFD5
:100E1E000000010101010000FFFFFFFFFFFFFFFFC8
:100E2E00FF000001010000FFFFFFFFFFFFFFFFFFBC
:100E3E00FFFF00000000FFFFFFFFFFFF1010FFFF8E
:100E4E00FFFFFFFFFFFF0000000000000000FFFF9C
:100E5E00FFFFFFFFFF000002020202020000FFFF81
:100E6E00FFFFFFFF00000202020202020000FFFF6E
:100E7E00FFFFFF000002020200000202000000005D
:100E8E00000000000202020000000202000000004A
:100E9E000202020202020200FF0002020000000033
:100EAE000202020202020200FF0002020000000023
:100EBE000202000000020200FF0002020000000019
:100ECE00020200FF00020200FF000202000000000A
:100EDE000202000000020200FF00020200000000F9
:100EEE000202020202020200FF00020200000000E3
:100EFE0002020202020202000000020200000000D2
:100F0E000000000000020202000002020000FFFFCB
:100F1E00FFFFFFFF00000202020202020000FFFFBD
:100F2E00FFFFFFFFFF000002020202020000FFFFB0
:100F3E00FFFFFFFFFFFF0000000000000000101089
:100F4E000000000000FFFFFFFFFFFF000000000099
:100F5E000001010100FFFFFFFFFFFF000101010083
:100F6E000001010100FFFFFFFFFFFF000101010073
:100F7E000001010100FFFFFFFFFFFF000101010063
:100F8E000001010100FFFFFFFFFFFF000101010053
:100F9E00000101010000FFFFFFFF00000101010041
:100FAE00000101010100FFFFFFFF0001010101002F
:100FBE00000001010100FFFFFFFF00010101000021
:100FCE0000000101010000FFFF000001010100000F
:100FDE00FF0000010101000000000101010000FFFF
:100FEE00FFFF000001010100000101010000FFFFF1
:100FFE00FFFF000000010100000101000000FFFFE3
:10100E00FFFFFF00000101010101010000FFFFFFD2
:10101E00FFFFFFFF0000010101010000FFFFFFFFC6
:10102E00FFFFFFFFFF00000101000000FFFFFFFFB9
:10103E00FFFFFFFFFFFF0000000000FFFFFFFFFFAD
:10104E00101000000000000000FFFFFFFFFFFFFF79
:10105E00FFFF00000101010000FFFFFFFFFFFFFF88
:10106E00FFFF00000101010000FFFFFFFFFFFFFF78
:10107E00FFFF00000101010000FFFFFFFFFFFFFF68
:10108E00FFFF00000101010000FFFFFFFFFFFFFF58
:10109E00FFFF00000101010000FFFFFFFFFFFFFF48
:1010AE00FFFF00000101010000FFFFFFFFFFFFFF38
:1010BE00FFFF00000101010000FFFFFFFFFFFFFF28
:1010CE00FFFF00000101010000FFFFFFFFFFFFFF18
:1010DE00FFFF00000101010000FFFFFFFFFF000006
:1010EE00000000000101010000FFFFFFFFFF0000F4
:1010FE00000000000101010000FFFFFFFF000001E2
:10110E0000000000010101000000000000000101CC
:10111E0000000000010101010101010101010101B5
:10112E0000000000010101010101010101010101A5
:10113E0000000000000000000000000000000000A1
:10114E0000001010FFFFFFFFFFFFFFFFFFFFFFFF7D
:10115E00FFFFFFFFFFFFFFFFFFFFFFFFFFFFFFFF91
:10116E00FFFFFFFFFFFFFFFFFFFFFFFFFFFFFFFF81
:10117E00FFFFFFFFFFFFFFFF00000000000000FF6A
:10118E00FFFFFFFFFFFFFF00000001010100000055
:10119E00FFFFFFFFFFFF0000010101010101010040
:1011AE0000FFFFFFFF00000101010000000101012F
:1011BE000000FFFF00000001010000FF0000010120
:1011CE00000000FF00000101010000FF000001010E
:1011DE00010000FF00000101010000FF00000101FD
:1011EE00010000FF00000101010000FF00000101ED
:1011FE00010000FF00000001010000FF00000101DE
:10120E00000000FFFF0000010101000000010101CC
:10121E000000FFFFFFFF00000101010101010100BD
:10122E0000FFFFFFFFFFFF000000010101000000B3
:10123E00FFFFFFFFFFFFFFFF00000000000000FFA9
:10124E00FFFFFFFF1010FFFFFFFFFFFFFFFFFFFF7E
:10125E00FFFFFFFFFFFFFFFFFFFF0000000000008A
:10126E000000FFFFFFFFFFFF00000000020202026E
:10127E00000000FFFFFFFF00000002020202020258
:10128E0002020000FFFFFF00000202020000000049
:10129E000202020000FFFF00000202020000FF0037
:1012AE000000000000FFFF0000000202020200002A
:1012BE000000FFFFFFFFFFFFFF000002020202021D
:1012CE00020000FFFFFFFFFFFFFF00000000020211
:1012DE0002020000FFFFFF0000000000FFFF000001
:1012EE000202020000FFFF000002020200000000E6
:1012FE000202020000FFFF000000020202020202D0
:10130E0002020000FFFFFFFFFF00000002020202C8
:10131E00000000FFFFFFFFFFFFFFFF0000000000C7
:10132E000000FFFFFFFFFFFFFFFFFFFFFFFFFFFFBD
:10133E00FFFFFFFFFFFFFFFFFFFFFFFFFFFFFFFFAF
:10134E00FFFFFFFFFFFF1010FFFFFFFFFFFFFFFF7D
:10135E00FFFFFFFFFFFFFFFFFFFFFFFFFFFFFFFF8F
:10136E00FFFFFFFFFFFFFFFFFFFFFFFFFFFFFFFF7F
:10137E00FFFFFFFFFFFFFFFFFFFFFFFFFFFFFFFF6F
:10138E00FFFFFFFFFFFFFFFFFFFFFFFFFFFFFFFF5F
:10139E00FFFFFFFFFFFFFFFFFFFFFFFFFFFFFFFF4F
:1013AE00FFFFFFFFFFFFFFFFFFFFFFFFFFFFFFFF3F
:1013BE00FFFFFFFFFFFFFFFFFFFFFFFFFFFFFFFF2F
:1013CE00FFFFFFFFFFFFFFFF1010FFFFFFFFFFFFFD
:1013DE00FFFFFFFFFFFFFFFFFFFFFFFFFFFFFFFF0F
:1013EE00FFFFFFFFFFFFFFFFFFFFFFFFFFFFFFFFFF
:1013FE00FFFFFFFFFFFFFFFFFFFFFFFFFFFFFFFFEF
:10140E00FFFFFFFFFFFFFFFFFFFFFFFFFFFFFFFFDE
:10141E00FFFFFFFFFFFFFFFFFFFFFFFFFFFFFFFFCE
:10142E00FFFFFFFFFFFFFFFFFFFFFFFFFFFFFFFFBE
:10143E00FFFFFFFFFFFFFFFFFFFFFFFFFFFFFFFFAE
:10144E00FFFFFFFFFFFFFFFFFFFF1010FFFFFFFF7C
:10145E00FFFFFFFFFFFFFFFFFFFFFFFFFFFFFFFF8E
:10146E00FFFFFFFFFFFFFFFFFFFFFFFFFFFFFFFF7E
:10147E00FFFFFFFFFFFFFFFFFFFFFFFFFFFFFFFF6E
:10148E00FFFFFFFFFFFFFFFFFFFFFFFFFFFFFFFF5E
:10149E00FFFFFFFFFFFFFFFFFFFFFFFFFFFFFFFF4E
:1014AE00FFFFFFFFFFFFFFFFFFFFFFFFFFFFFFFF3E
:1014BE00FFFFFFFFFFFFFFFFFFFFFFFFFFFFFFFF2E
:1014CE00FFFFFFFFFFFFFFFFFFFFFFFF1010FFFFFC
:1014DE00FFFFFFFFFFFFFFFFFFFFFFFFFFFFFFFF0E
:1014EE00FFFFFFFFFFFFFFFFFFFFFFFFFFFFFFFFFE
:1014FE00FFFFFFFFFFFFFFFFFFFFFFFFFFFFFFFFEE
:10150E00FFFFFFFFFFFFFFFFFFFFFFFFFFFFFFFFDD
:10151E00FFFFFFFFFFFFFFFFFFFFFFFFFFFFFFFFCD
:10152E00FFFFFFFFFFFFFFFFFFFFFFFFFFFFFFFFBD
:10153E00FFFFFFFFFFFFFFFFFFFFFFFFFFFFFFFFAD
:10154E00FFFFFFFFFFFFFFFFFFFFFFFFFFFF10107B
:10155E00FFFFFFFFFFFFFFFFFFFFFFFFFFFFFFFF8D
:10156E00FFFFFFFFFFFFFFFFFFFFFFFFFFFFFFFF7D
:10157E00FFFFFFFFFFFFFFFFFFFFFFFFFFFFFFFF6D
:10158E00FFFFFFFFFFFFFFFFFFFFFFFFFFFFFFFF5D
:10159E00FFFFFFFFFFFFFFFFFFFFFFFFFFFFFFFF4D
:1015AE00FFFFFFFFFFFFFFFFFFFFFFFFFFFFFFFF3D
:1015BE00FFFFFFFFFFFFFFFFFFFFFFFFFFFFFFFF2D
:1015CE00FFFFFFFFFFFFFFFFFFFFFFFFFFFFFFFF1D
:1015DE001010FFFFFF0000FFFFFFFFFFF000000FE6
:1015EE00FFFFFFFF00222200FFFFFFFF002222006D
:1015FE00FFFFFFF0022002200FFFFFF0022002206B
:10160E000FFFFF002200002200FFFF00220FF0223A
:10161E0000FFF002200FF002200FF0022000000267
:10162E00200F002222222222220000222222222207
:10163E0022000022000000002200002200FFFF0016
:10164E002200002200FFFF002200000000FFFF002A
:10165E000000101000000000000000FF02222222F5
:10166E002222000F0222222222222000000220002B
:10167E0000222200F00220FFF0022200F00220FFE2
:10168E00F0022200F00220000022200FF00222229F
:10169E00222200FFF0022222222200FFF00220006E
:1016AE000022200FF00220FFF0022200F00220FFA5
:1016BE00F00222000002200000222200022222223A
:1016CE0022222000022222222222000F00000000ED
:1016DE00000000FF1010101010101010101010103D
:0A16EE001010101010101010101052
:107DDF00122A85FF90035DE02F900210F022900190
:107DEF00EFE0FBA3E0FAA3E0F922F09001EFE0FB54
:107DFF00A3E475F001122B41A9F0FA022A6C90014D
:087E0F00E6E0D36480948022B8
:0683A200E490035DF022EF
:0683A80090035DEFF022DE
:0B5013009001E7EFF0A3ECF0A3EDF03C
:10501E009001E7E0FF25E0F0E02408F09001EEF0CB
:10502E009001E8E0FEA3E07803C333CE33CED8F987
:10503E00F0EE9001E8F0A3E02408F09001E8E034EF
:10504E0000F0AF037E007C017D02122AC4742E2F65
:10505E00F974003EFA9001EF74FFF0A3EAF0A3E9B1
:10506E00127DF99001EA127DF99001EBF0E4A3F0C4
:10507E009001EAE0FF9001ECE0C39F400302515A19
:10508E00E4A3F09001EBE0FF9001EDE0C39F40033D
:10509E0002513B127DED122A6C127DE2E4FB7D0281
:1050AE00FF1273E4127DED900001127DDF7B011281
:1050BE005184900002127DDF7B0212518490000316
:1050CE00127DDF7B031251979002107480F07B04E7
:1050DE001251979001F0E475F004122B2B9001EE13
:1050EE00E0900210F07B0512519FA3E0900210F0A9
:1050FE007B0712519FE07E007802C333CE33CED8A9
:10510E00F912515B1251AA20E7FA9001E8E025E06E
:10511E0025E0440812515B1251AA20E7FA9001EEE5
:10512E00E004F09001EDE02404F00250919001E7CC
:10513E00E09001EEF09001E9E004F070069001E8D5
:0C514E00E004F09001ECE004F002507E60
:10515A0022900210F07B097D02E4FF1273E47B0ABD
:10516A007D02E4FF126E65EF543F4480900210F016
:10517A007B0A7D02E4FF1273E4227D02E4FF1273CC
:10518A00E49001EFE0FBA3E0FAA3E0F9227D02E458
:10519A00FF1273E4227D02E4FF1273E49001E82215
:0B51AA007B0A7D02E4FF126E65EF221D
:0B75D4009001E0EFF0A3EDF0A3EBF05E
:1075DF00A3127DF012821C9001E6EFF0C364809439
:1075EF008040429001E0E030E0339001E1E0FFA302
:1075FF00E0FD7C00A3127DF0122A6CFB1250139059
:10760F0001E6E014F09001E4E475F001122B2B90E9
:10761F0001E1E02402F0127E0D50CF8005127E0DA5
:05762F0050FB120029D0
:017634002233
:10810E000500000600000700000800000900000A34
:10811E00000012000020000B000C000D000E0000ED
:0354F9000121008E
:10724200900344E075F003A4240EF9748135F0FA3A
:107252009001E374FFF0A3EAF0A3E9F0229001DDCC
:10726200E0FBA3E0FAA3E0F9229001E374FFF0A3AC
:107272007481F0A3741AF022900001022A85122A66
:107282006C540C1313543FF50822900002022A8515
:10729200900003022A857B017D127C00227B01E49F
:0D72A200FDFC7F1C227B01E4FDFC7F4122EE
:10788A00125B781283A27F041200267F031283BA46
:10789A00E4F508AF081278C00508E508C394064065
:1078AA00F27F01127E177FFF1283BA7F081278C017
:0578BA00E4900341F021
:1078BF002212814E9001E1E4F0A37426F07B5AE48A
:0778CF00FDFCFF126C962284
:103F0C009001DDEB1272577F021200267FFF1283A5
:103F1C00BA900343E0122E433F52113F61213F8B75
:103F2C00223FB9313FF333402D3440674140B391C8
:103F3C0040C9A140F1A24119B14159B34193B441D7
:103F4C00CAC10000421712725F122A6C20E10302F0
:103F5C0042170240BF12725F122A6C30E1081272D3
:103F6C00427DFF12423612725F12727A20E1030216
:103F7C0042179003451272457B1D7D5D0242121261
:103F8C00725F122A6C30E10C1272427B0E7D487FFC
:103F9C00011275D412725F12727A20E10302421779
:103FAC00900345127245E4FB7D1402421212725FBB
:103FBC00122A6C30E10612724212425212725F12D5
:103FCC00727A30E10990034512724512425C12720A
:103FDC005F12728C20E10302421790034612724565
:103FEC007B0F7D3E02421212725F122A6C30E10688
:103FFC0012724212421812725F12727A30E10990F8
:10400C00034512724512423E12725F12728C20E10D
:10401C00030242179003461272457B0F7D3E02420B
:10402C001212725F122A6C30E1061272421242189E
:10403C0012725F12727A30E10990034512724512C6
:10404C00423E12725F12728C20E1030242179003FF
:10405C00461272457B0F7D1402421212725F122AB5
:10406C006C30E10612724212422212725F12727AA4
:10407C0030E10990034512724512424812725F12E8
:10408C00728C30E10990034612724512425C127236
:10409C005F12729220E1030242179003471272459D
:1040AC007B0F7D3E02421212725F122A6C20E103DA
:1040BC00024217127242E4FB7D2902421212725F15
:1040CC00122A6C30E10612724212425212725F12C4
:1040DC00727A20E1030242179003451272457B125B
:1040EC007D2902421212725F122A6C30E1061272A2
:1040FC004212422212725F12727A20E103024217BC
:10410C00900345127245E4FB7D3E02421212725F2F
:10411C00122A6C30E10C127242E4FB7D297F0112F1
:10412C0075D412725F12727A30E1099003451272E3
:10413C004512427012725F12728C20E10302421718
:10414C009003461272457B127D3E02421212725F40
:10415C00122A6C30E10612724212422C12725F1259
:10416C00727A30E10990034512724512424812727C
:10417C005F12728C20E103024217900346127245C3
:10418C007B127D3E02421212725F122A6C30E106E3
:10419C0012724212422C12725F12727A30E1099042
:1041AC00034512724512426612725F12728C30E134
:1041BC005A9003461272457B127D140242121272FF
:1041CC005F122A6C30E1081272427D1412423612D0
:1041DC00725F12727A30E1099003451272451242F5
:1041EC006612725F12728C30E109900346127245AE
:1041FC0012427012725F12729230E10F90034712EA
:10420C0072457B127D3E7F011275D422E4FB7D1436
:10421C007F011275D422E4FB7D147F011275D42228
:10422C00E4FB7D147F011275D422E4FB7F0112752F
:10423C00D422E4FB7D3E7F011275D422E4FB7D3E4B
:10424C007F011275D422E4FB7D297F011275D422E3
:10425C007B0F7D147F011275D422E4FB7D3E7F0120
:0E426C001275D4227B127D147F011275D422AC
:08839200900342E04480F02258
:107B25007B787D01E4FF126E65EF540FFF900351E2
:107B3500F0900342E06F602ED2237B31E4FDFF120B
:107B45006E65EF547F900210F07B31E4FDFF1273F8
:107B5500E47F4D1200267F401283A81283A2900372
:077B650051E0900342F02201
:075781009001DDEB127257ED
:105788007F41120026900343E0122E4357BC115765
:10579800CD2157FA22582A31584C3358683457BC0F
:1057A8009157CDA157FAA2582AB1584CB35868B4AA
:1057B800000058A49001DD12726212728060030228
:1057C80058350258429001DD127262127280600BE5
:1057D8001258A51272511258D7800612729F126B76
:1057E800309001DD12726212727A12728360300296
:1057F80058769001DD127262127280600B1258A501
:105808001272511258D7800612729F126B30900193
:10581800DD12726212727A12728360030258760283
:10582800589A9001DD127262127280600D1258BE91
:10583800127251E4FB7D310258957B01E4FDFC7F37
:10584800310258A19001DD127262127280600C124E
:1058580058BE127251E4FB7D1C803212729F80394F
:105868009001DD12726212727A12728360247B02D6
:10587800E4FDFCFF126B30E50825E0FFE433FE741D
:10588800232FF974813E127251E4FB7D467F010299
:0C58980075D47B01E4FDFC7F46126B30F0
:1058A400227B02E4FDFCFF126B30E50825E0FFE4F7
:1058B40033FE74232FF974813E227B02E4FDFCFF46
:1058C400126B30E50825E0FFE433FE74232FF974EE
:0D58D400813E22E4FB7D1C7F011275D42271
:102EB1009001DDEB1272577F0C120026900343E064
:102EC100122E432EF2112F04212F2D222F56312F96
:102ED10096332FD634301F41307F913099A130D1B4
:102EE100A23104B13158B331A4B431F6C10000327A
:102EF100639001DD127262122A6C30E00302308BA2
:102F01000230929001DD127262122A6C30E00812D6
:102F1100726B1232D880031232AD9001DD127262EF
:102F210012727A30E0030230BC0230C69001DD1229
:102F31007262122A6C30E00812726B12326F8003D7
:102F41001232649001DD12726212727A30E0030271
:102F510030F40230FE9001DD127262122A6C30E010
:102F61000812726B1232D880031232AD9001DD1259
:102F7100726212727A30E00812726B12330E8003A1
:102F81001232F79001DD12726212728C30E003028C
:102F910030700230789001DD127262122A6C30E0DA
:102FA1000812726B12326F80031232649001DD12CB
:102FB100726212727A30E00812726B1232C38003AD
:102FC1001232839001DD12726212728C30E00302C0
:102FD10030700230789001DD127262122A6C30E09A
:102FE1000812726B123279800312328E9001DD1257
:102FF100726212727A30E00812726B1232C380036D
:103001001232839001DD12726212728C30E008126A
:10301100726B7B0F0231E67B017D0F0231EF900174
:10302100DD127262122A6C30E00812726B12327970
:10303100800312328E9001DD12726212727A30E0D8
:103041000812726B1232ED80031232B89001DD1258
:10305100726212728C30E00812726B12330E8003AE
:103061001232F79001DD12726212729230E0081290
:10307100726B7B0F0230F97B017D0F0231519001A0
:10308100DD127262122A6C30E00712726BE4FB806F
:103091002F7B01E4FDFC80339001DD127262122A64
:1030A1006C30E00812726B12331880031232E29016
:1030B10001DD12726212727A30E00A12726B7B0FBA
:1030C1007D2C0232567B017D0F7C007F2C02326009
:1030D1009001DD127262122A6C30E00812726B12DA
:1030E100329980031232CD9001DD12726212727A2E
:1030F10030E00A12726BE4FB7D410232561272A774
:103101000232609001DD127262122A6C30E0081204
:10311100726B12331880031232E29001DD12726277
:1031210012727A30E00812726B1233228008127226
:10313100987F17126B309001DD12726212728C301F
:10314100E00A12726B7B127D410232567B017D12C5
:103151007C007F410232609001DD127262122A6CA2
:1031610030E00812726B12329980031232CD900155
:10317100DD12726212727A30E00812726B1232ED55
:1031810080031232B89001DD12726212728C30E04B
:103191000A12726B7B127D410232561272987F4184
:1031A1000232609001DD127262122A6C30E0081264
:1031B100726B1232A380031233039001DD1272622B
:1031C10012727A30E00812726B12332C800612727E
:1031D100A7126B309001DD12726212728C30E00A1C
:1031E10012726B7B127D170232567B017D127C00BD
:1031F1007F170232609001DD127262122A6C30E098
:103201000812726B1232A380031233039001DD1294
:10321100726212727A30E00812726B12332C8006DD
:103221001272A7126B309001DD12726212728C3031
:10323100E00812726B12332280081272987F171203
:103241006B309001DD12726212729230E00C1272D8
:103251006B7B127D417F010275D41272987F4112FE
:103261006B30227B01E4FDFC7F17126B3022E4FB03
:103271007D177F011275D422E4FB7D177F01127542
:10328100D4227B01E4FDFC7F41126B30227B01E4FF
:10329100FDFC7F17126B3022E4FB7D177F01127555
:1032A100D422E4FB7D177F011275D4227B01E4FD5A
:1032B100FC7F2C126B30227B01E4FDFC7F41126B01
:1032C1003022E4FB7D417F011275D4227B01E4FDB4
:1032D100FC7F17126B3022E4FB7D2C7F011275D429
:1032E100227B01E4FDFC7F2C126B3022E4FB7D414B
:1032F1007F011275D4227B017D0F7C007F17126B39
:1033010030227B01E4FDFC7F17126B30227B0F7DA5
:10331100177F011275D422E4FB7D2C7F011275D435
:10332100227B127D177F011275D422E4FB7D417F40
:05333100011275D42219
:107B6C00E4FF12814E900341E024FE600E0470236A
:107B7C00127BA07481F0A3741D8009127BA0748108
:107B8C00F0A37420F0E4FB7D017F011275D47FFF1C
:107B9C001283BA227F031283BA7F0412002690014B
:067BAC00E374FFF0A322C8
:1080C500E4FF12814E900349E030E1127B017A030F
:1080D5007949122EB17B017A0379491257811283AE
:0680E50092E4FF027E1789
:1016F80000000000000000000000000000000000E2
:1017080000000000000000000000000000000000D1
:10171800003E007E00FE01CE038E7F8E7F8E738E8C
:10172800738E738E7F8E7F8E01CE00FE007E003E0C
:1017380000000000020006000E001E003FFE7FFEB3
:101748007FFE3FFE1E000E000600020000000000A3
:101758000000000000400060007000787FFC7FFE01
:101768007FFE7FFC007800700060004000000000F1
:10177800000003C003C003C003C003C003C003C00C
:1017880003C03FFC1FF80FF007E003C00180000012
:1017980003C003C007E007E00E700E701C381C3849
:1017A800381C381C7FFE7FFE700E700E700E700E97
:1017B8007FF87FFC383E381E381E381E383C3FF80C
:1017C8003FF8383C381E381E381E383E7FFC7FF8FC
:1017D8000FF81FFC3C1C380E780E700E700070005D
:1017E80070007000700E700E380E3C1C1FFC0FF855
:1017F8007FF07FF07078703C703C703C70787FF0C0
:101808007FE0778073C071E070F07078703C701E74
:1018180000006006700E781E7C3E7FFE77EE73CE69
:10182800718E700E700E700E700E700E700E700E3F
:1018380000001FF81FF800E000E000E000E000E012
:1018480000E000E000E070E079E03FC01F800F009A
:1018580000000000000003C007800F001E003FFCCE
:101868003FFC1E000F00078003C0000000000000BE
:1018780000000000000003C001E000F000783FFC19
:101888003FFC007800F001E003C000000000000009
:1018980000000000018001800180018011881998F2
:1018A8001DB81FF80FF007E003C00180000000001A
:1018B800003E007E00FE01CE038E7F8E7F8E738EEB
:1018C800738E738E7F8E7F8E01CE00FE007E003E6B
:1018D800700E700E700E700E700E700E781E381C22
:1018E800381C1C381C380E700FF007E003C001804C
:1018F8000000380038003800380038003800380058
:1019080038003800380038063806380E3FFE3FFEEB
:101918000000000000000000000003800FE01C70C1
:10192800183038383838383818301C700FE00380D1
:101938000000000000000000000003C00FF01C3889
:101948001C000F0007E000F000381C380FF003C03F
:10195800000000000000000000000000000000007F
:10196800000000000000000000000000000000006F
:10197800000000000000000000000000000000005F
:10198800000000000000000000000000000000004F
:10199800000000000000000000000000000000003F
:1019A800000000000000000000000000000000002F
:1019B800000000000000000000000000000000001F
:1019C800000000000000000000000000000000000F
:1019D80000000000000000000000000000000000FF
:1019E80000000000000000000000000000000000EF
:1019F80000000000000000000000000000000000DF
:101A080000000000000000000000000000000000CE
:101A180000000000000000000000000000000000BE
:101A280000000000000000000000000000000000AE
:101A3800000000000000000000000000000000009E
:101A4800000000000000000000000000000000008E
:101A5800000000000000000000000000000000007E
:101A6800000000000000000000000000000000006E
:101A7800000000000000000000000000000000005E
:101A8800000000000000000000000000000000004E
:101A9800000000000000000000000000000000003E
:101AA800000000000000000000000000000000002E
:101AB800000000000000000000000000000000001E
:101AC800000000000000000000000000000000000E
:101AD80000000000000000000000000000000000FE
:101AE80000000000000000000000000000000000EE
:101AF80000000000000000000000000000000000DE
:101B080000000000000000000000000000000000CD
:101B1800000007000F800F800F800F80070007006C
:101B28000700020002000000020007000700020090
:101B38000000EE006600440088000000000000007D
:101B4800000000000000000000000000000000008D
:101B5800000008200820082008203FF80820082056
:101B68000820082008203FF808200820082008201E
:101B780000000FC01B603330333033001B000F00F0
:101B880003C0036013303B3033301B600FC00300C9
:101B980000003808441084200440048009001270B2
:101BA800E4880908120822084210822001C00000B7
:101BB80000000E001B00318031801B000E001C004D
:101BC8003678632061A060E0606030F01F9C000000
:101BD80000000000000000000000000000000000FD
:101BE800000000000000800060007000380018004D
:101BF8000000000400080018001000300030003019
:101C08000030003000300010001800080004000206
:101C180000008000400060002000300030003000EC
:101C280030003000300020006000400080000000DC
:101C3800000002004210222012400A800700FFFC28
:101C480007000A8012402220421002000200000011
:101C580000000000030003000300030003007FF8F6
:101C68007FF80300030003000300030000000000E6
:101C7800000000000000000000000000000000005C
:101C8800000018003C003C00180010002000400034
:101C980000000000000000000000000000007FF8C5
:101CA8007FF80000000000000000000000000000B5
:101CB800000000000000000000000000000000001C
:101CC8000000000000007800840084008400780090
:101CD800000000180030006000C00180030006000A
:101CE8000C00180030006000C000800000000000F8
:101CF80000000FE0183030183038307830D831987C
:101D0800331836183C183818301818300FE000000F
:101D18000000030007000F00030003000300030096
:101D28000300030003000300030003001FE000009A
:101D380000000FE01830301830183038007001C03B
:101D480003000E001800300830083FF83FF8000084
:101D5800000007C0183030183018003000E003C009
:101D680000E00030001830183018183007C00000A4
:101D7800000000C001C003C006C00CC018C030C0BD
:101D880060C0C0C0C0C0FFF800C000C003F00000C1
:101D980000003FF03FF030003000300037C03830EE
:101DA80030180018001830183018183007C0000014
:101DB800000007E01830303030003000300037E0E5
:101DC8003830301830183018301818300FC000006C
:101DD80000003FF83FF8201820180030006000C0CD
:101DE8000180030003000300030003000300000058
:101DF80000000780186030303030303018600FC075
:101E08001860303060186018601830300FC000005B
:101E1800000007801860303030183018301830381B
:101E2800187807980018303038301860078000009C
:101E3800000000000000000003000780030000000D
:101E480000000300078003000000000000000000FD
:101E580000000000000000000300078003000000ED
:101E680000000300078003800180070000000000D5
:101E780000000000001800600180060018006000E3
:101E88008000600018000600018000600018000053
:101E9800000000000000000000007FF87FF800004C
:101EA80000007FF87FF8000000000000000000003C
:101EB8000000800060001800060001800060001823
:101EC800000400180060018006001800600080000F
:101ED800000007800FC01CE038E038E011C0018026
:101EE80003000300020002000000020007000700D0
:101EF80000000FC030604010478888C890C890C85C
:101F080090C890C888D84770400830700FC000004B
:101F1800000003000300078007800CC00CC0186095
:101F280018601FE03030303060186018F03C000056
:101F380000003F80186018301830183018601FC033
:101F48001860183018181818181818303FC00000F2
:101F58000000078818683038601860086000600062
:101F6800600060006008601830301860078000006A
:101F780000007F8030E030383018301830183018C2
:101F88003018301830183018303030E07F800000BA
:101F980000003FF0183018101800188018801F80B3
:101FA8001880188018001800181018303FF000002A
:101FB80000003FF0183018101800188018801F8093
:101FC8001880188018001800180018003C0000003D
:101FD80000000F90187030306010601060006000D2
:101FE8006078603060306030307018F00FB00000FA
:101FF80000007878303030303030303030303FF0DA
:102008003030303030303030303030307878000098
:1020180000000FC0030003000300030003000300D7
:102028000300030003000300030003000FC00000C7
:10203800000001F000600060006000600060006067
:10204800006000603060306030E019C00F000000B0
:10205800000078F8306030C03180330036003C0032
:102068003E003300318030C030603030787C000072
:1020780000003C001800180018001800180018008C
:102088001800180018001808181818383FF8000029
:102098000000E03CE038F078F078D8D8D8D8C89874
:1020A800CD98CD98C518C718C218C018E07C000094
:1020B8000000C078E030F030F830DC30CE30C73087
:1020C800C3B0C1F0C0F0C070C030C030E0780000CC
:1020D80000000FC0387070386018601860186018F9
:1020E8006018601860186018703838700FC00000E9
:1020F80000003FC0187018381818181818381870C9
:102108001FC0180018001800180018003C00000034
:1021180000001F8070E0E070C030C030C030C030B8
:10212800C030C030C030CF30E1F070E01FEC003874
:1021380000003F8018E0187018301830187018E048
:102148001FC01B80198018C0186018303C7C000024
:1021580000000FD018703030301018000E000380C7
:1021680000E000302018301838182C3027E0000024
:1021780000007FF873386318430803000300030066
:1021880003000300030003000300030007800000AE
:102198000000787830303030303030303030303007
:1021A800303030303030303030301CE00FC000007C
:1021B8000000F0786030603060306030603060304F
:1021C80060306030306018C00D80070002000000E9
:1021D8000000C71C82088208C71847184510451018
:1021E8006DB06DB028A038E01040104010400000DD
:1021F8000000F07C6030306018C008800D80070057
:10220800020007000D8018C030606030F07C0000CC
:102218000000F03C6018303018600CC007800300E4
:10222800030003000300030003000300078000000D
:1022380000003FF8301820180030006000C001800E
:10224800030006000C001800300860187FF8000032
:102258000000001C0030006000600060006000604A
:102268000060006000600060006000600030001CDA
:1022780000008000C0006000300018000C0006005C
:102288000300018000C0006000300018000C00044A
:102298000000E000300018001800180018001800AE
:1022A8001800180018001800180018003000E00086
:1022B8000000000000000000000000000000000016
:1022C800020007000D8018C07070C01C00000000DC
:1022D80000000000000000000000000000000000F6
:1022E8000000000000000000000000000000FFFEE9
:1022F80000000E0007000180004000000000000000
:1023080000000000000000000000000000000000C5
:102318000000000000000000000000000F8030C036
:1023280000C00FC018C030C030C031D01F600000DE
:102338000000380018001800180018001FC01C60A2
:10234800183018301830183018301C603FC00000A2
:102358000000000000000000000000000FC018602E
:102368003060306030003000300018200FC00000AE
:102378000000007000300030003000300FB01870DE
:102388003030303030303030303018700FB000001E
:102398000000000000000000000000000FC01860EE
:1023A800303030303FF03000300018300FE000009F
:1023B800000003C006600660060006003FC0060075
:1023C8000600060006000600060006000F000000D2
:1023D800000000000000000000000FB018E018C066
:1023E80018C00F80070018C03060306018C00F8018
:1023F8000000380018001800180018001BC01E60E4
:102408001C30183018301830183018303C7800005C
:1024180000000000030003000000000007000300A4
:10242800030003000300030003000300078000000B
:10243800000001800180000000000380018001800D
:102448000180018001801980198019800F00000027
:1024580000003800180018001800180019F018C0FB
:1024680019801B001F801CC0186018303C7C0000BD
:10247800000007000300030003000300030003003B
:1024880003000300030003000300030007800000AB
:10249800000000000000000000000000DEF073985B
:1024A800631863186318631863186318F39C0000B3
:1024B80000000000000000000000000037C01C60A1
:1024C8001860186018601860186018603CF0000008
:1024D8000000000000000000000000000FC01860AD
:1024E8003030303030303030303018600FC00000BD
:1024F80000000000000000000000000037C01C6061
:102508001830183018301C601FC0180018003C0024
:102518000000000000000000000000000F8018E02C
:1025280030603060306018E00FE00060006000F05C
:102538000000000000000000000000001BC00EE0CA
:102548000C600C000C000C000C000C001E000000BD
:102558000000000000000000000000000FC018E0AC
:1025680018200E00030001C0106018600FC00000A2
:102578000000000000000600060006003FC006003C
:102588000600060006000600066006E007C0030015
:10561700EF543F4480900210F07B0A7D02E4FF22A2
:1056270075F020A424F8F9741635F0FA74FFF0A386
:10563700EAF0A3E9F022EFF0A3ECF0A3EDF0A3EB7F
:10564700F0E517900210F0E4FB7D02FF22F0A3E0E3
:10565700FBA3E0FAA3E0F92225E025E0FDE02D44D5
:1056670002900210F07B097D02E4FF22900209E01C
:10567700FF04F0EF4480900210F07B047D02E4FF0A
:1056870022E517900210F07B017D02E4FF22E51767
:10569700900210F07B027D02E4FF22E517900210D2
:1056A700F07B037D02E4FF22A3E0900210F07B076A
:1056B7007D02E4FF22122A8575F020A424F8F974EC
:1056C7001635F0FA229001E4E0FFA3E0FD7C00909C
:1056D70001E9E0FEFB9001E6E0F9A3E0FAA3E0228E
:1056E7009001EBE025E025E0FF9001EDE025E025C6
:1056F700E014FEC454F04F229001E7E4122B2B90E4
:1057070001E4E02408F09001E9E0D364809480226A
:10571700F0A3E0FEA3E0780322900210F07B057D62
:1057270002E4FF22F0900210F07B0F7D02E4FF22DB
:105737009001D87454F0A374FFF02275F003A424E9
:10574700F1F582E43401F58322A3E0900210F07BA7
:10575700087D02E4FF22E0900210F07B067D02E460
:10576700FF22ECF0A3EDF0A3EB22900001022A85C3
:0A577700E0FBA3E0FAA3E07E0022AD
:030026008F18220E
:0383BA008F1722F8
:1076ED009001D5EFF0A3EDF0900210EBF07B0B12B3
:1076FD00773E9001D8E0900210F07B0C12773E900F
:10770D0001D9E0900210F07B0D7D02E4FF1273E4CD
:10771D009001D5E030E006A3E0448080069001D6CC
:10772D00E044C0900210F07B0E7D02E4FF1273E482
:09773D00227D02E4FF1273E42234
:105B780090021074C0F07B1F7D02E4FF1273E49062
:105B88000210740C12572F1273E41257377F021247
:105B98005C787454F0A3744AF07B4C7F02125C8EDC
:105BA80074FFF0A3746BF07F02125C837480F0A31F
:105BB800F0E4FBFD125C9712573A7F01125C78748F
:105BC80055F0A3744AF07B4B7F01125C8E74FFF092
:105BD800A3746BF07F01125C837480F0A3F07BF0F8
:105BE8007D04125C977480F0A3F07BC07D05125C85
:105BF800A07480F0A3F07B7F7D06125CA07480F017
:105C0800A3F07B3F7D07125CA9744FF0A374B5F035
:105C18007B957D08125CA974AAF0E4A3F07BB27DA1
:105C2800097F011276ED9001D874D4F0A374EAF0DC
:105C38007B697D0A7F011276ED9001D874B5F0A3D7
:105C4800743AF07B617D0B7F011276EDE49001D808
:105C5800F0A37494F07BE17D0C7F011276ED12576E
:105C6800377B4C7D0D7F011276EDE4F517F5182290
:105C78007B4C7D011276ED9001D8227B1D7D0312AD
:105C880076ED9001D8227D021276ED9001D8227F20
:105C9800011276ED9001D8227F011276ED9001D89D
:0A5CA800227F011276ED9001D82250
:10814E009001E3EF12561F126E65EF54C3FF9001BC
:0F815E00E3E0FE25E025E04FF012561C0273E42B
:107E17009001E3EFF064087B0F7D027007127E3854
:107E270044028006E4127E38440812572B1273E48A
:107E370022FF126E65EF540FFF9001E3E05407FE37
:067E4700C454F04FF022CC
:047E83009001DDEF9E
:107E870012572F126E65EF540FFF9001DEE4F0A337
:107E9700EFF09001DDE0F4FFE4F4FEA3E05EFEA363
:107EA700E05FFF9001DEEEF0A3EF12572B0273E4C1
:106C96009001DD12563D1273E41256881273E41207
:106CA60056951273E41256A21273E49001DDE0FFCA
:106CB60025E0125717C333CE33CED8F9FF9001DE45
:106CC600EEF0FCA3EFF0FDA3E025E0FF9001DDE090
:106CD600FB2F149001E0125717C333CE33CED8F9E9
:106CE6002DFFEE3CCF24FFCF34FF9001E1F0A3EF60
:106CF600F0EB1257201273E49001E012575D127305
:106D0600E49001DE1256AF1273E49001E11257507F
:106D16001273E49001DEE09001E112565F1273E413
:106D2600125620126E65EF44C012561C1273E412FE
:0A6D36005620126E65EF20E7F622EA
:1081A40012814E7FFF1283BA9001E1E4F0A374269A
:0A81B400F07B5AE4FDFCFF026C961C
:1051B5009001FDEFF0A3EB1256359001FE12565605
:1051C500122A6CF522301704AF188002AF17EF12C0
:1051D500564A1273E4301604AF188002AF17125303
:1051E5000B301504AF188002AF1712531A30140490
:1051F500AF188002AF171252E99001FDE004F030BC
:105205001304AF188002AF17900210EF12564D121B
:1052150073E4301204AF188002AF1712530B30112C
:1052250004AF188002AF1712531A301004AF18805C
:1052350002AF171252E99001FDE0041256541257BD
:1052450071F522301704AF188002AF17900210EFE6
:1052550012564D1273E4301604AF188002AF17EFE3
:1052650012568A1273E4301504AF188002AF17EF97
:105275001256971273E4301404AF188002AF17EF7B
:105285001256A412532912567B12532904F03013D7
:1052950004AF188002AF17900210EF12564D12732B
:1052A500E4301204AF188002AF17900210EF1256C7
:1052B5008D1273E4301104AF188002AF17900210FD
:1052C500EF12569A1273E4301004AF188002AF172C
:1052D500900210EF1256A71273E49001FDE01256EA
:1052E5007B0273E4900210EFF07B037D02E4FF1272
:1052F50073E49001FDE04480900210F07B047D0290
:10530500E4FF1273E422900210EFF07B017D02E4CA
:10531500FF1273E422900210EFF07B027D02E4FF9E
:0C5325001273E4221273E49001FDE022F8
:075CB2009001EB125769F0AD
:105CB900EF25E02408FFF50C9001EB125719C333C7
:105CC900CE33CED8F9F0EE9001EBF0A3E02408F042
:105CD9009001EBE03400F09001EE125656122A6C56
:105CE9009001F11256279001EE12565812577190F1
:105CF90001F41256279001EE1256589000021256DE
:105D0900BC9001F71256339001EE125658900003D9
:105D19001256BC9001FA1256339001EDE0D3940467
:105D290040037404F0E4F50AE50AC3942040030231
:105D39005DD5E4F50B9001EDE0FFE50BC39F50261F
:105D4900E50B75F003A424F1F582E43401F583121F
:105D59005777250AF9EE3AFAE50B25E025E0FF1217
:105D690051B5050B80CFE50C1257201273E4900151
:105D7900EB1256AF1273E41256E71256681273E427
:105D8900125620126E651256171273E4125620121B
:105D99006E65EF20E7F61256E7440812566812734B
:105DA900E4125620126E651256171273E412562029
:105DB900126E65EF20E7F69001ECE004F0700690B2
:0C5DC90001EBE004F0050A050A025D3160
:015DD50022AB
:036B30009001E0F1
:106B330012563D1273E41256881273E412569512DC
:106B430073E41256A21273E49001E0E0FF25E0F033
:106B5300E02408125717C333CE33CED8F9F0EE90A2
:106B630001E1F0A3E02408F09001E1E03400F090AB
:106B730001E3E025E025E0FF9001E0E0FD2F149024
:106B830001E4F09001E2E0240FFE9001E1E0340023
:106B93009001E5F0A3CEF0900210ED12572312738B
:106BA300E49001E412575D1273E49001E11256AFD1
:106BB3001273E49001E51257501273E49001E1E07F
:106BC3009001E512565F1273E4125620126E65EFC0
:106BD30044C012561C1273E4125620126E65EF2045
:026BE300E7F6D3
:016BE500228D
:105DD600900209EFF0A3EB12563590020A125656BE
:105DE600122A6CF522301704AF188002AF17EFC4E1
:105DF60054F0FF301604AE188002AE17EF4E12565E
:105E06004A1273E4301504AF188002AF17EFC4547A
:105E1600F0FF301404AE188002AE17EF4E12568A09
:105E26001273E4301304AF188002AF17EFC454F0B6
:105E3600FF301204AE188002AE17EF4E12569712BC
:105E460073E4301104AF188002AF17EFC454F0FFAB
:105E5600301004AE188002AE17EF4E1256A412731D
:105E6600E41256731273E490020A125656125771D0
:105E7600F522301704AF188002AF17EFC454F0FFB5
:105E8600301604AE188002AE17EF4E12564A127341
:105E9600E4301504AF188002AF17EFC454F0FF309A
:105EA6001404AE188002AE17EF4E12568A1273E42F
:105EB600301304AF188002AF17EFC454F0FF30124E
:105EC60004AE188002AE17EF4E1256971273E430E6
:105ED6001104AF188002AF17EFC454F0FF3010045E
:105EE600AE188002AE17EF4E1256A41273E4125685
:045EF600730273E4DC
:0A6204009001EAEFF0A3125769F0D1
:10620E009001EAE0FF25E0F0E02404125717C333B3
:10621E00CE33CED8F9F0EE9001EBF0A3E02404F0EB
:10622E009001EBE03400F0EBD3940840069001EDC2
:10623E007408F0E4F50A9001EDE0FFE50AC39F5003
:10624E0018125655850A827583001256BCE50A123D
:10625E005742125633050A80DDE4F50AE50AC39467
:10626E002040030262F5E4F50B9001EDE0FFE50B33
:10627E00C39F501AE50B125742125777250AF9EEB3
:10628E003AFAE50B25E0FF125DD6050B80DB900197
:10629E00EAE01257201273E49001EB1256AF12731C
:1062AE00E49001EBE025E025E0FF9001EDE0FEC477
:1062BE003354E024F04F1256681273E41256201233
:1062CE006E651256171273E4125620126E65EF2089
:1062DE00E7F69001ECE004F070069001EBE004F0BC
:0762EE00050A050A02626ABD
:0162F5002286
:077635009001E3EF12576A18
:10763C0012565412821C9001E9EFF0C364809480BE
:10764C0040449001E3E030E01E1256CC9001EEC9AC
:10765C00125635125CB29001E9E024FCF075F0048E
:10766C001256FF50E4801C1256CC9001EEC91256F3
:10767C00351262049001E9E024F8F075F008125616
:06768C00FF50E41200298A
:0176920022D5
:09836500D28C758CEFE4F58A223C
:10816D00D2CAD2ADD2BDE4F5C975C804C2CF75CDA2
:0C817D00B8F5CC7F0C7825E4F608DFFC98
:0181890022D3
:03000B000283214C
:0D832100C2AF758CDC758A00C28DD2AF3200
:03002B000264C8A4
:1064C800C0E0C083C082C0D0C2AF75CDB875CC0063
:1064D800C2CFD3E5269401E525648094804008E581
:1064E80026152670021525D3E5289401E527648032
:1064F80094804008E528152870021527D3E52A94CA
:1065080001E529648094804008E52A152A7002155F
:1065180029D3E52C9401E52B648094804008E52C70
:10652800152C7002152BD3E52E9401E52D6480946B
:10653800804008E52E152E7002152DD3E530940104
:10654800E52F648094804008E53015307002152FDF
:10655800D390032BE0940190032AE09400400CA30D
:10656800E024FFF090032AE034FFF0D390032DE0FD
:10657800940190032CE09400400CA3E024FFF090D9
:10658800032CE034FFF09002FDE0D394014003E0D7
:0D65980014F0D2AFD0D0D082D083D0E0324A
:10333600FFFF00FFFF000130000131B40132000140
:1033460033780134000135B401360001377801388D
:10335600000139B4013A00013B78013C00013DB45B
:10336600013E00013F78FFFFFFFFFF00FFFF000166
:1033760030000131B40132000133900134000135CF
:10338600B40136000137900138000139B4013A0022
:10339600013B90013C00013DB4013E00013F90FF1E
:1033A600FFFFFFFF007FFF000130000131B4013253
:1033B6000001333C0134000135B401363C01377855
:1033C600FFFFFF555500555500FFFF01FFFF0101A7
:1033D60030780131B40132500133780134000135BF
:1033E600B4013600013778FFFFFFFFFF007FFF00C3
:1033F6000130000131B401320001334801340001CB
:1034060035B4013648013790FFFFFF7FFF00FFFF0D
:103416000001300001315A01320001339001345A63
:103426000135B4013600013790FFFFFFFFFF007F33
:10343600FF007FFF017FFF017FFF027FFF02013058
:10344600000131B401320001333C01340001355A28
:1034560001363C01377801385A0139B4013A3C014A
:103466003B78FFFFFF7FFF007FFF007FFF017FFFAD
:1034760001FFFF027FFF0201300001315A013200D5
:1034860001333C01345A0135B401360001373C01A1
:1034960038000139B4013A3C013B78FFFFFF7FFF5A
:1034A60000FFFF007FFF017FFF017FFF027FFF021A
:1034B60001300001315A01320001337801345A01DA
:1034C60035B401360001373C01385A0139B4013AA6
:1034D6003C013B78FFFFFF7FFF007FFF007FFF017E
:1034E600FFFF017FFF027FFF0201300001315A0119
:1034F600320001333C01345A0135B401360001373C
:103506007801380001395A013A3C013B78FFFFFF48
:10351600FFFF007FFF007FFF017FFF017FFF027F2C
:10352600FF020130000131B4013200013348013499
:103536000001355A01364801379001385A0139B42D
:10354600013A48013B90FFFFFF7FFF007FFF007FAE
:10355600FF017FFF01FFFF027FFF02013000013103
:103566005A01320001334801345A0135B40136009C
:103576000137480138000139B4013A48013B90FF50
:10358600FFFF7FFF00FFFF007FFF017FFF017FFF3F
:10359600027FFF0201300001315A013200013390EF
:1035A60001345A0135B401360001374801385A0151
:1035B60039B4013A48013B90FFFFFF7FFF007FFFD0
:1035C600007FFF01FFFF017FFF027FFF0201300046
:1035D60001315A01320001334801345A0135B40130
:1035E600360001379001380001395A013A48013B4B
:1035F60090FFFFFF7FFF007FFF0001300001315A7F
:1036060001320001333C01345A0135B40136000160
:10361600373C01380001395A013A3C013B78013CFC
:103626005A013DB4013E3C013F78FFFFFF7FFF009A
:103636007FFF0001300001315A0132000133480199
:10364600345A0135B40136000137480138000139D2
:103656005A013A48013B90013C5A013DB4013E48AB
:10366600013F90FFFFFF00021500121F0022150008
:10367600321FFFFFFF00022000123000222000321E
:1036860030FFFFFF000432462E40080A18261D248C
:1036960016261A240022080134550135B0FFFFFF13
:1036A60000222E0134550135B0FFFFFF00322E01F6
:1036B6003007013160FFFFFF00320801300701319A
:1036C60060FFFFFF0022380134550135B0FFFFFFD0
:1036D6000160C0016381016682016983008A01017C
:1036E6006C03016D00FFFFFF0160800163C101668D
:1036F60082016983009A41016C0C016D00FFFFFF96
:103706000160800163810166C201698300AA8101AB
:103716006C30016D00FFFFFF01608001638101666F
:10372600820169C300BAC1016CC0016D00FFFFFFD1
:10373600016080016381016682016983008A31002C
:103746009A7100AAB100BAF1016C00016DE4FFFFA5
:10375600FF01110119012101290114011C01240194
:103766002C01100118012001280113011B0123015E
:103776002B016101640167016A83848182939491BC
:0937860092A3A4A1A2B3B4B1B254
:105EFA00900340E04404FF9001E4F09001E1E0FBEC
:105F0A00A3E0FAA3E0900001F9122A855401FE25C4
:105F1A00E04F9001E4F09001DEE0FBA3E0FAA3E099
:105F2A00F922900002122A85C454F04402FB2290FE
:105F3A000340E0FF9001E4F09001E1229000011299
:105F4A002A855401F925E0FE900340E02E2235F01F
:105F5A009001E1FA74FFF0A3EAF0A3E9F0229000BD
:105F6A0001122A85FF9001E1E0FBA3E0FAA3E022F7
:105F7A00122A6C540125E0FEEF4E2225E02457F543
:105F8A0082E43437F583E493FA740193FBEAFD2241
:105F9A009001DDE0540F24FFFFE434FFFE7C001281
:105FAA002AC49001E2EE8FF0122B2B9001DE22120E
:105FBA002A8554034480900210F02290369293FE70
:105FCA006F22122A6CFF9001E122A3E0900210F0E6
:105FDA00E4FDFF22900001022A85900340E0440478
:105FEA0022900002022A8590368A93FE6F2225E0CB
:085FFA002477F582E43437221C
:0578D600900006EFF038
:1078DB00E4A3F0FBFDFF126E65EF540FFFBF0F1318
:1078EB00900006E0C454F0FBE4FDFF126E659000BF
:1078FB0007EFF0900007E0FE70037F0222EE54E0EA
:10790B00900007F0E0C4135407F0D3940340047FB6
:05791B000080027F0165
:017920002244
:076D40009001E4EB125F601B
:106D4700EF75F004A4247FF9743735F0A3125F5D63
:106D57009001E4125F23122B57FFAEF09001EAEE89
:106D6700F0A3EFF0F47002EEF4126D9F125FD412ED
:106D770073E49001E5E475F003122B2B9001E41204
:106D87005F23122B57FF9001EAE5F0F0A3EFF01213
:086D97006D9F125FD40273E44A
:106D9F009001E7E0FBA3E475F001122B41A9F0FA93
:106DAF00122A6CFB9001EAE0900210F0E4FDFF1252
:106DBF0073E49001E7E0FBA3E475F001122B41A906
:0A6DCF00F0FA122A6CFB9001EA2290
:0745D4009001DEEB125F60B5
:1045DB00EF122E43460711462E2246563146B13373
:1045EB0046FA34475841460791462EA24656B146E5
:1045FB00B1B346FAB44758C1000047E8900340E016
:10460B004408125F3D125F23122A6C125F16122AA6
:10461B006CFD9001E430E006E04404F08002E0F031
:10462B00ED801D125F39125F23125F7A125F1C122D
:10463B002A6C125F32741B1248C1125EFA125FDED3
:10464B00125F3290021074190247E1900340E0446C
:10465B000C125F3D125F23122A6C125F1612485820
:10466B006006125F20124872125F39125F23125FCD
:10467B00DE125F7D125F1C1247E96006125F20128B
:10468B004840125FE4125F3D125F72900002125FAE
