:03000000026DCCC2
:0C6DCC00787FE4F6D8FD758130026E136C
:0B833A00E02494F582E43402F5832275
:1081E300C2BCD2AC759852758DFAE4F58BD28E90E1
:0681F30002F8F0A3F022E7
:1082A9009002F8E0FFA3E0B507037F00227F0122D7
:1081B1009002F812833AE0FF9002F8E004F0E0C385
:0881C10094644002E4F0D2AC2A
:0181C9002293
:080003003099FD8F99C299228A
:03002300027F0E4B
:107F0E00C0E0C083C082C0D0309819C2989002F9E8
:107F1E0012833AE599F09002F9E004F0E0C394641C
:0D7F2E004002E4F0D0D0D082D083D0E03209
:107CE500E0F580D2A3E490033CF0A3F022C3900317
:107CF5003CE094002290033CE004F0229001E4E093
:107D0500FBA3E0FAA3E0F922EDF0A3EBF0E4FFC258
:0C7D1500AF22D2B6D2B77580FFD2AF22E9
:1073D70090020E127D0D12837C90020EE0FF700664
:1073E700C2B7C2B68012EFB40106C2B7D2B68008E0
:1073F700EFB40204D2B7C2B690020F127CE5127C3A
:10740700F2500BA3E004F070F5127CFA80F0C2A3EF
:10741700900210E0F580C2A1127CEA127CF2500BB8
:10742700A3E004F070F5127CFA80F0D2A112837CFD
:04743700127D172289
:106F66009001D8127D0D12837C9001D8E0FF700647
:106F7600C2B7C2B68012EFB40106C2B7D2B6800855
:106F8600EFB40204D2B7C2B69001D9E0FF04F08F85
:106F960080127CE8127CF2500BA3E004F070F5122C
:106FA6007CFA80F0C2A39001DAE0FBA3E475F0015D
:106FB600122B41A9F0FA122A6CF580C2A1127CEAC2
:106FC600127CF2500BA3E004F070F5127CFA80F00C
:106FD600D2A19001DDE014F070AE12837C127D1711
:016FE6002288
:0B6E5800900209EFF0A3EDF0A3EBF0B7
:106E6300C2AF12837CE4900209F0A3E0FF7006C274
:106E7300B7C2B68012EFB40106C2B7D2B68008EF2C
:106E8300B40204D2B7C2B690020B127CE5127CF2B4
:106E9300500BA3E004F070F5127CFA80F0C2A375E6
:106EA30080FF127CEA127CF2500BA3E004F070F531
:106EB300127CFA80F0C2A290020CE580F0127CEA08
:106EC300127CF2500BA3E004F070F5127CFA80F010
:106ED300D2A212837CD2B6D2B7D2AF90020CE0FF1B
:016EE300228C
:10778E009001E4EBF0A3EAF0A3E9F0127D01122BD5
:10779E0057F47003E5F0F46038122B57FBAAF0EAA9
:1077AE00FDE4FF126E58127D01900002122A85FC34
:1077BE006F6012122B57FBAAF0EAFD900210ECF04C
:1077CE00E4FF1273D79001E5E475F003122B2B80C2
:0277DE00BA22CD
:0100290022B4
:1071530025627820256278202562782025627820B0
:107163000025626420002562782025627820636808
:107173002562783A2562782063682562783A256229
:10718300782063682562783A2562782063682562EF
:10719300783A2562782000627573770079766D6995
:1071A30078006873636F6D006D6F64650037003836
:1071B3000030313233343536373839414243444570
:0271C300460084
:0456090041035B00FE
:106EE40012002A9001D5E0FBA3E0FAA3E0F922A363
:106EF400F0A37401F0A322FFE0244CF582E43403F0
:106F0400F583EFF022E0FF9001E17401F0A3740334
:106F1400F0A37448F07B017A03794322EBF0A3EAEF
:106F2400F0A3E9F022A3F0A3E4F0A322900001E48B
:106F340075F001022B829001E074FFF0A322A3F00C
:106F4400A3E4F0A322E05401FB7D2022250BF50BE2
:106F5400A3E0540322122DD4022A6CA3F0A3E4F07C
:026F6400A32266
:1071C5009001E3126F20A3126EEA126F597002FF4D
:1071D500229001E6126EEA126F59B4200B9001E677
:1071E500126EEA126F3080E99001E6126EEA122DF6
:1071F500D4C003C002C0019001E3126EEA122DF45F
:1072050080239001E6126EEA126F59FEB42010E455
:10721500122AB29001E6126EEA126F307F0122EE59
:1072250070037F01229001E6126EEA126F3080D260
:067CA8009001DD126F20C7
:107CAE00E4F508F5099001DD126EEA122A6C6022E5
:107CBE009001DDA3E475F001122B41A9F0FA122A0E
:107CCE006CFF3395E0FEEF2509F509EE3508F50852
:067CDE0080D3AE08AF09DF
:017CE400227D
:01002A0022B3
:107A8800E4F50B900343E05403126F5025E025E022
:107A9800126F50C454F0126F50C4333354C0250BC6
:107AA800F50B900342E0B5070D900347E0B50B06D0
:107AB800E4900352F0229003527401F0900347E5DA
:077AC8000BF0900342EFF008
:017ACF002294
:10783000E4F508F509F50AF50BC003C002126F3A2A
:107840007471F07453126F297400F07408126F2968
:107850007400F07409126F427400F0740A126F42DF
:107860007400F0A3740BF0D002D0031242F6900221
:0D78700010E50BF0AB0AAD09E4FF0273D781
:10817D00126F3A7471F07464126F5F7400F0A3742F
:0A818D0008F01242F6AF0802822447
:067372009001DD126F2006
:107378001273BC126EEA1265948F081273BC126EF7
:10738800EA1265948F097F041200267F031283ADE9
:107398007F051281419001DDE0F9A3E0FAA3E090B6
:1073A80001E6C9126F21AB09AD087F011276287F6B
:0473B80005027E0A42
:1073BC009001E67401F0A37401F0A374DDF07B017D
:0B73CC007A0179E01271C59001E02207
:1058D000C003C002C001126F3A7471F07469126F94
:1058E0005F7400F0A37409F0A3E4F0A37400F074F3
:1058F0000A126EF37403F07443126EF37403F0A390
:105900007448126EF47403F0A37444126EF47403BA
:10591000F0A37449126EF47403F0A37445126EF48C
:105920007403F0A3744A126EF47403F0A374461265
:105930006EF47403F0A3744BF0D001D002D00312C4
:1059400042F6E509C454F0FF90033FE0FEC4333350
:105950003354802FFFE50A540F2F900351F090032A
:1059600048E0900343126EFB900349E09003441219
:105970006EFB90034AE0FF900345126EFC90034BD0
:10598000E0FF900346126EFC90034C126F49E4FF57
:10599000127BE990034D126F497F01127BE990035E
:1059A0004E126F497F02127BE990034F126F497FBD
:1059B00003127BE97B017A03794C125A269003513A
:1059C000126F091245C7900351E0FF126F19124E72
:1059D00063E4F50874482508F582E43403F583127E
:1059E0006F49AF08127D980508E508C3940440E4A8
:1059F000E4F525F526F5277528057F0112834F90DC
:105A00000351E0FF127A887F08127E76E4FF12814C
:105A100097127B5F7B017A037948123EFF90035116
:055A2000E090035BF0C3
:015A2500225E
:1072A200E4FF1278C9EFB40202C32290033FE0B5B3
:1072B2000702D32290033FEFF0E0C433333354800C
:1072C200FF900342E0547F4FF07F01127E0A900349
:1072D2003FE0FF12743B7B017A03794C125A2690ED
:1072E2000342126F091245C7900342E0FF126F1961
:1072F200124E63E4FF128197127B5F7B017A03795E
:0873020048123EFF1280B8D3CF
:01730A002260
:1081F900126F3A7471F0A37464126EF47403F0A3ED
:068209007440F00242F691
:065FF1009001D5126F20A3
:105FF7009001E67401F0A37401F0A374D5F07B015E
:106007007A0179DA1271C59001DA126EEA127CA868
:106017009001D8EEF0A3EFF07A71799A1260DBB5B0
:10602700060EA3E0B50709126EE71278300260D8B2
:106037007A71799F1260DBB5060EA3E0B5070912E6
:106047006EE412817D0260D87A7179A51260E5B598
:106057000616A3E0B50711126EE41258D01280B8E5
:10606700E4FF12834F0260D87A7179AB1260E5B50D
:10607700060DA3E0B50708126EE41281F980527A83
:106087007179B01260EFE0B5060FA3E0B5070A908B
:10609700027CE0900292F080387A7179B21260EF58
:1060A700E0B50612A3E0B5070D127EAA90027CE0C8
:1060B700FF127F3B801B7BFF7A7179B4127CA8901B
:1060C70001D8E0B5060BA3E0B50706126EE7127319
:0360D700727F01D4
:1060DA00227BFF127CA89001D8E0227BFF127CA8C9
:0E60EA009001D8E0227BFF127CA89001D82202
:104C9000FFF3EDE8E2DE62757377203020312041CA
:104CA000312031316275737720302031204132203C
:104CB000443779766D69782034206D6F64652030D3
:104CC000206873636F6D20312031206368303A3182
:104CD00030206368313A3030206368323A30302017
:104CE0006368333A3030206873636F6D2031203150
:104CF000206368323A3130206368313A30302063C3
:104D000068303A3030206368333A3030206873635B
:104D10006F6D20312031206368313A313020636873
:104D2000303A3030206368323A3030206368333AAA
:104D30003030206873636F6D203220322063683218
:104D40003A3130206368303A3130206368313A308C
:104D500030206368333A3030206873636F6D2032DF
:104D60002032206368303A3130206368323A313083
:104D7000206368313A3030206368333A303020683D
:104D800073636F6D20322032206368313A313020F6
:104D90006368303A3130206368323A3030206368DB
:104DA000333A3030206873636F6D203120312063D7
:104DB00068313A3130206368303A303020636832ED
:104DC0003A3030206368333A3030206873636F6D57
:104DD00020322032206368313A3130206368323A21
:104DE0003130206368303A3030206368333A3030F5
:104DF000206873636F6D20322032206368323A314D
:104E000030206368313A3130206368323A303020E4
:104E10006368333A3030206873636F6D203320331A
:104E2000206368303A3130206368313A3130206392
:104E300068323A3130206368333A30302068736327
:104E40006F6D20312031206368333A303020636841
:104E5000313A3030206368323A3030206368303A7B
:034E6000303020CF
:10560D00C124440335000000004103390041033A31
:10561D00004103340141033302410331014103329F
:10562D000041032800420329000042032B000042E1
:10563D00032D000042032F00004102FC014102FB3B
:09564D000041033B004102FA0098
:1068E3007D017BFF7E007F26022A46900282E078AC
:1068F300FD7C027D017B0122900219E0FE74112FC1
:10690300F582E43402F5832274DF2FF582E4340147
:10691300F583E022900006E0FAA3E0FB7C00FFAEE3
:1069230002022AD67C00AF03AE02122AD6900006DA
:10693300ECF0A3EDF0227D017BFF7E007F0E022AA7
:1069430046E4F0A3F0A3F0A322E508F090027AE076
:1069530004F0227D017BFF7E00022A46900009E0BD
:10696300F8A3E0F9A3E0FAA3E0FB22E412283B90AA
:106973000009022D57F0A37420F0A37403F0E4A3DD
:10698300F02290024AE0900334229002117402F044
:10699300A37432F0A32234FFFE7C007D06022AD6C4
:0769A30090027AE0241122AA
:10666F001282A9EF6401600302673E43E1101281B9
:10667F00B18F08E508B40218900248E0701290023A
:10668F007A04F0900211E508F09002487401F022AC
:10669F00E5086403702A900212E0FF64526004EF71
:1066AF00B4531D9002FAE0701790027AE0FFD39472
:1066BF0003500D9002FA7401F012690012694C2216
:1066CF00E508B4031B90024CE070151269A3126920
:1066DF000312694C90024C7401F0E49002FAF0221C
:1066EF0090024CE0640170351269A3126903E5084A
:1066FF00F07B017A027911124AACEF602F900327D9
:10670F007401F0900212E09002FDF0E4A3F0900209
:10671F0013E090027CF09003267402F0221269A31A
:10672F0012690312694CE0D39408400A028092E484
:06673F0090032FF0A3F00F
:016745002231
:10809200E4900248F090024CF090027AF0900211C3
:1080A200126945126945F0A3F0A3F0900326F0A3EC
:0680B200F09002FDF02237
:09834F00EF6003C20122D20122F9
:0C832E00C200C201C223E490035DF022F3
:0877E000900007EEF0A3EFF0AA
:1077E800900007E07002A3E0603DE4900009F0A378
:1077F800F0900009E0FEA3E0FFE4FCFD7B1BFAF932
:10780800F8D3122D19401090000AE004F070E290AD
:107818000009E004F080DA900008E024FFF090000E
:0778280007E034FFF080B916
:01782F002236
:1053240090000012694474C8F0A37464F0E4A3F01C
:105334001279AA1282C912832E128092E4FF128279
:10534400B9126FE77F4D123B8F127503752B0075F1
:105354002C28752D01752EE09003297401F0A37497
:10536400E0F0752F00753004A37407F0A304F07FF8
:10537400981283A1EF5410FFC4540F900005F0124B
:10538400666F900327E0B401097B017A0279FD126C
:105394005FF1900327E0B4010312809230230712D7
:1053A40072A25002C2231282A9EF6009900003E0A6
:1053B400752700F528E52864014527700DF527F5C4
:1053C40028900004E0752500F526E52664014525AE
:1053D400701E900248E07018127B18900292E0FF51
:1053E400900290E06F6003123B8F752500752614C0
:1053F400E5306401452F7019900254E0C3940140D4
:1054040010900240E0B40109752F00753004126059
:10541400F8E52C6401452B703C900254E070369002
:105424000240E0B4012F900328E0FF74017E00A83D
:1054340007088005C333CE33CED8F9FF127D5D90C3
:105444000328E004F0752B00752C28E0C394064073
:1054540007E4F08003127EDC900329E07004A3E0EB
:105464006401700F900234F0A3F090032904F0A3B8
:1054740074E0F090032BE07004A3E06401701690D4
:105484000240E0B4010F900005E0FF127A3EE49080
:0B549400032BF0A3F043E11002538350
:1079AA00E4F5B8F5A8F58775E127F5D0758922F5CC
:1079BA00881281E3128358128160E4F58EF5A2D20F
:1079CA0099D2AF00F593F5944391035392FCF59540
:1079DA00F596F5B1F5B2F5B375B404C2E9C292C22F
:0A79EA0093C294C295C296C2972280
:086815009001DDEFF0A3EDF0AE
:10681D0078DF7C017A4C79907F061269569001DD04
:10682D00E014603014604714605E146075147003DA
:10683D000268C9240560030268E2E4F5EA9001DE0E
:10684D00E0FF7004F5DA800375DA4212690BF5FA90
:10685D00E4F5F222E4F5EB9001DEE0FF7004F5DBE8
:10686D00800375DB4212690BF5FBE4F5F322E4F5C9
:10687D00EC9001DEE0FF7004F5DC800375DC421264
:10688D00690BF5FCE4F5F422E4F5ED9001DEE0FF93
:10689D007004F5DD800375DD4212690BF5FDE4F53D
:1068AD00F522E4F5EE9001DEE0FF7004F5DE8003E5
:1068BD0075DE4212690BF5FEE4F5F622E4F5EF9074
:1068CD0001DEE0FF7004F5DF800375DF4212690B16
:0568DD00F5FFE4F5F7F2
:0168E2002293
:0F82C900E4F5E9F5F975D90475D84043A680228C
:053B8F00900006EFF0BC
:103B940078077C007A4C799612693978157C007A1A
:103BA4004C79A412693978237C007A4C79B27F0865
:103BB400126956782B7C007D017BFF7A4C79BA7EA2
:103BC400007F07122A4678327C007A4C79C1126849
:103BD400E378587C007A4C79E71268E3787E7C00BD
:103BE4007D017BFF7A4D790D1268E778A47C007D16
:103BF400017BFF7A4D79331268E778CA7C007D0136
:103C04007BFF7A4D79591268E778F07C007D017B5F
:103C1400FF7A4D797F1268E778167C017D017BFF7E
:103C24007A4D79A51268E7783C7C017D017BFF7AA7
:103C34004D79CB1268E778627C017D017BFF7A4D78
:103C440079F11268E778887C017D017BFF7A4E79EF
:103C5400171268E778AE7C017D017BFF7A4E793DCF
:103C64001268E7E49001D4F0900006E0FE24B6FF69
:103C7400C3940A400674FC2FFF8005E490027DF093
:103C8400900290EEF0EFB408004003023D1C903C1B
:103C940099F8282873023CB1023CB6023CBD023CB0
:103CA400CE023CE8023CF7023D04023D1190033A87
:103CB4008069E490033AF0804E900282E0600590BF
:103CC400024B8057E490024B8012900282E060071E
:103CD400E490024BF0804790024B7401F09003345F
:103CE40004F0803A90024A7401F09003347404F0B2
:103CF400E48014E490024AF090033404F0E4800772
:103D040090027D7414F0E4900282F0801190027DA0
:103D14007441F090028280039003347401F09002A5
:103D24007DE0FFC394014008900339EFF0023DCBDE
:103D340090033AE06401705F90024BE0601D9002D2
:103D440082E06005900334802C126985B4010280FE
:103D5400137402F090033314F0802D900282E0601B
:103D64000E9003347402F09003337404F08019123B
:103D74006985B4010B7404F09003337402F0800875
:103D84007401F090033304F0900334E0C454F0FF62
:103D9400900333E04F802C90024BE0600590033495
:103DA400800C126985B4010B7404F090033374021F
:103DB400F080087401F090033304F0900334E0FFC2
:103DC400C454F0900339F0900331E0601912827307
:103DD4009002107411F07BA1123EF790021074D778
:103DE400F07BA2123EF7900339E0122E433E1010EE
:103DF4003E37123E49143E12203E40213E5B243E93
:103E040010403E52413E764200003E8780091268CF
:103E1400F27A00795880071268F27A0079321268CF
:103E2400E79002107403F07B0F7D01E4FF1273D757
:103E3400023E911268F27A0079A480341268F27A10
:103E44000079CA802B1268F27A0079F0803C1268FB
:103E5400F27A01791680331268F27A0079CA12680C
:103E6400E71268EE60067A01793C80047A0079A44E
:103E740080181268EE60067A01796280047A00790B
:103E8400A480071268F27A0079321268E7E490039A
:103E940031F07B017A0279FD125FF1900339E0126F
:103EA4002E433EC5103ECF123ED7143EC7203ED30C
:103EB400213EE2243ECB403EDB413EE64200003E52
:103EC400F18000E4FF8012E4FF80197F01800A7F03
:103ED4000180067F0180027F011270E0800F7F0164
:103EE40080027F011270E09001D47401F09001D43B
:023EF400E0FFED
:093EF600227D01E4FF1273D722C2
:027F3B00AB0792
:107F3D00E4FFFEEBC3943D4021EBD39461501BEB6A
:107F4D0024C3FFEE126999AA07EB24C3FFE412695B
:0A7F5D0099AE05AF021268157F010E
:017F670022F7
:10768600E4FBFAFD7F90127C29EEC4F854F0C8683A
:10769600FEEFC4540F48FFEEC4F854F0C868FAEF82
:1076A600C4540F48FB2091047A007B637C007D0A5A
:1076B600AF03AE02122AD6D3ED9409EC940050071C
:1076C600ED2430900227F0AE02AF037C007D0A1253
:0976D6002AD6EF243090022CF0BA
:0176DF002288
:1062E500900006126944122D6300000000E4FF12BD
:1062F5008121900006EEF0A3EFF0E024E1F090009C
:1063050006E034FFF0E0FCA3E0FD12696E7F007E3D
:10631500807D8C7CC312695F12259F7B007A807912
:106325008C78431227997B9A7A9979CA78421226F2
:1063350090126972E4FFFE7D207C4112695F12268E
:1063450090122874AD07AC0612693012696E900080
:1063550006E0FEA3E0FFC394EBEE94034015D3EFF4
:1063650094FFEE9403500C9000067403F0A374F5AB
:10637500F08013D3EF940FEE9427400A9000067433
:1063850027F0A3740FF0900006E0FAA3E0FB7C036E
:106395007DE8126921EF2430900221F07C037DE82D
:1063A5001269297D64126917EF2430900220F07D6F
:1063B500641269277D0A126917EF243090021FF0D5
:0B63C5007D0A126927243090021EF0B0
:0163D00022AA
:1077390012698D7450F0A37430F0A37461F0A374CE
:107749006312697890000CF090000CE0FFD3940765
:1077590050131268FBE0FFEE6F900219F090000CD5
:10776900E004F080E3E490000CF090000CE0FFD31B
:1077790094085010126900E0FF12000390000CE019
:0477890004F080E6A2
:01778D0022D9
:1075660012698D744FF0900245E0900214F090027B
:1075760046E0900215F0900247E0900216126978F4
:1075860090000CF090000CE0FFD3940750131268A3
:10759600FBE0FFEE6F900219F090000CE004F08023
:1075A600E3E490000CF090000CE0FFD39408501038
:1075B600126900E0FF12000390000CE004F080E680
:0175C60022A2
:10002E001010FFFFFFFFFFFFFFFFFFFFFFFFFFFFB0
:10003E00FFFFFFFFFFFFFFFFFFFFFFFFFFFFFFFFC2
:10004E00FFFFFFFFFFFFFFFFFFFFFFFFFFFFFFFFB2
:10005E00FFFFFFFFFFFFFFFFFFFFFFFFFFFFFFFFA2
:10006E00FFFFFFFFFFFFFFFFFFFFFFFFFFFFFFFF92
:10007E00FFFFFFFFFFFFFFFFFFFFFFFFFFFFFFFF82
:10008E00FFFFFFFFFFFFFFFFFFFFFFFFFFFFFFFF72
:10009E00FFFFFFFFFFFFFFFFFFFFFFFFFFFFFFFF62
:1000AE00FFFFFFFFFFFFFFFFFFFFFFFFFFFFFFFF52
:1000BE00FFFFFFFFFFFFFFFFFFFFFFFFFFFFFFFF42
:1000CE00FFFFFFFFFFFFFFFFFFFFFFFFFFFFFFFF32
:1000DE00FFFFFFFFFFFFFFFFFFFFFFFFFFFFFFFF22
:1000EE00FFFFFFFFFFFFFFFFFFFFFFFFFFFFFFFF12
:1000FE00FFFFFFFFFFFFFFFFFFFFFFFFFFFFFFFF02
:10010E00FFFFFFFFFFFFFFFFFFFFFFFFFFFFFFFFF1
:10011E00FFFFFFFFFFFFFFFFFFFFFFFFFFFFFFFFE1
:10012E00FFFF1010FFFFFFFFFFFFFFFFFFFFFFFFAF
:10013E00FFFFFFFFFFFFFFFFFFFFFFFFFFFFFFFFC1
:10014E00FFFFFFFFFFFFFFFFFFFFFFFFFFFFFFFFB1
:10015E00FFFFFFFFFFFFFFFFFFFFFFFFFFFFFFFFA1
:10016E00FFFFFFFFFFFFFFFFFFFFFFFFFFFFFFFF91
:10017E00FFFFFFFFFFFFFFFFFFFFFFFFFFFFFFFF81
:10018E00FFFFFFFFFFFFFFFFFFFFFFFFFFFFFFFF71
:10019E00FFFFFFFFFFFFFFFFFFFFFFFFFFFFFFFF61
:1001AE00FFFFFFFFFFFFFFFFFFFFFFFFFFFFFFFF51
:1001BE00FFFFFFFFFFFFFFFFFFFFFFFFFFFFFFFF41
:1001CE00FFFFFFFFFFFFFFFFFFFFFFFFFFFFFFFF31
:1001DE00FFFFFFFFFFFFFFFFFFFFFFFFFFFFFFFF21
:1001EE00FFFFFFFFFFFFFFFFFFFFFFFFFFFFFFFF11
:1001FE00FFFFFFFFFFFFFFFFFFFFFFFFFFFFFFFF01
:10020E00FFFFFFFFFFFFFFFFFFFFFFFFFFFFFFFFF0
:10021E00FFFFFFFFFFFFFFFFFFFFFFFFFFFFFFFFE0
:10022E00FFFFFFFF1010FFFFFFFFFFFFFFFFFFFFAE
:10023E00FFFFFFFFFFFFFFFFFFFFFFFFFFFFFFFFC0
:10024E00FFFFFFFFFFFFFFFFFFFFFFFFFFFFFFFFB0
:10025E00FFFFFFFFFFFFFFFFFFFFFFFFFFFFFFFFA0
:10026E00FFFFFFFFFFFFFFFFFFFFFFFFFFFFFFFF90
:10027E00FFFFFFFFFFFFFFFFFFFFFFFFFFFFFFFF80
:10028E00FFFFFFFFFFFFFFFFFFFFFFFFFFFFFFFF70
:10029E00FFFFFFFFFFFFFFFFFFFFFFFFFFFFFFFF60
:1002AE00FFFFFFFFFFFFFFFFFFFFFFFFFFFFFFFF50
:1002BE00FFFFFFFFFFFFFFFFFFFFFFFFFFFFFFFF40
:1002CE00FFFFFFFFFFFFFFFFFFFFFFFFFFFFFFFF30
:1002DE00FFFFFFFFFFFFFFFFFFFFFFFFFFFFFFFF20
:1002EE00FFFFFFFFFFFFFFFFFFFFFFFFFFFFFFFF10
:1002FE00FFFFFFFFFFFFFFFFFFFFFFFFFFFFFFFF00
:10030E00FFFFFFFFFFFFFFFFFFFFFFFFFFFFFFFFEF
:10031E00FFFFFFFFFFFFFFFFFFFFFFFFFFFFFFFFDF
:10032E00FFFFFFFFFFFF1010FFFFFFFFFFFFFFFFAD
:10033E00FFFFFFFFFFFFFFFFFFFFFFFFFFFFFFFFBF
:10034E00FFFFFFFFFFFFFFFFFFFFFFFFFFFFFFFFAF
:10035E00FFFFFFFFFFFFFFFFFFFFFFFFFFFFFFFF9F
:10036E00FFFFFFFFFFFFFFFFFFFFFFFFFFFFFFFF8F
:10037E00FFFFFFFFFFFFFFFFFFFFFFFFFFFFFFFF7F
:10038E00FFFFFFFFFFFFFFFFFFFFFFFFFFFFFFFF6F
:10039E00FFFFFFFFFFFFFFFFFFFFFFFFFFFFFFFF5F
:1003AE00FFFFFFFFFFFFFFFFFFFFFFFFFFFFFFFF4F
:1003BE00FFFFFFFFFFFFFFFFFFFFFFFFFFFFFFFF3F
:1003CE00FFFFFFFFFFFFFFFFFFFFFFFFFFFFFFFF2F
:1003DE00FFFFFFFFFFFFFFFFFFFFFFFFFFFFFFFF1F
:1003EE00FFFFFFFFFFFFFFFFFFFFFFFFFFFFFFFF0F
:1003FE00FFFFFFFFFFFFFFFFFFFFFFFFFFFFFFFFFF
:10040E00FFFFFFFFFFFFFFFFFFFFFFFFFFFFFFFFEE
:10041E00FFFFFFFFFFFFFFFFFFFFFFFFFFFFFFFFDE
:10042E00FFFFFFFFFFFFFFFF1010FFFFFFFFFFFFAC
:10043E00FFFFFFFFFFFFFFFFFFFFFFFFFFFFFFFFBE
:10044E00FFFFFFFFFFFFFFFFFFFFFFFFFFFFFFFFAE
:10045E00FFFFFFFFFFFFFFFFFFFFFFFFFFFFFFFF9E
:10046E00FFFFFFFFFFFFFFFFFFFFFFFFFFFFFFFF8E
:10047E00FFFFFFFFFFFFFFFFFFFFFFFFFFFFFFFF7E
:10048E00FFFFFFFFFFFFFFFFFFFFFFFFFFFFFFFF6E
:10049E00FFFFFFFFFFFFFFFFFFFFFFFFFFFFFFFF5E
:1004AE00FFFFFFFFFFFFFFFFFFFFFFFFFFFFFFFF4E
:1004BE00FFFFFFFFFFFFFFFFFFFFFFFFFFFFFFFF3E
:1004CE00FFFFFFFFFFFFFFFFFFFFFFFFFFFFFFFF2E
:1004DE00FFFFFFFFFFFFFFFFFFFFFFFFFFFFFFFF1E
:1004EE00FFFFFFFFFFFFFFFFFFFFFFFFFFFFFFFF0E
:1004FE00FFFFFFFFFFFFFFFFFFFFFFFFFFFFFFFFFE
:10050E00FFFFFFFFFFFFFFFFFFFFFFFFFFFFFFFFED
:10051E00FFFFFFFFFFFFFFFFFFFFFFFFFFFFFFFFDD
:10052E00FFFFFFFFFFFFFFFFFFFF1010FFFFFFFFAB
:10053E00FFFF00000000FFFFFFFFFFFFFFFFFFFFB9
:10054E00FF000000000000FFFFFFFFFFFFFFFFFFA7
:10055E000000020202020000FFFFFFFFFFFFFFFF8D
:10056E000000020202020000FFFFFFFFFFFFFF007C
:10057E00000202000002020000FFFFFFFFFFFF006B
:10058E00000202000002020000FFFFFFFFFF00005A
:10059E0002020000000002020000FFFFFFFF000049
:1005AE00020200FFFF0002020000FFFFFF00000238
:1005BE00020000FFFF000002020000FFFF00000229
:1005CE000200000000000002020000FF0000020214
:1005DE0002020202020202020202000000000202F5
:1005EE0002020202020202020202000000000202E5
:1005FE0000000000000000000202000000000202E5
:10060E000000FFFFFFFF00000202000000000202D8
:10061E000000FFFFFFFF00000202000000000000CC
:10062E000000FFFFFFFF00000000000010100000A0
:10063E00000000000000000000000000FFFF0002AC
:10064E0002020202020202020202000000FF000287
:10065E000202020202020202020202000000000076
:10066E000002020000000000020202020000FF0071
:10067E0000020200FFFFFF00000202020000FF0066
:10068E0000020200FFFFFF00000202020000FF0056
:10069E0000020200000000000202020000FFFF0044
:1006AE00000202020202020202020000FFFFFF002D
:1006BE00000202020202020202020000FFFFFF001D
:1006CE0000020200000000000202020000FFFF0014
:1006DE0000020200FFFFFF00000202020000FF0006
:1006EE0000020200FFFFFF000002020200000000F5
:1006FE0000020200000000000202020200000002DE
:10070E0002020202020202020202020000000002C3
:10071E0002020202020202020202000000FF0000B8
:10072E00000000000000000000000000FFFF10109D
:10073E00FFFFFF00000000000000000000FFFFFFB1
:10074E00FFFF00000202020202020202000000FF8E
:10075E00FF00000202020202020202020200000078
:10076E000000000202000000000000020202000071
:10077E0000000202020000FFFFFF00000202000064
:10078E00000002020000FFFFFFFFFF000202000058
:10079E00000002020000FFFFFFFFFFFF000000004D
:1007AE00000002020000FFFFFFFFFFFFFFFFFFFF41
:1007BE00000002020000FFFFFFFFFFFFFFFFFFFF31
:1007CE00000002020000FFFFFFFFFF00000000001C
:1007DE00000002020000FFFFFFFFFF000202000008
:1007EE0000000202000000FFFFFF000002020000F6
:1007FE0000000202020000000000000202020000DF
:10080E00FF000002020202020202020202000000C7
:10081E00FFFF00000202020202020202000000FFBD
:10082E00FFFFFF0000000000000000000000FFFFBF
:10083E001010000000000000000000000000FFFF8C
:10084E00FFFF00000202020202020202020000FF8B
:10085E00FFFF000002020202020202020202000078
:10086E00FFFF000002020000000000020202000072
:10087E00FFFF000002020000FFFF00000202000066
:10088E00FFFF000002020000FFFF00000202000056
:10089E00FFFF000002020000000000020202000042
:1008AE00FFFF00000202020202020202020000FF2B
:1008BE00FFFF00000202020202020202000000FF1D
:1008CE00FFFF000002020000020202000000FFFF14
:1008DE00FFFF000002020000000202020000FFFF04
:1008EE00FFFF00000202000000000202020000FFF3
:1008FE00FFFF000002020000FF00000202020000E3
:10090E00FFFF000002020000FFFF000002020200D3
:10091E0000FF000002020000FFFFFF0000020202C3
:10092E0000FF000000000000FFFFFFFF00000000BE
:10093E0000FF101000000000FFFFFFFFFFFFFFFF92
:10094E00000000000000000000FFFFFFFFFFFF009F
:10095E000000000000000C0C0000FFFFFFFF000075
:10096E000C0C000000000C0C0C0000000000000C31
:10097E000C0C000000000C0C0C0C000000000C0C09
:10098E000C0C000000000C0C0C0C0C0C0C0C0C0CC9
:10099E000C0C000000000C0C0C0C0C0C0C0C0C0CB9
:1009AE000C0C000000000C0C0C000C0C0C0C000CC1
:1009BE000C0C000000000C0C0C00000C0C00000CC9
:1009CE000C0C000000000C0C0C0000000000000CD1
:1009DE000C0C000000000C0C0C0000000000000CC1
:1009EE000C0C000000000C0C0C0000FFFF00000CB3
:1009FE000C0C000000000C0C0C0000FFFF00000CA3
:100A0E000C0C000000000C0C0C0000FFFF00000C92
:100A1E000C0C000000000C0C0C0000FFFF00000C82
:100A2E000C0C000000000000000000FFFF000000A2
:100A3E00000000001010FF00000000000000000089
:100A4E000000000000FFFF0000020202020202028C
:100A5E000202020000FFFF00000202020202020276
:100A6E000202020000FFFF00000000000000020270
:100A7E000200000000FFFFFFFFFFFFFF0000020269
:100A8E00020000FFFFFFFFFFFFFFFFFF000002025B
:100A9E00020000FFFFFFFFFFFFFFFFFF000002024B
:100AAE00020000FFFFFFFFFFFFFFFFFF000002023B
:100ABE00020000FFFFFFFFFFFFFFFFFF000002022B
:100ACE00020000FFFFFFFFFFFFFFFFFF000002021B
:100ADE00020000FFFFFFFF00000000FF0000020207
:100AEE00020000FFFFFFFF000202000000000202F2
:100AFE00020000FFFFFFFF000202020000020202DE
:100B0E00020000FFFFFFFF000002020202020202CB
:100B1E00000000FFFFFFFFFF0000020202020200C2
:100B2E000000FFFFFFFFFFFFFF00000000000000BE
:100B3E0000FFFFFFFFFF1010FFFFFFFFFFFFFFFF94
:100B4E00FFFFFFFFFFFFFFFFFFFFFFFFFF000000A4
:100B5E0000000000FFFFFFFFFFFFFFFF000001018D
:100B6E0001010000FFFFFFFFFFFFFF000001010179
:100B7E0001010000FFFFFFFFFFFF00000101010167
:100B8E00010000FFFFFFFFFFFF0000010101010157
:100B9E000000000000000000000001010101010141
:100BAE00010101010101000000010101010101012A
:100BBE00010101010101000000010101010101011A
:100BCE00010101010101000000000101010101010B
:100BDE000101010101010000FF00000101010101FD
:100BEE000000000000000000FFFF000001010101F5
:100BFE00010000FFFFFFFFFFFFFFFF0000010101EB
:100C0E0001010000FFFFFFFFFFFFFFFF00000101DA
:100C1E0001010000FFFFFFFFFFFFFFFFFF000000CD
:100C2E0000000000FFFFFFFFFFFFFFFFFFFFFFFFC2
:100C3E00FFFFFFFFFFFFFFFF1010FFFFFFFFFFFF94
:100C4E00FFFFFFFFFFFFFFFFFFFFFFFFFFFF0000A4
:100C5E000000000000FFFFFFFFFFFFFFFFFF00008F
:100C6E00010101010000FFFFFFFFFFFFFFFF00007A
:100C7E0001010101010000FFFFFFFFFFFFFFFF0069
:100C8E000001010101010000FFFF00000000000053
:100C9E00000001010101010000FF0000010101013E
:100CAE00010101010101010100000000010101012A
:100CBE000101010101010101010000000101010119
:100CCE00010101010101010101000000000000000D
:100CDE00000001010101010000FF00000000000002
:100CEE00000001010101010000FFFFFFFFFFFF00F7
:100CFE000001010101010000FFFFFFFFFFFF0000E7
:100D0E0001010101010000FFFFFFFFFFFFFF0000D7
:100D1E00010101010000FFFFFFFFFFFFFFFF0000C9
:100D2E000000000000FFFFFFFFFFFFFFFFFFFFFFC0
:100D3E00FFFFFFFFFFFFFFFFFFFF1010FFFFFFFF93
:100D4E000000000000000000FFFFFFFFFFFFFFFF9D
:100D5E000000010101010000FFFFFFFFFFFFFFFF89
:100D6E000000010101010000FFFFFFFFFFFFFFFF79
:100D7E000000010101010000FFFFFFFFFFFFFFFF69
:100D8E000000010101010000FFFFFFFF0000000055
:100D9E00000001010101000000000000000001013F
:100DAE00000001010101000001010000000001012D
:100DBE00010001010101000101010000000001011B
:100DCE000101010101010101010100000000010109
:100DDE00010101010101010101010000FF000001FB
:100DEE000101010101010101010000FFFFFF0000EF
:100DFE0001010101010101010000FFFFFFFFFF00E2
:100E0E00000101010101010000FFFFFFFFFFFFFFD5
:100E1E000000010101010000FFFFFFFFFFFFFFFFC8
:100E2E00FF000001010000FFFFFFFFFFFFFFFFFFBC
:100E3E00FFFF00000000FFFFFFFFFFFF1010FFFF8E
:100E4E00FFFFFFFFFFFF0000000000000000FFFF9C
:100E5E00FFFFFFFFFF000002020202020000FFFF81
:100E6E00FFFFFFFF00000202020202020000FFFF6E
:100E7E00FFFFFF000002020200000202000000005D
:100E8E00000000000202020000000202000000004A
:100E9E000202020202020200FF0002020000000033
:100EAE000202020202020200FF0002020000000023
:100EBE000202000000020200FF0002020000000019
:100ECE00020200FF00020200FF000202000000000A
:100EDE000202000000020200FF00020200000000F9
:100EEE000202020202020200FF00020200000000E3
:100EFE0002020202020202000000020200000000D2
:100F0E000000000000020202000002020000FFFFCB
:100F1E00FFFFFFFF00000202020202020000FFFFBD
:100F2E00FFFFFFFFFF000002020202020000FFFFB0
:100F3E00FFFFFFFFFFFF0000000000000000101089
:100F4E000000000000FFFFFFFFFFFF000000000099
:100F5E000001010100FFFFFFFFFFFF000101010083
:100F6E000001010100FFFFFFFFFFFF000101010073
:100F7E000001010100FFFFFFFFFFFF000101010063
:100F8E000001010100FFFFFFFFFFFF000101010053
:100F9E00000101010000FFFFFFFF00000101010041
:100FAE00000101010100FFFFFFFF0001010101002F
:100FBE00000001010100FFFFFFFF00010101000021
:100FCE0000000101010000FFFF000001010100000F
:100FDE00FF0000010101000000000101010000FFFF
:100FEE00FFFF000001010100000101010000FFFFF1
:100FFE00FFFF000000010100000101000000FFFFE3
:10100E00FFFFFF00000101010101010000FFFFFFD2
:10101E00FFFFFFFF0000010101010000FFFFFFFFC6
:10102E00FFFFFFFFFF00000101000000FFFFFFFFB9
:10103E00FFFFFFFFFFFF0000000000FFFFFFFFFFAD
:10104E00101000000000000000FFFFFFFFFFFFFF79
:10105E00FFFF00000101010000FFFFFFFFFFFFFF88
:10106E00FFFF00000101010000FFFFFFFFFFFFFF78
:10107E00FFFF00000101010000FFFFFFFFFFFFFF68
:10108E00FFFF00000101010000FFFFFFFFFFFFFF58
:10109E00FFFF00000101010000FFFFFFFFFFFFFF48
:1010AE00FFFF00000101010000FFFFFFFFFFFFFF38
:1010BE00FFFF00000101010000FFFFFFFFFFFFFF28
:1010CE00FFFF00000101010000FFFFFFFFFFFFFF18
:1010DE00FFFF00000101010000FFFFFFFFFF000006
:1010EE00000000000101010000FFFFFFFFFF0000F4
:1010FE00000000000101010000FFFFFFFF000001E2
:10110E0000000000010101000000000000000101CC
:10111E0000000000010101010101010101010101B5
:10112E0000000000010101010101010101010101A5
:10113E0000000000000000000000000000000000A1
:10114E0000001010FFFFFFFFFFFFFFFFFFFFFFFF7D
:10115E00FFFFFFFFFFFFFFFFFFFFFFFFFFFFFFFF91
:10116E00FFFFFFFFFFFFFFFFFFFFFFFFFFFFFFFF81
:10117E00FFFFFFFFFFFFFFFF00000000000000FF6A
:10118E00FFFFFFFFFFFFFF00000001010100000055
:10119E00FFFFFFFFFFFF0000010101010101010040
:1011AE0000FFFFFFFF00000101010000000101012F
:1011BE000000FFFF00000001010000FF0000010120
:1011CE00000000FF00000101010000FF000001010E
:1011DE00010000FF00000101010000FF00000101FD
:1011EE00010000FF00000101010000FF00000101ED
:1011FE00010000FF00000001010000FF00000101DE
:10120E00000000FFFF0000010101000000010101CC
:10121E000000FFFFFFFF00000101010101010100BD
:10122E0000FFFFFFFFFFFF000000010101000000B3
:10123E00FFFFFFFFFFFFFFFF00000000000000FFA9
:10124E00FFFFFFFF1010FFFFFFFFFFFFFFFFFFFF7E
:10125E00FFFFFFFFFFFFFFFFFFFF0000000000008A
:10126E000000FFFFFFFFFFFF00000000020202026E
:10127E00000000FFFFFFFF00000002020202020258
:10128E0002020000FFFFFF00000202020000000049
:10129E000202020000FFFF00000202020000FF0037
:1012AE000000000000FFFF0000000202020200002A
:1012BE000000FFFFFFFFFFFFFF000002020202021D
:1012CE00020000FFFFFFFFFFFFFF00000000020211
:1012DE0002020000FFFFFF0000000000FFFF000001
:1012EE000202020000FFFF000002020200000000E6
:1012FE000202020000FFFF000000020202020202D0
:10130E0002020000FFFFFFFFFF00000002020202C8
:10131E00000000FFFFFFFFFFFFFFFF0000000000C7
:10132E000000FFFFFFFFFFFFFFFFFFFFFFFFFFFFBD
:10133E00FFFFFFFFFFFFFFFFFFFFFFFFFFFFFFFFAF
:10134E00FFFFFFFFFFFF1010FFFFFFFFFFFFFFFF7D
:10135E00FFFFFFFFFFFFFFFFFFFFFFFFFFFFFFFF8F
:10136E00FFFFFFFFFFFFFFFFFFFFFFFFFFFFFFFF7F
:10137E00FFFFFFFFFFFFFFFFFFFFFFFFFFFFFFFF6F
:10138E00FFFFFFFFFFFFFFFFFFFFFFFFFFFFFFFF5F
:10139E00FFFFFFFFFFFFFFFFFFFFFFFFFFFFFFFF4F
:1013AE00FFFFFFFFFFFFFFFFFFFFFFFFFFFFFFFF3F
:1013BE00FFFFFFFFFFFFFFFFFFFFFFFFFFFFFFFF2F
:1013CE00FFFFFFFFFFFFFFFF1010FFFFFFFFFFFFFD
:1013DE00FFFFFFFFFFFFFFFFFFFFFFFFFFFFFFFF0F
:1013EE00FFFFFFFFFFFFFFFFFFFFFFFFFFFFFFFFFF
:1013FE00FFFFFFFFFFFFFFFFFFFFFFFFFFFFFFFFEF
:10140E00FFFFFFFFFFFFFFFFFFFFFFFFFFFFFFFFDE
:10141E00FFFFFFFFFFFFFFFFFFFFFFFFFFFFFFFFCE
:10142E00FFFFFFFFFFFFFFFFFFFFFFFFFFFFFFFFBE
:10143E00FFFFFFFFFFFFFFFFFFFFFFFFFFFFFFFFAE
:10144E00FFFFFFFFFFFFFFFFFFFF1010FFFFFFFF7C
:10145E00FFFFFFFFFFFFFFFFFFFFFFFFFFFFFFFF8E
:10146E00FFFFFFFFFFFFFFFFFFFFFFFFFFFFFFFF7E
:10147E00FFFFFFFFFFFFFFFFFFFFFFFFFFFFFFFF6E
:10148E00FFFFFFFFFFFFFFFFFFFFFFFFFFFFFFFF5E
:10149E00FFFFFFFFFFFFFFFFFFFFFFFFFFFFFFFF4E
:1014AE00FFFFFFFFFFFFFFFFFFFFFFFFFFFFFFFF3E
:1014BE00FFFFFFFFFFFFFFFFFFFFFFFFFFFFFFFF2E
:1014CE00FFFFFFFFFFFFFFFFFFFFFFFF1010FFFFFC
:1014DE00FFFFFFFFFFFFFFFFFFFFFFFFFFFFFFFF0E
:1014EE00FFFFFFFFFFFFFFFFFFFFFFFFFFFFFFFFFE
:1014FE00FFFFFFFFFFFFFFFFFFFFFFFFFFFFFFFFEE
:10150E00FFFFFFFFFFFFFFFFFFFFFFFFFFFFFFFFDD
:10151E00FFFFFFFFFFFFFFFFFFFFFFFFFFFFFFFFCD
:10152E00FFFFFFFFFFFFFFFFFFFFFFFFFFFFFFFFBD
:10153E00FFFFFFFFFFFFFFFFFFFFFFFFFFFFFFFFAD
:10154E00FFFFFFFFFFFFFFFFFFFFFFFFFFFF10107B
:10155E00FFFFFFFFFFFFFFFFFFFFFFFFFFFFFFFF8D
:10156E00FFFFFFFFFFFFFFFFFFFFFFFFFFFFFFFF7D
:10157E00FFFFFFFFFFFFFFFFFFFFFFFFFFFFFFFF6D
:10158E00FFFFFFFFFFFFFFFFFFFFFFFFFFFFFFFF5D
:10159E00FFFFFFFFFFFFFFFFFFFFFFFFFFFFFFFF4D
:1015AE00FFFFFFFFFFFFFFFFFFFFFFFFFFFFFFFF3D
:1015BE00FFFFFFFFFFFFFFFFFFFFFFFFFFFFFFFF2D
:1015CE00FFFFFFFFFFFFFFFFFFFFFFFFFFFFFFFF1D
:1015DE001010FFFFFF0000FFFFFFFFFFF000000FE6
:1015EE00FFFFFFFF00222200FFFFFFFF002222006D
:1015FE00FFFFFFF0022002200FFFFFF0022002206B
:10160E000FFFFF002200002200FFFF00220FF0223A
:10161E0000FFF002200FF002200FF0022000000267
:10162E00200F002222222222220000222222222207
:10163E0022000022000000002200002200FFFF0016
:10164E002200002200FFFF002200000000FFFF002A
:10165E000000101000000000000000FF02222222F5
:10166E002222000F0222222222222000000220002B
:10167E0000222200F00220FFF0022200F00220FFE2
:10168E00F0022200F00220000022200FF00222229F
:10169E00222200FFF0022222222200FFF00220006E
:1016AE000022200FF00220FFF0022200F00220FFA5
:1016BE00F00222000002200000222200022222223A
:1016CE0022222000022222222222000F00000000ED
:1016DE00000000FF1010101010101010101010103D
:0A16EE001010101010101010101052
:107DD200122A85FF90035CE02F900210F02290019E
:107DE200EFE0FBA3E0FAA3E0F922F09001EFE0FB61
:107DF200A3E475F001122B41A9F0FA022A6C90015A
:087E0200E6E0D36480948022C5
:06839500E490035CF022FD
:06839B0090035CEFF022EC
:0B5006009001E7EFF0A3ECF0A3EDF049
:105011009001E7E0FF25E0F0E02408F09001EEF0D8
:105021009001E8E0FEA3E07803C333CE33CED8F994
:10503100F0EE9001E8F0A3E02408F09001E8E034FC
:1050410000F0AF037E007C017D02122AC4742E2F72
:10505100F974003EFA9001EF74FFF0A3EAF0A3E9BE
:10506100127DEC9001EA127DEC9001EBF0E4A3F0EB
:105071009001EAE0FF9001ECE0C39F400302514D33
:10508100E4A3F09001EBE0FF9001EDE0C39F40034A
:1050910002512E127DE0122A6C127DD5E4FB7D02B5
:1050A100FF1273D7127DE0900001127DD27B0112B5
:1050B1005177900002127DD27B021251779000034A
:1050C100127DD27B0312518A9002107480F07B040E
:1050D10012518A9001F0E475F004122B2B9001EE2D
:1050E100E0900210F07B05125192A3E0900210F0C3
:1050F1007B07125192E07E007802C333CE33CED8C3
:10510100F912514E12519D20E7FA9001E8E025E095
:1051110025E0440812514E12519D20E7FA9001EE0C
:10512100E004F09001EDE02404F00250849001E7E6
:10513100E09001EEF09001E9E004F070069001E8E2
:0C514100E004F09001ECE004F00250717A
:10514D0022900210F07B097D02E4FF1273D77B0AD7
:10515D007D02E4FF126E58EF543F4480900210F030
:10516D007B0A7D02E4FF1273D7227D02E4FF1273E6
:10517D00D79001EFE0FBA3E0FAA3E0F9227D02E472
:10518D00FF1273D7227D02E4FF1273D79001E8223C
:0B519D007B0A7D02E4FF126E58EF2237
:0B75C7009001E0EFF0A3EDF0A3EBF06B
:1075D200A3127DE312820F9001E6EFF0C364809460
:1075E2008040429001E0E030E0339001E1E0FFA30F
:1075F200E0FD7C00A3127DE3122A6CFB1250069080
:1076020001E6E014F09001E4E475F001122B2B90F6
:1076120001E1E02402F0127E0050CF8005127E00CC
:0576220050FB120029DD
:017627002240
:108101000500000600000700000800000900000A41
:10811100000012000020000B000C000D000E0000FA
:035656000121002F
:10723500900343E075F003A42401F9748135F0FA55
:107245009001E374FFF0A3EAF0A3E9F0229001DDD9
:10725500E0FBA3E0FAA3E0F9229001E374FFF0A3B9
:107265007481F0A3740DF022900001022A85122A80
:107275006C540C1313543FF50822900002022A8522
:10728500900003022A857B017D127C00227B01E4AC
:0D729500FDFC7F1C227B01E4FDFC7F4122FB
:10787D00125B671283957F041200267F031283AD7E
:10788D00E4F508AF081278B30508E508C39406407F
:10789D00F27F01127E0A7FFF1283AD7F081278B34B
:0578AD00E4900340F02F
:1078B200221281419001E1E4F0A37426F07B5AE4A4
:0778C200FDFCFF126C89229E
:103EFF009001DDEB12724A7F021200267FFF1283C0
:103F0F00AD900342E0122E433F45113F54213F7EB7
:103F1F00223FAC313FE633402034405A4140A69116
:103F2F0040BCA140E4A2410CB1414CB34186B44125
:103F3F00BDC10000420A127252122A6C20E1030224
:103F4F00420A0240B2127252122A6C30E108127207
:103F5F00357DFF12422912725212726D20E1030257
:103F6F00420A9003441272387B1D7D5D0242051296
:103F7F007252122A6C30E10C1272357B0E7D487F23
:103F8F00011275C712725212726D20E10302420ABA
:103F9F00900344127238E4FB7D14024205127252F0
:103FAF00122A6C30E1061272351242451272521209
:103FBF00726D30E10990034412723812424F12723F
:103FCF005212727F20E10302420A900345127238A7
:103FDF007B0F7D3E024205127252122A6C30E106AF
:103FEF0012723512420B12725212726D30E1099039
:103FFF00034412723812423112725212727F20E150
:10400F000302420A9003451272387B0F7D3E024233
:10401F0005127252122A6C30E10612723512420BDF
:10402F0012725212726D30E10990034412723812FB
:10403F00423112725212727F20E10302420A900340
:10404F00451272387B0F7D14024205127252122AEA
:10405F006C30E10612723512421512725212726DE5
:10406F0030E10990034412723812423B127252121D
:10407F00727F30E10990034512723812424F12726B
:10408F005212728520E10302420A900346127238DF
:10409F007B0F7D3E024205127252122A6C20E10301
:1040AF0002420A127235E4FB7D2902420512725256
:1040BF00122A6C30E10612723512424512725212F8
:1040CF00726D20E10302420A9003441272387B1290
:1040DF007D29024205127252122A6C30E1061272C9
:1040EF003512421512725212726D20E10302420A0A
:1040FF00900344127238E4FB7D3E02420512725265
:10410F00122A6C30E10C127235E4FB7D297F01120B
:10411F0075C712725212726D30E109900344127218
:10412F003812426312725212727F20E10302420A66
:10413F009003451272387B127D3E02420512725275
:10414F00122A6C30E10612723512421F127252128D
:10415F00726D30E10990034412723812423B1272B1
:10416F005212727F20E10302420A90034512723805
:10417F007B127D3E024205127252122A6C30E1060A
:10418F0012723512421F12725212726D30E1099083
:10419F00034412723812425912725212727F30E176
:1041AF005A9003451272387B127D14024205127227
:1041BF0052122A6C30E1081272357D141242291204
:1041CF00725212726D30E10990034412723812422A
:1041DF005912725212727F30E109900345127238F0
:1041EF0012426312725212728530E10F900346121F
:1041FF0072387B127D3E7F011275C722E4FB7D145E
:10420F007F011275C722E4FB7D147F011275C7224F
:10421F00E4FB7D147F011275C722E4FB7F01127549
:10422F00C722E4FB7D3E7F011275C722E4FB7D3E72
:10423F007F011275C722E4FB7D297F011275C7220A
:10424F007B0F7D147F011275C722E4FB7D3E7F013A
:0E425F001275C7227B127D147F011275C722D3
:08838500900341E04480F02266
:107B18007B787D01E4FF126E58EF540FFF900350FD
:107B2800F0900341E06F602ED2237B31E4FDFF1219
:107B38006E58EF547F900210F07B31E4FDFF127312
:107B4800D77F4D1200267F4012839B1283959003A6
:077B580050E0900341F02210
:075770009001DDEB12724A0B
:105777007F41120026900342E0122E4357AB115788
:10578700BC2157E922581931583B3358573457AB86
:105797009157BCA157E9A25819B1583BB35857B410
:1057A700000058939001DD12725512727360030264
:1057B70058240258319001DD127255127273600B32
:1057C7001258941272441258C68006127292126BC3
:1057D700239001DD12725512726D127276603002DB
:1057E70058659001DD127255127273600B1258944E
:1057F7001272441258C68006127292126B239001DD
:10580700DD12725512726D127276600302586502CC
:1058170058899001DD127255127273600D1258ADDE
:10582700127244E4FB7D310258847B01E4FDFC7F66
:10583700310258909001DD127255127273600C128A
:1058470058AD127244E4FB7D1C803212729280398B
:105857009001DD12725512726D12727660247B020E
:10586700E4FDFCFF126B23E50825E0FFE433FE743B
:10587700162FF974813E127244E4FB7D467F0102C4
:0C58870075C77B01E4FDFC7F46126B231B
:10589300227B02E4FDFCFF126B23E50825E0FFE415
:1058A30033FE74162FF974813E227B02E4FDFCFF64
:1058B300126B23E50825E0FFE433FE74162FF97419
:0D58C300813E22E4FB7D1C7F011275C7228F
:102EB1009001DDEB12724A7F0C120026900342E072
:102EC100122E432EF2112F04212F2D222F56312F96
:102ED10096332FD634301F41307F913099A130D1B4
:102EE100A23104B13158B331A4B431F6C10000327A
:102EF100639001DD127255122A6C30E00302308BAF
:102F01000230929001DD127255122A6C30E00812E3
:102F1100725E1232D880031232AD9001DD12725509
:102F210012726D30E0030230BC0230C69001DD1236
:102F31007255122A6C30E00812725E12326F8003F1
:102F41001232649001DD12725512726D30E003028B
:102F510030F40230FE9001DD127255122A6C30E01D
:102F61000812725E1232D880031232AD9001DD1266
:102F7100725512726D30E00812725E12330E8003C8
:102F81001232F79001DD12725512727F30E00302A6
:102F910030700230789001DD127255122A6C30E0E7
:102FA1000812725E12326F80031232649001DD12D8
:102FB100725512726D30E00812725E1232C38003D4
:102FC1001232839001DD12725512727F30E00302DA
:102FD10030700230789001DD127255122A6C30E0A7
:102FE1000812725E123279800312328E9001DD1264
:102FF100725512726D30E00812725E1232C3800394
:103001001232839001DD12725512727F30E0081284
:10301100725E7B0F0231E67B017D0F0231EF900181
:10302100DD127255122A6C30E00812725E1232798A
:10303100800312328E9001DD12725512726D30E0F2
:103041000812725E1232ED80031232B89001DD1265
:10305100725512727F30E00812725E12330E8003D5
:103061001232F79001DD12725512728530E00812AA
:10307100725E7B0F0230F97B017D0F0231519001AD
:10308100DD127255122A6C30E00712725EE4FB8089
:103091002F7B01E4FDFC80339001DD127255122A71
:1030A1006C30E00812725E12331880031232E29023
:1030B10001DD12725512726D30E00A12725E7B0FE1
:1030C1007D2C0232567B017D0F7C007F2C02326009
:1030D1009001DD127255122A6C30E00812725E12F4
:1030E100329980031232CD9001DD12725512726D48
:1030F10030E00A12725EE4FB7D4102325612729A8E
:103101000232609001DD127255122A6C30E0081211
:10311100725E12331880031232E29001DD12725591
:1031210012726D30E00812725E1233228008127240
:103131008B7F17126B239001DD12725512727F3053
:10314100E00A12725E7B127D410232567B017D12D2
:103151007C007F410232609001DD127255122A6CAF
:1031610030E00812725E12329980031232CD900162
:10317100DD12725512726D30E00812725E1232ED7C
:1031810080031232B89001DD12725512727F30E065
:103191000A12725E7B127D4102325612728B7F419E
:1031A1000232609001DD127255122A6C30E0081271
:1031B100725E1232A380031233039001DD12725545
:1031C10012726D30E00812725E12332C8006127298
:1031D1009A126B239001DD12725512727F30E00A50
:1031E10012725E7B127D170232567B017D127C00CA
:1031F1007F170232609001DD127255122A6C30E0A5
:103201000812725E1232A380031233039001DD12A1
:10321100725512726D30E00812725E12332C800604
:1032210012729A126B239001DD12725512727F3065
:10323100E00812725E123322800812728B7F17121D
:103241006B239001DD12725512728530E00C1272FF
:103251005E7B127D417F010275C712728B7F411225
:103261006B23227B01E4FDFC7F17126B2322E4FB1D
:103271007D177F011275C722E4FB7D177F0112754F
:10328100C7227B01E4FDFC7F41126B23227B01E419
:10329100FDFC7F17126B2322E4FB7D177F01127562
:1032A100C722E4FB7D177F011275C7227B01E4FD74
:1032B100FC7F2C126B23227B01E4FDFC7F41126B0E
:1032C1002322E4FB7D417F011275C7227B01E4FDCE
:1032D100FC7F17126B2322E4FB7D2C7F011275C743
:1032E100227B01E4FDFC7F2C126B2322E4FB7D4158
:1032F1007F011275C7227B017D0F7C007F17126B46
:1033010023227B01E4FDFC7F17126B23227B0F7DBF
:10331100177F011275C722E4FB7D2C7F011275C74F
:10332100227B127D177F011275C722E4FB7D417F4D
:05333100011275C72226
:107B5F00E4FF128141900340E024FE600E04702385
:107B6F00127B937481F0A374108009127B9374813C
:107B7F00F0A37413F0E4FB7D017F011275C77FFF43
:107B8F001283AD227F031283AD7F04120026900172
:067B9F00E374FFF0A322D5
:1080B800E4FF128141900348E030E1127B017A032A
:1080C8007948122EB17B017A0379481257701283CE
:0680D80085E4FF027E0AB0
:1016F80000000000000000000000000000000000E2
:1017080000000000000000000000000000000000D1
:10171800003E007E00FE01CE038E7F8E7F8E738E8C
:10172800738E738E7F8E7F8E01CE00FE007E003E0C
:1017380000000000020006000E001E003FFE7FFEB3
:101748007FFE3FFE1E000E000600020000000000A3
:101758000000000000400060007000787FFC7FFE01
:101768007FFE7FFC007800700060004000000000F1
:10177800000003C003C003C003C003C003C003C00C
:1017880003C03FFC1FF80FF007E003C00180000012
:1017980003C003C007E007E00E700E701C381C3849
:1017A800381C381C7FFE7FFE700E700E700E700E97
:1017B8007FF87FFC383E381E381E381E383C3FF80C
:1017C8003FF8383C381E381E381E383E7FFC7FF8FC
:1017D8000FF81FFC3C1C380E780E700E700070005D
:1017E80070007000700E700E380E3C1C1FFC0FF855
:1017F8007FF07FF07078703C703C703C70787FF0C0
:101808007FE0778073C071E070F07078703C701E74
:1018180000006006700E781E7C3E7FFE77EE73CE69
:10182800718E700E700E700E700E700E700E700E3F
:1018380000001FF81FF800E000E000E000E000E012
:1018480000E000E000E070E079E03FC01F800F009A
:1018580000000000000003C007800F001E003FFCCE
:101868003FFC1E000F00078003C0000000000000BE
:1018780000000000000003C001E000F000783FFC19
:101888003FFC007800F001E003C000000000000009
:1018980000000000018001800180018011881998F2
:1018A8001DB81FF80FF007E003C00180000000001A
:1018B800003E007E00FE01CE038E7F8E7F8E738EEB
:1018C800738E738E7F8E7F8E01CE00FE007E003E6B
:1018D800700E700E700E700E700E700E781E381C22
:1018E800381C1C381C380E700FF007E003C001804C
:1018F8000000380038003800380038003800380058
:1019080038003800380038063806380E3FFE3FFEEB
:101918000000000000000000000003800FE01C70C1
:10192800183038383838383818301C700FE00380D1
:101938000000000000000000000003C00FF01C3889
:101948001C000F0007E000F000381C380FF003C03F
:10195800000000000000000000000000000000007F
:10196800000000000000000000000000000000006F
:10197800000000000000000000000000000000005F
:10198800000000000000000000000000000000004F
:10199800000000000000000000000000000000003F
:1019A800000000000000000000000000000000002F
:1019B800000000000000000000000000000000001F
:1019C800000000000000000000000000000000000F
:1019D80000000000000000000000000000000000FF
:1019E80000000000000000000000000000000000EF
:1019F80000000000000000000000000000000000DF
:101A080000000000000000000000000000000000CE
:101A180000000000000000000000000000000000BE
:101A280000000000000000000000000000000000AE
:101A3800000000000000000000000000000000009E
:101A4800000000000000000000000000000000008E
:101A5800000000000000000000000000000000007E
:101A6800000000000000000000000000000000006E
:101A7800000000000000000000000000000000005E
:101A8800000000000000000000000000000000004E
:101A9800000000000000000000000000000000003E
:101AA800000000000000000000000000000000002E
:101AB800000000000000000000000000000000001E
:101AC800000000000000000000000000000000000E
:101AD80000000000000000000000000000000000FE
:101AE80000000000000000000000000000000000EE
:101AF80000000000000000000000000000000000DE
:101B080000000000000000000000000000000000CD
:101B1800000007000F800F800F800F80070007006C
:101B28000700020002000000020007000700020090
:101B38000000EE006600440088000000000000007D
:101B4800000000000000000000000000000000008D
:101B5800000008200820082008203FF80820082056
:101B68000820082008203FF808200820082008201E
:101B780000000FC01B603330333033001B000F00F0
:101B880003C0036013303B3033301B600FC00300C9
:101B980000003808441084200440048009001270B2
:101BA800E4880908120822084210822001C00000B7
:101BB80000000E001B00318031801B000E001C004D
:101BC8003678632061A060E0606030F01F9C000000
:101BD80000000000000000000000000000000000FD
:101BE800000000000000800060007000380018004D
:101BF8000000000400080018001000300030003019
:101C08000030003000300010001800080004000206
:101C180000008000400060002000300030003000EC
:101C280030003000300020006000400080000000DC
:101C3800000002004210222012400A800700FFFC28
:101C480007000A8012402220421002000200000011
:101C580000000000030003000300030003007FF8F6
:101C68007FF80300030003000300030000000000E6
:101C7800000000000000000000000000000000005C
:101C8800000018003C003C00180010002000400034
:101C980000000000000000000000000000007FF8C5
:101CA8007FF80000000000000000000000000000B5
:101CB800000000000000000000000000000000001C
:101CC8000000000000007800840084008400780090
:101CD800000000180030006000C00180030006000A
:101CE8000C00180030006000C000800000000000F8
:101CF80000000FE0183030183038307830D831987C
:101D0800331836183C183818301818300FE000000F
:101D18000000030007000F00030003000300030096
:101D28000300030003000300030003001FE000009A
:101D380000000FE01830301830183038007001C03B
:101D480003000E001800300830083FF83FF8000084
:101D5800000007C0183030183018003000E003C009
:101D680000E00030001830183018183007C00000A4
:101D7800000000C001C003C006C00CC018C030C0BD
:101D880060C0C0C0C0C0FFF800C000C003F00000C1
:101D980000003FF03FF030003000300037C03830EE
:101DA80030180018001830183018183007C0000014
:101DB800000007E01830303030003000300037E0E5
:101DC8003830301830183018301818300FC000006C
:101DD80000003FF83FF8201820180030006000C0CD
:101DE8000180030003000300030003000300000058
:101DF80000000780186030303030303018600FC075
:101E08001860303060186018601830300FC000005B
:101E1800000007801860303030183018301830381B
:101E2800187807980018303038301860078000009C
:101E3800000000000000000003000780030000000D
:101E480000000300078003000000000000000000FD
:101E580000000000000000000300078003000000ED
:101E680000000300078003800180070000000000D5
:101E780000000000001800600180060018006000E3
:101E88008000600018000600018000600018000053
:101E9800000000000000000000007FF87FF800004C
:101EA80000007FF87FF8000000000000000000003C
:101EB8000000800060001800060001800060001823
:101EC800000400180060018006001800600080000F
:101ED800000007800FC01CE038E038E011C0018026
:101EE80003000300020002000000020007000700D0
:101EF80000000FC030604010478888C890C890C85C
:101F080090C890C888D84770400830700FC000004B
:101F1800000003000300078007800CC00CC0186095
:101F280018601FE03030303060186018F03C000056
:101F380000003F80186018301830183018601FC033
:101F48001860183018181818181818303FC00000F2
:101F58000000078818683038601860086000600062
:101F6800600060006008601830301860078000006A
:101F780000007F8030E030383018301830183018C2
:101F88003018301830183018303030E07F800000BA
:101F980000003FF0183018101800188018801F80B3
:101FA8001880188018001800181018303FF000002A
:101FB80000003FF0183018101800188018801F8093
:101FC8001880188018001800180018003C0000003D
:101FD80000000F90187030306010601060006000D2
:101FE8006078603060306030307018F00FB00000FA
:101FF80000007878303030303030303030303FF0DA
:102008003030303030303030303030307878000098
:1020180000000FC0030003000300030003000300D7
:102028000300030003000300030003000FC00000C7
:10203800000001F000600060006000600060006067
:10204800006000603060306030E019C00F000000B0
:10205800000078F8306030C03180330036003C0032
:102068003E003300318030C030603030787C000072
:1020780000003C001800180018001800180018008C
:102088001800180018001808181818383FF8000029
:102098000000E03CE038F078F078D8D8D8D8C89874
:1020A800CD98CD98C518C718C218C018E07C000094
:1020B8000000C078E030F030F830DC30CE30C73087
:1020C800C3B0C1F0C0F0C070C030C030E0780000CC
:1020D80000000FC0387070386018601860186018F9
:1020E8006018601860186018703838700FC00000E9
:1020F80000003FC0187018381818181818381870C9
:102108001FC0180018001800180018003C00000034
:1021180000001F8070E0E070C030C030C030C030B8
:10212800C030C030C030CF30E1F070E01FEC003874
:1021380000003F8018E0187018301830187018E048
:102148001FC01B80198018C0186018303C7C000024
:1021580000000FD018703030301018000E000380C7
:1021680000E000302018301838182C3027E0000024
:1021780000007FF873386318430803000300030066
:1021880003000300030003000300030007800000AE
:102198000000787830303030303030303030303007
:1021A800303030303030303030301CE00FC000007C
:1021B8000000F0786030603060306030603060304F
:1021C80060306030306018C00D80070002000000E9
:1021D8000000C71C82088208C71847184510451018
:1021E8006DB06DB028A038E01040104010400000DD
:1021F8000000F07C6030306018C008800D80070057
:10220800020007000D8018C030606030F07C0000CC
:102218000000F03C6018303018600CC007800300E4
:10222800030003000300030003000300078000000D
:1022380000003FF8301820180030006000C001800E
:10224800030006000C001800300860187FF8000032
:102258000000001C0030006000600060006000604A
:102268000060006000600060006000600030001CDA
:1022780000008000C0006000300018000C0006005C
:102288000300018000C0006000300018000C00044A
:102298000000E000300018001800180018001800AE
:1022A8001800180018001800180018003000E00086
:1022B8000000000000000000000000000000000016
:1022C800020007000D8018C07070C01C00000000DC
:1022D80000000000000000000000000000000000F6
:1022E8000000000000000000000000000000FFFEE9
:1022F80000000E0007000180004000000000000000
:1023080000000000000000000000000000000000C5
:102318000000000000000000000000000F8030C036
:1023280000C00FC018C030C030C031D01F600000DE
:102338000000380018001800180018001FC01C60A2
:10234800183018301830183018301C603FC00000A2
:102358000000000000000000000000000FC018602E
:102368003060306030003000300018200FC00000AE
:102378000000007000300030003000300FB01870DE
:102388003030303030303030303018700FB000001E
:102398000000000000000000000000000FC01860EE
:1023A800303030303FF03000300018300FE000009F
:1023B800000003C006600660060006003FC0060075
:1023C8000600060006000600060006000F000000D2
:1023D800000000000000000000000FB018E018C066
:1023E80018C00F80070018C03060306018C00F8018
:1023F8000000380018001800180018001BC01E60E4
:102408001C30183018301830183018303C7800005C
:1024180000000000030003000000000007000300A4
:10242800030003000300030003000300078000000B
:10243800000001800180000000000380018001800D
:102448000180018001801980198019800F00000027
:1024580000003800180018001800180019F018C0FB
:1024680019801B001F801CC0186018303C7C0000BD
:10247800000007000300030003000300030003003B
:1024880003000300030003000300030007800000AB
:10249800000000000000000000000000DEF073985B
:1024A800631863186318631863186318F39C0000B3
:1024B80000000000000000000000000037C01C60A1
:1024C8001860186018601860186018603CF0000008
:1024D8000000000000000000000000000FC01860AD
:1024E8003030303030303030303018600FC00000BD
:1024F80000000000000000000000000037C01C6061
:102508001830183018301C601FC0180018003C0024
:102518000000000000000000000000000F8018E02C
:1025280030603060306018E00FE00060006000F05C
:102538000000000000000000000000001BC00EE0CA
:102548000C600C000C000C000C000C001E000000BD
:102558000000000000000000000000000FC018E0AC
:1025680018200E00030001C0106018600FC00000A2
:102578000000000000000600060006003FC006003C
:102588000600060006000600066006E007C0030015
:10549F00EF543F4480900210F07B0A7D02E4FF221C
:1054AF0075F020A424F8F9741635F0FA74FFF0A300
:1054BF00EAF0A3E9F022EFF0A3ECF0A3EDF0A3EBF9
:1054CF00F0E517900210F0E4FB7D02FF22F0A3E05D
:1054DF00FBA3E0FAA3E0F92225E025E0FDE02D444F
:1054EF0002900210F07B097D02E4FF22900209E096
:1054FF00FF04F0EF4480900210F07B047D02E4FF84
:10550F0022E517900210F07B017D02E4FF22E517E0
:10551F00900210F07B027D02E4FF22E5179002104B
:10552F00F07B037D02E4FF22A3E0900210F07B07E3
:10553F007D02E4FF22122A8575F020A424F8F97465
:10554F001635F0FA229001E4E0FFA3E0FD7C009015
:10555F0001E9E0FEFB9001E6E0F9A3E0FAA3E02207
:10556F009001EBE025E025E0FF9001EDE025E0253F
:10557F00E014FEC454F04F229001E7E4122B2B905D
:10558F0001E4E02408F09001E9E0D36480948022E4
:10559F00F0A3E0FEA3E0780322900210F07B057DDC
:1055AF0002E4FF22F0900210F07B0F7D02E4FF2255
:1055BF009001D87454F0A374FFF02275F003A42463
:1055CF00F1F582E43401F58322A3E0900210F07B21
:1055DF00087D02E4FF22E0900210F07B067D02E4DA
:1055EF00FF22ECF0A3EDF0A3EB22900001022A853D
:0A55FF00E0FBA3E0FAA3E07E002227
:030026008F18220E
:0383AD008F172205
:1076E0009001D5EFF0A3EDF0900210EBF07B0B12C0
:1076F00077319001D8E0900210F07B0C1277319036
:1077000001D9E0900210F07B0D7D02E4FF1273D7E7
:107710009001D5E030E006A3E0448080069001D6D9
:10772000E044C0900210F07B0E7D02E4FF1273D79C
:09773000227D02E4FF1273D7224E
:105B670090021074C0F07B1F7D02E4FF1273D79080
:105B77000210740C1255B71273D71255BF7F021259
:105B87005C677454F0A3744AF07B4C7F02125C7D0F
:105B970074FFF0A3746BF07F02125C727480F0A341
:105BA700F0E4FBFD125C861255C27F01125C67743C
:105BB70055F0A3744AF07B4B7F01125C7D74FFF0B4
:105BC700A3746BF07F01125C727480F0A3F07BF01A
:105BD7007D04125C867480F0A3F07BC07D05125CA7
:105BE7008F7480F0A3F07B7F7D06125C8F7480F04A
:105BF700A3F07B3F7D07125C98744FF0A374B5F058
:105C07007B957D08125C9874AAF0E4A3F07BB27DC3
:105C1700097F011276E09001D874D4F0A374EAF0FA
:105C27007B697D0A7F011276E09001D874B5F0A3F5
:105C3700743AF07B617D0B7F011276E0E49001D826
:105C4700F0A37494F07BE17D0C7F011276E012558E
:105C5700BF7B4C7D0D7F011276E0E4F517F5182226
:105C67007B4C7D011276E09001D8227B1D7D0312CB
:105C770076E09001D8227D021276E09001D8227F4B
:105C8700011276E09001D8227F011276E09001D8C8
:0A5C9700227F011276E09001D8226E
:108141009001E3EF1254A7126E58EF54C3FF900150
:0F815100E3E0FE25E025E04FF01254A40273D7BF
:107E0A009001E3EFF064087B0F7D027007127E2B6E
:107E1A0044028006E4127E2B44081255B31273D72B
:107E2A0022FF126E58EF540FFF9001E3E05407FE51
:067E3A00C454F04FF022D9
:047E76009001DDEFAB
:107E7A001255B7126E58EF540FFF9001DEE4F0A3CB
:107E8A00EFF09001DDE0F4FFE4F4FEA3E05EFEA370
:107E9A00E05FFF9001DEEEF0A3EF1255B30273D755
:106C89009001DD1254C51273D71255101273D71221
:106C9900551D1273D712552A1273D79001DDE0FFE3
:106CA90025E012559FC333CE33CED8F9FF9001DECC
:106CB900EEF0FCA3EFF0FDA3E025E0FF9001DDE09D
:106CC900FB2F149001E012559FC333CE33CED8F970
:106CD9002DFFEE3CCF24FFCF34FF9001E1F0A3EF6D
:106CE900F0EB1255A81273D79001E01255E5127313
:106CF900D79001DE1255371273D79001E11255D89A
:106D09001273D79001DEE09001E11254E71273D7B4
:106D19001254A8126E58EF44C01254A41273D71219
:0A6D290054A8126E58EF20E7F6227E
:108197001281417FFF1283AD9001E1E4F0A37426C1
:0A81A700F07B5AE4FDFCFF026C8936
:1051A8009001FDEFF0A3EB1254BD9001FE1254DE06
:1051B800122A6CF522301704AF188002AF17EF12CD
:1051C80054D21273D7301604AF188002AF17125298
:1051D800FE301504AF188002AF1712530D301404B7
:1051E800AF188002AF171252DC9001FDE004F030D6
:1051F8001304AF188002AF17900210EF1254D512A3
:1052080073D7301204AF188002AF171252FE301154
:1052180004AF188002AF1712530D301004AF188076
:1052280002AF171252DC9001FDE0041254DC125553
:10523800F9F522301704AF188002AF17900210EF6B
:105248001254D51273D7301604AF188002AF17EF77
:105258001255121273D7301504AF188002AF17EF2A
:1052680012551F1273D7301404AF188002AF17EF0E
:1052780012552C12531C12550312531C04F03013F0
:1052880004AF188002AF17900210EF1254D51273B2
:10529800D7301204AF188002AF17900210EF1255E2
:1052A800151273D7301104AF188002AF179002108F
:1052B800EF1255221273D7301004AF188002AF17BF
:1052C800900210EF12552F1273D79001FDE012557E
:1052D800030273D7900210EFF07B037D02E4FF1204
:1052E80073D79001FDE04480900210F07B047D02AA
:1052F800E4FF1273D722900210EFF07B017D02E4E5
:10530800FF1273D722900210EFF07B027D02E4FFB8
:0C5318001273D7221273D79001FDE0221F
:075CA1009001EB1255F1F038
:105CA800EF25E02408FFF50C9001EB1255A1C33352
:105CB800CE33CED8F9F0EE9001EBF0A3E02408F053
:105CC8009001EBE03400F09001EE1254DE122A6CE1
:105CD8009001F11254AF9001EE1254E01255F99070
:105CE80001F41254AF9001EE1254E09000021255E4
:105CF800449001F71254BB9001EE1254E090000357
:105D08001255449001FA1254BB9001EDE0D394046B
:105D180040037404F0E4F50AE50AC3942040030242
:105D28005DC4E4F50B9001EDE0FFE50BC39F502641
:105D3800E50B75F003A424F1F582E43401F5831230
:105D480055FF250AF9EE3AFAE50B25E025E0FF12A2
:105D580051A8050B80CFE50C1255A81273D79001F6
:105D6800EB1255371273D712556F1254F01273D7BE
:105D78001254A8126E5812549F1273D71254A812B4
:105D88006E58EF20E7F612556F44081254F012735C
:105D9800D71254A8126E5812549F1273D71254A8CF
:105DA800126E58EF20E7F69001ECE004F0700690D0
:0C5DB80001EBE004F0050A050A025D2082
:015DC40022BC
:036B23009001E0FE
:106B26001254C51273D71255101273D712551D126F
:106B360073D712552A1273D79001E0E0FF25E0F0D3
:106B4600E0240812559FC333CE33CED8F9F0EE9029
:106B560001E1F0A3E02408F09001E1E03400F090B8
:106B660001E3E025E025E0FF9001E0E0FD2F149031
:106B760001E4F09001E2E0240FFE9001E1E0340030
:106B86009001E5F0A3CEF0900210ED1255AB127312
:106B9600D79001E41255E51273D79001E1125537EB
:106BA6001273D79001E51255D81273D79001E1E020
:106BB6009001E51254E71273D71254A8126E58EFDB
:106BC60044C01254A41273D71254A8126E58EF2060
:026BD600E7F6E0
:016BD800229A
:105DC500900209EFF0A3EB1254BD90020A1254DEC3
:105DD500122A6CF522301704AF188002AF17EFC4F2
:105DE50054F0FF301604AE188002AE17EF4E125471
:105DF500D21273D7301504AF188002AF17EFC45411
:105E0500F0FF301404AE188002AE17EF4E12551293
:105E15001273D7301304AF188002AF17EFC454F0D4
:105E2500FF301204AE188002AE17EF4E12551F1246
:105E350073D7301104AF188002AF17EFC454F0FFC9
:105E4500301004AE188002AE17EF4E12552C1273A7
:105E5500D71254FB1273D790020A1254DE1255F969
:105E6500F522301704AF188002AF17EFC454F0FFC6
:105E7500301604AE188002AE17EF4E1254D21273CC
:105E8500D7301504AF188002AF17EFC454F0FF30B8
:105E95001404AE188002AE17EF4E1255121273D7C6
:105EA500301304AF188002AF17EFC454F0FF30125F
:105EB50004AE188002AE17EF4E12551F1273D7307D
:105EC5001104AF188002AF17EFC454F0FF3010046F
:105ED500AE188002AE17EF4E12552C1273D712541E
:045EE500FB0273D772
:0A61F3009001EAEFF0A31255F1F05D
:1061FD009001EAE0FF25E0F0E0240412559FC3333F
:10620D00CE33CED8F9F0EE9001EBF0A3E02404F0FC
:10621D009001EBE03400F0EBD3940840069001EDD3
:10622D007408F0E4F50A9001EDE0FFE50AC39F5014
:10623D00181254DD850A82758300125544E50A1241
:10624D0055CA1254BB050A80DDE4F50AE50AC3946C
:10625D002040030262E4E4F50B9001EDE0FFE50B55
:10626D00C39F501AE50B1255CA1255FF250AF9EEB8
:10627D003AFAE50B25E0FF125DC5050B80DB9001B9
:10628D00EAE01255A81273D79001EB12553712732D
:10629D00D79001EBE025E025E0FF9001EDE0FEC495
:1062AD003354E024F04F1254F01273D71254A81245
:1062BD006E5812549F1273D71254A8126E58EF20B5
:1062CD00E7F69001ECE004F070069001EBE004F0CD
:0762DD00050A050A026259DF
:0162E4002297
:077628009001E3EF1255F29F
:10762F001254DC12820F9001E9EFF0C36480948052
:10763F0040449001E3E030E01E1255549001EEC932
:10764F001254BD125CA19001E9E024FCF075F00426
:10765F0012558750E4801C1255549001EEC91254F4
:10766F00BD1261F39001E9E024F8F075F0081255AE
:06767F008750E41200290F
:0176850022E2
:09835800D28C758CEFE4F58A2249
:10816000D2CAD2ADD2BDE4F5C975C804C2CF75CDAF
:0C817000B8F5CC7F0C7825E4F608DFFCA5
:01817C0022E0
:03000B0002831459
:0D831400C2AF758CDC758A00C28DD2AF320D
:03002B000264B7B5
:1064B700C0E0C083C082C0D0C2AF75CDB875CC0074
:1064C700C2CFD3E5269401E525648094804008E592
:1064D70026152670021525D3E5289401E527648043
:1064E70094804008E528152870021527D3E52A94DB
:1064F70001E529648094804008E52A152A70021571
:1065070029D3E52C9401E52B648094804008E52C81
:10651700152C7002152BD3E52E9401E52D6480947C
:10652700804008E52E152E7002152DD3E530940115
:10653700E52F648094804008E53015307002152FF0
:10654700D390032AE09401900329E09400400CA320
:10655700E024FFF0900329E034FFF0D390032CE010
:10656700940190032BE09400400CA3E024FFF090EB
:10657700032BE034FFF09002FCE0D394014003E0EA
:0D65870014F0D2AFD0D0D082D083D0E0325B
:10333600FFFF00FFFF000130000131B40132000140
:1033460033780134000135B401360001377801388D
:10335600000139B4013A00013B78013C00013DB45B
:10336600013E00013F78FFFFFFFFFF00FFFF000166
:1033760030000131B40132000133900134000135CF
:10338600B40136000137900138000139B4013A0022
:10339600013B90013C00013DB4013E00013F90FF1E
:1033A600FFFFFFFF007FFF000130000131B4013253
:1033B6000001333C0134000135B401363C01377855
:1033C600FFFFFF555500555500FFFF01FFFF0101A7
:1033D60030780131B40132500133780134000135BF
:1033E600B4013600013778FFFFFFFFFF007FFF00C3
:1033F6000130000131B401320001334801340001CB
:1034060035B4013648013790FFFFFF7FFF00FFFF0D
:103416000001300001315A01320001339001345A63
:103426000135B4013600013790FFFFFFFFFF007F33
:10343600FF007FFF017FFF017FFF027FFF02013058
:10344600000131B401320001333C01340001355A28
:1034560001363C01377801385A0139B4013A3C014A
:103466003B78FFFFFF7FFF007FFF007FFF017FFFAD
:1034760001FFFF027FFF0201300001315A013200D5
:1034860001333C01345A0135B401360001373C01A1
:1034960038000139B4013A3C013B78FFFFFF7FFF5A
:1034A60000FFFF007FFF017FFF017FFF027FFF021A
:1034B60001300001315A01320001337801345A01DA
:1034C60035B401360001373C01385A0139B4013AA6
:1034D6003C013B78FFFFFF7FFF007FFF007FFF017E
:1034E600FFFF017FFF027FFF0201300001315A0119
:1034F600320001333C01345A0135B401360001373C
:103506007801380001395A013A3C013B78FFFFFF48
:10351600FFFF007FFF007FFF017FFF017FFF027F2C
:10352600FF020130000131B4013200013348013499
:103536000001355A01364801379001385A0139B42D
:10354600013A48013B90FFFFFF7FFF007FFF007FAE
:10355600FF017FFF01FFFF027FFF02013000013103
:103566005A01320001334801345A0135B40136009C
:103576000137480138000139B4013A48013B90FF50
:10358600FFFF7FFF00FFFF007FFF017FFF017FFF3F
:10359600027FFF0201300001315A013200013390EF
:1035A60001345A0135B401360001374801385A0151
:1035B60039B4013A48013B90FFFFFF7FFF007FFFD0
:1035C600007FFF01FFFF017FFF027FFF0201300046
:1035D60001315A01320001334801345A0135B40130
:1035E600360001379001380001395A013A48013B4B
:1035F60090FFFFFF7FFF007FFF0001300001315A7F
:1036060001320001333C01345A0135B40136000160
:10361600373C01380001395A013A3C013B78013CFC
:103626005A013DB4013E3C013F78FFFFFF7FFF009A
:103636007FFF0001300001315A0132000133480199
:10364600345A0135B40136000137480138000139D2
:103656005A013A48013B90013C5A013DB4013E48AB
:10366600013F90FFFFFF00021500121F0022150008
:10367600321FFFFFFF00022000123000222000321E
:1036860030FFFFFF000432462E40080A18261D248C
:1036960016261A240022080134550135B0FFFFFF13
:1036A60000222E0134550135B0FFFFFF00322E01F6
:1036B6003007013160FFFFFF00320801300701319A
:1036C60060FFFFFF0022380134550135B0FFFFFFD0
:1036D6000160C0016381016682016983008A01017C
:1036E6006C03016D00FFFFFF0160800163C101668D
:1036F60082016983009A41016C0C016D00FFFFFF96
:103706000160800163810166C201698300AA8101AB
:103716006C30016D00FFFFFF01608001638101666F
:10372600820169C300BAC1016CC0016D00FFFFFFD1
:10373600016080016381016682016983008A31002C
:103746009A7100AAB100BAF1016C00016DE4FFFFA5
:10375600FF01110119012101290114011C01240194
:103766002C01100118012001280113011B0123015E
:103776002B016101640167016A83848182939491BC
:0937860092A3A4A1A2B3B4B1B254
:105EE90090033FE04404FF9001E4F09001E1E0FBFE
:105EF900A3E0FAA3E0900001F9122A855401FE25D6
:105F0900E04F9001E4F09001DEE0FBA3E0FAA3E0AA
:105F1900F922900002122A85C454F04402FB22900F
:105F2900033FE0FF9001E4F09001E12290000112AB
:105F39002A855401F925E0FE90033FE02E2235F031
:105F49009001E1FA74FFF0A3EAF0A3E9F0229000CE
:105F590001122A85FF9001E1E0FBA3E0FAA3E02208
:105F6900122A6C540125E0FEEF4E2225E02457F554
:105F790082E43437F583E493FA740193FBEAFD2252
:105F89009001DDE0540F24FFFFE434FFFE7C001292
:105F99002AC49001E2EE8FF0122B2B9001DE22121F
:105FA9002A8554034480900210F02290369293FE81
:105FB9006F22122A6CFF9001E122A3E0900210F0F7
:105FC900E4FDFF22900001022A8590033FE044048A
:105FD90022900002022A8590368A93FE6F2225E0DC
:085FE9002477F582E43437222D
:0578C900900006EFF045
:1078CE00E4A3F0FBFDFF126E58EF540FFFBF0F1332
:1078DE00900006E0C454F0FBE4FDFF126E589000D9
:1078EE0007EFF0900007E0FE70037F0222EE54E0F7
:1078FE00900007F0E0C4135407F0D3940340047FC4
:05790E000080027F0172
:017913002251
:076D33009001E4EB125F4F39
:106D3A00EF75F004A4247FF9743735F0A3125F4C81
:106D4A009001E4125F12122B57FFAEF09001EAEEA7
:106D5A00F0A3EFF0F47002EEF4126D92125FC31218
:106D6A0073D79001E5E475F003122B2B9001E4121E
:106D7A005F12122B57FF9001EAE5F0F0A3EFF01231
:086D8A006D92125FC30273D782
:106D92009001E7E0FBA3E475F001122B41A9F0FAA0
:106DA200122A6CFB9001EAE0900210F0E4FDFF125F
:106DB20073D79001E7E0FBA3E475F001122B41A920
:0A6DC200F0FA122A6CFB9001EA229D
:0745C7009001DEEB125F4FD3
:1045CE00EF122E4345FA1146212246493146A433B5
:1045DE0046ED34474B4145FA914621A24649B14634
:1045EE00A4B346EDB4474BC1000047DB90033FE058
:1045FE004408125F2C125F12122A6C125F05122AE7
:10460E006CFD9001E430E006E04404F08002E0F03E
:10461E00ED801D125F28125F12125F69125F0B127E
:10462E002A6C125F21741B1248B4125EE9125FCD20
:10463E00125F2190021074190247D490033FE04498
:10464E000C125F2C125F12122A6C125F0512484B6D
:10465E006006125F0F124865125F28125F12125F1A
:10466E00CD125F6C125F0B1247DC6006125F0F12E9
:10467E004833125FD3125F2C125F61900002125FFB
:10468E00011247F970030247DB125F0F125F1B9096
