:0300000002883142
:0C883100787FE4F6D8FD75816D02887830
:0BA61C00E0248DF582E43402F5832277
:10A41500C2BCD2AC759852758DFAE4F58BD28E908C
:06A4250002F1F0A3F02299
:10A553009002F1E0FFA3E0B507037F00227F012211
:10A3CB009002F112A61CE0FF9002F1E004F0E0C352
:08A3DB0094644002E4F0D2ACEE
:01A3E3002257
:080003003099FD8F99C299228A
:03002300029F1B1E
:109F1B00C0E0C083C082C0D0309819C2989002F2C2
:109F2B0012A61CE599F09002F2E004F0E0C39464F1
:0D9F3B004002E4F0D0D0D082D083D0E032DC
:109AA800E0F580D2A3E4900335F0A3F022C390033D
:109AB80035E0940022900335E004F0229001E4E0C0
:109AC800FBA3E0FAA3E0F922EDF0A3EBF0E4FFC278
:0C9AD800AF22D2B6D2B77580FFD2AF2209
:108E27009001F3129AD012A6719001F3E0FF700639
:108E3700C2B7C2B68012EFB40106C2B7D2B6800875
:108E4700EFB40204D2B7C2B69001F4129AA8129AEC
:108E5700B5500BA3E004F070F5129ABD80F0C2A3E1
:108E67009001F5E0F580C2A1129AAD129AB5500BA8
:108E7700A3E004F070F5129ABD80F0D2A112A6719A
:048E8700129ADA223F
:108949009001D8129AD012A6719001D8E0FF700652
:10895900C2B7C2B68012EFB40106C2B7D2B6800858
:10896900EFB40204D2B7C2B69001D9E0FF04F08F88
:1089790080129AAB129AB5500BA3E004F070F5126D
:108989009ABD80F0C2A39001DAE0FBA3E475F0017F
:10899900122763A9F0FA12268EF580C2A1129AADA8
:1089A900129AB5500BA3E004F070F5129ABD80F04D
:1089B900D2A19001DDE014F070AE12A671129ADA1C
:0189C900228B
:0B88BD009001F2EFF0A3EDF0A3EBF050
:1088C800C2AF12A671E49001F2F0A3E0FF7006C2F5
:1088D800B7C2B68012EFB40106C2B7D2B68008EFAD
:1088E800B40204D2B7C2B69001F4129AA8129AB58B
:1088F800500BA3E004F070F5129ABD80F0C2A37586
:1089080080FF129AAD129AB5500BA3E004F070F5EF
:10891800129ABD80F0C2A29001F5E580F0129AADDE
:10892800129AB5500BA3E004F070F5129ABD80F0CE
:10893800D2A212A671D2B6D2B7D2AF9001F5E0FF9B
:01894800220C
:109296009001E4EBF0A3EAF0A3E9F0129AC41227D6
:1092A60079F47003E5F0F46038122779FBAAF0EA46
:1092B600FDE4FF1288BD129AC49000021226A7FC94
:1092C6006F6012122779FBAAF0EAFD9001F5ECF027
:1092D600E4FF128E279001E5E475F00312274D8016
:0292E600BA22AA
:01A6B4002283
:105420002562782025627820256278000A3C523E69
:1054300025303262785B25303262785D3D2530322E
:105440006278002562782025627800256278202520
:1054500062782025627820256278200025316278E4
:105460002025316278202531627820005265616400
:105470004173696342797465203D3D20256278203F
:105480000A0063682562643A256264200063682527
:1054900062643A2562642063682562643A25626426
:1054A000200063682562643A25626420636825628F
:1054B000643A2562642063682562643A2562642048
:1054C0000063682562643A2562642063682562642B
:1054D0003A2562642063682562643A256264206329
:1054E000682562643A256264200063682562643A34
:1054F0002562642063682562643A256264206368DB
:105500002562643A2562642063682562643A2562F4
:10551000642063682562643A256264200025626421
:1055200020000A203D3D3D3D3D3D3D3D2050414751
:10553000452025623278203D3D3D3D3D3D3D3D3D90
:105540003D3D3D3D0A002562327809000A002531C3
:105550006278202531627820636825316278206383
:105560006825316278206368253162782063682578
:105570003162782000656E726563616C6C00656EE7
:10558000667265657A6500656E686D6972726F72C4
:1055900000656E766D6972726F7200656E656E6819
:1055A000616E636500656E626C616E6B00656E6254
:1055B0006F756E6400656E626C696E6B0064697312
:1055C000726563616C6C00646973667265657A65A7
:1055D00000646973686D6972726F720064697376D2
:1055E0006D6972726F7200646973656E68616E6373
:1055F0006500646973626C616E6B00646973626FED
:10560000756E6400646973626C696E6B003D3D3D4C
:105610003D3D20466F726D6174203A206368303DD5
:105620005B2562785D206368313D5B2562785D2093
:105630006368323D5B2562785D206368333D5B259E
:1056400062785D203D3D3D3D3D0A00256278202584
:1056500062782063682562783A256278206368253D
:1056600062783A2562782063682562783A25627804
:105670002063682562783A2562782000333400621E
:105680007573770079766D6978006873636F6D0064
:0E5690006D6F646500370038000102040810D9
:046CD80041039B00D9
:10569E00A3F0A3E4F0A37400F0A37414F0A3E4F059
:1056AE00A37400F0A37419F0A3E4F0A37400F0A3A4
:1056BE007415F0A3E4F0A37400F0A3741AF0A3E43D
:1056CE00F0A37400F07416A3F0A3E4F0A322A3F0E9
:1056DE00A3E4F0A37400F0A37426F0A3E4F0A37483
:1056EE0000F0A3742BF0A3E4F0A37400F0A37427CE
:1056FE00F0A3E4F0A37400F0A3742CF0A3E4F0A3E1
:10570E007400F07428A3F0A3E4F0A322A3F0A3E4A2
:10571E00F0A37400F0A37443F0A3E4F0A37400F0BC
:10572E00A37447F0A3E4F0A37400F07444A3F0A3B1
:10573E00E4F0A322A3F09003B6E0FBA3E0FAA3E00B
:10574E00F9229001E074FFF0A37454F07482A3F078
:10575E00A3E4F0A3227400F0A3741BF0A3E4F0A35F
:10576E007400F07417A3F0A3E4F0A3227400F0A366
:10577E00742DF0A3E4F0A37400F07429A3F0A3E455
:10578E00F0A3227400F0A37448F0A3E4F0A3740015
:10579E00F07445A3F0A3E4F0A3229001E074FFF0AF
:1057AE00A37454F0748DA3F0A3E4F0A3229001E04F
:1057BE0074FFF0A37455F0741DA3F0A3E4F0A322BC
:1057CE007400F07414A3F0A3E4F0A3227400F07438
:1057DE0026A3F0A3E4F0A3229001E074FFF0A3222D
:1057EE00EBF0A3EAF0A3E9F09001E07401F0A3223C
:1057FE00A3F0A37401F0A37403F07483A3F0A37455
:10580E0001F0A322A3F0A3E4F0A322A3F0A3E4F0FB
:10581E00A322A3F0A3E4F0A322A3F0A3E4F0A32217
:10582E00A3F0A3E4F0A322FFE0248CF582E434037A
:10583E00F583EFF022E0FF9001E17401F0A3740311
:10584E00F0A37488F07B017A03798322A3F0A3E49A
:10585E00F0A322A3F0A3E4F0A322EBF0A3EAF0A3BB
:10586E00E9F022900001E475F0010227A47BFF7A93
:10587E0054792C90033BF022A3F0A3E4F0A322E092
:10588E005401FB7D2022253DF53DA3E0540322E586
:10589E001590569993FFE514932F2212296F022625
:0F58AE008EA3F0A3E4F0A32212A6B59001D52299
:108BA9009001DD125868A31257471258A97002FFA5
:108BB900229001E01257471258A9B4200B9001E006
:108BC90012574712587180E99001E012574712294C
:108BD9006FC003C002C0019001DD12574712298FEF
:108BE90080239001E01257471258A9FEB42010E4DF
:108BF9001226D49001E01257471258717F0122EED4
:108C090070037F01229001E012574712587180D2F8
:069A6B009001DD125868B5
:109A7100E4F53AF53B9001DD12574712268E60223C
:109A81009001DDA3E475F001122763A9F0FA122613
:109A91008EFF3395E0FEEF253BF53BEE353AF53A87
:069AA10080D3AE3AAF3B9A
:019AA700229C
:01A6B5002282
:10954500E4F53D900383E0540312589425E025E0AB
:10955500125894C454F0125894C4333354C0253D62
:10956500F53D900382E0B5070D900387E0B53D0614
:10957500E4900392F0229003927401F0900387E542
:079585003DF0900382EFF0BE
:01958C0022BC
:1095D5001257E67454F074201256D57400F0745482
:1095E5001257137400F0745512573B7400F0A374AE
:1095F50056F0124B6FAB55AD54E4FF1288BD900386
:109605003DEFF0E55412587BA3E555F01247EC0504
:0696150055E555B556DFD6
:01961B00222C
:109C40001257E67454F0744312575C7400F0741E9B
:109C50001257737400F0A3741FF0124B6FAB1FAD5B
:109C60001EE4FF1288BD90033DEFF0E51E12587B05
:079C7000A3E51FF00247EC21
:109DF1001257E67454F0742012578A7400F07457A5
:109E01001257A17400F074581257B47400F0A3747F
:109E110059F0124B6F9001F5E559F0AB58AD57E48D
:049E2100FF028E2787
:10933800E4F53AF53BF53CF53DC003C0021257E6AB
:109348007454F0744B1257C77400F0743A1257D320
:109358007400F0743B1257DF7400F0743C1258121A
:109368007400F0A3743DF0D002D003124B6F90014B
:0D937800F5E53DF0AB3CAD3BE4FF028E2778
:10958D00E4F550F551F552F5531257E67454F07455
:10959D005C1258127400F074501258197400F07463
:1095AD00511258197400F0A37452F0124B6FAB5254
:1095BD00AD51E4FF1288BD8F537BFF7A54796C90C7
:0895CD00033BE553F00247ECFB
:036718009003B635
:10671B001257EE7403F0A374B6F07B017A0379B9C8
:10672B00128BA9E4FB7D1FFF129D1B9003B912571F
:10673B0047127DC1EE6003026840EF24FE60361401
:10674B00605A1460781470030267ED24046003022E
:10675B0068401257501257CE7400F07419125742FA
:10676B00124B6FAB19AD14E4FF128B38E514905636
:10677B0099930268381257A81257CE7400F0741907
:10678B001258207400F074151258207400F0741A0B
:10679B0012574212684112589D0268381257E6741C
:1067AB0054F074A212569E7400F0A3741B1257433C
:1067BB00126841AB1BAD161268570268381257E6C8
:1067CB007454F074C112569E1257637400F0A37484
:1067DB001C12574312686D126857FFE517932F026F
:1067EB0068381257E67454F0A374EA12569F125786
:1067FB00637400F0741C1258277400F0741812584C
:10680B00277400F0A3741D12574312686DE4FF1236
:10681B008B38AB1DAD18E4FF128B3812589DFFE57A
:10682B0016932FFFE517932FFFE518932FFD7B0191
:05683B00E4FF129D1BAB
:1068400022124B6FAB19AD14E4FF128B38AB1AADAB
:1068500015E4FF128B3822E4FF128B38E5159056B1
:106860009993FFE514932FFFE516932F22124B6F98
:10687000AB19AD14E4FF128B38AB1AAD15E4FF125F
:106880008B38AB1BAD16E4FF128B38AB1CAD172257
:0FA58300E4FB7D1FFF129D1B7DFFE4FF029EBDC9
:036F89009003BCB6
:106F8C001257EE7403F0A374BCF07B017A0379BF43
:106F9C00128BA99003BF125747127DC1EE600302FA
:106FAC007097EF24FE6030146056146071147003F7
:106FBC0002704E240460030270971257501257DA75
:106FCC007400F0A3742BF09003BC125747124B6F54
:106FDC00AB2BAD260270921257A81257DA7400F040
:106FEC00742B12582E7400F0742712582E7400F063
:106FFC00A3742CF09003BC1257471270B20270921B
:10700C001257E67454F074A21256DC7400F0A37498
:10701C002DF09003BC1257471270980270921257C1
:10702C00E67454F074C11256DC12577A7400F0A353
:10703C00742EF09003BC1257471270981270C30252
:10704C0070921257E67454F0A374EA1256DD12577C
:10705C007A7400F0742E12585A7400F0742A125874
:10706C005A7400F0A3742FF09003BC12574712709F
:10707C00B2E4FF128C19AB2DAD281270C3E4FF12D1
:0B708C008C19AB2FAD2AE4FF128C1909
:1070970022124B6FAB2BAD26E4FF128C19AB2CAD34
:1070A70027E4FF128C19AB2DAD2822124B6FAB2BA7
:1070B700AD26E4FF128C19AB2CAD2722E4FF128C0E
:0670C70019AB2EAD2922D9
:10A46C001257BB7400F0A37469F0124B6FAD69E422
:04A47C00FF029EBD80
:1093D100E4F55E7BFF7A55792290033BE55EF0125E
:1093E10047ECE4F55DAB5DAD5EE4FF1288BD900333
:1093F1003BEFF07BFF7A5579461247EC055DE55D61
:10940100540F70097BFF7A55794C1247ECE55D707A
:0A941100D4055EE55EC3940340B984
:01941B00222E
:1091EC00C003C002C0011257E67455F0744E1258F9
:1091FC00617400F0745F1258617400F0746012575F
:10920C00FE7403F0748412580A7403F0A37485126C
:10921C00580B7403F0A37486F0D001D002D0031263
:10922C004B6FE55FC454F0FFE560540F2FF55F12F0
:06923C005853FF026257C7
:0658BD009003C2125868BE
:1058C300E4F5387B019001E004F0A37403F0A374C2
:1058D300C2F07A0379C5128BA99003C512574712F8
:1058E3007DC18F391257F6125AB59003C512574727
:1058F300129A6B8E308F317A557975125A92B5316F
:105903000AEEB530067532800259927A55797E12C5
:105913005A92B5310AEEB530067532400259927A81
:10592300557987125A99B53109EEB530057532208C
:10593300805D7A557991125A99B53109EEB53005E2
:10594300753210804A7A55799B125AA0B53109EE07
:10595300B5300575320880377A5579A5125AA0B546
:105963003109EEB5300575320480247A5579AD12CC
:105973005AA7B53109EEB5300575320280117A5553
:1059830079B5125AA7B5310DEEB5300975320175E7
:105993003301025A3C7A5579BD125AAEB5310AEE3B
:1059A300B53006753280025A1F7A5579C7125AAE3E
:1059B300B53109EEB5300575324080607A5579D13D
:1059C300125AC6B53109EEB53005753220804D7ACD
:1059D3005579DC125AC6B53109EEB530057532106A
:1059E300803A7A5579E7125ACDB53109EEB53005CB
:1059F30075320880277A5579F2125ACDB53109EEFE
:105A0300B5300575320480147BFF7A5579FB129A01
:105A13006BEFB5310CEEB53008753202E4F5338027
:105A2300187BFF7A567904129A6BEF65317003EE97
:105A33006530705A753201F5331257F6125AB5EFC5
:105A430060339003C512574712268EB477EB90004C
:105A5300011226A7B469E29000021226A7B46ED9F8
:105A6300E92403F9E43AFA127DC174342538F8A61F
:105A730007053880C4E53860152433F8E6FFC3957D
:0E5A8300395007AB33AD32129DBC153880E7A9
:105A9100227BFF129A6BEF227BFF129A6BEF227B24
:105AA100FF129A6BEF227BFF129A6BEF227BFF12A0
:105AB1009A6BEF227403F0A374C2F07B017A03792D
:105AC100C5128BA9227BFF129A6BEF227BFF129AE0
:035AD1006BEF2256
:10A51D001257BB7400F0A3743AF0124B6FAF3A02AE
:02A52D00A48008
:109B5B00E4FF12941CC0077F0112941CC0077F0204
:109B6B0012941CC0077F0312941C90033EEFF090DD
:109B7B00033DD0E0F090033CD0E0F090033BD0E00D
:0A9B8B00F07BFF7A56790D0247ECDB
:0377D0009003C85B
:1077D3001257EE7403F0A374C8F07B017A0379CBDC
:1077E300128BA99003CB125747127DC1EE6003029F
:1077F30078C2EF24FE602B14605314607924036075
:10780300030278C21257507400F0744312588674FE
:1078130000F0A37447F09003C81257471278E102AF
:1078230078BD1257E67454F0748D12571A7400F031
:10783300A37448F09003C81257471278E1E4FF128B
:107843009EEDE548C454F0FBAD440278BD1257E603
:107853007454F074A212571A1257917400F0A3745F
:1078630049F09003C81257471278C3E549C454F04E
:10787300FBAD450278BD1257E67454F0A374C112F0
:10788300571B1257917400F074491258867400F014
:1078930074461258AF7400F0A3744AF09003C812F0
:1078A30057471278C3E549C454F0FBAD45E4FF12D2
:0F78B3009EEDE54AC454F0FBAD46E4FF129EED96
:1078C20022124B6FE547C454F0FBAD43E4FF129E16
:1078D200EDE548C454F0FBAD44E4FF129EED2212E4
:0B78E2004B6FE547C454F0FBAD4322A0
:039019009003CEF3
:10901C001257EE129066125747127DC18F6112578C
:10902C00F6129066125747127DC18F627F0412A60A
:10903C00AE7F0312A6B17F0512A3389003CEE0F9E0
:10904C00A3E0FAA3E09003B2C9125869AB62AD6118
:0A905C007F011290DB7F05029CE506
:109066007403F0A374CEF07B017A0379D1128BA935
:049076009003D12270
:10961C00756401E4F56374882563F582E43403F51D
:10962C0083E030E41574832563F582E43403F58319
:10963C00E0FDE4FF129EBDE4F5640563E563C394AD
:10964C000440D3E564600FE4FB7D1FFF129D1B7D7E
:06965C00FFE4FF129EBDB9
:0196620022E5
:106E3B00C003C002C0011257E67456F0744B1258CF
:106E4B00AF7400F0A3743BF0A3E4F0A37400F074F0
:106E5B003C1257FE7403F0A3748812580B7403F0A2
:106E6B00A3748412580B7403F0A3748912580B7417
:106E7B0003F0A3748512580B7403F0A3748A125891
:106E8B000B7403F0A3748612580B7403F0A3748B6A
:106E9B00F0D001D002D003124B6FE53BC454F0FF8E
:106EAB0090037FE0FEC433333354802FFFE53C5413
:106EBB000F2F900391F0900388E0900383125835C5
:106ECB00900389E090038412583590038AE0FF9079
:106EDB00038512583690038BE0FF900386125836C9
:106EEB0090038C12588DE4FF129AE490038D125884
:106EFB008D7F01129AE490038E12588D7F02129AA5
:106F0B00E490038F12588D7F03129AE47B017A036E
:106F1B00798C1270CD900391125843125128900323
:106F2B0091E0FF125853126257E4F53A7488253AF0
:106F3B00F582E43403F58312588DAF3A129DBC05EC
:106F4B003AE53AC3940440E4E4F508F509F50A750B
:106F5B000B057F0112A644900391E0FF1295457F2C
:106F6B0008129E25E4FF12A3B11298997B017A03B4
:0D6F7B0079881243D3900391E090039BF0BE
:016F880022E6
:108CEE00E4FF12941CEFB40202C32290037FE0B59E
:108CFE000702D32290037FEFF0E0C4333333548066
:108D0E00FF900382E0547F4FF07F01129CE59003A9
:108D1E007FE0FF128E8B7B017A03798C1270CD90DF
:108D2E000382125843125128900382E0FF125853C7
:108D3E00126257E4FF12A3B11298997B017A03795C
:088D4E00881243D312A220D3C6
:018D560022FA
:10A42B001257E67455F0A3741D12580B7403F0A366
:06A43B007480F0024B6F7B
:050026007F01029CE5D2
:10A4E40090567CE493FF12000390567CA3E493FF00
:03A4F40002000360
:037BF5009001D527
:107BF8001257EE7401F0A374D5F07B017A0179DA9B
:107C0800128BA99001DA125747129A6B9001D8EE9D
:107C1800F0A3EFF07A56797F127CC8B50611A3E07D
:107C2800B5070C9001D5125747129338027CC57AD4
:107C3800567984127CC8B50611A3E0B5070C125812
:107C4800B612574712A51D027CC57A56798A127C4E
:107C5800D2E0B50618A3E0B507131258B612574775
:107C6800126E3B12A220E4FF12A64480507A567985
:107C780090127CD2E0B50610A3E0B5070B1258B6F7
:107C880012574712A42B80357A567995127CDBE07F
:107C9800B5060FA3E0B5070A900276E090028BF0D4
:107CA800801B7A567997127CDBE0B50610A3E0B505
:0F7CB800070B129E59900276E0FF129F487F0142
:107CC700227BFF129A6B9001D8E0227BFF129A6BFE
:0D7CD7009001D8227BFF129A6B9001D822F9
:105EA4000D0A0050435400FFC896643200627573B3
:105EB40077203020312041312031316275737720D1
:105EC40030203120413220443779766D697820348E
:105ED400206D6F64652030206873636F6D203120FE
:105EE40031206368303A3130206368313A303020F1
:105EF4006368323A3030206368333A303020687354
:105F0400636F6D20312031206368323A3130206371
:105F140068313A3030206368303A30302063683377
:105F24003A3030206873636F6D203120312063680C
:105F3400313A3130206368303A3030206368323A85
:105F44003030206368333A3030206873636F6D20DB
:105F5400322032206368323A3130206368303A317B
:105F640030206368313A3030206368333A3030206F
:105F74006873636F6D20322032206368303A3130A9
:105F8400206368323A3130206368313A303020631C
:105F940068333A3030206873636F6D2032203220CA
:105FA4006368313A3130206368303A3130206368B5
:105FB400323A3030206368333A3030206873636F8C
:105FC4006D20322032206368303A313020636831EA
:105FD4003A3130206368323A3030206368333A30E3
:105FE40030206873636F6D20322032206368313A49
:105FF4003130206368323A3130206368303A3030CF
:10600400206368333A3030206873636F6D20322028
:1060140032206368323A3130206368313A313020BB
:106024006368323A3030206368333A303020687322
:10603400636F6D20332033206368303A313020633E
:1060440068313A3130206368323A31302063683342
:106054003A3030206873636F6D20312031206368DB
:10606400333A3030206368313A3030206368323A52
:0A6074003030206368303A303020ED
:106CDC00C12844032E00000000410332004103335D
:106CEC000041032D0141032C0241032A0141032BD6
:106CFC000041032100420322000042032400004211
:106D0C000326000042032800004102F5014102F471
:096D1C0000410334004102F300C0
:108043007D017BFF7E007F26022668900213E0FEFF
:10805300740B2FF582E43402F5832274DF2FF5824B
:10806300E43401F583E022900006E0FAA3E0FB7C10
:1080730000FFAE020226F878F67C027D017B012226
:108083007D017BFF7E000226687C00AF03AE0212F7
:1080930026F8900006ECF0A3EDF022E4F0A3F0A3A1
:1080A300F0A322E4FDFC900009E0F8A3E0F9A3E0CB
:1080B300FAA3E0FBC302290E7D017BFF7E007F0E46
:1080C300022668E53AF0900274E004F02290020B75
:1080D3007402F0A37432F0A322E4FCFD90000902C1
:1080E3002932900244E090032D2234FFFE7C007D70
:1080F300060226F87420F0A37403F0E4A3F02290A0
:0D8103000274E0240B227B017A0279F6223F
:107E9C0012A553EF64016003027F6D43E11012A33E
:107EAC00CB8F3AE53AB40218900242E0701290027D
:107EBC007404F090020BE53AF09002427401F02247
:107ECC00E53A6403702A90020CE0FF64526004EF00
:107EDC00B4531D9002F3E07017900274E0FFD3943A
:107EEC0003500D9002F37401F01280531280C622DD
:107EFC00E53AB4031B900246E07015128102128021
:107F0C00561280C69002467401F0E49002F3F022FF
:107F1C00900246E064017037128102128056E53AF5
:107F2C00F07B017A02790B7D04125CBFEF602F901D
:107F3C0003207401F090020CE09002F6F0E4A3F040
:107F4C0090020DE0900276F090031F7402F0221262
:107F5C0081021280561280C6E0D39408400A02A116
:087F6C00FAE4900328F0A3F0F1
:017F740022EA
:09A63B007BFF7A5E79A402A18183
:0B9D87009003EFEBF0A3EAF0A3E9F07B
:109D92009003EFE0FBA3E0FAA3E0F912268E60192C
:109DA2009003EFA3E475F001122763A9F0FA1226DB
:099DB2008EF56AFF12000380D750
:019DBB002285
:10A1FA00E4900242F0900246F0900274F090020B52
:10A20A0012809F12809FF0A3F0A3F090031FF0A387
:06A21A00F09002F6F022B4
:09A64400EF6003C20122D20122E1
:0CA61000C200C201C227E4900408F0223E
:109F75009003F2EBF0A3EAF0A3E9F020001D9003B3
:109F8500F2E0FBA3E0FAA3E0F8AC02AD037BFF7AB5
:0C9F95005E79A7122B82EF7002D200222E
:0892E8009001D5EEF0A3EFF0B8
:1092F0009001D5E07002A3E0603DE49001D7F0A3B7
:10930000F09001D7E0FEA3E0FFE4FCFD7B1BFAF93F
:10931000F8D312290E40109001D8E004F070E290CA
:1093200001D7E004F080DA9001D6E024FFF090014C
:07933000D5E034FFF080B925
:019337002213
:1068900090000012809E74C8F0A37464F0E4A3F02A
:1068A00012946712A59212A61012A1FAE4FF12A583
:1068B000731289CA7F4D124E08128FB6750E00757D
:1068C0000F287510017511E09003227401F0A37474
:1068D000E0F0751200751304A37407F0A304F07FB1
:1068E0009812A69CEF5410FFC4540F900005F012AC
:1068F0007E9C900320E0B40106128109127BF59082
:106900000320E0B4010312A1FA302707128CEE50E5
:1069100002C22712A553EF6009900003E0750A0038
:10692000F50BE50B6401450A700DF50AF50B9000B7
:1069300004E0750800F509E50964014508701E903A
:106940000242E0701812966390028BE0FF90028979
:10695000E06F6003124E08750800750914E51364B2
:10696000014512701990024EE0C39401401090024C
:106970003AE0B40109751200751304127A08E50FA4
:106980006401450E703C90024EE0703690023AE091
:10699000B4012F900321E0FF74017E00A807088056
:1069A00005C333CE33CED8F9FF129B20900321E0EC
:1069B00004F0750E00750F28E0C394064007E4F05C
:1069C0008003129E8B900322E07004A3E0640170A8
:1069D0000F90022EF0A3F090032204F0A374E0F0D5
:1069E000900324E07004A3E06401701690023AE082
:1069F000B4010F900005E0FF1294FBE4900324F033
:086A0000A3F043E1100268EF6E
:10946700E4F5B8F5A8F58775E127F5D0758922F5F4
:109477008812A41512A64D12A394E4F58EF5A2D274
:1094870099D2AF00F593F5944391035392FCF59568
:10949700F596F5B1F5B2F5B375B404C2E9C292C257
:0A94A70093C294C295C296C29722A8
:087F75009001DDEFF0A3EDF037
:107F7D0078DF7C017A5E79AB7F061280839001DD1C
:107F8D00E014603014604714605E14607514700363
:107F9D0002802924056003028042E4F5EA9001DEA7
:107FAD00E0FF7004F5DA800375DA4212805EF5FAAF
:107FBD00E4F5F222E4F5EB9001DEE0FF7004F5DB71
:107FCD00800375DB4212805EF5FBE4F5F322E4F5E8
:107FDD00EC9001DEE0FF7004F5DC800375DC4212ED
:107FED00805EF5FCE4F5F422E4F5ED9001DEE0FFB2
:107FFD007004F5DD800375DD4212805EF5FDE4F55C
:10800D00F522E4F5EE9001DEE0FF7004F5DE80036D
:10801D0075DE4212805EF5FEE4F5F622E4F5EF9092
:10802D0001DEE0FF7004F5DF800375DF4212805E34
:05803D00F5FFE4F5F77A
:01804200221B
:0FA59200E4F5E9F5F975D90475D84043A68022A0
:054E0800900006EFF030
:104E0D0078077C007A5E79B11280BB78157C007AC8
:104E1D005E79BF1280BB78237C007D017BFF7A5EBB
:104E2D0079CD7E007F08122668782B7C007A5E791A
:104E3D00D57F0712808378327C007A5E79DC128010
:104E4D004378587C007A5F7902128043787E7C002B
:104E5D007D017BFF7A5F792812804778A47C007DE5
:104E6D00017BFF7A5F794E12804778CA7C007D0105
:104E7D007BFF7A5F797412804778F07C007D017B2F
:104E8D00FF7A5F799A12804778167C017D017BFF4E
:104E9D007A5F79C0128047783C7C017D017BFF7A77
:104EAD005F79E612804778627C017D017BFF7A6035
:104EBD00790C12804778887C017D017BFF7A6079BF
:104ECD003212804778AE7C017D017BFF7A60795884
:104EDD00128047E49001D4F0900006E0FE24B6FF66
:104EED00C3940A400674FC2FFF8005E4900277F00E
:104EFD00900289EEF0EFB408005062904F0FF82841
:104F0D002873024F27024F2C024F33024F39024FA5
:104F1D0040024F4E024F5A024F629003338041E4DC
:104F2D00900333F0803DE490024580199002457462
:104F3D000180129002447401F090032D7404F080EE
:104F4D0022E4900244F090032D04F0801690027735
:104F5D007414F0800E9002777441F0800690032D4A
:104F6D007401F0900277E0FFC39401400890033282
:104F7D00EFF0025003900333E06401704990024555
:104F8D00E0601B1280E5B4010B7402F090032C74E9
:104F9D0004F080237402F090032C14F08019128019
:104FAD00E5B4010B7404F090032C7402F0800874C6
:104FBD0001F090032C04F090032DE0C454F0FF9009
:104FCD00032CE04F802C900245E0600590032D806E
:104FDD000C1280E5B4010B7404F090032C7402F0F4
:104FED0080087401F090032C04F090032DE0FFC4B1
:104FFD0054F0900332F090032AE060251299671265
:10500D00807A7A00790712510F7A00791512510FB3
:10501D007A00792B7E007F07122668128109127B98
:10502D00F5900332E01229DE505410507A12507E62
:10503D0014505620507C21509024505F4050874191
:10504D00507A42000050A2800912807A7A00795875
:10505D00800712807A7A0079321280479001F574B8
:10506D0003F07B0F7D01E4FF128E278032801D80BF
:10507D001212807A7A0079F0802212807A7A017980
:10508D0016801912807A7A0079CA801012807A7A85
:10509D000079A4800712807A7A007932128047E471
:1050AD0090032AF0128109127BF5900332E0122948
:1050BD00DE50DD1050E71250EF1450DF2050EB2181
:1050CD0050FA2450E34050F34150FE420000510984
:1050DD008000E4FF8012E4FF80197F01800A7F01C8
:1050ED0080067F0180027F01128AC5800F7F0180BB
:1050FD00027F01128AC59001D47401F09001D4E0B1
:01510D00FFA2
:10510E00227E007F0E1226687B017A0279F6127BD0
:0A511E00F578F67C027D017B01228A
:029F4800AB0765
:109F4A00E4FFFEEBC3943D4021EBD39461501BEB3D
:109F5A0024C3FFEE1280EDAA07EB24C3FFE41280AC
:0A9F6A00EDAE05AF02127F757F0116
:019F740022CA
:10913900E4FBFAFD7F901296AAEEC4F854F0C868D1
:10914900FEEFC4540F48FFEEC4F854F0C868FAEFB4
:10915900C4540F48FB2091047A007B637C007D0A8C
:10916900AF03AE021226F8D3ED9409EC9400500730
:10917900ED2430900221F0AE02AF037C007D0A128B
:0991890026F8EF2430900226F0D4
:0191920022BA
:1076B20090000612809E12293E00000000E4FF1294
:1076C200A318900006EEF0A3EFF0900006E0FEA3F0
:1076D200E0FF1280DC7F6E7E021280A64042E47FD1
:1076E200A57E03FDFC900009E0F8A3A3A3E0D3125A
:1076F200290E9000095020E0F8A3A3A3C374A59B10
:10770200FF74039AFEE499FDE498FCE47B707A012D
:10771200F9F81227F1802B12293E00030AE8803182
:107722007FF37E011280A6401E900006E0FEA3E0D9
:10773200FF746E9FFF74029EFE7C007DD21226E6CD
:10774200E4FD1280DF800A90000912293E0000F257
:1077520094E47B64FAF9F8900009E0FCA3E0FDA34D
:10776200E0FEA3E0FF12287C900006EEF0FAA3EF01
:10777200F0FB1280DCD3EB940FEA9427400A9000CE
:10778200067427F0A3740FF0900006E0FAA3E0FB62
:107792007C037DE8128074EF243090021BF07C039E
:1077A2007DE812808E7D6412806AEF243090021A86
:1077B200F07D6412808C7D0A12806AEF2430900280
:0D77C20019F07D0A12808C2430900218F01E
:0177CF002297
:109242001280D07450F0A37430F0A374611280D5F0
:109252001280F790000CF090000CE0FFD3940750BE
:109262001312804EE0FFEE6F900213F090000CE0BC
:1092720004F080E3E490000CF090000CE0FFD39443
:10928200085010128053E0FF12000390000CE0041B
:03929200F080E683
:0192950022B6
:108F53001280D0744FF090023FE090020EF0900226
:108F630040E090020FF0900241E0900210F0A31253
:108F730080F790000CF090000CE0FFD3940750139F
:108F830012804EE0FFEE6F900213F090000CE004AD
:108F9300F080E3E490000CF090000CE0FFD3940821
:108FA3005010128053E0FF12000390000CE004F015
:028FB30080E656
:018FB5002299
:10002E001010FFFFFFFFFFFFFFFFFFFFFFFFFFFFB0
:10003E00FFFFFFFFFFFFFFFFFFFFFFFFFFFFFFFFC2
:10004E00FFFFFFFFFFFFFFFFFFFFFFFFFFFFFFFFB2
:10005E00FFFFFFFFFFFFFFFFFFFFFFFFFFFFFFFFA2
:10006E00FFFFFFFFFFFFFFFFFFFFFFFFFFFFFFFF92
:10007E00FFFFFFFFFFFFFFFFFFFFFFFFFFFFFFFF82
:10008E00FFFFFFFFFFFFFFFFFFFFFFFFFFFFFFFF72
:10009E00FFFFFFFFFFFFFFFFFFFFFFFFFFFFFFFF62
:1000AE00FFFFFFFFFFFFFFFFFFFFFFFFFFFFFFFF52
:1000BE00FFFFFFFFFFFFFFFFFFFFFFFFFFFFFFFF42
:1000CE00FFFFFFFFFFFFFFFFFFFFFFFFFFFFFFFF32
:1000DE00FFFFFFFFFFFFFFFFFFFFFFFFFFFFFFFF22
:1000EE00FFFFFFFFFFFFFFFFFFFFFFFFFFFFFFFF12
:1000FE00FFFFFFFFFFFFFFFFFFFFFFFFFFFFFFFF02
:10010E00FFFFFFFFFFFFFFFFFFFFFFFFFFFFFFFFF1
:10011E00FFFFFFFFFFFFFFFFFFFFFFFFFFFFFFFFE1
:10012E00FFFF1010FFFFFFFFFFFFFFFFFFFFFFFFAF
:10013E00FFFFFFFFFFFFFFFFFFFFFFFFFFFFFFFFC1
:10014E00FFFFFFFFFFFFFFFFFFFFFFFFFFFFFFFFB1
:10015E00FFFFFFFFFFFFFFFFFFFFFFFFFFFFFFFFA1
:10016E00FFFFFFFFFFFFFFFFFFFFFFFFFFFFFFFF91
:10017E00FFFFFFFFFFFFFFFFFFFFFFFFFFFFFFFF81
:10018E00FFFFFFFFFFFFFFFFFFFFFFFFFFFFFFFF71
:10019E00FFFFFFFFFFFFFFFFFFFFFFFFFFFFFFFF61
:1001AE00FFFFFFFFFFFFFFFFFFFFFFFFFFFFFFFF51
:1001BE00FFFFFFFFFFFFFFFFFFFFFFFFFFFFFFFF41
:1001CE00FFFFFFFFFFFFFFFFFFFFFFFFFFFFFFFF31
:1001DE00FFFFFFFFFFFFFFFFFFFFFFFFFFFFFFFF21
:1001EE00FFFFFFFFFFFFFFFFFFFFFFFFFFFFFFFF11
:1001FE00FFFFFFFFFFFFFFFFFFFFFFFFFFFFFFFF01
:10020E00FFFFFFFFFFFFFFFFFFFFFFFFFFFFFFFFF0
:10021E00FFFFFFFFFFFFFFFFFFFFFFFFFFFFFFFFE0
:10022E00FFFFFFFF1010FFFFFFFFFFFFFFFFFFFFAE
:10023E00FFFFFFFFFFFFFFFFFFFFFFFFFFFFFFFFC0
:10024E00FFFFFFFFFFFFFFFFFFFFFFFFFFFFFFFFB0
:10025E00FFFFFFFFFFFFFFFFFFFFFFFFFFFFFFFFA0
:10026E00FFFFFFFFFFFFFFFFFFFFFFFFFFFFFFFF90
:10027E00FFFFFFFFFFFFFFFFFFFFFFFFFFFFFFFF80
:10028E00FFFFFFFFFFFFFFFFFFFFFFFFFFFFFFFF70
:10029E00FFFFFFFFFFFFFFFFFFFFFFFFFFFFFFFF60
:1002AE00FFFFFFFFFFFFFFFFFFFFFFFFFFFFFFFF50
:1002BE00FFFFFFFFFFFFFFFFFFFFFFFFFFFFFFFF40
:1002CE00FFFFFFFFFFFFFFFFFFFFFFFFFFFFFFFF30
:1002DE00FFFFFFFFFFFFFFFFFFFFFFFFFFFFFFFF20
:1002EE00FFFFFFFFFFFFFFFFFFFFFFFFFFFFFFFF10
:1002FE00FFFFFFFFFFFFFFFFFFFFFFFFFFFFFFFF00
:10030E00FFFFFFFFFFFFFFFFFFFFFFFFFFFFFFFFEF
:10031E00FFFFFFFFFFFFFFFFFFFFFFFFFFFFFFFFDF
:10032E00FFFFFFFFFFFF1010FFFFFFFFFFFFFFFFAD
:10033E00FFFFFFFFFFFFFFFFFFFFFFFFFFFFFFFFBF
:10034E00FFFFFFFFFFFFFFFFFFFFFFFFFFFFFFFFAF
:10035E00FFFFFFFFFFFFFFFFFFFFFFFFFFFFFFFF9F
:10036E00FFFFFFFFFFFFFFFFFFFFFFFFFFFFFFFF8F
:10037E00FFFFFFFFFFFFFFFFFFFFFFFFFFFFFFFF7F
:10038E00FFFFFFFFFFFFFFFFFFFFFFFFFFFFFFFF6F
:10039E00FFFFFFFFFFFFFFFFFFFFFFFFFFFFFFFF5F
:1003AE00FFFFFFFFFFFFFFFFFFFFFFFFFFFFFFFF4F
:1003BE00FFFFFFFFFFFFFFFFFFFFFFFFFFFFFFFF3F
:1003CE00FFFFFFFFFFFFFFFFFFFFFFFFFFFFFFFF2F
:1003DE00FFFFFFFFFFFFFFFFFFFFFFFFFFFFFFFF1F
:1003EE00FFFFFFFFFFFFFFFFFFFFFFFFFFFFFFFF0F
:1003FE00FFFFFFFFFFFFFFFFFFFFFFFFFFFFFFFFFF
:10040E00FFFFFFFFFFFFFFFFFFFFFFFFFFFFFFFFEE
:10041E00FFFFFFFFFFFFFFFFFFFFFFFFFFFFFFFFDE
:10042E00FFFFFFFFFFFFFFFF1010FFFFFFFFFFFFAC
:10043E00FFFFFFFFFFFFFFFFFFFFFFFFFFFFFFFFBE
:10044E00FFFFFFFFFFFFFFFFFFFFFFFFFFFFFFFFAE
:10045E00FFFFFFFFFFFFFFFFFFFFFFFFFFFFFFFF9E
:10046E00FFFFFFFFFFFFFFFFFFFFFFFFFFFFFFFF8E
:10047E00FFFFFFFFFFFFFFFFFFFFFFFFFFFFFFFF7E
:10048E00FFFFFFFFFFFFFFFFFFFFFFFFFFFFFFFF6E
:10049E00FFFFFFFFFFFFFFFFFFFFFFFFFFFFFFFF5E
:1004AE00FFFFFFFFFFFFFFFFFFFFFFFFFFFFFFFF4E
:1004BE00FFFFFFFFFFFFFFFFFFFFFFFFFFFFFFFF3E
:1004CE00FFFFFFFFFFFFFFFFFFFFFFFFFFFFFFFF2E
:1004DE00FFFFFFFFFFFFFFFFFFFFFFFFFFFFFFFF1E
:1004EE00FFFFFFFFFFFFFFFFFFFFFFFFFFFFFFFF0E
:1004FE00FFFFFFFFFFFFFFFFFFFFFFFFFFFFFFFFFE
:10050E00FFFFFFFFFFFFFFFFFFFFFFFFFFFFFFFFED
:10051E00FFFFFFFFFFFFFFFFFFFFFFFFFFFFFFFFDD
:10052E00FFFFFFFFFFFFFFFFFFFF1010FFFFFFFFAB
:10053E00FFFF00000000FFFFFFFFFFFFFFFFFFFFB9
:10054E00FF000000000000FFFFFFFFFFFFFFFFFFA7
:10055E000000020202020000FFFFFFFFFFFFFFFF8D
:10056E000000020202020000FFFFFFFFFFFFFF007C
:10057E00000202000002020000FFFFFFFFFFFF006B
:10058E00000202000002020000FFFFFFFFFF00005A
:10059E0002020000000002020000FFFFFFFF000049
:1005AE00020200FFFF0002020000FFFFFF00000238
:1005BE00020000FFFF000002020000FFFF00000229
:1005CE000200000000000002020000FF0000020214
:1005DE0002020202020202020202000000000202F5
:1005EE0002020202020202020202000000000202E5
:1005FE0000000000000000000202000000000202E5
:10060E000000FFFFFFFF00000202000000000202D8
:10061E000000FFFFFFFF00000202000000000000CC
:10062E000000FFFFFFFF00000000000010100000A0
:10063E00000000000000000000000000FFFF0002AC
:10064E0002020202020202020202000000FF000287
:10065E000202020202020202020202000000000076
:10066E000002020000000000020202020000FF0071
:10067E0000020200FFFFFF00000202020000FF0066
:10068E0000020200FFFFFF00000202020000FF0056
:10069E0000020200000000000202020000FFFF0044
:1006AE00000202020202020202020000FFFFFF002D
:1006BE00000202020202020202020000FFFFFF001D
:1006CE0000020200000000000202020000FFFF0014
:1006DE0000020200FFFFFF00000202020000FF0006
:1006EE0000020200FFFFFF000002020200000000F5
:1006FE0000020200000000000202020200000002DE
:10070E0002020202020202020202020000000002C3
:10071E0002020202020202020202000000FF0000B8
:10072E00000000000000000000000000FFFF10109D
:10073E00FFFFFF00000000000000000000FFFFFFB1
:10074E00FFFF00000202020202020202000000FF8E
:10075E00FF00000202020202020202020200000078
:10076E000000000202000000000000020202000071
:10077E0000000202020000FFFFFF00000202000064
:10078E00000002020000FFFFFFFFFF000202000058
:10079E00000002020000FFFFFFFFFFFF000000004D
:1007AE00000002020000FFFFFFFFFFFFFFFFFFFF41
:1007BE00000002020000FFFFFFFFFFFFFFFFFFFF31
:1007CE00000002020000FFFFFFFFFF00000000001C
:1007DE00000002020000FFFFFFFFFF000202000008
:1007EE0000000202000000FFFFFF000002020000F6
:1007FE0000000202020000000000000202020000DF
:10080E00FF000002020202020202020202000000C7
:10081E00FFFF00000202020202020202000000FFBD
:10082E00FFFFFF0000000000000000000000FFFFBF
:10083E001010000000000000000000000000FFFF8C
:10084E00FFFF00000202020202020202020000FF8B
:10085E00FFFF000002020202020202020202000078
:10086E00FFFF000002020000000000020202000072
:10087E00FFFF000002020000FFFF00000202000066
:10088E00FFFF000002020000FFFF00000202000056
:10089E00FFFF000002020000000000020202000042
:1008AE00FFFF00000202020202020202020000FF2B
:1008BE00FFFF00000202020202020202000000FF1D
:1008CE00FFFF000002020000020202000000FFFF14
:1008DE00FFFF000002020000000202020000FFFF04
:1008EE00FFFF00000202000000000202020000FFF3
:1008FE00FFFF000002020000FF00000202020000E3
:10090E00FFFF000002020000FFFF000002020200D3
:10091E0000FF000002020000FFFFFF0000020202C3
:10092E0000FF000000000000FFFFFFFF00000000BE
:10093E0000FF101000000000FFFFFFFFFFFFFFFF92
:10094E00000000000000000000FFFFFFFFFFFF009F
:10095E000000000000000C0C0000FFFFFFFF000075
:10096E000C0C000000000C0C0C0000000000000C31
:10097E000C0C000000000C0C0C0C000000000C0C09
:10098E000C0C000000000C0C0C0C0C0C0C0C0C0CC9
:10099E000C0C000000000C0C0C0C0C0C0C0C0C0CB9
:1009AE000C0C000000000C0C0C000C0C0C0C000CC1
:1009BE000C0C000000000C0C0C00000C0C00000CC9
:1009CE000C0C000000000C0C0C0000000000000CD1
:1009DE000C0C000000000C0C0C0000000000000CC1
:1009EE000C0C000000000C0C0C0000FFFF00000CB3
:1009FE000C0C000000000C0C0C0000FFFF00000CA3
:100A0E000C0C000000000C0C0C0000FFFF00000C92
:100A1E000C0C000000000C0C0C0000FFFF00000C82
:100A2E000C0C000000000000000000FFFF000000A2
:100A3E00000000001010FF00000000000000000089
:100A4E000000000000FFFF0000020202020202028C
:100A5E000202020000FFFF00000202020202020276
:100A6E000202020000FFFF00000000000000020270
:100A7E000200000000FFFFFFFFFFFFFF0000020269
:100A8E00020000FFFFFFFFFFFFFFFFFF000002025B
:100A9E00020000FFFFFFFFFFFFFFFFFF000002024B
:100AAE00020000FFFFFFFFFFFFFFFFFF000002023B
:100ABE00020000FFFFFFFFFFFFFFFFFF000002022B
:100ACE00020000FFFFFFFFFFFFFFFFFF000002021B
:100ADE00020000FFFFFFFF00000000FF0000020207
:100AEE00020000FFFFFFFF000202000000000202F2
:100AFE00020000FFFFFFFF000202020000020202DE
:100B0E00020000FFFFFFFF000002020202020202CB
:100B1E00000000FFFFFFFFFF0000020202020200C2
:100B2E000000FFFFFFFFFFFFFF00000000000000BE
:100B3E0000FFFFFFFFFF1010FFFFFFFFFFFFFFFF94
:100B4E00FFFFFFFFFFFFFFFFFFFFFFFFFF000000A4
:100B5E0000000000FFFFFFFFFFFFFFFF000001018D
:100B6E0001010000FFFFFFFFFFFFFF000001010179
:100B7E0001010000FFFFFFFFFFFF00000101010167
:100B8E00010000FFFFFFFFFFFF0000010101010157
:100B9E000000000000000000000001010101010141
:100BAE00010101010101000000010101010101012A
:100BBE00010101010101000000010101010101011A
:100BCE00010101010101000000000101010101010B
:100BDE000101010101010000FF00000101010101FD
:100BEE000000000000000000FFFF000001010101F5
:100BFE00010000FFFFFFFFFFFFFFFF0000010101EB
:100C0E0001010000FFFFFFFFFFFFFFFF00000101DA
:100C1E0001010000FFFFFFFFFFFFFFFFFF000000CD
:100C2E0000000000FFFFFFFFFFFFFFFFFFFFFFFFC2
:100C3E00FFFFFFFFFFFFFFFF1010FFFFFFFFFFFF94
:100C4E00FFFFFFFFFFFFFFFFFFFFFFFFFFFF0000A4
:100C5E000000000000FFFFFFFFFFFFFFFFFF00008F
:100C6E00010101010000FFFFFFFFFFFFFFFF00007A
:100C7E0001010101010000FFFFFFFFFFFFFFFF0069
:100C8E000001010101010000FFFF00000000000053
:100C9E00000001010101010000FF0000010101013E
:100CAE00010101010101010100000000010101012A
:100CBE000101010101010101010000000101010119
:100CCE00010101010101010101000000000000000D
:100CDE00000001010101010000FF00000000000002
:100CEE00000001010101010000FFFFFFFFFFFF00F7
:100CFE000001010101010000FFFFFFFFFFFF0000E7
:100D0E0001010101010000FFFFFFFFFFFFFF0000D7
:100D1E00010101010000FFFFFFFFFFFFFFFF0000C9
:100D2E000000000000FFFFFFFFFFFFFFFFFFFFFFC0
:100D3E00FFFFFFFFFFFFFFFFFFFF1010FFFFFFFF93
:100D4E000000000000000000FFFFFFFFFFFFFFFF9D
:100D5E000000010101010000FFFFFFFFFFFFFFFF89
:100D6E000000010101010000FFFFFFFFFFFFFFFF79
:100D7E000000010101010000FFFFFFFFFFFFFFFF69
:100D8E000000010101010000FFFFFFFF0000000055
:100D9E00000001010101000000000000000001013F
:100DAE00000001010101000001010000000001012D
:100DBE00010001010101000101010000000001011B
:100DCE000101010101010101010100000000010109
:100DDE00010101010101010101010000FF000001FB
:100DEE000101010101010101010000FFFFFF0000EF
:100DFE0001010101010101010000FFFFFFFFFF00E2
:100E0E00000101010101010000FFFFFFFFFFFFFFD5
:100E1E000000010101010000FFFFFFFFFFFFFFFFC8
:100E2E00FF000001010000FFFFFFFFFFFFFFFFFFBC
:100E3E00FFFF00000000FFFFFFFFFFFF1010FFFF8E
:100E4E00FFFFFFFFFFFF0000000000000000FFFF9C
:100E5E00FFFFFFFFFF000002020202020000FFFF81
:100E6E00FFFFFFFF00000202020202020000FFFF6E
:100E7E00FFFFFF000002020200000202000000005D
:100E8E00000000000202020000000202000000004A
:100E9E000202020202020200FF0002020000000033
:100EAE000202020202020200FF0002020000000023
:100EBE000202000000020200FF0002020000000019
:100ECE00020200FF00020200FF000202000000000A
:100EDE000202000000020200FF00020200000000F9
:100EEE000202020202020200FF00020200000000E3
:100EFE0002020202020202000000020200000000D2
:100F0E000000000000020202000002020000FFFFCB
:100F1E00FFFFFFFF00000202020202020000FFFFBD
:100F2E00FFFFFFFFFF000002020202020000FFFFB0
:100F3E00FFFFFFFFFFFF0000000000000000101089
:100F4E000000000000FFFFFFFFFFFF000000000099
:100F5E000001010100FFFFFFFFFFFF000101010083
:100F6E000001010100FFFFFFFFFFFF000101010073
:100F7E000001010100FFFFFFFFFFFF000101010063
:100F8E000001010100FFFFFFFFFFFF000101010053
:100F9E00000101010000FFFFFFFF00000101010041
:100FAE00000101010100FFFFFFFF0001010101002F
:100FBE00000001010100FFFFFFFF00010101000021
:100FCE0000000101010000FFFF000001010100000F
:100FDE00FF0000010101000000000101010000FFFF
:100FEE00FFFF000001010100000101010000FFFFF1
:100FFE00FFFF000000010100000101000000FFFFE3
:10100E00FFFFFF00000101010101010000FFFFFFD2
:10101E00FFFFFFFF0000010101010000FFFFFFFFC6
:10102E00FFFFFFFFFF00000101000000FFFFFFFFB9
:10103E00FFFFFFFFFFFF0000000000FFFFFFFFFFAD
:10104E00101000000000000000FFFFFFFFFFFFFF79
:10105E00FFFF00000101010000FFFFFFFFFFFFFF88
:10106E00FFFF00000101010000FFFFFFFFFFFFFF78
:10107E00FFFF00000101010000FFFFFFFFFFFFFF68
:10108E00FFFF00000101010000FFFFFFFFFFFFFF58
:10109E00FFFF00000101010000FFFFFFFFFFFFFF48
:1010AE00FFFF00000101010000FFFFFFFFFFFFFF38
:1010BE00FFFF00000101010000FFFFFFFFFFFFFF28
:1010CE00FFFF00000101010000FFFFFFFFFFFFFF18
:1010DE00FFFF00000101010000FFFFFFFFFF000006
:1010EE00000000000101010000FFFFFFFFFF0000F4
:1010FE00000000000101010000FFFFFFFF000001E2
:10110E0000000000010101000000000000000101CC
:10111E0000000000010101010101010101010101B5
:10112E0000000000010101010101010101010101A5
:10113E0000000000000000000000000000000000A1
:10114E0000001010FFFFFFFFFFFFFFFFFFFFFFFF7D
:10115E00FFFFFFFFFFFFFFFFFFFFFFFFFFFFFFFF91
:10116E00FFFFFFFFFFFFFFFFFFFFFFFFFFFFFFFF81
:10117E00FFFFFFFFFFFFFFFF00000000000000FF6A
:10118E00FFFFFFFFFFFFFF00000001010100000055
:10119E00FFFFFFFFFFFF0000010101010101010040
:1011AE0000FFFFFFFF00000101010000000101012F
:1011BE000000FFFF00000001010000FF0000010120
:1011CE00000000FF00000101010000FF000001010E
:1011DE00010000FF00000101010000FF00000101FD
:1011EE00010000FF00000101010000FF00000101ED
:1011FE00010000FF00000001010000FF00000101DE
:10120E00000000FFFF0000010101000000010101CC
:10121E000000FFFFFFFF00000101010101010100BD
:10122E0000FFFFFFFFFFFF000000010101000000B3
:10123E00FFFFFFFFFFFFFFFF00000000000000FFA9
:10124E00FFFFFFFF1010FFFFFFFFFFFFFFFFFFFF7E
:10125E00FFFFFFFFFFFFFFFFFFFF0000000000008A
:10126E000000FFFFFFFFFFFF00000000020202026E
:10127E00000000FFFFFFFF00000002020202020258
:10128E0002020000FFFFFF00000202020000000049
:10129E000202020000FFFF00000202020000FF0037
:1012AE000000000000FFFF0000000202020200002A
:1012BE000000FFFFFFFFFFFFFF000002020202021D
:1012CE00020000FFFFFFFFFFFFFF00000000020211
:1012DE0002020000FFFFFF0000000000FFFF000001
:1012EE000202020000FFFF000002020200000000E6
:1012FE000202020000FFFF000000020202020202D0
:10130E0002020000FFFFFFFFFF00000002020202C8
:10131E00000000FFFFFFFFFFFFFFFF0000000000C7
:10132E000000FFFFFFFFFFFFFFFFFFFFFFFFFFFFBD
:10133E00FFFFFFFFFFFFFFFFFFFFFFFFFFFFFFFFAF
:10134E00FFFFFFFFFFFF1010FFFFFFFFFFFFFFFF7D
:10135E00FFFFFFFFFFFFFFFFFFFFFFFFFFFFFFFF8F
:10136E00FFFFFFFFFFFFFFFFFFFFFFFFFFFFFFFF7F
:10137E00FFFFFFFFFFFFFFFFFFFFFFFFFFFFFFFF6F
:10138E00FFFFFFFFFFFFFFFFFFFFFFFFFFFFFFFF5F
:10139E00FFFFFFFFFFFFFFFFFFFFFFFFFFFFFFFF4F
:1013AE00FFFFFFFFFFFFFFFFFFFFFFFFFFFFFFFF3F
:1013BE00FFFFFFFFFFFFFFFFFFFFFFFFFFFFFFFF2F
:1013CE00FFFFFFFFFFFFFFFF1010FFFFFFFFFFFFFD
:1013DE00FFFFFFFFFFFFFFFFFFFFFFFFFFFFFFFF0F
:1013EE00FFFFFFFFFFFFFFFFFFFFFFFFFFFFFFFFFF
:1013FE00FFFFFFFFFFFFFFFFFFFFFFFFFFFFFFFFEF
:10140E00FFFFFFFFFFFFFFFFFFFFFFFFFFFFFFFFDE
:10141E00FFFFFFFFFFFFFFFFFFFFFFFFFFFFFFFFCE
:10142E00FFFFFFFFFFFFFFFFFFFFFFFFFFFFFFFFBE
:10143E00FFFFFFFFFFFFFFFFFFFFFFFFFFFFFFFFAE
:10144E00FFFFFFFFFFFFFFFFFFFF1010FFFFFFFF7C
:10145E00FFFFFFFFFFFFFFFFFFFFFFFFFFFFFFFF8E
:10146E00FFFFFFFFFFFFFFFFFFFFFFFFFFFFFFFF7E
:10147E00FFFFFFFFFFFFFFFFFFFFFFFFFFFFFFFF6E
:10148E00FFFFFFFFFFFFFFFFFFFFFFFFFFFFFFFF5E
:10149E00FFFFFFFFFFFFFFFFFFFFFFFFFFFFFFFF4E
:1014AE00FFFFFFFFFFFFFFFFFFFFFFFFFFFFFFFF3E
:1014BE00FFFFFFFFFFFFFFFFFFFFFFFFFFFFFFFF2E
:1014CE00FFFFFFFFFFFFFFFFFFFFFFFF1010FFFFFC
:1014DE00FFFFFFFFFFFFFFFFFFFFFFFFFFFFFFFF0E
:1014EE00FFFFFFFFFFFFFFFFFFFFFFFFFFFFFFFFFE
:1014FE00FFFFFFFFFFFFFFFFFFFFFFFFFFFFFFFFEE
:10150E00FFFFFFFFFFFFFFFFFFFFFFFFFFFFFFFFDD
:10151E00FFFFFFFFFFFFFFFFFFFFFFFFFFFFFFFFCD
:10152E00FFFFFFFFFFFFFFFFFFFFFFFFFFFFFFFFBD
:10153E00FFFFFFFFFFFFFFFFFFFFFFFFFFFFFFFFAD
:10154E00FFFFFFFFFFFFFFFFFFFFFFFFFFFF10107B
:10155E00FFFFFFFFFFFFFFFFFFFFFFFFFFFFFFFF8D
:10156E00FFFFFFFFFFFFFFFFFFFFFFFFFFFFFFFF7D
:10157E00FFFFFFFFFFFFFFFFFFFFFFFFFFFFFFFF6D
:10158E00FFFFFFFFFFFFFFFFFFFFFFFFFFFFFFFF5D
:10159E00FFFFFFFFFFFFFFFFFFFFFFFFFFFFFFFF4D
:1015AE00FFFFFFFFFFFFFFFFFFFFFFFFFFFFFFFF3D
:1015BE00FFFFFFFFFFFFFFFFFFFFFFFFFFFFFFFF2D
:1015CE00FFFFFFFFFFFFFFFFFFFFFFFFFFFFFFFF1D
:1015DE001010FFFFFF0000FFFFFFFFFFF000000FE6
:1015EE00FFFFFFFF00222200FFFFFFFF002222006D
:1015FE00FFFFFFF0022002200FFFFFF0022002206B
:10160E000FFFFF002200002200FFFF00220FF0223A
:10161E0000FFF002200FF002200FF0022000000267
:10162E00200F002222222222220000222222222207
:10163E0022000022000000002200002200FFFF0016
:10164E002200002200FFFF002200000000FFFF002A
:10165E000000101000000000000000FF02222222F5
:10166E002222000F0222222222222000000220002B
:10167E0000222200F00220FFF0022200F00220FFE2
:10168E00F0022200F00220000022200FF00222229F
:10169E00222200FFF0022222222200FFF00220006E
:1016AE000022200FF00220FFF0022200F00220FFA5
:1016BE00F00222000002200000222200022222223A
:1016CE0022222000022222222222000F00000000ED
:1016DE00000000FF1010101010101010101010103D
:0A16EE001010101010101010101052
:109C08001226A7FF900407E02F9001F5F02290019B
:109C1800EFE0FBA3E0FAA3E0F922F09001EFE0FB0C
:109C2800A3E475F001122763A9F0FA02268E9001C9
:089C3800E6E0D3648094802271
:06A68A00E4900407F02239
:06A69000900407EFF02228
:0B63FA009001E7EFF0A3ECF0A3EDF042
:106405009001E7E0FF25E0F0E02408F09001EEF0D0
:106415009001E8E0FEA3E07803C333CE33CED8F98C
:10642500F0EE9001E8F0A3E02408F09001E8E034F4
:1064350000F0AF037E007C017D021226E6742E2F4C
:10644500F974003EFA9001EF74FFF0A3EAF0A3E9B6
:10645500129C229001EA129C229001EBF0E4A3F039
:106465009001EAE0FF9001ECE0C39F400302654123
:10647500E4A3F09001EBE0FF9001EDE0C39F400342
:10648500026522129C1612268E129C0BE4FB7D02DD
:10649500FF128E27129C16900001129C087B011298
:1064A500656B900002129C087B0212656B900003DD
:1064B500129C087B0312657E9001F57480F07B04C5
:1064C50012657E9001F0E475F00412274D9001EEFF
:1064D500E09001F5F07B05126586A3E09001F5F0EB
:1064E5007B07126586E07E007802C333CE33CED8B3
:1064F500F912654212659120E7FA9001E8E025E07E
:1065050025E0440812654212659120E7FA9001EEF4
:10651500E004F09001EDE02404F00264789001E7D6
:10652500E09001EEF09001E9E004F070069001E8DA
:0C653500E004F09001ECE004F00264656A
:10654100229001F5F07B097D02E4FF128E277B0A80
:106551007D02E4FF1288BDEF543F44809001F5F0C5
:106561007B0A7D02E4FF128E27227D02E4FF128E58
:10657100279001EFE0FBA3E0FAA3E0F9227D02E41A
:10658100FF128E27227D02E4FF128E279001E8225E
:0B6591007B0A7D02E4FF1288BDEF22B0
:0B907A009001E0EFF0A3EDF0A3EBF09D
:10908500A3129C1912A4579001E6EFF0C3648094D3
:109095008040429001E0E030E0339001E1E0FFA341
:1090A500E0FD7C00A3129C1912268EFB1263FA9038
:1090B50001E6E014F09001E4E475F00112274D900B
:1090C50001E1E02402F0129C3650CF8005129C3657
:0590D50050FB12A6B4DF
:0190DA002273
:10A2F8000500000600000700000800000900000A29
:10A30800000012000020000B000C000D000E0000E1
:036D250001210049
:1081D300900383E075F003A424F8F974A235F0FA50
:1081E3009001E374FFF0A3229001DDE0FBA3E0FA2A
:1081F300A3E0F922900383E0FF74017E00A807083F
:1082030022FF900390E0FDEF5D2274A3F0A37417A7
:10821300F0229000010226A774A3F0A37404F022B5
:1082230074A3F0A37415F022EAF0A3E9F0E4FB22AF
:108233009000020226A712268E540C1313543FF506
:108243003A22EAF0A3E9F07B12227B017D127C0043
:10825300227D197B057C007F3A22EBF0A3EAF0A391
:10826300E9F0229000030226A77B017D0F7C002208
:10827300EAF0A3E9F07B0F227B01E4FDFC7F1C22E3
:088283007B01E4FDFC7F4122B8
:1093850012720E12A68A7F0412A6AE7F0312A6B130
:10939500E4F53AAF3A1293BB053AE53AC394064071
:1093A500F27F01129CE57FFF12A6B17F081293BBE5
:0593B500E4900380F0CC
:1093BA002212A3389001E1E4F0A37426F07B5AE468
:0793CA00FDFCFF1283EE22FF
:1043D3009001DD12825D7F0212A6AE7FFF12A6B1AD
:1043E300900382E01229DE441811442721445B2202
:1043F300448F3144CD33450834454341459391457A
:10440300AAA145D6A245FFB14644B34685B446C7E3
:10441300C1000047241281EB12268E20E1030247DC
:104423002402459F1281EB12268E30E10D1281D3B7
:1044330012822B7DFF7F0112907A1281EB1282157B
:1044430020E1030247249003841281D6EAF0A3E912
:10445300F07B1D7D5D02471F1281EB12268E30E13A
:10446300111281D3EAF0A3E9F07B0E7D487F01129C
:10447300907A1281EB12821520E103024724900304
:10448300841281D612822B7D1402471F1281EB12F4
:10449300268E30E1091281D312822B1247711281C9
:1044A300EB12821530E1099003841281D612475230
:1044B3001281EB12823320E1030247249003851219
:1044C30081D61282737D3E02471F1281EB12268E24
:1044D30030E1061281D31247251281EB1282153087
:1044E300E1099003841281D61247431281EB1282B1
:1044F3003320E1030247249003851281D61282738D
:104503007D3E02471F1281EB12268E30E106128197
:10451300D31247251281EB12821530E109900384EF
:104523001281D61247431281EB12823320E1030238
:1045330047249003851281D61282737D1402471F8C
:104543001281EB12268E30E1061281D31247341208
:1045530081EB12821530E10C9003841281D6128212
:104563002B1247691281EB12823330E109900385E4
:104573001281D61247521281EB12826620E10302A6
:1045830047249003861281D61282737D3E02471F11
:104593001281EB12268E20E1030247241281D312EB
:1045A300822B7D2902471F1281EB12268E30E109EF
:1045B3001281D312822B1247711281EB12821520C2
:1045C300E1030247249003841281D61282457D2998
:1045D30002471F1281EB12268E30E1061281D3129D
:1045E30047341281EB12821520E103024724900322
:1045F300841281D612822B7D3E02471F1281EB1259
:10460300268E30E10D1281D312822B7D297F011278
:10461300907A1281EB12821530E10C90038412819F
:10462300D61282451247611281EB12823320E103D5
:104633000247249003851281D61282457D3E0247AC
:104643001F1281EB12268E30E1091281D312822BC5
:104653001247611281EB12821530E10C9003841230
:1046630081D612822B1247691281EB12823320E129
:10467300030247249003851281D61282457D3E02B0
:10468300471F1281EB12268E30E1091281D3128269
:104693002B1247791281EB12821530E110900384BB
:1046A3001281D612822B7D3E7F0112907A1281EB0A
:1046B30012823330E16B9003851281D61282457DDD
:1046C3001402471F1281EB12268E30E1091281D3A7
:1046D30012822B1247791281EB12821530E110906E
:1046E30003841281D612822B7D3E7F0112907A12AF
:1046F30081EB12823330E1109003851281D612824E
:10470300457D147F0112907A1281EB12826630E1AB
:10471300109003861281D61282457D3E7F0112904E
:104723007A22EAF0A3E9F0E4FB7D147F0112907A88
:1047330022EAF0A3E9F0E4FB7D147F0112907A22D0
:10474300EAF0A3E9F0E4FB7D3E7F0112907A22EACE
:10475300F0A3E9F07B0F7D147F0112907A227D1480
:104763007F0112907A227D3E7F0112907A227D2969
:0E4773007F0112907A227D147F0112907A222B
:08A67A00900381E04480F0220E
:109663007B787D01E4FF1288BDEF540FFF900390D8
:10967300F0900381E06F602ED2277B31E4FDFF126F
:1096830088BDEF547F9001F5F07B31E4FDFF128E2E
:10969300277F4D12A6AE7F4012A69012A68A900392
:0796A30090E0900381F0222A
:066B72009001DD12825DBE
:106B78007F4112A6AE900382E01229DE6BAC116B46
:106B8800BD216BF1226C28316C4B336C68346BACD3
:106B9800916BBDA16BF1A26C28B16C4BB36C68B45E
:106BA80000006CA59001DD1281EE128239600302AB
:106BB8006C33026C419001DD1281EE128239601251
:106BC800126CA61281E212822B7D1C7F0112907A30
:106BD800800612827B12828B9001DD1281EE128276
:106BE8001512823C6037026C769001DD1281EE123C
:106BF80082396012126CA61281E212822B7D1C7FF0
:106C08000112907A800612827B12828B9001DD122B
:106C180081EE12821512823C6003026C76026C9B34
:106C28009001DD1281EE128239600E126CBF128162
:106C3800E212822B7D31026C967B01E4FDFC7F31F0
:106C4800026CA29001DD1281EE128239600D126C85
:106C5800BF1281E212822B7D1C803312827B803A24
:106C68009001DD1281EE12821512823C60257B02B2
:106C7800E4FDFCFF12828BE53A25E0FFE433FE7465
:106C88000D2FF974A33E1281E212822B7D467F01FB
:0D6C980002907A7B01E4FDFC7F4612828BA6
:106CA500227B02E4FDFCFF12828BE53A25E0FFE43E
:106CB50033FE740D2FF974A33E227B02E4FDFCFF25
:106CC50012828BE53A25E0FFE433FE740D2FF9744B
:036CD500A33E22B9
:1031F2009001DD12825D7F0C12A6AE900382E01276
:1032020029DE32321132442132702232993132E4D3
:103212003333273433764133E4913401A1343CA271
:103222003475B134D2B33527B43582C1000035FBD1
:103232009001DD1281EE12268E30E0030233F0029D
:1032420033FA9001DD1281EE12268E30E00B1281EC
:10325200E312821B12367E80031236539001DD1276
:1032620081EE12821530E0030234270234349001D9
:10327200DD1281EE12268E30E0081281E31235FC57
:10328200800312361E9001DD1281EE12821530E0AB
:103292000302346202346F9001DD1281EE12268E37
:1032A20030E00B1281E312821B12367E800312364B
:1032B200539001DD1281EE12821530E00B1281E390
:1032C20012821B1236A8800812826C7F1712828B20
:1032D2009001DD1281EE12823330E0030233D2021A
:1032E20033DD9001DD1281EE12268E30E00812816C
:1032F200E31235FC800312361E9001DD1281EE12BC
:10330200821530E00B1281E312821B1236698003B0
:103312001236299001DD1281EE12823330E003026F
:1033220033D20233DD9001DD1281EE12268E30E0BF
:10333200081281E312360D80031236349001DD1239
:1033420081EE12821530E00B1281E312821B1236DB
:103352006980031236299001DD1281EE1282333028
:10336200E00B1281E312821B7B0F0235727B017D1F
:103372000F02357B9001DD1281EE12268E30E008BD
:103382001281E312360D80031236349001DD128170
:10339200EE12821530E00B1281E312821B12369379
:1033A200800312365E9001DD1281EE12823330E02C
:1033B2000B1281E312821B1236A8800812826C7FE4
:1033C2001712828B9001DD1281EE12826630E00BC1
:1033D2001281E312821B7B0F02346A7B017D0F0292
:1033E20034CB9001DD1281EE12268E30E00A12817A
:1033F200E312821BE4FB80357B01E4FDFC80369006
:1034020001DD1281EE12268E30E00B1281E3128270
:103412001B1236B280031236889001DD1281EE1241
:10342200821530E00D1281E312821B7B0F7D2C028C
:1034320035EE12826C7F2C0235F89001DD1281EE9E
:1034420012268E30E00B1281E312821B12363F806D
:10345200031236739001DD1281EE12821530E00DF7
:103462001281E312821BE4FB7D410235EE1282835C
:103472000235F89001DD1281EE12268E30E00B1239
:1034820081E312821B1236B280031236889001DD6C
:103492001281EE12821530E00B1281E312821B12AE
:1034A20036BC800812824D7F1712828B9001DD128A
:1034B20081EE12823330E00D1281E312821B7B1205
:1034C2007D410235EE7B017D127C007F410235F8A1
:1034D2009001DD1281EE12268E30E00B1281E31292
:1034E200821B12363F80031236739001DD1281EE89
:1034F20012821530E00B1281E312821B1236938086
:103502000312365E9001DD1281EE12823330E00D3D
:103512001281E312821B7B127D410235EE12824D33
:103522007F410235F89001DD1281EE12268E30E0E5
:103532000B1281E312821B123649800312369D90D0
:1035420001DD1281EE12821530E00B1281E312824C
:103552001B1236C6800612828312828B9001DD1204
:1035620081EE12823330E00D1281E312821B7B1254
:103572007D170235EE7B017D127C007F170235F844
:103582009001DD1281EE12268E30E00B1281E312E1
:10359200821B123649800312369D9001DD1281EEA4
:1035A20012821530E00B1281E312821B1236C680A2
:1035B2000612828312828B9001DD1281EE12823317
:1035C20030E00B1281E312821B1236BC8008128299
:1035D2004D7F1712828B9001DD1281EE12826630CE
:1035E200E00F1281E312821B7B127D417F01029068
:1035F2007A12824D7F4112828B2274A3F0A374044B
:10360200F0E4FB7D177F0112907A2274A3F0A37479
:1036120004F0E4FB7D177F0112907A227B01E4FD26
:10362200FC7F1712828B227B01E4FDFC7F41128218
:103632008B227B01E4FDFC7F1712828B22E4FB7D4F
:10364200177F0112907A22E4FB7D177F0112907A94
:10365200227B01E4FDFC7F2C12828B227B01E4FDA4
:10366200FC7F4112828B22E4FB7D417F0112907A22
:10367200227B01E4FDFC7F1712828B22E4FB7D2C6E
:103682007F0112907A227B01E4FDFC7F2C12828B57
:1036920022E4FB7D417F0112907A227B01E4FDFC52
:1036A2007F1712828B227B0F7D177F0112907A2265
:1036B200E4FB7D2C7F0112907A227B127D177F0121
:0E36C20012907A22E4FB7D417F0112907A2261
:1036D0009003F512825D7F0212A6AE900382E01283
:1036E00029DE370D11371F21374E2237773137C288
:1036F0003338053438544138C29138E5A23922B103
:10370000398CB339E1B43A39C100003AAF9003F5CE
:103710001281EE12268E30E4030238CE0238DB909E
:1037200003F51281EE12268E30E40B1281E3128231
:1037300023123B478003123B279003F51281EE12C0
:10374000268E30E4030238CE12826C0238E09003F9
:10375000F51281EE12268E30E4081281E3123AB09F
:103760008003123AD29003F51281EE12821530E4F2
:103770000302390B0239189003F51281EE12268EDE
:1037800030E40B1281E3128223123B478003123B89
:10379000279003F51281EE12821530E40B1281E3BB
:1037A000128223123B51800812826C7F1F12828B7F
:1037B0009003F51281EE12823330E4030238B00236
:1037C00038BB9003F51281EE12268E30E408128188
:1037D000E3123AB08003123AD29003F51281EE124E
:1037E000821530E40B1281E3128223123B1D800309
:1037F000123ADD9003F51281EE12823330E40302B7
:1038000038B00238BB9003F51281EE12268E30E4F8
:10381000081281E3123AC18003123AE89003F512CC
:1038200081EE12821530E40B1281E3128223123BE7
:103830001D8003123ADD9003F51281EE12823330BF
:10384000E40B1281E31282237B0F023A297B017D74
:103850000F023A329003F51281EE12268E30E40800
:103860001281E3123AC18003123AE89003F5128103
:10387000EE12821530E40B1281E3128223123B32E6
:103880008003123B079003F51281EE12823330E47D
:103890000B1281E3128223123B51800812826C7F4B
:1038A0001F12828B9003F51281EE12826630E40BB8
:1038B0001281E31282237B0F0239137B017D0F02F9
:1038C00039859003F51281EE12268E30E40D1281B7
:1038D000E3128223E4FB7D34023AA27B01E4FDFC87
:1038E0007F34023AAC9003F51281EE12268E30E45A
:1038F0000B1281E3128223123AF38003123B1290DF
:1039000003F51281EE12821530E40D1281E312826A
:1039100023E4FB7D49023AA27B01E4FDFC7F4902DE
:103920003AAC9003F51281EE12268E30E41112812A
:10393000E3128223E4FB7D347F0112907A800A7BBC
:1039400001E4FDFC7F3412828B9003F51281EE12AC
:10395000821530E40B1281E3128223123B7080083F
:1039600012824D7F1F12828B9003F51281EE12821C
:103970003330E40D1281E31282237B127D49023A37
:10398000A27B017D127C007F49023AAC9003F512C4
:1039900081EE12268E30E40B1281E3128223123A5A
:1039A000F38003123B129003F51281EE1282153060
:1039B000E40B1281E3128223123B328003123B0795
:1039C0009003F51281EE12823330E40D1281E3127E
:1039D00082237B127D49023AA212824D7F49023A2C
:1039E000AC9003F51281EE12268E30E40B1281E3C7
:1039F000128223123AFD8003123B3C9003F51281A0
:103A0000EE12821530E40B1281E3128223123B6620
:103A10008003123B5B9003F51281EE12823330E497
:103A20000D1281E31282237B127D1F023AA27B01D9
:103A30007D127C007F1F023AAC9003F51281EE12DA
:103A4000268E30E40B1281E3128223123AFD8003AA
:103A5000123B3C9003F51281EE12821530E40B12FA
:103A600081E3128223123B668003123B5B9003F5D5
:103A70001281EE12823330E40B1281E312822312A0
:103A80003B70800812824D7F1F12828B9003F512CB
:103A900081EE12826630E40F1281E31282237B12E0
:103AA0007D497F0102907A12824D7F4912828B22DA
:103AB00074A3F0A37415F0E4FB7D1F7F0112907ACC
:103AC0002274A3F0A37415F0E4FB7D1F7F01129014
:103AD0007A227B01E4FDFC7F1F12828B227B01E4B2
:103AE000FDFC7F4912828B227B01E4FDFC7F1F12CB
:103AF000828B22E4FB7D1F7F0112907A22E4FB7D02
:103B00001F7F0112907A227B01E4FDFC7F49128223
:103B10008B227B01E4FDFC7F1F12828B22E4FB7D64
:103B2000497F0112907A227B01E4FDFC7F341282EE
:103B30008B22E4FB7D497F0112907A227B01E4FD18
:103B4000FC7F1F12828B22E4FB7D347F0112907A6E
:103B5000227B0F7D1F7F0112907A227B01E4FDFC06
:103B60007F4912828B22E4FB7D497F0112907A22E9
:0A3B70007B127D1F7F0112907A2264
:102C6E00900390E0FD900381E06DF56BA3E01229D7
:102C7E00DE2CA7112CCA222D0F312D80332DE734D7
:102C8E002E55412EE4912F0DA22F5AB12FCAB330DB
:102C9E0034B430AFC10000313B1281F78005C3332D
:102CAE00CE33CED8F9FFEF5D600B1281E312820DA9
:102CBE007B0D022EFD7B057D0D022F061281F78006
:102CCE0005C333CE33CED8F9128204600B1281E3E2
:102CDE0012820D12319880031231549003841281A6
:102CEE00FA8005C333CE33CED8F9128204600B12AC
:102CFE0081E312820D7B0D022F4A7B057D0D022F83
:102D0E00531281F78005C333CE33CED8F912820425
:102D1E0060111281E312820D7B077D257F011290D7
:102D2E007A80057D071231DE9003841281FA8005C8
:102D3E00C333CE33CED8F9128204600D1281E31262
:102D4E00820D7B151231B880031231A290038512C9
:102D5E0081FA8005C333CE33CED8F9128204600BCC
:102D6E001281E312820D7B15022F4A7B057D15021F
:102D7E002F531281F78005C333CE33CED8F912828A
:102D8E0004600B1281E312820D123198800312310E
:102D9E00549003841281FA8005C333CE33CED8F912
:102DAE00128204600B1281E312820D1231AE800387
:102DBE001231609003851281FA8005C333CE33CE73
:102DCE00D8F9128204600B1281E312820D7B150278
:102DDE002F4A7B057D15022F531281F78005C333D1
:102DEE00CE33CED8F9128204600B1281E312820D1B
:102DFE0012316C800312313C9003841281FA8005EB
:102E0E00C333CE33CED8F9128204600D1281E31291
:102E1E00820D7D3A1231D680087D0D1282561282B5
:102E2E008B9003851281FA8005C333CE33CED8F949
:102E3E00128204600B1281E312820D7B1502309F09
:102E4E007B057D150230A81281F78005C333CE3382
:102E5E00CED8F9128204600B1281E312820D123168
:102E6E006C800312313C9003841281FA8005C333C7
:102E7E00CE33CED8F9128204600B1281E312820D8A
:102E8E001231AE80031231609003851281FA8005F3
:102E9E00C333CE33CED8F912820460111281E312FD
:102EAE00820D7B157D107F0112907A80031231A264
:102EBE009003861281FA8005C333CE33CED8F91231
:102ECE008204600B1281E312820D7B15022F4A7B66
:102EDE00057D15022F531281F78005C333CE33CEF5
:102EEE00D8F9128204600D1281E312820D7B107DDF
:102EFE00250231307B057D107C007F250231381292
:102F0E0081F78005C333CE33CED8F9128204600D1B
:102F1E001281E312820D7B101231B88003123176CA
:102F2E009003841281FA8005C333CE33CED8F912C2
:102F3E008204600D1281E312820D7B107D3A023104
:102F4E00307B057D107C007F3A0231381281F7808C
:102F5E0005C333CE33CED8F912820460111281E349
:102F6E0012820D7B087D257F0112907A80057D08E7
:102F7E001231DE9003841281FA8005C333CE33CE34
:102F8E00D8F9128204600B1281E312820D1231E81D
:102F9E0080031231C09003851281FA8005C333CEAF
:102FAE0033CED8F9128204600D1281E312820D7BAA
:102FBE00197D3A0231301282540231381281F78073
:102FCE0005C333CE33CED8F9128204600D1281E3DD
:102FDE0012820D7D101231D6800312317690038449
:102FEE001281FA8005C333CE33CED8F91282046033
:102FFE000B1281E312820D1231CC800312318C90B0
:10300E0003851281FA8005C333CE33CED8F91282EE
:10301E0004600D1281E312820D7B197D3A0231306C
:10302E001282540231381281F78005C333CE33CE6B
:10303E00D8F9128204600B1281E312820D123182D2
:10304E0080031231489003841281FA8005C333CE77
:10305E0033CED8F912820460111281E312820D7BF5
:10306E00107D3A7F0112907A800B7B057D107C00DB
:10307E007F3A12828B9003851281FA8005C333CE7C
:10308E0033CED8F9128204600D1281E312820D7BC9
:10309E00197D100231307B057D197C007F100231C5
:1030AE00381281F78005C333CE33CED8F91282049D
:1030BE00600B1281E312820D1231828003123148AD
:1030CE009003841281FA8005C333CE33CED8F91221
:1030DE008204600B1281E312820D1231CC80031236
:1030EE00318C9003851281FA8005C333CE33CED84E
:1030FE00F9128204600B1281E312820D1231E88004
:10310E00031231C09003861281FA8005C333CE3389
:10311E00CED8F9128204600F1281E312820D7B1950
:0D312E007D3A7F0102907A12825412828B4A
:10313B00227B057D077C007F1012828B227B057D15
:10314B00087C007F1012828B227B057D0D7C007F1B
:10315B001012828B227B057D077C007F3A12828BBB
:10316B00227B077D107F0112907A227B057D107CDC
:10317B00007F1012828B227B087D107F0112907AC8
:10318B00227B057D087C007F3A12828B227B0D7D92
:10319B00107F0112907A227B057D157C007F101227
:1031AB00828B227B077D3A7F0112907A227D107FE2
:1031BB000112907A227B057D197C007F1012828B85
:1031CB00227B087D3A7F0112907A227B0D7F0112C0
:1031DB00907A227B057C007F2512828B227B197DC6
:0731EB00107F0112907A220F
:10989900E4FF12A338900380E024FE6011047029CC
:1098A9001298D31281E374A3F0A37407800C129861
:1098B900D31281E374A3F0A3740AF0E4FB7D017F62
:1098C9000112907A7FFF12A6B1227F0312A6B17FFF
:0598D9000412A6AE22FE
:10A22000E4FF12A338900388E030E1127B017A0347
:10A2300079881231F27B017A037988126B7212A647
:06A240007AE4FF029CE538
:1016F80000000000000000000000000000000000E2
:1017080000000000000000000000000000000000D1
:10171800003E007E00FE01CE038E7F8E7F8E738E8C
:10172800738E738E7F8E7F8E01CE00FE007E003E0C
:1017380000000000020006000E001E003FFE7FFEB3
:101748007FFE3FFE1E000E000600020000000000A3
:101758000000000000400060007000787FFC7FFE01
:101768007FFE7FFC007800700060004000000000F1
:10177800000003C003C003C003C003C003C003C00C
:1017880003C03FFC1FF80FF007E003C00180000012
:1017980003C003C007E007E00E700E701C381C3849
:1017A800381C381C7FFE7FFE700E700E700E700E97
:1017B8007FF87FFC383E381E381E381E383C3FF80C
:1017C8003FF8383C381E381E381E383E7FFC7FF8FC
:1017D8000FF81FFC3C1C380E780E700E700070005D
:1017E80070007000700E700E380E3C1C1FFC0FF855
:1017F8007FF07FF07078703C703C703C70787FF0C0
:101808007FE0778073C071E070F07078703C701E74
:1018180000006006700E781E7C3E7FFE77EE73CE69
:10182800718E700E700E700E700E700E700E700E3F
:1018380000001FF81FF800E000E000E000E000E012
:1018480000E000E000E070E079E03FC01F800F009A
:1018580000000000000003C007800F001E003FFCCE
:101868003FFC1E000F00078003C0000000000000BE
:1018780000000000000003C001E000F000783FFC19
:101888003FFC007800F001E003C000000000000009
:1018980000000000018001800180018011881998F2
:1018A8001DB81FF80FF007E003C00180000000001A
:1018B800003E007E00FE01CE038E7F8E7F8E738EEB
:1018C800738E738E7F8E7F8E01CE00FE007E003E6B
:1018D800700E700E700E700E700E700E781E381C22
:1018E800381C1C381C380E700FF007E003C001804C
:1018F8000000380038003800380038003800380058
:1019080038003800380038063806380E3FFE3FFEEB
:101918000000000000000000000003800FE01C70C1
:10192800183038383838383818301C700FE00380D1
:101938000000000000000000000003C00FF01C3889
:101948001C000F0007E000F000381C380FF003C03F
:10195800000000000000000000000000000000007F
:10196800000000000000000000000000000000006F
:10197800000000000000000000000000000000005F
:10198800000000000000000000000000000000004F
:10199800000000000000000000000000000000003F
:1019A800000000000000000000000000000000002F
:1019B800000000000000000000000000000000001F
:1019C800000000000000000000000000000000000F
:1019D80000000000000000000000000000000000FF
:1019E80000000000000000000000000000000000EF
:1019F80000000000000000000000000000000000DF
:101A080000000000000000000000000000000000CE
:101A180000000000000000000000000000000000BE
:101A280000000000000000000000000000000000AE
:101A3800000000000000000000000000000000009E
:101A4800000000000000000000000000000000008E
:101A5800000000000000000000000000000000007E
:101A6800000000000000000000000000000000006E
:101A7800000000000000000000000000000000005E
:101A8800000000000000000000000000000000004E
:101A9800000000000000000000000000000000003E
:101AA800000000000000000000000000000000002E
:101AB800000000000000000000000000000000001E
:101AC800000000000000000000000000000000000E
:101AD80000000000000000000000000000000000FE
:101AE80000000000000000000000000000000000EE
:101AF80000000000000000000000000000000000DE
:101B080000000000000000000000000000000000CD
:101B1800000007000F800F800F800F80070007006C
:101B28000700020002000000020007000700020090
:101B38000000EE006600440088000000000000007D
:101B4800000000000000000000000000000000008D
:101B5800000008200820082008203FF80820082056
:101B68000820082008203FF808200820082008201E
:101B780000000FC01B603330333033001B000F00F0
:101B880003C0036013303B3033301B600FC00300C9
:101B980000003808441084200440048009001270B2
:101BA800E4880908120822084210822001C00000B7
:101BB80000000E001B00318031801B000E001C004D
:101BC8003678632061A060E0606030F01F9C000000
:101BD80000000000000000000000000000000000FD
:101BE800000000000000800060007000380018004D
:101BF8000000000400080018001000300030003019
:101C08000030003000300010001800080004000206
:101C180000008000400060002000300030003000EC
:101C280030003000300020006000400080000000DC
:101C3800000002004210222012400A800700FFFC28
:101C480007000A8012402220421002000200000011
:101C580000000000030003000300030003007FF8F6
:101C68007FF80300030003000300030000000000E6
:101C7800000000000000000000000000000000005C
:101C8800000018003C003C00180010002000400034
:101C980000000000000000000000000000007FF8C5
:101CA8007FF80000000000000000000000000000B5
:101CB800000000000000000000000000000000001C
:101CC8000000000000007800840084008400780090
:101CD800000000180030006000C00180030006000A
:101CE8000C00180030006000C000800000000000F8
:101CF80000000FE0183030183038307830D831987C
:101D0800331836183C183818301818300FE000000F
:101D18000000030007000F00030003000300030096
:101D28000300030003000300030003001FE000009A
:101D380000000FE01830301830183038007001C03B
:101D480003000E001800300830083FF83FF8000084
:101D5800000007C0183030183018003000E003C009
:101D680000E00030001830183018183007C00000A4
:101D7800000000C001C003C006C00CC018C030C0BD
:101D880060C0C0C0C0C0FFF800C000C003F00000C1
:101D980000003FF03FF030003000300037C03830EE
:101DA80030180018001830183018183007C0000014
:101DB800000007E01830303030003000300037E0E5
:101DC8003830301830183018301818300FC000006C
:101DD80000003FF83FF8201820180030006000C0CD
:101DE8000180030003000300030003000300000058
:101DF80000000780186030303030303018600FC075
:101E08001860303060186018601830300FC000005B
:101E1800000007801860303030183018301830381B
:101E2800187807980018303038301860078000009C
:101E3800000000000000000003000780030000000D
:101E480000000300078003000000000000000000FD
:101E580000000000000000000300078003000000ED
:101E680000000300078003800180070000000000D5
:101E780000000000001800600180060018006000E3
:101E88008000600018000600018000600018000053
:101E9800000000000000000000007FF87FF800004C
:101EA80000007FF87FF8000000000000000000003C
:101EB8000000800060001800060001800060001823
:101EC800000400180060018006001800600080000F
:101ED800000007800FC01CE038E038E011C0018026
:101EE80003000300020002000000020007000700D0
:101EF80000000FC030604010478888C890C890C85C
:101F080090C890C888D84770400830700FC000004B
:101F1800000003000300078007800CC00CC0186095
:101F280018601FE03030303060186018F03C000056
:101F380000003F80186018301830183018601FC033
:101F48001860183018181818181818303FC00000F2
:101F58000000078818683038601860086000600062
:101F6800600060006008601830301860078000006A
:101F780000007F8030E030383018301830183018C2
:101F88003018301830183018303030E07F800000BA
:101F980000003FF0183018101800188018801F80B3
:101FA8001880188018001800181018303FF000002A
:101FB80000003FF0183018101800188018801F8093
:101FC8001880188018001800180018003C0000003D
:101FD80000000F90187030306010601060006000D2
:101FE8006078603060306030307018F00FB00000FA
:101FF80000007878303030303030303030303FF0DA
:102008003030303030303030303030307878000098
:1020180000000FC0030003000300030003000300D7
:102028000300030003000300030003000FC00000C7
:10203800000001F000600060006000600060006067
:10204800006000603060306030E019C00F000000B0
:10205800000078F8306030C03180330036003C0032
:102068003E003300318030C030603030787C000072
:1020780000003C001800180018001800180018008C
:102088001800180018001808181818383FF8000029
:102098000000E03CE038F078F078D8D8D8D8C89874
:1020A800CD98CD98C518C718C218C018E07C000094
:1020B8000000C078E030F030F830DC30CE30C73087
