:0300000002831B5D
:0C831B00787FE4F6D8FD7581670283626C
:0BA14700E02484F582E43402F583225A
:109F7600C2BCD2AC759852758DFAE4F58BD28E9030
:069F860002D4F0A3F0225A
:10A08D009002D4E0FFA3E0B507037F00227F0122F9
:109F14009002D412A147E0FF9002D4E004F0E0C321
:089F240094504002E4F0D2ACBD
:019F2C002212
:080003003099FD8F99C299228A
:03002300029A0638
:109A0600C0E0C083C082C0D0309819C2989002D5F9
:109A160012A147E599F09002D5E004F0E0C3945016
:0D9A26004002E4F0D0D0D082D083D0E032F6
:10960A00E0F580D2A3E490030BF0A3F022C3900309
:10961A000BE094002290030BE004F0229001E3E0B7
:10962A00FBA3E0FAA3E0F922EDF0A3EBF0E4FFC21A
:0C963A00AF22D2B6D2B77580FFD2AF22AB
:108BCD009001F212963212A1BB9001F2E0FF7006F5
:108BDD00C2B7C2B68012EFB40106C2B7D2B68008D2
:108BED00EFB40204D2B7C2B69001F312960A1296F0
:108BFD0017500BA3E004F070F512961F80F0C2A37E
:108C0D009001F4E0F580C2A112960F129617500B49
:108C1D00A3E004F070F512961F80F0D2A112A1BB53
:048C2D0012963C223D
:1084B8009001D712963212A1BB9001D7E0FF700647
:1084C800C2B7C2B68012EFB40106C2B7D2B68008EE
:1084D800EFB40204D2B7C2B69001D8E0FF04F08F1F
:1084E8008012960D129617500BA3E004F070F51247
:1084F800961F80F0C2A39001D9E0FBA3E475F001B8
:10850800122763A9F0FA12268EF580C2A112960FDF
:10851800129617500BA3E004F070F512961F80F026
:10852800D2A19001DCE014F070AE12A1BB12963C0F
:018538002220
:0B83A7009001F1EFF0A3EDF0A3EBF06C
:1083B200C2AF12A1BBE49001F1F0A3E0FF7006C2CC
:1083C200B7C2B68012EFB40106C2B7D2B68008EFC8
:1083D200B40204D2B7C2B69001F312960A129617EB
:1083E200500BA3E004F070F512961F80F0C2A37543
:1083F20080FF12960F129617500BA3E004F070F54F
:1084020012961F80F0C2A29001F4E580F012960F3E
:10841200129617500BA3E004F070F512961F80F02D
:10842200D2A212A1BBD2B6D2B7D2AF9001F4E0FF72
:018432002227
:108EC7009001E3EBF0A3EAF0A3E9F012962612274C
:108ED70079F47003E5F0F46038122779FBAAF0EA19
:108EE700FDE4FF1283A71296269000021226A7FC24
:108EF7006F6012122779FBAAF0EAFD9001F4ECF0FB
:108F0700E4FF128BCD9001E4E475F00312274D8046
:028F1700BA227C
:01A1F8002244
:105404002562782025627820256278000A3C523E85
:1054140025303262785B25303262785D3D2530324A
:10542400627800256278202562780025627820253C
:105434006278202562782025627820002531627800
:10544400202531627820253162782000526561641C
:105454004173696342797465203D3D20256278205B
:105464000A0063682562643A256264200063682543
:1054740062643A2562642063682562643A25626442
:10548400200063682562643A2562642063682562AB
:10549400643A2562642063682562643A2562642064
:1054A4000063682562643A25626420636825626447
:1054B4003A2562642063682562643A256264206345
:1054C400682562643A256264200063682562643A50
:1054D4002562642063682562643A256264206368F7
:1054E4002562643A2562642063682562643A256211
:1054F400642063682562643A25626420002562643E
:1055040020000A203D3D3D3D3D3D3D3D205041476D
:10551400452025623278203D3D3D3D3D3D3D3D3DAC
:105524003D3D3D3D0A002562327809000A002531DF
:10553400627820253162782063682531627820639F
:105544006825316278206368253162782063682594
:105554003162782000656E726563616C6C00656E03
:10556400667265657A6500656E686D6972726F72E0
:1055740000656E766D6972726F7200656E656E6835
:10558400616E636500656E626C616E6B00656E6270
:105594006F756E6400656E626C696E6B006469732E
:1055A400726563616C6C00646973667265657A65C3
:1055B40000646973686D6972726F720064697376EE
:1055C4006D6972726F7200646973656E68616E638F
:1055D4006500646973626C616E6B00646973626F09
:1055E400756E6400646973626C696E6B003D3D3D69
:1055F4003D3D20466F726D6174203A206368303DF2
:105604005B2562785D206368313D5B2562785D20AF
:105614006368323D5B2562785D206368333D5B25BA
:1056240062785D203D3D3D3D3D0A002562782025A0
:1056340062782063682562783A2562782063682559
:1056440062783A2562782063682562783A25627820
:105654002063682562783A2562782000333400623A
:105664007573770079766D6978006873636F6D0080
:105674006D6F6465003700380031000102040810C2
:0475770041036E005E
:10568400A3F0A3E4F0A37400F0A37408F0A3E4F07F
:10569400A37400F0A3740DF0A3E4F0A37400F0A3CA
:1056A4007409F0A3E4F0A37400F0A3740EF0A3E46F
:1056B400F0A37400F0740AA3F0A3E4F0A322A3F00F
:1056C400A3E4F0A37400F0A37412F0A3E4F0A374B1
:1056D40000F0A37417F0A3E4F0A37400F0A3741310
:1056E400F0A3E4F0A37400F0A37418F0A3E4F0A30F
:1056F4007400F07414A3F0A3E4F0A322A3F0A3E4D1
:10570400F0A37400F0A37439F0A3E4F0A37400F0E0
:10571400A3743DF0A3E4F0A37400F0743AA3F0A3DF
:10572400E4F0A322A3F0900389E0FBA3E0FAA3E052
:10573400F9229001DF74FFF0A37454F07466A3F0AF
:10574400A3E4F0A3227400F0A3740FF0A3E4F0A385
:105754007400F0740BA3F0A3E4F0A3227400F0A38C
:105764007419F0A3E4F0A37400F07415A3F0A3E497
:10577400F0A3227400F0A3743EF0A3E4F0A3740039
:10578400F0743BA3F0A3E4F0A3229001DF74FFF0D4
:10579400A37454F07471A3F0A3E4F0A3229001DF86
:1057A40074FFF0A37455F07401A3F0A3E4F0A322F2
:1057B4007400F07408A3F0A3E4F0A3227400F0745E
:1057C40012A3F0A3E4F0A3229001DF74FFF0A3225C
:1057D400EBF0A3EAF0A3E9F09001DF7401F0A32257
:1057E400A3F0A37401F0A37403F07459A3F0A37499
:1057F40001F0A322A3F0A3E4F0A322A3F0A3E4F016
:10580400A322A3F0A3E4F0A322A3F0A3E4F0A32231
:10581400A3F0A3E4F0A322FFE02462F582E43403BE
:10582400F583EFF022E0FF9001E07401F0A374032C
:10583400F0A3745EF07B017A03795922A3F0A3E408
:10584400F0A322A3F0A3E4F0A322EBF0A3EAF0A3D5
:10585400E9F022900001E475F0010227A47BFF7AAD
:10586400547910900311F022A3F0A3E4F0A322E0F2
:105874005401FB7D20222533F533A3E0540322E5B4
:105884000990567F93FFE508932F2212296F022671
:0F5894008EA3F0A3E4F0A32212A1F99001D42275
:10880A009001DC12584EA312572D12588F7002FF96
:10881A00229001DF12572D12588FB4200B9001DFDE
:10882A0012572D12585780E99001DF12572D12293D
:10883A006FC003C002C0019001DC12572D12298FAC
:10884A0080239001DF12572D12588FFEB42010E4B6
:10885A001226D49001DF12572D1258577F0122EEAB
:10886A0070037F01229001DF12572D12585780D2D0
:069590009001DC12584EB0
:10959600E4F530F5319001DC12572D12268E60224B
:1095A6009001DCA3E475F001122763A9F0FA1226F4
:1095B6008EFF3395E0FEEF2531F531EE3530F5308F
:0695C60080D3AE30AF318E
:0195CC00227C
:01A1F9002243
:10920C00E4F533900359E0540312587A25E025E035
:10921C0012587AC454F012587AC4333354C02533DC
:10922C00F533900358E0B5070D90035DE0B53306B8
:10923C00E4900368F0229003687401F090035DE5FC
:07924C0033F0900358EFF02E
:0192530022F8
:10929C001257CC7454F074041256BB7400F0744C16
:1092AC001256F97400F0744D1257217400F0A37427
:1092BC004EF0124B9CAB4DAD4CE4FF1283A79003C8
:1092CC0013EFF0E54C125861A3E54DF01248190567
:0692DC004DE54DB54EDF2B
:0192E2002269
:1096F4001257CC7454F074271257427400F0745506
:109704001257597400F0A37456F0124B9CAB56AD2B
:1097140055E4FF1283A7900313EFF0E55512586147
:07972400A3E556F00248190D
:109912001257CC7454F074041257707400F0744FE0
:109922001257877400F0745012579A7400F0A3749F
:1099320051F0124B9C9001F4E551F0AB50AD4FE465
:04994200FF028BCDC8
:108F6900E4F530F531F532F533C003C0021257CCC0
:108F79007454F0742F1257AD7400F074301257B94D
:108F89007400F074311257C57400F074321257F836
:108F99007400F0A37433F0D002D003124B9C9001FB
:0D8FA900F4E533F0AB32AD31E4FF028BCDC7
:10925400E4F51CF51DF51EF51F1257CC7454F0747B
:10926400401257F87400F0741C1257FF7400F07425
:109274001D1257FF7400F0A3741EF0124B9CAB1E1A
:10928400AD1DE4FF1283A78F1F7BFF7A54795090A2
:089294000311E51FF002481967
:0364DC00900389A1
:1064DF001257D47403F0A37489F07B017A03798C7B
:1064EF0012880AE4FB7D1FFF12980690038C125747
:1064FF002D127BA9EE6003026604EF24FE603614B2
:10650F00605A1460781470030265B12404600302AA
:10651F0066041257361257B47400F0740D125728D0
:10652F00124B9CAB0DAD08E4FF128799E50890560E
:10653F007F930265FC12578E1257B47400F0740DDE
:10654F001258067400F074091258067400F0740E95
:10655F001257281266051258830265FC1257CC7425
:10656F0054F074861256847400F0A3740F125729D6
:10657F00126605AB0FAD0A12661B0265FC1257CCF3
:10658F007454F074A51256841257497400F0A37412
:10659F001012572912663112661BFFE50B932F025B
:1065AF0065FC1257CC7454F0A374CE125685125753
:1065BF00497400F0741012580D7400F0740C1258D6
:1065CF000D7400F0A37411125729126631E4FF12F3
:1065DF008799AB11AD0CE4FF128799125883FFE531
:1065EF000A932FFFE50B932FFFE50C932FFD7B01F4
:0565FF00E4FF12980604
:1066040022124B9CAB0DAD08E4FF128799AB0EAD83
:1066140009E4FF12879922E4FF128799E50990564D
:106624007F93FFE508932FFFE50A932F22124B9CDB
:10663400AB0DAD08E4FF128799AB0EAD09E4FF1270
:106644008799AB0FAD0AE4FF128799AB10AD0B220B
:0FA0AD00E4FB7D1FFF1298067DFFE4FF02997A06
:036D2E0090038F40
:106D31001257D47403F0A3748FF07B017A03799214
:106D410012880A90039212572D127BA9EE6003025A
:106D51006E3CEF24FE6030146056146071147003B1
:106D6100026DF324046003026E3C1257361257C0C1
:106D71007400F0A37417F090038F12572D124B9CDF
:106D8100AB17AD12026E3712578E1257C07400F056
:106D910074171258147400F074131258147400F01C
:106DA100A37418F090038F12572D126E57026E378D
:106DB1001257CC7454F074861256C27400F0A37446
:106DC10019F090038F12572D126E3D026E37125734
:106DD100CC7454F074A51256C21257607400F0A31B
:106DE100741AF090038F12572D126E3D126E6802C5
:106DF1006E371257CC7454F0A374CE1256C3125787
:106E0100607400F0741A1258407400F0741612582D
:106E1100407400F0A3741BF090038F12572D126E73
:106E210057E4FF128958AB19AD14126E68E4FF12D2
:0B6E31008958AB1BAD16E4FF12895816
:106E3C0022124B9CAB17AD12E4FF128958AB18AD64
:106E4C0013E4FF128958AB19AD1422124B9CAB17EB
:106E5C00AD12E4FF128958AB18AD1322E4FF12896E
:066E6C0058AB1AAD15221F
:109FCD001257A17400F0A37463F0124B9CAD63E4BF
:049FDD00FF02997A6C
:10900200E4F5587BFF7A557906900311E558F01282
:109012004819E4F557AB57AD58E4FF1283A7900304
:1090220011EFF07BFF7A55792A1248190557E55757
:10903200540F70097BFF7A557930124819E5577041
:0A904200D40558E558C3940340B963
:01904C002201
:108E7100C003C002C0011257CC7455F074321258AD
:108E8100477400F074591258477400F0745A12571D
:108E9100E47403F0745A1257F07403F0A3745B1274
:108EA10057F17403F0A3745CF0D001D002D0031227
:108EB1004B9CE559C454F0FFE55A540F2FF5591254
:068EC1005839FF02601B9E
:0658A30090039512584E1F
:1058A900E4F52E7B019001DF04F0A37403F0A374E7
:1058B90095F07A03799812880A90039812572D1255
:1058C9007BA98F2F1257DC125A9B90039812572DE0
:1058D9001295908E268F277A557959125A78B527BD
:1058E9000AEEB526067528800259787A557962122A
:1058F9005A78B5270AEEB526067528400259787AEE
:1059090055796B125A7FB52709EEB52605752820FA
:10591900805D7A557975125A7FB52709EEB5260546
:10592900752810804A7A55797F125A86B52709EE6B
:10593900B5260575280880377A557989125A86B5AA
:105949002709EEB5260575280480247A5579911220
:105959005A8DB52709EEB5260575280280117A55A5
:105969007999125A8DB5270DEEB526097528017555
:105979002901025A227A5579A1125A94B5270AEEB9
:10598900B52606752880025A057A5579AB125A94BC
:10599900B52709EEB5260575284080607A5579B591
:1059A900125AACB52709EEB52605752820804D7A1F
:1059B9005579C0125AACB52709EEB52605752810D8
:1059C900803A7A5579CB125AB3B52709EEB526052F
:1059D90075280880277A5579D6125AB3B52709EE62
:1059E900B5260575280480147BFF7A5579DF129551
:1059F90090EFB5270CEEB52608752802E4F5298045
:105A0900187BFF7A5579E8129590EF65277003EEB8
:105A19006526705A752801F5291257DC125A9BEF31
:105A2900603390039812572D12268EB477EB9000AD
:105A3900011226A7B469E29000021226A7B46ED912
:105A4900E92403F9E43AFA127BA9742A252EF8A667
:105A590007052E80C4E52E60152429F8E6FFC395B5
:0E5A69002F5007AB29AD281298DD152E80E7CF
:105A7700227BFF129590EF227BFF129590EF227BFE
:105A8700FF129590EF227BFF129590EF227BFF127A
:105A97009590EF227403F0A37495F07B017A037954
:105AA7009812880A227BFF129590EF227BFF1295AE
:035AB70090EF224B
:10A057001257A17400F0A37430F0124B9CAF30027A
:02A067009FE177
:10968200E4FF12904DC0077F0112904DC0077F0288
:1096920012904DC0077F0312904D900314EFF0908B
:1096A2000313D0E0F0900312D0E0F0900311D0E069
:0A96B200F07BFF7A5579F1024819A8
:03745A0090039B01
:10745D001257D47403F0A3749BF07B017A03799EC9
:10746D0012880A90039E12572D127BA9EE6003021B
:10747D00754CEF24FE602B14605314607924036067
:10748D000302754C1257367400F0743912586C742F
:10749D0000F0A3743DF090039B12572D12756B02F3
:1074AD0075471257CC7454F074711257007400F074
:1074BD00A3743EF090039B12572D12756BE4FF12CF
:1074CD0099AAE53EC454F0FBAD3A0275471257CC6C
:1074DD007454F074861257001257777400F0A37429
:1074ED003FF090039B12572D12754DE53FC454F09C
:1074FD00FBAD3B0275471257CC7454F0A374A51223
:10750D0057011257777400F0743F12586C7400F0E5
:10751D00743C1258957400F0A37440F090039B12C4
:10752D00572D12754DE53FC454F0FBAD3BE4FF12F2
:0F753D0099AAE540C454F0FBAD3CE4FF1299AAB3
:10754C0022124B9CE53DC454F0FBAD39E4FF12997B
:10755C00AAE53EC454F0FBAD3AE4FF1299AA2212FC
:0B756C004B9CE53DC454F0FBAD392200
:038CF8009003A145
:108CFB001257D4128D4512572D127BA98F5B125729
:108D0B00DC128D4512572D127BA98F5C7F0412A1AB
:108D1B00F27F0312A1F57F05129E0F9003A1E0F9DC
:108D2B00A3E0FAA3E0900385C912584FAB5CAD5B8F
:0A8D3B007F01128DBA7F050297D068
:108D45007403F0A374A1F07B017A0379A412880A55
:048D55009003A422C1
:1092E300755E01E4F55D745E255DF582E43403F596
:1092F30083E030E4157459255DF582E43403F58386
:10930300E0FDE4FF12997AE4F55E055DE55DC39443
:109313000440D3E55E600FE4FB7D1FFF1298067DDA
:06932300FFE4FF12997A3D
:019329002221
:106BE000C003C002C0011257CC7456F0742F125863
:106BF000957400F0A37431F0A3E4F0A37400F07472
:106C0000321257E47403F0A3745E1257F17403F068
:106C1000A3745A1257F17403F0A3745F1257F174FE
:106C200003F0A3745B1257F17403F0A3746012575E
:106C3000F17403F0A3745C1257F17403F0A3746150
:106C4000F0D001D002D003124B9CE531C454F0FFC8
:106C5000900355E0FEC433333354802FFFE53254A4
:106C60000F2F900367F090035EE090035912581BBA
:106C700090035FE090035A12581B900360E0FF906E
:106C8000035B12581C900361E0FF90035C12581CD8
:106C9000900362125873E4FF1296469003631258F1
:106CA000737F011296469003641258737F02129606
:106CB000469003651258737F031296467B017A0350
:106CC0007962126E72900367125829124E35900342
:106CD00067E0FF12583912601BE4F530745E25300E
:106CE000F582E43403F583125873AF301298DD0552
:106CF00030E530C3940440E4E4F541F542F54375D2
:106D000044057F0112A185900367E0FF12920C7F7A
:106D100008129946E4FF129EFA1293FF7B017A0350
:0D6D2000795E124400900367E090036EF06E
:016D2D002243
:108A2D00E4FF12904DEFB40202C322900355E0B55E
:108A3D000702D322900355EFF0E0C4333333548053
:108A4D00FF900358E0547F4FF07F011297D09003B1
:108A5D0055E0FF128C317B017A037962126E7290B0
:108A6D000358125829124E35900358E0FF12583909
:108A7D0012601BE4FF129EFA1293FF7B017A0379B9
:088A8D005E124400129D5ED34D
:018A950022BE
:109F8C001257CC7455F0A374011257F17403F0A35B
:069F9C007456F0024B9C1C
:050026007F010297D0EC
:10A03100905660E493FF120003905660A3E493FFEF
:03A0410002000317
:0370ED009001D43B
:1070F0001257D47401F0A374D4F07B017A0179D9CA
:1071000012880A9001D912572D1295909001D7EE4E
:10711000F0A3EFF07A5679631271F5B50611A3E08A
:10712000B5070C9001D412572D128F690271F27AB3
:107130005679681271F5B50611A3E0B5070C12581F
:107140009C12572D12A0570271F27A56796E127165
:10715000FFB50619A3E0B5071412589C12572D125B
:107160006BE0129D5EE4FF12A1850271F27A5679FE
:10717000741271FFB50610A3E0B5070B12589C12EC
:10718000572D129F8C806B7A567979127209E0B56F
:10719000060FA3E0B5070A90026FE0900282F0802C
:1071A000517A56797B127209E0B5060FA3E0B50754
:1071B0000A90026FE0FF129A3380377BFF7A56798C
:1071C0007D1295909001D7E06E7003A3E06F70225E
:1071D00090020CE0B431051295CD801690020CE0BF
:1071E000B43305129EC2800A90020CE0B450031220
:0471F000887A7F0119
:1071F400227BFF1295909001D7E0227BFF1295909D
:0E7204009001D7E0227BFF1295909001D722D7
:105ABA000D0A0050435400FFC896643200627573A1
:105ACA0077203020312041312031316275737720BF
:105ADA0030203120413220443779766D697820347C
:105AEA00206D6F64652030206873636F6D203120EC
:105AFA0031206368303A3130206368313A303020DF
:105B0A006368323A3030206368333A303020687341
:105B1A00636F6D20312031206368323A313020635F
:105B2A0068313A3030206368303A30302063683365
:105B3A003A3030206873636F6D20312031206368FA
:105B4A00313A3130206368303A3030206368323A73
:105B5A003030206368333A3030206873636F6D20C9
:105B6A00322032206368323A3130206368303A3169
:105B7A0030206368313A3030206368333A3030205D
:105B8A006873636F6D20322032206368303A313097
:105B9A00206368323A3130206368313A303020630A
:105BAA0068333A3030206873636F6D2032203220B8
:105BBA006368313A3130206368303A3130206368A3
:105BCA00323A3030206368333A3030206873636F7A
:105BDA006D20322032206368303A313020636831D8
:105BEA003A3130206368323A3030206368333A30D1
:105BFA0030206873636F6D20322032206368313A37
:105C0A003130206368323A3130206368303A3030BC
:105C1A00206368333A3030206873636F6D20322016
:105C2A0032206368323A3130206368313A313020A9
:105C3A006368323A3030206368333A303020687310
:105C4A00636F6D20332033206368303A313020632C
:105C5A0068313A3130206368323A31302063683330
:105C6A003A3030206873636F6D20312031206368C9
:105C7A00333A3030206368313A3030206368323A40
:0A5C8A003030206368303A303020DB
:10757B00C128440305000000004103090041030A30
:10758B0000410304014103030241030201410301D2
:01759B0000EF
:1085B7007D017BFF7E007F2602266878D67C027DC0
:1085C700017B012274DE2FF582E43401F583E0227A
:1085D70090026DE0240AF582E43402F583227D01DE
:1085E7007BFF7E00022668F0A3F0A3F0A322EF240E
:1085F70030F0AE02AF037C007D0A0226F87D017BD6
:10860700FF7E007F0E02266890023FE0900304225F
:1086170034FFFE7C007D060226F8E530F090026DFF
:0B862700E004F0227B017A0279D622E9
:1081FE0012A08DEF6401600302828C129F148F30E7
:10820E00E530B4021690023DE0701090026D04F05D
:10821E0090020AE530F090023D8014E530B403136D
:10822E00900241E0700D1285D712862190024174A2
:10823E0001F022900241E0640170341285D7E530DE
:10824E00F07B017A02790A7D04126654EF602C905D
:10825E0003007401F090020BE09002D6F0E4A3F05C
:10826E0090020CE090026FF09002FF7402F0221266
:0E827E0085D7128621E0D394084003129D3864
:01828C0022CF
:09A17C007BFF7A5A79BA029C9625
:0B98A8009003C2EBF0A3EAF0A3E9F08C
:1098B3009003C2E0FBA3E0FAA3E0F912268E60193D
:1098C3009003C2A3E475F001122763A9F0FA1226EC
:0998D3008EF564FF12000380D73A
:0198DC002269
:109D3800E490023DF0900241F090026DF090020A2A
:109D48001285EE1285EEF0A3F0A3F09002FFF0A3C7
:069D5800F09002D6F0229B
:09A18500EF6003C20122D20122A5
:0CA13B00C200C201C227E49003D9F02248
:109A60009003C5EBF0A3EAF0A3E9F020001D9003FA
:109A7000C5E0FBA3E0FAA3E0F8AC02AD037BFF7AFC
:0C9A80005A79BD122BAFEF7002D2002209
:088F19009001D4EEF0A3EFF08B
:108F21009001D4E07002A3E0603DE49001D6F0A38B
:108F3100F09001D6E0FEA3E0FFE4FCFD7B1BFAF913
:108F4100F8D312290E40109001D7E004F070E2909E
:108F510001D6E004F080DA9001D5E024FFF0900121
:078F6100D4E034FFF080B9F9
:018F680022E6
:1079BF00E49000001285EE74C8F0A37464F0129185
:1079CF002E12A0BC12A13B129D38E4FF12A09DE421
:1079DF00FF1284337F4D12512D754700754828755E
:1079EF004901754A901281FE900300E0B40106121E
:1079FF00862B1270ED900300E0B40103129D383016
:107A0F002707128A2D5002C22712A08DEF6009900E
:107A1F000003E0754300F544E54464014543700DF0
:107A2F00F543F544900004E0754100F542E54264EA
:107A3F00014541701B12932A128C95900282E0FF30
:107A4F00900280E06F600312512D75410075421452
:107A5F0090023DE0704CE54864014547702D90035E
:107A6F0001E0FF74017E00A807088005C333CE3301
:107A7F00CED8F9FF128726900301E004F075470076
:107A8F00754828E0C3940C4002E4F0E54A640145D0
:107A9F0049700C90022AF0A3F0754901754A9012B3
:087AAF009EA543E1100279F4E9
:10912E00E4F5B8F5A8F58775E127F5D0758922F530
:10913E0088129F7612A18E129E6BE4F58EF5A2D246
:10914E0099D2AF00F593F5944391035392FCF595A4
:10915E00F596F5B1F5B2F5B375B404C2E9C292C293
:0A916E0093C294C295C296C29722E4
:087C84009001DCEFF0A3EDF02C
:107C8C0078DE7C017A5A79C17F061285E59001DC99
:107C9C00E014603014604714605E14607514700357
:107CAC00027D3824056003027D51E4F5EA9001DD84
:107CBC00E0FF7004F5DA800375DA421285CBF5FA31
:107CCC00E4F5F222E4F5EB9001DDE0FF7004F5DB66
:107CDC00800375DB421285CBF5FBE4F5F322E4F56A
:107CEC00EC9001DDE0FF7004F5DC800375DC4212E2
:107CFC0085CBF5FCE4F5F422E4F5ED9001DDE0FF35
:107D0C007004F5DD800375DD421285CBF5FDE4F5DD
:107D1C00F522E4F5EE9001DDE0FF7004F5DE800362
:107D2C0075DE421285CBF5FEE4F5F622E4F5EF9014
:107D3C0001DDE0FF7004F5DF800375DF421285CBB7
:057D4C00F5FFE4F5F76E
:017D5100220F
:0FA0BC00E4F5E9F5F975D90475D84043A680227B
:05512D00900005EFF009
:1051320078067C007A5A79C712860478147C007A41
:105142005A79D512860478227C007D017BFF7A5A37
:1051520079E37E007F08122668782A7C007A5A79E1
:10516200EB7F071285E578317C007A5A79F2128555
:10517200B778577C007A5B79181285B7787D7C0006
:105182007D017BFF7A5B793E1285BB78A37C007D33
:10519200017BFF7A5B79641285BB78C97C007D0153
:1051A2007BFF7A5B798A1285BB78EF7C007D017B7D
:1051B200FF7A5B79B01285BB78157C017D017BFF9C
:1051C2007A5B79D61285BB783B7C017D017BFF7AC5
:1051D2005B79FC1285BB78617C017D017BFF7A5C87
:1051E20079221285BB78877C017D017BFF7A5C790D
:1051F200481285BB78AD7C017D017BFF7A5C796EBC
:105202001285BBE49001D3F0900005E0FE24B6FFC6
:10521200900280EEF0EF14601514601914601C14F3
:10522200602014602B2405703390030A8031E490CF
:10523200030AF0802DE4900240801990024074012C
:10524200801290023F7401F09003047404F0801203
:10525200E490023FF090030404F08006900304748B
:1052620001F090030AE064017049900240E0601B83
:1052720012860FB4010B7402F09003037404F080E1
:10528200237402F090030314F0801912860FB40104
:105292000B7404F09003037402F080087401F09020
:1052A200030304F0900304E0C454F0FF900303E00E
:1052B2004F802C900240E06005900304800C12861F
:1052C2000FB4010B7404F09003037402F0800874AD
:1052D20001F090030304F0900304E0FFC454F09043
:1052E2000309F0900302E060251294CD1285C27A80
:1052F2000079061253EB7A0079141253EB7A007993
:105302002A7E007F0712266812862B1270ED900308
:1053120009E01229DE533610536312537514533FBA
:1053220020536C21538724534840537E415390426B
:10533200000053991285C27A00793180101285C219
:105342007A00795780071285C27A00797D1285BB6F
:105352009001F47403F07B0F7D01E4FF128BCD808A
:10536200401285C27A0079A380341285C27A00790C
:10537200C9802B1285C27A0079EF80221285C27A07
:1053820001791580191285C27A01793B8010128544
:10539200C27A01796180071285C27A007931128559
:1053A200BBE4900302F012862B1270ED900309E029
:1053B2001229DE53D41053E01253E01453D6205373
:1053C200E02153E02453D84053DC4153E042000033
:1053D20053E580028000E4FF80067F0280027F01A5
:0853E2001288E99001D3E0FFFD
:1053EA00227E007F0E1226687B017A0279D612701D
:0A53FA00ED78D67C027D017B0122D4
:029A3300AB077F
:109A3500E4FFFEEBC3943D4021EBD39461501BEB57
:109A450024C3FFEE128617AA07EB24C3FFE4128690
:0A9A550017AE05AF02127C847F01FA
:019A5F0022E4
:1095CD00E4FBFAFD7F90129762EEC4F854F0C86880
:1095DD00FEEFC4540F48FFEEC4F854F0C868FAEF1C
:1095ED00C4540F48FB7C007D0AFFAE021226F89092
:0C95FD00021D1285F5ED2430900222F0D2
:01960900223E
:109EC200E4FBFAFF129DEFAA06AB071285FD900292
:0B9ED200171285F5ED2430900216F009
:019EDD002262
:10887A0090020A7402F0A37432F0A37450F0A37445
:10888A0030F0A3F0A37433F0A37420F0A37403F0C0
:10889A00E4A3F09001DCF09001DCE0FFD3940750F0
:1088AA001B900212E0FE740A2F1285DDE0FFEE6FC4
:1088BA00900212F09001DCE004F080DBE49001DC2D
:1088CA00F09001DCE0FFD394085013740A2F12854C
:0E88DA00DDE0FF1200039001DCE004F080E31B
:0188E800226D
:10002E001010FFFFFFFFFFFFFFFFFFFFFFFFFFFFB0
:10003E00FFFFFFFFFFFFFFFFFFFFFFFFFFFFFFFFC2
:10004E00FFFFFFFFFFFFFFFFFFFFFFFFFFFFFFFFB2
:10005E00FFFFFFFFFFFFFFFFFFFFFFFFFFFFFFFFA2
:10006E00FFFFFFFFFFFFFFFFFFFFFFFFFFFFFFFF92
:10007E00FFFFFFFFFFFFFFFFFFFFFFFFFFFFFFFF82
:10008E00FFFFFFFFFFFFFFFFFFFFFFFFFFFFFFFF72
:10009E00FFFFFFFFFFFFFFFFFFFFFFFFFFFFFFFF62
:1000AE00FFFFFFFFFFFFFFFFFFFFFFFFFFFFFFFF52
:1000BE00FFFFFFFFFFFFFFFFFFFFFFFFFFFFFFFF42
:1000CE00FFFFFFFFFFFFFFFFFFFFFFFFFFFFFFFF32
:1000DE00FFFFFFFFFFFFFFFFFFFFFFFFFFFFFFFF22
:1000EE00FFFFFFFFFFFFFFFFFFFFFFFFFFFFFFFF12
:1000FE00FFFFFFFFFFFFFFFFFFFFFFFFFFFFFFFF02
:10010E00FFFFFFFFFFFFFFFFFFFFFFFFFFFFFFFFF1
:10011E00FFFFFFFFFFFFFFFFFFFFFFFFFFFFFFFFE1
:10012E00FFFF1010FFFFFFFFFFFFFFFFFFFFFFFFAF
:10013E00FFFFFFFFFFFFFFFFFFFFFFFFFFFFFFFFC1
:10014E00FFFFFFFFFFFFFFFFFFFFFFFFFFFFFFFFB1
:10015E00FFFFFFFFFFFFFFFFFFFFFFFFFFFFFFFFA1
:10016E00FFFFFFFFFFFFFFFFFFFFFFFFFFFFFFFF91
:10017E00FFFFFFFFFFFFFFFFFFFFFFFFFFFFFFFF81
:10018E00FFFFFFFFFFFFFFFFFFFFFFFFFFFFFFFF71
:10019E00FFFFFFFFFFFFFFFFFFFFFFFFFFFFFFFF61
:1001AE00FFFFFFFFFFFFFFFFFFFFFFFFFFFFFFFF51
:1001BE00FFFFFFFFFFFFFFFFFFFFFFFFFFFFFFFF41
:1001CE00FFFFFFFFFFFFFFFFFFFFFFFFFFFFFFFF31
:1001DE00FFFFFFFFFFFFFFFFFFFFFFFFFFFFFFFF21
:1001EE00FFFFFFFFFFFFFFFFFFFFFFFFFFFFFFFF11
:1001FE00FFFFFFFFFFFFFFFFFFFFFFFFFFFFFFFF01
:10020E00FFFFFFFFFFFFFFFFFFFFFFFFFFFFFFFFF0
:10021E00FFFFFFFFFFFFFFFFFFFFFFFFFFFFFFFFE0
:10022E00FFFFFFFF1010FFFFFFFFFFFFFFFFFFFFAE
:10023E00FFFFFFFFFFFFFFFFFFFFFFFFFFFFFFFFC0
:10024E00FFFFFFFFFFFFFFFFFFFFFFFFFFFFFFFFB0
:10025E00FFFFFFFFFFFFFFFFFFFFFFFFFFFFFFFFA0
:10026E00FFFFFFFFFFFFFFFFFFFFFFFFFFFFFFFF90
:10027E00FFFFFFFFFFFFFFFFFFFFFFFFFFFFFFFF80
:10028E00FFFFFFFFFFFFFFFFFFFFFFFFFFFFFFFF70
:10029E00FFFFFFFFFFFFFFFFFFFFFFFFFFFFFFFF60
:1002AE00FFFFFFFFFFFFFFFFFFFFFFFFFFFFFFFF50
:1002BE00FFFFFFFFFFFFFFFFFFFFFFFFFFFFFFFF40
:1002CE00FFFFFFFFFFFFFFFFFFFFFFFFFFFFFFFF30
:1002DE00FFFFFFFFFFFFFFFFFFFFFFFFFFFFFFFF20
:1002EE00FFFFFFFFFFFFFFFFFFFFFFFFFFFFFFFF10
:1002FE00FFFFFFFFFFFFFFFFFFFFFFFFFFFFFFFF00
:10030E00FFFFFFFFFFFFFFFFFFFFFFFFFFFFFFFFEF
:10031E00FFFFFFFFFFFFFFFFFFFFFFFFFFFFFFFFDF
:10032E00FFFFFFFFFFFF1010FFFFFFFFFFFFFFFFAD
:10033E00FFFFFFFFFFFFFFFFFFFFFFFFFFFFFFFFBF
:10034E00FFFFFFFFFFFFFFFFFFFFFFFFFFFFFFFFAF
:10035E00FFFFFFFFFFFFFFFFFFFFFFFFFFFFFFFF9F
:10036E00FFFFFFFFFFFFFFFFFFFFFFFFFFFFFFFF8F
:10037E00FFFFFFFFFFFFFFFFFFFFFFFFFFFFFFFF7F
:10038E00FFFFFFFFFFFFFFFFFFFFFFFFFFFFFFFF6F
:10039E00FFFFFFFFFFFFFFFFFFFFFFFFFFFFFFFF5F
:1003AE00FFFFFFFFFFFFFFFFFFFFFFFFFFFFFFFF4F
:1003BE00FFFFFFFFFFFFFFFFFFFFFFFFFFFFFFFF3F
:1003CE00FFFFFFFFFFFFFFFFFFFFFFFFFFFFFFFF2F
:1003DE00FFFFFFFFFFFFFFFFFFFFFFFFFFFFFFFF1F
:1003EE00FFFFFFFFFFFFFFFFFFFFFFFFFFFFFFFF0F
:1003FE00FFFFFFFFFFFFFFFFFFFFFFFFFFFFFFFFFF
:10040E00FFFFFFFFFFFFFFFFFFFFFFFFFFFFFFFFEE
:10041E00FFFFFFFFFFFFFFFFFFFFFFFFFFFFFFFFDE
:10042E00FFFFFFFFFFFFFFFF1010FFFFFFFFFFFFAC
:10043E00FFFFFFFFFFFFFFFFFFFFFFFFFFFFFFFFBE
:10044E00FFFFFFFFFFFFFFFFFFFFFFFFFFFFFFFFAE
:10045E00FFFFFFFFFFFFFFFFFFFFFFFFFFFFFFFF9E
:10046E00FFFFFFFFFFFFFFFFFFFFFFFFFFFFFFFF8E
:10047E00FFFFFFFFFFFFFFFFFFFFFFFFFFFFFFFF7E
:10048E00FFFFFFFFFFFFFFFFFFFFFFFFFFFFFFFF6E
:10049E00FFFFFFFFFFFFFFFFFFFFFFFFFFFFFFFF5E
:1004AE00FFFFFFFFFFFFFFFFFFFFFFFFFFFFFFFF4E
:1004BE00FFFFFFFFFFFFFFFFFFFFFFFFFFFFFFFF3E
:1004CE00FFFFFFFFFFFFFFFFFFFFFFFFFFFFFFFF2E
:1004DE00FFFFFFFFFFFFFFFFFFFFFFFFFFFFFFFF1E
:1004EE00FFFFFFFFFFFFFFFFFFFFFFFFFFFFFFFF0E
:1004FE00FFFFFFFFFFFFFFFFFFFFFFFFFFFFFFFFFE
:10050E00FFFFFFFFFFFFFFFFFFFFFFFFFFFFFFFFED
:10051E00FFFFFFFFFFFFFFFFFFFFFFFFFFFFFFFFDD
:10052E00FFFFFFFFFFFFFFFFFFFF1010FFFFFFFFAB
:10053E00FFFF00000000FFFFFFFFFFFFFFFFFFFFB9
:10054E00FF000000000000FFFFFFFFFFFFFFFFFFA7
:10055E000000020202020000FFFFFFFFFFFFFFFF8D
:10056E000000020202020000FFFFFFFFFFFFFF007C
:10057E00000202000002020000FFFFFFFFFFFF006B
:10058E00000202000002020000FFFFFFFFFF00005A
:10059E0002020000000002020000FFFFFFFF000049
:1005AE00020200FFFF0002020000FFFFFF00000238
:1005BE00020000FFFF000002020000FFFF00000229
:1005CE000200000000000002020000FF0000020214
:1005DE0002020202020202020202000000000202F5
:1005EE0002020202020202020202000000000202E5
:1005FE0000000000000000000202000000000202E5
:10060E000000FFFFFFFF00000202000000000202D8
:10061E000000FFFFFFFF00000202000000000000CC
:10062E000000FFFFFFFF00000000000010100000A0
:10063E00000000000000000000000000FFFF0002AC
:10064E0002020202020202020202000000FF000287
:10065E000202020202020202020202000000000076
:10066E000002020000000000020202020000FF0071
:10067E0000020200FFFFFF00000202020000FF0066
:10068E0000020200FFFFFF00000202020000FF0056
:10069E0000020200000000000202020000FFFF0044
:1006AE00000202020202020202020000FFFFFF002D
:1006BE00000202020202020202020000FFFFFF001D
:1006CE0000020200000000000202020000FFFF0014
:1006DE0000020200FFFFFF00000202020000FF0006
:1006EE0000020200FFFFFF000002020200000000F5
:1006FE0000020200000000000202020200000002DE
:10070E0002020202020202020202020000000002C3
:10071E0002020202020202020202000000FF0000B8
:10072E00000000000000000000000000FFFF10109D
:10073E00FFFFFF00000000000000000000FFFFFFB1
:10074E00FFFF00000202020202020202000000FF8E
:10075E00FF00000202020202020202020200000078
:10076E000000000202000000000000020202000071
:10077E0000000202020000FFFFFF00000202000064
:10078E00000002020000FFFFFFFFFF000202000058
:10079E00000002020000FFFFFFFFFFFF000000004D
:1007AE00000002020000FFFFFFFFFFFFFFFFFFFF41
:1007BE00000002020000FFFFFFFFFFFFFFFFFFFF31
:1007CE00000002020000FFFFFFFFFF00000000001C
:1007DE00000002020000FFFFFFFFFF000202000008
:1007EE0000000202000000FFFFFF000002020000F6
:1007FE0000000202020000000000000202020000DF
:10080E00FF000002020202020202020202000000C7
:10081E00FFFF00000202020202020202000000FFBD
:10082E00FFFFFF0000000000000000000000FFFFBF
:10083E001010000000000000000000000000FFFF8C
:10084E00FFFF00000202020202020202020000FF8B
:10085E00FFFF000002020202020202020202000078
:10086E00FFFF000002020000000000020202000072
:10087E00FFFF000002020000FFFF00000202000066
:10088E00FFFF000002020000FFFF00000202000056
:10089E00FFFF000002020000000000020202000042
:1008AE00FFFF00000202020202020202020000FF2B
:1008BE00FFFF00000202020202020202000000FF1D
:1008CE00FFFF000002020000020202000000FFFF14
:1008DE00FFFF000002020000000202020000FFFF04
:1008EE00FFFF00000202000000000202020000FFF3
:1008FE00FFFF000002020000FF00000202020000E3
:10090E00FFFF000002020000FFFF000002020200D3
:10091E0000FF000002020000FFFFFF0000020202C3
:10092E0000FF000000000000FFFFFFFF00000000BE
:10093E0000FF101000000000FFFFFFFFFFFFFFFF92
:10094E00000000000000000000FFFFFFFFFFFF009F
:10095E000000000000000C0C0000FFFFFFFF000075
:10096E000C0C000000000C0C0C0000000000000C31
:10097E000C0C000000000C0C0C0C000000000C0C09
:10098E000C0C000000000C0C0C0C0C0C0C0C0C0CC9
:10099E000C0C000000000C0C0C0C0C0C0C0C0C0CB9
:1009AE000C0C000000000C0C0C000C0C0C0C000CC1
:1009BE000C0C000000000C0C0C00000C0C00000CC9
:1009CE000C0C000000000C0C0C0000000000000CD1
:1009DE000C0C000000000C0C0C0000000000000CC1
:1009EE000C0C000000000C0C0C0000FFFF00000CB3
:1009FE000C0C000000000C0C0C0000FFFF00000CA3
:100A0E000C0C000000000C0C0C0000FFFF00000C92
:100A1E000C0C000000000C0C0C0000FFFF00000C82
:100A2E000C0C000000000000000000FFFF000000A2
:100A3E00000000001010FF00000000000000000089
:100A4E000000000000FFFF0000020202020202028C
:100A5E000202020000FFFF00000202020202020276
:100A6E000202020000FFFF00000000000000020270
:100A7E000200000000FFFFFFFFFFFFFF0000020269
:100A8E00020000FFFFFFFFFFFFFFFFFF000002025B
:100A9E00020000FFFFFFFFFFFFFFFFFF000002024B
:100AAE00020000FFFFFFFFFFFFFFFFFF000002023B
:100ABE00020000FFFFFFFFFFFFFFFFFF000002022B
:100ACE00020000FFFFFFFFFFFFFFFFFF000002021B
:100ADE00020000FFFFFFFF00000000FF0000020207
:100AEE00020000FFFFFFFF000202000000000202F2
:100AFE00020000FFFFFFFF000202020000020202DE
:100B0E00020000FFFFFFFF000002020202020202CB
:100B1E00000000FFFFFFFFFF0000020202020200C2
:100B2E000000FFFFFFFFFFFFFF00000000000000BE
:100B3E0000FFFFFFFFFF1010FFFFFFFFFFFFFFFF94
:100B4E00FFFFFFFFFFFFFFFFFFFFFFFFFF000000A4
:100B5E0000000000FFFFFFFFFFFFFFFF000001018D
:100B6E0001010000FFFFFFFFFFFFFF000001010179
:100B7E0001010000FFFFFFFFFFFF00000101010167
:100B8E00010000FFFFFFFFFFFF0000010101010157
:100B9E000000000000000000000001010101010141
:100BAE00010101010101000000010101010101012A
:100BBE00010101010101000000010101010101011A
:100BCE00010101010101000000000101010101010B
:100BDE000101010101010000FF00000101010101FD
:100BEE000000000000000000FFFF000001010101F5
:100BFE00010000FFFFFFFFFFFFFFFF0000010101EB
:100C0E0001010000FFFFFFFFFFFFFFFF00000101DA
:100C1E0001010000FFFFFFFFFFFFFFFFFF000000CD
:100C2E0000000000FFFFFFFFFFFFFFFFFFFFFFFFC2
:100C3E00FFFFFFFFFFFFFFFF1010FFFFFFFFFFFF94
:100C4E00FFFFFFFFFFFFFFFFFFFFFFFFFFFF0000A4
:100C5E000000000000FFFFFFFFFFFFFFFFFF00008F
:100C6E00010101010000FFFFFFFFFFFFFFFF00007A
:100C7E0001010101010000FFFFFFFFFFFFFFFF0069
:100C8E000001010101010000FFFF00000000000053
:100C9E00000001010101010000FF0000010101013E
:100CAE00010101010101010100000000010101012A
:100CBE000101010101010101010000000101010119
:100CCE00010101010101010101000000000000000D
:100CDE00000001010101010000FF00000000000002
:100CEE00000001010101010000FFFFFFFFFFFF00F7
:100CFE000001010101010000FFFFFFFFFFFF0000E7
:100D0E0001010101010000FFFFFFFFFFFFFF0000D7
:100D1E00010101010000FFFFFFFFFFFFFFFF0000C9
:100D2E000000000000FFFFFFFFFFFFFFFFFFFFFFC0
:100D3E00FFFFFFFFFFFFFFFFFFFF1010FFFFFFFF93
:100D4E000000000000000000FFFFFFFFFFFFFFFF9D
:100D5E000000010101010000FFFFFFFFFFFFFFFF89
:100D6E000000010101010000FFFFFFFFFFFFFFFF79
:100D7E000000010101010000FFFFFFFFFFFFFFFF69
:100D8E000000010101010000FFFFFFFF0000000055
:100D9E00000001010101000000000000000001013F
:100DAE00000001010101000001010000000001012D
:100DBE00010001010101000101010000000001011B
:100DCE000101010101010101010100000000010109
:100DDE00010101010101010101010000FF000001FB
:100DEE000101010101010101010000FFFFFF0000EF
:100DFE0001010101010101010000FFFFFFFFFF00E2
:100E0E00000101010101010000FFFFFFFFFFFFFFD5
:100E1E000000010101010000FFFFFFFFFFFFFFFFC8
:100E2E00FF000001010000FFFFFFFFFFFFFFFFFFBC
:100E3E00FFFF00000000FFFFFFFFFFFF1010FFFF8E
:100E4E00FFFFFFFFFFFF0000000000000000FFFF9C
:100E5E00FFFFFFFFFF000002020202020000FFFF81
:100E6E00FFFFFFFF00000202020202020000FFFF6E
:100E7E00FFFFFF000002020200000202000000005D
:100E8E00000000000202020000000202000000004A
:100E9E000202020202020200FF0002020000000033
:100EAE000202020202020200FF0002020000000023
:100EBE000202000000020200FF0002020000000019
:100ECE00020200FF00020200FF000202000000000A
:100EDE000202000000020200FF00020200000000F9
:100EEE000202020202020200FF00020200000000E3
:100EFE0002020202020202000000020200000000D2
:100F0E000000000000020202000002020000FFFFCB
:100F1E00FFFFFFFF00000202020202020000FFFFBD
:100F2E00FFFFFFFFFF000002020202020000FFFFB0
:100F3E00FFFFFFFFFFFF0000000000000000101089
:100F4E000000000000FFFFFFFFFFFF000000000099
:100F5E000001010100FFFFFFFFFFFF000101010083
:100F6E000001010100FFFFFFFFFFFF000101010073
:100F7E000001010100FFFFFFFFFFFF000101010063
:100F8E000001010100FFFFFFFFFFFF000101010053
:100F9E00000101010000FFFFFFFF00000101010041
:100FAE00000101010100FFFFFFFF0001010101002F
:100FBE00000001010100FFFFFFFF00010101000021
:100FCE0000000101010000FFFF000001010100000F
:100FDE00FF0000010101000000000101010000FFFF
:100FEE00FFFF000001010100000101010000FFFFF1
:100FFE00FFFF000000010100000101000000FFFFE3
:10100E00FFFFFF00000101010101010000FFFFFFD2
:10101E00FFFFFFFF0000010101010000FFFFFFFFC6
:10102E00FFFFFFFFFF00000101000000FFFFFFFFB9
:10103E00FFFFFFFFFFFF0000000000FFFFFFFFFFAD
:10104E00101000000000000000FFFFFFFFFFFFFF79
:10105E00FFFF00000101010000FFFFFFFFFFFFFF88
:10106E00FFFF00000101010000FFFFFFFFFFFFFF78
:10107E00FFFF00000101010000FFFFFFFFFFFFFF68
:10108E00FFFF00000101010000FFFFFFFFFFFFFF58
:10109E00FFFF00000101010000FFFFFFFFFFFFFF48
:1010AE00FFFF00000101010000FFFFFFFFFFFFFF38
:1010BE00FFFF00000101010000FFFFFFFFFFFFFF28
:1010CE00FFFF00000101010000FFFFFFFFFFFFFF18
:1010DE00FFFF00000101010000FFFFFFFFFF000006
:1010EE00000000000101010000FFFFFFFFFF0000F4
:1010FE00000000000101010000FFFFFFFF000001E2
:10110E0000000000010101000000000000000101CC
:10111E0000000000010101010101010101010101B5
:10112E0000000000010101010101010101010101A5
:10113E0000000000000000000000000000000000A1
:10114E0000001010FFFFFFFFFFFFFFFFFFFFFFFF7D
:10115E00FFFFFFFFFFFFFFFFFFFFFFFFFFFFFFFF91
:10116E00FFFFFFFFFFFFFFFFFFFFFFFFFFFFFFFF81
:10117E00FFFFFFFFFFFFFFFF00000000000000FF6A
:10118E00FFFFFFFFFFFFFF00000001010100000055
:10119E00FFFFFFFFFFFF0000010101010101010040
:1011AE0000FFFFFFFF00000101010000000101012F
:1011BE000000FFFF00000001010000FF0000010120
:1011CE00000000FF00000101010000FF000001010E
:1011DE00010000FF00000101010000FF00000101FD
:1011EE00010000FF00000101010000FF00000101ED
:1011FE00010000FF00000001010000FF00000101DE
:10120E00000000FFFF0000010101000000010101CC
:10121E000000FFFFFFFF00000101010101010100BD
:10122E0000FFFFFFFFFFFF000000010101000000B3
:10123E00FFFFFFFFFFFFFFFF00000000000000FFA9
:10124E00FFFFFFFF1010FFFFFFFFFFFFFFFFFFFF7E
:10125E00FFFFFFFFFFFFFFFFFFFF0000000000008A
:10126E000000FFFFFFFFFFFF00000000020202026E
:10127E00000000FFFFFFFF00000002020202020258
:10128E0002020000FFFFFF00000202020000000049
:10129E000202020000FFFF00000202020000FF0037
:1012AE000000000000FFFF0000000202020200002A
:1012BE000000FFFFFFFFFFFFFF000002020202021D
:1012CE00020000FFFFFFFFFFFFFF00000000020211
:1012DE0002020000FFFFFF0000000000FFFF000001
:1012EE000202020000FFFF000002020200000000E6
:1012FE000202020000FFFF000000020202020202D0
:10130E0002020000FFFFFFFFFF00000002020202C8
:10131E00000000FFFFFFFFFFFFFFFF0000000000C7
:10132E000000FFFFFFFFFFFFFFFFFFFFFFFFFFFFBD
:10133E00FFFFFFFFFFFFFFFFFFFFFFFFFFFFFFFFAF
:10134E00FFFFFFFFFFFF1010FFFFFFFFFFFFFFFF7D
:10135E00FFFFFFFFFFFFFFFFFFFFFFFFFFFFFFFF8F
:10136E00FFFFFFFFFFFFFFFFFFFFFFFFFFFFFFFF7F
:10137E00FFFFFFFFFFFFFFFFFFFFFFFFFFFFFFFF6F
:10138E00FFFFFFFFFFFFFFFFFFFFFFFFFFFFFFFF5F
:10139E00FFFFFFFFFFFFFFFFFFFFFFFFFFFFFFFF4F
:1013AE00FFFFFFFFFFFFFFFFFFFFFFFFFFFFFFFF3F
:1013BE00FFFFFFFFFFFFFFFFFFFFFFFFFFFFFFFF2F
:1013CE00FFFFFFFFFFFFFFFF1010FFFFFFFFFFFFFD
:1013DE00FFFFFFFFFFFFFFFFFFFFFFFFFFFFFFFF0F
:1013EE00FFFFFFFFFFFFFFFFFFFFFFFFFFFFFFFFFF
:1013FE00FFFFFFFFFFFFFFFFFFFFFFFFFFFFFFFFEF
:10140E00FFFFFFFFFFFFFFFFFFFFFFFFFFFFFFFFDE
:10141E00FFFFFFFFFFFFFFFFFFFFFFFFFFFFFFFFCE
:10142E00FFFFFFFFFFFFFFFFFFFFFFFFFFFFFFFFBE
:10143E00FFFFFFFFFFFFFFFFFFFFFFFFFFFFFFFFAE
:10144E00FFFFFFFFFFFFFFFFFFFF1010FFFFFFFF7C
:10145E00FFFFFFFFFFFFFFFFFFFFFFFFFFFFFFFF8E
:10146E00FFFFFFFFFFFFFFFFFFFFFFFFFFFFFFFF7E
:10147E00FFFFFFFFFFFFFFFFFFFFFFFFFFFFFFFF6E
:10148E00FFFFFFFFFFFFFFFFFFFFFFFFFFFFFFFF5E
:10149E00FFFFFFFFFFFFFFFFFFFFFFFFFFFFFFFF4E
:1014AE00FFFFFFFFFFFFFFFFFFFFFFFFFFFFFFFF3E
:1014BE00FFFFFFFFFFFFFFFFFFFFFFFFFFFFFFFF2E
:1014CE00FFFFFFFFFFFFFFFFFFFFFFFF1010FFFFFC
:1014DE00FFFFFFFFFFFFFFFFFFFFFFFFFFFFFFFF0E
:1014EE00FFFFFFFFFFFFFFFFFFFFFFFFFFFFFFFFFE
:1014FE00FFFFFFFFFFFFFFFFFFFFFFFFFFFFFFFFEE
:10150E00FFFFFFFFFFFFFFFFFFFFFFFFFFFFFFFFDD
:10151E00FFFFFFFFFFFFFFFFFFFFFFFFFFFFFFFFCD
:10152E00FFFFFFFFFFFFFFFFFFFFFFFFFFFFFFFFBD
:10153E00FFFFFFFFFFFFFFFFFFFFFFFFFFFFFFFFAD
:10154E00FFFFFFFFFFFFFFFFFFFFFFFFFFFF10107B
:10155E00FFFFFFFFFFFFFFFFFFFFFFFFFFFFFFFF8D
:10156E00FFFFFFFFFFFFFFFFFFFFFFFFFFFFFFFF7D
:10157E00FFFFFFFFFFFFFFFFFFFFFFFFFFFFFFFF6D
:10158E00FFFFFFFFFFFFFFFFFFFFFFFFFFFFFFFF5D
:10159E00FFFFFFFFFFFFFFFFFFFFFFFFFFFFFFFF4D
:1015AE00FFFFFFFFFFFFFFFFFFFFFFFFFFFFFFFF3D
:1015BE00FFFFFFFFFFFFFFFFFFFFFFFFFFFFFFFF2D
:1015CE00FFFFFFFFFFFFFFFFFFFFFFFFFFFFFFFF1D
:1015DE001010FFFFFF0000FFFFFFFFFFF000000FE6
:1015EE00FFFFFFFF00222200FFFFFFFF002222006D
:1015FE00FFFFFFF0022002200FFFFFF0022002206B
:10160E000FFFFF002200002200FFFF00220FF0223A
:10161E0000FFF002200FF002200FF0022000000267
:10162E00200F002222222222220000222222222207
:10163E0022000022000000002200002200FFFF0016
:10164E002200002200FFFF002200000000FFFF002A
:10165E000000101000000000000000FF02222222F5
:10166E002222000F0222222222222000000220002B
:10167E0000222200F00220FFF0022200F00220FFE2
:10168E00F0022200F00220000022200FF00222229F
:10169E00222200FFF0022222222200FFF00220006E
:1016AE000022200FF00220FFF0022200F00220FFA5
:1016BE00F00222000002200000222200022222223A
:1016CE0022222000022222222222000F00000000ED
:1016DE00000000FF1010101010101010101010103D
:0A16EE001010101010101010101052
:1096BC001226A7FF9003D8E02F9001F4F02290011E
:1096CC00EEE0FBA3E0FAA3E0F922F09001EEE0FB60
:1096DC00A3E475F001122763A9F0FA02268E90011B
:0896EC00E5E0D36480948022C4
:06A1D400E49003D8F02224
:06A1DA009003D8EFF02213
:0B61BE009001E6EFF0A3ECF0A3EDF081
:1061C9009001E6E0FF25E0F0E02408F09001EDF011
:1061D9009001E7E0FEA3E07803C333CE33CED8F9CC
:1061E900F0EE9001E7F0A3E02408F09001E7E03435
:1061F90000F0AF037E007C017D021226E6742E2F8B
:10620900F974003EFA9001EE74FFF0A3EAF0A3E9F5
:106219001296D69001E91296D69001EAF0E4A3F01D
:106229009001E9E0FF9001EBE0C39F4003026305A1
:10623900E4A3F09001EAE0FF9001ECE0C39F400382
:106249000262E61296CA12268E1296BFE4FB7D02FE
:10625900FF128BCD1296CA9000011296BC7B0112D7
:10626900632F9000021296BC7B0212632F900003E9
:106279001296BC7B031263429001F47480F07B0494
:106289001263429001EFE475F00412274D9001ED7D
:10629900E09001F4F07B0512634AA3E09001F4F069
:1062A9007B0712634AE07E007802C333CE33CED82F
:1062B900F912630612635520E7FA9001E7E025E039
:1062C90025E0440812630612635520E7FA9001EDB0
:1062D900E004F09001ECE02404F002623C9001E655
:1062E900E09001EDF09001E8E004F070069001E71C
:0C62F900E004F09001EBE004F0026229E8
:10630500229001F4F07B097D02E4FF128BCD7B0A1C
:106315007D02E4FF1283A7EF543F44809001F4F01F
:106325007B0A7D02E4FF128BCD227D02E4FF128BF6
:10633500CD9001EEE0FBA3E0FAA3E0F9227D02E4B3
:10634500FF128BCD227D02E4FF128BCD9001E72257
:0B6355007B0A7D02E4FF1283A7EF2209
:0B8D59009001DFEFF0A3EDF0A3EBF0C2
:108D6400A31296CD129FB89001E5EFF0C3648094EE
:108D74008040429001DFE030E0339001E0E0FFA367
:108D8400E0FD7C00A31296CD12268EFB1261BE90EC
:108D940001E5E014F09001E3E475F00112274D9031
:108DA40001E0E02402F01296EA50CF80051296EA20
:058DB40050FB12A1F8C4
:018DB9002297
:109DCF000500000600000700000800000900000A57
:109DDF00000012000020000B000C000D000E000010
:03759C00012100CA
:107E0C00900359E075F003A424CFF9749D35F0FA72
:107E1C009001E274FFF0A3229001DCE0FBA3E0FAF6
:107E2C00A3E0F922900359E0FF74017E00A8070833
:107E3C0022FF900366E0FDEF5D22749DF0A374EECB
:107E4C00F0229000010226A7749DF0A374DBF022AF
:107E5C00749DF0A374ECF022EAF0A3E9F0E4FB22A9
:107E6C009000020226A712268E540C1313543FF5D1
:107E7C003022EAF0A3E9F07B12227B017D127C0018
:107E8C00227D197B057C007F3A22EBF0A3EAF0A35C
:107E9C00E9F0229000030226A77B017D0F7C0022D3
:107EAC00EAF0A3E9F07B0F227B01E4FDFC7F1C22AE
:087EBC007B01E4FDFC7F412283
:108FB600126FB312A1D47F0412A1F27F0312A1F59E
:108FC600E4F530AF30128FEC0530E530C39406403F
:108FD600F27F011297D07FFF12A1F57F08128FEC66
:058FE600E4900356F0C9
:108FEB0022129E0F9001E0E4F0A37426F07B5AE46A
:078FFB00FDFCFF127F7A224A
:104400009001DC127E967F0212A1F27FFF12A1F5CD
:10441000900358E01229DE44451144542144882277
:1044200044BC3144FA3345353445704145C091456B
:10443000D7A14603A2462CB14671B346B2B446F4A6
:10444000C100004751127E2412268E20E10302474C
:10445000510245CC127E2412268E30E10D127E0CC4
:10446000127E647DFF7F01128D59127E24127E4ED2
:1044700020E10302475190035A127E0FEAF0A3E9AC
:10448000F07B1D7D5D02474C127E2412268E30E1AA
:1044900011127E0CEAF0A3E9F07B0E7D487F011239
:1044A0008D59127E24127E4E20E103024751900363
:1044B0005A127E0F127E647D1402474C127E241223
:1044C000268E30E109127E0C127E6412479E127E07
:1044D00024127E4E30E10990035A127E0F12477F5C
:1044E000127E24127E6C20E10302475190035B127E
:1044F0007E0F127EAC7D3E02474C127E2412268E29
:1045000030E106127E0C124752127E24127E4E308B
:10451000E10990035A127E0F124770127E24127E18
:104520006C20E10302475190035B127E0F127EACB8
:104530007D3E02474C127E2412268E30E106127E0A
:104540000C124752127E24127E4E30E10990035A1B
:10455000127E0F124770127E24127E6C20E103023D
:10456000475190035B127E0F127EAC7D1402474CC4
:10457000127E2412268E30E106127E0C1247611242
:104580007E24127E4E30E10C90035A127E0F127E72
:1045900064124796127E24127E6C30E10990035B10
:1045A000127E0F12477F127E24127E9F20E10302AB
:1045B000475190035C127E0F127EAC7D3E02474C49
:1045C000127E2412268E20E103024751127E0C1225
:1045D0007E647D2902474C127E2412268E30E1092A
:1045E000127E0C127E6412479E127E24127E4E2092
:1045F000E10302475190035A127E0F127E7E7D29FD
:1046000002474C127E2412268E30E106127E0C12D6
:104610004761127E24127E4E20E10302475190032F
:104620005A127E0F127E647D3E02474C127E241287
:10463000268E30E10D127E0C127E647D297F0112E0
:104640008D59127E24127E4E30E10C90035A127E58
:104650000F127E7E12478E127E24127E6C20E103A2
:1046600002475190035B127E0F127E7E7D3E024711
:104670004C127E2412268E30E109127E0C127E64CA
:1046800012478E127E24127E4E30E10C90035A1295
:104690007E0F127E64124796127E24127E6C20E1F9
:1046A0000302475190035B127E0F127E7E7D3E0215
:1046B000474C127E2412268E30E109127E0C127EA7
:1046C000641247A6127E24127E4E30E11090035AE7
:1046D000127E0F127E647D3E7F01128D59127E2460
:1046E000127E6C30E16B90035B127E0F127E7E7D3A
:1046F0001402474C127E2412268E30E109127E0CE1
:10470000127E641247A6127E24127E4E30E1109073
:10471000035A127E0F127E647D3E7F01128D591264
:104720007E24127E6C30E11090035B127E0F127EAD
:104730007E7D147F01128D59127E24127E9F30E1FE
:104740001090035C127E0F127E7E7D3E7F01128DE3
:104750005922EAF0A3E9F0E4FB7D147F01128D59A0
:1047600022EAF0A3E9F0E4FB7D147F01128D5922C7
:10477000EAF0A3E9F0E4FB7D3E7F01128D5922EAC5
:10478000F0A3E9F07B0F7D147F01128D59227D1477
:104790007F01128D59227D3E7F01128D59227D2984
:0E47A0007F01128D59227D147F01128D592246
:08A1C400900357E04480F022F3
:10932A007B787D01E4FF1283A7EF540FFF90036659
:10933A00F0900357E06F602ED2277B31E4FDFF12D5
:10934A0083A7EF547F9001F4F07B31E4FDFF128B89
:10935A00CD7F4D12A1F27F4012A1DA12A1D490035F
:07936A0066E0900357F022BA
:06692A009001DC127E96D4
:106930007F4112A1F2900358E01229DE69641169C7
:10694000752169A92269E0316A03336A20346964D8
:10695000916975A169A9A269E0B16A03B36A20B41B
:1069600000006A5D9001DC127E27127E72600302D5
:1069700069EB0269F99001DC127E27127E726012C7
:10698000126A5E127E1B127E647D1C7F01128D597D
:106990008006127EB4127EC49001DC127E27127E25
:1069A0004E127E756037026A2E9001DC127E27122D
:1069B0007E726012126A5E127E1B127E647D1C7FE4
:1069C00001128D598006127EB4127EC49001DC1231
:1069D0007E27127E4E127E756003026A2E026A5373
:1069E0009001DC127E27127E72600E126A77127E90
:1069F0001B127E647D31026A4E7B01E4FDFC7F3117
:106A0000026A5A9001DC127E27127E72600D126AB1
:106A100077127E1B127E647D1C8033127EB4803A16
:106A20009001DC127E27127E4E127E7560257B025D
:106A3000E4FDFCFF127EC4E53025E0FFE433FE7484
:106A4000E42FF9749D3E127E1B127E647D467F0109
:0D6A5000028D597B01E4FDFC7F46127EC4DF
:106A5D00227B02E4FDFCFF127EC4E53025E0FFE45D
:106A6D0033FE74E42FF9749D3E227B02E4FDFCFF9E
:106A7D00127EC4E53025E0FFE433FE74E42FF97493
:036A8D009D3E2209
:10321F009001DC127E967F0C12A1F2900358E012FF
:10322F0029DE325F11327121329D2232C6313311C4
:10323F003333543433A341341191342EA13469A262
:10324F0034A2B134FFB33554B435AFC100003628C2
:10325F009001DC127E2712268E30E00302341D020D
:10326F0034279001DC127E2712268E30E00B127E5F
:10327F001C127E541236AB80031236809001DC1282
:10328F007E27127E4E30E0030234540234619001E7
:10329F00DC127E2712268E30E008127E1C12362991
:1032AF00800312364B9001DC127E27127E4E30E0E7
:1032BF000302348F02349C9001DC127E2712268E7B
:1032CF0030E00B127E1C127E541236AB8003123686
:1032DF00809001DC127E27127E4E30E00B127E1C96
:1032EF00127E541236D58008127EA57F17127EC427
:1032FF009001DC127E27127E6C30E0030233FF0256
:10330F00340A9001DC127E2712268E30E008127EDE
:10331F001C123629800312364B9001DC127E2712C5
:10332F007E4E30E00B127E1C127E541236968003B6
:10333F001236569001DC127E27127E6C30E00302AB
:10334F0033FF02340A9001DC127E2712268E30E002
:10335F0008127E1C12363A80031236619001DC127D
:10336F007E27127E4E30E00B127E1C127E541236D8
:10337F009680031236569001DC127E27127E6C3037
:10338F00E00B127E1C127E547B0F02359F7B017D5A
:10339F000F0235A89001DC127E2712268E30E0082E
:1033AF00127E1C12363A80031236619001DC127EB7
:1033BF0027127E4E30E00B127E1C127E541236C046
:1033CF00800312368B9001DC127E27127E6C30E068
:1033DF000B127E1C127E541236D58008127EA57FEA
:1033EF0017127EC49001DC127E27127E9F30E00BF5
:1033FF00127E1C127E547B0F0234977B017D0F02CD
:10340F0034F89001DC127E2712268E30E00A127EED
:10341F001C127E54E4FB80357B01E4FDFC8036906A
:10342F0001DC127E2712268E30E00B127E1C127EDC
:10343F00541236DF80031236B59001DC127E27124C
:10344F007E4E30E00D127E1C127E547B0F7D2C02BF
:10345F00361B127EA57F2C0236259001DC127E27AB
:10346F0012268E30E00B127E1C127E5412366C80A8
:10347F00031236A09001DC127E27127E4E30E00D33
:10348F00127E1C127E54E4FB7D4102361B127EBC61
:10349F000236259001DC127E2712268E30E00B12A9
:1034AF007E1C127E541236DF80031236B59001DC7B
:1034BF00127E27127E4E30E00B127E1C127E5412AB
:1034CF0036E98008127E867F17127EC49001DC12C7
:1034DF007E27127E6C30E00D127E1C127E547B1202
:1034EF007D4102361B7B017D127C007F4102362518
:1034FF009001DC127E2712268E30E00B127E1C12FA
:10350F007E5412366C80031236A09001DC127E2797
:10351F00127E4E30E00B127E1C127E541236C0808B
:10352F000312368B9001DC127E27127E6C30E00D79
:10353F00127E1C127E547B127D4102361B127E8638
:10354F007F410236259001DC127E2712268E30E055
:10355F000B127E1C127E5412367680031236CA90DE
:10356F0001DC127E27127E4E30E00B127E1C127E83
:10357F00541236F38006127EBC127EC49001DC1208
:10358F007E27127E6C30E00D127E1C127E547B1251
:10359F007D1702361B7B017D127C007F17023625BB
:1035AF009001DC127E2712268E30E00B127E1C1249
:1035BF007E5412367680031236CA9001DC127E27B3
:1035CF00127E4E30E00B127E1C127E541236F380A8
:1035DF0006127EBC127EC49001DC127E27127E6C16
:1035EF0030E00B127E1C127E541236E98008127ED8
:1035FF00867F17127EC49001DC127E27127E9F30C9
:10360F00E00F127E1C127E547B127D417F01028DD2
:10361F0059127E867F41127EC422749DF0A374DB03
:10362F00F0E4FB7D177F01128D5922749DF0A37476
:10363F00DBF0E4FB7D177F01128D59227B01E4FD46
:10364F00FC7F17127EC4227B01E4FDFC7F41127EBA
:10365F00C4227B01E4FDFC7F17127EC422E4FB7DB4
:10366F00177F01128D5922E4FB7D177F01128D59AF
:10367F00227B01E4FDFC7F2C127EC4227B01E4FD42
:10368F00FC7F41127EC422E4FB7D417F01128D59E4
:10369F00227B01E4FDFC7F17127EC422E4FB7D2C0C
:1036AF007F01128D59227B01E4FDFC7F2C127EC419
:1036BF0022E4FB7D417F01128D59227B01E4FDFC49
:1036CF007F17127EC4227B0F7D177F01128D592227
:1036DF00E4FB7D2C7F01128D59227B127D177F0118
:0E36EF00128D5922E4FB7D417F01128D59227C
:1036FD009003C8127E967F0212A1F2900358E01239
:10370D0029DE373A11374C21377B2237A43137EF79
:10371D003338323438814138EF913912A2394FB1F3
:10372D0039B9B33A0EB43A66C100003ADC9003C819
:10373D00127E2712268E30E4030238FB02390890E0
:10374D0003C8127E2712268E30E40B127E1C127EC9
:10375D005C123B748003123B549003C8127E2712F7
:10376D00268E30E4030238FB127EA502390D90033C
:10377D00C8127E2712268E30E408127E1C123ADD06
:10378D008003123AFF9003C8127E27127E4E30E45A
:10379D00030239380239459003C8127E2712268E4E
:1037AD0030E40B127E1C127E5C123B748003123BC4
:1037BD00549003C8127E27127E4E30E40B127E1CED
:1037CD00127E5C123B7E8008127EA57F1F127EC486
:1037DD009003C8127E27127E6C30E4030238DD029E
:1037ED0038E89003C8127E2712268E30E408127E28
:1037FD001C123ADD8003123AFF9003C8127E271285
:10380D007E4E30E40B127E1C127E5C123B4A80030E
:10381D00123B0A9003C8127E27127E6C30E403021D
:10382D0038DD0238E89003C8127E2712268E30E468
:10383D0008127E1C123AEE8003123B159003C8123B
:10384D007E27127E4E30E40B127E1C127E5C123BE4
:10385D004A8003123B0A9003C8127E27127E6C30F9
:10386D00E40B127E1C127E5C7B0F023A567B017DAF
:10387D000F023A5F9003C8127E2712268E30E4089D
:10388D00127E1C123AEE8003123B159003C8127E75
:10389D0027127E4E30E40B127E1C127E5C123B5FB3
:1038AD008003123B349003C8127E27127E6C30E4E5
:1038BD000B127E1C127E5C123B7E8008127EA57F51
:1038CD001F127EC49003C8127E27127E9F30E40B18
:1038DD00127E1C127E5C7B0F0239407B017D0F0234
:1038ED0039B29003C8127E2712268E30E40D127E57
:1038FD001C127E5CE4FB7D34023ACF7B01E4FDFCBF
:10390D007F34023AD99003C8127E2712268E30E4F6
:10391D000B127E1C127E5C123B208003123B3F90EB
:10392D0003C8127E27127E4E30E40D127E1C127ECD
:10393D005CE4FB7D49023ACF7B01E4FDFC7F49024B
:10394D003AD99003C8127E2712268E30E411127ECA
:10395D001C127E5CE4FB7D347F01128D59800A7B45
:10396D0001E4FDFC7F34127EC49003C8127E271241
:10397D007E4E30E40B127E1C127E5C123B9D800845
:10398D00127E867F1F127EC49003C8127E27127E80
:10399D006C30E40D127E1C127E5C7B127D49023A66
:1039AD00CF7B017D127C007F49023AD99003C8126A
:1039BD007E2712268E30E40B127E1C127E5C123B8B
:1039CD00208003123B3F9003C8127E27127E4E309B
:1039DD00E40B127E1C127E5C123B5F8003123B34A3
:1039ED009003C8127E27127E6C30E40D127E1C12DD
:1039FD007E5C7B127D49023ACF127E867F49023A68
:103A0D00D99003C8127E2712268E30E40B127E1C2D
:103A1D00127E5C123B2A8003123B699003C8127E12
:103A2D0027127E4E30E40B127E1C127E5C123B93ED
:103A3D008003123B889003C8127E27127E6C30E4FF
:103A4D000D127E1C127E5C7B127D1F023ACF7B0114
:103A5D007D127C007F1F023AD99003C8127E271277
:103A6D00268E30E40B127E1C127E5C123B2A8003E4
:103A7D00123B699003C8127E27127E4E30E40B1262
:103A8D007E1C127E5C123B938003123B889003C810
:103A9D00127E27127E6C30E40B127E1C127E5C129D
:103AAD003B9D8008127E867F1F127EC49003C81234
:103ABD007E27127E9F30E40F127E1C127E5C7B12DD
:103ACD007D497F01028D59127E867F49127EC42267
:103ADD00749DF0A374ECF0E4FB7D1F7F01128D59F2
:103AED0022749DF0A374ECF0E4FB7D1F7F01128D19
:103AFD0059227B01E4FDFC7F1F127EC4227B01E471
:103B0D00FDFC7F49127EC4227B01E4FDFC7F1F1268
:103B1D007EC422E4FB7D1F7F01128D5922E4FB7DC3
:103B2D001F7F01128D59227B01E4FDFC7F49127E1E
:103B3D00C4227B01E4FDFC7F1F127EC422E4FB7DC9
:103B4D00497F01128D59227B01E4FDFC7F34127EE9
:103B5D00C422E4FB7D497F01128D59227B01E4FDD6
:103B6D00FC7F1F127EC422E4FB7D347F01128D5930
:103B7D00227B0F7D1F7F01128D59227B01E4FDFCFD
:103B8D007F49127EC422E4FB7D497F01128D5922AB
:0A3B9D007B127D1F7F01128D59225B
:102C9B00900366E0FD900357E06DF565A3E0122904
:102CAB00DE2CD4112CF7222D3C312DAD332E1434C8
:102CBB002E82412F11912F3AA22F87B12FF7B330CC
:102CCB0061B430DCC100003168127E308005C33343
:102CDB00CE33CED8F9FFEF5D600B127E1C127E4611
:102CEB007B0D022F2A7B057D0D022F33127E308048
:102CFB0005C333CE33CED8F9127E3D600B127E1C4A
:102D0B00127E461231C5800312318190035A127E16
:102D1B00338005C333CE33CED8F9127E3D600B1210
:102D2B007E1C127E467B0D022F777B057D0D022FBD
:102D3B0080127E308005C333CE33CED8F9127E3D60
:102D4B006011127E1C127E467B077D257F01128D42
:102D5B005980057D0712320B90035A127E33800582
:102D6B00C333CE33CED8F9127E3D600D127E1C12CA
:102D7B007E467B151231E580031231CF90035B1237
:102D8B007E338005C333CE33CED8F9127E3D600B34
:102D9B00127E1C127E467B15022F777B057D15025A
:102DAB002F80127E308005C333CE33CED8F9127EFE
:102DBB003D600B127E1C127E461231C58003123110
:102DCB008190035A127E338005C333CE33CED8F9AC
:102DDB00127E3D600B127E1C127E461231DB80038D
:102DEB0012318D90035B127E338005C333CE33CE0D
:102DFB00D8F9127E3D600B127E1C127E467B1502AB
:102E0B002F777B057D15022F80127E308005C33313
:102E1B00CE33CED8F9127E3D600B127E1C127E464D
:102E2B00123199800312316990035A127E33800557
:102E3B00C333CE33CED8F9127E3D600D127E1C12F9
:102E4B007E467D3A12320380087D0D127E8F127EF4
:102E5B00C490035B127E338005C333CE33CED8F9D7
:102E6B00127E3D600B127E1C127E467B150230CC0F
:102E7B007B057D150230D5127E308005C333CE33F2
:102E8B00CED8F9127E3D600B127E1C127E4612319B
:102E9B0099800312316990035A127E338005C33334
:102EAB00CE33CED8F9127E3D600B127E1C127E46BD
:102EBB001231DB800312318D90035B127E33800560
:102ECB00C333CE33CED8F9127E3D6011127E1C1265
:102EDB007E467B157D107F01128D5980031231CFF9
:102EEB0090035C127E338005C333CE33CED8F912F8
:102EFB007E3D600B127E1C127E467B15022F777B6C
:102F0B00057D15022F80127E308005C333CE33CE64
:102F1B00D8F9127E3D600D127E1C127E467B107D11
:102F2B002502315D7B057D107C007F25023165120A
:102F3B007E308005C333CE33CED8F9127E3D600D83
:102F4B00127E1C127E467B101231E580031231A3D8
:102F5B0090035A127E338005C333CE33CED8F91289
:102F6B007E3D600D127E1C127E467B107D3A023137
:102F7B005D7B057D107C007F3A023165127E3080CF
:102F8B0005C333CE33CED8F9127E3D6011127E1CB1
:102F9B00127E467B087D257F01128D5980057D08A9
:102FAB0012320B90035A127E338005C333CE33CECD
:102FBB00D8F9127E3D600B127E1C127E4612321522
:102FCB0080031231ED90035B127E338005C333CE49
:102FDB0033CED8F9127E3D600D127E1C127E467BDD
:102FEB00197D3A02315D127E8D023165127E308081
:102FFB0005C333CE33CED8F9127E3D600D127E1C45
:10300B00127E467D1012320380031231A390035AB5
:10301B00127E338005C333CE33CED8F9127E3D609A
:10302B000B127E1C127E461231F980031231B990BD
:10303B00035B127E338005C333CE33CED8F9127EB9
:10304B003D600D127E1C127E467B197D3A02315D6E
:10305B00127E8D023165127E308005C333CE33CEA6
:10306B00D8F9127E3D600B127E1C127E461231AFD8
:10307B00800312317590035A127E338005C333CE11
:10308B0033CED8F9127E3D6011127E1C127E467B28
:10309B00107D3A7F01128D59800B7B057D107C00D2
:1030AB007F3A127EC490035B127E338005C333CE0E
:1030BB0033CED8F9127E3D600D127E1C127E467BFC
:1030CB00197D1002315D7B057D197C007F1002316B
:1030DB0065127E308005C333CE33CED8F9127E3DD8
:1030EB00600B127E1C127E461231AF8003123175BB
:1030FB0090035A127E338005C333CE33CED8F912E8
:10310B007E3D600B127E1C127E461231F98003123B
:10311B0031B990035B127E338005C333CE33CED8E7
:10312B00F9127E3D600B127E1C127E461232158008
:10313B00031231ED90035C127E338005C333CE3323
:10314B00CED8F9127E3D600F127E1C127E467B1983
:0D315B007D3A7F01028D59127E8D127EC4D7
:10316800227B057D077C007F10127EC4227B057DB3
:10317800087C007F10127EC4227B057D0D7C007FB9
:1031880010127EC4227B057D077C007F3A127EC424
:10319800227B077D107F01128D59227B057D107CD3
:1031A800007F10127EC4227B087D107F01128D598A
:1031B800227B057D087C007F3A127EC4227B0D7D30
:1031C800107F01128D59227B057D157C007F10121E
:1031D8007EC4227B077D3A7F01128D59227D107FA4
:1031E80001128D59227B057D197C007F10127EC447
:1031F800227B087D3A7F01128D59227B0D7F0112B7
:103208008D59227B057C007F25127EC4227B197D87
:07321800107F01128D592205
:1093FF00E4FF129E0F900356E024FE6011047029C3
:10940F00129439127E1C749DF0A374DE800C12949A
:10941F0039127E1C749DF0A374E1F0E4FB7D017F93
:10942F0001128D597FFF12A1F5227F0312A1F57F43
:05943F000412A1F2225D
:109D5E00E4FF129E0F90035EE030E1127B017A0366
:109D6E00795E12321F7B017A03795E12692A12A183
:069D7E00C4E4FF0297D0CF
:1016F80000000000000000000000000000000000E2
:1017080000000000000000000000000000000000D1
:10171800003E007E00FE01CE038E7F8E7F8E738E8C
:10172800738E738E7F8E7F8E01CE00FE007E003E0C
:1017380000000000020006000E001E003FFE7FFEB3
:101748007FFE3FFE1E000E000600020000000000A3
:101758000000000000400060007000787FFC7FFE01
:101768007FFE7FFC007800700060004000000000F1
:10177800000003C003C003C003C003C003C003C00C
:1017880003C03FFC1FF80FF007E003C00180000012
:1017980003C003C007E007E00E700E701C381C3849
:1017A800381C381C7FFE7FFE700E700E700E700E97
:1017B8007FF87FFC383E381E381E381E383C3FF80C
:1017C8003FF8383C381E381E381E383E7FFC7FF8FC
:1017D8000FF81FFC3C1C380E780E700E700070005D
:1017E80070007000700E700E380E3C1C1FFC0FF855
:1017F8007FF07FF07078703C703C703C70787FF0C0
:101808007FE0778073C071E070F07078703C701E74
:1018180000006006700E781E7C3E7FFE77EE73CE69
:10182800718E700E700E700E700E700E700E700E3F
:1018380000001FF81FF800E000E000E000E000E012
:1018480000E000E000E070E079E03FC01F800F009A
:1018580000000000000003C007800F001E003FFCCE
:101868003FFC1E000F00078003C0000000000000BE
:1018780000000000000003C001E000F000783FFC19
:101888003FFC007800F001E003C000000000000009
:1018980000000000018001800180018011881998F2
:1018A8001DB81FF80FF007E003C00180000000001A
:1018B800003E007E00FE01CE038E7F8E7F8E738EEB
:1018C800738E738E7F8E7F8E01CE00FE007E003E6B
:1018D800700E700E700E700E700E700E781E381C22
:1018E800381C1C381C380E700FF007E003C001804C
:1018F8000000380038003800380038003800380058
:1019080038003800380038063806380E3FFE3FFEEB
:101918000000000000000000000003800FE01C70C1
:10192800183038383838383818301C700FE00380D1
:101938000000000000000000000003C00FF01C3889
:101948001C000F0007E000F000381C380FF003C03F
:10195800000000000000000000000000000000007F
:10196800000000000000000000000000000000006F
:10197800000000000000000000000000000000005F
:10198800000000000000000000000000000000004F
:10199800000000000000000000000000000000003F
:1019A800000000000000000000000000000000002F
:1019B800000000000000000000000000000000001F
:1019C800000000000000000000000000000000000F
:1019D80000000000000000000000000000000000FF
:1019E80000000000000000000000000000000000EF
:1019F80000000000000000000000000000000000DF
:101A080000000000000000000000000000000000CE
:101A180000000000000000000000000000000000BE
:101A280000000000000000000000000000000000AE
:101A3800000000000000000000000000000000009E
:101A4800000000000000000000000000000000008E
:101A5800000000000000000000000000000000007E
:101A6800000000000000000000000000000000006E
:101A7800000000000000000000000000000000005E
:101A8800000000000000000000000000000000004E
:101A9800000000000000000000000000000000003E
:101AA800000000000000000000000000000000002E
:101AB800000000000000000000000000000000001E
:101AC800000000000000000000000000000000000E
:101AD80000000000000000000000000000000000FE
:101AE80000000000000000000000000000000000EE
:101AF80000000000000000000000000000000000DE
:101B080000000000000000000000000000000000CD
:101B1800000007000F800F800F800F80070007006C
:101B28000700020002000000020007000700020090
:101B38000000EE006600440088000000000000007D
:101B4800000000000000000000000000000000008D
:101B5800000008200820082008203FF80820082056
:101B68000820082008203FF808200820082008201E
:101B780000000FC01B603330333033001B000F00F0
:101B880003C0036013303B3033301B600FC00300C9
:101B980000003808441084200440048009001270B2
:101BA800E4880908120822084210822001C00000B7
:101BB80000000E001B00318031801B000E001C004D
:101BC8003678632061A060E0606030F01F9C000000
:101BD80000000000000000000000000000000000FD
:101BE800000000000000800060007000380018004D
:101BF8000000000400080018001000300030003019
:101C08000030003000300010001800080004000206
:101C180000008000400060002000300030003000EC
:101C280030003000300020006000400080000000DC
:101C3800000002004210222012400A800700FFFC28
:101C480007000A8012402220421002000200000011
:101C580000000000030003000300030003007FF8F6
:101C68007FF80300030003000300030000000000E6
:101C7800000000000000000000000000000000005C
:101C8800000018003C003C00180010002000400034
:101C980000000000000000000000000000007FF8C5
:101CA8007FF80000000000000000000000000000B5
:101CB800000000000000000000000000000000001C
:101CC8000000000000007800840084008400780090
:101CD800000000180030006000C00180030006000A
:101CE8000C00180030006000C000800000000000F8
:101CF80000000FE0183030183038307830D831987C
:101D0800331836183C183818301818300FE000000F
:101D18000000030007000F00030003000300030096
:101D28000300030003000300030003001FE000009A
:101D380000000FE01830301830183038007001C03B
:101D480003000E001800300830083FF83FF8000084
:101D5800000007C0183030183018003000E003C009
:101D680000E00030001830183018183007C00000A4
:101D7800000000C001C003C006C00CC018C030C0BD
:101D880060C0C0C0C0C0FFF800C000C003F00000C1
:101D980000003FF03FF030003000300037C03830EE
:101DA80030180018001830183018183007C0000014
:101DB800000007E01830303030003000300037E0E5
:101DC8003830301830183018301818300FC000006C
:101DD80000003FF83FF8201820180030006000C0CD
:101DE8000180030003000300030003000300000058
:101DF80000000780186030303030303018600FC075
:101E08001860303060186018601830300FC000005B
:101E1800000007801860303030183018301830381B
:101E2800187807980018303038301860078000009C
:101E3800000000000000000003000780030000000D
:101E480000000300078003000000000000000000FD
:101E580000000000000000000300078003000000ED
:101E680000000300078003800180070000000000D5
:101E780000000000001800600180060018006000E3
:101E88008000600018000600018000600018000053
:101E9800000000000000000000007FF87FF800004C
:101EA80000007FF87FF8000000000000000000003C
:101EB8000000800060001800060001800060001823
:101EC800000400180060018006001800600080000F
:101ED800000007800FC01CE038E038E011C0018026
:101EE80003000300020002000000020007000700D0
:101EF80000000FC030604010478888C890C890C85C
:101F080090C890C888D84770400830700FC000004B
:101F1800000003000300078007800CC00CC0186095
:101F280018601FE03030303060186018F03C000056
:101F380000003F80186018301830183018601FC033
:101F48001860183018181818181818303FC00000F2
:101F58000000078818683038601860086000600062
:101F6800600060006008601830301860078000006A
:101F780000007F8030E030383018301830183018C2
:101F88003018301830183018303030E07F800000BA
:101F980000003FF0183018101800188018801F80B3
:101FA8001880188018001800181018303FF000002A
:101FB80000003FF0183018101800188018801F8093
:101FC8001880188018001800180018003C0000003D
:101FD80000000F90187030306010601060006000D2
:101FE8006078603060306030307018F00FB00000FA
:101FF80000007878303030303030303030303FF0DA
:102008003030303030303030303030307878000098
:1020180000000FC0030003000300030003000300D7
:102028000300030003000300030003000FC00000C7
:10203800000001F000600060006000600060006067
:10204800006000603060306030E019C00F000000B0
:10205800000078F8306030C03180330036003C0032
:102068003E003300318030C030603030787C000072
:1020780000003C001800180018001800180018008C
:102088001800180018001808181818383FF8000029
:102098000000E03CE038F078F078D8D8D8D8C89874
:1020A800CD98CD98C518C718C218C018E07C000094
:1020B8000000C078E030F030F830DC30CE30C73087
:1020C800C3B0C1F0C0F0C070C030C030E0780000CC
:1020D80000000FC0387070386018601860186018F9
:1020E8006018601860186018703838700FC00000E9
:1020F80000003FC0187018381818181818381870C9
:102108001FC0180018001800180018003C00000034
:1021180000001F8070E0E070C030C030C030C030B8
:10212800C030C030C030CF30E1F070E01FEC003874
:1021380000003F8018E0187018301830187018E048
:102148001FC01B80198018C0186018303C7C000024
:1021580000000FD018703030301018000E000380C7
:1021680000E000302018301838182C3027E0000024
:1021780000007FF873386318430803000300030066
:1021880003000300030003000300030007800000AE
:102198000000787830303030303030303030303007
:1021A800303030303030303030301CE00FC000007C
:1021B8000000F0786030603060306030603060304F
:1021C80060306030306018C00D80070002000000E9
:1021D8000000C71C82088208C71847184510451018
:1021E8006DB06DB028A038E01040104010400000DD
:1021F8000000F07C6030306018C008800D80070057
:10220800020007000D8018C030606030F07C0000CC
:102218000000F03C6018303018600CC007800300E4
:10222800030003000300030003000300078000000D
:1022380000003FF8301820180030006000C001800E
:10224800030006000C001800300860187FF8000032
:102258000000001C0030006000600060006000604A
:102268000060006000600060006000600030001CDA
:1022780000008000C0006000300018000C0006005C
:102288000300018000C0006000300018000C00044A
:102298000000E000300018001800180018001800AE
:1022A8001800180018001800180018003000E00086
:1022B8000000000000000000000000000000000016
:1022C800020007000D8018C07070C01C00000000DC
:1022D80000000000000000000000000000000000F6
:1022E8000000000000000000000000000000FFFEE9
:1022F80000000E0007000180004000000000000000
:1023080000000000000000000000000000000000C5
:102318000000000000000000000000000F8030C036
:1023280000C00FC018C030C030C031D01F600000DE
:102338000000380018001800180018001FC01C60A2
:10234800183018301830183018301C603FC00000A2
:102358000000000000000000000000000FC018602E
:102368003060306030003000300018200FC00000AE
:102378000000007000300030003000300FB01870DE
