:030000000288046F
:0C880400787FE4F6D8FD75816702884B90
:0BA5EE00E0248DF582E43402F58322A6
:10A3E700C2BCD2AC759852758DFAE4F58BD28E90BB
:06A3F70002F1F0A3F022C8
:10A525009002F1E0FFA3E0B507037F00227F01223F
:10A39D009002F112A5EEE0FF9002F1E004F0E0C3AF
:08A3AD0094644002E4F0D2AC1C
:01A3B5002285
:080003003099FD8F99C299228A
:03002300029EED4D
:109EED00C0E0C083C082C0D0309819C2989002F2F1
:109EFD0012A5EEE599F09002F2E004F0E0C394644F
:0D9F0D004002E4F0D0D0D082D083D0E0320A
:109A7A00E0F580D2A3E4900335F0A3F022C390036B
:109A8A0035E0940022900335E004F0229001E4E0EE
:109A9A00FBA3E0FAA3E0F922EDF0A3EBF0E4FFC2A6
:0C9AAA00AF22D2B6D2B77580FFD2AF2237
:108DFA009001F3129AA212A6439001F3E0FF7006C3
:108E0A00C2B7C2B68012EFB40106C2B7D2B68008A2
:108E1A00EFB40204D2B7C2B69001F4129A7A129A47
:108E2A0087500BA3E004F070F5129A8F80F0C2A36A
:108E3A009001F5E0F580C2A1129A7F129A87500B31
:108E4A00A3E004F070F5129A8F80F0D2A112A64323
:048E5A00129AAC229A
:10891C009001D8129AA212A6439001D8E0FF7006DB
:10892C00C2B7C2B68012EFB40106C2B7D2B6800885
:10893C00EFB40204D2B7C2B69001D9E0FF04F08FB5
:10894C0080129A7D129A87500BA3E004F070F512F6
:10895C009A8F80F0C2A39001DAE0FBA3E475F001DA
:10896C00122763A9F0FA12268EF580C2A1129A7F03
:10897C00129A87500BA3E004F070F5129A8F80F0D6
:10898C00D2A19001DDE014F070AE12A643129AACA5
:01899C0022B8
:0B8890009001F2EFF0A3EDF0A3EBF07D
:10889B00C2AF12A643E49001F2F0A3E0FF7006C250
:1088AB00B7C2B68012EFB40106C2B7D2B68008EFDA
:1088BB00B40204D2B7C2B69001F4129A7A129A8714
:1088CB00500BA3E004F070F5129A8F80F0C2A375E1
:1088DB0080FF129A7F129A87500BA3E004F070F579
:1088EB00129A8F80F0C2A29001F5E580F0129A7F68
:1088FB00129A87500BA3E004F070F5129A8F80F058
:10890B00D2A212A643D2B6D2B7D2AF9001F5E0FFF6
:01891B002239
:109268009001E4EBF0A3EAF0A3E9F0129A96122732
:1092780079F47003E5F0F46038122779FBAAF0EA74
:10928800FDE4FF128890129A969000021226A7FC1D
:109298006F6012122779FBAAF0EAFD9001F5ECF055
:1092A800E4FF128DFA9001E5E475F00312274D8072
:0292B800BA22D8
:01A6860022B1
:105420002562782025627820256278000A3C523E69
:1054300025303262785B25303262785D3D2530322E
:105440006278002562782025627800256278202520
:1054500062782025627820256278200025316278E4
:105460002025316278202531627820005265616400
:105470004173696342797465203D3D20256278203F
:105480000A0063682562643A256264200063682527
:1054900062643A2562642063682562643A25626426
:1054A000200063682562643A25626420636825628F
:1054B000643A2562642063682562643A2562642048
:1054C0000063682562643A2562642063682562642B
:1054D0003A2562642063682562643A256264206329
:1054E000682562643A256264200063682562643A34
:1054F0002562642063682562643A256264206368DB
:105500002562643A2562642063682562643A2562F4
:10551000642063682562643A256264200025626421
:1055200020000A203D3D3D3D3D3D3D3D2050414751
:10553000452025623278203D3D3D3D3D3D3D3D3D90
:105540003D3D3D3D0A002562327809000A002531C3
:105550006278202531627820636825316278206383
:105560006825316278206368253162782063682578
:105570003162782000656E726563616C6C00656EE7
:10558000667265657A6500656E686D6972726F72C4
:1055900000656E766D6972726F7200656E656E6819
:1055A000616E636500656E626C616E6B00656E6254
:1055B0006F756E6400656E626C696E6B0064697312
:1055C000726563616C6C00646973667265657A65A7
:1055D00000646973686D6972726F720064697376D2
:1055E0006D6972726F7200646973656E68616E6373
:1055F0006500646973626C616E6B00646973626FED
:10560000756E6400646973626C696E6B003D3D3D4C
:105610003D3D20466F726D6174203A206368303DD5
:105620005B2562785D206368313D5B2562785D2093
:105630006368323D5B2562785D206368333D5B259E
:1056400062785D203D3D3D3D3D0A00256278202584
:1056500062782063682562783A256278206368253D
:1056600062783A2562782063682562783A25627804
:105670002063682562783A2562782000333400621E
:105680007573770079766D6978006873636F6D0064
:0E5690006D6F646500370038000102040810D9
:046CC00041039800F4
:10569E00A3F0A3E4F0A37400F0A37408F0A3E4F065
:1056AE00A37400F0A3740DF0A3E4F0A37400F0A3B0
:1056BE007409F0A3E4F0A37400F0A3740EF0A3E455
:1056CE00F0A37400F0740AA3F0A3E4F0A322A3F0F5
:1056DE00A3E4F0A37400F0A37412F0A3E4F0A37497
:1056EE0000F0A37417F0A3E4F0A37400F0A37413F6
:1056FE00F0A3E4F0A37400F0A37418F0A3E4F0A3F5
:10570E007400F07414A3F0A3E4F0A322A3F0A3E4B6
:10571E00F0A37400F0A37439F0A3E4F0A37400F0C6
:10572E00A3743DF0A3E4F0A37400F0743AA3F0A3C5
:10573E00E4F0A322A3F09003B3E0FBA3E0FAA3E00E
:10574E00F9229001E074FFF0A37454F07482A3F078
:10575E00A3E4F0A3227400F0A3740FF0A3E4F0A36B
:10576E007400F0740BA3F0A3E4F0A3227400F0A372
:10577E007419F0A3E4F0A37400F07415A3F0A3E47D
:10578E00F0A3227400F0A3743EF0A3E4F0A374001F
:10579E00F0743BA3F0A3E4F0A3229001E074FFF0B9
:1057AE00A37454F0748DA3F0A3E4F0A3229001E04F
:1057BE0074FFF0A37455F0741DA3F0A3E4F0A322BC
:1057CE007400F07408A3F0A3E4F0A3227400F07444
:1057DE0012A3F0A3E4F0A3229001E074FFF0A32241
:1057EE00EBF0A3EAF0A3E9F09001E07401F0A3223C
:1057FE00A3F0A37401F0A37403F07483A3F0A37455
:10580E0001F0A322A3F0A3E4F0A322A3F0A3E4F0FB
:10581E00A322A3F0A3E4F0A322A3F0A3E4F0A32217
:10582E00A3F0A3E4F0A322FFE0248CF582E434037A
:10583E00F583EFF022E0FF9001E17401F0A3740311
:10584E00F0A37488F07B017A03798322A3F0A3E49A
:10585E00F0A322A3F0A3E4F0A322EBF0A3EAF0A3BB
:10586E00E9F022900001E475F0010227A47BFF7A93
:10587E0054792C90033BF022A3F0A3E4F0A322E092
:10588E005401FB7D20222533F533A3E0540322E59A
:10589E000990569993FFE508932F2212296F02263D
:0F58AE008EA3F0A3E4F0A32212A6879001D522C7
:108B7C009001DD125868A31257471258A97002FFD2
:108B8C00229001E01257471258A9B4200B9001E033
:108B9C0012574712587180E99001E0125747122979
:108BAC006FC003C002C0019001DD12574712298F1C
:108BBC0080239001E01257471258A9FEB42010E40C
:108BCC001226D49001E01257471258717F0122EE01
:108BDC0070037F01229001E012574712587180D226
:069A3D009001DD125868E3
:109A4300E4F530F5319001DD12574712268E60227E
:109A53009001DDA3E475F001122763A9F0FA122641
:109A63008EFF3395E0FEEF2531F531EE3530F530DD
:069A730080D3AE30AF31DC
:019A790022CA
:01A6870022B0
:10951700E4F533900383E0540312589425E025E0E3
:10952700125894C454F0125894C4333354C025339A
:10953700F533900382E0B5070D900387E0B5330656
:10954700E4900392F0229003927401F0900387E570
:0795570033F0900382EFF0F6
:01955E0022EA
:1095A7001257E67454F074201256D57400F0744CB8
:1095B7001257137400F0744D12573B7400F0A374E4
:1095C7004EF0124B6FAB4DAD4CE4FF1288909003F9
:1095D7003DEFF0E54C12587BA3E54DF01247EC0543
:0695E7004DE54DB54EDF1D
:0195ED00225B
:109C12001257E67454F0744312575C7400F0745592
:109C22001257737400F0A37456F0124B6FAB56AD1B
:109C320055E4FF12889090033DEFF0E55512587BF2
:079C4200A3E556F00247EC18
:109DC3001257E67454F0742012578A7400F0744FDB
:109DD3001257A17400F074501257B47400F0A374B6
:109DE30051F0124B6F9001F5E551F0AB50AD4FE4DC
:049DF300FF028DFAE4
:10930A00E4F530F531F532F533C003C0021257E601
:10931A007454F0744B1257C77400F074301257D358
:10932A007400F074311257DF7400F074321258125C
:10933A007400F0A37433F0D002D003124B6F900183
:0D934A00F5E533F0AB32AD31E4FF028DFAF2
:10955F00E4F51CF51DF51EF51F1257E67454F07453
:10956F005C1258127400F0741C1258197400F074C5
:10957F001D1258197400F0A3741EF0124B6FAB1E1E
:10958F00AD1DE4FF1288908F1F7BFF7A54796C908A
:08959F00033BE51FF00247EC5D
:036700009003B350
:106703001257EE7403F0A374B3F07B017A0379B6E6
:10671300128B7CE4FB7D1FFF129CED9003B6125796
:1067230047127D92EE6003026828EF24FE60361460
:10673300605A1460781470030267D524046003025E
:1067430068281257501257CE7400F0740D12574236
:10675300124B6FAB0DAD08E4FF128B0BE50890569F
:1067630099930268201257A81257CE7400F0740D43
:106773001258207400F074091258207400F0740E3B
:1067830012574212682912589D0268201257E67464
:1067930054F074A212569E7400F0A3740F12574360
:1067A300126829AB0FAD0A12683F0268201257E640
:1067B3007454F074C112569E1257637400F0A3749C
:1067C3001012574312685512683FFFE50B932F02CF
:1067D30068201257E67454F0A374EA12569F1257B6
:1067E300637400F074101258277400F0740C12587C
:1067F300277400F0A37411125743126855E4FF1273
:106803008B0BAB11AD0CE4FF128B0B12589DFFE504
:106813000A932FFFE50B932FFFE50C932FFD7B01CD
:05682300E4FF129CEDF2
:1068280022124B6FAB0DAD08E4FF128B0BAB0EAD14
:1068380009E4FF128B0B22E4FF128B0BE50990563B
:106848009993FFE508932FFFE50A932F22124B6FC8
:10685800AB0DAD08E4FF128B0BAB0EAD09E4FF12D4
:106868008B0BAB0FAD0AE4FF128B0BAB10AD0B22F9
:0FA55500E4FB7D1FFF129CED7DFFE4FF029E8F54
:036F71009003B9D1
:106F74001257EE7403F0A374B9F07B017A0379BC61
:106F8400128B7C9003BC125747127D92EE60030271
:106F9400707FEF24FE603014605614607114700327
:106FA4000270362404600302707F1257501257DABD
:106FB4007400F0A37417F09003B9125747124B6F83
:106FC400AB17AD1202707A1257A81257DA7400F098
:106FD400741712582E7400F0741312582E7400F0A3
:106FE400A37418F09003B912574712709A02707A7A
:106FF4001257E67454F074A21256DC7400F0A374B1
:1070040019F09003B912574712708002707A125720
:10701400E67454F074C11256DC12577A7400F0A36B
:10702400741AF09003B91257471270801270AB02B1
:10703400707A1257E67454F0A374EA1256DD1257AC
:107044007A7400F0741A12585A7400F074161258B4
:107054005A7400F0A3741BF09003B91257471270CE
:107064009AE4FF128BECAB19AD141270ABE4FF126F
:0B7074008BECAB1BAD16E4FF128BECA5
:10707F0022124B6FAB17AD12E4FF128BECAB18ADB6
:10708F0013E4FF128BECAB19AD1422124B6FAB173D
:10709F00AD12E4FF128BECAB18AD1322E4FF128B91
:0670AF00ECAB1AAD152246
:10A43E001257BB7400F0A37463F0124B6FAD63E45C
:04A44E00FF029E8FDC
:1093A300E4F5587BFF7A55792290033BE558F01298
:1093B30047ECE4F557AB57AD58E4FF1288909003A0
:1093C3003BEFF07BFF7A5579461247EC0557E5579B
:1093D300540F70097BFF7A55794C1247ECE55770AF
:0A93E300D40558E558C3940340B9BF
:0193ED00225D
:1091BD00C003C002C0011257E67455F0744E125828
:1091CD00617400F074591258617400F0745A12579A
:1091DD00FE7403F0748412580A7403F0A37485129C
:1091ED00580B7403F0A37486F0D001D002D0031293
:1091FD004B6FE559C454F0FFE55A540F2FF5591232
:06920D005853FF02623F0E
:0658BD009003BF125868C1
:1058C300E4F52E7B019001E004F0A37403F0A374CC
:1058D300BFF07A0379C2128B7C9003C2125747122E
:1058E3007D928F2F1257F6125AB59003C212574763
:1058F300129A3D8E268F277A557975125A92B527BB
:105903000AEEB526067528800259927A55797E12D9
:105913005A92B5270AEEB526067528400259927A9F
:10592300557987125A99B52709EEB52605752820AA
:10593300805D7A557991125A99B52709EEB52605F6
:10594300752810804A7A55799B125AA0B52709EE1B
:10595300B5260575280880377A5579A5125AA0B55A
:105963002709EEB5260575280480247A5579AD12EA
:105973005AA7B52709EEB5260575280280117A5571
:1059830079B5125AA7B5270DEEB526097528017505
:105993002901025A3C7A5579BD125AAEB5270AEE4F
:1059A300B52606752880025A1F7A5579C7125AAE52
:1059B300B52709EEB5260575284080607A5579D15B
:1059C300125AC6B52709EEB52605752820804D7AEB
:1059D3005579DC125AC6B52709EEB5260575281088
:1059E300803A7A5579E7125ACDB52709EEB52605DF
:1059F30075280880277A5579F2125ACDB52709EE12
:105A0300B5260575280480147BFF7A5579FB129A15
:105A13003DEFB5270CEEB52608752802E4F529807D
:105A2300187BFF7A567904129A3DEF65277003EECF
:105A33006526705A752801F5291257F6125AB5EFE3
:105A430060339003C212574712268EB477EB90004F
:105A5300011226A7B469E29000021226A7B46ED9F8
:105A6300E92403F9E43AFA127D92742A252EF8A662
:105A730007052E80C4E52E60152429F8E6FFC3959B
:0E5A83002F5007AB29AD28129D8E152E80E7FF
:105A9100227BFF129A3DEF227BFF129A3DEF227B80
:105AA100FF129A3DEF227BFF129A3DEF227BFF12FC
:105AB1009A3DEF227403F0A374BFF07B017A03795E
:105AC100C2128B7C227BFF129A3DEF227BFF129A3E
:035AD1003DEF2284
:10A4EF001257BB7400F0A37430F0124B6FAF3002F1
:02A4FF00A45265
:109B2D00E4FF1293EEC0077F011293EEC0077F0290
:109B3D001293EEC0077F031293EE90033EEFF09069
:109B4D00033DD0E0F090033CD0E0F090033BD0E03B
:0A9B5D00F07BFF7A56790D0247EC09
:0377B8009003C576
:1077BB001257EE7403F0A374C5F07B017A0379C8FA
:1077CB00128B7C9003C8125747127D92EE60030216
:1077DB0078AAEF24FE602B146053146079240360A5
:1077EB00030278AA1257507400F074391258867439
:1077FB0000F0A3743DF09003C51257471278C902ED
:10780B0078A51257E67454F0748D12571A7400F061
:10781B00A3743EF09003C51257471278C9E4FF12C8
:10782B009EBFE53EC454F0FBAD3A0278A51257E675
:10783B007454F074A212571A1257917400F0A37477
:10784B003FF09003C51257471278ABE53FC454F095
:10785B00FBAD3B0278A51257E67454F0A374C1122A
:10786B00571B1257917400F0743F1258867400F036
:10787B00743C1258AF7400F0A37440F09003C5121F
:10788B0057471278ABE53FC454F0FBAD3BE4FF1216
:0F789B009EBFE540C454F0FBAD3CE4FF129EBF1E
:1078AA0022124B6FE53DC454F0FBAD39E4FF129E42
:1078BA00BFE53EC454F0FBAD3AE4FF129EBF22126C
:0B78CA004B6FE53DC454F0FBAD3922CC
:038F89009003CB87
:108F8C001257EE128FD6125747127D928F5B1257E3
:108F9C00F6128FD6125747127D928F5C7F0412A661
:108FAC00807F0312A6837F0512A30A9003CBE0F9FE
:108FBC00A3E0FAA3E09003AFC9125869AB5CAD5BB8
:0A8FCC007F011290AC7F05029CB7F4
:108FD6007403F0A374CBF07B017A0379CE128B7CF9
:048FE6009003CE2204
:1095EE00755E01E4F55D7488255DF582E43403F55E
:1095FE0083E030E4157483255DF582E43403F5834E
:10960E00E0FDE4FF129E8FE4F55E055DE55DC3941B
:10961E000440D3E55E600FE4FB7D1FFF129CED7DE1
:06962E00FFE4FF129E8F15
:019634002213
:106E2300C003C002C0011257E67456F0744B1258E7
:106E3300AF7400F0A37431F0A3E4F0A37400F07412
:106E4300321257FE7403F0A3748812580B7403F0C4
:106E5300A3748412580B7403F0A3748912580B742F
:106E630003F0A3748512580B7403F0A3748A1258A9
:106E73000B7403F0A3748612580B7403F0A3748B82
:106E8300F0D001D002D003124B6FE531C454F0FFB0
:106E930090037FE0FEC433333354802FFFE5325435
:106EA3000F2F900391F0900388E0900383125835DD
:106EB300900389E090038412583590038AE0FF9091
:106EC300038512583690038BE0FF900386125836E1
:106ED30090038C12588DE4FF129AB690038D1258CA
:106EE3008D7F01129AB690038E12588D7F02129AEB
:106EF300B690038F12588D7F03129AB67B017A03E3
:106F0300798C1270B5900391125843125128900353
:106F130091E0FF12585312623FE4F5307488253034
:106F2300F582E43403F58312588DAF30129D8E053C
:106F330030E530C3940440E4E4F541F542F543758C
:106F430044057F0112A616900391E0FF1295177F67
:106F530008129DF7E4FF12A38312986B7B017A0357
:0D6F630079881243D3900391E0900398F0D9
:016F700022FE
:108CC100E4FF1293EEEFB40202C32290037FE0B5FA
:108CD1000702D32290037FEFF0E0C4333333548093
:108CE100FF900382E0547F4FF07F01129CB7900305
:108CF1007FE0FF128E5E7B017A03798C1270B59052
:108D01000382125843125128900382E0FF125853F4
:108D110012623FE4FF12A38312986B7B017A0379FD
:088D2100881243D312A1F2D322
:018D29002227
:10A3FD001257E67455F0A3741D12580B7403F0A395
:06A40D007480F0024B6FA9
:050026007F01029CB700
:10A4B60090567CE493FF12000390567CA3E493FF2E
:03A4C6000200038E
:037AE2009001D53B
:107AE5001257EE7401F0A374D5F07B017A0179DAAF
:107AF500128B7C9001DA125747129A3D9001D8EE0D
:107B0500F0A3EFF07A56797F127BB5B50611A3E0A5
:107B1500B5070C9001D512574712930A027BB27A2A
:107B2500567984127BB5B50611A3E0B5070C12583A
:107B3500B612574712A4EF027BB27A56798A127BA6
:107B4500BFE0B50618A3E0B507131258B61257479C
:107B5500126E2312A1F2E4FF12A61680507A56790E
:107B650090127BBFE0B50610A3E0B5070B1258B61F
:107B750012574712A3FD80357A567995127BC8E0D6
:107B8500B5060FA3E0B5070A900276E090028BF0E8
:107B9500801B7A567997127BC8E0B50610A3E0B52D
:0F7BA500070B129E2B900276E0FF129F1A7F01B2
:107BB400227BFF129A3D9001D8E0227BFF129A3D6E
:0D7BC4009001D8227BFF129A3D9001D8223B
:105CB3000D0A0050435400FFC896643200627573A6
:105CC30077203020312041312031316275737720C4
:105CD30030203120413220443779766D6978203481
:105CE300206D6F64652030206873636F6D203120F1
:105CF30031206368303A3130206368313A303020E4
:105D03006368323A3030206368333A303020687346
:105D1300636F6D20312031206368323A3130206364
:105D230068313A3030206368303A3030206368336A
:105D33003A3030206873636F6D20312031206368FF
:105D4300313A3130206368303A3030206368323A78
:105D53003030206368333A3030206873636F6D20CE
:105D6300322032206368323A3130206368303A316E
:105D730030206368313A3030206368333A30302062
:105D83006873636F6D20322032206368303A31309C
:105D9300206368323A3130206368313A303020630F
:105DA30068333A3030206873636F6D2032203220BD
:105DB3006368313A3130206368303A3130206368A8
:105DC300323A3030206368333A3030206873636F7F
:105DD3006D20322032206368303A313020636831DD
:105DE3003A3130206368323A3030206368333A30D6
:105DF30030206873636F6D20322032206368313A3C
:105E03003130206368323A3130206368303A3030C1
:105E1300206368333A3030206873636F6D2032201B
:105E230032206368323A3130206368313A313020AE
:105E33006368323A3030206368333A303020687315
:105E4300636F6D20332033206368303A3130206331
:105E530068313A3130206368323A31302063683335
:105E63003A3030206873636F6D20312031206368CE
:105E7300333A3030206368313A3030206368323A45
:0A5E83003030206368303A303020E0
:106CC400C12844032E000000004103320041033375
:106CD4000041032D0141032C0241032A0141032BEE
:106CE4000041032100420322000042032400004229
:106CF4000326000042032800004102F5014102F48A
:096D040000410334004102F300D8
:107F46007D017BFF7E007F26022668900213E0FEFD
:107F5600740B2FF582E43402F5832274DF2FF58249
:107F6600E43401F583E022900006E0FAA3E0FB7C0E
:107F760000FFAE020226F878F67C027D017B012224
:107F86007D017BFF7E000226687C00AF03AE0212F5
:107F960026F8900006ECF0A3EDF022E4F0A3F0A39F
:107FA600F0A322E4FDFC900009E0F8A3E0F9A3E0C9
:107FB600FAA3E0FBC302290E7D017BFF7E007F0E44
:107FC600022668E530F0900274E004F022E4FCFD3D
:107FD600900009022932F0A37420F0A37403F0E4A0
:107FE600A3F022900244E090032D2290020B74022B
:107FF600F0A37432F0A32234FFFE7C007D06022635
:0F800600F8900274E0240B227B017A0279F622B3
:107E6D0012A525EF64016003027F3E43E11012A3CA
:107E7D009D8F30E530B40218900242E070129002EE
:107E8D007404F090020BE530F09002427401F02280
:107E9D00E5306403702A90020CE0FF64526004EF39
:107EAD00B4531D9002F3E07017900274E0FFD39469
:107EBD0003500D9002F37401F0127F56127FC92208
:107ECD00E530B4031B900246E07015128007127F57
:107EDD0059127FC99002467401F0E49002F3F0222A
:107EED00900246E064017037128007127F59E53029
:107EFD00F07B017A02790B7D04125AD4EF602F903A
:107F0D0003207401F090020CE09002F6F0E4A3F06F
:107F1D0090020DE0900276F090031F7402F0221291
:107F2D008007127F59127FC9E0D39408400A02A13D
:087F3D00CCE4900328F0A3F04E
:017F45002219
:09A60D007BFF7A5C79B302A153D2
:0B9D59009003ECEBF0A3EAF0A3E9F0AC
:109D64009003ECE0FBA3E0FAA3E0F912268E60195D
:109D74009003ECA3E475F001122763A9F0FA12260C
:099D84008EF564FF12000380D784
:019D8D0022B3
:10A1CC00E4900242F0900246F0900274F090020B80
:10A1DC00127FA2127FA2F0A3F0A3F090031FF0A3B2
:06A1EC00F09002F6F022E3
:09A61600EF6003C20122D201220F
:0CA5E200C200C201C227E4900405F02270
:109F47009003EFEBF0A3EAF0A3E9F020001D9003E4
:109F5700EFE0FBA3E0FAA3E0F8AC02AD037BFF7AE6
:0C9F67005C79B6122B82EF7002D200224F
:0892BA009001D5EEF0A3EFF0E6
:1092C2009001D5E07002A3E0603DE49001D7F0A3E5
:1092D200F09001D7E0FEA3E0FFE4FCFD7B1BFAF96E
:1092E200F8D312290E40109001D8E004F070E290F9
:1092F20001D7E004F080DA9001D6E024FFF090017B
:07930200D5E034FFF080B953
:019309002241
:10687800900000127FA174C8F0A37464F0E4A3F040
:1068880012943912A56412A5E212A1CCE4FF12A554
:106898004512899D7F4D124E087547007548287529
:1068A8004901754AE09003227401F0A374E0F07581
:1068B8004B00754C04A37407F0A304F07F9812A64C
:1068C8006EEF5410FFC4540F900005F0127E6D90C7
:1068D8000320E0B4010612800E127AE2900320E051
:1068E800B4010312A1CC302707128CC15002C22771
:1068F80012A525EF6009900003E0754300F544E513
:106908004464014543700DF543F544900004E07577
:106918004100F542E542640145417021900242E0A0
:10692800701B129635128F2690028BE0FF90028919
:10693800E06F6003124E08754100754214E54C641F
:1069480001454B701990024EE0C39401401090022B
:106958003AE0B40109754B00754C04127BD1E54847
:1069680064014547703C90024EE0703690023AE070
:10697800B4012F900321E0FF74017E00A80708806E
:1069880005C333CE33CED8F9FF129AF2900321E033
:1069980004F0754700754828E0C394064007E4F002
:1069A8008003129E5D900322E07004A3E0640170EE
:1069B8000F90022EF0A3F090032204F0A374E0F0ED
:1069C800900324E07004A3E06401701690023AE09A
:1069D800B4010F900005E0FF1294CDE4900324F079
:0869E800A3F043E1100268D4A2
:10943900E4F5B8F5A8F58775E127F5D0758922F522
:109449008812A3E712A61F12A366E4F58EF5A2D22D
:1094590099D2AF00F593F5944391035392FCF59596
:10946900F596F5B1F5B2F5B375B404C2E9C292C285
:0A94790093C294C295C296C29722D6
:088015009001DDEFF0A3EDF096
:10801D0078DF7C017A5C79BA7F06127F869001DD6C
:10802D00E014603014604714605E146075147003C2
:10803D000280C9240560030280E2E4F5EA9001DEC6
:10804D00E0FF7004F5DA800375DA42127F61F5FA0C
:10805D00E4F5F222E4F5EB9001DEE0FF7004F5DBD0
:10806D00800375DB42127F61F5FBE4F5F322E4F545
:10807D00EC9001DEE0FF7004F5DC800375DC42124C
:10808D007F61F5FCE4F5F422E4F5ED9001DEE0FF0F
:10809D007004F5DD800375DD42127F61F5FDE4F5B9
:1080AD00F522E4F5EE9001DEE0FF7004F5DE8003CD
:1080BD0075DE42127F61F5FEE4F5F622E4F5EF90F0
:1080CD0001DEE0FF7004F5DF800375DF42127F6192
:0580DD00F5FFE4F5F7DA
:0180E200227B
:0FA56400E4F5E9F5F975D90475D84043A68022CE
:054E0800900006EFF030
:104E0D0078077C007A5C79C0127FBE78157C007AB9
:104E1D005C79CE127FBE78237C007D017BFF7A5CAE
:104E2D0079DC7E007F08122668782B7C007A5C790D
:104E3D00E47F07127F8678327C007A5C79EB127FF3
:104E4D004678587C007A5D7911127F46787E7C0019
:104E5D007D017BFF7A5D7937127F4A78A47C007DD6
:104E6D00017BFF7A5D795D127F4A78CA7C007D01F6
:104E7D007BFF7A5D7983127F4A78F07C007D017B20
:104E8D00FF7A5D79A9127F4A78167C017D017BFF3F
:104E9D007A5D79CF127F4A783C7C017D017BFF7A68
:104EAD005D79F5127F4A78627C017D017BFF7A5E28
:104EBD00791B127F4A78887C017D017BFF7A5E79B0
:104ECD0041127F4A78AE7C017D017BFF7A5E796766
:104EDD00127F4AE49001D4F0900006E0FE24B6FF64
:104EED00C3940A400674FC2FFF8005E4900277F00E
:104EFD00900289EEF0EFB408005062904F0FF82841
:104F0D002873024F27024F2C024F33024F39024FA5
:104F1D0040024F4E024F5A024F629003338041E4DC
:104F2D00900333F0803DE490024580199002457462
:104F3D000180129002447401F090032D7404F080EE
:104F4D0022E4900244F090032D04F0801690027735
:104F5D007414F0800E9002777441F0800690032D4A
:104F6D007401F0900277E0FFC39401400890033282
:104F7D00EFF0025003900333E06401704990024555
:104F8D00E0601B127FE9B4010B7402F090032C74E6
:104F9D0004F080237402F090032C14F08019127F1A
:104FAD00E9B4010B7404F090032C7402F0800874C2
:104FBD0001F090032C04F090032DE0C454F0FF9009
:104FCD00032CE04F802C900245E0600590032D806E
:104FDD000C127FE9B4010B7404F090032C7402F0F1
:104FED0080087401F090032C04F090032DE0FFC4B1
:104FFD0054F0900332F090032AE060251299391293
:10500D007F7D7A00790712510F7A00791512510FB1
:10501D007A00792B7E007F0712266812800E127A95
:10502D00E2900332E01229DE505410507A12507E75
:10503D0014505620507C21509024505F4050874191
:10504D00507A42000050A28009127F7D7A00795873
:10505D008007127F7D7A007932127F4A9001F574B4
:10506D0003F07B0F7D01E4FF128DFA8032801D80ED
:10507D0012127F7D7A0079F08022127F7D7A01797C
:10508D00168019127F7D7A0079CA8010127F7D7A81
:10509D000079A48007127F7D7A007932127F4AE46D
:1050AD0090032AF012800E127AE2900332E0122958
:1050BD00DE50DD1050E71250EF1450DF2050EB2181
:1050CD0050FA2450E34050F34150FE420000510984
:1050DD008000E4FF8012E4FF80197F01800A7F01C8
:1050ED0080067F0180027F01128A98800F7F0180E8
:1050FD00027F01128A989001D47401F09001D4E0DE
:01510D00FFA2
:10510E00227E007F0E1226687B017A0279F6127AD1
:0A511E00E278F67C027D017B01229D
:029F1A00AB0793
:109F1C00E4FFFEEBC3943D4021EBD39461501BEB6B
:109F2C0024C3FFEE127FFDAA07EB24C3FFE4127FCC
:0A9F3C00FDAE05AF021280157F0193
:019F460022F8
:10910A00E4FBFAFD7F9012967CEEC4F854F0C8682E
:10911A00FEEFC4540F48FFEEC4F854F0C868FAEFE3
:10912A00C4540F48FB2091047A007B637C007D0ABB
:10913A00AF03AE021226F8D3ED9409EC940050075F
:10914A00ED2430900221F0AE02AF037C007D0A12BA
:09915A0026F8EF2430900226F003
:0191630022E9
:10769A00900006127FA112293E00000000E4FF12AA
:1076AA00A2EA900006EEF0A3EFF0900006E0FEA337
:1076BA00E0FF127FD37F6E7E02127FA94042E47FF1
:1076CA00A57E03FDFC900009E0F8A3A3A3E0D31272
:1076DA00290E9000095020E0F8A3A3A3C374A59B28
:1076EA00FF74039AFEE499FDE498FCE47B707A0146
:1076FA00F9F81227F1802B12293E00030AE880319B
:10770A007FF37E01127FA9401E900006E0FEA3E0EF
:10771A00FF746E9FFF74029EFE7C007DD21226E6E5
:10772A00E4FD127FD6800A90000912293E0000F279
:10773A0094E47B64FAF9F8900009E0FCA3E0FDA365
:10774A00E0FEA3E0FF12287C900006EEF0FAA3EF19
:10775A00F0FB127FD3D3EB940FEA9427400A9000F0
:10776A00067427F0A3740FF0900006E0FAA3E0FB7A
:10777A007C037DE8127F77EF243090021BF07C03B4
:10778A007DE8127F917D64127F6DEF243090021A9A
:10779A00F07D64127F8F7D0A127F6DEF2430900294
:0D77AA0019F07D0A127F8F2430900218F034
:0177B70022AF
:10921300127FF17450F0A37430F0A37461F0A3745F
:1092230030127FDC90000CF090000CE0FFD3940729
:109233005013127F51E0FFEE6F900213F090000C79
:10924300E004F080E3E490000CF090000CE0FFD326
:1092530094085010127F56E0FF12000390000CE0B8
:0492630004F080E6AD
:0192670022E4
:108FEA00127FF1744FF090023FE090020EF090026F
:108FFA0040E090020FF0900241E0900210127FDCF4
:10900A0090000CF090000CE0FFD394075013127FED
:10901A0051E0FFEE6F900213F090000CE004F08034
:10902A00E3E490000CF090000CE0FFD39408501099
:10903A00127F56E0FF12000390000CE004F080E675
:01904A002203
:10002E001010FFFFFFFFFFFFFFFFFFFFFFFFFFFFB0
:10003E00FFFFFFFFFFFFFFFFFFFFFFFFFFFFFFFFC2
:10004E00FFFFFFFFFFFFFFFFFFFFFFFFFFFFFFFFB2
:10005E00FFFFFFFFFFFFFFFFFFFFFFFFFFFFFFFFA2
:10006E00FFFFFFFFFFFFFFFFFFFFFFFFFFFFFFFF92
:10007E00FFFFFFFFFFFFFFFFFFFFFFFFFFFFFFFF82
:10008E00FFFFFFFFFFFFFFFFFFFFFFFFFFFFFFFF72
:10009E00FFFFFFFFFFFFFFFFFFFFFFFFFFFFFFFF62
:1000AE00FFFFFFFFFFFFFFFFFFFFFFFFFFFFFFFF52
:1000BE00FFFFFFFFFFFFFFFFFFFFFFFFFFFFFFFF42
:1000CE00FFFFFFFFFFFFFFFFFFFFFFFFFFFFFFFF32
:1000DE00FFFFFFFFFFFFFFFFFFFFFFFFFFFFFFFF22
:1000EE00FFFFFFFFFFFFFFFFFFFFFFFFFFFFFFFF12
:1000FE00FFFFFFFFFFFFFFFFFFFFFFFFFFFFFFFF02
:10010E00FFFFFFFFFFFFFFFFFFFFFFFFFFFFFFFFF1
:10011E00FFFFFFFFFFFFFFFFFFFFFFFFFFFFFFFFE1
:10012E00FFFF1010FFFFFFFFFFFFFFFFFFFFFFFFAF
:10013E00FFFFFFFFFFFFFFFFFFFFFFFFFFFFFFFFC1
:10014E00FFFFFFFFFFFFFFFFFFFFFFFFFFFFFFFFB1
:10015E00FFFFFFFFFFFFFFFFFFFFFFFFFFFFFFFFA1
:10016E00FFFFFFFFFFFFFFFFFFFFFFFFFFFFFFFF91
:10017E00FFFFFFFFFFFFFFFFFFFFFFFFFFFFFFFF81
:10018E00FFFFFFFFFFFFFFFFFFFFFFFFFFFFFFFF71
:10019E00FFFFFFFFFFFFFFFFFFFFFFFFFFFFFFFF61
:1001AE00FFFFFFFFFFFFFFFFFFFFFFFFFFFFFFFF51
:1001BE00FFFFFFFFFFFFFFFFFFFFFFFFFFFFFFFF41
:1001CE00FFFFFFFFFFFFFFFFFFFFFFFFFFFFFFFF31
:1001DE00FFFFFFFFFFFFFFFFFFFFFFFFFFFFFFFF21
:1001EE00FFFFFFFFFFFFFFFFFFFFFFFFFFFFFFFF11
:1001FE00FFFFFFFFFFFFFFFFFFFFFFFFFFFFFFFF01
:10020E00FFFFFFFFFFFFFFFFFFFFFFFFFFFFFFFFF0
:10021E00FFFFFFFFFFFFFFFFFFFFFFFFFFFFFFFFE0
:10022E00FFFFFFFF1010FFFFFFFFFFFFFFFFFFFFAE
:10023E00FFFFFFFFFFFFFFFFFFFFFFFFFFFFFFFFC0
:10024E00FFFFFFFFFFFFFFFFFFFFFFFFFFFFFFFFB0
:10025E00FFFFFFFFFFFFFFFFFFFFFFFFFFFFFFFFA0
:10026E00FFFFFFFFFFFFFFFFFFFFFFFFFFFFFFFF90
:10027E00FFFFFFFFFFFFFFFFFFFFFFFFFFFFFFFF80
:10028E00FFFFFFFFFFFFFFFFFFFFFFFFFFFFFFFF70
:10029E00FFFFFFFFFFFFFFFFFFFFFFFFFFFFFFFF60
:1002AE00FFFFFFFFFFFFFFFFFFFFFFFFFFFFFFFF50
:1002BE00FFFFFFFFFFFFFFFFFFFFFFFFFFFFFFFF40
:1002CE00FFFFFFFFFFFFFFFFFFFFFFFFFFFFFFFF30
:1002DE00FFFFFFFFFFFFFFFFFFFFFFFFFFFFFFFF20
:1002EE00FFFFFFFFFFFFFFFFFFFFFFFFFFFFFFFF10
:1002FE00FFFFFFFFFFFFFFFFFFFFFFFFFFFFFFFF00
:10030E00FFFFFFFFFFFFFFFFFFFFFFFFFFFFFFFFEF
:10031E00FFFFFFFFFFFFFFFFFFFFFFFFFFFFFFFFDF
:10032E00FFFFFFFFFFFF1010FFFFFFFFFFFFFFFFAD
:10033E00FFFFFFFFFFFFFFFFFFFFFFFFFFFFFFFFBF
:10034E00FFFFFFFFFFFFFFFFFFFFFFFFFFFFFFFFAF
:10035E00FFFFFFFFFFFFFFFFFFFFFFFFFFFFFFFF9F
:10036E00FFFFFFFFFFFFFFFFFFFFFFFFFFFFFFFF8F
:10037E00FFFFFFFFFFFFFFFFFFFFFFFFFFFFFFFF7F
:10038E00FFFFFFFFFFFFFFFFFFFFFFFFFFFFFFFF6F
:10039E00FFFFFFFFFFFFFFFFFFFFFFFFFFFFFFFF5F
:1003AE00FFFFFFFFFFFFFFFFFFFFFFFFFFFFFFFF4F
:1003BE00FFFFFFFFFFFFFFFFFFFFFFFFFFFFFFFF3F
:1003CE00FFFFFFFFFFFFFFFFFFFFFFFFFFFFFFFF2F
:1003DE00FFFFFFFFFFFFFFFFFFFFFFFFFFFFFFFF1F
:1003EE00FFFFFFFFFFFFFFFFFFFFFFFFFFFFFFFF0F
:1003FE00FFFFFFFFFFFFFFFFFFFFFFFFFFFFFFFFFF
:10040E00FFFFFFFFFFFFFFFFFFFFFFFFFFFFFFFFEE
:10041E00FFFFFFFFFFFFFFFFFFFFFFFFFFFFFFFFDE
:10042E00FFFFFFFFFFFFFFFF1010FFFFFFFFFFFFAC
:10043E00FFFFFFFFFFFFFFFFFFFFFFFFFFFFFFFFBE
:10044E00FFFFFFFFFFFFFFFFFFFFFFFFFFFFFFFFAE
:10045E00FFFFFFFFFFFFFFFFFFFFFFFFFFFFFFFF9E
:10046E00FFFFFFFFFFFFFFFFFFFFFFFFFFFFFFFF8E
:10047E00FFFFFFFFFFFFFFFFFFFFFFFFFFFFFFFF7E
:10048E00FFFFFFFFFFFFFFFFFFFFFFFFFFFFFFFF6E
:10049E00FFFFFFFFFFFFFFFFFFFFFFFFFFFFFFFF5E
:1004AE00FFFFFFFFFFFFFFFFFFFFFFFFFFFFFFFF4E
:1004BE00FFFFFFFFFFFFFFFFFFFFFFFFFFFFFFFF3E
:1004CE00FFFFFFFFFFFFFFFFFFFFFFFFFFFFFFFF2E
:1004DE00FFFFFFFFFFFFFFFFFFFFFFFFFFFFFFFF1E
:1004EE00FFFFFFFFFFFFFFFFFFFFFFFFFFFFFFFF0E
:1004FE00FFFFFFFFFFFFFFFFFFFFFFFFFFFFFFFFFE
:10050E00FFFFFFFFFFFFFFFFFFFFFFFFFFFFFFFFED
:10051E00FFFFFFFFFFFFFFFFFFFFFFFFFFFFFFFFDD
:10052E00FFFFFFFFFFFFFFFFFFFF1010FFFFFFFFAB
:10053E00FFFF00000000FFFFFFFFFFFFFFFFFFFFB9
:10054E00FF000000000000FFFFFFFFFFFFFFFFFFA7
:10055E000000020202020000FFFFFFFFFFFFFFFF8D
:10056E000000020202020000FFFFFFFFFFFFFF007C
:10057E00000202000002020000FFFFFFFFFFFF006B
:10058E00000202000002020000FFFFFFFFFF00005A
:10059E0002020000000002020000FFFFFFFF000049
:1005AE00020200FFFF0002020000FFFFFF00000238
:1005BE00020000FFFF000002020000FFFF00000229
:1005CE000200000000000002020000FF0000020214
:1005DE0002020202020202020202000000000202F5
:1005EE0002020202020202020202000000000202E5
:1005FE0000000000000000000202000000000202E5
:10060E000000FFFFFFFF00000202000000000202D8
:10061E000000FFFFFFFF00000202000000000000CC
:10062E000000FFFFFFFF00000000000010100000A0
:10063E00000000000000000000000000FFFF0002AC
:10064E0002020202020202020202000000FF000287
:10065E000202020202020202020202000000000076
:10066E000002020000000000020202020000FF0071
:10067E0000020200FFFFFF00000202020000FF0066
:10068E0000020200FFFFFF00000202020000FF0056
:10069E0000020200000000000202020000FFFF0044
:1006AE00000202020202020202020000FFFFFF002D
:1006BE00000202020202020202020000FFFFFF001D
:1006CE0000020200000000000202020000FFFF0014
:1006DE0000020200FFFFFF00000202020000FF0006
:1006EE0000020200FFFFFF000002020200000000F5
:1006FE0000020200000000000202020200000002DE
:10070E0002020202020202020202020000000002C3
:10071E0002020202020202020202000000FF0000B8
:10072E00000000000000000000000000FFFF10109D
:10073E00FFFFFF00000000000000000000FFFFFFB1
:10074E00FFFF00000202020202020202000000FF8E
:10075E00FF00000202020202020202020200000078
:10076E000000000202000000000000020202000071
:10077E0000000202020000FFFFFF00000202000064
:10078E00000002020000FFFFFFFFFF000202000058
:10079E00000002020000FFFFFFFFFFFF000000004D
:1007AE00000002020000FFFFFFFFFFFFFFFFFFFF41
:1007BE00000002020000FFFFFFFFFFFFFFFFFFFF31
:1007CE00000002020000FFFFFFFFFF00000000001C
:1007DE00000002020000FFFFFFFFFF000202000008
:1007EE0000000202000000FFFFFF000002020000F6
:1007FE0000000202020000000000000202020000DF
:10080E00FF000002020202020202020202000000C7
:10081E00FFFF00000202020202020202000000FFBD
:10082E00FFFFFF0000000000000000000000FFFFBF
:10083E001010000000000000000000000000FFFF8C
:10084E00FFFF00000202020202020202020000FF8B
:10085E00FFFF000002020202020202020202000078
:10086E00FFFF000002020000000000020202000072
:10087E00FFFF000002020000FFFF00000202000066
:10088E00FFFF000002020000FFFF00000202000056
:10089E00FFFF000002020000000000020202000042
:1008AE00FFFF00000202020202020202020000FF2B
:1008BE00FFFF00000202020202020202000000FF1D
:1008CE00FFFF000002020000020202000000FFFF14
:1008DE00FFFF000002020000000202020000FFFF04
:1008EE00FFFF00000202000000000202020000FFF3
:1008FE00FFFF000002020000FF00000202020000E3
:10090E00FFFF000002020000FFFF000002020200D3
:10091E0000FF000002020000FFFFFF0000020202C3
:10092E0000FF000000000000FFFFFFFF00000000BE
:10093E0000FF101000000000FFFFFFFFFFFFFFFF92
:10094E00000000000000000000FFFFFFFFFFFF009F
:10095E000000000000000C0C0000FFFFFFFF000075
:10096E000C0C000000000C0C0C0000000000000C31
:10097E000C0C000000000C0C0C0C000000000C0C09
:10098E000C0C000000000C0C0C0C0C0C0C0C0C0CC9
:10099E000C0C000000000C0C0C0C0C0C0C0C0C0CB9
:1009AE000C0C000000000C0C0C000C0C0C0C000CC1
:1009BE000C0C000000000C0C0C00000C0C00000CC9
:1009CE000C0C000000000C0C0C0000000000000CD1
:1009DE000C0C000000000C0C0C0000000000000CC1
:1009EE000C0C000000000C0C0C0000FFFF00000CB3
:1009FE000C0C000000000C0C0C0000FFFF00000CA3
:100A0E000C0C000000000C0C0C0000FFFF00000C92
:100A1E000C0C000000000C0C0C0000FFFF00000C82
:100A2E000C0C000000000000000000FFFF000000A2
:100A3E00000000001010FF00000000000000000089
:100A4E000000000000FFFF0000020202020202028C
:100A5E000202020000FFFF00000202020202020276
:100A6E000202020000FFFF00000000000000020270
:100A7E000200000000FFFFFFFFFFFFFF0000020269
:100A8E00020000FFFFFFFFFFFFFFFFFF000002025B
:100A9E00020000FFFFFFFFFFFFFFFFFF000002024B
:100AAE00020000FFFFFFFFFFFFFFFFFF000002023B
:100ABE00020000FFFFFFFFFFFFFFFFFF000002022B
:100ACE00020000FFFFFFFFFFFFFFFFFF000002021B
:100ADE00020000FFFFFFFF00000000FF0000020207
:100AEE00020000FFFFFFFF000202000000000202F2
:100AFE00020000FFFFFFFF000202020000020202DE
:100B0E00020000FFFFFFFF000002020202020202CB
:100B1E00000000FFFFFFFFFF0000020202020200C2
:100B2E000000FFFFFFFFFFFFFF00000000000000BE
:100B3E0000FFFFFFFFFF1010FFFFFFFFFFFFFFFF94
:100B4E00FFFFFFFFFFFFFFFFFFFFFFFFFF000000A4
:100B5E0000000000FFFFFFFFFFFFFFFF000001018D
:100B6E0001010000FFFFFFFFFFFFFF000001010179
:100B7E0001010000FFFFFFFFFFFF00000101010167
:100B8E00010000FFFFFFFFFFFF0000010101010157
:100B9E000000000000000000000001010101010141
:100BAE00010101010101000000010101010101012A
:100BBE00010101010101000000010101010101011A
:100BCE00010101010101000000000101010101010B
:100BDE000101010101010000FF00000101010101FD
:100BEE000000000000000000FFFF000001010101F5
:100BFE00010000FFFFFFFFFFFFFFFF0000010101EB
:100C0E0001010000FFFFFFFFFFFFFFFF00000101DA
:100C1E0001010000FFFFFFFFFFFFFFFFFF000000CD
:100C2E0000000000FFFFFFFFFFFFFFFFFFFFFFFFC2
:100C3E00FFFFFFFFFFFFFFFF1010FFFFFFFFFFFF94
:100C4E00FFFFFFFFFFFFFFFFFFFFFFFFFFFF0000A4
:100C5E000000000000FFFFFFFFFFFFFFFFFF00008F
:100C6E00010101010000FFFFFFFFFFFFFFFF00007A
:100C7E0001010101010000FFFFFFFFFFFFFFFF0069
:100C8E000001010101010000FFFF00000000000053
:100C9E00000001010101010000FF0000010101013E
:100CAE00010101010101010100000000010101012A
:100CBE000101010101010101010000000101010119
:100CCE00010101010101010101000000000000000D
:100CDE00000001010101010000FF00000000000002
:100CEE00000001010101010000FFFFFFFFFFFF00F7
:100CFE000001010101010000FFFFFFFFFFFF0000E7
:100D0E0001010101010000FFFFFFFFFFFFFF0000D7
:100D1E00010101010000FFFFFFFFFFFFFFFF0000C9
:100D2E000000000000FFFFFFFFFFFFFFFFFFFFFFC0
:100D3E00FFFFFFFFFFFFFFFFFFFF1010FFFFFFFF93
:100D4E000000000000000000FFFFFFFFFFFFFFFF9D
:100D5E000000010101010000FFFFFFFFFFFFFFFF89
:100D6E000000010101010000FFFFFFFFFFFFFFFF79
:100D7E000000010101010000FFFFFFFFFFFFFFFF69
:100D8E000000010101010000FFFFFFFF0000000055
:100D9E00000001010101000000000000000001013F
:100DAE00000001010101000001010000000001012D
:100DBE00010001010101000101010000000001011B
:100DCE000101010101010101010100000000010109
:100DDE00010101010101010101010000FF000001FB
:100DEE000101010101010101010000FFFFFF0000EF
:100DFE0001010101010101010000FFFFFFFFFF00E2
:100E0E00000101010101010000FFFFFFFFFFFFFFD5
:100E1E000000010101010000FFFFFFFFFFFFFFFFC8
:100E2E00FF000001010000FFFFFFFFFFFFFFFFFFBC
:100E3E00FFFF00000000FFFFFFFFFFFF1010FFFF8E
:100E4E00FFFFFFFFFFFF0000000000000000FFFF9C
:100E5E00FFFFFFFFFF000002020202020000FFFF81
:100E6E00FFFFFFFF00000202020202020000FFFF6E
:100E7E00FFFFFF000002020200000202000000005D
:100E8E00000000000202020000000202000000004A
:100E9E000202020202020200FF0002020000000033
:100EAE000202020202020200FF0002020000000023
:100EBE000202000000020200FF0002020000000019
:100ECE00020200FF00020200FF000202000000000A
:100EDE000202000000020200FF00020200000000F9
:100EEE000202020202020200FF00020200000000E3
:100EFE0002020202020202000000020200000000D2
:100F0E000000000000020202000002020000FFFFCB
:100F1E00FFFFFFFF00000202020202020000FFFFBD
:100F2E00FFFFFFFFFF000002020202020000FFFFB0
:100F3E00FFFFFFFFFFFF0000000000000000101089
:100F4E000000000000FFFFFFFFFFFF000000000099
:100F5E000001010100FFFFFFFFFFFF000101010083
:100F6E000001010100FFFFFFFFFFFF000101010073
:100F7E000001010100FFFFFFFFFFFF000101010063
:100F8E000001010100FFFFFFFFFFFF000101010053
:100F9E00000101010000FFFFFFFF00000101010041
:100FAE00000101010100FFFFFFFF0001010101002F
:100FBE00000001010100FFFFFFFF00010101000021
:100FCE0000000101010000FFFF000001010100000F
:100FDE00FF0000010101000000000101010000FFFF
:100FEE00FFFF000001010100000101010000FFFFF1
:100FFE00FFFF000000010100000101000000FFFFE3
:10100E00FFFFFF00000101010101010000FFFFFFD2
:10101E00FFFFFFFF0000010101010000FFFFFFFFC6
:10102E00FFFFFFFFFF00000101000000FFFFFFFFB9
:10103E00FFFFFFFFFFFF0000000000FFFFFFFFFFAD
:10104E00101000000000000000FFFFFFFFFFFFFF79
:10105E00FFFF00000101010000FFFFFFFFFFFFFF88
:10106E00FFFF00000101010000FFFFFFFFFFFFFF78
:10107E00FFFF00000101010000FFFFFFFFFFFFFF68
:10108E00FFFF00000101010000FFFFFFFFFFFFFF58
:10109E00FFFF00000101010000FFFFFFFFFFFFFF48
:1010AE00FFFF00000101010000FFFFFFFFFFFFFF38
:1010BE00FFFF00000101010000FFFFFFFFFFFFFF28
:1010CE00FFFF00000101010000FFFFFFFFFFFFFF18
:1010DE00FFFF00000101010000FFFFFFFFFF000006
:1010EE00000000000101010000FFFFFFFFFF0000F4
:1010FE00000000000101010000FFFFFFFF000001E2
:10110E0000000000010101000000000000000101CC
:10111E0000000000010101010101010101010101B5
:10112E0000000000010101010101010101010101A5
:10113E0000000000000000000000000000000000A1
:10114E0000001010FFFFFFFFFFFFFFFFFFFFFFFF7D
:10115E00FFFFFFFFFFFFFFFFFFFFFFFFFFFFFFFF91
:10116E00FFFFFFFFFFFFFFFFFFFFFFFFFFFFFFFF81
:10117E00FFFFFFFFFFFFFFFF00000000000000FF6A
:10118E00FFFFFFFFFFFFFF00000001010100000055
:10119E00FFFFFFFFFFFF0000010101010101010040
:1011AE0000FFFFFFFF00000101010000000101012F
:1011BE000000FFFF00000001010000FF0000010120
:1011CE00000000FF00000101010000FF000001010E
:1011DE00010000FF00000101010000FF00000101FD
:1011EE00010000FF00000101010000FF00000101ED
:1011FE00010000FF00000001010000FF00000101DE
:10120E00000000FFFF0000010101000000010101CC
:10121E000000FFFFFFFF00000101010101010100BD
:10122E0000FFFFFFFFFFFF000000010101000000B3
:10123E00FFFFFFFFFFFFFFFF00000000000000FFA9
:10124E00FFFFFFFF1010FFFFFFFFFFFFFFFFFFFF7E
:10125E00FFFFFFFFFFFFFFFFFFFF0000000000008A
:10126E000000FFFFFFFFFFFF00000000020202026E
:10127E00000000FFFFFFFF00000002020202020258
:10128E0002020000FFFFFF00000202020000000049
:10129E000202020000FFFF00000202020000FF0037
:1012AE000000000000FFFF0000000202020200002A
:1012BE000000FFFFFFFFFFFFFF000002020202021D
:1012CE00020000FFFFFFFFFFFFFF00000000020211
:1012DE0002020000FFFFFF0000000000FFFF000001
:1012EE000202020000FFFF000002020200000000E6
:1012FE000202020000FFFF000000020202020202D0
:10130E0002020000FFFFFFFFFF00000002020202C8
:10131E00000000FFFFFFFFFFFFFFFF0000000000C7
:10132E000000FFFFFFFFFFFFFFFFFFFFFFFFFFFFBD
:10133E00FFFFFFFFFFFFFFFFFFFFFFFFFFFFFFFFAF
:10134E00FFFFFFFFFFFF1010FFFFFFFFFFFFFFFF7D
:10135E00FFFFFFFFFFFFFFFFFFFFFFFFFFFFFFFF8F
:10136E00FFFFFFFFFFFFFFFFFFFFFFFFFFFFFFFF7F
:10137E00FFFFFFFFFFFFFFFFFFFFFFFFFFFFFFFF6F
:10138E00FFFFFFFFFFFFFFFFFFFFFFFFFFFFFFFF5F
:10139E00FFFFFFFFFFFFFFFFFFFFFFFFFFFFFFFF4F
:1013AE00FFFFFFFFFFFFFFFFFFFFFFFFFFFFFFFF3F
:1013BE00FFFFFFFFFFFFFFFFFFFFFFFFFFFFFFFF2F
:1013CE00FFFFFFFFFFFFFFFF1010FFFFFFFFFFFFFD
:1013DE00FFFFFFFFFFFFFFFFFFFFFFFFFFFFFFFF0F
:1013EE00FFFFFFFFFFFFFFFFFFFFFFFFFFFFFFFFFF
:1013FE00FFFFFFFFFFFFFFFFFFFFFFFFFFFFFFFFEF
:10140E00FFFFFFFFFFFFFFFFFFFFFFFFFFFFFFFFDE
:10141E00FFFFFFFFFFFFFFFFFFFFFFFFFFFFFFFFCE
:10142E00FFFFFFFFFFFFFFFFFFFFFFFFFFFFFFFFBE
:10143E00FFFFFFFFFFFFFFFFFFFFFFFFFFFFFFFFAE
:10144E00FFFFFFFFFFFFFFFFFFFF1010FFFFFFFF7C
:10145E00FFFFFFFFFFFFFFFFFFFFFFFFFFFFFFFF8E
:10146E00FFFFFFFFFFFFFFFFFFFFFFFFFFFFFFFF7E
:10147E00FFFFFFFFFFFFFFFFFFFFFFFFFFFFFFFF6E
:10148E00FFFFFFFFFFFFFFFFFFFFFFFFFFFFFFFF5E
:10149E00FFFFFFFFFFFFFFFFFFFFFFFFFFFFFFFF4E
:1014AE00FFFFFFFFFFFFFFFFFFFFFFFFFFFFFFFF3E
:1014BE00FFFFFFFFFFFFFFFFFFFFFFFFFFFFFFFF2E
:1014CE00FFFFFFFFFFFFFFFFFFFFFFFF1010FFFFFC
:1014DE00FFFFFFFFFFFFFFFFFFFFFFFFFFFFFFFF0E
:1014EE00FFFFFFFFFFFFFFFFFFFFFFFFFFFFFFFFFE
:1014FE00FFFFFFFFFFFFFFFFFFFFFFFFFFFFFFFFEE
:10150E00FFFFFFFFFFFFFFFFFFFFFFFFFFFFFFFFDD
:10151E00FFFFFFFFFFFFFFFFFFFFFFFFFFFFFFFFCD
:10152E00FFFFFFFFFFFFFFFFFFFFFFFFFFFFFFFFBD
:10153E00FFFFFFFFFFFFFFFFFFFFFFFFFFFFFFFFAD
:10154E00FFFFFFFFFFFFFFFFFFFFFFFFFFFF10107B
:10155E00FFFFFFFFFFFFFFFFFFFFFFFFFFFFFFFF8D
:10156E00FFFFFFFFFFFFFFFFFFFFFFFFFFFFFFFF7D
:10157E00FFFFFFFFFFFFFFFFFFFFFFFFFFFFFFFF6D
:10158E00FFFFFFFFFFFFFFFFFFFFFFFFFFFFFFFF5D
:10159E00FFFFFFFFFFFFFFFFFFFFFFFFFFFFFFFF4D
:1015AE00FFFFFFFFFFFFFFFFFFFFFFFFFFFFFFFF3D
:1015BE00FFFFFFFFFFFFFFFFFFFFFFFFFFFFFFFF2D
:1015CE00FFFFFFFFFFFFFFFFFFFFFFFFFFFFFFFF1D
:1015DE001010FFFFFF0000FFFFFFFFFFF000000FE6
:1015EE00FFFFFFFF00222200FFFFFFFF002222006D
:1015FE00FFFFFFF0022002200FFFFFF0022002206B
:10160E000FFFFF002200002200FFFF00220FF0223A
:10161E0000FFF002200FF002200FF0022000000267
:10162E00200F002222222222220000222222222207
:10163E0022000022000000002200002200FFFF0016
:10164E002200002200FFFF002200000000FFFF002A
:10165E000000101000000000000000FF02222222F5
:10166E002222000F0222222222222000000220002B
:10167E0000222200F00220FFF0022200F00220FFE2
:10168E00F0022200F00220000022200FF00222229F
:10169E00222200FFF0022222222200FFF00220006E
:1016AE000022200FF00220FFF0022200F00220FFA5
:1016BE00F00222000002200000222200022222223A
:1016CE0022222000022222222222000F00000000ED
:1016DE00000000FF1010101010101010101010103D
:0A16EE001010101010101010101052
:109BDA001226A7FF900404E02F9001F5F0229001CD
:109BEA00EFE0FBA3E0FAA3E0F922F09001EFE0FB3B
:109BFA00A3E475F001122763A9F0FA02268E9001F8
:089C0A00E6E0D364809480229F
:06A65C00E4900404F0226A
:06A66200900404EFF02259
:0B63E2009001E7EFF0A3ECF0A3EDF05A
:1063ED009001E7E0FF25E0F0E02408F09001EEF0E9
:1063FD009001E8E0FEA3E07803C333CE33CED8F9A5
:10640D00F0EE9001E8F0A3E02408F09001E8E0340C
:10641D0000F0AF037E007C017D021226E6742E2F64
:10642D00F974003EFA9001EF74FFF0A3EAF0A3E9CE
:10643D00129BF49001EA129BF49001EBF0E4A3F0AF
:10644D009001EAE0FF9001ECE0C39F400302652953
:10645D00E4A3F09001EBE0FF9001EDE0C39F40035A
:10646D0002650A129BE812268E129BDDE4FB7D026B
:10647D00FF128DFA129BE8900001129BDA7B01123C
:10648D006553900002129BDA7B0212655390000354
:10649D00129BDA7B031265669001F57480F07B0424
:1064AD001265669001F0E475F00412274D9001EE2F
:1064BD00E09001F5F07B0512656EA3E09001F5F01B
:1064CD007B0712656EE07E007802C333CE33CED8E3
:1064DD00F912652A12657920E7FA9001E8E025E0C6
:1064ED0025E0440812652A12657920E7FA9001EE3D
:1064FD00E004F09001EDE02404F00264609001E707
:10650D00E09001EEF09001E9E004F070069001E8F2
:0C651D00E004F09001ECE004F002644D9A
:10652900229001F5F07B097D02E4FF128DFA7B0AC6
:106539007D02E4FF128890EF543F44809001F5F00A
:106549007B0A7D02E4FF128DFA227D02E4FF128D9F
:10655900FA9001EFE0FBA3E0FAA3E0F9227D02E45F
:10656900FF128DFA227D02E4FF128DFA9001E822D2
:0B6579007B0A7D02E4FF128890EF22F5
:0B904B009001E0EFF0A3EDF0A3EBF0CC
:10905600A3129BEB12A4299001E6EFF0C36480945F
:109066008040429001E0E030E0339001E1E0FFA370
:10907600E0FD7C00A3129BEB12268EFB1263E290AE
:1090860001E6E014F09001E4E475F00112274D903A
:1090960001E1E02402F0129C0850CF8005129C08E2
:0590A60050FB12A6863C
:0190AB0022A2
:10A2CA000500000600000700000800000900000A57
:10A2DA00000012000020000B000C000D000E000010
:036D0D0001210061
:1081A600900383E075F003A424CAF974A235F0FAAB
:1081B6009001E374FFF0A3229001DDE0FBA3E0FA57
:1081C600A3E0F922900383E0FF74017E00A807086C
:1081D60022FF900390E0FDEF5D2274A2F0A374E904
:1081E600F0229000010226A774A2F0A374D6F02212
:1081F60074A2F0A374E7F022EAF0A3E9F0E4FB220C
:108206009000020226A712268E540C1313543FF533
:108216003022EAF0A3E9F07B12227B017D127C007A
:10822600227D197B057C007F3A22EBF0A3EAF0A3BE
:10823600E9F0229000030226A77B017D0F7C002235
:10824600EAF0A3E9F07B0F227B01E4FDFC7F1C2210
:088256007B01E4FDFC7F4122E5
:109357001271F612A65C7F0412A6807F0312A68301
:10936700E4F530AF3012938D0530E530C3940640F5
:10937700F27F01129CB77FFF12A6837F0812938D9D
:05938700E4900380F0FA
:10938C002212A30A9001E1E4F0A37426F07B5AE4C4
:07939C00FDFCFF1283C1225A
:1043D3009001DD1282307F0212A6807FFF12A68336
:1043E300900382E01229DE441811442721445B2202
:1043F300448F3144CD33450834454341459391457A
:10440300AAA145D6A245FFB14644B34685B446C7E3
:10441300C1000047241281BE12268E20E103024709
:104423002402459F1281BE12268E30E10D1281A611
:104433001281FE7DFF7F0112904B1281BE1281E833
:1044430020E1030247249003841281A9EAF0A3E93F
:10445300F07B1D7D5D02471F1281BE12268E30E167
:10446300111281A6EAF0A3E9F07B0E7D487F0112C9
:10447300904B1281BE1281E820E10302472490038E
:10448300841281A91281FE7D1402471F1281BE127C
:10449300268E30E1091281A61281FE124771128124
:1044A300BE1281E830E1099003841281A9124752B8
:1044B3001281BE12820620E1030247249003851273
:1044C30081A91282467D3E02471F1281BE12268EAB
:1044D30030E1061281A61247251281BE1281E8300F
:1044E300E1099003841281A91247431281BE12820B
:1044F3000620E1030247249003851281A912824614
:104503007D3E02471F1281BE12268E30E1061281C4
:10451300A61247251281BE1281E830E10990038477
:104523001281A91247431281BE12820620E10302BF
:1045330047249003851281A91282467D1402471FE6
:104543001281BE12268E30E1061281A61247341262
:1045530081BE1281E830E10C9003841281A912819B
:10456300FE1247691281BE12820630E1099003856B
:104573001281A91247521281BE12823920E103022D
:1045830047249003861281A91282467D3E02471F6B
:104593001281BE12268E20E1030247241281A61245
:1045A30081FE7D2902471F1281BE12268E30E1094A
:1045B3001281A61281FE1247711281BE1281E82078
:1045C300E1030247249003841281A91282187D29F2
:1045D30002471F1281BE12268E30E1061281A612F7
:1045E30047341281BE1281E820E10302472490037D
:1045F300841281A91281FE7D3E02471F1281BE12E1
:10460300268E30E10D1281A61281FE7D297F0112D3
:10461300904B1281BE1281E830E10C900384128129
:10462300A91282181247611281BE12820620E10389
:104633000247249003851281A91282187D3E024706
:104643001F1281BE12268E30E1091281A61281FE4D
:104653001247611281BE1281E830E10C900384128B
:1046630081A91281FE1247691281BE12820620E1DE
:10467300030247249003851281A91282187D3E020A
:10468300471F1281BE12268E30E1091281A61281C4
:10469300FE1247791281BE1281E830E11090038443
:1046A3001281A91281FE7D3E7F0112904B1281BEC1
:1046B30012820630E16B9003851281A91282187D64
:1046C3001402471F1281BE12268E30E1091281A601
:1046D3001281FE1247791281BE1281E830E11090F7
:1046E30003841281A91281FE7D3E7F0112904B1239
:1046F30081BE12820630E1109003851281A91282D5
:10470300187D147F0112904B1281BE12823930E161
:10471300109003861281A91282187D3E7F011290A8
:104723004B22EAF0A3E9F0E4FB7D147F0112904BE6
:1047330022EAF0A3E9F0E4FB7D147F0112904B22FF
:10474300EAF0A3E9F0E4FB7D3E7F0112904B22EAFD
:10475300F0A3E9F07B0F7D147F0112904B227D14AF
:104763007F0112904B227D3E7F0112904B227D29C7
:0E4773007F0112904B227D147F0112904B2289
:08A64C00900381E04480F0223C
:109635007B787D01E4FF128890EF540FFF90039033
:10964500F0900381E06F602ED2277B31E4FDFF129D
:109655008890EF547F9001F5F07B31E4FDFF128D8A
:10966500FA7F4D12A6807F4012A66212A65C900377
:0796750090E0900381F02258
:066B5A009001DD12823003
:106B60007F4112A680900382E01229DE6B94116BA4
:106B7000A5216BD9226C10316C33336C50346B947B
:106B8000916BA5A16BD9A26C10B16C33B36C50B4EE
:106B900000006C8D9001DD1281C112820C60030235
:106BA0006C1B026C299001DD1281C112820C6012F3
:106BB000126C8E1281B51281FE7D1C7F0112904BEA
:106BC000800612824E12825E9001DD1281C1128116
:106BD000E812820F6037026C5E9001DD1281C112F3
:106BE000820C6012126C8E1281B51281FE7D1C7FA8
:106BF0000112904B800612824E12825E9001DD12CD
:106C000081C11281E812820F6003026C5E026C8304
:106C10009001DD1281C112820C600E126CA71281EC
:106C2000B51281FE7D31026C7E7B01E4FDFC7F317B
:106C3000026C8A9001DD1281C112820C600D126C0F
:106C4000A71281B51281FE7D1C803312824E803ADC
:106C50009001DD1281C11281E812820F60257B0252
:106C6000E4FDFCFF12825EE53025E0FFE433FE74B4
:106C7000DF2FF974A23E1281B51281FE7D467F019D
:0D6C800002904B7B01E4FDFC7F4612825E1A
:106C8D00227B02E4FDFCFF12825EE53025E0FFE48D
:106C9D0033FE74DF2FF974A23E227B02E4FDFCFF6C
:106CAD0012825EE53025E0FFE433FE74DF2FF974C8
:036CBD00A23E22D2
:1031F2009001DD1282307F0C12A680900382E012D1
:1032020029DE32321132442132702232993132E4D3
:103212003333273433764133E4913401A1343CA271
:103222003475B134D2B33527B43582C1000035FBD1
:103232009001DD1281C112268E30E0030233F002CA
:1032420033FA9001DD1281C112268E30E00B128119
:10325200B61281EE12367E80031236539001DD12D1
:1032620081C11281E830E003023427023434900134
:10327200DD1281C112268E30E0081281B61235FCB1
:10328200800312361E9001DD1281C11281E830E006
:103292000302346202346F9001DD1281C112268E64
:1032A20030E00B1281B61281EE12367E80031236A6
:1032B200539001DD1281C11281E830E00B1281B618
:1032C2001281EE1236A8800812823F7F1712825EA8
:1032D2009001DD1281C112820630E0030233D20274
:1032E20033DD9001DD1281C112268E30E008128199
:1032F200B61235FC800312361E9001DD1281C11216
:1033020081E830E00B1281B61281EE123669800339
:103312001236299001DD1281C112820630E00302C9
:1033220033D20233DD9001DD1281C112268E30E0EC
:10333200081281B612360D80031236349001DD1266
:1033420081C11281E830E00B1281B61281EE123691
:103352006980031236299001DD1281C11282063082
:10336200E00B1281B61281EE7B0F0235727B017D7A
:103372000F02357B9001DD1281C112268E30E008EA
:103382001281B612360D80031236349001DD12819D
:10339200C11281E830E00B1281B61281EE1236932F
:1033A200800312365E9001DD1281C112820630E086
:1033B2000B1281B61281EE1236A8800812823F7F6C
:1033C2001712825E9001DD1281C112823930E00B48
:1033D2001281B61281EE7B0F02346A7B017D0F02ED
:1033E20034CB9001DD1281C112268E30E00A1281A7
:1033F200B61281EEE4FB80357B01E4FDFC80369061
:1034020001DD1281C112268E30E00B1281B61281CB
:10341200EE1236B280031236889001DD1281C1129B
:1034220081E830E00D1281B61281EE7B0F7D2C0215
:1034320035EE12823F7F2C0235F89001DD1281C1F8
:1034420012268E30E00B1281B61281EE12363F80C8
:10345200031236739001DD1281C11281E830E00D52
:103462001281B61281EEE4FB7D410235EE128256E4
:103472000235F89001DD1281C112268E30E00B1266
:1034820081B61281EE1236B280031236889001DDC7
:103492001281C11281E830E00B1281B61281EE1264
:1034A20036BC80081282207F1712825E9001DD12E4
:1034B20081C112820630E00D1281B61281EE7B12BA
:1034C2007D410235EE7B017D127C007F410235F8A1
:1034D2009001DD1281C112268E30E00B1281B612EC
:1034E20081EE12363F80031236739001DD1281C1E4
:1034F2001281E830E00B1281B61281EE123693800F
:103502000312365E9001DD1281C112820630E00D97
:103512001281B61281EE7B127D410235EE128220BB
:103522007F410235F89001DD1281C112268E30E012
:103532000B1281B61281EE123649800312369D902B
:1035420001DD1281C11281E830E00B1281B61281D5
:10355200EE1236C6800612825612825E9001DD128B
:1035620081C112820630E00D1281B61281EE7B1209
:103572007D170235EE7B017D127C007F170235F844
:103582009001DD1281C112268E30E00B1281B6123B
:1035920081EE123649800312369D9001DD1281C1FF
:1035A2001281E830E00B1281B61281EE1236C6802B
:1035B2000612825612825E9001DD1281C1128206CB
:1035C20030E00B1281B61281EE1236BC80081282F4
:1035D200207F1712825E9001DD1281C11282393082
:1035E200E00F1281B61281EE7B127D417F010290C3
:1035F2004B1282207F4112825E2274A2F0A374D603
:10360200F0E4FB7D177F0112904B2274A2F0A374A9
:10361200D6F0E4FB7D177F0112904B227B01E4FD83
:10362200FC7F1712825E227B01E4FDFC7F41128245
:103632005E227B01E4FDFC7F1712825E22E4FB7DA9
:10364200177F0112904B22E4FB7D177F0112904BF2
:10365200227B01E4FDFC7F2C12825E227B01E4FDD1
:10366200FC7F4112825E22E4FB7D417F0112904B7E
:10367200227B01E4FDFC7F1712825E22E4FB7D2C9B
:103682007F0112904B227B01E4FDFC7F2C12825EB3
:1036920022E4FB7D417F0112904B227B01E4FDFC81
:1036A2007F1712825E227B0F7D177F0112904B22C1
:1036B200E4FB7D2C7F0112904B227B127D177F0150
:0E36C20012904B22E4FB7D417F0112904B22BF
:1036D0009003F21282307F0212A680900382E012E1
:1036E00029DE370D11371F21374E2237773137C288
:1036F0003338053438544138C29138E5A23922B103
:10370000398CB339E1B43A39C100003AAF9003F2D1
:103710001281C112268E30E4030238CE0238DB90CB
:1037200003F21281C112268E30E40B1281B612818F
:10373000F6123B478003123B279003F21281C1121D
:10374000268E30E4030238CE12823F0238E0900326
:10375000F21281C112268E30E4081281B6123AB0FC
:103760008003123AD29003F21281C11281E830E450
:103770000302390B0239189003F21281C112268E0E
:1037800030E40B1281B61281F6123B478003123BE4
:10379000279003F21281C11281E830E40B1281B646
:1037A0001281F6123B51800812823F7F1F12825E07
:1037B0009003F21281C112820630E4030238B00293
:1037C00038BB9003F21281C112268E30E4081281B8
:1037D000B6123AB08003123AD29003F21281C112AB
:1037E00081E830E40B1281B61281F6123B1D800392
:1037F000123ADD9003F21281C112820630E4030214
:1038000038B00238BB9003F21281C112268E30E428
:10381000081281B6123AC18003123AE89003F212FC
:1038200081C11281E830E40B1281B61281F6123B9D
:103830001D8003123ADD9003F21281C1128206301C
:10384000E40B1281B61281F67B0F023A297B017DCF
:103850000F023A329003F21281C112268E30E40830
:103860001281B6123AC18003123AE89003F2128133
:10387000C11281E830E40B1281B61281F6123B329C
:103880008003123B079003F21281C112820630E4DA
:103890000B1281B61281F6123B51800812823F7FD3
:1038A0001F12825E9003F21281C112823930E40B42
:1038B0001281B61281F67B0F0239137B017D0F0254
:1038C00039859003F21281C112268E30E40D1281E7
:1038D000B61281F6E4FB7D34023AA27B01E4FDFCE2
:1038E0007F34023AAC9003F21281C112268E30E48A
:1038F0000B1281B61281F6123AF38003123B12903A
:1039000003F21281C11281E830E40D1281B61281F6
:10391000F6E4FB7D49023AA27B01E4FDFC7F49020B
:103920003AAC9003F21281C112268E30E41112815A
:10393000B61281F6E4FB7D347F0112904B800A7B46
:1039400001E4FDFC7F3412825E9003F21281C11209
:1039500081E830E40B1281B61281F6123B708008C8
:103960001282207F1F12825E9003F21281C11282A6
:103970000630E40D1281B61281F67B127D49023ABF
:10398000A27B017D127C007F49023AAC9003F212C7
:1039900081C112268E30E40B1281B61281F6123AE2
:1039A000F38003123B129003F21281C11281E830BE
:1039B000E40B1281B61281F6123B328003123B07F0
:1039C0009003F21281C112820630E40D1281B61208
:1039D00081F67B127D49023AA21282207F49023A87
:1039E000AC9003F21281C112268E30E40B1281B624
:1039F0001281F6123AFD8003123B3C9003F21281D1
:103A0000C11281E830E40B1281B61281F6123B66D6
:103A10008003123B5B9003F21281C112820630E4F4
:103A20000D1281B61281F67B127D1F023AA27B0134
:103A30007D127C007F1F023AAC9003F21281C1120A
:103A4000268E30E40B1281B61281F6123AFD800305
:103A5000123B3C9003F21281C11281E830E40B1258
:103A600081B61281F6123B668003123B5B9003F233
:103A70001281C112820630E40B1281B61281F61255
:103A80003B7080081282207F1F12825E9003F21228
:103A900081C112823930E40F1281B61281F67B1295
:103AA0007D497F0102904B1282207F4912825E2263
:103AB00074A2F0A374E7F0E4FB7D1F7F0112904B2A
:103AC0002274A2F0A374E7F0E4FB7D1F7F01129043
:103AD0004B227B01E4FDFC7F1F12825E227B01E40E
:103AE000FDFC7F4912825E227B01E4FDFC7F1F12F8
:103AF000825E22E4FB7D1F7F0112904B22E4FB7D5E
:103B00001F7F0112904B227B01E4FDFC7F49128252
:103B10005E227B01E4FDFC7F1F12825E22E4FB7DBE
:103B2000497F0112904B227B01E4FDFC7F3412821D
:103B30005E22E4FB7D497F0112904B227B01E4FD74
:103B4000FC7F1F12825E22E4FB7D347F0112904BCA
:103B5000227B0F7D1F7F0112904B227B01E4FDFC35
:103B60007F4912825E22E4FB7D497F0112904B2245
:0A3B70007B127D1F7F0112904B2293
:102C6E00900390E0FD900381E06DF565A3E01229DD
:102C7E00DE2CA7112CCA222D0F312D80332DE734D7
:102C8E002E55412EE4912F0DA22F5AB12FCAB330DB
:102C9E0034B430AFC10000313B1281CA8005C3335A
:102CAE00CE33CED8F9FFEF5D600B1281B61281E004
:102CBE007B0D022EFD7B057D0D022F061281CA8033
:102CCE0005C333CE33CED8F91281D7600B1281B63D
:102CDE001281E012319880031231549003841281D4
:102CEE00CD8005C333CE33CED8F91281D7600B1207
:102CFE0081B61281E07B0D022F4A7B057D0D022FDE
:102D0E00531281CA8005C333CE33CED8F91281D780
:102D1E0060111281B61281E07B077D257F01129032
:102D2E004B80057D071231DE9003841281CD800524
:102D3E00C333CE33CED8F91281D7600D1281B612BD
:102D4E0081E07B151231B880031231A290038512F7
:102D5E0081CD8005C333CE33CED8F91281D7600B27
:102D6E001281B61281E07B15022F4A7B057D15027A
:102D7E002F531281CA8005C333CE33CED8F91281B8
:102D8E00D7600B1281B61281E01231988003123196
:102D9E00549003841281CD8005C333CE33CED8F93F
:102DAE001281D7600B1281B61281E01231AE800310
:102DBE001231609003851281CD8005C333CE33CEA0
:102DCE00D8F91281D7600B1281B61281E07B150201
:102DDE002F4A7B057D15022F531281CA8005C333FE
:102DEE00CE33CED8F91281D7600B1281B61281E0A4
:102DFE0012316C800312313C9003841281CD800518
:102E0E00C333CE33CED8F91281D7600D1281B612EC
:102E1E0081E07D3A1231D680087D0D128229128210
:102E2E005E9003851281CD8005C333CE33CED8F9A3
:102E3E001281D7600B1281B61281E07B1502309F92
:102E4E007B057D150230A81281CA8005C333CE33AF
:102E5E00CED8F91281D7600B1281B61281E01231F1
:102E6E006C800312313C9003841281CD8005C333F4
:102E7E00CE33CED8F91281D7600B1281B61281E013
:102E8E001231AE80031231609003851281CD800520
:102E9E00C333CE33CED8F91281D760111281B61258
:102EAE0081E07B157D107F0112904B80031231A2C1
:102EBE009003861281CD8005C333CE33CED8F9125E
:102ECE0081D7600B1281B61281E07B15022F4A7BEF
:102EDE00057D15022F531281CA8005C333CE33CE22
:102EEE00D8F91281D7600D1281B61281E07B107D68
:102EFE00250231307B057D107C007F250231381292
:102F0E0081CA8005C333CE33CED8F91281D7600D76
:102F1E001281B61281E07B101231B8800312317625
:102F2E009003841281CD8005C333CE33CED8F912EF
:102F3E0081D7600D1281B61281E07B107D3A02318D
:102F4E00307B057D107C007F3A0231381281CA80B9
:102F5E0005C333CE33CED8F91281D760111281B6A4
:102F6E001281E07B087D257F0112904B80057D0844
:102F7E001231DE9003841281CD8005C333CE33CE61
:102F8E00D8F91281D7600B1281B61281E01231E8A6
:102F9E0080031231C09003851281CD8005C333CEDC
:102FAE0033CED8F91281D7600D1281B61281E07B33
:102FBE00197D3A0231301282270231381281CA80CD
:102FCE0005C333CE33CED8F91281D7600D1281B638
:102FDE001281E07D101231D6800312317690038477
:102FEE001281CD8005C333CE33CED8F91281D7608E
:102FFE000B1281B61281E01231CC800312318C900B
:10300E0003851281CD8005C333CE33CED8F912811C
:10301E00D7600D1281B61281E07B197D3A023130F4
:10302E001282270231381281CA8005C333CE33CEC5
:10303E00D8F91281D7600B1281B61281E01231825B
:10304E0080031231489003841281CD8005C333CEA4
:10305E0033CED8F91281D760111281B61281E07B7E
:10306E00107D3A7F0112904B800B7B057D107C000A
:10307E007F3A12825E9003851281CD8005C333CED6
:10308E0033CED8F91281D7600D1281B61281E07B52
:10309E00197D100231307B057D197C007F100231C5
:1030AE00381281CA8005C333CE33CED8F91281D7F8
:1030BE00600B1281B61281E0123182800312314808
:1030CE009003841281CD8005C333CE33CED8F9124E
:1030DE0081D7600B1281B61281E01231CC800312BF
:1030EE00318C9003851281CD8005C333CE33CED87B
:1030FE00F91281D7600B1281B61281E01231E8808D
:10310E00031231C09003861281CD8005C333CE33B6
:10311E00CED8F91281D7600F1281B61281E07B19D9
:0D312E007D3A7F0102904B12822712825ED3
:10313B00227B057D077C007F1012825E227B057D42
:10314B00087C007F1012825E227B057D0D7C007F48
:10315B001012825E227B057D077C007F3A12825E15
:10316B00227B077D107F0112904B227B057D107C0B
:10317B00007F1012825E227B087D107F0112904B24
:10318B00227B057D087C007F3A12825E227B0D7DBF
:10319B00107F0112904B227B057D157C007F101256
:1031AB00825E227B077D3A7F0112904B227D107F3E
:1031BB000112904B227B057D197C007F1012825EE1
:1031CB00227B087D3A7F0112904B227B0D7F0112EF
:1031DB00904B227B057C007F2512825E227B197D22
:0731EB00107F0112904B223E
:10986B00E4FF12A30A900380E024FE601104702928
:10987B001298A51281B674A2F0A374D9800C129819
:10988B00A51281B674A2F0A374DCF0E4FB7D017F1A
:10989B000112904B7FFF12A683227F0312A6837FB8
:0598AB000412A680225A
:10A1F200E4FF12A30A900388E030E1127B017A03A4
:10A2020079881231F27B017A037988126B5A12A68D
:06A212004CE4FF029CB7C2
:1016F80000000000000000000000000000000000E2
:1017080000000000000000000000000000000000D1
:10171800003E007E00FE01CE038E7F8E7F8E738E8C
:10172800738E738E7F8E7F8E01CE00FE007E003E0C
:1017380000000000020006000E001E003FFE7FFEB3
:101748007FFE3FFE1E000E000600020000000000A3
:101758000000000000400060007000787FFC7FFE01
:101768007FFE7FFC007800700060004000000000F1
:10177800000003C003C003C003C003C003C003C00C
:1017880003C03FFC1FF80FF007E003C00180000012
:1017980003C003C007E007E00E700E701C381C3849
:1017A800381C381C7FFE7FFE700E700E700E700E97
:1017B8007FF87FFC383E381E381E381E383C3FF80C
:1017C8003FF8383C381E381E381E383E7FFC7FF8FC
:1017D8000FF81FFC3C1C380E780E700E700070005D
:1017E80070007000700E700E380E3C1C1FFC0FF855
:1017F8007FF07FF07078703C703C703C70787FF0C0
:101808007FE0778073C071E070F07078703C701E74
:1018180000006006700E781E7C3E7FFE77EE73CE69
:10182800718E700E700E700E700E700E700E700E3F
:1018380000001FF81FF800E000E000E000E000E012
:1018480000E000E000E070E079E03FC01F800F009A
:1018580000000000000003C007800F001E003FFCCE
:101868003FFC1E000F00078003C0000000000000BE
:1018780000000000000003C001E000F000783FFC19
:101888003FFC007800F001E003C000000000000009
:1018980000000000018001800180018011881998F2
:1018A8001DB81FF80FF007E003C00180000000001A
:1018B800003E007E00FE01CE038E7F8E7F8E738EEB
:1018C800738E738E7F8E7F8E01CE00FE007E003E6B
:1018D800700E700E700E700E700E700E781E381C22
:1018E800381C1C381C380E700FF007E003C001804C
:1018F8000000380038003800380038003800380058
:1019080038003800380038063806380E3FFE3FFEEB
:101918000000000000000000000003800FE01C70C1
:10192800183038383838383818301C700FE00380D1
:101938000000000000000000000003C00FF01C3889
:101948001C000F0007E000F000381C380FF003C03F
:10195800000000000000000000000000000000007F
:10196800000000000000000000000000000000006F
:10197800000000000000000000000000000000005F
:10198800000000000000000000000000000000004F
:10199800000000000000000000000000000000003F
:1019A800000000000000000000000000000000002F
:1019B800000000000000000000000000000000001F
:1019C800000000000000000000000000000000000F
:1019D80000000000000000000000000000000000FF
:1019E80000000000000000000000000000000000EF
:1019F80000000000000000000000000000000000DF
:101A080000000000000000000000000000000000CE
:101A180000000000000000000000000000000000BE
:101A280000000000000000000000000000000000AE
:101A3800000000000000000000000000000000009E
:101A4800000000000000000000000000000000008E
:101A5800000000000000000000000000000000007E
:101A6800000000000000000000000000000000006E
:101A7800000000000000000000000000000000005E
:101A8800000000000000000000000000000000004E
:101A9800000000000000000000000000000000003E
:101AA800000000000000000000000000000000002E
:101AB800000000000000000000000000000000001E
:101AC800000000000000000000000000000000000E
:101AD80000000000000000000000000000000000FE
:101AE80000000000000000000000000000000000EE
:101AF80000000000000000000000000000000000DE
:101B080000000000000000000000000000000000CD
:101B1800000007000F800F800F800F80070007006C
:101B28000700020002000000020007000700020090
:101B38000000EE006600440088000000000000007D
:101B4800000000000000000000000000000000008D
:101B5800000008200820082008203FF80820082056
:101B68000820082008203FF808200820082008201E
:101B780000000FC01B603330333033001B000F00F0
:101B880003C0036013303B3033301B600FC00300C9
:101B980000003808441084200440048009001270B2
:101BA800E4880908120822084210822001C00000B7
:101BB80000000E001B00318031801B000E001C004D
:101BC8003678632061A060E0606030F01F9C000000
:101BD80000000000000000000000000000000000FD
:101BE800000000000000800060007000380018004D
:101BF8000000000400080018001000300030003019
:101C08000030003000300010001800080004000206
:101C180000008000400060002000300030003000EC
:101C280030003000300020006000400080000000DC
:101C3800000002004210222012400A800700FFFC28
:101C480007000A8012402220421002000200000011
:101C580000000000030003000300030003007FF8F6
:101C68007FF80300030003000300030000000000E6
:101C7800000000000000000000000000000000005C
:101C8800000018003C003C00180010002000400034
:101C980000000000000000000000000000007FF8C5
:101CA8007FF80000000000000000000000000000B5
:101CB800000000000000000000000000000000001C
:101CC8000000000000007800840084008400780090
:101CD800000000180030006000C00180030006000A
:101CE8000C00180030006000C000800000000000F8
:101CF80000000FE0183030183038307830D831987C
:101D0800331836183C183818301818300FE000000F
:101D18000000030007000F00030003000300030096
:101D28000300030003000300030003001FE000009A
:101D380000000FE01830301830183038007001C03B
:101D480003000E001800300830083FF83FF8000084
:101D5800000007C0183030183018003000E003C009
:101D680000E00030001830183018183007C00000A4
:101D7800000000C001C003C006C00CC018C030C0BD
:101D880060C0C0C0C0C0FFF800C000C003F00000C1
:101D980000003FF03FF030003000300037C03830EE
:101DA80030180018001830183018183007C0000014
:101DB800000007E01830303030003000300037E0E5
:101DC8003830301830183018301818300FC000006C
:101DD80000003FF83FF8201820180030006000C0CD
:101DE8000180030003000300030003000300000058
:101DF80000000780186030303030303018600FC075
:101E08001860303060186018601830300FC000005B
:101E1800000007801860303030183018301830381B
:101E2800187807980018303038301860078000009C
:101E3800000000000000000003000780030000000D
:101E480000000300078003000000000000000000FD
:101E580000000000000000000300078003000000ED
:101E680000000300078003800180070000000000D5
:101E780000000000001800600180060018006000E3
:101E88008000600018000600018000600018000053
:101E9800000000000000000000007FF87FF800004C
:101EA80000007FF87FF8000000000000000000003C
:101EB8000000800060001800060001800060001823
:101EC800000400180060018006001800600080000F
:101ED800000007800FC01CE038E038E011C0018026
:101EE80003000300020002000000020007000700D0
:101EF80000000FC030604010478888C890C890C85C
:101F080090C890C888D84770400830700FC000004B
:101F1800000003000300078007800CC00CC0186095
:101F280018601FE03030303060186018F03C000056
:101F380000003F80186018301830183018601FC033
:101F48001860183018181818181818303FC00000F2
:101F58000000078818683038601860086000600062
:101F6800600060006008601830301860078000006A
:101F780000007F8030E030383018301830183018C2
:101F88003018301830183018303030E07F800000BA
:101F980000003FF0183018101800188018801F80B3
:101FA8001880188018001800181018303FF000002A
:101FB80000003FF0183018101800188018801F8093
:101FC8001880188018001800180018003C0000003D
:101FD80000000F90187030306010601060006000D2
:101FE8006078603060306030307018F00FB00000FA
:101FF80000007878303030303030303030303FF0DA
:102008003030303030303030303030307878000098
:1020180000000FC0030003000300030003000300D7
:102028000300030003000300030003000FC00000C7
:10203800000001F000600060006000600060006067
:10204800006000603060306030E019C00F000000B0
:10205800000078F8306030C03180330036003C0032
:102068003E003300318030C030603030787C000072
:1020780000003C001800180018001800180018008C
:102088001800180018001808181818383FF8000029
:102098000000E03CE038F078F078D8D8D8D8C89874
:1020A800CD98CD98C518C718C218C018E07C000094
:1020B8000000C078E030F030F830DC30CE30C73087
