:0300000002882152
:0C882100787FE4F6D8FD75816D02886850
:0BA60B00E0248DF582E43402F5832288
:10A40400C2BCD2AC759852758DFAE4F58BD28E909D
:06A4140002F1F0A3F022AA
:10A542009002F1E0FFA3E0B507037F00227F012222
:10A3BA009002F112A60BE0FF9002F1E004F0E0C374
:08A3CA0094644002E4F0D2ACFF
:01A3D2002268
:080003003099FD8F99C299228A
:03002300029F0A2F
:109F0A00C0E0C083C082C0D0309819C2989002F2D3
:109F1A0012A60BE599F09002F2E004F0E0C3946413
:0D9F2A004002E4F0D0D0D082D083D0E032ED
:109A9700E0F580D2A3E4900335F0A3F022C390034E
:109AA70035E0940022900335E004F0229001E4E0D1
:109AB700FBA3E0FAA3E0F922EDF0A3EBF0E4FFC289
:0C9AC700AF22D2B6D2B77580FFD2AF221A
:108E17009001F3129ABF12A6609001F3E0FF70066B
:108E2700C2B7C2B68012EFB40106C2B7D2B6800885
:108E3700EFB40204D2B7C2B69001F4129A97129A0D
:108E4700A4500BA3E004F070F5129AAC80F0C2A313
:108E57009001F5E0F580C2A1129A9C129AA4500BDA
:108E6700A3E004F070F5129AAC80F0D2A112A660CC
:048E7700129AC92260
:108939009001D8129ABF12A6609001D8E0FF700684
:10894900C2B7C2B68012EFB40106C2B7D2B6800868
:10895900EFB40204D2B7C2B69001D9E0FF04F08F98
:1089690080129A9A129AA4500BA3E004F070F5129F
:108979009AAC80F0C2A39001DAE0FBA3E475F001A0
:10898900122763A9F0FA12268EF580C2A1129A9CC9
:10899900129AA4500BA3E004F070F5129AAC80F07F
:1089A900D2A19001DDE014F070AE12A660129AC94E
:0189B900229B
:0B88AD009001F2EFF0A3EDF0A3EBF060
:1088B800C2AF12A660E49001F2F0A3E0FF7006C216
:1088C800B7C2B68012EFB40106C2B7D2B68008EFBD
:1088D800B40204D2B7C2B69001F4129A97129AA4BD
:1088E800500BA3E004F070F5129AAC80F0C2A375A7
:1088F80080FF129A9C129AA4500BA3E004F070F522
:10890800129AAC80F0C2A29001F5E580F0129A9C10
:10891800129AA4500BA3E004F070F5129AAC80F000
:10892800D2A212A660D2B6D2B7D2AF9001F5E0FFBC
:01893800221C
:109285009001E4EBF0A3EAF0A3E9F0129AB31227F8
:1092950079F47003E5F0F46038122779FBAAF0EA57
:1092A500FDE4FF1288AD129AB39000021226A7FCC6
:1092B5006F6012122779FBAAF0EAFD9001F5ECF038
:1092C500E4FF128E179001E5E475F00312274D8037
:0292D500BA22BB
:01A6A3002294
:105420002562782025627820256278000A3C523E69
:1054300025303262785B25303262785D3D2530322E
:105440006278002562782025627800256278202520
:1054500062782025627820256278200025316278E4
:105460002025316278202531627820005265616400
:105470004173696342797465203D3D20256278203F
:105480000A0063682562643A256264200063682527
:1054900062643A2562642063682562643A25626426
:1054A000200063682562643A25626420636825628F
:1054B000643A2562642063682562643A2562642048
:1054C0000063682562643A2562642063682562642B
:1054D0003A2562642063682562643A256264206329
:1054E000682562643A256264200063682562643A34
:1054F0002562642063682562643A256264206368DB
:105500002562643A2562642063682562643A2562F4
:10551000642063682562643A256264200025626421
:1055200020000A203D3D3D3D3D3D3D3D2050414751
:10553000452025623278203D3D3D3D3D3D3D3D3D90
:105540003D3D3D3D0A002562327809000A002531C3
:105550006278202531627820636825316278206383
:105560006825316278206368253162782063682578
:105570003162782000656E726563616C6C00656EE7
:10558000667265657A6500656E686D6972726F72C4
:1055900000656E766D6972726F7200656E656E6819
:1055A000616E636500656E626C616E6B00656E6254
:1055B0006F756E6400656E626C696E6B0064697312
:1055C000726563616C6C00646973667265657A65A7
:1055D00000646973686D6972726F720064697376D2
:1055E0006D6972726F7200646973656E68616E6373
:1055F0006500646973626C616E6B00646973626FED
:10560000756E6400646973626C696E6B003D3D3D4C
:105610003D3D20466F726D6174203A206368303DD5
:105620005B2562785D206368313D5B2562785D2093
:105630006368323D5B2562785D206368333D5B259E
:1056400062785D203D3D3D3D3D0A00256278202584
:1056500062782063682562783A256278206368253D
:1056600062783A2562782063682562783A25627804
:105670002063682562783A2562782000333400621E
:105680007573770079766D6978006873636F6D0064
:0E5690006D6F646500370038000102040810D9
:046CC60041039B00EB
:10569E00A3F0A3E4F0A37400F0A37414F0A3E4F059
:1056AE00A37400F0A37419F0A3E4F0A37400F0A3A4
:1056BE007415F0A3E4F0A37400F0A3741AF0A3E43D
:1056CE00F0A37400F07416A3F0A3E4F0A322A3F0E9
:1056DE00A3E4F0A37400F0A37426F0A3E4F0A37483
:1056EE0000F0A3742BF0A3E4F0A37400F0A37427CE
:1056FE00F0A3E4F0A37400F0A3742CF0A3E4F0A3E1
:10570E007400F07428A3F0A3E4F0A322A3F0A3E4A2
:10571E00F0A37400F0A37443F0A3E4F0A37400F0BC
:10572E00A37447F0A3E4F0A37400F07444A3F0A3B1
:10573E00E4F0A322A3F09003B6E0FBA3E0FAA3E00B
:10574E00F9229001E074FFF0A37454F07482A3F078
:10575E00A3E4F0A3227400F0A3741BF0A3E4F0A35F
:10576E007400F07417A3F0A3E4F0A3227400F0A366
:10577E00742DF0A3E4F0A37400F07429A3F0A3E455
:10578E00F0A3227400F0A37448F0A3E4F0A3740015
:10579E00F07445A3F0A3E4F0A3229001E074FFF0AF
:1057AE00A37454F0748DA3F0A3E4F0A3229001E04F
:1057BE0074FFF0A37455F0741DA3F0A3E4F0A322BC
:1057CE007400F07414A3F0A3E4F0A3227400F07438
:1057DE0026A3F0A3E4F0A3229001E074FFF0A3222D
:1057EE00EBF0A3EAF0A3E9F09001E07401F0A3223C
:1057FE00A3F0A37401F0A37403F07483A3F0A37455
:10580E0001F0A322A3F0A3E4F0A322A3F0A3E4F0FB
:10581E00A322A3F0A3E4F0A322A3F0A3E4F0A32217
:10582E00A3F0A3E4F0A322FFE0248CF582E434037A
:10583E00F583EFF022E0FF9001E17401F0A3740311
:10584E00F0A37488F07B017A03798322A3F0A3E49A
:10585E00F0A322A3F0A3E4F0A322EBF0A3EAF0A3BB
:10586E00E9F022900001E475F0010227A47BFF7A93
:10587E0054792C90033BF022A3F0A3E4F0A322E092
:10588E005401FB7D2022253DF53DA3E0540322E586
:10589E001590569993FFE514932F2212296F022625
:0F58AE008EA3F0A3E4F0A32212A6A49001D522AA
:108B99009001DD125868A31257471258A97002FFB5
:108BA900229001E01257471258A9B4200B9001E016
:108BB90012574712587180E99001E012574712295C
:108BC9006FC003C002C0019001DD12574712298FFF
:108BD90080239001E01257471258A9FEB42010E4EF
:108BE9001226D49001E01257471258717F0122EEE4
:108BF90070037F01229001E012574712587180D209
:069A5A009001DD125868C6
:109A6000E4F53AF53B9001DD12574712268E60224D
:109A70009001DDA3E475F001122763A9F0FA122624
:109A80008EFF3395E0FEEF253BF53BEE353AF53A98
:069A900080D3AE3AAF3BAB
:019A960022AD
:01A6A4002293
:10953400E4F53D900383E0540312589425E025E0BC
:10954400125894C454F0125894C4333354C0253D73
:10955400F53D900382E0B5070D900387E0B53D0625
:10956400E4900392F0229003927401F0900387E553
:079574003DF0900382EFF0CF
:01957B0022CD
:1095C4001257E67454F074201256D57400F0745493
:1095D4001257137400F0745512573B7400F0A374BF
:1095E40056F0124B6FAB55AD54E4FF1288AD9003A7
:1095F4003DEFF0E55412587BA3E555F01247EC0516
:0696040055E555B556DFE7
:01960A00223D
:109C2F001257E67454F0744312575C7400F0741EAC
:109C3F001257737400F0A3741FF0124B6FAB1FAD6C
:109C4F001EE4FF1288AD90033DEFF0E51E12587B26
:079C5F00A3E51FF00247EC32
:109DE0001257E67454F0742012578A7400F07457B6
:109DF0001257A17400F074581257B47400F0A37491
:109E000059F0124B6F9001F5E559F0AB58AD57E49E
:049E1000FF028E17A8
:10932700E4F53AF53BF53CF53DC003C0021257E6BC
:109337007454F0744B1257C77400F0743A1257D331
:109347007400F0743B1257DF7400F0743C1258122B
:109357007400F0A3743DF0D002D003124B6F90015C
:0D936700F5E53DF0AB3CAD3BE4FF028E1799
:10957C00E4F550F551F552F5531257E67454F07466
:10958C005C1258127400F074501258197400F07474
:10959C00511258197400F0A37452F0124B6FAB5265
:1095AC00AD51E4FF1288AD8F537BFF7A54796C90E8
:0895BC00033BE553F00247EC0C
:036706009003B647
:106709001257EE7403F0A374B6F07B017A0379B9DA
:10671900128B99E4FB7D1FFF129D0A9003B9125752
:1067290047127DAFEE600302682EEF24FE60361437
:10673900605A1460781470030267DB240460030252
:10674900682E1257501257CE7400F074191257421E
:10675900124B6FAB19AD14E4FF128B28E514905658
:1067690099930268261257A81257CE7400F074192B
:106779001258207400F074151258207400F0741A1D
:1067890012574212682F12589D0268261257E67452
:1067990054F074A212569E7400F0A3741B1257434E
:1067A90012682FAB1BAD161268450268261257E610
:1067B9007454F074C112569E1257637400F0A37496
:1067C9001C12574312685B126845FFE517932F02A5
:1067D90068261257E67454F0A374EA12569F1257AA
:1067E900637400F0741C1258277400F0741812585E
:1067F900277400F0A3741D12574312685BE4FF125B
:106809008B28AB1DAD18E4FF128B2812589DFFE5AC
:1068190016932FFFE517932FFFE518932FFD7B01A3
:05682900E4FF129D0ACE
:10682E0022124B6FAB19AD14E4FF128B28AB1AADCD
:10683E0015E4FF128B2822E4FF128B28E5159056E3
:10684E009993FFE514932FFFE516932F22124B6FAA
:10685E00AB19AD14E4FF128B28AB1AAD15E4FF1281
:10686E008B28AB1BAD16E4FF128B28AB1CAD172289
:0FA57200E4FB7D1FFF129D0A7DFFE4FF029EACFC
:036F77009003BCC8
:106F7A001257EE7403F0A374BCF07B017A0379BF55
:106F8A00128B999003BF125747127DAFEE6003022E
:106F9A007085EF24FE60301460561460711470031B
:106FAA0002703C240460030270851257501257DAAB
:106FBA007400F0A3742BF09003BC125747124B6F66
:106FCA00AB2BAD260270801257A81257DA7400F064
:106FDA00742B12582E7400F0742712582E7400F075
:106FEA00A3742CF09003BC1257471270A002708051
:106FFA001257E67454F074A21256DC7400F0A374AB
:10700A002DF09003BC1257471270860270801257F7
:10701A00E67454F074C11256DC12577A7400F0A365
:10702A00742EF09003BC1257471270861270B10288
:10703A0070801257E67454F0A374EA1256DD1257A0
:10704A007A7400F0742E12585A7400F0742A125886
:10705A005A7400F0A3742FF09003BC1257471270B1
:10706A00A0E4FF128C09AB2DAD281270B1E4FF1217
:0B707A008C09AB2FAD2AE4FF128C093B
:1070850022124B6FAB2BAD26E4FF128C09AB2CAD56
:1070950027E4FF128C09AB2DAD2822124B6FAB2BC9
:1070A500AD26E4FF128C09AB2CAD2722E4FF128C30
:0670B50009AB2EAD2922FB
:10A45B001257BB7400F0A37469F0124B6FAD69E433
:04A46B00FF029EACA2
:1093C000E4F55E7BFF7A55792290033BE55EF0126F
:1093D00047ECE4F55DAB5DAD5EE4FF1288AD900354
:1093E0003BEFF07BFF7A5579461247EC055DE55D72
:1093F000540F70097BFF7A55794C1247ECE55D708C
:0A940000D4055EE55EC3940340B995
:01940A00223F
:1091DA00C003C002C0011257E67455F0744E12580B
:1091EA00617400F0745F1258617400F07460125771
:1091FA00FE7403F0748412580A7403F0A37485127F
:10920A00580B7403F0A37486F0D001D002D0031275
:10921A004B6FE55FC454F0FFE560540F2FF55F1202
:06922A005853FF026245EB
:0658BD009003C2125868BE
:1058C300E4F5387B019001E004F0A37403F0A374C2
:1058D300C2F07A0379C5128B999003C51257471208
:1058E3007DAF8F391257F6125AB59003C512574739
:1058F300129A5A8E308F317A557975125A92B53180
:105903000AEEB530067532800259927A55797E12C5
:105913005A92B5310AEEB530067532400259927A81
:10592300557987125A99B53109EEB530057532208C
:10593300805D7A557991125A99B53109EEB53005E2
:10594300753210804A7A55799B125AA0B53109EE07
:10595300B5300575320880377A5579A5125AA0B546
:105963003109EEB5300575320480247A5579AD12CC
:105973005AA7B53109EEB5300575320280117A5553
:1059830079B5125AA7B5310DEEB5300975320175E7
:105993003301025A3C7A5579BD125AAEB5310AEE3B
:1059A300B53006753280025A1F7A5579C7125AAE3E
:1059B300B53109EEB5300575324080607A5579D13D
:1059C300125AC6B53109EEB53005753220804D7ACD
:1059D3005579DC125AC6B53109EEB530057532106A
:1059E300803A7A5579E7125ACDB53109EEB53005CB
:1059F30075320880277A5579F2125ACDB53109EEFE
:105A0300B5300575320480147BFF7A5579FB129A01
:105A13005AEFB5310CEEB53008753202E4F5338038
:105A2300187BFF7A567904129A5AEF65317003EEA8
:105A33006530705A753201F5331257F6125AB5EFC5
:105A430060339003C512574712268EB477EB90004C
:105A5300011226A7B469E29000021226A7B46ED9F8
:105A6300E92403F9E43AFA127DAF74342538F8A631
:105A730007053880C4E53860152433F8E6FFC3957D
:0E5A8300395007AB33AD32129DAB153880E7BA
:105A9100227BFF129A5AEF227BFF129A5AEF227B46
:105AA100FF129A5AEF227BFF129A5AEF227BFF12C2
:105AB1009A5AEF227403F0A374C2F07B017A03793E
:105AC100C5128B99227BFF129A5AEF227BFF129A01
:035AD1005AEF2267
:10A50C001257BB7400F0A3743AF0124B6FAF3A02BF
:02A51C00A46F2A
:109B4A00E4FF12940BC0077F0112940BC0077F0237
:109B5A0012940BC0077F0312940B90033EEFF09010
:109B6A00033DD0E0F090033CD0E0F090033BD0E01E
:0A9B7A00F07BFF7A56790D0247ECEC
:0377BE009003C86D
:1077C1001257EE7403F0A374C8F07B017A0379CBEE
:1077D100128B999003CB125747127DAFEE600302D3
:1077E10078B0EF24FE602B14605314607924036099
:1077F100030278B01257507400F074431258867423
:1078010000F0A37447F09003C81257471278CF02D3
:1078110078AB1257E67454F0748D12571A7400F055
:10782100A37448F09003C81257471278CFE4FF12AF
:107831009EDCE548C454F0FBAD440278AB1257E638
:107841007454F074A212571A1257917400F0A37471
:1078510049F09003C81257471278B1E549C454F072
:10786100FBAD450278AB1257E67454F0A374C11214
:10787100571B1257917400F074491258867400F026
:1078810074461258AF7400F0A3744AF09003C81202
:1078910057471278B1E549C454F0FBAD45E4FF12F6
:0F78A1009EDCE54AC454F0FBAD46E4FF129EDCCA
:1078B00022124B6FE547C454F0FBAD43E4FF129E28
:1078C000DCE548C454F0FBAD44E4FF129EDC221218
:0B78D0004B6FE547C454F0FBAD4322B2
:038FA6009003CE67
:108FA9001257EE128FF3125747127DAF8F61125786
:108FB900F6128FF3125747127DAF8F627F0412A604
:108FC9009D7F0312A6A07F0512A3279003CEE0F987
:108FD900A3E0FAA3E09003B2C9125869AB62AD618C
:0A8FE9007F011290C97F05029CD49D
:108FF3007403F0A374CEF07B017A0379D1128B99B9
:049003009003D122E3
:10960B00756401E4F56374882563F582E43403F52E
:10961B0083E030E41574832563F582E43403F5832A
:10962B00E0FDE4FF129EACE4F5640563E563C394CF
:10963B000440D3E564600FE4FB7D1FFF129D0A7DA0
:06964B00FFE4FF129EACDB
:0196510022F6
:106E2900C003C002C0011257E67456F0744B1258E1
:106E3900AF7400F0A3743BF0A3E4F0A37400F07402
:106E49003C1257FE7403F0A3748812580B7403F0B4
:106E5900A3748412580B7403F0A3748912580B7429
:106E690003F0A3748512580B7403F0A3748A1258A3
:106E79000B7403F0A3748612580B7403F0A3748B7C
:106E8900F0D001D002D003124B6FE53BC454F0FFA0
:106E990090037FE0FEC433333354802FFFE53C5425
:106EA9000F2F900391F0900388E0900383125835D7
:106EB900900389E090038412583590038AE0FF908B
:106EC900038512583690038BE0FF900386125836DB
:106ED90090038C12588DE4FF129AD390038D1258A7
:106EE9008D7F01129AD390038E12588D7F02129AC8
:106EF900D390038F12588D7F03129AD37B017A03A3
:106F0900798C1270BB900391125843125128900347
:106F190091E0FF125853126245E4F53A7488253A14
:106F2900F582E43403F58312588DAF3A129DAB050F
:106F39003AE53AC3940440E4E4F508F509F50A751D
:106F49000B057F0112A633900391E0FF1295347F60
:106F590008129E14E4FF12A3A01298887B017A03F9
:0D6F690079881243D3900391E090039BF0D0
:016F760022F8
:108CDE00E4FF12940BEFB40202C32290037FE0B5BF
:108CEE000702D32290037FEFF0E0C4333333548076
:108CFE00FF900382E0547F4FF07F01129CD49003CB
:108D0E007FE0FF128E7B7B017A03798C1270BB9011
:108D1E000382125843125128900382E0FF125853D7
:108D2E00126245E4FF12A3A01298887B017A0379A0
:088D3E00881243D312A20FD3E7
:018D4600220A
:10A41A001257E67455F0A3741D12580B7403F0A377
:06A42A007480F0024B6F8C
:050026007F01029CD4E3
:10A4D30090567CE493FF12000390567CA3E493FF11
:03A4E30002000371
:037BE3009001D539
:107BE6001257EE7401F0A374D5F07B017A0179DAAD
:107BF600128B999001DA125747129A5A9001D8EED1
:107C0600F0A3EFF07A56797F127CB6B50611A3E0A1
:107C1600B5070C9001D5125747129327027CB37A09
:107C2600567984127CB6B50611A3E0B5070C125836
:107C3600B612574712A50C027CB37A56798A127C83
:107C4600C0E0B50618A3E0B507131258B612574799
:107C5600126E2912A20FE4FF12A63380507A5679CB
:107C660090127CC0E0B50610A3E0B5070B1258B61B
:107C760012574712A41A80357A567995127CC9E0B4
:107C8600B5060FA3E0B5070A900276E090028BF0E6
:107C9600801B7A567997127CC9E0B50610A3E0B529
:0F7CA600070B129E48900276E0FF129F377F0176
:107CB500227BFF129A5A9001D8E0227BFF129A5A32
:0D7CC5009001D8227BFF129A5A9001D8221C
:105CB9000D0A0050435400FFC896643200627573A0
:105CC90077203020312041312031316275737720BE
:105CD90030203120413220443779766D697820347B
:105CE900206D6F64652030206873636F6D203120EB
:105CF90031206368303A3130206368313A303020DE
:105D09006368323A3030206368333A303020687340
:105D1900636F6D20312031206368323A313020635E
:105D290068313A3030206368303A30302063683364
:105D39003A3030206873636F6D20312031206368F9
:105D4900313A3130206368303A3030206368323A72
:105D59003030206368333A3030206873636F6D20C8
:105D6900322032206368323A3130206368303A3168
:105D790030206368313A3030206368333A3030205C
:105D89006873636F6D20322032206368303A313096
:105D9900206368323A3130206368313A3030206309
:105DA90068333A3030206873636F6D2032203220B7
:105DB9006368313A3130206368303A3130206368A2
:105DC900323A3030206368333A3030206873636F79
:105DD9006D20322032206368303A313020636831D7
:105DE9003A3130206368323A3030206368333A30D0
:105DF90030206873636F6D20322032206368313A36
:105E09003130206368323A3130206368303A3030BB
:105E1900206368333A3030206873636F6D20322015
:105E290032206368323A3130206368313A313020A8
:105E39006368323A3030206368333A30302068730F
:105E4900636F6D20332033206368303A313020632B
:105E590068313A3130206368323A3130206368332F
:105E69003A3030206873636F6D20312031206368C8
:105E7900333A3030206368313A3030206368323A3F
:0A5E89003030206368303A303020DA
:106CCA00C12844032E00000000410332004103336F
:106CDA000041032D0141032C0241032A0141032BE8
:106CEA000041032100420322000042032400004223
:106CFA000326000042032800004102F5014102F484
:096D0A0000410334004102F300D2
:107F63007D017BFF7E007F26022668900213E0FEE0
:107F7300740B2FF582E43402F5832274DF2FF5822C
:107F8300E43401F583E022900006E0FAA3E0FB7CF1
:107F930000FFAE020226F878F67C027D017B012207
:107FA3007D017BFF7E000226687C00AF03AE0212D8
:107FB30026F8900006ECF0A3EDF022E4F0A3F0A382
:107FC300F0A322E4FDFC900009E0F8A3E0F9A3E0AC
:107FD300FAA3E0FBC302290E7D017BFF7E007F0E27
:107FE300022668E53AF0900274E004F022E4FCFD16
:107FF300900009022932F0A37420F0A37403F0E483
:10800300A3F022900244E090032D2290020B74020D
:10801300F0A37432F0A32234FFFE7C007D06022617
:0F802300F8900274E0240B227B017A0279F62296
:107E8A0012A542EF64016003027F5B43E11012A373
:107E9A00BA8F3AE53AB40218900242E070129002A0
:107EAA007404F090020BE53AF09002427401F02259
:107EBA00E53A6403702A90020CE0FF64526004EF12
:107ECA00B4531D9002F3E07017900274E0FFD3944C
:107EDA0003500D9002F37401F0127F73127FE622B1
:107EEA00E53AB4031B900246E07015128024127F13
:107EFA0076127FE69002467401F0E49002F3F022D3
:107F0A00900246E064017037128024127F76E53AC7
:107F1A00F07B017A02790B7D04125AD4EF602F901C
:107F2A0003207401F090020CE09002F6F0E4A3F052
:107F3A0090020DE0900276F090031F7402F0221274
:107F4A008024127F76127FE6E0D39408400A02A1C9
:087F5A00E9E4900328F0A3F014
:017F620022FC
:09A62A007BFF7A5C79B902A17092
:0B9D76009003EFEBF0A3EAF0A3E9F08C
:109D81009003EFE0FBA3E0FAA3E0F912268E60193D
:109D91009003EFA3E475F001122763A9F0FA1226EC
:099DA1008EF56AFF12000380D761
:019DAA002296
:10A1E900E4900242F0900246F0900274F090020B63
:10A1F900127FBF127FBFF0A3F0A3F090031FF0A35B
:06A20900F09002F6F022C5
:09A63300EF6003C20122D20122F2
:0CA5FF00C200C201C227E4900408F02250
:109F64009003F2EBF0A3EAF0A3E9F020001D9003C4
:109F7400F2E0FBA3E0FAA3E0F8AC02AD037BFF7AC6
:0C9F84005C79BC122B82EF7002D200222C
:0892D7009001D5EEF0A3EFF0C9
:1092DF009001D5E07002A3E0603DE49001D7F0A3C8
:1092EF00F09001D7E0FEA3E0FFE4FCFD7B1BFAF951
:1092FF00F8D312290E40109001D8E004F070E290DC
:10930F0001D7E004F080DA9001D6E024FFF090015D
:07931F00D5E034FFF080B936
:019326002224
:10687E00900000127FBE74C8F0A37464F0E4A3F01D
:10688E0012945612A58112A5FF12A1E9E4FF12A5DA
:10689E00621289BA7F4D124E08750E00750F28755B
:1068AE0010017511E09003227401F0A374E0F075ED
:1068BE001200751304A37407F0A304F07F9812A6B8
:1068CE008BEF5410FFC4540F900005F0127E8A9087
:1068DE000320E0B4010612802B127BE3900320E02C
:1068EE00B4010312A1E9302707128CDE5002C22731
:1068FE0012A542EF6009900003E0750A00F50BE562
:10690E000B6401450A700DF50AF50B900004E07555
:10691E000800F509E509640145087021900242E07E
:10692E00701B129652128F4390028BE0FF900289D9
:10693E00E06F6003124E08750800750914E51364C4
:10694E00014512701990024EE0C39401401090025E
:10695E003AE0B401097512007513041279F6E50FC9
:10696E006401450E703C90024EE0703690023AE0A3
:10697E00B4012F900321E0FF74017E00A807088068
:10698E0005C333CE33CED8F9FF129B0F900321E00F
:10699E0004F0750E00750F28E0C394064007E4F06E
:1069AE008003129E7A900322E07004A3E0640170CB
:1069BE000F90022EF0A3F090032204F0A374E0F0E7
:1069CE00900324E07004A3E06401701690023AE094
:1069DE00B4010F900005E0FF1294EAE4900324F056
:0869EE00A3F043E1100268DA96
:10945600E4F5B8F5A8F58775E127F5D0758922F505
:109466008812A40412A63C12A383E4F58EF5A2D2B8
:1094760099D2AF00F593F5944391035392FCF59579
:10948600F596F5B1F5B2F5B375B404C2E9C292C268
:0A94960093C294C295C296C29722B9
:088032009001DDEFF0A3EDF079
:10803A0078DF7C017A5C79C07F06127FA39001DD2C
:10804A00E014603014604714605E146075147003A5
:10805A000280E6240560030280FFE4F5EA9001DE6F
:10806A00E0FF7004F5DA800375DA42127F7EF5FAD2
:10807A00E4F5F222E4F5EB9001DEE0FF7004F5DBB3
:10808A00800375DB42127F7EF5FBE4F5F322E4F50B
:10809A00EC9001DEE0FF7004F5DC800375DC42122F
:1080AA007F7EF5FCE4F5F422E4F5ED9001DEE0FFD5
:1080BA007004F5DD800375DD42127F7EF5FDE4F57F
:1080CA00F522E4F5EE9001DEE0FF7004F5DE8003B0
:1080DA0075DE42127F7EF5FEE4F5F622E4F5EF90B6
:1080EA0001DEE0FF7004F5DF800375DF42127F7E58
:0580FA00F5FFE4F5F7BD
:0180FF00225E
:0FA58100E4F5E9F5F975D90475D84043A68022B1
:054E0800900006EFF030
:104E0D0078077C007A5C79C6127FDB78157C007A96
:104E1D005C79D4127FDB78237C007D017BFF7A5C8B
:104E2D0079E27E007F08122668782B7C007A5C7907
:104E3D00EA7F07127FA378327C007A5C79F1127FCA
:104E4D006378587C007A5D7917127F63787E7C00D9
:104E5D007D017BFF7A5D793D127F6778A47C007DB3
:104E6D00017BFF7A5D7963127F6778CA7C007D01D3
:104E7D007BFF7A5D7989127F6778F07C007D017BFD
:104E8D00FF7A5D79AF127F6778167C017D017BFF1C
:104E9D007A5D79D5127F67783C7C017D017BFF7A45
:104EAD005D79FB127F6778627C017D017BFF7A5E05
:104EBD007921127F6778887C017D017BFF7A5E798D
:104ECD0047127F6778AE7C017D017BFF7A5E796D3D
:104EDD00127F67E49001D4F0900006E0FE24B6FF47
:104EED00C3940A400674FC2FFF8005E4900277F00E
:104EFD00900289EEF0EFB408005062904F0FF82841
:104F0D002873024F27024F2C024F33024F39024FA5
:104F1D0040024F4E024F5A024F629003338041E4DC
:104F2D00900333F0803DE490024580199002457462
:104F3D000180129002447401F090032D7404F080EE
:104F4D0022E4900244F090032D04F0801690027735
:104F5D007414F0800E9002777441F0800690032D4A
:104F6D007401F0900277E0FFC39401400890033282
:104F7D00EFF0025003900333E06401704990024555
:104F8D00E0601B128006B4010B7402F090032C74C8
:104F9D0004F080237402F090032C14F08019128019
:104FAD0006B4010B7404F090032C7402F0800874A5
:104FBD0001F090032C04F090032DE0C454F0FF9009
:104FCD00032CE04F802C900245E0600590032D806E
:104FDD000C128006B4010B7404F090032C7402F0D3
:104FED0080087401F090032C04F090032DE0FFC4B1
:104FFD0054F0900332F090032AE060251299561276
:10500D007F9A7A00790712510F7A00791512510F94
:10501D007A00792B7E007F0712266812802B127B77
:10502D00E3900332E01229DE505410507A12507E74
:10503D0014505620507C21509024505F4050874191
:10504D00507A42000050A28009127F9A7A00795856
:10505D008007127F9A7A007932127F679001F5747A
:10506D0003F07B0F7D01E4FF128E178032801D80CF
:10507D0012127F9A7A0079F08022127F9A7A017942
:10508D00168019127F9A7A0079CA8010127F9A7A47
:10509D000079A48007127F9A7A007932127F67E433
:1050AD0090032AF012802B127BE3900332E0122939
:1050BD00DE50DD1050E71250EF1450DF2050EB2181
:1050CD0050FA2450E34050F34150FE420000510984
:1050DD008000E4FF8012E4FF80197F01800A7F01C8
:1050ED0080067F0180027F01128AB5800F7F0180CB
:1050FD00027F01128AB59001D47401F09001D4E0C1
:01510D00FFA2
:10510E00227E007F0E1226687B017A0279F6127BD0
:0A511E00E378F67C027D017B01229C
:029F3700AB0776
:109F3900E4FFFEEBC3943D4021EBD39461501BEB4E
:109F490024C3FFEE12801AAA07EB24C3FFE4128090
:0A9F59001AAE05AF021280327F013C
:019F630022DB
:10912700E4FBFAFD7F90129699EEC4F854F0C868F4
:10913700FEEFC4540F48FFEEC4F854F0C868FAEFC6
:10914700C4540F48FB2091047A007B637C007D0A9E
:10915700AF03AE021226F8D3ED9409EC9400500742
:10916700ED2430900221F0AE02AF037C007D0A129D
:0991770026F8EF2430900226F0E6
:0191800022CC
:1076A000900006127FBE12293E00000000E4FF1287
:1076B000A307900006EEF0A3EFF0900006E0FEA313
:1076C000E0FF127FF07F6E7E02127FC64042E47FB1
:1076D000A57E03FDFC900009E0F8A3A3A3E0D3126C
:1076E000290E9000095020E0F8A3A3A3C374A59B22
:1076F000FF74039AFEE499FDE498FCE47B707A0140
:10770000F9F81227F1802B12293E00030AE8803194
:107710007FF37E01127FC6401E900006E0FEA3E0CC
:10772000FF746E9FFF74029EFE7C007DD21226E6DF
:10773000E4FD127FF3800A90000912293E0000F256
:1077400094E47B64FAF9F8900009E0FCA3E0FDA35F
:10775000E0FEA3E0FF12287C900006EEF0FAA3EF13
:10776000F0FB127FF0D3EB940FEA9427400A9000CD
:10777000067427F0A3740FF0900006E0FAA3E0FB74
:107780007C037DE8127F94EF243090021BF07C0391
:107790007DE8127FAE7D64127F8AEF243090021A5A
:1077A000F07D64127FAC7D0A127F8AEF2430900254
:0D77B00019F07D0A127FAC2430900218F011
:0177BD0022A9
:1092300012800E7450F0A37430F0A37461F0A37424
:1092400031127FF990000CF090000CE0FFD39407EE
:109250005013127F6EE0FFEE6F900213F090000C3F
:10926000E004F080E3E490000CF090000CE0FFD309
:1092700094085010127F73E0FF12000390000CE07E
:0492800004F080E690
:0192840022C7
:1090070012800E744FF090023FE090020EF0900233
:1090170040E090020FF0900241E0900210127FF9B9
:1090270090000CF090000CE0FFD394075013127FD0
:109037006EE0FFEE6F900213F090000CE004F080FA
:10904700E3E490000CF090000CE0FFD3940850107C
:10905700127F73E0FF12000390000CE004F080E63B
:0190670022E6
:10002E001010FFFFFFFFFFFFFFFFFFFFFFFFFFFFB0
:10003E00FFFFFFFFFFFFFFFFFFFFFFFFFFFFFFFFC2
:10004E00FFFFFFFFFFFFFFFFFFFFFFFFFFFFFFFFB2
:10005E00FFFFFFFFFFFFFFFFFFFFFFFFFFFFFFFFA2
:10006E00FFFFFFFFFFFFFFFFFFFFFFFFFFFFFFFF92
:10007E00FFFFFFFFFFFFFFFFFFFFFFFFFFFFFFFF82
:10008E00FFFFFFFFFFFFFFFFFFFFFFFFFFFFFFFF72
:10009E00FFFFFFFFFFFFFFFFFFFFFFFFFFFFFFFF62
:1000AE00FFFFFFFFFFFFFFFFFFFFFFFFFFFFFFFF52
:1000BE00FFFFFFFFFFFFFFFFFFFFFFFFFFFFFFFF42
:1000CE00FFFFFFFFFFFFFFFFFFFFFFFFFFFFFFFF32
:1000DE00FFFFFFFFFFFFFFFFFFFFFFFFFFFFFFFF22
:1000EE00FFFFFFFFFFFFFFFFFFFFFFFFFFFFFFFF12
:1000FE00FFFFFFFFFFFFFFFFFFFFFFFFFFFFFFFF02
:10010E00FFFFFFFFFFFFFFFFFFFFFFFFFFFFFFFFF1
:10011E00FFFFFFFFFFFFFFFFFFFFFFFFFFFFFFFFE1
:10012E00FFFF1010FFFFFFFFFFFFFFFFFFFFFFFFAF
:10013E00FFFFFFFFFFFFFFFFFFFFFFFFFFFFFFFFC1
:10014E00FFFFFFFFFFFFFFFFFFFFFFFFFFFFFFFFB1
:10015E00FFFFFFFFFFFFFFFFFFFFFFFFFFFFFFFFA1
:10016E00FFFFFFFFFFFFFFFFFFFFFFFFFFFFFFFF91
:10017E00FFFFFFFFFFFFFFFFFFFFFFFFFFFFFFFF81
:10018E00FFFFFFFFFFFFFFFFFFFFFFFFFFFFFFFF71
:10019E00FFFFFFFFFFFFFFFFFFFFFFFFFFFFFFFF61
:1001AE00FFFFFFFFFFFFFFFFFFFFFFFFFFFFFFFF51
:1001BE00FFFFFFFFFFFFFFFFFFFFFFFFFFFFFFFF41
:1001CE00FFFFFFFFFFFFFFFFFFFFFFFFFFFFFFFF31
:1001DE00FFFFFFFFFFFFFFFFFFFFFFFFFFFFFFFF21
:1001EE00FFFFFFFFFFFFFFFFFFFFFFFFFFFFFFFF11
:1001FE00FFFFFFFFFFFFFFFFFFFFFFFFFFFFFFFF01
:10020E00FFFFFFFFFFFFFFFFFFFFFFFFFFFFFFFFF0
:10021E00FFFFFFFFFFFFFFFFFFFFFFFFFFFFFFFFE0
:10022E00FFFFFFFF1010FFFFFFFFFFFFFFFFFFFFAE
:10023E00FFFFFFFFFFFFFFFFFFFFFFFFFFFFFFFFC0
:10024E00FFFFFFFFFFFFFFFFFFFFFFFFFFFFFFFFB0
:10025E00FFFFFFFFFFFFFFFFFFFFFFFFFFFFFFFFA0
:10026E00FFFFFFFFFFFFFFFFFFFFFFFFFFFFFFFF90
:10027E00FFFFFFFFFFFFFFFFFFFFFFFFFFFFFFFF80
:10028E00FFFFFFFFFFFFFFFFFFFFFFFFFFFFFFFF70
:10029E00FFFFFFFFFFFFFFFFFFFFFFFFFFFFFFFF60
:1002AE00FFFFFFFFFFFFFFFFFFFFFFFFFFFFFFFF50
:1002BE00FFFFFFFFFFFFFFFFFFFFFFFFFFFFFFFF40
:1002CE00FFFFFFFFFFFFFFFFFFFFFFFFFFFFFFFF30
:1002DE00FFFFFFFFFFFFFFFFFFFFFFFFFFFFFFFF20
:1002EE00FFFFFFFFFFFFFFFFFFFFFFFFFFFFFFFF10
:1002FE00FFFFFFFFFFFFFFFFFFFFFFFFFFFFFFFF00
:10030E00FFFFFFFFFFFFFFFFFFFFFFFFFFFFFFFFEF
:10031E00FFFFFFFFFFFFFFFFFFFFFFFFFFFFFFFFDF
:10032E00FFFFFFFFFFFF1010FFFFFFFFFFFFFFFFAD
:10033E00FFFFFFFFFFFFFFFFFFFFFFFFFFFFFFFFBF
:10034E00FFFFFFFFFFFFFFFFFFFFFFFFFFFFFFFFAF
:10035E00FFFFFFFFFFFFFFFFFFFFFFFFFFFFFFFF9F
:10036E00FFFFFFFFFFFFFFFFFFFFFFFFFFFFFFFF8F
:10037E00FFFFFFFFFFFFFFFFFFFFFFFFFFFFFFFF7F
:10038E00FFFFFFFFFFFFFFFFFFFFFFFFFFFFFFFF6F
:10039E00FFFFFFFFFFFFFFFFFFFFFFFFFFFFFFFF5F
:1003AE00FFFFFFFFFFFFFFFFFFFFFFFFFFFFFFFF4F
:1003BE00FFFFFFFFFFFFFFFFFFFFFFFFFFFFFFFF3F
:1003CE00FFFFFFFFFFFFFFFFFFFFFFFFFFFFFFFF2F
:1003DE00FFFFFFFFFFFFFFFFFFFFFFFFFFFFFFFF1F
:1003EE00FFFFFFFFFFFFFFFFFFFFFFFFFFFFFFFF0F
:1003FE00FFFFFFFFFFFFFFFFFFFFFFFFFFFFFFFFFF
:10040E00FFFFFFFFFFFFFFFFFFFFFFFFFFFFFFFFEE
:10041E00FFFFFFFFFFFFFFFFFFFFFFFFFFFFFFFFDE
:10042E00FFFFFFFFFFFFFFFF1010FFFFFFFFFFFFAC
:10043E00FFFFFFFFFFFFFFFFFFFFFFFFFFFFFFFFBE
:10044E00FFFFFFFFFFFFFFFFFFFFFFFFFFFFFFFFAE
:10045E00FFFFFFFFFFFFFFFFFFFFFFFFFFFFFFFF9E
:10046E00FFFFFFFFFFFFFFFFFFFFFFFFFFFFFFFF8E
:10047E00FFFFFFFFFFFFFFFFFFFFFFFFFFFFFFFF7E
:10048E00FFFFFFFFFFFFFFFFFFFFFFFFFFFFFFFF6E
:10049E00FFFFFFFFFFFFFFFFFFFFFFFFFFFFFFFF5E
:1004AE00FFFFFFFFFFFFFFFFFFFFFFFFFFFFFFFF4E
:1004BE00FFFFFFFFFFFFFFFFFFFFFFFFFFFFFFFF3E
:1004CE00FFFFFFFFFFFFFFFFFFFFFFFFFFFFFFFF2E
:1004DE00FFFFFFFFFFFFFFFFFFFFFFFFFFFFFFFF1E
:1004EE00FFFFFFFFFFFFFFFFFFFFFFFFFFFFFFFF0E
:1004FE00FFFFFFFFFFFFFFFFFFFFFFFFFFFFFFFFFE
:10050E00FFFFFFFFFFFFFFFFFFFFFFFFFFFFFFFFED
:10051E00FFFFFFFFFFFFFFFFFFFFFFFFFFFFFFFFDD
:10052E00FFFFFFFFFFFFFFFFFFFF1010FFFFFFFFAB
:10053E00FFFF00000000FFFFFFFFFFFFFFFFFFFFB9
:10054E00FF000000000000FFFFFFFFFFFFFFFFFFA7
:10055E000000020202020000FFFFFFFFFFFFFFFF8D
:10056E000000020202020000FFFFFFFFFFFFFF007C
:10057E00000202000002020000FFFFFFFFFFFF006B
:10058E00000202000002020000FFFFFFFFFF00005A
:10059E0002020000000002020000FFFFFFFF000049
:1005AE00020200FFFF0002020000FFFFFF00000238
:1005BE00020000FFFF000002020000FFFF00000229
:1005CE000200000000000002020000FF0000020214
:1005DE0002020202020202020202000000000202F5
:1005EE0002020202020202020202000000000202E5
:1005FE0000000000000000000202000000000202E5
:10060E000000FFFFFFFF00000202000000000202D8
:10061E000000FFFFFFFF00000202000000000000CC
:10062E000000FFFFFFFF00000000000010100000A0
:10063E00000000000000000000000000FFFF0002AC
:10064E0002020202020202020202000000FF000287
:10065E000202020202020202020202000000000076
:10066E000002020000000000020202020000FF0071
:10067E0000020200FFFFFF00000202020000FF0066
:10068E0000020200FFFFFF00000202020000FF0056
:10069E0000020200000000000202020000FFFF0044
:1006AE00000202020202020202020000FFFFFF002D
:1006BE00000202020202020202020000FFFFFF001D
:1006CE0000020200000000000202020000FFFF0014
:1006DE0000020200FFFFFF00000202020000FF0006
:1006EE0000020200FFFFFF000002020200000000F5
:1006FE0000020200000000000202020200000002DE
:10070E0002020202020202020202020000000002C3
:10071E0002020202020202020202000000FF0000B8
:10072E00000000000000000000000000FFFF10109D
:10073E00FFFFFF00000000000000000000FFFFFFB1
:10074E00FFFF00000202020202020202000000FF8E
:10075E00FF00000202020202020202020200000078
:10076E000000000202000000000000020202000071
:10077E0000000202020000FFFFFF00000202000064
:10078E00000002020000FFFFFFFFFF000202000058
:10079E00000002020000FFFFFFFFFFFF000000004D
:1007AE00000002020000FFFFFFFFFFFFFFFFFFFF41
:1007BE00000002020000FFFFFFFFFFFFFFFFFFFF31
:1007CE00000002020000FFFFFFFFFF00000000001C
:1007DE00000002020000FFFFFFFFFF000202000008
:1007EE0000000202000000FFFFFF000002020000F6
:1007FE0000000202020000000000000202020000DF
:10080E00FF000002020202020202020202000000C7
:10081E00FFFF00000202020202020202000000FFBD
:10082E00FFFFFF0000000000000000000000FFFFBF
:10083E001010000000000000000000000000FFFF8C
:10084E00FFFF00000202020202020202020000FF8B
:10085E00FFFF000002020202020202020202000078
:10086E00FFFF000002020000000000020202000072
:10087E00FFFF000002020000FFFF00000202000066
:10088E00FFFF000002020000FFFF00000202000056
:10089E00FFFF000002020000000000020202000042
:1008AE00FFFF00000202020202020202020000FF2B
:1008BE00FFFF00000202020202020202000000FF1D
:1008CE00FFFF000002020000020202000000FFFF14
:1008DE00FFFF000002020000000202020000FFFF04
:1008EE00FFFF00000202000000000202020000FFF3
:1008FE00FFFF000002020000FF00000202020000E3
:10090E00FFFF000002020000FFFF000002020200D3
:10091E0000FF000002020000FFFFFF0000020202C3
:10092E0000FF000000000000FFFFFFFF00000000BE
:10093E0000FF101000000000FFFFFFFFFFFFFFFF92
:10094E00000000000000000000FFFFFFFFFFFF009F
:10095E000000000000000C0C0000FFFFFFFF000075
:10096E000C0C000000000C0C0C0000000000000C31
:10097E000C0C000000000C0C0C0C000000000C0C09
:10098E000C0C000000000C0C0C0C0C0C0C0C0C0CC9
:10099E000C0C000000000C0C0C0C0C0C0C0C0C0CB9
:1009AE000C0C000000000C0C0C000C0C0C0C000CC1
:1009BE000C0C000000000C0C0C00000C0C00000CC9
:1009CE000C0C000000000C0C0C0000000000000CD1
:1009DE000C0C000000000C0C0C0000000000000CC1
:1009EE000C0C000000000C0C0C0000FFFF00000CB3
:1009FE000C0C000000000C0C0C0000FFFF00000CA3
:100A0E000C0C000000000C0C0C0000FFFF00000C92
:100A1E000C0C000000000C0C0C0000FFFF00000C82
:100A2E000C0C000000000000000000FFFF000000A2
:100A3E00000000001010FF00000000000000000089
:100A4E000000000000FFFF0000020202020202028C
:100A5E000202020000FFFF00000202020202020276
:100A6E000202020000FFFF00000000000000020270
:100A7E000200000000FFFFFFFFFFFFFF0000020269
:100A8E00020000FFFFFFFFFFFFFFFFFF000002025B
:100A9E00020000FFFFFFFFFFFFFFFFFF000002024B
:100AAE00020000FFFFFFFFFFFFFFFFFF000002023B
:100ABE00020000FFFFFFFFFFFFFFFFFF000002022B
:100ACE00020000FFFFFFFFFFFFFFFFFF000002021B
:100ADE00020000FFFFFFFF00000000FF0000020207
:100AEE00020000FFFFFFFF000202000000000202F2
:100AFE00020000FFFFFFFF000202020000020202DE
:100B0E00020000FFFFFFFF000002020202020202CB
:100B1E00000000FFFFFFFFFF0000020202020200C2
:100B2E000000FFFFFFFFFFFFFF00000000000000BE
:100B3E0000FFFFFFFFFF1010FFFFFFFFFFFFFFFF94
:100B4E00FFFFFFFFFFFFFFFFFFFFFFFFFF000000A4
:100B5E0000000000FFFFFFFFFFFFFFFF000001018D
:100B6E0001010000FFFFFFFFFFFFFF000001010179
:100B7E0001010000FFFFFFFFFFFF00000101010167
:100B8E00010000FFFFFFFFFFFF0000010101010157
:100B9E000000000000000000000001010101010141
:100BAE00010101010101000000010101010101012A
:100BBE00010101010101000000010101010101011A
:100BCE00010101010101000000000101010101010B
:100BDE000101010101010000FF00000101010101FD
:100BEE000000000000000000FFFF000001010101F5
:100BFE00010000FFFFFFFFFFFFFFFF0000010101EB
:100C0E0001010000FFFFFFFFFFFFFFFF00000101DA
:100C1E0001010000FFFFFFFFFFFFFFFFFF000000CD
:100C2E0000000000FFFFFFFFFFFFFFFFFFFFFFFFC2
:100C3E00FFFFFFFFFFFFFFFF1010FFFFFFFFFFFF94
:100C4E00FFFFFFFFFFFFFFFFFFFFFFFFFFFF0000A4
:100C5E000000000000FFFFFFFFFFFFFFFFFF00008F
:100C6E00010101010000FFFFFFFFFFFFFFFF00007A
:100C7E0001010101010000FFFFFFFFFFFFFFFF0069
:100C8E000001010101010000FFFF00000000000053
:100C9E00000001010101010000FF0000010101013E
:100CAE00010101010101010100000000010101012A
:100CBE000101010101010101010000000101010119
:100CCE00010101010101010101000000000000000D
:100CDE00000001010101010000FF00000000000002
:100CEE00000001010101010000FFFFFFFFFFFF00F7
:100CFE000001010101010000FFFFFFFFFFFF0000E7
:100D0E0001010101010000FFFFFFFFFFFFFF0000D7
:100D1E00010101010000FFFFFFFFFFFFFFFF0000C9
:100D2E000000000000FFFFFFFFFFFFFFFFFFFFFFC0
:100D3E00FFFFFFFFFFFFFFFFFFFF1010FFFFFFFF93
:100D4E000000000000000000FFFFFFFFFFFFFFFF9D
:100D5E000000010101010000FFFFFFFFFFFFFFFF89
:100D6E000000010101010000FFFFFFFFFFFFFFFF79
:100D7E000000010101010000FFFFFFFFFFFFFFFF69
:100D8E000000010101010000FFFFFFFF0000000055
:100D9E00000001010101000000000000000001013F
:100DAE00000001010101000001010000000001012D
:100DBE00010001010101000101010000000001011B
:100DCE000101010101010101010100000000010109
:100DDE00010101010101010101010000FF000001FB
:100DEE000101010101010101010000FFFFFF0000EF
:100DFE0001010101010101010000FFFFFFFFFF00E2
:100E0E00000101010101010000FFFFFFFFFFFFFFD5
:100E1E000000010101010000FFFFFFFFFFFFFFFFC8
:100E2E00FF000001010000FFFFFFFFFFFFFFFFFFBC
:100E3E00FFFF00000000FFFFFFFFFFFF1010FFFF8E
:100E4E00FFFFFFFFFFFF0000000000000000FFFF9C
:100E5E00FFFFFFFFFF000002020202020000FFFF81
:100E6E00FFFFFFFF00000202020202020000FFFF6E
:100E7E00FFFFFF000002020200000202000000005D
:100E8E00000000000202020000000202000000004A
:100E9E000202020202020200FF0002020000000033
:100EAE000202020202020200FF0002020000000023
:100EBE000202000000020200FF0002020000000019
:100ECE00020200FF00020200FF000202000000000A
:100EDE000202000000020200FF00020200000000F9
:100EEE000202020202020200FF00020200000000E3
:100EFE0002020202020202000000020200000000D2
:100F0E000000000000020202000002020000FFFFCB
:100F1E00FFFFFFFF00000202020202020000FFFFBD
:100F2E00FFFFFFFFFF000002020202020000FFFFB0
:100F3E00FFFFFFFFFFFF0000000000000000101089
:100F4E000000000000FFFFFFFFFFFF000000000099
:100F5E000001010100FFFFFFFFFFFF000101010083
:100F6E000001010100FFFFFFFFFFFF000101010073
:100F7E000001010100FFFFFFFFFFFF000101010063
:100F8E000001010100FFFFFFFFFFFF000101010053
:100F9E00000101010000FFFFFFFF00000101010041
:100FAE00000101010100FFFFFFFF0001010101002F
:100FBE00000001010100FFFFFFFF00010101000021
:100FCE0000000101010000FFFF000001010100000F
:100FDE00FF0000010101000000000101010000FFFF
:100FEE00FFFF000001010100000101010000FFFFF1
:100FFE00FFFF000000010100000101000000FFFFE3
:10100E00FFFFFF00000101010101010000FFFFFFD2
:10101E00FFFFFFFF0000010101010000FFFFFFFFC6
:10102E00FFFFFFFFFF00000101000000FFFFFFFFB9
:10103E00FFFFFFFFFFFF0000000000FFFFFFFFFFAD
:10104E00101000000000000000FFFFFFFFFFFFFF79
:10105E00FFFF00000101010000FFFFFFFFFFFFFF88
:10106E00FFFF00000101010000FFFFFFFFFFFFFF78
:10107E00FFFF00000101010000FFFFFFFFFFFFFF68
:10108E00FFFF00000101010000FFFFFFFFFFFFFF58
:10109E00FFFF00000101010000FFFFFFFFFFFFFF48
:1010AE00FFFF00000101010000FFFFFFFFFFFFFF38
:1010BE00FFFF00000101010000FFFFFFFFFFFFFF28
:1010CE00FFFF00000101010000FFFFFFFFFFFFFF18
:1010DE00FFFF00000101010000FFFFFFFFFF000006
:1010EE00000000000101010000FFFFFFFFFF0000F4
:1010FE00000000000101010000FFFFFFFF000001E2
:10110E0000000000010101000000000000000101CC
:10111E0000000000010101010101010101010101B5
:10112E0000000000010101010101010101010101A5
:10113E0000000000000000000000000000000000A1
:10114E0000001010FFFFFFFFFFFFFFFFFFFFFFFF7D
:10115E00FFFFFFFFFFFFFFFFFFFFFFFFFFFFFFFF91
:10116E00FFFFFFFFFFFFFFFFFFFFFFFFFFFFFFFF81
:10117E00FFFFFFFFFFFFFFFF00000000000000FF6A
:10118E00FFFFFFFFFFFFFF00000001010100000055
:10119E00FFFFFFFFFFFF0000010101010101010040
:1011AE0000FFFFFFFF00000101010000000101012F
:1011BE000000FFFF00000001010000FF0000010120
:1011CE00000000FF00000101010000FF000001010E
:1011DE00010000FF00000101010000FF00000101FD
:1011EE00010000FF00000101010000FF00000101ED
:1011FE00010000FF00000001010000FF00000101DE
:10120E00000000FFFF0000010101000000010101CC
:10121E000000FFFFFFFF00000101010101010100BD
:10122E0000FFFFFFFFFFFF000000010101000000B3
:10123E00FFFFFFFFFFFFFFFF00000000000000FFA9
:10124E00FFFFFFFF1010FFFFFFFFFFFFFFFFFFFF7E
:10125E00FFFFFFFFFFFFFFFFFFFF0000000000008A
:10126E000000FFFFFFFFFFFF00000000020202026E
:10127E00000000FFFFFFFF00000002020202020258
:10128E0002020000FFFFFF00000202020000000049
:10129E000202020000FFFF00000202020000FF0037
:1012AE000000000000FFFF0000000202020200002A
:1012BE000000FFFFFFFFFFFFFF000002020202021D
:1012CE00020000FFFFFFFFFFFFFF00000000020211
:1012DE0002020000FFFFFF0000000000FFFF000001
:1012EE000202020000FFFF000002020200000000E6
:1012FE000202020000FFFF000000020202020202D0
:10130E0002020000FFFFFFFFFF00000002020202C8
:10131E00000000FFFFFFFFFFFFFFFF0000000000C7
:10132E000000FFFFFFFFFFFFFFFFFFFFFFFFFFFFBD
:10133E00FFFFFFFFFFFFFFFFFFFFFFFFFFFFFFFFAF
:10134E00FFFFFFFFFFFF1010FFFFFFFFFFFFFFFF7D
:10135E00FFFFFFFFFFFFFFFFFFFFFFFFFFFFFFFF8F
:10136E00FFFFFFFFFFFFFFFFFFFFFFFFFFFFFFFF7F
:10137E00FFFFFFFFFFFFFFFFFFFFFFFFFFFFFFFF6F
:10138E00FFFFFFFFFFFFFFFFFFFFFFFFFFFFFFFF5F
:10139E00FFFFFFFFFFFFFFFFFFFFFFFFFFFFFFFF4F
:1013AE00FFFFFFFFFFFFFFFFFFFFFFFFFFFFFFFF3F
:1013BE00FFFFFFFFFFFFFFFFFFFFFFFFFFFFFFFF2F
:1013CE00FFFFFFFFFFFFFFFF1010FFFFFFFFFFFFFD
:1013DE00FFFFFFFFFFFFFFFFFFFFFFFFFFFFFFFF0F
:1013EE00FFFFFFFFFFFFFFFFFFFFFFFFFFFFFFFFFF
:1013FE00FFFFFFFFFFFFFFFFFFFFFFFFFFFFFFFFEF
:10140E00FFFFFFFFFFFFFFFFFFFFFFFFFFFFFFFFDE
:10141E00FFFFFFFFFFFFFFFFFFFFFFFFFFFFFFFFCE
:10142E00FFFFFFFFFFFFFFFFFFFFFFFFFFFFFFFFBE
:10143E00FFFFFFFFFFFFFFFFFFFFFFFFFFFFFFFFAE
:10144E00FFFFFFFFFFFFFFFFFFFF1010FFFFFFFF7C
:10145E00FFFFFFFFFFFFFFFFFFFFFFFFFFFFFFFF8E
:10146E00FFFFFFFFFFFFFFFFFFFFFFFFFFFFFFFF7E
:10147E00FFFFFFFFFFFFFFFFFFFFFFFFFFFFFFFF6E
:10148E00FFFFFFFFFFFFFFFFFFFFFFFFFFFFFFFF5E
:10149E00FFFFFFFFFFFFFFFFFFFFFFFFFFFFFFFF4E
:1014AE00FFFFFFFFFFFFFFFFFFFFFFFFFFFFFFFF3E
:1014BE00FFFFFFFFFFFFFFFFFFFFFFFFFFFFFFFF2E
:1014CE00FFFFFFFFFFFFFFFFFFFFFFFF1010FFFFFC
:1014DE00FFFFFFFFFFFFFFFFFFFFFFFFFFFFFFFF0E
:1014EE00FFFFFFFFFFFFFFFFFFFFFFFFFFFFFFFFFE
:1014FE00FFFFFFFFFFFFFFFFFFFFFFFFFFFFFFFFEE
:10150E00FFFFFFFFFFFFFFFFFFFFFFFFFFFFFFFFDD
:10151E00FFFFFFFFFFFFFFFFFFFFFFFFFFFFFFFFCD
:10152E00FFFFFFFFFFFFFFFFFFFFFFFFFFFFFFFFBD
:10153E00FFFFFFFFFFFFFFFFFFFFFFFFFFFFFFFFAD
:10154E00FFFFFFFFFFFFFFFFFFFFFFFFFFFF10107B
:10155E00FFFFFFFFFFFFFFFFFFFFFFFFFFFFFFFF8D
:10156E00FFFFFFFFFFFFFFFFFFFFFFFFFFFFFFFF7D
:10157E00FFFFFFFFFFFFFFFFFFFFFFFFFFFFFFFF6D
:10158E00FFFFFFFFFFFFFFFFFFFFFFFFFFFFFFFF5D
:10159E00FFFFFFFFFFFFFFFFFFFFFFFFFFFFFFFF4D
:1015AE00FFFFFFFFFFFFFFFFFFFFFFFFFFFFFFFF3D
:1015BE00FFFFFFFFFFFFFFFFFFFFFFFFFFFFFFFF2D
:1015CE00FFFFFFFFFFFFFFFFFFFFFFFFFFFFFFFF1D
:1015DE001010FFFFFF0000FFFFFFFFFFF000000FE6
:1015EE00FFFFFFFF00222200FFFFFFFF002222006D
:1015FE00FFFFFFF0022002200FFFFFF0022002206B
:10160E000FFFFF002200002200FFFF00220FF0223A
:10161E0000FFF002200FF002200FF0022000000267
:10162E00200F002222222222220000222222222207
:10163E0022000022000000002200002200FFFF0016
:10164E002200002200FFFF002200000000FFFF002A
:10165E000000101000000000000000FF02222222F5
:10166E002222000F0222222222222000000220002B
:10167E0000222200F00220FFF0022200F00220FFE2
:10168E00F0022200F00220000022200FF00222229F
:10169E00222200FFF0022222222200FFF00220006E
:1016AE000022200FF00220FFF0022200F00220FFA5
:1016BE00F00222000002200000222200022222223A
:1016CE0022222000022222222222000F00000000ED
:1016DE00000000FF1010101010101010101010103D
:0A16EE001010101010101010101052
:109BF7001226A7FF900407E02F9001F5F0229001AD
:109C0700EFE0FBA3E0FAA3E0F922F09001EFE0FB1D
:109C1700A3E475F001122763A9F0FA02268E9001DA
:089C2700E6E0D3648094802282
:06A67900E4900407F0224A
:06A67F00900407EFF02239
:0B63E8009001E7EFF0A3ECF0A3EDF054
:1063F3009001E7E0FF25E0F0E02408F09001EEF0E3
:106403009001E8E0FEA3E07803C333CE33CED8F99E
:10641300F0EE9001E8F0A3E02408F09001E8E03406
:1064230000F0AF037E007C017D021226E6742E2F5E
:10643300F974003EFA9001EF74FFF0A3EAF0A3E9C8
:10644300129C119001EA129C119001EBF0E4A3F06D
:106453009001EAE0FF9001ECE0C39F400302652F47
:10646300E4A3F09001EBE0FF9001EDE0C39F400354
:10647300026510129C0512268E129BFAE4FB7D0224
:10648300FF128E17129C05900001129BF77B0112DD
:106493006559900002129BF77B0212655990000325
:1064A300129BF77B0312656C9001F57480F07B04FB
:1064B30012656C9001F0E475F00412274D9001EE23
:1064C300E09001F5F07B05126574A3E09001F5F00F
:1064D3007B07126574E07E007802C333CE33CED8D7
:1064E300F912653012657F20E7FA9001E8E025E0B4
:1064F30025E0440812653012657F20E7FA9001EE2B
:10650300E004F09001EDE02404F00264669001E7FA
:10651300E09001EEF09001E9E004F070069001E8EC
:0C652300E004F09001ECE004F00264538E
:10652F00229001F5F07B097D02E4FF128E177B0AA2
:10653F007D02E4FF1288ADEF543F44809001F5F0E7
:10654F007B0A7D02E4FF128E17227D02E4FF128E7A
:10655F00179001EFE0FBA3E0FAA3E0F9227D02E43C
:10656F00FF128E17227D02E4FF128E179001E82290
:0B657F007B0A7D02E4FF1288ADEF22D2
:0B9068009001E0EFF0A3EDF0A3EBF0AF
:10907300A3129C0812A4469001E6EFF0C364809407
:109083008040429001E0E030E0339001E1E0FFA353
:10909300E0FD7C00A3129C0812268EFB1263E8906D
:1090A30001E6E014F09001E4E475F00112274D901D
:1090B30001E1E02402F0129C2550CF8005129C258B
:0590C30050FB12A6A302
:0190C8002285
:10A2E7000500000600000700000800000900000A3A
:10A2F700000012000020000B000C000D000E0000F3
:036D13000121005B
:1081C300900383E075F003A424E7F974A235F0FA71
:1081D3009001E374FFF0A3229001DDE0FBA3E0FA3A
:1081E300A3E0F922900383E0FF74017E00A807084F
:1081F30022FF900390E0FDEF5D2274A3F0A37406C9
:10820300F0229000010226A774A2F0A374F3F022D7
:1082130074A3F0A37404F022EAF0A3E9F0E4FB22D0
:108223009000020226A712268E540C1313543FF516
:108233003A22EAF0A3E9F07B12227B017D127C0053
:10824300227D197B057C007F3A22EBF0A3EAF0A3A1
:10825300E9F0229000030226A77B017D0F7C002218
:10826300EAF0A3E9F07B0F227B01E4FDFC7F1C22F3
:088273007B01E4FDFC7F4122C8
:109374001271FC12A6797F0412A69D7F0312A6A087
:10938400E4F53AAF3A1293AA053AE53AC394064093
:10939400F27F01129CD47FFF12A6A07F081293AA29
:0593A400E4900380F0DD
:1093A9002212A3279001E1E4F0A37426F07B5AE48A
:0793B900FDFCFF1283DE2220
:1043D3009001DD12824D7F0212A69D7FFF12A6A0DF
:1043E300900382E01229DE441811442721445B2202
:1043F300448F3144CD33450834454341459391457A
:10440300AAA145D6A245FFB14644B34685B446C7E3
:10441300C1000047241281DB12268E20E1030247EC
:104423002402459F1281DB12268E30E10D1281C3D7
:1044330012821B7DFF7F011290681281DB128205BD
:1044430020E1030247249003841281C6EAF0A3E922
:10445300F07B1D7D5D02471F1281DB12268E30E14A
:10446300111281C3EAF0A3E9F07B0E7D487F0112AC
:1044730090681281DB12820520E103024724900336
:10448300841281C612821B7D1402471F1281DB1224
:10449300268E30E1091281C312821B1247711281E9
:1044A300DB12820530E1099003841281C612475260
:1044B3001281DB12822320E1030247249003851239
:1044C30081C61282637D3E02471F1281DB12268E54
:1044D30030E1061281C31247251281DB12820530B7
:1044E300E1099003841281C61247431281DB1282D1
:1044F3002320E1030247249003851281C6128263BD
:104503007D3E02471F1281DB12268E30E1061281A7
:10451300C31247251281DB12820530E1099003841F
:104523001281C61247431281DB12822320E1030268
:1045330047249003851281C61282637D1402471FAC
:104543001281DB12268E30E1061281C31247341228
:1045530081DB12820530E10C9003841281C6128242
:104563001B1247691281DB12822330E10990038514
:104573001281C61247521281DB12825620E10302D6
:1045830047249003861281C61282637D3E02471F31
:104593001281DB12268E20E1030247241281C3120B
:1045A300821B7D2902471F1281DB12268E30E1090F
:1045B3001281C312821B1247711281DB1282052002
:1045C300E1030247249003841281C61282357D29B8
:1045D30002471F1281DB12268E30E1061281C312BD
:1045E30047341281DB12820520E103024724900342
:1045F300841281C612821B7D3E02471F1281DB1289
:10460300268E30E10D1281C312821B7D297F011298
:1046130090681281DB12820530E10C9003841281D1
:10462300C61282351247611281DB12822320E10315
:104633000247249003851281C61282357D3E0247CC
:104643001F1281DB12268E30E1091281C312821BF5
:104653001247611281DB12820530E10C9003841250
:1046630081C612821B1247691281DB12822320E169
:10467300030247249003851281C61282357D3E02D0
:10468300471F1281DB12268E30E1091281C3128289
:104693001B1247791281DB12820530E110900384EB
:1046A3001281C612821B7D3E7F011290681281DB4C
:1046B30012822330E16B9003851281C61282357D0D
:1046C3001402471F1281DB12268E30E1091281C3C7
:1046D30012821B1247791281DB12820530E110909E
:1046E30003841281C612821B7D3E7F0112906812E1
:1046F30081DB12822330E1109003851281C612827E
:10470300357D147F011290681281DB12825630E1ED
:10471300109003861281C61282357D3E7F0112906E
:104723006822EAF0A3E9F0E4FB7D147F01129068AC
:1047330022EAF0A3E9F0E4FB7D147F0112906822E2
:10474300EAF0A3E9F0E4FB7D3E7F0112906822EAE0
:10475300F0A3E9F07B0F7D147F01129068227D1492
:104763007F01129068227D3E7F01129068227D298D
:0E4773007F01129068227D147F01129068224F
:08A66900900381E04480F0221F
:109652007B787D01E4FF1288ADEF540FFF900390F9
:10966200F0900381E06F602ED2277B31E4FDFF1280
:1096720088ADEF547F9001F5F07B31E4FDFF128E4F
:10968200177F4D12A69D7F4012A67F12A6799003E6
:0796920090E0900381F0223B
:066B60009001DD12824DE0
:106B66007F4112A69D900382E01229DE6B9A116B7B
:106B7600AB216BDF226C16316C39336C56346B9A51
:106B8600916BABA16BDFA26C16B16C39B36C56B4CA
:106B960000006C939001DD1281DE128229600302EF
:106BA6006C21026C2F9001DD1281DE1282296012A7
:106BB600126C941281D212821B7D1C7F0112906886
:106BC600800612826B12827B9001DD1281DE1282B8
:106BD6000512822C6037026C649001DD1281DE1290
:106BE60082296012126C941281D212821B7D1C7F44
:106BF60001129068800612826B12827B9001DD1270
:106C060081DE12820512822C6003026C64026C899A
:106C16009001DD1281DE128229600E126CAD1281A6
:106C2600D212821B7D31026C847B01E4FDFC7F3134
:106C3600026C909001DD1281DE128229600D126CC9
:106C4600AD1281D212821B7D1C803312826B803A78
:106C56009001DD1281DE12820512822C60257B02F4
:106C6600E4FDFCFF12827BE53A25E0FFE433FE7487
:106C7600FC2FF974A23E1281D212821B7D467F013F
:0D6C86000290687B01E4FDFC7F4612827BDA
:106C9300227B02E4FDFCFF12827BE53A25E0FFE460
:106CA30033FE74FC2FF974A23E227B02E4FDFCFF49
:106CB30012827BE53A25E0FFE433FE74FC2FF9747E
:036CC300A23E22CC
:1031F2009001DD12824D7F0C12A69D900382E01297
:1032020029DE32321132442132702232993132E4D3
:103212003333273433764133E4913401A1343CA271
:103222003475B134D2B33527B43582C1000035FBD1
:103232009001DD1281DE12268E30E0030233F002AD
:1032420033FA9001DD1281DE12268E30E00B1281FC
:10325200D312820B12367E80031236539001DD1296
:1032620081DE12820530E0030234270234349001F9
:10327200DD1281DE12268E30E0081281D31235FC77
:10328200800312361E9001DD1281DE12820530E0CB
:103292000302346202346F9001DD1281DE12268E47
:1032A20030E00B1281D312820B12367E800312366B
:1032B200539001DD1281DE12820530E00B1281D3C0
:1032C20012820B1236A8800812825C7F1712827B50
:1032D2009001DD1281DE12822330E0030233D2023A
:1032E20033DD9001DD1281DE12268E30E00812817C
:1032F200D31235FC800312361E9001DD1281DE12DC
:10330200820530E00B1281D312820B1236698003E0
:103312001236299001DD1281DE12822330E003028F
:1033220033D20233DD9001DD1281DE12268E30E0CF
:10333200081281D312360D80031236349001DD1249
:1033420081DE12820530E00B1281D312820B12361B
:103352006980031236299001DD1281DE1282233048
:10336200E00B1281D312820B7B0F0235727B017D3F
:103372000F02357B9001DD1281DE12268E30E008CD
:103382001281D312360D80031236349001DD128180
:10339200DE12820530E00B1281D312820B123693B9
:1033A200800312365E9001DD1281DE12822330E04C
:1033B2000B1281D312820B1236A8800812825C7F14
:1033C2001712827B9001DD1281DE12825630E00BF1
:1033D2001281D312820B7B0F02346A7B017D0F02B2
:1033E20034CB9001DD1281DE12268E30E00A12818A
:1033F200D312820BE4FB80357B01E4FDFC80369026
:1034020001DD1281DE12268E30E00B1281D3128290
:103412000B1236B280031236889001DD1281DE1261
:10342200820530E00D1281D312820B7B0F7D2C02BC
:1034320035EE12825C7F2C0235F89001DD1281DEBE
:1034420012268E30E00B1281D312820B12363F808D
:10345200031236739001DD1281DE12820530E00D17
:103462001281D312820BE4FB7D410235EE1282738C
:103472000235F89001DD1281DE12268E30E00B1249
:1034820081D312820B1236B280031236889001DD8C
:103492001281DE12820530E00B1281D312820B12EE
:1034A20036BC800812823D7F1712827B9001DD12AA
:1034B20081DE12822330E00D1281D312820B7B1245
:1034C2007D410235EE7B017D127C007F410235F8A1
:1034D2009001DD1281DE12268E30E00B1281D312B2
:1034E200820B12363F80031236739001DD1281DEA9
:1034F20012820530E00B1281D312820B12369380B6
:103502000312365E9001DD1281DE12822330E00D5D
:103512001281D312820B7B127D410235EE12823D63
:103522007F410235F89001DD1281DE12268E30E0F5
:103532000B1281D312820B123649800312369D90F0
:1035420001DD1281DE12820530E00B1281D312827C
:103552000B1236C6800612827312827B9001DD1234
:1035620081DE12822330E00D1281D312820B7B1294
:103572007D170235EE7B017D127C007F170235F844
:103582009001DD1281DE12268E30E00B1281D31201
:10359200820B123649800312369D9001DD1281DEC4
:1035A20012820530E00B1281D312820B1236C680D2
:1035B2000612827312827B9001DD1281DE12822357
:1035C20030E00B1281D312820B1236BC80081282B9
:1035D2003D7F1712827B9001DD1281DE128256300E
:1035E200E00F1281D312820B7B127D417F01029088
:1035F2006812823D7F4112827B2274A2F0A374F38F
:10360200F0E4FB7D177F011290682274A2F0A3748C
:10361200F3F0E4FB7D177F01129068227B01E4FD49
:10362200FC7F1712827B227B01E4FDFC7F41128228
:103632007B227B01E4FDFC7F1712827B22E4FB7D6F
:10364200177F0112906822E4FB7D177F01129068B8
:10365200227B01E4FDFC7F2C12827B227B01E4FDB4
:10366200FC7F4112827B22E4FB7D417F0112906844
:10367200227B01E4FDFC7F1712827B22E4FB7D2C7E
:103682007F01129068227B01E4FDFC7F2C12827B79
:1036920022E4FB7D417F01129068227B01E4FDFC64
:1036A2007F1712827B227B0F7D177F011290682287
:1036B200E4FB7D2C7F01129068227B127D177F0133
:0E36C20012906822E4FB7D417F011290682285
:1036D0009003F512824D7F0212A69D900382E012A4
:1036E00029DE370D11371F21374E2237773137C288
:1036F0003338053438544138C29138E5A23922B103
:10370000398CB339E1B43A39C100003AAF9003F5CE
:103710001281DE12268E30E4030238CE0238DB90AE
:1037200003F51281DE12268E30E40B1281D3128251
:1037300013123B478003123B279003F51281DE12E0
:10374000268E30E4030238CE12825C0238E0900309
:10375000F51281DE12268E30E4081281D3123AB0BF
:103760008003123AD29003F51281DE12820530E412
:103770000302390B0239189003F51281DE12268EEE
:1037800030E40B1281D3128213123B478003123BA9
:10379000279003F51281DE12820530E40B1281D3EB
:1037A000128213123B51800812825C7F1F12827BAF
:1037B0009003F51281DE12822330E4030238B00256
:1037C00038BB9003F51281DE12268E30E408128198
:1037D000D3123AB08003123AD29003F51281DE126E
:1037E000820530E40B1281D3128213123B1D800339
:1037F000123ADD9003F51281DE12822330E40302D7
:1038000038B00238BB9003F51281DE12268E30E408
:10381000081281D3123AC18003123AE89003F512DC
:1038200081DE12820530E40B1281D3128213123B27
:103830001D8003123ADD9003F51281DE12822330DF
:10384000E40B1281D31282137B0F023A297B017D94
:103850000F023A329003F51281DE12268E30E40810
:103860001281D3123AC18003123AE89003F5128113
:10387000DE12820530E40B1281D3128213123B3226
:103880008003123B079003F51281DE12822330E49D
:103890000B1281D3128213123B51800812825C7F7B
:1038A0001F12827B9003F51281DE12825630E40BE8
:1038B0001281D31282137B0F0239137B017D0F0219
:1038C00039859003F51281DE12268E30E40D1281C7
:1038D000D3128213E4FB7D34023AA27B01E4FDFCA7
:1038E0007F34023AAC9003F51281DE12268E30E46A
:1038F0000B1281D3128213123AF38003123B1290FF
:1039000003F51281DE12820530E40D1281D312829A
:1039100013E4FB7D49023AA27B01E4FDFC7F4902EE
:103920003AAC9003F51281DE12268E30E41112813A
:10393000D3128213E4FB7D347F01129068800A7BEE
:1039400001E4FDFC7F3412827B9003F51281DE12CC
:10395000820530E40B1281D3128213123B7080086F
:1039600012823D7F1F12827B9003F51281DE12824C
:103970002330E40D1281D31282137B127D49023A67
:10398000A27B017D127C007F49023AAC9003F512C4
:1039900081DE12268E30E40B1281D3128213123A8A
:1039A000F38003123B129003F51281DE1282053080
:1039B000E40B1281D3128213123B328003123B07B5
:1039C0009003F51281DE12822330E40D1281D312AE
:1039D00082137B127D49023AA212823D7F49023A4C
:1039E000AC9003F51281DE12268E30E40B1281D3E7
:1039F000128213123AFD8003123B3C9003F51281B0
:103A0000DE12820530E40B1281D3128213123B6660
:103A10008003123B5B9003F51281DE12822330E4B7
:103A20000D1281D31282137B127D1F023AA27B01F9
:103A30007D127C007F1F023AAC9003F51281DE12EA
:103A4000268E30E40B1281D3128213123AFD8003CA
:103A5000123B3C9003F51281DE12820530E40B121A
:103A600081D3128213123B668003123B5B9003F5F5
:103A70001281DE12822330E40B1281D312821312E0
:103A80003B70800812823D7F1F12827B9003F512EB
:103A900081DE12825630E40F1281D31282137B1220
:103AA0007D497F0102906812823D7F4912827B220C
:103AB00074A3F0A37404F0E4FB7D1F7F01129068EF
:103AC0002274A3F0A37404F0E4FB7D1F7F01129025
:103AD00068227B01E4FDFC7F1F12827B227B01E4D4
:103AE000FDFC7F4912827B227B01E4FDFC7F1F12DB
:103AF000827B22E4FB7D1F7F0112906822E4FB7D24
:103B00001F7F01129068227B01E4FDFC7F49128235
:103B10007B227B01E4FDFC7F1F12827B22E4FB7D84
:103B2000497F01129068227B01E4FDFC7F34128200
:103B30007B22E4FB7D497F01129068227B01E4FD3A
:103B4000FC7F1F12827B22E4FB7D347F0112906890
:103B5000227B0F7D1F7F01129068227B01E4FDFC18
:103B60007F4912827B22E4FB7D497F01129068220B
:0A3B70007B127D1F7F011290682276
:102C6E00900390E0FD900381E06DF56BA3E01229D7
:102C7E00DE2CA7112CCA222D0F312D80332DE734D7
:102C8E002E55412EE4912F0DA22F5AB12FCAB330DB
:102C9E0034B430AFC10000313B1281E78005C3333D
:102CAE00CE33CED8F9FFEF5D600B1281D31281FDCA
:102CBE007B0D022EFD7B057D0D022F061281E78016
:102CCE0005C333CE33CED8F91281F4600B1281D303
:102CDE001281FD12319880031231549003841281B7
:102CEE00EA8005C333CE33CED8F91281F4600B12CD
:102CFE0081D31281FD7B0D022F4A7B057D0D022FA4
:102D0E00531281E78005C333CE33CED8F91281F446
:102D1E0060111281D31281FD7B077D257F011290F8
:102D2E006880057D071231DE9003841281EA8005EA
:102D3E00C333CE33CED8F91281F4600D1281D31283
:102D4E0081FD7B151231B880031231A290038512DA
:102D5E0081EA8005C333CE33CED8F91281F4600BED
:102D6E001281D31281FD7B15022F4A7B057D150240
:102D7E002F531281E78005C333CE33CED8F912819B
:102D8E00F4600B1281D31281FD123198800312313F
:102D9E00549003841281EA8005C333CE33CED8F922
:102DAE001281F4600B1281D31281FD1231AE8003B9
:102DBE001231609003851281EA8005C333CE33CE83
:102DCE00D8F91281F4600B1281D31281FD7B1502AA
:102DDE002F4A7B057D15022F531281E78005C333E1
:102DEE00CE33CED8F91281F4600B1281D31281FD4D
:102DFE0012316C800312313C9003841281EA8005FB
:102E0E00C333CE33CED8F91281F4600D1281D312B2
:102E1E0081FD7D3A1231D680087D0D1282461282D6
:102E2E007B9003851281EA8005C333CE33CED8F969
:102E3E001281F4600B1281D31281FD7B1502309F3B
:102E4E007B057D150230A81281E78005C333CE3392
:102E5E00CED8F91281F4600B1281D31281FD12319A
:102E6E006C800312313C9003841281EA8005C333D7
:102E7E00CE33CED8F91281F4600B1281D31281FDBC
:102E8E001231AE80031231609003851281EA800503
:102E9E00C333CE33CED8F91281F460111281D3121E
:102EAE0081FD7B157D107F0112906880031231A287
:102EBE009003861281EA8005C333CE33CED8F91241
:102ECE0081F4600B1281D31281FD7B15022F4A7B98
:102EDE00057D15022F531281E78005C333CE33CE05
:102EEE00D8F91281F4600D1281D31281FD7B107D11
:102EFE00250231307B057D107C007F250231381292
:102F0E0081E78005C333CE33CED8F91281F4600D3C
:102F1E001281D31281FD7B101231B88003123176EB
:102F2E009003841281EA8005C333CE33CED8F912D2
:102F3E0081F4600D1281D31281FD7B107D3A023136
:102F4E00307B057D107C007F3A0231381281E7809C
:102F5E0005C333CE33CED8F91281F460111281D36A
:102F6E001281FD7B087D257F0112906880057D080A
:102F7E001231DE9003841281EA8005C333CE33CE44
:102F8E00D8F91281F4600B1281D31281FD1231E84F
:102F9E0080031231C09003851281EA8005C333CEBF
:102FAE0033CED8F91281F4600D1281D31281FD7BDC
:102FBE00197D3A0231301282440231381281E78093
:102FCE0005C333CE33CED8F91281F4600D1281D3FE
:102FDE001281FD7D101231D680031231769003845A
:102FEE001281EA8005C333CE33CED8F91281F46054
:102FFE000B1281D31281FD1231CC800312318C90D1
:10300E0003851281EA8005C333CE33CED8F91281FF
:10301E00F4600D1281D31281FD7B197D3A0231309D
:10302E001282440231381281E78005C333CE33CE8B
:10303E00D8F91281F4600B1281D31281FD12318204
:10304E0080031231489003841281EA8005C333CE87
:10305E0033CED8F91281F460111281D31281FD7B27
:10306E00107D3A7F01129068800B7B057D107C00ED
:10307E007F3A12827B9003851281EA8005C333CE9C
:10308E0033CED8F91281F4600D1281D31281FD7BFB
:10309E00197D100231307B057D197C007F100231C5
:1030AE00381281E78005C333CE33CED8F91281F4BE
:1030BE00600B1281D31281FD1231828003123148CE
:1030CE009003841281EA8005C333CE33CED8F91231
:1030DE0081F4600B1281D31281FD1231CC80031268
:1030EE00318C9003851281EA8005C333CE33CED85E
:1030FE00F91281F4600B1281D31281FD1231E88036
:10310E00031231C09003861281EA8005C333CE3399
:10311E00CED8F91281F4600F1281D31281FD7B1982
:0D312E007D3A7F0102906812824412827B7C
:10313B00227B057D077C007F1012827B227B057D25
:10314B00087C007F1012827B227B057D0D7C007F2B
:10315B001012827B227B057D077C007F3A12827BDB
:10316B00227B077D107F01129068227B057D107CEE
:10317B00007F1012827B227B087D107F01129068EA
:10318B00227B057D087C007F3A12827B227B0D7DA2
:10319B00107F01129068227B057D157C007F101239
:1031AB00827B227B077D3A7F01129068227D107F04
:1031BB0001129068227B057D197C007F1012827BA7
:1031CB00227B087D3A7F01129068227B0D7F0112D2
:1031DB009068227B057C007F2512827B227B197DE8
:0731EB00107F011290682221
:10988800E4FF12A327900380E024FE6011047029EE
:109898001298C21281D374A2F0A374F6800C1298A5
:1098A800C21281D374A2F0A374F9F0E4FB7D017FA6
:1098B800011290687FFF12A6A0227F0312A6A07F44
:0598C8000412A69D2220
:10A20F00E4FF12A327900388E030E1127B017A0369
:10A21F0079881231F27B017A037988126B6012A66A
:06A22F0069E4FF029CD46B
:1016F80000000000000000000000000000000000E2
:1017080000000000000000000000000000000000D1
:10171800003E007E00FE01CE038E7F8E7F8E738E8C
:10172800738E738E7F8E7F8E01CE00FE007E003E0C
:1017380000000000020006000E001E003FFE7FFEB3
:101748007FFE3FFE1E000E000600020000000000A3
:101758000000000000400060007000787FFC7FFE01
:101768007FFE7FFC007800700060004000000000F1
:10177800000003C003C003C003C003C003C003C00C
:1017880003C03FFC1FF80FF007E003C00180000012
:1017980003C003C007E007E00E700E701C381C3849
:1017A800381C381C7FFE7FFE700E700E700E700E97
:1017B8007FF87FFC383E381E381E381E383C3FF80C
:1017C8003FF8383C381E381E381E383E7FFC7FF8FC
:1017D8000FF81FFC3C1C380E780E700E700070005D
:1017E80070007000700E700E380E3C1C1FFC0FF855
:1017F8007FF07FF07078703C703C703C70787FF0C0
:101808007FE0778073C071E070F07078703C701E74
:1018180000006006700E781E7C3E7FFE77EE73CE69
:10182800718E700E700E700E700E700E700E700E3F
:1018380000001FF81FF800E000E000E000E000E012
:1018480000E000E000E070E079E03FC01F800F009A
:1018580000000000000003C007800F001E003FFCCE
:101868003FFC1E000F00078003C0000000000000BE
:1018780000000000000003C001E000F000783FFC19
:101888003FFC007800F001E003C000000000000009
:1018980000000000018001800180018011881998F2
:1018A8001DB81FF80FF007E003C00180000000001A
:1018B800003E007E00FE01CE038E7F8E7F8E738EEB
:1018C800738E738E7F8E7F8E01CE00FE007E003E6B
:1018D800700E700E700E700E700E700E781E381C22
:1018E800381C1C381C380E700FF007E003C001804C
:1018F8000000380038003800380038003800380058
:1019080038003800380038063806380E3FFE3FFEEB
:101918000000000000000000000003800FE01C70C1
:10192800183038383838383818301C700FE00380D1
:101938000000000000000000000003C00FF01C3889
:101948001C000F0007E000F000381C380FF003C03F
:10195800000000000000000000000000000000007F
:10196800000000000000000000000000000000006F
:10197800000000000000000000000000000000005F
:10198800000000000000000000000000000000004F
:10199800000000000000000000000000000000003F
:1019A800000000000000000000000000000000002F
:1019B800000000000000000000000000000000001F
:1019C800000000000000000000000000000000000F
:1019D80000000000000000000000000000000000FF
:1019E80000000000000000000000000000000000EF
:1019F80000000000000000000000000000000000DF
:101A080000000000000000000000000000000000CE
:101A180000000000000000000000000000000000BE
:101A280000000000000000000000000000000000AE
:101A3800000000000000000000000000000000009E
:101A4800000000000000000000000000000000008E
:101A5800000000000000000000000000000000007E
:101A6800000000000000000000000000000000006E
:101A7800000000000000000000000000000000005E
:101A8800000000000000000000000000000000004E
:101A9800000000000000000000000000000000003E
:101AA800000000000000000000000000000000002E
:101AB800000000000000000000000000000000001E
:101AC800000000000000000000000000000000000E
:101AD80000000000000000000000000000000000FE
:101AE80000000000000000000000000000000000EE
:101AF80000000000000000000000000000000000DE
:101B080000000000000000000000000000000000CD
:101B1800000007000F800F800F800F80070007006C
:101B28000700020002000000020007000700020090
:101B38000000EE006600440088000000000000007D
:101B4800000000000000000000000000000000008D
:101B5800000008200820082008203FF80820082056
:101B68000820082008203FF808200820082008201E
:101B780000000FC01B603330333033001B000F00F0
:101B880003C0036013303B3033301B600FC00300C9
:101B980000003808441084200440048009001270B2
:101BA800E4880908120822084210822001C00000B7
:101BB80000000E001B00318031801B000E001C004D
:101BC8003678632061A060E0606030F01F9C000000
:101BD80000000000000000000000000000000000FD
:101BE800000000000000800060007000380018004D
:101BF8000000000400080018001000300030003019
:101C08000030003000300010001800080004000206
:101C180000008000400060002000300030003000EC
:101C280030003000300020006000400080000000DC
:101C3800000002004210222012400A800700FFFC28
:101C480007000A8012402220421002000200000011
:101C580000000000030003000300030003007FF8F6
:101C68007FF80300030003000300030000000000E6
:101C7800000000000000000000000000000000005C
:101C8800000018003C003C00180010002000400034
:101C980000000000000000000000000000007FF8C5
:101CA8007FF80000000000000000000000000000B5
:101CB800000000000000000000000000000000001C
:101CC8000000000000007800840084008400780090
:101CD800000000180030006000C00180030006000A
:101CE8000C00180030006000C000800000000000F8
:101CF80000000FE0183030183038307830D831987C
:101D0800331836183C183818301818300FE000000F
:101D18000000030007000F00030003000300030096
:101D28000300030003000300030003001FE000009A
:101D380000000FE01830301830183038007001C03B
:101D480003000E001800300830083FF83FF8000084
:101D5800000007C0183030183018003000E003C009
:101D680000E00030001830183018183007C00000A4
:101D7800000000C001C003C006C00CC018C030C0BD
:101D880060C0C0C0C0C0FFF800C000C003F00000C1
:101D980000003FF03FF030003000300037C03830EE
:101DA80030180018001830183018183007C0000014
:101DB800000007E01830303030003000300037E0E5
:101DC8003830301830183018301818300FC000006C
:101DD80000003FF83FF8201820180030006000C0CD
:101DE8000180030003000300030003000300000058
:101DF80000000780186030303030303018600FC075
:101E08001860303060186018601830300FC000005B
:101E1800000007801860303030183018301830381B
:101E2800187807980018303038301860078000009C
:101E3800000000000000000003000780030000000D
:101E480000000300078003000000000000000000FD
:101E580000000000000000000300078003000000ED
:101E680000000300078003800180070000000000D5
:101E780000000000001800600180060018006000E3
:101E88008000600018000600018000600018000053
:101E9800000000000000000000007FF87FF800004C
:101EA80000007FF87FF8000000000000000000003C
:101EB8000000800060001800060001800060001823
:101EC800000400180060018006001800600080000F
:101ED800000007800FC01CE038E038E011C0018026
:101EE80003000300020002000000020007000700D0
:101EF80000000FC030604010478888C890C890C85C
:101F080090C890C888D84770400830700FC000004B
:101F1800000003000300078007800CC00CC0186095
:101F280018601FE03030303060186018F03C000056
:101F380000003F80186018301830183018601FC033
:101F48001860183018181818181818303FC00000F2
:101F58000000078818683038601860086000600062
:101F6800600060006008601830301860078000006A
:101F780000007F8030E030383018301830183018C2
:101F88003018301830183018303030E07F800000BA
:101F980000003FF0183018101800188018801F80B3
:101FA8001880188018001800181018303FF000002A
:101FB80000003FF0183018101800188018801F8093
:101FC8001880188018001800180018003C0000003D
:101FD80000000F90187030306010601060006000D2
:101FE8006078603060306030307018F00FB00000FA
:101FF80000007878303030303030303030303FF0DA
:102008003030303030303030303030307878000098
:1020180000000FC0030003000300030003000300D7
:102028000300030003000300030003000FC00000C7
:10203800000001F000600060006000600060006067
:10204800006000603060306030E019C00F000000B0
:10205800000078F8306030C03180330036003C0032
:102068003E003300318030C030603030787C000072
:1020780000003C001800180018001800180018008C
:102088001800180018001808181818383FF8000029
:102098000000E03CE038F078F078D8D8D8D8C89874
:1020A800CD98CD98C518C718C218C018E07C000094
:1020B8000000C078E030F030F830DC30CE30C73087
