:030000000288670C
:0C886700787FE4F6D8FD75816D0288AEC4
:0BA69900E0248DF582E43402F58322FA
:10A49200C2BCD2AC759852758DFAE4F58BD28E900F
:06A4A20002F1F0A3F0221C
:10A5D0009002F1E0FFA3E0B507037F00227F012294
:10A448009002F112A699E0FF9002F1E004F0E0C357
:08A4580094644002E4F0D2AC70
:01A4600022D9
:080003003099FD8F99C299228A
:03002300029F98A1
:109F9800C0E0C083C082C0D0309819C2989002F245
:109FA80012A699E599F09002F2E004F0E0C39464F7
:0D9FB8004002E4F0D0D0D082D083D0E0325F
:109B2500E0F580D2A3E4900335F0A3F022C39003BF
:109B350035E0940022900335E004F0229001E4E042
:109B4500FBA3E0FAA3E0F922EDF0A3EBF0E4FFC2FA
:0C9B5500AF22D2B6D2B77580FFD2AF228B
:108E5D009001F3129B4D12A6EE9001F3E0FF700608
:108E6D00C2B7C2B68012EFB40106C2B7D2B680083F
:108E7D00EFB40204D2B7C2B69001F4129B25129B37
:108E8D0032500BA3E004F070F5129B3A80F0C2A3B0
:108E9D009001F5E0F580C2A1129B2A129B32500B76
:108EAD00A3E004F070F5129B3A80F0D2A112A6EE69
:048EBD00129B57228B
:10897F009001D8129B4D12A6EE9001D8E0FF700621
:10898F00C2B7C2B68012EFB40106C2B7D2B6800822
:10899F00EFB40204D2B7C2B69001D9E0FF04F08F52
:1089AF0080129B28129B32500BA3E004F070F5123B
:1089BF009B3A80F0C2A39001DAE0FBA3E475F001CB
:1089CF00122763A9F0FA12268EF580C2A1129B2AF4
:1089DF00129B32500BA3E004F070F5129B3A80F01B
:1089EF00D2A19001DDE014F070AE12A6EE129B57EB
:0189FF002255
:0B88F3009001F2EFF0A3EDF0A3EBF01A
:1088FE00C2AF12A6EEE49001F2F0A3E0FF7006C242
:10890E00B7C2B68012EFB40106C2B7D2B68008EF76
:10891E00B40204D2B7C2B69001F4129B25129B3258
:10892E00500BA3E004F070F5129B3A80F0C2A375D1
:10893E0080FF129B2A129B32500BA3E004F070F5BD
:10894E00129B3A80F0C2A29001F5E580F0129B2AAC
:10895E00129B32500BA3E004F070F5129B3A80F09C
:10896E00D2A212A6EED2B6D2B7D2AF9001F5E0FFE8
:01897E0022D6
:1092CB009001E4EBF0A3EAF0A3E9F0129B41122723
:1092DB0079F47003E5F0F46038122779FBAAF0EA11
:1092EB00FDE4FF1288F3129B419000021226A7FCAB
:1092FB006F6012122779FBAAF0EAFD9001F5ECF0F2
:10930B00E4FF128E5D9001E5E475F00312274D80AA
:02931B00BA2274
:01A731002205
:105420002562782025627820256278000A3C523E69
:1054300025303262785B25303262785D3D2530322E
:105440006278002562782025627800256278202520
:1054500062782025627820256278200025316278E4
:105460002025316278202531627820005265616400
:105470004173696342797465203D3D20256278203F
:105480000A0063682562643A256264200063682527
:1054900062643A2562642063682562643A25626426
:1054A000200063682562643A25626420636825628F
:1054B000643A2562642063682562643A2562642048
:1054C0000063682562643A2562642063682562642B
:1054D0003A2562642063682562643A256264206329
:1054E000682562643A256264200063682562643A34
:1054F0002562642063682562643A256264206368DB
:105500002562643A2562642063682562643A2562F4
:10551000642063682562643A256264200025626421
:1055200020000A203D3D3D3D3D3D3D3D2050414751
:10553000452025623278203D3D3D3D3D3D3D3D3D90
:105540003D3D3D3D0A002562327809000A002531C3
:105550006278202531627820636825316278206383
:105560006825316278206368253162782063682578
:105570003162782000656E726563616C6C00656EE7
:10558000667265657A6500656E686D6972726F72C4
:1055900000656E766D6972726F7200656E656E6819
:1055A000616E636500656E626C616E6B00656E6254
:1055B0006F756E6400656E626C696E6B0064697312
:1055C000726563616C6C00646973667265657A65A7
:1055D00000646973686D6972726F720064697376D2
:1055E0006D6972726F7200646973656E68616E6373
:1055F0006500646973626C616E6B00646973626FED
:10560000756E6400646973626C696E6B003D3D3D4C
:105610003D3D20466F726D6174203A206368303DD5
:105620005B2562785D206368313D5B2562785D2093
:105630006368323D5B2562785D206368333D5B259E
:1056400062785D203D3D3D3D3D0A00256278202584
:1056500062782063682562783A256278206368253D
:1056600062783A2562782063682562783A25627804
:105670002063682562783A2562782000333400621E
:105680007573770079766D6978006873636F6D0064
:0E5690006D6F646500370038000102040810D9
:046CDC0041039B00D5
:10569E00A3F0A3E4F0A37400F0A37414F0A3E4F059
:1056AE00A37400F0A37419F0A3E4F0A37400F0A3A4
:1056BE007415F0A3E4F0A37400F0A3741AF0A3E43D
:1056CE00F0A37400F07416A3F0A3E4F0A322A3F0E9
:1056DE00A3E4F0A37400F0A37426F0A3E4F0A37483
:1056EE0000F0A3742BF0A3E4F0A37400F0A37427CE
:1056FE00F0A3E4F0A37400F0A3742CF0A3E4F0A3E1
:10570E007400F07428A3F0A3E4F0A322A3F0A3E4A2
:10571E00F0A37400F0A37443F0A3E4F0A37400F0BC
:10572E00A37447F0A3E4F0A37400F07444A3F0A3B1
:10573E00E4F0A322A3F09003B6E0FBA3E0FAA3E00B
:10574E00F9229001E074FFF0A37454F07482A3F078
:10575E00A3E4F0A3227400F0A3741BF0A3E4F0A35F
:10576E007400F07417A3F0A3E4F0A3227400F0A366
:10577E00742DF0A3E4F0A37400F07429A3F0A3E455
:10578E00F0A3227400F0A37448F0A3E4F0A3740015
:10579E00F07445A3F0A3E4F0A3229001E074FFF0AF
:1057AE00A37454F0748DA3F0A3E4F0A3229001E04F
:1057BE0074FFF0A37455F0741DA3F0A3E4F0A322BC
:1057CE007400F07414A3F0A3E4F0A3227400F07438
:1057DE0026A3F0A3E4F0A3229001E074FFF0A3222D
:1057EE00EBF0A3EAF0A3E9F09001E07401F0A3223C
:1057FE00A3F0A37401F0A37403F07483A3F0A37455
:10580E0001F0A322A3F0A3E4F0A322A3F0A3E4F0FB
:10581E00A322A3F0A3E4F0A322A3F0A3E4F0A32217
:10582E00A3F0A3E4F0A322FFE0248CF582E434037A
:10583E00F583EFF022E0FF9001E17401F0A3740311
:10584E00F0A37488F07B017A03798322A3F0A3E49A
:10585E00F0A322A3F0A3E4F0A322EBF0A3EAF0A3BB
:10586E00E9F022900001E475F0010227A47BFF7A93
:10587E0054792C90033BF022A3F0A3E4F0A322E092
:10588E005401FB7D2022253DF53DA3E0540322E586
:10589E001590569993FFE514932F2212296F022625
:0F58AE008EA3F0A3E4F0A32212A7329001D5221B
:108BDF009001DD125868A31257471258A97002FF6F
:108BEF00229001E01257471258A9B4200B9001E0D0
:108BFF0012574712587180E99001E0125747122916
:108C0F006FC003C002C0019001DD12574712298FB8
:108C1F0080239001E01257471258A9FEB42010E4A8
:108C2F001226D49001E01257471258717F0122EE9D
:108C3F0070037F01229001E012574712587180D2C2
:069AE8009001DD12586838
:109AEE00E4F53AF53B9001DD12574712268E6022BF
:109AFE009001DDA3E475F001122763A9F0FA122696
:109B0E008EFF3395E0FEEF253BF53BEE353AF53A09
:069B1E0080D3AE3AAF3B1C
:019B2400221E
:01A732002204
:10957A00E4F53D900383E0540312589425E025E076
:10958A00125894C454F0125894C4333354C0253D2D
:10959A00F53D900382E0B5070D900387E0B53D06DF
:1095AA00E4900392F0229003927401F0900387E50D
:0795BA003DF0900382EFF089
:0195C1002287
:109652001257E67454F074201256D57400F0745404
:109662001257137400F0745512573B7400F0A37430
:1096720056F0124B6FAB55AD54E4FF1288F39003D2
:109682003DEFF0E55412587BA3E555F01247EC0587
:0696920055E555B556DF59
:0196980022AF
:109CBD001257E67454F0744312575C7400F0741E1E
:109CCD001257737400F0A3741FF0124B6FAB1FADDE
:109CDD001EE4FF1288F390033DEFF0E51E12587B52
:079CED00A3E51FF00247ECA4
:109E6E001257E67454F0742012578A7400F0745727
:109E7E001257A17400F074581257B47400F0A37402
:109E8E0059F0124B6F9001F5E559F0AB58AD57E410
:049E9E00FF028E5DD4
:10936D00E4F53AF53BF53CF53DC003C0021257E676
:10937D007454F0744B1257C77400F0743A1257D3EB
:10938D007400F0743B1257DF7400F0743C125812E5
:10939D007400F0A3743DF0D002D003124B6F900116
:0D93AD00F5E53DF0AB3CAD3BE4FF028E5D0D
:1095C200E4F550F551F552F5531257E67454F07420
:1095D2005C1258127400F074501258197400F0742E
:1095E200511258197400F0A37452F0124B6FAB521F
:1095F200AD51E4FF1288F38F537BFF7A54796C905C
:08960200033BE553F00247ECC5
:03671C009003B631
:10671F001257EE7403F0A374B6F07B017A0379B9C4
:10672F00128BDFE4FB7D1FFF129D989003B9125768
:10673F0047127DC4EE6003026844EF24FE603614F6
:10674F00605A1460781470030267F1240460030226
:10675F0068441257501257CE7400F07419125742F2
:10676F00124B6FAB19AD14E4FF128B6EE5149056FC
:10677F00999302683C1257A81257CE7400F07419FF
:10678F001258207400F074151258207400F0741A07
:10679F0012574212684512589D02683C1257E67410
:1067AF0054F074A212569E7400F0A3741B12574338
:1067BF00126845AB1BAD1612685B02683C1257E6B8
:1067CF007454F074C112569E1257637400F0A37480
:1067DF001C12574312687112685BFFE517932F0263
:1067EF00683C1257E67454F0A374EA12569F12577E
:1067FF00637400F0741C1258277400F07418125848
:10680F00277400F0A3741D125743126871E4FF122E
:10681F008B6EAB1DAD18E4FF128B6E12589DFFE50A
:10682F0016932FFFE517932FFFE518932FFD7B018D
:05683F00E4FF129D982A
:1068440022124B6FAB19AD14E4FF128B6EAB1AAD71
:1068540015E4FF128B6E22E4FF128B6EE515905641
:106864009993FFE514932FFFE516932F22124B6F94
:10687400AB19AD14E4FF128B6EAB1AAD15E4FF1225
:106884008B6EAB1BAD16E4FF128B6EAB1CAD1722E7
:0FA60000E4FB7D1FFF129D987DFFE4FF029F3A50
:036F8D009003BCB2
:106F90001257EE7403F0A374BCF07B017A0379BF3F
:106FA000128BDF9003BF125747127DC4EE600302BD
:106FB000709BEF24FE6030146056146071147003EF
:106FC0000270522404600302709B1257501257DA69
:106FD0007400F0A3742BF09003BC125747124B6F50
:106FE000AB2BAD260270961257A81257DA7400F038
:106FF000742B12582E7400F0742712582E7400F05F
:10700000A3742CF09003BC1257471270B60270960E
:107010001257E67454F074A21256DC7400F0A37494
:107020002DF09003BC12574712709C0270961257B5
:10703000E67454F074C11256DC12577A7400F0A34F
:10704000742EF09003BC12574712709C1270C70246
:1070500070961257E67454F0A374EA1256DD125774
:107060007A7400F0742E12585A7400F0742A125870
:107070005A7400F0A3742FF09003BC12574712709B
:10708000B6E4FF128C4FAB2DAD281270C7E4FF128F
:0B7090008C4FAB2FAD2AE4FF128C4F99
:10709B0022124B6FAB2BAD26E4FF128C4FAB2CADFA
:1070AB0027E4FF128C4FAB2DAD2822124B6FAB2B6D
:1070BB00AD26E4FF128C4FAB2CAD2722E4FF128CD4
:0670CB004FAB2EAD29229F
:10A4E9001257BB7400F0A37469F0124B6FAD69E4A5
:04A4F900FF029F3A85
:10940600E4F55E7BFF7A55792290033BE55EF01228
:1094160047ECE4F55DAB5DAD5EE4FF1288F39003C7
:109426003BEFF07BFF7A5579461247EC055DE55D2B
:10943600540F70097BFF7A55794C1247ECE55D7045
:0A944600D4055EE55EC3940340B94F
:0194500022F9
:10922000C003C002C0011257E67455F0744E1258C4
:10923000617400F0745F1258617400F0746012572A
:10924000FE7403F0748412580A7403F0A374851238
:10925000580B7403F0A37486F0D001D002D003122F
:109260004B6FE55FC454F0FFE560540F2FF55F12BC
:069270005853FF02625B8F
:0658BD009003C2125868BE
:1058C300E4F5387B019001E004F0A37403F0A374C2
:1058D300C2F07A0379C5128BDF9003C512574712C2
:1058E3007DC48F391257F6125AB59003C512574724
:1058F300129AE88E308F317A557975125A92B531F2
:105903000AEEB530067532800259927A55797E12C5
:105913005A92B5310AEEB530067532400259927A81
:10592300557987125A99B53109EEB530057532208C
:10593300805D7A557991125A99B53109EEB53005E2
:10594300753210804A7A55799B125AA0B53109EE07
:10595300B5300575320880377A5579A5125AA0B546
:105963003109EEB5300575320480247A5579AD12CC
:105973005AA7B53109EEB5300575320280117A5553
:1059830079B5125AA7B5310DEEB5300975320175E7
:105993003301025A3C7A5579BD125AAEB5310AEE3B
:1059A300B53006753280025A1F7A5579C7125AAE3E
:1059B300B53109EEB5300575324080607A5579D13D
:1059C300125AC6B53109EEB53005753220804D7ACD
:1059D3005579DC125AC6B53109EEB530057532106A
:1059E300803A7A5579E7125ACDB53109EEB53005CB
:1059F30075320880277A5579F2125ACDB53109EEFE
:105A0300B5300575320480147BFF7A5579FB129A01
:105A1300E8EFB5310CEEB53008753202E4F53380AA
:105A2300187BFF7A567904129AE8EF65317003EE1A
:105A33006530705A753201F5331257F6125AB5EFC5
:105A430060339003C512574712268EB477EB90004C
:105A5300011226A7B469E29000021226A7B46ED9F8
:105A6300E92403F9E43AFA127DC474342538F8A61C
:105A730007053880C4E53860152433F8E6FFC3957D
:0E5A8300395007AB33AD32129E39153880E72B
:105A9100227BFF129AE8EF227BFF129AE8EF227B2A
:105AA100FF129AE8EF227BFF129AE8EF227BFF12A6
:105AB1009AE8EF227403F0A374C2F07B017A0379B0
:105AC100C5128BDF227BFF129AE8EF227BFF129A2D
:035AD100E8EF22D9
:10A59A001257BB7400F0A3743AF0124B6FAF3A0231
:02A5AA00A4FD0E
:109BD800E4FF129451C0077F01129451C0077F021D
:109BE800129451C0077F0312945190033EEFF090F6
:109BF800033DD0E0F090033CD0E0F090033BD0E090
:0A9C0800F07BFF7A56790D0247EC5D
:0376BF009003C86D
:1076C2001257EE7403F0A374C8F07B017A0379CBEE
:1076D200128BDF9003CB125747127DC4EE60030278
:1076E20077B1EF24FE602B14605314607924036099
:1076F200030277B11257507400F074431258867423
:1077020000F0A37447F09003C81257471277D002D3
:1077120077AC1257E67454F0748D12571A7400F055
:10772200A37448F09003C81257471277D0E4FF12AF
:107732009F6AE548C454F0FBAD440277AC1257E6A9
:107742007454F074A212571A1257917400F0A37471
:1077520049F09003C81257471277B2E549C454F072
:10776200FBAD450277AC1257E67454F0A374C11214
:10777200571B1257917400F074491258867400F026
:1077820074461258AF7400F0A3744AF09003C81202
:1077920057471277B2E549C454F0FBAD45E4FF12F6
:0F77A2009F6AE54AC454F0FBAD46E4FF129F6AAC
:1077B10022124B6FE547C454F0FBAD43E4FF129F27
:1077C1006AE548C454F0FBAD44E4FF129F6A2212FB
:0B77D1004B6FE547C454F0FBAD4322B2
:038FEC009003CE21
:108FEF001257EE129039125747127DC48F611257E4
:108FFF00F6129039125747127DC48F627F0412A761
:10900F002B7F0312A72E7F0512A3B59003CEE0F995
:10901F00A3E0FAA3E09003B2C9125869AB62AD6145
:0A902F007F0112910F7F05029D6280
:109039007403F0A374CEF07B017A0379D1128BDF2C
:049049009003D1229D
:10969900756401E4F56374882563F582E43403F5A0
:1096A90083E030E41574832563F582E43403F5839C
:1096B900E0FDE4FF129F3AE4F5640563E563C394B2
:1096C9000440D3E564600FE4FB7D1FFF129D987D84
:0696D900FFE4FF129F3ABE
:0196DF002268
:106E3F00C003C002C0011257E67456F0744B1258CB
:106E4F00AF7400F0A3743BF0A3E4F0A37400F074EC
:106E5F003C1257FE7403F0A3748812580B7403F09E
:106E6F00A3748412580B7403F0A3748912580B7413
:106E7F0003F0A3748512580B7403F0A3748A12588D
:106E8F000B7403F0A3748612580B7403F0A3748B66
:106E9F00F0D001D002D003124B6FE53BC454F0FF8A
:106EAF0090037FE0FEC433333354802FFFE53C540F
:106EBF000F2F900391F0900388E0900383125835C1
:106ECF00900389E090038412583590038AE0FF9075
:106EDF00038512583690038BE0FF900386125836C5
:106EEF0090038C12588DE4FF129B6190038D125802
:106EFF008D7F01129B6190038E12588D7F02129B22
:106F0F006190038F12588D7F03129B617B017A036F
:106F1F00798C1270D190039112584312512890031B
:106F2F0091E0FF12585312625BE4F53A7488253AE8
:106F3F00F582E43403F58312588DAF3A129E39056A
:106F4F003AE53AC3940440E4E4F508F509F50A7507
:106F5F000B057F0112A6C1900391E0FF12957A7F76
:106F6F0008129EA2E4FF12A42E1299167B017A0337
:0D6F7F0079881243D3900391E090039BF0BA
:016F8C0022E2
:108D2400E4FF129451EFB40202C32290037FE0B532
:108D34000702D32290037FEFF0E0C433333354802F
:108D4400FF900382E0547F4FF07F01129D629003F5
:108D54007FE0FF128EC17B017A03798C1270D1906F
:108D64000382125843125128900382E0FF12585391
:108D740012625BE4FF12A42E1299167B017A037926
:088D8400881243D312A29DD313
:018D8C0022C4
:10A4A8001257E67455F0A3741D12580B7403F0A3E9
:06A4B8007480F0024B6FFE
:050026007F01029D6254
:10A5610090567CE493FF12000390567CA3E493FF82
:03A57100020003E2
:037BF8009001D524
:107BFB001257EE7401F0A374D5F07B017A0179DA98
:107C0B00128BDF9001DA125747129AE89001D8EEE7
:107C1B00F0A3EFF07A56797F127CCBB50611A3E077
:107C2B00B5070C9001D512574712936D027CC87A99
:107C3B00567984127CCBB50611A3E0B5070C12580C
:107C4B00B612574712A59A027CC87A56798A127CCB
:107C5B00D5E0B50618A3E0B507131258B61257476F
:107C6B00126E3F12A29DE4FF12A6C180507A567984
:107C7B0090127CD5E0B50610A3E0B5070B1258B6F1
:107C8B0012574712A4A880357A567995127CDEE0FC
:107C9B00B5060FA3E0B5070A900276E090028BF0D1
:107CAB00801B7A567997127CDEE0B50610A3E0B5FF
:0F7CBB00070B129ED6900276E0FF129FC57F0145
:107CCA00227BFF129AE89001D8E0227BFF129AE801
:0D7CDA009001D8227BFF129AE89001D82279
:105EA8000D0A0050435400FFE4CBB8998062757323
:105EB80077203020312041312031316275737720CD
:105EC80030203120413220443779766D697820348A
:105ED800206D6F64652030206873636F6D203120FA
:105EE80031206368303A3130206368313A303020ED
:105EF8006368323A3030206368333A303020687350
:105F0800636F6D20312031206368323A313020636D
:105F180068313A3030206368303A30302063683373
:105F28003A3030206873636F6D2031203120636808
:105F3800313A3130206368303A3030206368323A81
:105F48003030206368333A3030206873636F6D20D7
:105F5800322032206368323A3130206368303A3177
:105F680030206368313A3030206368333A3030206B
:105F78006873636F6D20322032206368303A3130A5
:105F8800206368323A3130206368313A3030206318
:105F980068333A3030206873636F6D2032203220C6
:105FA8006368313A3130206368303A3130206368B1
:105FB800323A3030206368333A3030206873636F88
:105FC8006D20322032206368303A313020636831E6
:105FD8003A3130206368323A3030206368333A30DF
:105FE80030206873636F6D20322032206368313A45
:105FF8003130206368323A3130206368303A3030CB
:10600800206368333A3030206873636F6D20322024
:1060180032206368323A3130206368313A313020B7
:106028006368323A3030206368333A30302068731E
:10603800636F6D20332033206368303A313020633A
:1060480068313A3130206368323A3130206368333E
:106058003A3030206873636F6D20312031206368D7
:10606800333A3030206368313A3030206368323A4E
:0A6078003030206368303A303020E9
:106CE000C12844032E000000004103320041033359
:106CF0000041032D0141032C0241032A0141032BD2
:106D0000004103210042032200004203240000420C
:106D10000326000042032800004102F5014102F46D
:096D200000410334004102F300BC
:107F78007D017BFF7E007F26022668900213E0FECB
:107F8800740B2FF582E43402F5832274DF2FF58217
:107F9800E43401F583E022900006E0FAA3E0FB7CDC
:107FA80000FFAE020226F878F67C027D017B0122F2
:107FB8007D017BFF7E000226687C00AF03AE0212C3
:107FC80026F8900006ECF0A3EDF022E4F0A3F0A36D
:107FD800F0A322E47E02FDFC900009E0F8A3227DD4
:107FE800017BFF7E007F0E022668E53AF09002745E
:107FF800E004F022E4FCFD900009022932E0F9A334
:10800800E0FAA3E0FBC302290EF0A37420F0A374E6
:1080180003F0E4A3F022900244E090032D229002A2
:108028000B7402F0A37432F0A32234FFFE7C007DAF
:10803800060226F8900274E0240B227B017A02796A
:02804800F6221E
:107E9F0012A5D0EF64016003027F7043E11012A4BA
:107EAF00488F3AE53AB40218900242E070129002FD
:107EBF007404F090020BE53AF09002427401F02244
:107ECF00E53A6403702A90020CE0FF64526004EFFD
:107EDF00B4531D9002F3E07017900274E0FFD39437
:107EEF0003500D9002F37401F0127F88127FF2227B
:107EFF00E53AB4031B900246E0701512803C127FE6
:107F0F008B127FF29002467401F0E49002F3F0229C
:107F1F00900246E06401703712803C127F8BE53A85
:107F2F00F07B017A02790B7D04125CBFEF602F901A
:107F3F0003207401F090020CE09002F6F0E4A3F03D
:107F4F0090020DE0900276F090031F7402F022125F
:107F5F00803C127F8B127FF2E0D39408400A02A27A
:087F6F0077E4900328F0A3F071
:017F770022E7
:09A6B8007BFF7A5E79A802A1FE85
:0B9E04009003EFEBF0A3EAF0A3E9F0FD
:109E0F009003EFE0FBA3E0FAA3E0F912268E6019AE
:109E1F009003EFA3E475F001122763A9F0FA12265D
:099E2F008EF56AFF12000380D7D2
:019E38002207
:10A27700E4900242F0900246F0900274F090020BD4
:10A28700127FD4127FD4F0A3F0A3F090031FF0A3A2
:06A29700F09002F6F02237
:09A6C100EF6003C20122D2012264
:0CA68D00C200C201C227E4900408F022C1
:109FF2009003F2EBF0A3EAF0A3E9F020001D900336
:10A00200F2E0FBA3E0FAA3E0F8AC02AD037BFF7A37
:0CA012005E79AB122B82EF7002D20022AC
:08931D009001D5EEF0A3EFF082
:109325009001D5E07002A3E0603DE49001D7F0A381
:10933500F09001D7E0FEA3E0FFE4FCFD7B1BFAF90A
:10934500F8D312290E40109001D8E004F070E29095
:1093550001D7E004F080DA9001D6E024FFF0900117
:07936500D5E034FFF080B9F0
:01936C0022DE
:10689400900000127FD374C8F0A37464F0E4A3F0F2
:1068A40012949C12A60F12A68D12A277E4FF12A5D1
:1068B400F0128A007F4D124E08128F89750E0075F2
:1068C4000F287510017511E09003227401F0A37470
:1068D400E0F0751200751304A37407F0A304F07FAD
:1068E4009812A719EF5410FFC4540F900005F0122A
:1068F4007E9F900320E0B40106128043127BF8903F
:106904000320E0B4010312A277302707128D24502C
:1069140002C22712A5D0EF6009900003E0750A00B7
:10692400F50BE50B6401450A700DF50AF50B9000B3
:1069340004E0750800F509E50964014508701E9036
:106944000242E070181296E090028BE0FF900289F8
:10695400E06F6003124E08750800750914E51364AE
:10696400014512701990024EE0C394014010900248
:106974003AE0B40109751200751304127A0BE50F9D
:106984006401450E703C90024EE0703690023AE08D
:10699400B4012F900321E0FF74017E00A807088052
:1069A40005C333CE33CED8F9FF129B9D900321E06B
:1069B40004F0750E00750F28E0C394064007E4F058
:1069C4008003129F08900322E07004A3E064017026
:1069D4000F90022EF0A3F090032204F0A374E0F0D1
:1069E400900324E07004A3E06401701690023AE07E
:1069F400B4010F900005E0FF129530E4900324F0F9
:086A0400A3F043E1100268F366
:10949C00E4F5B8F5A8F58775E127F5D0758922F5BF
:1094AC008812A49212A6CA12A411E4F58EF5A2D2C7
:1094BC0099D2AF00F593F5944391035392FCF59533
:1094CC00F596F5B1F5B2F5B375B404C2E9C292C222
:0A94DC0093C294C295C296C2972273
:08804A009001DDEFF0A3EDF061
:1080520078DF7C017A5E79AF7F06127FB89001DD0E
:10806200E014603014604714605E1460751470038D
:108072000280FE24056003028117E4F5EA9001DE26
:10808200E0FF7004F5DA800375DA42127F93F5FAA5
:10809200E4F5F222E4F5EB9001DEE0FF7004F5DB9B
:1080A200800375DB42127F93F5FBE4F5F322E4F5DE
:1080B200EC9001DEE0FF7004F5DC800375DC421217
:1080C2007F93F5FCE4F5F422E4F5ED9001DEE0FFA8
:1080D2007004F5DD800375DD42127F93F5FDE4F552
:1080E200F522E4F5EE9001DEE0FF7004F5DE800398
:1080F20075DE42127F93F5FEE4F5F622E4F5EF9089
:1081020001DEE0FF7004F5DF800375DF42127F932A
:05811200F5FFE4F5F7A4
:018117002245
:0FA60F00E4F5E9F5F975D90475D84043A6802222
:054E0800900006EFF030
:104E0D0078077C007A5E79B5127FE778157C007A99
:104E1D005E79C3127FE778237C007D017BFF7A5E8C
:104E2D0079D17E007F08122668782B7C007A5E7916
:104E3D00D97F07127FB878327C007A5E79E0127FD5
:104E4D007878587C007A5F7906127F78787E7C00BE
:104E5D007D017BFF7A5F792C127F7C78A47C007DAD
:104E6D00017BFF7A5F7952127F7C78CA7C007D01CD
:104E7D007BFF7A5F7978127F7C78F07C007D017BF7
:104E8D00FF7A5F799E127F7C78167C017D017BFF16
:104E9D007A5F79C4127F7C783C7C017D017BFF7A3F
:104EAD005F79EA127F7C78627C017D017BFF7A60FD
:104EBD007910127F7C78887C017D017BFF7A607987
:104ECD0036127F7C78AE7C017D017BFF7A60795C48
:104EDD00127F7CE49001D4F0900006E0FE24B6FF32
:104EED00C3940A400674FC2FFF8005E4900277F00E
:104EFD00900289EEF0EFB408005062904F0FF82841
:104F0D002873024F27024F2C024F33024F39024FA5
:104F1D0040024F4E024F5A024F629003338041E4DC
:104F2D00900333F0803DE490024580199002457462
:104F3D000180129002447401F090032D7404F080EE
:104F4D0022E4900244F090032D04F0801690027735
:104F5D007414F0800E9002777441F0800690032D4A
:104F6D007401F0900277E0FFC39401400890033282
:104F7D00EFF0025003900333E06401704990024555
:104F8D00E0601B12801EB4010B7402F090032C74B0
:104F9D0004F080237402F090032C14F08019128019
:104FAD001EB4010B7404F090032C7402F08008748D
:104FBD0001F090032C04F090032DE0C454F0FF9009
:104FCD00032CE04F802C900245E0600590032D806E
:104FDD000C12801EB4010B7404F090032C7402F0BB
:104FED0080087401F090032C04F090032DE0FFC4B1
:104FFD0054F0900332F090032AE060251299E412E8
:10500D007FAF7A00790712510F7A00791512510F7F
:10501D007A00792B7E007F07122668128043127B5F
:10502D00F8900332E01229DE505410507A12507E5F
:10503D0014505620507C21509024505F4050874191
:10504D00507A42000050A28009127FAF7A00795841
:10505D008007127FAF7A007932127F7C9001F57450
:10506D0003F07B0F7D01E4FF128E5D8032801D8089
:10507D0012127FAF7A0079F08022127FAF7A017918
:10508D00168019127FAF7A0079CA8010127FAF7A1D
:10509D000079A48007127FAF7A007932127F7CE409
:1050AD0090032AF0128043127BF8900332E012290C
:1050BD00DE50DD1050E71250EF1450DF2050EB2181
:1050CD0050FA2450E34050F34150FE420000510984
:1050DD008000E4FF8012E4FF80197F01800A7F01C8
:1050ED0080067F0180027F01128AFB800F7F018085
:1050FD00027F01128AFB9001D47401F09001D4E07B
:01510D00FFA2
:10510E00227E007F0E1226687B017A0279F6127BD0
:0A511E00F878F67C027D017B012287
:029FC500AB07E8
:109FC700E4FFFEEBC3943D4021EBD39461501BEBC0
:109FD70024C3FFEE128032AA07EB24C3FFE41280EA
:0A9FE70032AE05AF0212804A7F017E
:019FF100224D
:10916D00E4FBFAFD7F90129727EEC4F854F0C8681F
:10917D00FEEFC4540F48FFEEC4F854F0C868FAEF80
:10918D00C4540F48FB2091047A007B637C007D0A58
:10919D00AF03AE021226F8D3ED9409EC94005007FC
:1091AD00ED2430900221F0AE02AF037C007D0A1257
:0991BD0026F8EF2430900226F0A0
:0191C6002286
:1078F700900006127FD312293E00000000E4FF1219
:10790700A395900006EEF0A3EFF0900006E0FEA32B
:10791700E0FF127FFC7F86127FDB128005401FE4A9
:107927007FC77E03127FDEA3A3E0D312290E500286
:10793700801690000912293E00030AE880497F0556
:10794700127FDB1280054035E47F367E01127FDE31
:10795700A3A3E01227F1E47B64FAF9F812287CE488
:107967007B62FAF9F81227F1EF2414FFEE348EFE4A
:10797700ED34FEFDEC34FFFC127FFF800A90000916
:1079870012293E0000F294E47B64FAF9F8900009AA
:10799700E0FCA3E0FDA3E0FEA3E0FF12287C90003B
:1079A70006EEF0FAA3EFF0FB127FFCD3EB940FEA9D
:1079B7009427400A9000067427F0A3740FF09000F4
:1079C70006E0FAA3E0FB7C037DE8127FA9EF2430F1
:1079D70090021BF07C037DE8127FC37D64127F9FBA
:1079E700EF243090021AF07D64127FC17D0A127F66
:1079F7009FEF2430900219F07D0A127FC124309046
:037A07000218F072
:017A0A002259
:109276001280267450F0A37430F0A37461F0A374C6
:109286003712801190000DF090000DE0FFD3940787
:109296005013127F83E0FFEE6F900213F090000DE3
:1092A600E004F080E3E490000DF090000DE0FFD3C1
:1092B60094085010127F88E0FF12000390000DE022
:0492C60004F080E64A
:0192CA002281
:10904D00128026744FF090023FE090020EF09002D5
:10905D0040E090020FF0900241E09002101280115A
:10906D0090000DF090000DE0FFD394075013127F88
:10907D0083E0FFEE6F900213F090000DE004F0809E
:10908D00E3E490000DF090000DE0FFD39408501034
:10909D00127F88E0FF12000390000DE004F080E6DF
:0190AD0022A0
:10002E001010FFFFFFFFFFFFFFFFFFFFFFFFFFFFB0
:10003E00FFFFFFFFFFFFFFFFFFFFFFFFFFFFFFFFC2
:10004E00FFFFFFFFFFFFFFFFFFFFFFFFFFFFFFFFB2
:10005E00FFFFFFFFFFFFFFFFFFFFFFFFFFFFFFFFA2
:10006E00FFFFFFFFFFFFFFFFFFFFFFFFFFFFFFFF92
:10007E00FFFFFFFFFFFFFFFFFFFFFFFFFFFFFFFF82
:10008E00FFFFFFFFFFFFFFFFFFFFFFFFFFFFFFFF72
:10009E00FFFFFFFFFFFFFFFFFFFFFFFFFFFFFFFF62
:1000AE00FFFFFFFFFFFFFFFFFFFFFFFFFFFFFFFF52
:1000BE00FFFFFFFFFFFFFFFFFFFFFFFFFFFFFFFF42
:1000CE00FFFFFFFFFFFFFFFFFFFFFFFFFFFFFFFF32
:1000DE00FFFFFFFFFFFFFFFFFFFFFFFFFFFFFFFF22
:1000EE00FFFFFFFFFFFFFFFFFFFFFFFFFFFFFFFF12
:1000FE00FFFFFFFFFFFFFFFFFFFFFFFFFFFFFFFF02
:10010E00FFFFFFFFFFFFFFFFFFFFFFFFFFFFFFFFF1
:10011E00FFFFFFFFFFFFFFFFFFFFFFFFFFFFFFFFE1
:10012E00FFFF1010FFFFFFFFFFFFFFFFFFFFFFFFAF
:10013E00FFFFFFFFFFFFFFFFFFFFFFFFFFFFFFFFC1
:10014E00FFFFFFFFFFFFFFFFFFFFFFFFFFFFFFFFB1
:10015E00FFFFFFFFFFFFFFFFFFFFFFFFFFFFFFFFA1
:10016E00FFFFFFFFFFFFFFFFFFFFFFFFFFFFFFFF91
:10017E00FFFFFFFFFFFFFFFFFFFFFFFFFFFFFFFF81
:10018E00FFFFFFFFFFFFFFFFFFFFFFFFFFFFFFFF71
:10019E00FFFFFFFFFFFFFFFFFFFFFFFFFFFFFFFF61
:1001AE00FFFFFFFFFFFFFFFFFFFFFFFFFFFFFFFF51
:1001BE00FFFFFFFFFFFFFFFFFFFFFFFFFFFFFFFF41
:1001CE00FFFFFFFFFFFFFFFFFFFFFFFFFFFFFFFF31
:1001DE00FFFFFFFFFFFFFFFFFFFFFFFFFFFFFFFF21
:1001EE00FFFFFFFFFFFFFFFFFFFFFFFFFFFFFFFF11
:1001FE00FFFFFFFFFFFFFFFFFFFFFFFFFFFFFFFF01
:10020E00FFFFFFFFFFFFFFFFFFFFFFFFFFFFFFFFF0
:10021E00FFFFFFFFFFFFFFFFFFFFFFFFFFFFFFFFE0
:10022E00FFFFFFFF1010FFFFFFFFFFFFFFFFFFFFAE
:10023E00FFFFFFFFFFFFFFFFFFFFFFFFFFFFFFFFC0
:10024E00FFFFFFFFFFFFFFFFFFFFFFFFFFFFFFFFB0
:10025E00FFFFFFFFFFFFFFFFFFFFFFFFFFFFFFFFA0
:10026E00FFFFFFFFFFFFFFFFFFFFFFFFFFFFFFFF90
:10027E00FFFFFFFFFFFFFFFFFFFFFFFFFFFFFFFF80
:10028E00FFFFFFFFFFFFFFFFFFFFFFFFFFFFFFFF70
:10029E00FFFFFFFFFFFFFFFFFFFFFFFFFFFFFFFF60
:1002AE00FFFFFFFFFFFFFFFFFFFFFFFFFFFFFFFF50
:1002BE00FFFFFFFFFFFFFFFFFFFFFFFFFFFFFFFF40
:1002CE00FFFFFFFFFFFFFFFFFFFFFFFFFFFFFFFF30
:1002DE00FFFFFFFFFFFFFFFFFFFFFFFFFFFFFFFF20
:1002EE00FFFFFFFFFFFFFFFFFFFFFFFFFFFFFFFF10
:1002FE00FFFFFFFFFFFFFFFFFFFFFFFFFFFFFFFF00
:10030E00FFFFFFFFFFFFFFFFFFFFFFFFFFFFFFFFEF
:10031E00FFFFFFFFFFFFFFFFFFFFFFFFFFFFFFFFDF
:10032E00FFFFFFFFFFFF1010FFFFFFFFFFFFFFFFAD
:10033E00FFFFFFFFFFFFFFFFFFFFFFFFFFFFFFFFBF
:10034E00FFFFFFFFFFFFFFFFFFFFFFFFFFFFFFFFAF
:10035E00FFFFFFFFFFFFFFFFFFFFFFFFFFFFFFFF9F
:10036E00FFFFFFFFFFFFFFFFFFFFFFFFFFFFFFFF8F
:10037E00FFFFFFFFFFFFFFFFFFFFFFFFFFFFFFFF7F
:10038E00FFFFFFFFFFFFFFFFFFFFFFFFFFFFFFFF6F
:10039E00FFFFFFFFFFFFFFFFFFFFFFFFFFFFFFFF5F
:1003AE00FFFFFFFFFFFFFFFFFFFFFFFFFFFFFFFF4F
:1003BE00FFFFFFFFFFFFFFFFFFFFFFFFFFFFFFFF3F
:1003CE00FFFFFFFFFFFFFFFFFFFFFFFFFFFFFFFF2F
:1003DE00FFFFFFFFFFFFFFFFFFFFFFFFFFFFFFFF1F
:1003EE00FFFFFFFFFFFFFFFFFFFFFFFFFFFFFFFF0F
:1003FE00FFFFFFFFFFFFFFFFFFFFFFFFFFFFFFFFFF
:10040E00FFFFFFFFFFFFFFFFFFFFFFFFFFFFFFFFEE
:10041E00FFFFFFFFFFFFFFFFFFFFFFFFFFFFFFFFDE
:10042E00FFFFFFFFFFFFFFFF1010FFFFFFFFFFFFAC
:10043E00FFFFFFFFFFFFFFFFFFFFFFFFFFFFFFFFBE
:10044E00FFFFFFFFFFFFFFFFFFFFFFFFFFFFFFFFAE
:10045E00FFFFFFFFFFFFFFFFFFFFFFFFFFFFFFFF9E
:10046E00FFFFFFFFFFFFFFFFFFFFFFFFFFFFFFFF8E
:10047E00FFFFFFFFFFFFFFFFFFFFFFFFFFFFFFFF7E
:10048E00FFFFFFFFFFFFFFFFFFFFFFFFFFFFFFFF6E
:10049E00FFFFFFFFFFFFFFFFFFFFFFFFFFFFFFFF5E
:1004AE00FFFFFFFFFFFFFFFFFFFFFFFFFFFFFFFF4E
:1004BE00FFFFFFFFFFFFFFFFFFFFFFFFFFFFFFFF3E
:1004CE00FFFFFFFFFFFFFFFFFFFFFFFFFFFFFFFF2E
:1004DE00FFFFFFFFFFFFFFFFFFFFFFFFFFFFFFFF1E
:1004EE00FFFFFFFFFFFFFFFFFFFFFFFFFFFFFFFF0E
:1004FE00FFFFFFFFFFFFFFFFFFFFFFFFFFFFFFFFFE
:10050E00FFFFFFFFFFFFFFFFFFFFFFFFFFFFFFFFED
:10051E00FFFFFFFFFFFFFFFFFFFFFFFFFFFFFFFFDD
:10052E00FFFFFFFFFFFFFFFFFFFF1010FFFFFFFFAB
:10053E00FFFF00000000FFFFFFFFFFFFFFFFFFFFB9
:10054E00FF000000000000FFFFFFFFFFFFFFFFFFA7
:10055E000000020202020000FFFFFFFFFFFFFFFF8D
:10056E000000020202020000FFFFFFFFFFFFFF007C
:10057E00000202000002020000FFFFFFFFFFFF006B
:10058E00000202000002020000FFFFFFFFFF00005A
:10059E0002020000000002020000FFFFFFFF000049
:1005AE00020200FFFF0002020000FFFFFF00000238
:1005BE00020000FFFF000002020000FFFF00000229
:1005CE000200000000000002020000FF0000020214
:1005DE0002020202020202020202000000000202F5
:1005EE0002020202020202020202000000000202E5
:1005FE0000000000000000000202000000000202E5
:10060E000000FFFFFFFF00000202000000000202D8
:10061E000000FFFFFFFF00000202000000000000CC
:10062E000000FFFFFFFF00000000000010100000A0
:10063E00000000000000000000000000FFFF0002AC
:10064E0002020202020202020202000000FF000287
:10065E000202020202020202020202000000000076
:10066E000002020000000000020202020000FF0071
:10067E0000020200FFFFFF00000202020000FF0066
:10068E0000020200FFFFFF00000202020000FF0056
:10069E0000020200000000000202020000FFFF0044
:1006AE00000202020202020202020000FFFFFF002D
:1006BE00000202020202020202020000FFFFFF001D
:1006CE0000020200000000000202020000FFFF0014
:1006DE0000020200FFFFFF00000202020000FF0006
:1006EE0000020200FFFFFF000002020200000000F5
:1006FE0000020200000000000202020200000002DE
:10070E0002020202020202020202020000000002C3
:10071E0002020202020202020202000000FF0000B8
:10072E00000000000000000000000000FFFF10109D
:10073E00FFFFFF00000000000000000000FFFFFFB1
:10074E00FFFF00000202020202020202000000FF8E
:10075E00FF00000202020202020202020200000078
:10076E000000000202000000000000020202000071
:10077E0000000202020000FFFFFF00000202000064
:10078E00000002020000FFFFFFFFFF000202000058
:10079E00000002020000FFFFFFFFFFFF000000004D
:1007AE00000002020000FFFFFFFFFFFFFFFFFFFF41
:1007BE00000002020000FFFFFFFFFFFFFFFFFFFF31
:1007CE00000002020000FFFFFFFFFF00000000001C
:1007DE00000002020000FFFFFFFFFF000202000008
:1007EE0000000202000000FFFFFF000002020000F6
:1007FE0000000202020000000000000202020000DF
:10080E00FF000002020202020202020202000000C7
:10081E00FFFF00000202020202020202000000FFBD
:10082E00FFFFFF0000000000000000000000FFFFBF
:10083E001010000000000000000000000000FFFF8C
:10084E00FFFF00000202020202020202020000FF8B
:10085E00FFFF000002020202020202020202000078
:10086E00FFFF000002020000000000020202000072
:10087E00FFFF000002020000FFFF00000202000066
:10088E00FFFF000002020000FFFF00000202000056
:10089E00FFFF000002020000000000020202000042
:1008AE00FFFF00000202020202020202020000FF2B
:1008BE00FFFF00000202020202020202000000FF1D
:1008CE00FFFF000002020000020202000000FFFF14
:1008DE00FFFF000002020000000202020000FFFF04
:1008EE00FFFF00000202000000000202020000FFF3
:1008FE00FFFF000002020000FF00000202020000E3
:10090E00FFFF000002020000FFFF000002020200D3
:10091E0000FF000002020000FFFFFF0000020202C3
:10092E0000FF000000000000FFFFFFFF00000000BE
:10093E0000FF101000000000FFFFFFFFFFFFFFFF92
:10094E00000000000000000000FFFFFFFFFFFF009F
:10095E000000000000000C0C0000FFFFFFFF000075
:10096E000C0C000000000C0C0C0000000000000C31
:10097E000C0C000000000C0C0C0C000000000C0C09
:10098E000C0C000000000C0C0C0C0C0C0C0C0C0CC9
:10099E000C0C000000000C0C0C0C0C0C0C0C0C0CB9
:1009AE000C0C000000000C0C0C000C0C0C0C000CC1
:1009BE000C0C000000000C0C0C00000C0C00000CC9
:1009CE000C0C000000000C0C0C0000000000000CD1
:1009DE000C0C000000000C0C0C0000000000000CC1
:1009EE000C0C000000000C0C0C0000FFFF00000CB3
:1009FE000C0C000000000C0C0C0000FFFF00000CA3
:100A0E000C0C000000000C0C0C0000FFFF00000C92
:100A1E000C0C000000000C0C0C0000FFFF00000C82
:100A2E000C0C000000000000000000FFFF000000A2
:100A3E00000000001010FF00000000000000000089
:100A4E000000000000FFFF0000020202020202028C
:100A5E000202020000FFFF00000202020202020276
:100A6E000202020000FFFF00000000000000020270
:100A7E000200000000FFFFFFFFFFFFFF0000020269
:100A8E00020000FFFFFFFFFFFFFFFFFF000002025B
:100A9E00020000FFFFFFFFFFFFFFFFFF000002024B
:100AAE00020000FFFFFFFFFFFFFFFFFF000002023B
:100ABE00020000FFFFFFFFFFFFFFFFFF000002022B
:100ACE00020000FFFFFFFFFFFFFFFFFF000002021B
:100ADE00020000FFFFFFFF00000000FF0000020207
:100AEE00020000FFFFFFFF000202000000000202F2
:100AFE00020000FFFFFFFF000202020000020202DE
:100B0E00020000FFFFFFFF000002020202020202CB
:100B1E00000000FFFFFFFFFF0000020202020200C2
:100B2E000000FFFFFFFFFFFFFF00000000000000BE
:100B3E0000FFFFFFFFFF1010FFFFFFFFFFFFFFFF94
:100B4E00FFFFFFFFFFFFFFFFFFFFFFFFFF000000A4
:100B5E0000000000FFFFFFFFFFFFFFFF000001018D
:100B6E0001010000FFFFFFFFFFFFFF000001010179
:100B7E0001010000FFFFFFFFFFFF00000101010167
:100B8E00010000FFFFFFFFFFFF0000010101010157
:100B9E000000000000000000000001010101010141
:100BAE00010101010101000000010101010101012A
:100BBE00010101010101000000010101010101011A
:100BCE00010101010101000000000101010101010B
:100BDE000101010101010000FF00000101010101FD
:100BEE000000000000000000FFFF000001010101F5
:100BFE00010000FFFFFFFFFFFFFFFF0000010101EB
:100C0E0001010000FFFFFFFFFFFFFFFF00000101DA
:100C1E0001010000FFFFFFFFFFFFFFFFFF000000CD
:100C2E0000000000FFFFFFFFFFFFFFFFFFFFFFFFC2
:100C3E00FFFFFFFFFFFFFFFF1010FFFFFFFFFFFF94
:100C4E00FFFFFFFFFFFFFFFFFFFFFFFFFFFF0000A4
:100C5E000000000000FFFFFFFFFFFFFFFFFF00008F
:100C6E00010101010000FFFFFFFFFFFFFFFF00007A
:100C7E0001010101010000FFFFFFFFFFFFFFFF0069
:100C8E000001010101010000FFFF00000000000053
:100C9E00000001010101010000FF0000010101013E
:100CAE00010101010101010100000000010101012A
:100CBE000101010101010101010000000101010119
:100CCE00010101010101010101000000000000000D
:100CDE00000001010101010000FF00000000000002
:100CEE00000001010101010000FFFFFFFFFFFF00F7
:100CFE000001010101010000FFFFFFFFFFFF0000E7
:100D0E0001010101010000FFFFFFFFFFFFFF0000D7
:100D1E00010101010000FFFFFFFFFFFFFFFF0000C9
:100D2E000000000000FFFFFFFFFFFFFFFFFFFFFFC0
:100D3E00FFFFFFFFFFFFFFFFFFFF1010FFFFFFFF93
:100D4E000000000000000000FFFFFFFFFFFFFFFF9D
:100D5E000000010101010000FFFFFFFFFFFFFFFF89
:100D6E000000010101010000FFFFFFFFFFFFFFFF79
:100D7E000000010101010000FFFFFFFFFFFFFFFF69
:100D8E000000010101010000FFFFFFFF0000000055
:100D9E00000001010101000000000000000001013F
:100DAE00000001010101000001010000000001012D
:100DBE00010001010101000101010000000001011B
:100DCE000101010101010101010100000000010109
:100DDE00010101010101010101010000FF000001FB
:100DEE000101010101010101010000FFFFFF0000EF
:100DFE0001010101010101010000FFFFFFFFFF00E2
:100E0E00000101010101010000FFFFFFFFFFFFFFD5
:100E1E000000010101010000FFFFFFFFFFFFFFFFC8
:100E2E00FF000001010000FFFFFFFFFFFFFFFFFFBC
:100E3E00FFFF00000000FFFFFFFFFFFF1010FFFF8E
:100E4E00FFFFFFFFFFFF0000000000000000FFFF9C
:100E5E00FFFFFFFFFF000002020202020000FFFF81
:100E6E00FFFFFFFF00000202020202020000FFFF6E
:100E7E00FFFFFF000002020200000202000000005D
:100E8E00000000000202020000000202000000004A
:100E9E000202020202020200FF0002020000000033
:100EAE000202020202020200FF0002020000000023
:100EBE000202000000020200FF0002020000000019
:100ECE00020200FF00020200FF000202000000000A
:100EDE000202000000020200FF00020200000000F9
:100EEE000202020202020200FF00020200000000E3
:100EFE0002020202020202000000020200000000D2
:100F0E000000000000020202000002020000FFFFCB
:100F1E00FFFFFFFF00000202020202020000FFFFBD
:100F2E00FFFFFFFFFF000002020202020000FFFFB0
:100F3E00FFFFFFFFFFFF0000000000000000101089
:100F4E000000000000FFFFFFFFFFFF000000000099
:100F5E000001010100FFFFFFFFFFFF000101010083
:100F6E000001010100FFFFFFFFFFFF000101010073
:100F7E000001010100FFFFFFFFFFFF000101010063
:100F8E000001010100FFFFFFFFFFFF000101010053
:100F9E00000101010000FFFFFFFF00000101010041
:100FAE00000101010100FFFFFFFF0001010101002F
:100FBE00000001010100FFFFFFFF00010101000021
:100FCE0000000101010000FFFF000001010100000F
:100FDE00FF0000010101000000000101010000FFFF
:100FEE00FFFF000001010100000101010000FFFFF1
:100FFE00FFFF000000010100000101000000FFFFE3
:10100E00FFFFFF00000101010101010000FFFFFFD2
:10101E00FFFFFFFF0000010101010000FFFFFFFFC6
:10102E00FFFFFFFFFF00000101000000FFFFFFFFB9
:10103E00FFFFFFFFFFFF0000000000FFFFFFFFFFAD
:10104E00101000000000000000FFFFFFFFFFFFFF79
:10105E00FFFF00000101010000FFFFFFFFFFFFFF88
:10106E00FFFF00000101010000FFFFFFFFFFFFFF78
:10107E00FFFF00000101010000FFFFFFFFFFFFFF68
:10108E00FFFF00000101010000FFFFFFFFFFFFFF58
:10109E00FFFF00000101010000FFFFFFFFFFFFFF48
:1010AE00FFFF00000101010000FFFFFFFFFFFFFF38
:1010BE00FFFF00000101010000FFFFFFFFFFFFFF28
:1010CE00FFFF00000101010000FFFFFFFFFFFFFF18
:1010DE00FFFF00000101010000FFFFFFFFFF000006
:1010EE00000000000101010000FFFFFFFFFF0000F4
:1010FE00000000000101010000FFFFFFFF000001E2
:10110E0000000000010101000000000000000101CC
:10111E0000000000010101010101010101010101B5
:10112E0000000000010101010101010101010101A5
:10113E0000000000000000000000000000000000A1
:10114E0000001010FFFFFFFFFFFFFFFFFFFFFFFF7D
:10115E00FFFFFFFFFFFFFFFFFFFFFFFFFFFFFFFF91
:10116E00FFFFFFFFFFFFFFFFFFFFFFFFFFFFFFFF81
:10117E00FFFFFFFFFFFFFFFF00000000000000FF6A
:10118E00FFFFFFFFFFFFFF00000001010100000055
:10119E00FFFFFFFFFFFF0000010101010101010040
:1011AE0000FFFFFFFF00000101010000000101012F
:1011BE000000FFFF00000001010000FF0000010120
:1011CE00000000FF00000101010000FF000001010E
:1011DE00010000FF00000101010000FF00000101FD
:1011EE00010000FF00000101010000FF00000101ED
:1011FE00010000FF00000001010000FF00000101DE
:10120E00000000FFFF0000010101000000010101CC
:10121E000000FFFFFFFF00000101010101010100BD
:10122E0000FFFFFFFFFFFF000000010101000000B3
:10123E00FFFFFFFFFFFFFFFF00000000000000FFA9
:10124E00FFFFFFFF1010FFFFFFFFFFFFFFFFFFFF7E
:10125E00FFFFFFFFFFFFFFFFFFFF0000000000008A
:10126E000000FFFFFFFFFFFF00000000020202026E
:10127E00000000FFFFFFFF00000002020202020258
:10128E0002020000FFFFFF00000202020000000049
:10129E000202020000FFFF00000202020000FF0037
:1012AE000000000000FFFF0000000202020200002A
:1012BE000000FFFFFFFFFFFFFF000002020202021D
:1012CE00020000FFFFFFFFFFFFFF00000000020211
:1012DE0002020000FFFFFF0000000000FFFF000001
:1012EE000202020000FFFF000002020200000000E6
:1012FE000202020000FFFF000000020202020202D0
:10130E0002020000FFFFFFFFFF00000002020202C8
:10131E00000000FFFFFFFFFFFFFFFF0000000000C7
:10132E000000FFFFFFFFFFFFFFFFFFFFFFFFFFFFBD
:10133E00FFFFFFFFFFFFFFFFFFFFFFFFFFFFFFFFAF
:10134E00FFFFFFFFFFFF1010FFFFFFFFFFFFFFFF7D
:10135E00FFFFFFFFFFFFFFFFFFFFFFFFFFFFFFFF8F
:10136E00FFFFFFFFFFFFFFFFFFFFFFFFFFFFFFFF7F
:10137E00FFFFFFFFFFFFFFFFFFFFFFFFFFFFFFFF6F
:10138E00FFFFFFFFFFFFFFFFFFFFFFFFFFFFFFFF5F
:10139E00FFFFFFFFFFFFFFFFFFFFFFFFFFFFFFFF4F
:1013AE00FFFFFFFFFFFFFFFFFFFFFFFFFFFFFFFF3F
:1013BE00FFFFFFFFFFFFFFFFFFFFFFFFFFFFFFFF2F
:1013CE00FFFFFFFFFFFFFFFF1010FFFFFFFFFFFFFD
:1013DE00FFFFFFFFFFFFFFFFFFFFFFFFFFFFFFFF0F
:1013EE00FFFFFFFFFFFFFFFFFFFFFFFFFFFFFFFFFF
:1013FE00FFFFFFFFFFFFFFFFFFFFFFFFFFFFFFFFEF
:10140E00FFFFFFFFFFFFFFFFFFFFFFFFFFFFFFFFDE
:10141E00FFFFFFFFFFFFFFFFFFFFFFFFFFFFFFFFCE
:10142E00FFFFFFFFFFFFFFFFFFFFFFFFFFFFFFFFBE
:10143E00FFFFFFFFFFFFFFFFFFFFFFFFFFFFFFFFAE
:10144E00FFFFFFFFFFFFFFFFFFFF1010FFFFFFFF7C
:10145E00FFFFFFFFFFFFFFFFFFFFFFFFFFFFFFFF8E
:10146E00FFFFFFFFFFFFFFFFFFFFFFFFFFFFFFFF7E
:10147E00FFFFFFFFFFFFFFFFFFFFFFFFFFFFFFFF6E
:10148E00FFFFFFFFFFFFFFFFFFFFFFFFFFFFFFFF5E
:10149E00FFFFFFFFFFFFFFFFFFFFFFFFFFFFFFFF4E
:1014AE00FFFFFFFFFFFFFFFFFFFFFFFFFFFFFFFF3E
:1014BE00FFFFFFFFFFFFFFFFFFFFFFFFFFFFFFFF2E
:1014CE00FFFFFFFFFFFFFFFFFFFFFFFF1010FFFFFC
:1014DE00FFFFFFFFFFFFFFFFFFFFFFFFFFFFFFFF0E
:1014EE00FFFFFFFFFFFFFFFFFFFFFFFFFFFFFFFFFE
:1014FE00FFFFFFFFFFFFFFFFFFFFFFFFFFFFFFFFEE
:10150E00FFFFFFFFFFFFFFFFFFFFFFFFFFFFFFFFDD
:10151E00FFFFFFFFFFFFFFFFFFFFFFFFFFFFFFFFCD
:10152E00FFFFFFFFFFFFFFFFFFFFFFFFFFFFFFFFBD
:10153E00FFFFFFFFFFFFFFFFFFFFFFFFFFFFFFFFAD
:10154E00FFFFFFFFFFFFFFFFFFFFFFFFFFFF10107B
:10155E00FFFFFFFFFFFFFFFFFFFFFFFFFFFFFFFF8D
:10156E00FFFFFFFFFFFFFFFFFFFFFFFFFFFFFFFF7D
:10157E00FFFFFFFFFFFFFFFFFFFFFFFFFFFFFFFF6D
:10158E00FFFFFFFFFFFFFFFFFFFFFFFFFFFFFFFF5D
:10159E00FFFFFFFFFFFFFFFFFFFFFFFFFFFFFFFF4D
:1015AE00FFFFFFFFFFFFFFFFFFFFFFFFFFFFFFFF3D
:1015BE00FFFFFFFFFFFFFFFFFFFFFFFFFFFFFFFF2D
:1015CE00FFFFFFFFFFFFFFFFFFFFFFFFFFFFFFFF1D
:1015DE001010FFFFFF0000FFFFFFFFFFF000000FE6
:1015EE00FFFFFFFF00222200FFFFFFFF002222006D
:1015FE00FFFFFFF0022002200FFFFFF0022002206B
:10160E000FFFFF002200002200FFFF00220FF0223A
:10161E0000FFF002200FF002200FF0022000000267
:10162E00200F002222222222220000222222222207
:10163E0022000022000000002200002200FFFF0016
:10164E002200002200FFFF002200000000FFFF002A
:10165E000000101000000000000000FF02222222F5
:10166E002222000F0222222222222000000220002B
:10167E0000222200F00220FFF0022200F00220FFE2
:10168E00F0022200F00220000022200FF00222229F
:10169E00222200FFF0022222222200FFF00220006E
:1016AE000022200FF00220FFF0022200F00220FFA5
:1016BE00F00222000002200000222200022222223A
:1016CE0022222000022222222222000F00000000ED
:1016DE00000000FF1010101010101010101010103D
:0A16EE001010101010101010101052
:109C85001226A7FF900407E02F9001F5F02290011E
:109C9500EFE0FBA3E0FAA3E0F922F09001EFE0FB8F
:109CA500A3E475F001122763A9F0FA02268E90014C
:089CB500E6E0D36480948022F4
:06A70700E4900407F022BB
:06A70D00900407EFF022AA
:0B63FE009001E7EFF0A3ECF0A3EDF03E
:106409009001E7E0FF25E0F0E02408F09001EEF0CC
:106419009001E8E0FEA3E07803C333CE33CED8F988
:10642900F0EE9001E8F0A3E02408F09001E8E034F0
:1064390000F0AF037E007C017D021226E6742E2F48
:10644900F974003EFA9001EF74FFF0A3EAF0A3E9B2
:10645900129C9F9001EA129C9F9001EBF0E4A3F03B
:106469009001EAE0FF9001ECE0C39F40030265451B
:10647900E4A3F09001EBE0FF9001EDE0C39F40033E
:10648900026526129C9312268E129C88E4FB7D02DB
:10649900FF128E5D129C93900001129C857B011264
:1064A900656F900002129C857B0212656F90000354
:1064B900129C857B031265829001F57480F07B0440
:1064C9001265829001F0E475F00412274D9001EEF7
:1064D900E09001F5F07B0512658AA3E09001F5F0E3
:1064E9007B0712658AE07E007802C333CE33CED8AB
:1064F900F912654612659520E7FA9001E8E025E072
:1065090025E0440812654612659520E7FA9001EEE8
:10651900E004F09001EDE02404F002647C9001E7CE
:10652900E09001EEF09001E9E004F070069001E8D6
:0C653900E004F09001ECE004F002646962
:10654500229001F5F07B097D02E4FF128E5D7B0A46
:106555007D02E4FF1288F3EF543F44809001F5F08B
:106565007B0A7D02E4FF128E5D227D02E4FF128E1E
:106575005D9001EFE0FBA3E0FAA3E0F9227D02E4E0
:10658500FF128E5D227D02E4FF128E5D9001E822EE
:0B6595007B0A7D02E4FF1288F3EF2276
:0B90AE009001E0EFF0A3EDF0A3EBF069
:1090B900A3129C9612A4D49001E6EFF0C3648094A5
:1090C9008040429001E0E030E0339001E1E0FFA30D
:1090D900E0FD7C00A3129C9612268EFB1263FE9083
:1090E90001E6E014F09001E4E475F00112274D90D7
:1090F90001E1E02402F0129CB350CF8005129CB329
:0591090050FB12A7312C
:01910E00223E
:10A375000500000600000700000800000900000AAB
:10A38500000012000020000B000C000D000E000064
:036D290001210045
:10829C00900383E075F003A42475F974A335F0FA08
:1082AC009001E374FFF0A3229001DDE0FBA3E0FA60
:1082BC00A3E0F922900383E0FF74017E00A8070875
:1082CC0022FF900390E0FDEF5D2274A3F0A3749461
:1082DC00F0229000010226A774A3F0A37481F0226F
:1082EC0074A3F0A37492F022EAF0A3E9F0E4FB2269
:1082FC009000020226A712268E540C1313543FF53D
:10830C003A22EAF0A3E9F07B12227B017D127C0079
:10831C00227D197B057C007F3A22EBF0A3EAF0A3C7
:10832C00E9F0229000030226A77B017D0F7C00223E
:10833C00EAF0A3E9F07B0F227B01E4FDFC7F1C2219
:08834C007B01E4FDFC7F4122EE
:1093BA0012721212A7077F0412A72B7F0312A72E7D
:1093CA00E4F53AAF3A1293F0053AE53AC394064007
:1093DA00F27F01129D627FFF12A72E7F081293F07F
:0593EA00E4900380F097
:1093EF002212A3B59001E1E4F0A37426F07B5AE4B6
:0793FF00FDFCFF1284BA22FD
:1043D3009001DD1283267F0212A72B7FFF12A72EE7
:1043E300900382E01229DE441811442721445B2202
:1043F300448F3144CD33450834454341459391457A
:10440300AAA145D6A245FFB14644B34685B446C7E3
:10441300C1000047241282B412268E20E103024712
:104423002402459F1282B412268E30E10D12829C23
:104433001282F47DFF7F011290AE1282B41282DEEB
:1044430020E10302472490038412829FEAF0A3E948
:10445300F07B1D7D5D02471F1282B412268E30E170
:104463001112829CEAF0A3E9F07B0E7D487F0112D2
:1044730090AE1282B41282DE20E10302472490033D
:104483008412829F1282F47D1402471F1282B41297
:10449300268E30E10912829C1282F4124771128235
:1044A300B41282DE30E10990038412829F124752D4
:1044B3001282B41282FC20E1030247249003851286
:1044C300829F12833C7D3E02471F1282B412268EC6
:1044D30030E10612829C1247251282B41282DE302A
:1044E300E10990038412829F1247431282B412821D
:1044F300FC20E10302472490038512829F12833C30
:104503007D3E02471F1282B412268E30E1061282CC
:104513009C1247251282B41282DE30E10990038493
:1045230012829F1247431282B41282FC20E10302DB
:10453300472490038512829F12833C7D1402471FF8
:104543001282B412268E30E10612829C1247341274
:1045530082B41282DE30E10C90038412829F1282B5
:10456300F41247691282B41282FC30E10990038588
:1045730012829F1247521282B412832F20E1030248
:10458300472490038612829F12833C7D3E02471F7D
:104593001282B412268E20E10302472412829C1257
:1045A30082F47D2902471F1282B412268E30E1095C
:1045B30012829C1282F41247711282B41282DE209C
:1045C300E10302472490038412829F12830E7D2904
:1045D30002471F1282B412268E30E10612829C1209
:1045E30047341282B41282DE20E10302472490038F
:1045F3008412829F1282F47D3E02471F1282B412FC
:10460300268E30E10D12829C1282F47D297F0112E5
:1046130090AE1282B41282DE30E10C9003841282D7
:104623009F12830E1247611282B41282FC20E103AF
:1046330002472490038512829F12830E7D3E024718
:104643001F1282B412268E30E10912829C1282F468
:104653001247611282B41282DE30E10C900384129D
:10466300829F1282F41247691282B41282FC20E103
:104673000302472490038512829F12830E7D3E021C
:10468300471F1282B412268E30E10912829C1282D5
:10469300F41247791282B41282DE30E1109003845F
:1046A30012829F1282F47D3E7F011290AE1282B479
:1046B3001282FC30E16B90038512829F12830E7D80
:1046C3001402471F1282B412268E30E10912829C13
:1046D3001282F41247791282B41282DE30E1109012
:1046E300038412829F1282F47D3E7F011290AE12E8
:1046F30082B41282FC30E11090038512829F1283F0
:104703000E7D147F011290AE1282B412832F30E11A
:104713001090038612829F12830E7D3E7F011290BA
:10472300AE22EAF0A3E9F0E4FB7D147F011290AE20
:1047330022EAF0A3E9F0E4FB7D147F011290AE229C
:10474300EAF0A3E9F0E4FB7D3E7F011290AE22EA9A
:10475300F0A3E9F07B0F7D147F011290AE227D144C
:104763007F011290AE227D3E7F011290AE227D2901
:0E4773007F011290AE227D147F011290AE22C3
:08A6F700900381E04480F02291
:1096E0007B787D01E4FF1288F3EF540FFF90039025
:1096F000F0900381E06F602ED2277B31E4FDFF12F2
:1097000088F3EF547F9001F5F07B31E4FDFF128E7A
:109710005D7F4D12A72B7F4012A70D12A707900364
:0797200090E0900381F022AC
:066B76009001DD128326F0
:106B7C007F4112A72B900382E01229DE6BB0116BC0
:106B8C00C1216BF5226C2C316C4F336C6C346BB0B7
:106B9C00916BC1A16BF5A26C2CB16C4FB36C6CB446
:106BAC0000006CA99001DD1282B71283026003020F
:106BBC006C37026C459001DD1282B71283026012B1
:106BCC00126CAA1282AB1282F47D1C7F011290AE61
:106BDC0080061283441283549001DD1282B7128214
:106BEC00DE1283056037026C7A9001DD1282B712D7
:106BFC0083026012126CAA1282AB1282F47D1C7F8B
:106C0C00011290AE80061283441283549001DD125F
:106C1C0082B71282DE1283056003026C7A026C9FCB
:106C2C009001DD1282B7128302600E126CC31282C5
:106C3C00AB1282F47D31026C9A7B01E4FDFC7F3156
:106C4C00026CA69001DD1282B7128302600D126CE9
:106C5C00C31282AB1282F47D1C8033128344803ABF
:106C6C009001DD1282B71282DE12830560257B0251
:106C7C00E4FDFCFF128354E53A25E0FFE433FE7497
:106C8C008A2FF974A33E1282AB1282F47D467F01E7
:0D6C9C000290AE7B01E4FDFC7F46128354A4
:106CA900227B02E4FDFCFF128354E53A25E0FFE470
:106CB90033FE748A2FF974A33E227B02E4FDFCFFA4
:106CC900128354E53A25E0FFE433FE748A2FF97400
:036CD900A33E22B5
:1031F2009001DD1283267F0C12A72B900382E0122E
:1032020029DE32321132442132702232993132E4D3
:103212003333273433764133E4913401A1343CA271
:103222003475B134D2B33527B43582C1000035FBD1
:103232009001DD1282B712268E30E0030233F002D3
:1032420033FA9001DD1282B712268E30E00B128221
:10325200AC1282E412367E80031236539001DD12E4
:1032620082B71282DE30E003023427023434900146
:10327200DD1282B712268E30E0081282AC1235FCC3
:10328200800312361E9001DD1282B71282DE30E018
:103292000302346202346F9001DD1282B712268E6D
:1032A20030E00B1282AC1282E412367E80031236B8
:1032B200539001DD1282B71282DE30E00B1282AC33
:1032C2001282E41236A880081283357F17128354C3
:1032D2009001DD1282B71282FC30E0030233D20287
:1032E20033DD9001DD1282B712268E30E0081282A1
:1032F200AC1235FC800312361E9001DD1282B71229
:1033020082DE30E00B1282AC1282E4123669800354
:103312001236299001DD1282B71282FC30E00302DC
:1033220033D20233DD9001DD1282B712268E30E0F5
:10333200081282AC12360D80031236349001DD126F
:1033420082B71282DE30E00B1282AC1282E41236B5
:103352006980031236299001DD1282B71282FC3095
:10336200E00B1282AC1282E47B0F0235727B017D8C
:103372000F02357B9001DD1282B712268E30E008F3
:103382001282AC12360D80031236349001DD1282A5
:10339200B71282DE30E00B1282AC1282E412369354
:1033A200800312365E9001DD1282B71282FC30E099
:1033B2000B1282AC1282E41236A880081283357F87
:1033C200171283549001DD1282B712832F30E00B63
:1033D2001282AC1282E47B0F02346A7B017D0F02FF
:1033E20034CB9001DD1282B712268E30E00A1282AF
:1033F200AC1282E4E4FB80357B01E4FDFC80369074
:1034020001DD1282B712268E30E00B1282AC1282DC
:10341200E41236B280031236889001DD1282B712AE
:1034220082DE30E00D1282AC1282E47B0F7D2C0230
:1034320035EE1283357F2C0235F89001DD1282B70A
:1034420012268E30E00B1282AC1282E412363F80DA
:10345200031236739001DD1282B71282DE30E00D64
:103462001282AC1282E4E4FB7D410235EE12834CFF
:103472000235F89001DD1282B712268E30E00B126F
:1034820082AC1282E41236B280031236889001DDD9
:103492001282B71282DE30E00B1282AC1282E41288
:1034A20036BC80081283167F171283549001DD12F6
:1034B20082B71282FC30E00D1282AC1282E47B12DF
:1034C2007D410235EE7B017D127C007F410235F8A1
:1034D2009001DD1282B712268E30E00B1282AC12FE
:1034E20082E412363F80031236739001DD1282B7F6
:1034F2001282DE30E00B1282AC1282E4123693802A
:103502000312365E9001DD1282B71282FC30E00DAA
:103512001282AC1282E47B127D410235EE128316D6
:103522007F410235F89001DD1282B712268E30E01B
:103532000B1282AC1282E4123649800312369D903D
:1035420001DD1282B71282DE30E00B1282AC1282EF
:10355200E41236C6800612834C1283549001DD12A7
:1035620082B71282FC30E00D1282AC1282E47B122E
:103572007D170235EE7B017D127C007F170235F844
:103582009001DD1282B712268E30E00B1282AC124D
:1035920082E4123649800312369D9001DD1282B711
:1035A2001282DE30E00B1282AC1282E41236C68046
:1035B2000612834C1283549001DD1282B71282FCF0
:1035C20030E00B1282AC1282E41236BC8008128305
:1035D200167F171283549001DD1282B712832F30A7
:1035E200E00F1282AC1282E47B127D417F010290D5
:1035F200AE1283167F411283542274A3F0A3748106
:10360200F0E4FB7D177F011290AE2274A3F0A37445
:1036120081F0E4FB7D177F011290AE227B01E4FD75
:10362200FC7F17128354227B01E4FDFC7F4112834D
:1036320054227B01E4FDFC7F1712835422E4FB7DBC
:10364200177F011290AE22E4FB7D177F011290AE2C
:10365200227B01E4FDFC7F2C128354227B01E4FDDA
:10366200FC7F4112835422E4FB7D417F011290AE24
:10367200227B01E4FDFC7F1712835422E4FB7D2CA4
:103682007F011290AE227B01E4FDFC7F2C12835459
:1036920022E4FB7D417F011290AE227B01E4FDFC1E
:1036A2007F17128354227B0F7D177F011290AE2267
:1036B200E4FB7D2C7F011290AE227B127D177F01ED
:0E36C2001290AE22E4FB7D417F011290AE22F9
:1036D0009003F51283267F0212A72B900382E0123B
:1036E00029DE370D11371F21374E2237773137C288
:1036F0003338053438544138C29138E5A23922B103
:10370000398CB339E1B43A39C100003AAF9003F5CE
:103710001282B712268E30E4030238CE0238DB90D4
:1037200003F51282B712268E30E40B1282AC12829D
:10373000EC123B478003123B279003F51282B7122D
:10374000268E30E4030238CE1283350238E090032F
:10375000F51282B712268E30E4081282AC123AB00B
:103760008003123AD29003F51282B71282DE30E45F
:103770000302390B0239189003F51282B712268E14
:1037800030E40B1282AC1282EC123B478003123BF6
:10379000279003F51282B71282DE30E40B1282AC5E
:1037A0001282EC123B5180081283357F1F12835422
:1037B0009003F51282B71282FC30E4030238B002A3
:1037C00038BB9003F51282B712268E30E4081282BD
:1037D000AC123AB08003123AD29003F51282B712BB
:1037E00082DE30E40B1282AC1282EC123B1D8003AD
:1037F000123ADD9003F51282B71282FC30E4030224
:1038000038B00238BB9003F51282B712268E30E42E
:10381000081282AC123AC18003123AE89003F51202
:1038200082B71282DE30E40B1282AC1282EC123BC1
:103830001D8003123ADD9003F51282B71282FC302C
:10384000E40B1282AC1282EC7B0F023A297B017DE1
:103850000F023A329003F51282B712268E30E40836
:103860001282AC123AC18003123AE89003F5128238
:10387000B71282DE30E40B1282AC1282EC123B32C1
:103880008003123B079003F51282B71282FC30E4EA
:103890000B1282AC1282EC123B5180081283357FEE
:1038A0001F1283549003F51282B712832F30E40B5A
:1038B0001282AC1282EC7B0F0239137B017D0F0266
:1038C00039859003F51282B712268E30E40D1282EC
:1038D000AC1282ECE4FB7D34023AA27B01E4FDFCF5
:1038E0007F34023AAC9003F51282B712268E30E490
:1038F0000B1282AC1282EC123AF38003123B12904C
:1039000003F51282B71282DE30E40D1282AC12820D
:10391000ECE4FB7D49023AA27B01E4FDFC7F490215
:103920003AAC9003F51282B712268E30E41112825F
:10393000AC1282ECE4FB7D347F011290AE800A7BF6
:1039400001E4FDFC7F341283549003F51282B71218
:1039500082DE30E40B1282AC1282EC123B708008E3
:103960001283167F1F1283549003F51282B71282BE
:10397000FC30E40D1282AC1282EC7B127D49023ADB
:10398000A27B017D127C007F49023AAC9003F512C4
:1039900082B712268E30E40B1282AC1282EC123AFD
:1039A000F38003123B129003F51282B71282DE30CD
:1039B000E40B1282AC1282EC123B328003123B0702
:1039C0009003F51282B71282FC30E40D1282AC1221
:1039D00082EC7B127D49023AA21283167F49023A99
:1039E000AC9003F51282B712268E30E40B1282AC33
:1039F0001282EC123AFD8003123B3C9003F51282D6
:103A0000B71282DE30E40B1282AC1282EC123B66FB
:103A10008003123B5B9003F51282B71282FC30E404
:103A20000D1282AC1282EC7B127D1F023AA27B0146
:103A30007D127C007F1F023AAC9003F51282B71210
:103A4000268E30E40B1282AC1282EC123AFD800317
:103A5000123B3C9003F51282B71282DE30E40B1267
:103A600082AC1282EC123B668003123B5B9003F542
:103A70001282B71282FC30E40B1282AC1282EC127A
:103A80003B7080081283167F1F1283549003F51237
:103A900082B712832F30E40F1282AC1282EC7B12B9
:103AA0007D497F010290AE1283167F491283542212
:103AB00074A3F0A37492F0E4FB7D1F7F011290AE1B
:103AC0002274A3F0A37492F0E4FB7D1F7F01129097
:103AD000AE227B01E4FDFC7F1F128354227B01E4B4
:103AE000FDFC7F49128354227B01E4FDFC7F1F1201
:103AF000835422E4FB7D1F7F011290AE22E4FB7D04
:103B00001F7F011290AE227B01E4FDFC7F491283EE
:103B100054227B01E4FDFC7F1F12835422E4FB7DD1
:103B2000497F011290AE227B01E4FDFC7F341283B9
:103B30005422E4FB7D497F011290AE227B01E4FD1B
:103B4000FC7F1F12835422E4FB7D347F011290AE70
:103B5000227B0F7D1F7F011290AE227B01E4FDFCD2
:103B60007F4912835422E4FB7D497F011290AE22EB
:0A3B70007B127D1F7F011290AE2230
:102C6E00900390E0FD900381E06DF56BA3E01229D7
:102C7E00DE2CA7112CCA222D0F312D80332DE734D7
:102C8E002E55412EE4912F0DA22F5AB12FCAB330DB
:102C9E0034B430AFC10000313B1282C08005C33363
:102CAE00CE33CED8F9FFEF5D600B1282AC1282D616
:102CBE007B0D022EFD7B057D0D022F061282C0803C
:102CCE0005C333CE33CED8F91282CD600B1282AC4F
:102CDE001282D612319880031231549003841282DC
:102CEE00C38005C333CE33CED8F91282CD600B121A
:102CFE0082AC1282D67B0D022F4A7B057D0D022FF0
:102D0E00531282C08005C333CE33CED8F91282CD92
:102D1E0060111282AC1282D67B077D257F01129044
:102D2E00AE80057D071231DE9003841282C38005CA
:102D3E00C333CE33CED8F91282CD600D1282AC12CF
:102D4E0082D67B151231B880031231A29003851200
:102D5E0082C38005C333CE33CED8F91282CD600B39
:102D6E001282AC1282D67B15022F4A7B057D15028C
:102D7E002F531282C08005C333CE33CED8F91282C0
:102D8E00CD600B1282AC1282D612319880031231B2
:102D9E00549003841282C38005C333CE33CED8F948
:102DAE001282CD600B1282AC1282D61231AE80032B
:102DBE001231609003851282C38005C333CE33CEA9
:102DCE00D8F91282CD600B1282AC1282D67B15021C
:102DDE002F4A7B057D15022F531282C08005C33307
:102DEE00CE33CED8F91282CD600B1282AC1282D6BF
:102DFE0012316C800312313C9003841282C3800521
:102E0E00C333CE33CED8F91282CD600D1282AC12FE
:102E1E0082D67D3A1231D680087D0D12831F128321
:102E2E00549003851282C38005C333CE33CED8F9B6
:102E3E001282CD600B1282AC1282D67B1502309FAD
:102E4E007B057D150230A81282C08005C333CE33B8
:102E5E00CED8F91282CD600B1282AC1282D612310C
:102E6E006C800312313C9003841282C38005C333FD
:102E7E00CE33CED8F91282CD600B1282AC1282D62E
:102E8E001231AE80031231609003851282C3800529
:102E9E00C333CE33CED8F91282CD60111282AC126A
:102EAE0082D67B157D107F011290AE80031231A267
:102EBE009003861282C38005C333CE33CED8F91267
:102ECE0082CD600B1282AC1282D67B15022F4A7B0A
:102EDE00057D15022F531282C08005C333CE33CE2B
:102EEE00D8F91282CD600D1282AC1282D67B107D83
:102EFE00250231307B057D107C007F250231381292
:102F0E0082C08005C333CE33CED8F91282CD600D88
:102F1E001282AC1282D67B101231B8800312317637
:102F2E009003841282C38005C333CE33CED8F912F8
:102F3E0082CD600D1282AC1282D67B107D3A0231A8
:102F4E00307B057D107C007F3A0231381282C080C2
:102F5E0005C333CE33CED8F91282CD60111282ACB6
:102F6E001282D67B087D257F011290AE80057D08EA
:102F7E001231DE9003841282C38005C333CE33CE6A
:102F8E00D8F91282CD600B1282AC1282D61231E8C1
:102F9E0080031231C09003851282C38005C333CEE5
:102FAE0033CED8F91282CD600D1282AC1282D67B4E
:102FBE00197D3A02313012831D0231381282C080DF
:102FCE0005C333CE33CED8F91282CD600D1282AC4A
:102FDE001282D67D101231D6800312317690038480
:102FEE001282C38005C333CE33CED8F91282CD60A0
:102FFE000B1282AC1282D61231CC800312318C901D
:10300E0003851282C38005C333CE33CED8F9128224
:10301E00CD600D1282AC1282D67B197D3A02313010
:10302E0012831D0231381282C08005C333CE33CED7
:10303E00D8F91282CD600B1282AC1282D612318276
:10304E0080031231489003841282C38005C333CEAD
:10305E0033CED8F91282CD60111282AC1282D67B99
:10306E00107D3A7F011290AE800B7B057D107C00A7
:10307E007F3A1283549003851282C38005C333CEE8
:10308E0033CED8F91282CD600D1282AC1282D67B6D
:10309E00197D100231307B057D197C007F100231C5
:1030AE00381282C08005C333CE33CED8F91282CD0A
:1030BE00600B1282AC1282D612318280031231481A
:1030CE009003841282C38005C333CE33CED8F91257
:1030DE0082CD600B1282AC1282D61231CC800312DA
:1030EE00318C9003851282C38005C333CE33CED884
:1030FE00F91282CD600B1282AC1282D61231E880A8
:10310E00031231C09003861282C38005C333CE33BF
:10311E00CED8F91282CD600F1282AC1282D67B19F4
:0D312E007D3A7F010290AE12831D12835482
:10313B00227B057D077C007F10128354227B057D4B
:10314B00087C007F10128354227B057D0D7C007F51
:10315B0010128354227B057D077C007F3A12835427
:10316B00227B077D107F011290AE227B057D107CA8
:10317B00007F10128354227B087D107F011290AECA
:10318B00227B057D087C007F3A128354227B0D7DC8
:10319B00107F011290AE227B057D157C007F1012F3
:1031AB008354227B077D3A7F011290AE227D107FE4
:1031BB00011290AE227B057D197C007F1012835487
:1031CB00227B087D3A7F011290AE227B0D7F01128C
:1031DB0090AE227B057C007F25128354227B197DC8
:0731EB00107F011290AE22DB
:10991600E4FF12A3B5900380E024FE6011047029D1
:109926001299501282AC74A3F0A37484800C12991D
:10993600501282AC74A3F0A37487F0E4FB7D017F20
:10994600011290AE7FFF12A72E227F0312A72E7F51
:059956000412A72B2202
:10A29D00E4FF12A3B5900388E030E1127B017A034D
:10A2AD0079881231F27B017A037988126B7612A6C6
:06A2BD00F7E4FF029D62C0
:1016F80000000000000000000000000000000000E2
:1017080000000000000000000000000000000000D1
:10171800003E007E00FE01CE038E7F8E7F8E738E8C
:10172800738E738E7F8E7F8E01CE00FE007E003E0C
:1017380000000000020006000E001E003FFE7FFEB3
:101748007FFE3FFE1E000E000600020000000000A3
:101758000000000000400060007000787FFC7FFE01
:101768007FFE7FFC007800700060004000000000F1
:10177800000003C003C003C003C003C003C003C00C
:1017880003C03FFC1FF80FF007E003C00180000012
:1017980003C003C007E007E00E700E701C381C3849
:1017A800381C381C7FFE7FFE700E700E700E700E97
:1017B8007FF87FFC383E381E381E381E383C3FF80C
:1017C8003FF8383C381E381E381E383E7FFC7FF8FC
:1017D8000FF81FFC3C1C380E780E700E700070005D
:1017E80070007000700E700E380E3C1C1FFC0FF855
:1017F8007FF07FF07078703C703C703C70787FF0C0
:101808007FE0778073C071E070F07078703C701E74
:1018180000006006700E781E7C3E7FFE77EE73CE69
:10182800718E700E700E700E700E700E700E700E3F
:1018380000001FF81FF800E000E000E000E000E012
:1018480000E000E000E070E079E03FC01F800F009A
:1018580000000000000003C007800F001E003FFCCE
:101868003FFC1E000F00078003C0000000000000BE
:1018780000000000000003C001E000F000783FFC19
:101888003FFC007800F001E003C000000000000009
:1018980000000000018001800180018011881998F2
:1018A8001DB81FF80FF007E003C00180000000001A
:1018B800003E007E00FE01CE038E7F8E7F8E738EEB
:1018C800738E738E7F8E7F8E01CE00FE007E003E6B
:1018D800700E700E700E700E700E700E781E381C22
:1018E800381C1C381C380E700FF007E003C001804C
:1018F8000000380038003800380038003800380058
:1019080038003800380038063806380E3FFE3FFEEB
:101918000000000000000000000003800FE01C70C1
:10192800183038383838383818301C700FE00380D1
:101938000000000000000000000003C00FF01C3889
:101948001C000F0007E000F000381C380FF003C03F
:10195800000000000000000000000000000000007F
:10196800000000000000000000000000000000006F
:10197800000000000000000000000000000000005F
:10198800000000000000000000000000000000004F
:10199800000000000000000000000000000000003F
:1019A800000000000000000000000000000000002F
:1019B800000000000000000000000000000000001F
:1019C800000000000000000000000000000000000F
:1019D80000000000000000000000000000000000FF
:1019E80000000000000000000000000000000000EF
:1019F80000000000000000000000000000000000DF
:101A080000000000000000000000000000000000CE
:101A180000000000000000000000000000000000BE
:101A280000000000000000000000000000000000AE
:101A3800000000000000000000000000000000009E
:101A4800000000000000000000000000000000008E
:101A5800000000000000000000000000000000007E
:101A6800000000000000000000000000000000006E
:101A7800000000000000000000000000000000005E
:101A8800000000000000000000000000000000004E
:101A9800000000000000000000000000000000003E
:101AA800000000000000000000000000000000002E
:101AB800000000000000000000000000000000001E
:101AC800000000000000000000000000000000000E
:101AD80000000000000000000000000000000000FE
:101AE80000000000000000000000000000000000EE
:101AF80000000000000000000000000000000000DE
:101B080000000000000000000000000000000000CD
:101B1800000007000F800F800F800F80070007006C
:101B28000700020002000000020007000700020090
:101B38000000EE006600440088000000000000007D
:101B4800000000000000000000000000000000008D
:101B5800000008200820082008203FF80820082056
:101B68000820082008203FF808200820082008201E
:101B780000000FC01B603330333033001B000F00F0
:101B880003C0036013303B3033301B600FC00300C9
:101B980000003808441084200440048009001270B2
:101BA800E4880908120822084210822001C00000B7
:101BB80000000E001B00318031801B000E001C004D
:101BC8003678632061A060E0606030F01F9C000000
:101BD80000000000000000000000000000000000FD
:101BE800000000000000800060007000380018004D
:101BF8000000000400080018001000300030003019
:101C08000030003000300010001800080004000206
:101C180000008000400060002000300030003000EC
:101C280030003000300020006000400080000000DC
:101C3800000002004210222012400A800700FFFC28
:101C480007000A8012402220421002000200000011
:101C580000000000030003000300030003007FF8F6
:101C68007FF80300030003000300030000000000E6
:101C7800000000000000000000000000000000005C
:101C8800000018003C003C00180010002000400034
:101C980000000000000000000000000000007FF8C5
:101CA8007FF80000000000000000000000000000B5
:101CB800000000000000000000000000000000001C
:101CC8000000000000007800840084008400780090
:101CD800000000180030006000C00180030006000A
:101CE8000C00180030006000C000800000000000F8
:101CF80000000FE0183030183038307830D831987C
:101D0800331836183C183818301818300FE000000F
:101D18000000030007000F00030003000300030096
:101D28000300030003000300030003001FE000009A
:101D380000000FE01830301830183038007001C03B
:101D480003000E001800300830083FF83FF8000084
:101D5800000007C0183030183018003000E003C009
:101D680000E00030001830183018183007C00000A4
:101D7800000000C001C003C006C00CC018C030C0BD
:101D880060C0C0C0C0C0FFF800C000C003F00000C1
:101D980000003FF03FF030003000300037C03830EE
:101DA80030180018001830183018183007C0000014
:101DB800000007E01830303030003000300037E0E5
:101DC8003830301830183018301818300FC000006C
:101DD80000003FF83FF8201820180030006000C0CD
:101DE8000180030003000300030003000300000058
:101DF80000000780186030303030303018600FC075
:101E08001860303060186018601830300FC000005B
:101E1800000007801860303030183018301830381B
:101E2800187807980018303038301860078000009C
:101E3800000000000000000003000780030000000D
:101E480000000300078003000000000000000000FD
:101E580000000000000000000300078003000000ED
:101E680000000300078003800180070000000000D5
:101E780000000000001800600180060018006000E3
:101E88008000600018000600018000600018000053
:101E9800000000000000000000007FF87FF800004C
:101EA80000007FF87FF8000000000000000000003C
:101EB8000000800060001800060001800060001823
:101EC800000400180060018006001800600080000F
:101ED800000007800FC01CE038E038E011C0018026
:101EE80003000300020002000000020007000700D0
:101EF80000000FC030604010478888C890C890C85C
:101F080090C890C888D84770400830700FC000004B
:101F1800000003000300078007800CC00CC0186095
:101F280018601FE03030303060186018F03C000056
:101F380000003F80186018301830183018601FC033
:101F48001860183018181818181818303FC00000F2
:101F58000000078818683038601860086000600062
:101F6800600060006008601830301860078000006A
:101F780000007F8030E030383018301830183018C2
:101F88003018301830183018303030E07F800000BA
:101F980000003FF0183018101800188018801F80B3
:101FA8001880188018001800181018303FF000002A
:101FB80000003FF0183018101800188018801F8093
:101FC8001880188018001800180018003C0000003D
:101FD80000000F90187030306010601060006000D2
:101FE8006078603060306030307018F00FB00000FA
:101FF80000007878303030303030303030303FF0DA
:102008003030303030303030303030307878000098
:1020180000000FC0030003000300030003000300D7
:102028000300030003000300030003000FC00000C7
:10203800000001F000600060006000600060006067
:10204800006000603060306030E019C00F000000B0
:10205800000078F8306030C03180330036003C0032
:102068003E003300318030C030603030787C000072
:1020780000003C001800180018001800180018008C
:102088001800180018001808181818383FF8000029
:102098000000E03CE038F078F078D8D8D8D8C89874
:1020A800CD98CD98C518C718C218C018E07C000094
:1020B8000000C078E030F030F830DC30CE30C73087
