:03000000026DA1ED
:0C6DA100787FE4F6D8FD758130026DE8C3
:0B832500E02493F582E43402F583228B
:1081E000C2BCD2AC759852758DFAE4F58BD28E90E4
:0681F00002F7F0A3F022EB
:108294009002F7E0FFA3E0B507037F00227F0122ED
:1081AE009002F7128325E0FF9002F7E004F0E0C39F
:0881BE0094644002E4F0D2AC2D
:0181C6002296
:080003003099FD8F99C299228A
:03002300027EEA70
:107EEA00C0E0C083C082C0D0309819C2989002F80E
:107EFA00128325E599F09002F8E004F0E0C3946457
:0D7F0A004002E4F0D0D0D082D083D0E0322D
:107CFD00E0F580D2A3E490033BF0A3F022C3900300
:107D0D003BE094002290033BE004F0229001E4E07C
:107D1D00FBA3E0FAA3E0F922EDF0A3EBF0E4FFC240
:0C7D2D00AF22D2B6D2B77580FFD2AF22D1
:1073AC0090020E127D2512836790020EE0FF70068C
:1073BC00C2B7C2B68012EFB40106C2B7D2B680080B
:1073CC00EFB40204D2B7C2B690020F127CFD127D4C
:1073DC000A500BA3E004F070F5127D1280F0C2A3EA
:1073EC00900210E0F580C2A1127D02127D0A500BB2
:1073FC00A3E004F070F5127D1280F0D2A112836725
:04740C00127D2F229C
:106F3B009001D8127D251283679001D8E0FF70066F
:106F4B00C2B7C2B68012EFB40106C2B7D2B6800880
:106F5B00EFB40204D2B7C2B69001D9E0FF04F08FB0
:106F6B0080127D00127D0A500BA3E004F070F51225
:106F7B007D1280F0C2A39001DAE0FBA3E475F0016F
:106F8B00122B41A9F0FA122A6CF580C2A1127D02D4
:106F9B00127D0A500BA3E004F070F5127D1280F005
:106FAB00D2A19001DDE014F070AE128367127D2F39
:016FBB0022B3
:0B6E2D00900209EFF0A3EDF0A3EBF0E2
:106E3800C2AF128367E4900209F0A3E0FF7006C2B4
:106E4800B7C2B68012EFB40106C2B7D2B68008EF57
:106E5800B40204D2B7C2B690020B127CFD127D0AAE
:106E6800500BA3E004F070F5127D1280F0C2A375F8
:106E780080FF127D02127D0A500BA3E004F070F52A
:106E8800127D1280F0C2A290020CE580F0127D0201
:106E9800127D0A500BA3E004F070F5127D1280F009
:106EA800D2A2128367D2B6D2B7D2AF90020CE0FF5B
:016EB80022B7
:107763009001E4EBF0A3EAF0A3E9F0127D19122BE8
:1077730057F47003E5F0F46038122B57FBAAF0EAD4
:10778300FDE4FF126E2D127D19900002122A85FC72
:107793006F6012122B57FBAAF0EAFD900210ECF077
:1077A300E4FF1273AC9001E5E475F003122B2B8018
:0277B300BA22F8
:0100290022B4
:1071280025627820256278202562782025627820DB
:107138000025626420002562782025627820636833
:107148002562783A2562782063682562783A256254
:10715800782063682562783A25627820636825621A
:10716800783A2562782000627573770079766D69C0
:1071780078006873636F6D006D6F64650037003861
:10718800003031323334353637383941424344459B
:027198004600AF
:0455E60041035A0023
:106EB90012002A9001D5E0FBA3E0FAA3E0F922A38E
:106EC900F0A37401F0A322FFE0244BF582E434031C
:106ED900F583EFF022E0FF9001E17401F0A3740360
:106EE900F0A37447F07B017A03794222EBF0A3EA1D
:106EF900F0A3E9F022A3F0A3E4F0A322900001E4B7
:106F090075F001022B829001E074FFF0A322A3F037
:106F1900A3E4F0A322E05401FB7D2022250BF50B0D
:106F2900A3E0540322122DD4022A6CA3F0A3E4F0A7
:026F3900A32291
:10719A009001E3126EF5A3126EBF126F2E7002FFFA
:1071AA00229001E6126EBF126F2EB4200B9001E6F8
:1071BA00126EBF126F0580E99001E6126EBF122DA2
:1071CA00D4C003C002C0019001E3126EBF122DF4B5
:1071DA0080239001E6126EBF126F2EFEB42010E4D7
:1071EA00122AB29001E6126EBF126F057F0122EEDB
:1071FA0070037F01229001E6126EBF126F0580D2E2
:067CC0009001DD126EF5DB
:107CC600E4F508F5099001DD126EBF122A6C6022F8
:107CD6009001DDA3E475F001122B41A9F0FA122AF6
:107CE6006CFF3395E0FEEF2509F509EE3508F5083A
:067CF60080D3AE08AF09C7
:017CFC002265
:01002A0022B3
:107A5D00E4F50B900342E05403126F2525E025E079
:107A6D00126F25C454F0126F25C4333354C0250B47
:107A7D00F50B900341E0B5070D900346E0B50B06FD
:107A8D00E4900351F0229003517401F0900346E508
:077A9D000BF0900341EFF034
:017AA40022BF
:10780500E4F508F509F50AF50BC003C002126F0F80
:107815007471F07428126EFE7400F07408126EFE16
:107825007400F07409126F177400F0740A126F1760
:107835007400F0A3740BF0D002D003123F869002BF
:0D78450010E50BF0AB0AAD09E4FF0273ACD7
:10817A00126F0F7471F07439126F347400F0A374B3
:0A818A0008F0123F86AF08028221C0
:067347009001DD126EF55D
:10734D00127391126EBF12656D8F08127391126ECA
:10735D00BF12656D8F097F041200267F031283987B
:10736D007F0512813E9001DDE0F9A3E0FAA3E090E4
:10737D0001E6C9126EF6AB09AD087F011275FD7FEE
:04738D0005027DE692
:107391009001E67401F0A37401F0A374DDF07B01A8
:0B73A1007A0179E012719A9001E0225D
:1058A900C003C002C001126F0F7471F0743E126F11
:1058B900347400F0A37409F0A3E4F0A37400F07445
:1058C9000A126EC87403F07442126EC87403F0A30E
:1058D9007447126EC97403F0A37443126EC974033A
:1058E900F0A37448126EC97403F0A37444126EC90C
:1058F9007403F0A37449126EC97403F0A3744512BA
:105909006EC97403F0A3744AF0D001D002D0031217
:105919003F86E509C454F0FF90033EE0FEC43333EB
:105929003354802FFFE50A540F2F900350F0900352
:1059390047E0900342126ED0900348E0900343126F
:105949006ED0900349E0FF900344126ED190034A50
:10595900E0FF900345126ED190034B126F1EE4FFD6
:10596900127C0190034C126F1E7F01127C0190037F
:105979004D126F1E7F02127C0190034E126F1E7F23
:1059890003127C017B017A03794B1259FF90035072
:10599900126EDE124594900350E0FF126EEE124E25
:1059A90030E4F50874472508F582E43403F58312D9
:1059B9006F1EAF08127D740508E508C3940440E41E
:1059C900E4F525F526F5277528057F0112833A9018
:1059D9000350E0FF127A5D7F08127E52E4FF1281C4
:1059E90094127B347B017A037947123B8F900350E1
:0559F900E090035AF0EC
:0159FE002286
:10727700E4FF12789EEFB40202C32290033EE0B50A
:107287000702D32290033EEFF0E0C4333333548038
:10729700FF900341E0547F4FF07F01127DE690039A
:1072A7003EE0FF1274107B017A03794B1259FF906D
:1072B7000341126EDE124594900341E0FF126EEE19
:1072C700124E30E4FF128194127B347B017A0379EA
:0872D70047123B8F128094D393
:0172DF00228C
:1081F600126F0F7471F0A37439126EC97403F0A371
:06820600743FF0023F8608
:065FCA009001D5126EF5F6
:105FD0009001E67401F0A37401F0A374D5F07B0185
:105FE0007A0179DA12719A9001DA126EBF127CC0CE
:105FF0009001D8EEF0A3EFF07A71796F1260B4B52A
:10600000060EA3E0B50709126EBC1278050260B156
:106010007A7179741260B4B5060EA3E0B50709125F
:106020006EB912817A0260B17A71797A1260BEB566
:106030000616A3E0B50711126EB91258A912809482
:10604000E4FF12833A0260B17A7179801260BEB5C2
:10605000060DA3E0B50708126EB91281F680527AD8
:106060007179851260C8E0B5060FA3E0B5070A9004
:10607000027CE0900291F080387A7179871260C8D2
:10608000E0B50612A3E0B5070D127E8690027CE013
:10609000FF127F17801B7BFF7A717989127CC09079
:1060A00001D8E0B5060BA3E0B50706126EBC12736B
:0360B000477F0126
:1060B300227BFF127CC09001D8E0227BFF127CC0C0
:0E60C3009001D8E0227BFF127CC09001D82211
:104C5D00FFF3EDE8E2DE62757377203020312041FD
:104C6D00312031316275737720302031204132206F
:104C7D00443779766D69782034206D6F6465203006
:104C8D00206873636F6D20312031206368303A31B5
:104C9D0030206368313A3030206368323A3030204A
:104CAD006368333A3030206873636F6D2031203183
:104CBD00206368323A3130206368313A30302063F6
:104CCD0068303A3030206368333A3030206873638F
:104CDD006F6D20312031206368313A3130206368A7
:104CED00303A3030206368323A3030206368333ADE
:104CFD003030206873636F6D20322032206368324C
:104D0D003A3130206368303A3130206368313A30BF
:104D1D0030206368333A3030206873636F6D203212
:104D2D002032206368303A3130206368323A3130B6
:104D3D00206368313A3030206368333A3030206870
:104D4D0073636F6D20322032206368313A31302029
:104D5D006368303A3130206368323A30302063680E
:104D6D00333A3030206873636F6D20322032206308
:104D7D0068303A3130206368313A3130206368321F
:104D8D003A3030206368333A3030206873636F6D8A
:104D9D0020322032206368313A3130206368323A54
:104DAD003130206368303A3030206368333A303028
:104DBD00206873636F6D20322032206368323A3180
:104DCD0030206368313A3130206368323A30302018
:104DDD006368333A3030206873636F6D203320334E
:104DED00206368303A3130206368313A31302063C6
:104DFD0068323A3130206368333A3030206873635B
:104E0D006F6D20312031206368333A303020636874
:104E1D00313A3030206368323A3030206368303AAE
:034E2D0030302002
:1055EA00C124440334000000004103380041033958
:1055FA0000410333014103320241033001410331C7
:10560A000041032700420328000042032A00004207
:10561A00032C000042032E00004102FB014102FA62
:09562A000041033A004102F900BD
:1068BC007D017BFF7E007F26022A46900219E0FEB6
:1068CC0074112FF582E43402F5832274DF2FF582E4
:1068DC00E43401F583E02278FC7C027D017B01220B
:1068EC00900006E0FAA3E0FB7C00FFAE02022AD681
:1068FC007C00AF03AE02122AD6900006ECF0A3ED9A
:10690C00F0227D017BFF7E007F0E022A46E4F0A37D
:10691C00F0A3F0A3227D017BFF7E00022A46E5084E
:10692C00F090027AE004F022900009E0F8A3E0F97C
:10693C00A3E0FAA3E0FB22E412283B900009022D0D
:10694C0057F0A37420F0A37403F0E4A3F022900298
:10695C004AE0900333229002117402F0A37432F0D7
:10696C00A32234FFFE7C007D06022AD690027AE038
:03697C00241122C1
:10664800128294EF6401600302671743E11012811C
:10665800AE8F08E508B40218900248E07012900264
:106668007A04F0900211E508F09002487401F022D3
:10667800E5086403702A900212E0FF64526004EF98
:10668800B4531D9002F9E0701790027AE0FFD3949A
:1066980003500D9002F97401F01268CC12692A2295
:1066A800E508B4031B90024CE07015126978126873
:1066B800CF12692A90024C7401F0E49002F9F0229A
:1066C80090024CE0640170351269781268CFE508D1
:1066D800F07B017A027911124A79EF602F90032634
:1066E8007401F0900212E09002FCF0E4A3F0900232
:1066F80013E090027CF09003257402F0221269786E
:106708001268CF12692AE0D39408400A02806EE426
:0667180090032EF0A3F037
:01671E002258
:10806E00E4900248F090024CF090027AF0900211E7
:10807E0012691A12691AF0A3F0A3F0900325F0A367
:06808E00F09002FCF0225C
:09833A00EF6003C20122D201220E
:0C831900C200C201C223E490035CF02209
:0877B5009001D5EEF0A3EFF006
:1077BD009001D5E07002A3E0603DE49001D7F0A305
:1077CD00F09001D7E0FEA3E0FFE4FCFD7B1BFAF98E
:1077DD00F8D3122D1940109001D8E004F070E2900A
:1077ED0001D7E004F080DA9001D6E024FFF090019B
:0777FD00D5E034FFF080B974
:017804002261
:1051750090000012691974C8F0A37464F0E4A3F0F8
:1051850012797F1282B412831912806EE4FF1282A3
:10519500A4126FBC7F4D1242579003307402F07F0A
:1051A5004D124257E4900330F01274D8752B0075F8
:1051B5002C28752D01752EE09003287401F0A37439
:1051C500E0F0752F00753004A37407F0A304F07F99
:1051D5009812838CEF5410FFC4540F900005F01201
:1051E5006648900326E0B401097B017A0279FC1236
:1051F5005FCA900326E0B4010312806E30230712C4
:1052050072775002C223128294EF6009900003E086
:10521500752700F528E52864014527700DF527F564
:1052250028900004E0752500F526E526640145254E
:10523500701E900248E07018127AED900291E0FF1E
:1052450090028FE06F600312425775250075261492
:10525500E5306401452F7019900254E0C394014074
:1052650010900240E0B40109752F007530041260FA
:10527500D1E52C6401452B703C900254E0703690CA
:105285000240E0B4012F900327E0FF74017E00A8DF
:1052950007088005C333CE33CED8F9FF127D399088
:1052A5000327E004F0752B00752C28E0C394064015
:1052B50007E4F08003127EB8900328E07004A3E0B1
:1052C5006401700F900234F0A3F090032804F0A35A
:1052D50074E0F090032AE07004A3E0640170169076
:1052E5000240E0B4010F900005E0FF127A13E4904C
:0B52F500032AF0A3F043E1100251E493
:10797F00E4F5B8F5A8F58775E127F5D0758922F5F7
:10798F00881281E012834312815DE4F58EF5A2D255
:10799F0099D2AF00F593F5944391035392FCF5956B
:1079AF00F596F5B1F5B2F5B375B404C2E9C292C25A
:0A79BF0093C294C295C296C29722AB
:0867EE009001DDEFF0A3EDF0D6
:1067F60078DF7C017A4C795D7F061269219001DD94
:10680600E014603014604714605E14607514700301
:106816000268A2240560030268BBE4F5EA9001DE83
:10682600E0FF7004F5DA800375DA421268D7F5FAEC
:10683600E4F5F222E4F5EB9001DEE0FF7004F5DB0F
:10684600800375DB421268D7F5FBE4F5F322E4F525
:10685600EC9001DEE0FF7004F5DC800375DC42128B
:1068660068D7F5FCE4F5F422E4F5ED9001DEE0FFEF
:106876007004F5DD800375DD421268D7F5FDE4F599
:10688600F522E4F5EE9001DEE0FF7004F5DE80030C
:1068960075DE421268D7F5FEE4F5F622E4F5EF90D0
:1068A60001DEE0FF7004F5DF800375DF421268D772
:0568B600F5FFE4F5F719
:0168BB0022BA
:0F82B400E4F5E9F5F975D90475D84043A68022A1
:05425700900006EFF0ED
:10425C0078077C007A4C796312690E78157C007AA9
:10426C004C797112690E78237C007D017BFF7A4CAE
:10427C00797F7E007F08122A46782B7C007A4C7955
:10428C00877F0712692178327C007A4C798E12680C
:10429C00BC78587C007A4C79B41268BC787E7C006F
:1042AC007D017BFF7A4C79DA1268C078A47C007DA2
:1042BC00017BFF7A4D79001268C078CA7C007D01C1
:1042CC007BFF7A4D79261268C078F07C007D017BEB
:1042DC00FF7A4D794C1268C078167C017D017BFF0A
:1042EC007A4D79721268C0783C7C017D017BFF7A33
:1042FC004D79981268C078627C017D017BFF7A4D04
:10430C0079BE1268C078887C017D017BFF7A4D797B
:10431C00E41268C078AE7C017D017BFF7A4E790A8D
:10432C001268C0E49001D4F0900006E0FE24B6FFC1
:10433C00C3940A400674FC2FFF8005E490027DF0C4
:10434C0090028FEEF0EFB40800506290435EF828B4
:10435C00287302437602437B024382024388024362
:10436C008F02439D0243A90243B19003398041E47B
:10437C00900339F0803DE490024B801990024B740D
:10438C0001801290024A7401F09003337404F0809F
:10439C0022E490024AF090033304F0801690027DE0
:1043AC007414F0800E90027D7441F08006900333FB
:1043BC007401F090027DE0FFC39401400890033833
:1043CC00EFF0024452900339E06401704990024BC3
:1043DC00E0601B12695AB4010B7402F09003327442
:1043EC0004F080237402F090033214F080191269E7
:1043FC005AB4010B7404F09003327402F080087408
:10440C0001F090033204F0900333E0C454F0FF90B9
:10441C000332E04F802C90024BE060059003338018
:10442C000C12695AB4010B7404F09003327402F04C
:10443C0080087401F090033204F0900333E0FFC461
:10444C0054F0900338F0900330E0B4020612456D3E
:10445C007F0022900330E06024127BBE12456D1267
:10446C0068E37A00791512691212458A1268E37AA8
:10447C0000792B7E007F07122A4612458A9003385A
:10448C00E0122E4344AF1044D51244D91444B12049
:10449C0044D72144EB2444BA4044E24144D5420081
:1044AC000044FD80091268E37A007958800712688D
:1044BC00E37A0079321268C09002107403F07B0F1B
:1044CC007D01E4FF1273AC8032801D80121268E310
:1044DC007A0079F080221268E37A01791680191239
:1044EC0068E37A0079CA80101268E37A0079A480B4
:1044FC00071268E37A0079321268C0E4900330F056
:10450C007B017A0279FC125FCA900338E0122E43C9
:10451C00453B10454512454D14453D204549214527
:10452C005824454140455141455C42000045678057
:10453C0000E4FF8012E4FF80197F01800A7F018074
:10454C00067F0180027F011270B5800F7F0180020F
:10455C007F011270B59001D47401F09001D4E0FF8A
:10456C002278FC7C027D017B017A0079077E007F3A
:10457C000E122A467B017A0279FC125FCA227B0159
:08458C007A0279FC125FCA22D9
:027F1700AB07B6
:107F1900E4FFFEEBC3943D4021EBD39461501BEB8E
:107F290024C3FFEE12696EAA07EB24C3FFE41269AA
:0A7F39006EAE05AF021267EE7F0185
:017F4300221B
:10765B00E4FBFAFD7F90127C41EEC4F854F0C8684D
:10766B00FEEFC4540F48FFEEC4F854F0C868FAEFAD
:10767B00C4540F48FB2091047A007B637C007D0A85
:10768B00AF03AE02122AD6D3ED9409EC9400500747
:10769B00ED2430900227F0AE02AF037C007D0A127E
:0976AB002AD6EF243090022CF0E5
:0176B40022B3
:1062BE00900006126919122D6300000000E4FF120F
:1062CE00811E900006EEF0A3EFF0E024E1F09000C6
:1062DE0006E034FFF0E0FCA3E0FD1269437F007E90
:1062EE00807D8C7CC312693412259F7B007A807965
:1062FE008C78431227997B9A7A9979CA784212261A
:10630E0090126947E4FFFE7D207C4112693412260B
:10631E0090122874AD07AC061269051269439000FD
:10632E0006E0FEA3E0FFC394EBEE94034015D3EF1B
:10633E0094FFEE9403500C9000067403F0A374F5D2
:10634E00F08013D3EF940FEE9427400A900006745A
:10635E0027F0A3740FF0900006E0FAA3E0FB7C0395
:10636E007DE81268F6EF2430900221F07C037DE880
:10637E001268FE7D641268ECEF2430900220F07DEE
:10638E00641268FC7D0A1268ECEF243090021FF054
:0B639E007D0A1268FC243090021EF003
:0163A90022D1
:10770E001269627450F0A37430F0A37461F0A37424
:10771E003912694D90000CF090000CE0FFD39407E5
:10772E0050131268C7E0FFEE6F900219F090000C34
:10773E00E004F080E3E490000CF090000CE0FFD346
:10774E00940850101268CCE0FF12000390000CE079
:04775E0004F080E6CD
:017762002204
:10753B00126962744FF0900245E0900214F09002D1
:10754B0046E0900215F0900247E090021612694D4A
:10755B0090000CF090000CE0FFD3940750131268CE
:10756B00C7E0FFEE6F900219F090000CE004F08082
:10757B00E3E490000CF090000CE0FFD39408501063
:10758B001268CCE0FF12000390000CE004F080E6E0
:01759B0022CD
:10002E001010FFFFFFFFFFFFFFFFFFFFFFFFFFFFB0
:10003E00FFFFFFFFFFFFFFFFFFFFFFFFFFFFFFFFC2
:10004E00FFFFFFFFFFFFFFFFFFFFFFFFFFFFFFFFB2
:10005E00FFFFFFFFFFFFFFFFFFFFFFFFFFFFFFFFA2
:10006E00FFFFFFFFFFFFFFFFFFFFFFFFFFFFFFFF92
:10007E00FFFFFFFFFFFFFFFFFFFFFFFFFFFFFFFF82
:10008E00FFFFFFFFFFFFFFFFFFFFFFFFFFFFFFFF72
:10009E00FFFFFFFFFFFFFFFFFFFFFFFFFFFFFFFF62
:1000AE00FFFFFFFFFFFFFFFFFFFFFFFFFFFFFFFF52
:1000BE00FFFFFFFFFFFFFFFFFFFFFFFFFFFFFFFF42
:1000CE00FFFFFFFFFFFFFFFFFFFFFFFFFFFFFFFF32
:1000DE00FFFFFFFFFFFFFFFFFFFFFFFFFFFFFFFF22
:1000EE00FFFFFFFFFFFFFFFFFFFFFFFFFFFFFFFF12
:1000FE00FFFFFFFFFFFFFFFFFFFFFFFFFFFFFFFF02
:10010E00FFFFFFFFFFFFFFFFFFFFFFFFFFFFFFFFF1
:10011E00FFFFFFFFFFFFFFFFFFFFFFFFFFFFFFFFE1
:10012E00FFFF1010FFFFFFFFFFFFFFFFFFFFFFFFAF
:10013E00FFFFFFFFFFFFFFFFFFFFFFFFFFFFFFFFC1
:10014E00FFFFFFFFFFFFFFFFFFFFFFFFFFFFFFFFB1
:10015E00FFFFFFFFFFFFFFFFFFFFFFFFFFFFFFFFA1
:10016E00FFFFFFFFFFFFFFFFFFFFFFFFFFFFFFFF91
:10017E00FFFFFFFFFFFFFFFFFFFFFFFFFFFFFFFF81
:10018E00FFFFFFFFFFFFFFFFFFFFFFFFFFFFFFFF71
:10019E00FFFFFFFFFFFFFFFFFFFFFFFFFFFFFFFF61
:1001AE00FFFFFFFFFFFFFFFFFFFFFFFFFFFFFFFF51
:1001BE00FFFFFFFFFFFFFFFFFFFFFFFFFFFFFFFF41
:1001CE00FFFFFFFFFFFFFFFFFFFFFFFFFFFFFFFF31
:1001DE00FFFFFFFFFFFFFFFFFFFFFFFFFFFFFFFF21
:1001EE00FFFFFFFFFFFFFFFFFFFFFFFFFFFFFFFF11
:1001FE00FFFFFFFFFFFFFFFFFFFFFFFFFFFFFFFF01
:10020E00FFFFFFFFFFFFFFFFFFFFFFFFFFFFFFFFF0
:10021E00FFFFFFFFFFFFFFFFFFFFFFFFFFFFFFFFE0
:10022E00FFFFFFFF1010FFFFFFFFFFFFFFFFFFFFAE
:10023E00FFFFFFFFFFFFFFFFFFFFFFFFFFFFFFFFC0
:10024E00FFFFFFFFFFFFFFFFFFFFFFFFFFFFFFFFB0
:10025E00FFFFFFFFFFFFFFFFFFFFFFFFFFFFFFFFA0
:10026E00FFFFFFFFFFFFFFFFFFFFFFFFFFFFFFFF90
:10027E00FFFFFFFFFFFFFFFFFFFFFFFFFFFFFFFF80
:10028E00FFFFFFFFFFFFFFFFFFFFFFFFFFFFFFFF70
:10029E00FFFFFFFFFFFFFFFFFFFFFFFFFFFFFFFF60
:1002AE00FFFFFFFFFFFFFFFFFFFFFFFFFFFFFFFF50
:1002BE00FFFFFFFFFFFFFFFFFFFFFFFFFFFFFFFF40
:1002CE00FFFFFFFFFFFFFFFFFFFFFFFFFFFFFFFF30
:1002DE00FFFFFFFFFFFFFFFFFFFFFFFFFFFFFFFF20
:1002EE00FFFFFFFFFFFFFFFFFFFFFFFFFFFFFFFF10
:1002FE00FFFFFFFFFFFFFFFFFFFFFFFFFFFFFFFF00
:10030E00FFFFFFFFFFFFFFFFFFFFFFFFFFFFFFFFEF
:10031E00FFFFFFFFFFFFFFFFFFFFFFFFFFFFFFFFDF
:10032E00FFFFFFFFFFFF1010FFFFFFFFFFFFFFFFAD
:10033E00FFFFFFFFFFFFFFFFFFFFFFFFFFFFFFFFBF
:10034E00FFFFFFFFFFFFFFFFFFFFFFFFFFFFFFFFAF
:10035E00FFFFFFFFFFFFFFFFFFFFFFFFFFFFFFFF9F
:10036E00FFFFFFFFFFFFFFFFFFFFFFFFFFFFFFFF8F
:10037E00FFFFFFFFFFFFFFFFFFFFFFFFFFFFFFFF7F
:10038E00FFFFFFFFFFFFFFFFFFFFFFFFFFFFFFFF6F
:10039E00FFFFFFFFFFFFFFFFFFFFFFFFFFFFFFFF5F
:1003AE00FFFFFFFFFFFFFFFFFFFFFFFFFFFFFFFF4F
:1003BE00FFFFFFFFFFFFFFFFFFFFFFFFFFFFFFFF3F
:1003CE00FFFFFFFFFFFFFFFFFFFFFFFFFFFFFFFF2F
:1003DE00FFFFFFFFFFFFFFFFFFFFFFFFFFFFFFFF1F
:1003EE00FFFFFFFFFFFFFFFFFFFFFFFFFFFFFFFF0F
:1003FE00FFFFFFFFFFFFFFFFFFFFFFFFFFFFFFFFFF
:10040E00FFFFFFFFFFFFFFFFFFFFFFFFFFFFFFFFEE
:10041E00FFFFFFFFFFFFFFFFFFFFFFFFFFFFFFFFDE
:10042E00FFFFFFFFFFFFFFFF1010FFFFFFFFFFFFAC
:10043E00FFFFFFFFFFFFFFFFFFFFFFFFFFFFFFFFBE
:10044E00FFFFFFFFFFFFFFFFFFFFFFFFFFFFFFFFAE
:10045E00FFFFFFFFFFFFFFFFFFFFFFFFFFFFFFFF9E
:10046E00FFFFFFFFFFFFFFFFFFFFFFFFFFFFFFFF8E
:10047E00FFFFFFFFFFFFFFFFFFFFFFFFFFFFFFFF7E
:10048E00FFFFFFFFFFFFFFFFFFFFFFFFFFFFFFFF6E
:10049E00FFFFFFFFFFFFFFFFFFFFFFFFFFFFFFFF5E
:1004AE00FFFFFFFFFFFFFFFFFFFFFFFFFFFFFFFF4E
:1004BE00FFFFFFFFFFFFFFFFFFFFFFFFFFFFFFFF3E
:1004CE00FFFFFFFFFFFFFFFFFFFFFFFFFFFFFFFF2E
:1004DE00FFFFFFFFFFFFFFFFFFFFFFFFFFFFFFFF1E
:1004EE00FFFFFFFFFFFFFFFFFFFFFFFFFFFFFFFF0E
:1004FE00FFFFFFFFFFFFFFFFFFFFFFFFFFFFFFFFFE
:10050E00FFFFFFFFFFFFFFFFFFFFFFFFFFFFFFFFED
:10051E00FFFFFFFFFFFFFFFFFFFFFFFFFFFFFFFFDD
:10052E00FFFFFFFFFFFFFFFFFFFF1010FFFFFFFFAB
:10053E00FFFF00000000FFFFFFFFFFFFFFFFFFFFB9
:10054E00FF000000000000FFFFFFFFFFFFFFFFFFA7
:10055E000000020202020000FFFFFFFFFFFFFFFF8D
:10056E000000020202020000FFFFFFFFFFFFFF007C
:10057E00000202000002020000FFFFFFFFFFFF006B
:10058E00000202000002020000FFFFFFFFFF00005A
:10059E0002020000000002020000FFFFFFFF000049
:1005AE00020200FFFF0002020000FFFFFF00000238
:1005BE00020000FFFF000002020000FFFF00000229
:1005CE000200000000000002020000FF0000020214
:1005DE0002020202020202020202000000000202F5
:1005EE0002020202020202020202000000000202E5
:1005FE0000000000000000000202000000000202E5
:10060E000000FFFFFFFF00000202000000000202D8
:10061E000000FFFFFFFF00000202000000000000CC
:10062E000000FFFFFFFF00000000000010100000A0
:10063E00000000000000000000000000FFFF0002AC
:10064E0002020202020202020202000000FF000287
:10065E000202020202020202020202000000000076
:10066E000002020000000000020202020000FF0071
:10067E0000020200FFFFFF00000202020000FF0066
:10068E0000020200FFFFFF00000202020000FF0056
:10069E0000020200000000000202020000FFFF0044
:1006AE00000202020202020202020000FFFFFF002D
:1006BE00000202020202020202020000FFFFFF001D
:1006CE0000020200000000000202020000FFFF0014
:1006DE0000020200FFFFFF00000202020000FF0006
:1006EE0000020200FFFFFF000002020200000000F5
:1006FE0000020200000000000202020200000002DE
:10070E0002020202020202020202020000000002C3
:10071E0002020202020202020202000000FF0000B8
:10072E00000000000000000000000000FFFF10109D
:10073E00FFFFFF00000000000000000000FFFFFFB1
:10074E00FFFF00000202020202020202000000FF8E
:10075E00FF00000202020202020202020200000078
:10076E000000000202000000000000020202000071
:10077E0000000202020000FFFFFF00000202000064
:10078E00000002020000FFFFFFFFFF000202000058
:10079E00000002020000FFFFFFFFFFFF000000004D
:1007AE00000002020000FFFFFFFFFFFFFFFFFFFF41
:1007BE00000002020000FFFFFFFFFFFFFFFFFFFF31
:1007CE00000002020000FFFFFFFFFF00000000001C
:1007DE00000002020000FFFFFFFFFF000202000008
:1007EE0000000202000000FFFFFF000002020000F6
:1007FE0000000202020000000000000202020000DF
:10080E00FF000002020202020202020202000000C7
:10081E00FFFF00000202020202020202000000FFBD
:10082E00FFFFFF0000000000000000000000FFFFBF
:10083E001010000000000000000000000000FFFF8C
:10084E00FFFF00000202020202020202020000FF8B
:10085E00FFFF000002020202020202020202000078
:10086E00FFFF000002020000000000020202000072
:10087E00FFFF000002020000FFFF00000202000066
:10088E00FFFF000002020000FFFF00000202000056
:10089E00FFFF000002020000000000020202000042
:1008AE00FFFF00000202020202020202020000FF2B
:1008BE00FFFF00000202020202020202000000FF1D
:1008CE00FFFF000002020000020202000000FFFF14
:1008DE00FFFF000002020000000202020000FFFF04
:1008EE00FFFF00000202000000000202020000FFF3
:1008FE00FFFF000002020000FF00000202020000E3
:10090E00FFFF000002020000FFFF000002020200D3
:10091E0000FF000002020000FFFFFF0000020202C3
:10092E0000FF000000000000FFFFFFFF00000000BE
:10093E0000FF101000000000FFFFFFFFFFFFFFFF92
:10094E00000000000000000000FFFFFFFFFFFF009F
:10095E000000000000000C0C0000FFFFFFFF000075
:10096E000C0C000000000C0C0C0000000000000C31
:10097E000C0C000000000C0C0C0C000000000C0C09
:10098E000C0C000000000C0C0C0C0C0C0C0C0C0CC9
:10099E000C0C000000000C0C0C0C0C0C0C0C0C0CB9
:1009AE000C0C000000000C0C0C000C0C0C0C000CC1
:1009BE000C0C000000000C0C0C00000C0C00000CC9
:1009CE000C0C000000000C0C0C0000000000000CD1
:1009DE000C0C000000000C0C0C0000000000000CC1
:1009EE000C0C000000000C0C0C0000FFFF00000CB3
:1009FE000C0C000000000C0C0C0000FFFF00000CA3
:100A0E000C0C000000000C0C0C0000FFFF00000C92
:100A1E000C0C000000000C0C0C0000FFFF00000C82
:100A2E000C0C000000000000000000FFFF000000A2
:100A3E00000000001010FF00000000000000000089
:100A4E000000000000FFFF0000020202020202028C
:100A5E000202020000FFFF00000202020202020276
:100A6E000202020000FFFF00000000000000020270
:100A7E000200000000FFFFFFFFFFFFFF0000020269
:100A8E00020000FFFFFFFFFFFFFFFFFF000002025B
:100A9E00020000FFFFFFFFFFFFFFFFFF000002024B
:100AAE00020000FFFFFFFFFFFFFFFFFF000002023B
:100ABE00020000FFFFFFFFFFFFFFFFFF000002022B
:100ACE00020000FFFFFFFFFFFFFFFFFF000002021B
:100ADE00020000FFFFFFFF00000000FF0000020207
:100AEE00020000FFFFFFFF000202000000000202F2
:100AFE00020000FFFFFFFF000202020000020202DE
:100B0E00020000FFFFFFFF000002020202020202CB
:100B1E00000000FFFFFFFFFF0000020202020200C2
:100B2E000000FFFFFFFFFFFFFF00000000000000BE
:100B3E0000FFFFFFFFFF1010FFFFFFFFFFFFFFFF94
:100B4E00FFFFFFFFFFFFFFFFFFFFFFFFFF000000A4
:100B5E0000000000FFFFFFFFFFFFFFFF000001018D
:100B6E0001010000FFFFFFFFFFFFFF000001010179
:100B7E0001010000FFFFFFFFFFFF00000101010167
:100B8E00010000FFFFFFFFFFFF0000010101010157
:100B9E000000000000000000000001010101010141
:100BAE00010101010101000000010101010101012A
:100BBE00010101010101000000010101010101011A
:100BCE00010101010101000000000101010101010B
:100BDE000101010101010000FF00000101010101FD
:100BEE000000000000000000FFFF000001010101F5
:100BFE00010000FFFFFFFFFFFFFFFF0000010101EB
:100C0E0001010000FFFFFFFFFFFFFFFF00000101DA
:100C1E0001010000FFFFFFFFFFFFFFFFFF000000CD
:100C2E0000000000FFFFFFFFFFFFFFFFFFFFFFFFC2
:100C3E00FFFFFFFFFFFFFFFF1010FFFFFFFFFFFF94
:100C4E00FFFFFFFFFFFFFFFFFFFFFFFFFFFF0000A4
:100C5E000000000000FFFFFFFFFFFFFFFFFF00008F
:100C6E00010101010000FFFFFFFFFFFFFFFF00007A
:100C7E0001010101010000FFFFFFFFFFFFFFFF0069
:100C8E000001010101010000FFFF00000000000053
:100C9E00000001010101010000FF0000010101013E
:100CAE00010101010101010100000000010101012A
:100CBE000101010101010101010000000101010119
:100CCE00010101010101010101000000000000000D
:100CDE00000001010101010000FF00000000000002
:100CEE00000001010101010000FFFFFFFFFFFF00F7
:100CFE000001010101010000FFFFFFFFFFFF0000E7
:100D0E0001010101010000FFFFFFFFFFFFFF0000D7
:100D1E00010101010000FFFFFFFFFFFFFFFF0000C9
:100D2E000000000000FFFFFFFFFFFFFFFFFFFFFFC0
:100D3E00FFFFFFFFFFFFFFFFFFFF1010FFFFFFFF93
:100D4E000000000000000000FFFFFFFFFFFFFFFF9D
:100D5E000000010101010000FFFFFFFFFFFFFFFF89
:100D6E000000010101010000FFFFFFFFFFFFFFFF79
:100D7E000000010101010000FFFFFFFFFFFFFFFF69
:100D8E000000010101010000FFFFFFFF0000000055
:100D9E00000001010101000000000000000001013F
:100DAE00000001010101000001010000000001012D
:100DBE00010001010101000101010000000001011B
:100DCE000101010101010101010100000000010109
:100DDE00010101010101010101010000FF000001FB
:100DEE000101010101010101010000FFFFFF0000EF
:100DFE0001010101010101010000FFFFFFFFFF00E2
:100E0E00000101010101010000FFFFFFFFFFFFFFD5
:100E1E000000010101010000FFFFFFFFFFFFFFFFC8
:100E2E00FF000001010000FFFFFFFFFFFFFFFFFFBC
:100E3E00FFFF00000000FFFFFFFFFFFF1010FFFF8E
:100E4E00FFFFFFFFFFFF0000000000000000FFFF9C
:100E5E00FFFFFFFFFF000002020202020000FFFF81
:100E6E00FFFFFFFF00000202020202020000FFFF6E
:100E7E00FFFFFF000002020200000202000000005D
:100E8E00000000000202020000000202000000004A
:100E9E000202020202020200FF0002020000000033
:100EAE000202020202020200FF0002020000000023
:100EBE000202000000020200FF0002020000000019
:100ECE00020200FF00020200FF000202000000000A
:100EDE000202000000020200FF00020200000000F9
:100EEE000202020202020200FF00020200000000E3
:100EFE0002020202020202000000020200000000D2
:100F0E000000000000020202000002020000FFFFCB
:100F1E00FFFFFFFF00000202020202020000FFFFBD
:100F2E00FFFFFFFFFF000002020202020000FFFFB0
:100F3E00FFFFFFFFFFFF0000000000000000101089
:100F4E000000000000FFFFFFFFFFFF000000000099
:100F5E000001010100FFFFFFFFFFFF000101010083
:100F6E000001010100FFFFFFFFFFFF000101010073
:100F7E000001010100FFFFFFFFFFFF000101010063
:100F8E000001010100FFFFFFFFFFFF000101010053
:100F9E00000101010000FFFFFFFF00000101010041
:100FAE00000101010100FFFFFFFF0001010101002F
:100FBE00000001010100FFFFFFFF00010101000021
:100FCE0000000101010000FFFF000001010100000F
:100FDE00FF0000010101000000000101010000FFFF
:100FEE00FFFF000001010100000101010000FFFFF1
:100FFE00FFFF000000010100000101000000FFFFE3
:10100E00FFFFFF00000101010101010000FFFFFFD2
:10101E00FFFFFFFF0000010101010000FFFFFFFFC6
:10102E00FFFFFFFFFF00000101000000FFFFFFFFB9
:10103E00FFFFFFFFFFFF0000000000FFFFFFFFFFAD
:10104E00101000000000000000FFFFFFFFFFFFFF79
:10105E00FFFF00000101010000FFFFFFFFFFFFFF88
:10106E00FFFF00000101010000FFFFFFFFFFFFFF78
:10107E00FFFF00000101010000FFFFFFFFFFFFFF68
:10108E00FFFF00000101010000FFFFFFFFFFFFFF58
:10109E00FFFF00000101010000FFFFFFFFFFFFFF48
:1010AE00FFFF00000101010000FFFFFFFFFFFFFF38
:1010BE00FFFF00000101010000FFFFFFFFFFFFFF28
:1010CE00FFFF00000101010000FFFFFFFFFFFFFF18
:1010DE00FFFF00000101010000FFFFFFFFFF000006
:1010EE00000000000101010000FFFFFFFFFF0000F4
:1010FE00000000000101010000FFFFFFFF000001E2
:10110E0000000000010101000000000000000101CC
:10111E0000000000010101010101010101010101B5
:10112E0000000000010101010101010101010101A5
:10113E0000000000000000000000000000000000A1
:10114E0000001010FFFFFFFFFFFFFFFFFFFFFFFF7D
:10115E00FFFFFFFFFFFFFFFFFFFFFFFFFFFFFFFF91
:10116E00FFFFFFFFFFFFFFFFFFFFFFFFFFFFFFFF81
:10117E00FFFFFFFFFFFFFFFF00000000000000FF6A
:10118E00FFFFFFFFFFFFFF00000001010100000055
:10119E00FFFFFFFFFFFF0000010101010101010040
:1011AE0000FFFFFFFF00000101010000000101012F
:1011BE000000FFFF00000001010000FF0000010120
:1011CE00000000FF00000101010000FF000001010E
:1011DE00010000FF00000101010000FF00000101FD
:1011EE00010000FF00000101010000FF00000101ED
:1011FE00010000FF00000001010000FF00000101DE
:10120E00000000FFFF0000010101000000010101CC
:10121E000000FFFFFFFF00000101010101010100BD
:10122E0000FFFFFFFFFFFF000000010101000000B3
:10123E00FFFFFFFFFFFFFFFF00000000000000FFA9
:10124E00FFFFFFFF1010FFFFFFFFFFFFFFFFFFFF7E
:10125E00FFFFFFFFFFFFFFFFFFFF0000000000008A
:10126E000000FFFFFFFFFFFF00000000020202026E
:10127E00000000FFFFFFFF00000002020202020258
:10128E0002020000FFFFFF00000202020000000049
:10129E000202020000FFFF00000202020000FF0037
:1012AE000000000000FFFF0000000202020200002A
:1012BE000000FFFFFFFFFFFFFF000002020202021D
:1012CE00020000FFFFFFFFFFFFFF00000000020211
:1012DE0002020000FFFFFF0000000000FFFF000001
:1012EE000202020000FFFF000002020200000000E6
:1012FE000202020000FFFF000000020202020202D0
:10130E0002020000FFFFFFFFFF00000002020202C8
:10131E00000000FFFFFFFFFFFFFFFF0000000000C7
:10132E000000FFFFFFFFFFFFFFFFFFFFFFFFFFFFBD
:10133E00FFFFFFFFFFFFFFFFFFFFFFFFFFFFFFFFAF
:10134E00FFFFFFFFFFFF1010FFFFFFFFFFFFFFFF7D
:10135E00FFFFFFFFFFFFFFFFFFFFFFFFFFFFFFFF8F
:10136E00FFFFFFFFFFFFFFFFFFFFFFFFFFFFFFFF7F
:10137E00FFFFFFFFFFFFFFFFFFFFFFFFFFFFFFFF6F
:10138E00FFFFFFFFFFFFFFFFFFFFFFFFFFFFFFFF5F
:10139E00FFFFFFFFFFFFFFFFFFFFFFFFFFFFFFFF4F
:1013AE00FFFFFFFFFFFFFFFFFFFFFFFFFFFFFFFF3F
:1013BE00FFFFFFFFFFFFFFFFFFFFFFFFFFFFFFFF2F
:1013CE00FFFFFFFFFFFFFFFF1010FFFFFFFFFFFFFD
:1013DE00FFFFFFFFFFFFFFFFFFFFFFFFFFFFFFFF0F
:1013EE00FFFFFFFFFFFFFFFFFFFFFFFFFFFFFFFFFF
:1013FE00FFFFFFFFFFFFFFFFFFFFFFFFFFFFFFFFEF
:10140E00FFFFFFFFFFFFFFFFFFFFFFFFFFFFFFFFDE
:10141E00FFFFFFFFFFFFFFFFFFFFFFFFFFFFFFFFCE
:10142E00FFFFFFFFFFFFFFFFFFFFFFFFFFFFFFFFBE
:10143E00FFFFFFFFFFFFFFFFFFFFFFFFFFFFFFFFAE
:10144E00FFFFFFFFFFFFFFFFFFFF1010FFFFFFFF7C
:10145E00FFFFFFFFFFFFFFFFFFFFFFFFFFFFFFFF8E
:10146E00FFFFFFFFFFFFFFFFFFFFFFFFFFFFFFFF7E
:10147E00FFFFFFFFFFFFFFFFFFFFFFFFFFFFFFFF6E
:10148E00FFFFFFFFFFFFFFFFFFFFFFFFFFFFFFFF5E
:10149E00FFFFFFFFFFFFFFFFFFFFFFFFFFFFFFFF4E
:1014AE00FFFFFFFFFFFFFFFFFFFFFFFFFFFFFFFF3E
:1014BE00FFFFFFFFFFFFFFFFFFFFFFFFFFFFFFFF2E
:1014CE00FFFFFFFFFFFFFFFFFFFFFFFF1010FFFFFC
:1014DE00FFFFFFFFFFFFFFFFFFFFFFFFFFFFFFFF0E
:1014EE00FFFFFFFFFFFFFFFFFFFFFFFFFFFFFFFFFE
:1014FE00FFFFFFFFFFFFFFFFFFFFFFFFFFFFFFFFEE
:10150E00FFFFFFFFFFFFFFFFFFFFFFFFFFFFFFFFDD
:10151E00FFFFFFFFFFFFFFFFFFFFFFFFFFFFFFFFCD
:10152E00FFFFFFFFFFFFFFFFFFFFFFFFFFFFFFFFBD
:10153E00FFFFFFFFFFFFFFFFFFFFFFFFFFFFFFFFAD
:10154E00FFFFFFFFFFFFFFFFFFFFFFFFFFFF10107B
:10155E00FFFFFFFFFFFFFFFFFFFFFFFFFFFFFFFF8D
:10156E00FFFFFFFFFFFFFFFFFFFFFFFFFFFFFFFF7D
:10157E00FFFFFFFFFFFFFFFFFFFFFFFFFFFFFFFF6D
:10158E00FFFFFFFFFFFFFFFFFFFFFFFFFFFFFFFF5D
:10159E00FFFFFFFFFFFFFFFFFFFFFFFFFFFFFFFF4D
:1015AE00FFFFFFFFFFFFFFFFFFFFFFFFFFFFFFFF3D
:1015BE00FFFFFFFFFFFFFFFFFFFFFFFFFFFFFFFF2D
:1015CE00FFFFFFFFFFFFFFFFFFFFFFFFFFFFFFFF1D
:1015DE001010FFFFFF0000FFFFFFFFFFF000000FE6
:1015EE00FFFFFFFF00222200FFFFFFFF002222006D
:1015FE00FFFFFFF0022002200FFFFFF0022002206B
:10160E000FFFFF002200002200FFFF00220FF0223A
:10161E0000FFF002200FF002200FF0022000000267
:10162E00200F002222222222220000222222222207
:10163E0022000022000000002200002200FFFF0016
:10164E002200002200FFFF002200000000FFFF002A
:10165E000000101000000000000000FF02222222F5
:10166E002222000F0222222222222000000220002B
:10167E0000222200F00220FFF0022200F00220FFE2
:10168E00F0022200F00220000022200FF00222229F
:10169E00222200FFF0022222222200FFF00220006E
:1016AE000022200FF00220FFF0022200F00220FFA5
:1016BE00F00222000002200000222200022222223A
:1016CE0022222000022222222222000F00000000ED
:1016DE00000000FF1010101010101010101010103D
:0A16EE001010101010101010101052
:107DAE00122A85FF90035BE02F900210F0229001C3
:107DBE00EFE0FBA3E0FAA3E0F922F09001EFE0FB85
:107DCE00A3E475F001122B41A9F0FA022A6C90017E
:087DDE00E6E0D36480948022EA
:06838000E490035BF02213
:0683860090035BEFF02202
:0B4FD3009001E7EFF0A3ECF0A3EDF07D
:104FDE009001E7E0FF25E0F0E02408F09001EEF00C
:104FEE009001E8E0FEA3E07803C333CE33CED8F9C8
:104FFE00F0EE9001E8F0A3E02408F09001E8E03430
:10500E0000F0AF037E007C017D02122AC4742E2FA5
:10501E00F974003EFA9001EF74FFF0A3EAF0A3E9F1
:10502E00127DC89001EA127DC89001EBF0E4A3F066
:10503E009001EAE0FF9001ECE0C39F400302511A99
:10504E00E4A3F09001EBE0FF9001EDE0C39F40037D
:10505E000250FB127DBC122A6C127DB1E4FB7D0264
:10506E00FF1273AC127DBC900001127DAE7B01125B
:10507E005144900002127DAE7B0212514490000307
:10508E00127DAE7B031251579002107480F07B0498
:10509E001251579001F0E475F004122B2B9001EE93
:1050AE00E0900210F07B0512515FA3E0900210F029
:1050BE007B0712515FE07E007802C333CE33CED829
:1050CE00F912511B12516A20E7FA9001E8E025E02F
:1050DE0025E0440812511B12516A20E7FA9001EEA6
:1050EE00E004F09001EDE02404F00250519001E74D
:1050FE00E09001EEF09001E9E004F070069001E816
:0C510E00E004F09001ECE004F002503EE0
:10511A0022900210F07B097D02E4FF1273AC7B0A35
:10512A007D02E4FF126E2DEF543F4480900210F08E
:10513A007B0A7D02E4FF1273AC227D02E4FF127344
:10514A00AC9001EFE0FBA3E0FAA3E0F9227D02E4D0
:10515A00FF1273AC227D02E4FF1273AC9001E822C5
:0B516A007B0A7D02E4FF126E2DEF2295
:0B759C009001E0EFF0A3EDF0A3EBF096
:1075A700A3127DBF12820C9001E6EFF0C3648094B2
:1075B7008040429001E0E030E0339001E1E0FFA33A
:1075C700E0FD7C00A3127DBF122A6CFB124FD39003
:1075D70001E6E014F09001E4E475F001122B2B9022
:1075E70001E1E02402F0127DDC50CF8005127DDC42
:0575F70050FB12002909
:0175FC00226C
:1080FE000500000600000700000800000900000A45
:10810E00000012000020000B000C000D000E0000FD
:0356330001210052
:10720A00900342E075F003A424FEF9748035F0FA85
:10721A009001E374FFF0A3EAF0A3E9F0229001DD04
:10722A00E0FBA3E0FAA3E0F9229001E374FFF0A3E4
:10723A007481F0A3740AF022900001022A85122AAE
:10724A006C540C1313543FF50822900002022A854D
:10725A00900003022A857B017D127C00227B01E4D7
:0D726A00FDFC7F1C227B01E4FDFC7F412226
:10785200125B401283807F041200267F03128398FA
:10786200E4F508AF081278880508E508C3940640D5
:10787200F27F01127DE67FFF1283987F08127888DB
:05788200E490033FF05B
:107887002212813E9001E1E4F0A37426F07B5AE4D2
:07789700FDFCFF126C5E22F4
:103B8F009001DDEB12721F7F021200267FFF12835E
:103B9F0098900341E0122E433BD5113BE4213C0E9C
:103BAF00223C3C313C76333CB0343CEA413D3691CB
:103BBF003D4CA13D74A23D9CB13DDCB33E16B43EDD
:103BCF004DC100003E9A127227122A6C20E10302A7
:103BDF003E9A023D42127227122A6C30E10812728D
:103BEF000A7DFF123EB912722712724220E10302C0
:103BFF003E9A90034312720D7B1D7D5D023E95121E
:103C0F007227122A6C30E10C12720A7B0E7D487FEC
:103C1F000112759C12722712724220E103023E9A22
:103C2F0090034312720DE4FB7D14023E951272272E
:103C3F00122A6C30E10612720A123ED51272271246
:103C4F00724230E10990034312720D123EDF12727D
:103C5F002712725420E103023E9A90034412720D10
:103C6F007B0F7D3E023E95127227122A6C30E106C1
:103C7F0012720A123E9B12722712724230E10990A1
:103C8F00034312720D123EC112722712725420E1B9
:103C9F0003023E9A90034412720D7B0F7D3E023E4B
:103CAF0095127227122A6C30E10612720A123E9B8D
:103CBF0012722712724230E10990034312720D12F1
:103CCF003EC112722712725420E103023E9A9003F2
:103CDF004412720D7B0F7D14023E95127227122A29
:103CEF006C30E10612720A123EA51272271272424E
:103CFF0030E10990034312720D123ECB127227125C
:103D0F00725430E10990034412720D123EDF1272A9
:103D1F002712725A20E103023E9A90034512720D48
:103D2F007B0F7D3E023E95127227122A6C20E10313
:103D3F00023E9A12720AE4FB7D29023E9512722707
:103D4F00122A6C30E10612720A123ED51272271235
:103D5F00724220E103023E9A90034312720D7B12CE
:103D6F007D29023E95127227122A6C30E1061272DB
:103D7F000A123EA512722712724220E103023E9AE6
:103D8F0090034312720DE4FB7D3E023E95127227A3
:103D9F00122A6C30E10C12720AE4FB7D297F0112AA
:103DAF00759C12722712724230E10990034312720E
:103DBF000D123EF312722712725420E103023E9A43
:103DCF0090034412720D7B127D3E023E95127227B4
:103DDF00122A6C30E10612720A123EAF12722712CB
:103DEF00724230E10990034312720D123ECB1272F0
:103DFF002712725420E103023E9A90034412720D6F
:103E0F007B127D3E023E95127227122A6C30E1061C
:103E1F0012720A123EAF12722712724230E10990EB
:103E2F00034312720D123EE912722712725430E1DF
:103E3F005A90034412720D7B127D14023E9512723A
:103E4F0027122A6C30E10812720A7D14123EB91241
:103E5F00722712724230E10990034312720D123E23
:103E6F00E912722712725430E10990034412720D55
:103E7F00123EF312722712725A30E10F900345125D
:103E8F00720D7B127D3E7F0112759C22E4FB7D1427
:103E9F007F0112759C22E4FB7D147F0112759C2219
:103EAF00E4FB7D147F0112759C22E4FB7F011275E8
:103EBF009C22E4FB7D3E7F0112759C22E4FB7D3E3C
:103ECF007F0112759C22E4FB7D297F0112759C22D4
:103EDF007B0F7D147F0112759C22E4FB7D3E7F01D9
:0E3EEF0012759C227B127D147F0112759C229D
:08837000900340E04480F0227C
:107AED007B787D01E4FF126E2DEF540FFF90034F55
:107AFD00F0900340E06F602ED2237B31E4FDFF1246
:107B0D006E2DEF547F900210F07B31E4FDFF127368
:107B1D00AC7F4D1200267F40128386128380900326
:077B2D004FE0900340F0223D
:075749009001DDEB12721F5D
:105750007F41120026900341E0122E4357841157D7
:10576000952157C22257F231581433583034578498
:10577000915795A157C2A257F2B15814B35830B4FB
:105780000000586C9001DD12722A12724860030208
:1057900057FD02580A9001DD12722A127248600BFE
:1057A00012586D12721912589F8006127267126A8F
:1057B000F89001DD12722A12724212724B603002AE
:1057C000583E9001DD12722A127248600B12586D19
:1057D00012721912589F8006127267126AF89001AD
:1057E000DD12722A12724212724B600302583E029C
:1057F00058629001DD12722A127248600D125886AA
:10580000127219E4FB7D3102585D7B01E4FDFC7FDF
:10581000310258699001DD12722A127248600C122E
:105820005886127219E4FB7D1C803212726780392F
:105830009001DD12722A12724212724B60247B02B6
:10584000E4FDFCFF126AF8E50825E0FFE433FE748E
:10585000132FF974813E127219E4FB7D467F010219
:0C586000759C7B01E4FDFC7F46126AF899
:10586C00227B02E4FDFCFF126AF8E50825E0FFE468
:10587C0033FE74132FF974813E227B02E4FDFCFF8E
:10588C00126AF8E50825E0FFE433FE74132FF9746F
:0D589C00813E22E4FB7D1C7F0112759C22E1
:102EB1009001DDEB12721F7F0C120026900341E09E
:102EC100122E432EF2112F04212F2D222F56312F96
:102ED10096332FD634301F41307F913099A130D1B4
:102EE100A23104B13158B331A4B431F6C10000327A
:102EF100639001DD12722A122A6C30E00302308BDA
:102F01000230929001DD12722A122A6C30E008120E
:102F110072331232D880031232AD9001DD12722A5F
:102F210012724230E0030230BC0230C69001DD1261
:102F3100722A122A6C30E00812723312326F800347
:102F41001232649001DD12722A12724230E00302E1
:102F510030F40230FE9001DD12722A122A6C30E048
:102F6100081272331232D880031232AD9001DD1291
:102F7100722A12724230E00812723312330E800349
:102F81001232F79001DD12722A12725430E00302FC
:102F910030700230789001DD12722A122A6C30E012
:102FA1000812723312326F80031232649001DD1203
:102FB100722A12724230E0081272331232C3800355
:102FC1001232839001DD12722A12725430E0030230
:102FD10030700230789001DD12722A122A6C30E0D2
:102FE10008127233123279800312328E9001DD128F
:102FF100722A12724230E0081272331232C3800315
:103001001232839001DD12722A12725430E00812DA
:1030110072337B0F0231E67B017D0F0231EF9001AC
:10302100DD12722A122A6C30E008127233123279E0
:10303100800312328E9001DD12722A12724230E048
:10304100081272331232ED80031232B89001DD1290
:10305100722A12725430E00812723312330E800356
:103061001232F79001DD12722A12725A30E0081200
:1030710072337B0F0230F97B017D0F0231519001D8
:10308100DD12722A122A6C30E007127233E4FB80DF
:103091002F7B01E4FDFC80339001DD12722A122A9C
:1030A1006C30E00812723312331880031232E2904E
:1030B10001DD12722A12724230E00A1272337B0F62
:1030C1007D2C0232567B017D0F7C007F2C02326009
:1030D1009001DD12722A122A6C30E008127233124A
:1030E100329980031232CD9001DD12722A1272429E
:1030F10030E00A127233E4FB7D4102325612726FE4
:103101000232609001DD12722A122A6C30E008123C
:10311100723312331880031232E29001DD12722AE7
:1031210012724230E0081272331233228008127296
:10313100607F17126AF89001DD12722A1272543000
:10314100E00A1272337B127D410232567B017D12FD
:103151007C007F410232609001DD12722A122A6CDA
:1031610030E00812723312329980031232CD90018D
:10317100DD12722A12724230E0081272331232EDFD
:1031810080031232B89001DD12722A12725430E0BB
:103191000A1272337B127D410232561272607F41F4
:1031A1000232609001DD12722A122A6C30E008129C
:1031B10072331232A380031233039001DD12722A9B
:1031C10012724230E00812723312332C80061272EE
:1031D1006F126AF89001DD12722A12725430E00AFD
:1031E1001272337B127D170232567B017D127C00F5
:1031F1007F170232609001DD12722A122A6C30E0D0
:10320100081272331232A380031233039001DD12CC
:10321100722A12724230E00812723312332C800685
:1032210012726F126AF89001DD12722A1272543012
:10323100E00812723312332280081272607F171273
:103241006AF89001DD12722A12725A30E00C127281
:10325100337B127D417F0102759C1272607F4112A6
:103261006AF8227B01E4FDFC7F17126AF822E4FB75
:103271007D177F0112759C22E4FB7D177F0112757A
:103281009C227B01E4FDFC7F41126AF8227B01E470
:10329100FDFC7F17126AF822E4FB7D177F0112758E
:1032A1009C22E4FB7D177F0112759C227B01E4FDCA
:1032B100FC7F2C126AF8227B01E4FDFC7F41126A3B
:1032C100F822E4FB7D417F0112759C227B01E4FD24
:1032D100FC7F17126AF822E4FB7D2C7F0112759C9A
:1032E100227B01E4FDFC7F2C126AF822E4FB7D4184
:1032F1007F0112759C227B017D0F7C007F17126A72
:10330100F8227B01E4FDFC7F17126AF8227B0F7D16
:10331100177F0112759C22E4FB7D2C7F0112759CA5
:10332100227B127D177F0112759C22E4FB7D417F78
:053331000112759C2251
:107B3400E4FF12813E90033FE024FE600E047023B4
:107B4400127B687481F0A3740D8009127B687481C0
:107B5400F0A37410F0E4FB7D017F0112759C7FFF9C
:107B6400128398227F031283987F041200269001C7
:067B7400E374FFF0A32200
:10809400E4FF12813E900347E030E1127B017A0352
:1080A4007947122EB17B017A03794712574912831B
:0680B40070E4FF027DE60E
:1016F80000000000000000000000000000000000E2
:1017080000000000000000000000000000000000D1
:10171800003E007E00FE01CE038E7F8E7F8E738E8C
:10172800738E738E7F8E7F8E01CE00FE007E003E0C
:1017380000000000020006000E001E003FFE7FFEB3
:101748007FFE3FFE1E000E000600020000000000A3
:101758000000000000400060007000787FFC7FFE01
:101768007FFE7FFC007800700060004000000000F1
:10177800000003C003C003C003C003C003C003C00C
:1017880003C03FFC1FF80FF007E003C00180000012
:1017980003C003C007E007E00E700E701C381C3849
:1017A800381C381C7FFE7FFE700E700E700E700E97
:1017B8007FF87FFC383E381E381E381E383C3FF80C
:1017C8003FF8383C381E381E381E383E7FFC7FF8FC
:1017D8000FF81FFC3C1C380E780E700E700070005D
:1017E80070007000700E700E380E3C1C1FFC0FF855
:1017F8007FF07FF07078703C703C703C70787FF0C0
:101808007FE0778073C071E070F07078703C701E74
:1018180000006006700E781E7C3E7FFE77EE73CE69
:10182800718E700E700E700E700E700E700E700E3F
:1018380000001FF81FF800E000E000E000E000E012
:1018480000E000E000E070E079E03FC01F800F009A
:1018580000000000000003C007800F001E003FFCCE
:101868003FFC1E000F00078003C0000000000000BE
:1018780000000000000003C001E000F000783FFC19
:101888003FFC007800F001E003C000000000000009
:1018980000000000018001800180018011881998F2
:1018A8001DB81FF80FF007E003C00180000000001A
:1018B800003E007E00FE01CE038E7F8E7F8E738EEB
:1018C800738E738E7F8E7F8E01CE00FE007E003E6B
:1018D800700E700E700E700E700E700E781E381C22
:1018E800381C1C381C380E700FF007E003C001804C
:1018F8000000380038003800380038003800380058
:1019080038003800380038063806380E3FFE3FFEEB
:101918000000000000000000000003800FE01C70C1
:10192800183038383838383818301C700FE00380D1
:101938000000000000000000000003C00FF01C3889
:101948001C000F0007E000F000381C380FF003C03F
:10195800000000000000000000000000000000007F
:10196800000000000000000000000000000000006F
:10197800000000000000000000000000000000005F
:10198800000000000000000000000000000000004F
:10199800000000000000000000000000000000003F
:1019A800000000000000000000000000000000002F
:1019B800000000000000000000000000000000001F
:1019C800000000000000000000000000000000000F
:1019D80000000000000000000000000000000000FF
:1019E80000000000000000000000000000000000EF
:1019F80000000000000000000000000000000000DF
:101A080000000000000000000000000000000000CE
:101A180000000000000000000000000000000000BE
:101A280000000000000000000000000000000000AE
:101A3800000000000000000000000000000000009E
:101A4800000000000000000000000000000000008E
:101A5800000000000000000000000000000000007E
:101A6800000000000000000000000000000000006E
:101A7800000000000000000000000000000000005E
:101A8800000000000000000000000000000000004E
:101A9800000000000000000000000000000000003E
:101AA800000000000000000000000000000000002E
:101AB800000000000000000000000000000000001E
:101AC800000000000000000000000000000000000E
:101AD80000000000000000000000000000000000FE
:101AE80000000000000000000000000000000000EE
:101AF80000000000000000000000000000000000DE
:101B080000000000000000000000000000000000CD
:101B1800000007000F800F800F800F80070007006C
:101B28000700020002000000020007000700020090
:101B38000000EE006600440088000000000000007D
:101B4800000000000000000000000000000000008D
:101B5800000008200820082008203FF80820082056
:101B68000820082008203FF808200820082008201E
:101B780000000FC01B603330333033001B000F00F0
:101B880003C0036013303B3033301B600FC00300C9
:101B980000003808441084200440048009001270B2
:101BA800E4880908120822084210822001C00000B7
:101BB80000000E001B00318031801B000E001C004D
:101BC8003678632061A060E0606030F01F9C000000
:101BD80000000000000000000000000000000000FD
:101BE800000000000000800060007000380018004D
:101BF8000000000400080018001000300030003019
:101C08000030003000300010001800080004000206
:101C180000008000400060002000300030003000EC
:101C280030003000300020006000400080000000DC
:101C3800000002004210222012400A800700FFFC28
:101C480007000A8012402220421002000200000011
:101C580000000000030003000300030003007FF8F6
:101C68007FF80300030003000300030000000000E6
:101C7800000000000000000000000000000000005C
:101C8800000018003C003C00180010002000400034
:101C980000000000000000000000000000007FF8C5
:101CA8007FF80000000000000000000000000000B5
:101CB800000000000000000000000000000000001C
:101CC8000000000000007800840084008400780090
:101CD800000000180030006000C00180030006000A
:101CE8000C00180030006000C000800000000000F8
:101CF80000000FE0183030183038307830D831987C
:101D0800331836183C183818301818300FE000000F
:101D18000000030007000F00030003000300030096
:101D28000300030003000300030003001FE000009A
:101D380000000FE01830301830183038007001C03B
:101D480003000E001800300830083FF83FF8000084
:101D5800000007C0183030183018003000E003C009
:101D680000E00030001830183018183007C00000A4
:101D7800000000C001C003C006C00CC018C030C0BD
:101D880060C0C0C0C0C0FFF800C000C003F00000C1
:101D980000003FF03FF030003000300037C03830EE
:101DA80030180018001830183018183007C0000014
:101DB800000007E01830303030003000300037E0E5
:101DC8003830301830183018301818300FC000006C
:101DD80000003FF83FF8201820180030006000C0CD
:101DE8000180030003000300030003000300000058
:101DF80000000780186030303030303018600FC075
:101E08001860303060186018601830300FC000005B
:101E1800000007801860303030183018301830381B
:101E2800187807980018303038301860078000009C
:101E3800000000000000000003000780030000000D
:101E480000000300078003000000000000000000FD
:101E580000000000000000000300078003000000ED
:101E680000000300078003800180070000000000D5
:101E780000000000001800600180060018006000E3
:101E88008000600018000600018000600018000053
:101E9800000000000000000000007FF87FF800004C
:101EA80000007FF87FF8000000000000000000003C
:101EB8000000800060001800060001800060001823
:101EC800000400180060018006001800600080000F
:101ED800000007800FC01CE038E038E011C0018026
:101EE80003000300020002000000020007000700D0
:101EF80000000FC030604010478888C890C890C85C
:101F080090C890C888D84770400830700FC000004B
:101F1800000003000300078007800CC00CC0186095
:101F280018601FE03030303060186018F03C000056
:101F380000003F80186018301830183018601FC033
:101F48001860183018181818181818303FC00000F2
:101F58000000078818683038601860086000600062
:101F6800600060006008601830301860078000006A
:101F780000007F8030E030383018301830183018C2
:101F88003018301830183018303030E07F800000BA
:101F980000003FF0183018101800188018801F80B3
:101FA8001880188018001800181018303FF000002A
:101FB80000003FF0183018101800188018801F8093
:101FC8001880188018001800180018003C0000003D
:101FD80000000F90187030306010601060006000D2
:101FE8006078603060306030307018F00FB00000FA
:101FF80000007878303030303030303030303FF0DA
:102008003030303030303030303030307878000098
:1020180000000FC0030003000300030003000300D7
:102028000300030003000300030003000FC00000C7
:10203800000001F000600060006000600060006067
:10204800006000603060306030E019C00F000000B0
:10205800000078F8306030C03180330036003C0032
:102068003E003300318030C030603030787C000072
:1020780000003C001800180018001800180018008C
:102088001800180018001808181818383FF8000029
:102098000000E03CE038F078F078D8D8D8D8C89874
:1020A800CD98CD98C518C718C218C018E07C000094
:1020B8000000C078E030F030F830DC30CE30C73087
:1020C800C3B0C1F0C0F0C070C030C030E0780000CC
:1020D80000000FC0387070386018601860186018F9
:1020E8006018601860186018703838700FC00000E9
:1020F80000003FC0187018381818181818381870C9
:102108001FC0180018001800180018003C00000034
:1021180000001F8070E0E070C030C030C030C030B8
:10212800C030C030C030CF30E1F070E01FEC003874
:1021380000003F8018E0187018301830187018E048
:102148001FC01B80198018C0186018303C7C000024
:1021580000000FD018703030301018000E000380C7
:1021680000E000302018301838182C3027E0000024
:1021780000007FF873386318430803000300030066
:1021880003000300030003000300030007800000AE
:102198000000787830303030303030303030303007
:1021A800303030303030303030301CE00FC000007C
:1021B8000000F0786030603060306030603060304F
:1021C80060306030306018C00D80070002000000E9
:1021D8000000C71C82088208C71847184510451018
:1021E8006DB06DB028A038E01040104010400000DD
:1021F8000000F07C6030306018C008800D80070057
:10220800020007000D8018C030606030F07C0000CC
:102218000000F03C6018303018600CC007800300E4
:10222800030003000300030003000300078000000D
:1022380000003FF8301820180030006000C001800E
:10224800030006000C001800300860187FF8000032
:102258000000001C0030006000600060006000604A
:102268000060006000600060006000600030001CDA
:1022780000008000C0006000300018000C0006005C
:102288000300018000C0006000300018000C00044A
:102298000000E000300018001800180018001800AE
:1022A8001800180018001800180018003000E00086
:1022B8000000000000000000000000000000000016
:1022C800020007000D8018C07070C01C00000000DC
:1022D80000000000000000000000000000000000F6
:1022E8000000000000000000000000000000FFFEE9
:1022F80000000E0007000180004000000000000000
:1023080000000000000000000000000000000000C5
:102318000000000000000000000000000F8030C036
:1023280000C00FC018C030C030C031D01F600000DE
:102338000000380018001800180018001FC01C60A2
:10234800183018301830183018301C603FC00000A2
:102358000000000000000000000000000FC018602E
:102368003060306030003000300018200FC00000AE
:102378000000007000300030003000300FB01870DE
:102388003030303030303030303018700FB000001E
:102398000000000000000000000000000FC01860EE
:1023A800303030303FF03000300018300FE000009F
:1023B800000003C006600660060006003FC0060075
:1023C8000600060006000600060006000F000000D2
:1023D800000000000000000000000FB018E018C066
:1023E80018C00F80070018C03060306018C00F8018
:1023F8000000380018001800180018001BC01E60E4
:102408001C30183018301830183018303C7800005C
:1024180000000000030003000000000007000300A4
:10242800030003000300030003000300078000000B
:10243800000001800180000000000380018001800D
:102448000180018001801980198019800F00000027
:1024580000003800180018001800180019F018C0FB
:1024680019801B001F801CC0186018303C7C0000BD
:10247800000007000300030003000300030003003B
:1024880003000300030003000300030007800000AB
:10249800000000000000000000000000DEF073985B
:1024A800631863186318631863186318F39C0000B3
:1024B80000000000000000000000000037C01C60A1
:1024C8001860186018601860186018603CF0000008
:1024D8000000000000000000000000000FC01860AD
:1024E8003030303030303030303018600FC00000BD
:1024F80000000000000000000000000037C01C6061
:102508001830183018301C601FC0180018003C0024
:102518000000000000000000000000000F8018E02C
:1025280030603060306018E00FE00060006000F05C
:102538000000000000000000000000001BC00EE0CA
:102548000C600C000C000C000C000C001E000000BD
:102558000000000000000000000000000FC018E0AC
:1025680018200E00030001C0106018600FC00000A2
:102578000000000000000600060006003FC006003C
:102588000600060006000600066006E007C0030015
:10547C00EF543F4480900210F07B0A7D02E4FF223F
:10548C0075F020A424F8F9741635F0FA74FFF0A323
:10549C00EAF0A3E9F022EFF0A3ECF0A3EDF0A3EB1C
:1054AC00F0E517900210F0E4FB7D02FF22F0A3E080
:1054BC00FBA3E0FAA3E0F92225E025E0FDE02D4472
:1054CC0002900210F07B097D02E4FF22900209E0B9
:1054DC00FF04F0EF4480900210F07B047D02E4FFA7
:1054EC0022E517900210F07B017D02E4FF22E51704
:1054FC00900210F07B027D02E4FF22E5179002106F
:10550C00F07B037D02E4FF22A3E0900210F07B0706
:10551C007D02E4FF22122A8575F020A424F8F97488
:10552C001635F0FA229001E4E0FFA3E0FD7C009038
:10553C0001E9E0FEFB9001E6E0F9A3E0FAA3E0222A
:10554C009001EBE025E025E0FF9001EDE025E02562
:10555C00E014FEC454F04F229001E7E4122B2B9080
:10556C0001E4E02408F09001E9E0D3648094802207
:10557C00F0A3E0FEA3E0780322900210F07B057DFF
:10558C0002E4FF22F0900210F07B0F7D02E4FF2278
:10559C009001D87454F0A374FFF02275F003A42486
:1055AC00F1F582E43401F58322A3E0900210F07B44
:1055BC00087D02E4FF22E0900210F07B067D02E4FD
:1055CC00FF22ECF0A3EDF0A3EB22900001022A8560
:0A55DC00E0FBA3E0FAA3E07E00224A
:030026008F18220E
:038398008F17221A
:1076B5009001D5EFF0A3EDF0900210EBF07B0B12EB
:1076C50077069001D8E0900210F07B0C12770690B7
:1076D50001D9E0900210F07B0D7D02E4FF1273AC3E
:1076E5009001D5E030E006A3E0448080069001D605
:1076F500E044C0900210F07B0E7D02E4FF1273ACF3
:09770500227D02E4FF1273AC22A4
:105B400090021074C0F07B1F7D02E4FF1273AC90D2
:105B50000210740C1255941273AC12559C7F0212F1
:105B60005C407454F0A3744AF07B4C7F02125C5684
:105B700074FFF0A3746BF07F02125C4B7480F0A38F
:105B8000F0E4FBFD125C5F12559F7F01125C4074D4
:105B900055F0A3744AF07B4B7F01125C5674FFF002
:105BA000A3746BF07F01125C4B7480F0A3F07BF068
:105BB0007D04125C5F7480F0A3F07BC07D05125CF5
:105BC000687480F0A3F07B7F7D06125C687480F0BF
:105BD000A3F07B3F7D07125C71744FF0A374B5F0A6
:105BE0007B957D08125C7174AAF0E4A3F07BB27D12
:105BF000097F011276B59001D874D4F0A374EAF04D
:105C00007B697D0A7F011276B59001D874B5F0A347
:105C1000743AF07B617D0B7F011276B5E49001D878
:105C2000F0A37494F07BE17D0C7F011276B51255E0
:105C30009C7B4C7D0D7F011276B5E4F517F518229B
:105C40007B4C7D011276B59001D8227B1D7D03121D
:105C500076B59001D8227D021276B59001D8227FC8
:105C6000011276B59001D8227F011276B59001D845
:0A5C7000227F011276B59001D822C0
:10813E009001E3EF125484126E2DEF54C3FF9001A1
:0F814E00E3E0FE25E025E04FF01254810273AC10
:107DE6009001E3EFF064087B0F7D027007127E07B7
:107DF60044028006E4127E0744081255901273ACC2
:107E060022FF126E2DEF540FFF9001E3E05407FEA0
:067E1600C454F04FF022FD
:047E52009001DDEFCF
:107E5600125594126E2DEF540FFF9001DEE4F0A33D
:107E6600EFF09001DDE0F4FFE4F4FEA3E05EFEA394
:107E7600E05FFF9001DEEEF0A3EF1255900273ACC7
:106C5E009001DD1254A21273AC1254ED1273AC12E9
:106C6E0054FA1273AC1255071273AC9001DDE0FFAB
:106C7E0025E012557CC333CE33CED8F9FF9001DE1A
:106C8E00EEF0FCA3EFF0FDA3E025E0FF9001DDE0C8
:106C9E00FB2F149001E012557CC333CE33CED8F9BE
:106CAE002DFFEE3CCF24FFCF34FF9001E1F0A3EF98
:106CBE00F0EB1255851273AC9001E01255C21273AF
:106CCE00AC9001DE1255141273AC9001E11255B561
:106CDE001273AC9001DEE09001E11254C41273AC59
:106CEE00125485126E2DEF44C01254811273AC12E1
:0A6CFE005485126E2DEF20E7F622F8
:1081940012813E7FFF1283989001E1E4F0A37426DC
:0A81A400F07B5AE4FDFCFF026C5E64
:105300009001FDEFF0A3EB12549A9001FE1254BBF2
:10531000122A6CF522301704AF188002AF17EF1273
:1053200054AF1273AC301604AF188002AF1712548A
:1053300056301504AF188002AF17125465301404AC
:10534000AF188002AF171254349001FDE004F03022
:105350001304AF188002AF17900210EF1254B2126C
:1053600073AC301204AF188002AF171254563011CC
:1053700004AF188002AF17125465301004AF1880C4
:1053800002AF171254349001FDE0041254B91255C3
:10539000D6F522301704AF188002AF17900210EF35
:1053A0001254B21273AC301604AF188002AF17EF6C
:1053B0001254EF1273AC301504AF188002AF17EF20
:1053C0001254FC1273AC301404AF188002AF17EF04
:1053D0001255091254741254E012547404F030132C
:1053E00004AF188002AF17900210EF1254B212737C
:1053F000AC301204AF188002AF17900210EF1254B5
:10540000F21273AC301104AF188002AF1790021083
:10541000EF1254FF1273AC301004AF188002AF17B4
:10542000900210EF12550C1273AC9001FDE0125473
:10543000E00273AC900210EFF07B037D02E4FF12F8
:1054400073AC9001FDE04480900210F07B047D027B
:10545000E4FF1273AC22900210EFF07B017D02E4B6
:10546000FF1273AC22900210EFF07B027D02E4FF8A
:0C5470001273AC221273AC9001FDE0221C
:075C7A009001EB1255CEF082
:105C8100EF25E02408FFF50C9001EB12557EC3339C
:105C9100CE33CED8F9F0EE9001EBF0A3E02408F07A
:105CA1009001EBE03400F09001EE1254BB122A6C2B
:105CB1009001F112548C9001EE1254BD1255D69000
:105CC10001F412548C9001EE1254BD900002125551
:105CD100219001F71254989001EE1254BD900003E7
:105CE1001255219001FA1254989001EDE0D39404D9
:105CF10040037404F0E4F50AE50AC394204003026A
:105D01005D9DE4F50B9001EDE0FFE50BC39F50268F
:105D1100E50B75F003A424F1F582E43401F5831257
:105D210055DC250AF9EE3AFAE50B25E025E0FF12EC
:105D31005300050B80CFE50C1255851273AC900111
:105D4100EB1255141273AC12554C1254CD1273ACA4
:105D5100125485126E2D12547C1273AC125485129A
:105D61006E2DEF20E7F612554C44081254CD1273F4
:105D7100AC125485126E2D12547C1273AC125485E0
:105D8100126E2DEF20E7F69001ECE004F070069022
:0C5D910001EBE004F0050A050A025CF9D1
:015D9D0022E3
:036AF8009001E02A
:106AFB001254A21273AC1254ED1273AC1254FA125C
:106B0B0073AC1255071273AC9001E0E0FF25E0F077
:106B1B00E0240812557CC333CE33CED8F9F0EE9077
:106B2B0001E1F0A3E02408F09001E1E03400F090E3
:106B3B0001E3E025E025E0FF9001E0E0FD2F14905C
:106B4B0001E4F09001E2E0240FFE9001E1E034005B
:106B5B009001E5F0A3CEF0900210ED125588127360
:106B6B00AC9001E41255C21273AC9001E1125514B2
:106B7B001273AC9001E51255B51273AC9001E1E0C4
:106B8B009001E51254C41273AC125485126E2DEFA2
:106B9B0044C01254811273AC125485126E2DEF2027
:026BAB00E7F60B
:016BAD0022C5
:105D9E00900209EFF0A3EB12549A90020A1254BB30
:105DAE00122A6CF522301704AF188002AF17EFC419
:105DBE0054F0FF301604AE188002AE17EF4E125498
:105DCE00AF1273AC301504AF188002AF17EFC45486
:105DDE00F0FF301404AE188002AE17EF4E1254EFDF
:105DEE001273AC301304AF188002AF17EFC454F027
:105DFE00FF301204AE188002AE17EF4E1254FC1292
:105E0E0073AC301104AF188002AF17EFC454F0FF1B
:105E1E00301004AE188002AE17EF4E1255091273F1
:105E2E00AC1254D81273AC90020A1254BB1255D64F
:105E3E00F522301704AF188002AF17EFC454F0FFED
:105E4E00301604AE188002AE17EF4E1254AF127316
:105E5E00AC301504AF188002AF17EFC454F0FF300A
:105E6E001404AE188002AE17EF4E1254EF1273AC3C
:105E7E00301304AF188002AF17EFC454F0FF301286
:105E8E0004AE188002AE17EF4E1254FC1273AC30F3
:105E9E001104AF188002AF17EFC454F0FF30100496
:105EAE00AE188002AE17EF4E1255091273AC125493
:045EBE00D80273ACE7
:0A61CC009001EAEFF0A31255CEF0A7
:1061D6009001EAE0FF25E0F0E0240412557CC33389
:1061E600CE33CED8F9F0EE9001EBF0A3E02404F024
:1061F6009001EBE03400F0EBD3940840069001EDFB
:106206007408F0E4F50A9001EDE0FFE50AC39F503B
:10621600181254BA850A82758300125521E50A12AE
:1062260055A7125498050A80DDE4F50AE50AC394D9
:106236002040030262BDE4F50B9001EDE0FFE50BA3
:10624600C39F501AE50B1255A71255DC250AF9EE25
:106256003AFAE50B25E0FF125D9E050B80DB900107
:10626600EAE01255851273AC9001EB1255141273C5
:10627600AC9001EBE025E025E0FF9001EDE0FEC4E7
:106286003354E024F04F1254CD1273AC12548512DD
:106296006E2D12547C1273AC125485126E2DEF20A3
:1062A600E7F69001ECE004F070069001EBE004F0F4
:0762B600050A050A0262322D
:0162BD0022BE
:0775FD009001E3EF1255CFEE
:107604001254B912820C9001E9EFF0C364809480A3
:1076140040449001E3E030E01E1255319001EEC980
:1076240012549A125C7A9001E9E024FCF075F0049B
:1076340012556450E4801C1255319001EEC9125465
:107644009A1261CC9001E9E024F8F075F008125523
:067654006450E41200295D
:01765A00220D
:09834300D28C758CEFE4F58A225E
:10815D00D2CAD2ADD2BDE4F5C975C804C2CF75CDB2
:0C816D00B8F5CC7F0C7825E4F608DFFCA8
:0181790022E3
:03000B000282FF6F
:0D82FF00C2AF758CDC758A00C28DD2AF3223
:03002B00026490DC
:10649000C0E0C083C082C0D0C2AF75CDB875CC009B
:1064A000C2CFD3E5269401E525648094804008E5B9
:1064B00026152670021525D3E5289401E52764806A
:1064C00094804008E528152870021527D3E52A9402
:1064D00001E529648094804008E52A152A70021598
:1064E00029D3E52C9401E52B648094804008E52CA9
:1064F000152C7002152BD3E52E9401E52D648094A4
:10650000804008E52E152E7002152DD3E53094013C
:10651000E52F648094804008E53015307002152F17
:10652000D3900329E09401900328E09400400CA349
:10653000E024FFF0900328E034FFF0D390032BE039
:10654000940190032AE09400400CA3E024FFF09013
:10655000032AE034FFF09002FBE0D394014003E013
:0D65600014F0D2AFD0D0D082D083D0E03282
:10333600FFFF00FFFF000130000131B40132000140
:1033460033780134000135B401360001377801388D
:10335600000139B4013A00013B78013C00013DB45B
:10336600013E00013F78FFFFFFFFFF00FFFF000166
:1033760030000131B40132000133900134000135CF
:10338600B40136000137900138000139B4013A0022
:10339600013B90013C00013DB4013E00013F90FF1E
:1033A600FFFFFFFF007FFF000130000131B4013253
:1033B6000001333C0134000135B401363C01377855
:1033C600FFFFFF555500555500FFFF01FFFF0101A7
:1033D60030780131B40132500133780134000135BF
:1033E600B4013600013778FFFFFFFFFF007FFF00C3
:1033F6000130000131B401320001334801340001CB
:1034060035B4013648013790FFFFFF7FFF00FFFF0D
:103416000001300001315A01320001339001345A63
:103426000135B4013600013790FFFFFFFFFF007F33
:10343600FF007FFF017FFF017FFF027FFF02013058
:10344600000131B401320001333C01340001355A28
:1034560001363C01377801385A0139B4013A3C014A
:103466003B78FFFFFF7FFF007FFF007FFF017FFFAD
:1034760001FFFF027FFF0201300001315A013200D5
:1034860001333C01345A0135B401360001373C01A1
:1034960038000139B4013A3C013B78FFFFFF7FFF5A
:1034A60000FFFF007FFF017FFF017FFF027FFF021A
:1034B60001300001315A01320001337801345A01DA
:1034C60035B401360001373C01385A0139B4013AA6
:1034D6003C013B78FFFFFF7FFF007FFF007FFF017E
:1034E600FFFF017FFF027FFF0201300001315A0119
:1034F600320001333C01345A0135B401360001373C
:103506007801380001395A013A3C013B78FFFFFF48
:10351600FFFF007FFF007FFF017FFF017FFF027F2C
:10352600FF020130000131B4013200013348013499
:103536000001355A01364801379001385A0139B42D
:10354600013A48013B90FFFFFF7FFF007FFF007FAE
:10355600FF017FFF01FFFF027FFF02013000013103
:103566005A01320001334801345A0135B40136009C
:103576000137480138000139B4013A48013B90FF50
:10358600FFFF7FFF00FFFF007FFF017FFF017FFF3F
:10359600027FFF0201300001315A013200013390EF
:1035A60001345A0135B401360001374801385A0151
:1035B60039B4013A48013B90FFFFFF7FFF007FFFD0
:1035C600007FFF01FFFF017FFF027FFF0201300046
:1035D60001315A01320001334801345A0135B40130
:1035E600360001379001380001395A013A48013B4B
:1035F60090FFFFFF7FFF007FFF0001300001315A7F
:1036060001320001333C01345A0135B40136000160
:10361600373C01380001395A013A3C013B78013CFC
:103626005A013DB4013E3C013F78FFFFFF7FFF009A
:103636007FFF0001300001315A0132000133480199
:10364600345A0135B40136000137480138000139D2
:103656005A013A48013B90013C5A013DB4013E48AB
:10366600013F90FFFFFF00021500121F0022150008
:10367600321FFFFFFF00022000123000222000321E
:1036860030FFFFFF000432462E40080A18261D248C
:1036960016261A240022080134550135B0FFFFFF13
:1036A60000222E0134550135B0FFFFFF00322E01F6
:1036B6003007013160FFFFFF00320801300701319A
:1036C60060FFFFFF0022380134550135B0FFFFFFD0
:1036D6000160C0016381016682016983008A01017C
:1036E6006C03016D00FFFFFF0160800163C101668D
:1036F60082016983009A41016C0C016D00FFFFFF96
:103706000160800163810166C201698300AA8101AB
:103716006C30016D00FFFFFF01608001638101666F
:10372600820169C300BAC1016CC0016D00FFFFFFD1
:10373600016080016381016682016983008A31002C
:103746009A7100AAB100BAF1016C00016DE4FFFFA5
:10375600FF01110119012101290114011C01240194
:103766002C01100118012001280113011B0123015E
:103776002B016101640167016A83848182939491BC
:0937860092A3A4A1A2B3B4B1B254
:105EC20090033EE04404FF9001E4F09001E1E0FB26
:105ED200A3E0FAA3E0900001F9122A855401FE25FD
:105EE200E04F9001E4F09001DEE0FBA3E0FAA3E0D2
:105EF200F922900002122A85C454F04402FB229037
:105F0200033EE0FF9001E4F09001E12290000112D3
:105F12002A855401F925E0FE90033EE02E2235F059
:105F22009001E1FA74FFF0A3EAF0A3E9F0229000F5
:105F320001122A85FF9001E1E0FBA3E0FAA3E0222F
:105F4200122A6C540125E0FEEF4E2225E02457F57B
:105F520082E43437F583E493FA740193FBEAFD2279
:105F62009001DDE0540F24FFFFE434FFFE7C0012B9
:105F72002AC49001E2EE8FF0122B2B9001DE221246
:105F82002A8554034480900210F02290369293FEA8
:105F92006F22122A6CFF9001E122A3E0900210F01E
:105FA200E4FDFF22900001022A8590033EE04404B2
:105FB20022900002022A8590368A93FE6F2225E003
:085FC2002477F582E434372254
:05789E009001D5EFF0A0
:1078A300E4A3F0FBFDFF126E2DEF540FFFBF0F1388
:1078B3009001D5E0C454F0FBE4FDFF126E2D90015E
:1078C300D6EFF09001D6E0FE70037F0222EE54E083
:1078D3009001D6F0E0C4135407F0D3940340047F1F
:0578E3000080027F019E
:0178E800227D
:076D08009001E4EB125F288B
:106D0F00EF75F004A4247FF9743735F0A3125F25D3
:106D1F009001E4125EEB122B57FFAEF09001EAEEFA
:106D2F00F0A3EFF0F47002EEF4126D67125F9C1295
:106D3F0073AC9001E5E475F003122B2B9001E41274
:106D4F005EEB122B57FF9001EAE5F0F0A3EFF01284
:086D5F006D67125F9C0273AC2A
:106D67009001E7E0FBA3E475F001122B41A9F0FACB
:106D7700122A6CFB9001EAE0900210F0E4FDFF128A
:106D870073AC9001E7E0FBA3E475F001122B41A976
:0A6D9700F0FA122A6CFB9001EA22C8
:074594009001DEEB125F282D
:10459B00EF122E4345C71145EE22461631467133B5
:1045AB0046BA3447184145C79145EEA24616B14667
:1045BB0071B346BAB44718C1000047A890033EE058
:1045CB004408125F05125EEB122A6C125EDE122A91
:1045DB006CFD9001E430E006E04404F08002E0F072
:1045EB00ED801D125F01125EEB125F42125EE41250
:1045FB002A6C125EFA741B124881125EC2125FA6FD
:10460B00125EFA90021074190247A190033EE04427
:10461B000C125F05125EEB122A6C125EDE1248184A
:10462B006006125EE8124832125F01125EEB125FF7
:10463B00A6125F45125EE41247A96006125EE812ED
:10464B004800125FAC125F05125F3A900002125ED7
:10465B00DA1247C670030247A8125EE8125EF490A6
:10466B000210EE0247A1125F01125EEB125F4212C3
:10467B005EE41248186006125EE8124832125EC2FF
