:030000000289046E
:0C890400787FE4F6D8FD75816702894B8E
:0BA69100E0248CF582E43402F5832203
:10A4B100C2BCD2AC759852758DFAE4F58BD28E90F0
:06A4C10002DCF0A3F02212
:10A5C8009002DCE0FFA3E0B507037F00227F0122B1
:10A44F009002DC12A691E0FF9002DCE004F0E0C382
:08A45F0094504002E4F0D2AC7D
:01A4670022D2
:080003003099FD8F99C299228A
:03002300029FAE8B
:109FAE00C0E0C083C082C0D0309819C2989002DD44
:109FBE0012A691E599F09002DDE004F0E0C3945012
:0D9FCE004002E4F0D0D0D082D083D0E03249
:109B0C00E0F580D2A3E4900320F0A3F022C39003ED
:109B1C0020E0940022900320E004F0229001E4E085
:109B2C00FBA3E0FAA3E0F922EDF0A3EBF0E4FFC213
:0C9B3C00AF22D2B6D2B77580FFD2AF22A4
:108FDD009001F3129B3412A7059001F3E0FF700688
:108FED00C2B7C2B68012EFB40106C2B7D2B68008BE
:108FFD00EFB40204D2B7C2B69001F4129B0C129BCF
:10900D0019500BA3E004F070F5129B2180F0C2A360
:10901D009001F5E0F580C2A1129B11129B19500B26
:10902D00A3E004F070F5129B2180F0D2A112A705E8
:04903D00129B3E2222
:108AA1009001D8129B3412A7059001D8E0FF7006FF
:108AB100C2B7C2B68012EFB40106C2B7D2B68008FF
:108AC100EFB40204D2B7C2B69001D9E0FF04F08F2F
:108AD10080129B0F129B19500BA3E004F070F5124A
:108AE1009B2180F0C2A39001DAE0FBA3E475F001C1
:108AF100122763A9F0FA12268EF580C2A1129B11EA
:108B0100129B19500BA3E004F070F5129B2180F029
:108B1100D2A19001DDE014F070AE12A705129B3EC8
:018B21002231
:0B8990009001F2EFF0A3EDF0A3EBF07C
:10899B00C2AF12A705E49001F2F0A3E0FF7006C28C
:1089AB00B7C2B68012EFB40106C2B7D2B68008EFD9
:1089BB00B40204D2B7C2B69001F4129B0C129B19ED
:1089CB00500BA3E004F070F5129B2180F0C2A3754D
:1089DB0080FF129B11129B19500BA3E004F070F552
:1089EB00129B2180F0C2A29001F5E580F0129B1141
:1089FB00129B19500BA3E004F070F5129B2180F031
:108A0B00D2A212A705D2B6D2B7D2AF9001F5E0FF32
:018A1B002238
:109338009001E4EBF0A3EAF0A3E9F0129B281227CE
:1093480079F47003E5F0F46038122779FBAAF0EAA3
:10935800FDE4FF128990129B289000021226A7FCB8
:109368006F6012122779FBAAF0EAFD9001F5ECF084
:10937800E4FF128FDD9001E5E475F00312274D80BC
:02938800BA2207
:01A7480022EE
:10544D002562782025627820256278000A3C523E3C
:10545D0025303262785B25303262785D3D25303201
:10546D0062780025627820256278002562782025F3
:10547D0062782025627820256278200025316278B7
:10548D0020253162782025316278200052656164D3
:10549D004173696342797465203D3D202562782012
:1054AD000A0063682562643A2562642000636825FA
:1054BD0062643A2562642063682562643A256264F9
:1054CD00200063682562643A256264206368256262
:1054DD00643A2562642063682562643A256264201B
:1054ED000063682562643A256264206368256264FE
:1054FD003A2562642063682562643A2562642063FC
:10550D00682562643A256264200063682562643A06
:10551D002562642063682562643A256264206368AD
:10552D002562643A2562642063682562643A2562C7
:10553D00642063682562643A2562642000256264F4
:10554D0020000A203D3D3D3D3D3D3D3D2050414724
:10555D00452025623278203D3D3D3D3D3D3D3D3D63
:10556D003D3D3D3D0A002562327809000A00253196
:10557D006278202531627820636825316278206356
:10558D00682531627820636825316278206368254B
:10559D003162782000656E726563616C6C00656EBA
:1055AD00667265657A6500656E686D6972726F7297
:1055BD0000656E766D6972726F7200656E656E68EC
:1055CD00616E636500656E626C616E6B00656E6227
:1055DD006F756E6400656E626C696E6B00646973E5
:1055ED00726563616C6C00646973667265657A657A
:1055FD0000646973686D6972726F720064697376A5
:10560D006D6972726F7200646973656E68616E6345
:10561D006500646973626C616E6B00646973626FBF
:10562D00756E6400646973626C696E6B003D3D3D1F
:10563D003D3D20466F726D6174203A206368303DA8
:10564D005B2562785D206368313D5B2562785D2066
:10565D006368323D5B2562785D206368333D5B2571
:10566D0062785D203D3D3D3D3D0A00256278202557
:10567D0062782063682562783A2562782063682510
:10568D0062783A2562782063682562783A256278D7
:10569D002063682562783A256278200033340062F1
:1056AD007573770079766D6978006873636F6D0037
:0E56BD006D6F646500370038000102040810AC
:046F5700410383006F
:10592E00A3F0A3E4F0A37400F0A37408F0A3E4F0D2
:10593E00A37400F0A3740DF0A3E4F0A37400F0A31D
:10594E007409F0A3E4F0A37400F0A3740EF0A3E4C2
:10595E00F0A37400F0740AA3F0A3E4F0A322A3F062
:10596E00A3E4F0A37400F0A37412F0A3E4F0A37404
:10597E0000F0A37417F0A3E4F0A37400F0A3741363
:10598E00F0A3E4F0A37400F0A37418F0A3E4F0A362
:10599E007400F07414A3F0A3E4F0A322A3F0A3E424
:1059AE00F0A37400F0A37439F0A3E4F0A37400F034
:1059BE00A3743DF0A3E4F0A37400F0743AA3F0A333
:1059CE00E4F0A322A3F090039EE0FBA3E0FAA3E091
:1059DE00F9229001E074FFF0A37454F074AFA3F0B9
:1059EE00A3E4F0A3227400F0A3740FF0A3E4F0A3D9
:1059FE007400F0740BA3F0A3E4F0A3227400F0A3E0
:105A0E007419F0A3E4F0A37400F07415A3F0A3E4EA
:105A1E00F0A3227400F0A3743EF0A3E4F0A374008C
:105A2E00F0743BA3F0A3E4F0A3229001E074FFF026
:105A3E00A37454F074BAA3F0A3E4F0A3229001E08F
:105A4E0074FFF0A37455F0744AA3F0A3E4F0A322FC
:105A5E007400F07408A3F0A3E4F0A3227400F074B1
:105A6E0012A3F0A3E4F0A3229001E074FFF0A322AE
:105A7E00EBF0A3EAF0A3E9F09001E07401F0A322A9
:105A8E00A3F0A37401F0A37403F0746EA3F0A374D7
:105A9E0001F0A322A3F0A3E4F0A322A3F0A3E4F069
:105AAE00A322A3F0A3E4F0A322A3F0A3E4F0A32285
:105ABE00A3F0A3E4F0A322FFE02477F582E43403FD
:105ACE00F583EFF022E0FF9001E17401F0A374037F
:105ADE00F0A37473F07B017A03796E22A3F0A3E432
:105AEE00F0A322A3F0A3E4F0A322EBF0A3EAF0A329
:105AFE00E9F022900001E475F0010227A47BFF7A01
:105B0E00547959900326F022A3F0A3E4F0A322E0E7
:105B1E005401FB7D20222533F533A3E0540322E507
:105B2E00099056C693FFE508932F2212296F02267D
:0F5B3E008EA3F0A3E4F0A32212A7499001D52271
:108CFA009001DD125AF8A31259D7125B397002FF9C
:108D0A00229001E01259D7125B39B4200B9001E08E
:108D1A001259D7125B0180E99001E01259D7122942
:108D2A006FC003C002C0019001DD1259D712298F0A
:108D3A0080239001E01259D7125B39FEB42010E467
:108D4A001226D49001E01259D7125B017F0122EE5C
:108D5A0070037F01229001E01259D7125B0180D281
:069ACF009001DD125AF8BF
:109AD500E4F530F5319001DD1259D712268E60225A
:109AE5009001DDA3E475F001122763A9F0FA1226AF
:109AF5008EFF3395E0FEEF2531F531EE3530F5304B
:069B050080D3AE30AF3149
:019B0B002237
:01A7490022ED
:10963100E4F53390036EE05403125B2425E025E04A
:10964100125B24C454F0125B24C4333354C0253359
:10965100F53390036DE0B5070D900372E0B5330665
:10966100E490037DF02290037D7401F0900372E594
:0796710033F090036DEFF0F0
:0196780022CF
:1096C100125A767454F0744D1259657400F0744C4A
:1096D1001259A37400F0744D1259CB7400F0A374A5
:1096E1004EF0124B9CAB4DAD4CE4FF1289909003B0
:1096F10028EFF0E54C125B0BA3E54DF0124819057C
:069701004DE54DB54EDF01
:01970700223F
:109CA300125A767454F074701259EC7400F07455AF
:109CB300125A037400F0A37456F0124B9CAB56ADCA
:109CC30055E4FF128990900328EFF0E555125B0BE2
:079CD300A3E556F002481959
:109E5400125A767454F0744D125A1A7400F0744FF6
:109E6400125A317400F07450125A447400F0A374FE
:109E740051F0124B9C9001F5E551F0AB50AD4FE41D
:049E8400FF028FDD6D
:1093DA00E4F530F531F532F533C003C002125A769E
:1093EA007454F07478125A577400F07430125A6335
:1093FA007400F07431125A6F7400F07432125AA267
:10940A007400F0A37433F0D002D003124B9C900185
:0D941A00F5E533F0AB32AD31E4FF028FDD3C
:10967900E4F51CF51DF51EF51F125A767454F074A5
:1096890089125AA27400F0741C125AA97400F07459
:109699001D125AA97400F0A3741EF0124B9CAB1E44
:1096A900AD1DE4FF1289908F1F7BFF7A5479999041
:0896B9000326E51FF002481929
:036B0F0090039E52
:106B1200125A7E7403F0A3749EF07B017A0379A16A
:106B2200128CFAE4FB7D1FFF129D7E9003A1125985
:106B3200D7127F68EE6003026C37EF24FE603614D2
:106B4200605A146078147003026BE4240460030238
:106B52006C371259E0125A5E7400F0740D1259D259
:106B6200124B9CAB0DAD08E4FF128C89E5089056E0
:106B7200C693026C2F125A38125A5E7400F0740DCA
:106B8200125AB07400F07409125AB07400F0740E04
:106B92001259D2126C38125B2D026C2F125A767473
:106BA20054F074CF12592E7400F0A3740F1259D3FB
:106BB200126C38AB0FAD0A126C4E026C2F125A7661
:106BC2007454F074EE12592E1259F37400F0A37437
:106BD200101259D3126C64126C4EFFE50B932F0204
:106BE2006C2F125A767455F0A3741712592F12593A
:106BF200F37400F07410125AB77400F0740C125A45
:106C0200B77400F0A374111259D3126C64E4FF122A
:106C12008C89AB11AD0CE4FF128C89125B2DFFE560
:106C22000A932FFFE50B932FFFE50C932FFD7B01BA
:056C3200E4FF129D7E4D
:106C370022124B9CAB0DAD08E4FF128C89AB0EAD55
:106C470009E4FF128C8922E4FF128C89E50990562A
:106C5700C693FFE508932FFFE50A932F22124B9C5B
:106C6700AB0DAD08E4FF128C89AB0EAD09E4FF1242
:106C77008C89AB0FAD0AE4FF128C89AB10AD0B22E8
:0FA5E800E4FB7D1FFF129D7E7DFFE4FF029F229B
:037204009003A450
:10720700125A7E7403F0A374A4F07B017A0379A762
:10721700128CFA9003A71259D7127F68EE60030207
:107227007312EF24FE6030146056146071147003FB
:107237000272C9240460030273121259E0125A6AD7
:107247007400F0A37417F09003A41259D7124B9C43
:10725700AB17AD1202730D125A38125A6A7400F046
:107267007417125ABE7400F07413125ABE7400F0E9
:10727700A37418F09003A41259D712732D02730D3B
:10728700125A767454F074CF12596C7400F0A374C8
:1072970019F09003A41259D712731302730D125ADF
:1072A700767454F074EE12596C125A0A7400F0A3F3
:1072B700741AF09003A41259D712731312733E0273
:1072C700730D125A767455F0A3741712596D125A2A
:1072D7000A7400F0741A125AEA7400F07416125AFB
:1072E700EA7400F0A3741BF09003A41259D7127329
:1072F7002DE4FF128D6AAB19AD1412733EE4FF1231
:0B7307008D6AAB1BAD16E4FF128D6A0F
:1073120022124B9CAB17AD12E4FF128D6AAB18AD73
:1073220013E4FF128D6AAB19AD1422124B9CAB17FA
:10733200AD12E4FF128D6AAB18AD1322E4FF128D79
:067342006AAB1AAD152232
:10A50800125A4B7400F0A37463F0124B9CAD63E4D1
:04A51800FF029F227D
:10947300E4F5587BFF7A55794F900326E558F012AF
:109483004819E4F557AB57AD58E4FF1289909003A0
:1094930026EFF07BFF7A5579731248190557E55784
:1094A300540F70097BFF7A557979124819E5577083
:0A94B300D40558E558C3940340B9EE
:0194BD00228C
:1092E200C003C002C001125A767455F0747B125A40
:1092F200F17400F07459125AF17400F0745A125A4F
:109302008E7403F0746F125A9A7403F0A37470127D
:109312005A9B7403F0A37471F0D001D002D00312EF
:109322004B9CE559C454F0FFE55A540F2FF55912DE
:069332005AE3FF0264ACE7
:065B4D009003AA125AF8B1
:105B5300E4F52E7B019001E004F0A37403F0A37439
:105B6300AAF07A0379AD128CFA9003AD1259D712C9
:105B73007F688F2F125A86125D459003AD1259D755
:105B8300129ACF8E268F277A5579A2125D22B527D6
:105B93000AEEB52606752880025C227A5579AB1287
:105BA3005D22B5270AEEB52606752840025C227AE7
:105BB3005579B4125D29B52709EEB5260575282058
:105BC300805D7A5579BE125D29B52709EEB52605A4
:105BD300752810804A7A5579C8125D30B52709EEC9
:105BE300B5260575280880377A5579D2125D30B508
:105BF3002709EEB5260575280480247A5579DA122B
:105C03005D37B52709EEB5260575280280117A554B
:105C130079E2125D37B5270DEEB5260975280175B2
:105C23002901025CCC7A5579EA125D3EB5270AEE6A
:105C3300B52606752880025CAF7A5579F4125D3E6D
:105C4300B52709EEB5260575284080607A5579FE9B
:105C5300125D56B52709EEB52605752820804D7AC5
:105C6300567909125D56B52709EEB5260575281034
:105C7300803A7A567914125D5DB52709EEB526058B
:105C830075280880277A56791F125D5DB52709EEBE
:105C9300B5260575280480147BFF7A567928129A55
:105CA300CFEFB5270CEEB52608752802E4F5298059
:105CB300187BFF7A567931129ACFEF65277003EE7E
:105CC3006526705A752801F529125A86125D45EF2B
:105CD30060339003AD1259D712268EB477EB900040
:105CE300011226A7B469E29000021226A7B46ED966
:105CF300E92403F9E43AFA127F68742A252EF8A6F8
:105D030007052E80C4E52E60152429F8E6FFC39508
:0E5D13002F5007AB29AD28129E1F152E80E7DA
:105D2100227BFF129ACFEF227BFF129ACFEF227BC9
:105D3100FF129ACFEF227BFF129ACFEF227BFF1245
:105D41009ACFEF227403F0A374AAF07B017A03794E
:105D5100AD128CFA227BFF129ACFEF227BFF129AAF
:035D6100CFEF225F
:10A59200125A4B7400F0A37430F0124B9CAF30028D
:02A5A200A51CF6
:109B8400E4FF1294BEC0077F011294BEC0077F0297
:109B94001294BEC0077F031294BE900329EFF09085
:109BA4000328D0E0F0900327D0E0F0900326D0E023
:0A9BB400F07BFF7A56793A02481957
:037929009003B018
:10792C00125A7E7403F0A374B0F07B017A0379B31E
:10793C00128CFA9003B31259D7127F68EE600302CF
:10794C007A1BEF24FE602B146053146079240360BF
:10795C0003027A1B1259E07400F07439125B16742E
:10796C0000F0A3743DF09003B01259D7127A3A028A
:10797C007A16125A767454F074BA1259AA7400F02A
:10798C00A3743EF09003B01259D7127A3AE4FF1266
:10799C009F52E53EC454F0FBAD3A027A16125A7669
:1079AC007454F074CF1259AA125A217400F0A374B3
:1079BC003FF09003B01259D7127A1CE53FC454F033
:1079CC00FBAD3B027A16125A767454F0A374EE1285
:1079DC0059AB125A217400F0743F125B167400F00C
:1079EC00743C125B3F7400F0A37440F09003B0122F
:1079FC0059D7127A1CE53FC454F0FBAD3BE4FF129F
:0F7A0C009F52E540C454F0FBAD3CE4FF129F5283
:107A1B0022124B9CE53DC454F0FBAD39E4FF129FA1
:107A2B0052E53EC454F0FBAD3AE4FF129F522212D2
:0B7A3B004B9CE53DC454F0FBAD39222C
:039108009003B61B
:10910B00125A7E1291551259D7127F688F5B125AE1
:10911B00861291551259D7127F688F5C7F0412A764
:10912B00427F0312A7457F0512A3839003B6E0F994
:10913B00A3E0FAA3E090039AC9125AF9AB5CAD5BBA
:0A914B007F0112922B7F05029D4860
:109155007403F0A374B6F07B017A0379B9128CFA23
:049165009003B92298
:10970800755E01E4F55D7473255DF582E43403F557
:1097180083E030E415746E255DF582E43403F58347
:10972800E0FDE4FF129F22E4F55E055DE55DC3946C
:109738000440D3E55E600FE4FB7D1FFF129D7E7D34
:06974800FFE4FF129F2266
:01974E0022F8
:1070B600C003C002C001125A767456F07478125B8F
:1070C6003F7400F0A37431F0A3E4F0A37400F074ED
:1070D60032125A8E7403F0A37473125A9B7403F01F
:1070E600A3746F125A9B7403F0A37474125A9B74A0
:1070F60003F0A37470125A9B7403F0A37475125AAA
:107106009B7403F0A37471125A9B7403F0A37476F4
:10711600F0D001D002D003124B9CE531C454F0FFED
:1071260090036AE0FEC433333354802FFFE53254B4
:107136000F2F90037CF0900373E090036E125AC5F4
:10714600900374E090036F125AC5900375E0FF90A8
:107156000370125AC6900376E0FF900371125AC666
:10716600900377125B1DE4FF129B48900378125B35
:107176001D7F01129B48900379125B1D7F02129BB3
:107186004890037A125B1D7F03129B487B017A03AA
:10719600797712734890037C125AD3125155900393
:1071A6007CE0FF125AE31264ACE4F53074732530C8
:1071B600F582E43403F583125B1DAF30129E1F0582
:1071C60030E530C3940440E4E4F541F542F54375F7
:1071D60044057F0112A6CF90037CE0FF1296317F13
:1071E60008129E88E4FF12A43512993E7B017A03A9
:0D71F600797312440090037CE0900383F055
:017203002268
:108E3F00E4FF1294BEEFB40202C32290036AE0B5BE
:108E4F000702D32290036AEFF0E0C4333333548028
:108E5F00FF90036DE0547F4FF07F01129D48900308
:108E6F006AE0FF1290417B017A0379771273489081
:108E7F00036D125AD312515590036DE0FF125AE34E
:108E8F001264ACE4FF12A43512993E7B017A037988
:088E9F007312440012A2B1D3CA
:018EA70022A8
:10A4C700125A767455F0A3744A125A9B7403F0A378
:06A4D700746BF0024B9CC7
:050026007F01029D486E
:10A56C009056A9E493FF1200039056A9A3E493FF1D
:03A57C00020003D7
:037E79009001D5A0
:107E7C00125A7E7401F0A374D5F07B017A0179DA81
:107E8C00128CFA9001DA1259D7129ACF9001D8EECF
:107E9C00F0A3EFF07A5679AC127F4CB50611A3E043
:107EAC00B5070C9001D51259D71293DA027F497A93
:107EBC005679B1127F4CB50611A3E0B5070C125BD5
:107ECC00461259D712A592027F497A5679B7127F7A
:107EDC0056E0B50618A3E0B50713125B461259D746
:107EEC001270B612A2B1E4FF12A6CF80507A567966
:107EFC00BD127F56E0B50610A3E0B5070B125B462A
:107F0C001259D712A4C780357A5679C2127F5FE016
:107F1C00B5060FA3E0B5070A900275E090028AF04F
:107F2C00801B7A5679C4127F5FE0B50610A3E0B5CA
:0F7F3C00070B129EF0900275E0FF129FDB7F0192
:107F4B00227BFF129ACF9001D8E0227BFF129ACFAF
:0D7F5B009001D8227BFF129ACF9001D8220E
:105F4B000D0A0050435400FFC8966432006275730B
:105F5B007720302031204131203131627573772029
:105F6B0030203120413220443779766D69782034E6
:105F7B00206D6F64652030206873636F6D20312056
:105F8B0031206368303A3130206368313A30302049
:105F9B006368323A3030206368333A3030206873AC
:105FAB00636F6D20312031206368323A31302063CA
:105FBB0068313A3030206368303A303020636833D0
:105FCB003A3030206873636F6D2031203120636865
:105FDB00313A3130206368303A3030206368323ADE
:105FEB003030206368333A3030206873636F6D2034
:105FFB00322032206368323A3130206368303A31D4
:10600B0030206368313A3030206368333A303020C7
:10601B006873636F6D20322032206368303A313001
:10602B00206368323A3130206368313A3030206374
:10603B0068333A3030206873636F6D203220322022
:10604B006368313A3130206368303A31302063680D
:10605B00323A3030206368333A3030206873636FE4
:10606B006D20322032206368303A31302063683142
:10607B003A3130206368323A3030206368333A303B
:10608B0030206873636F6D20322032206368313AA1
:10609B003130206368323A3130206368303A303027
:1060AB00206368333A3030206873636F6D20322081
:1060BB0032206368323A3130206368313A31302014
:1060CB006368323A3030206368333A30302068737B
:1060DB00636F6D20332033206368303A3130206397
:1060EB0068313A3130206368323A3130206368339B
:1060FB003A3030206873636F6D2031203120636834
:10610B00333A3030206368313A3030206368323AAA
:0A611B003030206368303A30302045
:106F5B00C1284403190000000041031D0041031E1A
:106F6B0000410318014103170241031501410316A8
:106F7B000041030C0042030D000042030F000042CE
:106F8B000311000042031300004102E0014102DF44
:096F9B000041031F004102DE0069
:1081E1007D017BFF7E007F26022668900006E0FA73
:1081F100A3E0FB7C00FFAE020226F874DF2FF582BC
:10820100E43401F583E02278E17C027D017B0122E7
:10821100900273E0240BF582E43402F583E530F03B
:10822100227D017BFF7E000226687C00AF03AE0247
:108231001226F8900006ECF0A3EDF022E4F0A3F092
:10824100A3F0A322E4FDFC900009E0F8A3E0F9A368
:10825100E0FAA3E0FBC302290E7D017BFF7E007FD4
:108261000E022668E4FCFD900009022932740B2FEE
:10827100F582E43402F583E0FF22900243E09003AB
:10828100182234FFFE7C007D060226F8900273E07E
:0A82910004F0227B017A0279E12259
:1080430012A5C8EF6401600302810B43E11012A47F
:108053004F8F30E530B40218900241E07012900265
:108063007304F090020BE530F09002417401F022AA
:10807300E5306403702D90020CE0FF64526004EF5E
:10808300B453209002DEE0701A900273E0FFD394A1
:108093000350109002DE7401F0740B2F128217123A
:1080A300828D22E530B40318900245E070121282EB
:1080B3001112828D9002457401F0E49002DEF022E9
:1080C300900245E0640170311282117B017A0279DA
:1080D3000B7D04125D64EF602C90030B7401F09030
:1080E300020CE09002E1F0E4A3F090020DE09002B4
:1080F30075F090030A7402F02212821112828DE04D
:0F810300D39408400A02A28BE4900313F0A3F078
:01811200224A
:09A6C6007BFF7A5F794B02A1E9E8
:0B9DEA009003D7EBF0A3EAF0A3E9F030
:109DF5009003D7E0FBA3E0FAA3E0F912268E6019E1
:109E05009003D7A3E475F001122763A9F0FA12268F
:099E15008EF564FF12000380D7F2
:019E1E002221
:10A28B00E4900241F0900245F0900273F090020BC3
:10A29B0012823E12823EF0A3F0A3F090030AF0A3C9
:06A2AB00F09002E1F02238
:09A6CF00EF6003C20122D2012256
:0CA68500C200C201C227E49003F0F022E2
:10A008009003DAEBF0A3EAF0A3E9F020001D900337
:10A01800DAE0FBA3E0FAA3E0F8AC02AD037BFF7A39
:0CA028005F794E122BAFEF7002D20022C5
:08938A009001D5EEF0A3EFF015
:109392009001D5E07002A3E0603DE49001D7F0A314
:1093A200F09001D7E0FEA3E0FFE4FCFD7B1BFAF99D
:1093B200F8D312290E40109001D8E004F070E29028
:1093C20001D7E004F080DA9001D6E024FFF09001AA
:0793D200D5E034FFF080B983
:0193D9002271
:1062FE0090000012823D74C8F0A37464F0E4A3F021
:10630E0012950912A5F712A68512A28BE4FF12A50B
:10631E00D8E4FF128A1C7F4D124E35754700754822
:10632E0028754901754AE090030D7401F0A374E0DD
:10633E00F0754B00754C04A37407F0A304F07F981E
:10634E0012A730EF5410FFC4540F900005F01280C6
:10635E004390030BE0B40106128294127E799003EF
:10636E000BE0B4010312A28B302707128E3F5002AE
:10637E00C22712A5C8EF6009900003E0754300F52F
:10638E0044E54464014543700DF543F54490000423
:10639E00E0754100F542E5426401454170279002E7
:1063AE0041E0702112955312780B12974F1290A55F
:1063BE0090028AE0FF900288E06F6003124E3575FE
:1063CE004100754214E54C6401454B701290024D2C
:1063DE00E0C394014009754B00754C041286AF90D2
:1063EE000316E07041E54864014547703990024D4F
:1063FE00E0703390030CE0FF74017E00A807088064
:10640E0005C333CE33CED8F9FF129BF890030CE0C0
:10641E0004F0754700754828E0C3940C4002E4F080
:10642E009003167401F090030DE07004A3E0640174
:10643E00700F90022DF0A3F090030D04F0A374E002
:10644E00F0129EBC90030FE07004A3E06401703F55
:10645E00900005E0FF1295E7E490030FF0A3F080A3
:10646E002E9002DFE0B4012CC3900312E09414903E
:10647E000311E094004018900246E0FF900280E085
:10648E00FD1291CAE49002DFF0900313F0A3F043E3
:0E649E00E11080CDE4900311F0A3F002635CE6
:10950900E4F5B8F5A8F58775E127F5D0758922F551
:109519008812A4B112A6D812A3DFE4F58EF5A2D25F
:1095290099D2AF00F593F5944391035392FCF595C5
:10953900F596F5B1F5B2F5B375B404C2E9C292C2B4
:0A95490093C294C295C296C2972205
:088113009001DDEFF0A3EDF097
:10811B0078DF7C017A5F79527F061282229001DD33
:10812B00E014603014604714605E146075147003C3
:10813B000281C7240560030281E0E4F5EA9001DEC9
:10814B00E0FF7004F5DA800375DA421281FCF5FA70
:10815B00E4F5F222E4F5EB9001DEE0FF7004F5DBD1
:10816B00800375DB421281FCF5FBE4F5F322E4F5A9
:10817B00EC9001DEE0FF7004F5DC800375DC42124D
:10818B0081FCF5FCE4F5F422E4F5ED9001DEE0FF73
:10819B007004F5DD800375DD421281FCF5FDE4F51D
:1081AB00F522E4F5EE9001DEE0FF7004F5DE8003CE
:1081BB0075DE421281FCF5FEE4F5F622E4F5EF9054
:1081CB0001DEE0FF7004F5DF800375DF421281FCF6
:0581DB00F5FFE4F5F7DB
:0181E000227C
:0FA5F700E4F5E9F5F975D90475D84043A680223B
:054E3500900006EFF003
:104E3A0078077C007A5F795812825A78157C007A52
:104E4A005F796612825A78237C007D017BFF7A5F44
:104E5A0079747E007F08122668782B7C007A5F7945
:104E6A007C7F0712822278327C007A5F79831281F2
:104E7A00E178587C007A5F79A91281E1787E7C001A
:104E8A007D017BFF7A5F79CF1281E578A47C007D72
:104E9A00017BFF7A5F79F51281E578CA7C007D0192
:104EAA007BFF7A60791B1281E578F07C007D017BBB
:104EBA00FF7A6079411281E578167C017D017BFFDA
:104ECA007A6079671281E5783C7C017D017BFF7A03
:104EDA0060798D1281E578627C017D017BFF7A60C1
:104EEA0079B31281E578887C017D017BFF7A60794C
:104EFA00D91281E578AE7C017D017BFF7A6079FF6A
:104F0A001281E5E49001D4F0900006E0FE24B6FF99
:104F1A00C3940A400674FC2FFF8005E4900276F0E1
:104F2A00900288EEF0EFB408005062904F3CF828E7
:104F3A002873024F54024F59024F60024F66024FC4
:104F4A006D024F7B024F87024F8F90031E8041E410
:104F5A0090031EF0803DE49002448019900244744C
:104F6A000180129002437401F09003187404F080D7
:104F7A0022E4900243F090031804F080169002761F
:104F8A007414F0800E9002767441F0800690031833
:104F9A007401F0900276E0FFC39401400890031D6B
:104FAA00EFF002503090031EE06401704990024411
:104FBA00E0601B12827BB4010B7402F09003177439
:104FCA0004F080237402F090031714F080191282FF
:104FDA007BB4010B7404F09003177402F080087418
:104FEA0001F090031704F0900318E0C454F0FF9006
:104FFA000317E04F802C900244E06005900318806C
:10500A000C12827BB4010B7404F09003177402F043
:10501A0080087401F090031704F0900318E0FFC4AD
:10502A0054F090031DF0900315E06025129A0C12BB
:10503A0082087A00790712513C7A00791512513C9C
:10504A007A00792B7E007F07122668128294127EDC
:10505A007990031DE01229DE50811050A71250AB3F
:10506A001450832050A92150BD24508C4050B44183
:10507A0050A742000050CF80091282087A0079585E
:10508A0080071282087A0079321281E59001F5745C
:10509A0003F07B0F7D01E4FF128FDD8032801D80DB
:1050AA00121282087A0079F080221282087A017933
:1050BA001680191282087A0079CA80101282087A38
:1050CA000079A480071282087A0079321281E5E415
:1050DA00900315F0128294127E7990031DE0122932
:1050EA00DE510A10511412511C14510C205118216E
:1050FA00512724511040512041512B420000513672
:10510A008000E4FF8012E4FF80197F01800A7F019A
:10511A0080067F0180027F01128C16800F7F01803A
:10512A00027F01128C169001D47401F09001D4E030
:01513A00FF75
:10513B00227E007F0E1226687B017A0279E1127EB5
:0A514B007978E17C027D017B0122EE
:029FDB00AB07D2
:109FDD00E4FFFEEBC3943D4021EBD39461501BEBAA
:109FED0024C3FFEE128283AA07EB24C3FFE412827F
:0A9FFD0083AE05AF021281137F014D
:01A007002236
:10955300E4FBFA900006F0FD7F90129D11EEC4F833
:1095630054F0C868FEEFC4540F48FFEEC4F854F03B
:10957300C868FAEFC4540F48FB7C007D0A1281F6D9
:10958300EF2430900220F0AE02AF037C007D0A127C
:0995930026F8ED2430900225F0C9
:01959C0022AC
:10780B0090000612823D12293E00000000E4FF1298
:10781B00A363900006EEF0A3EFF0900006E0FEA34A
:10782B00E0FF1282657F6E7E021282454042E47F4A
:10783B00A57E03FDFC900009E0F8A3A3A3E0D312FF
:10784B00290E9000095020E0F8A3A3A3C374A59BB5
:10785B00FF74039AFEE499FDE498FCE47B707A01D3
:10786B00F9F81227F1802B12293E00030AE8803128
:10787B007FF37E01128245401E900006E0FEA3E0DE
:10788B00FF746E9FFF74029EFE7C007DD21226E673
:10789B00E4FD128268800A90000912293E0000F272
:1078AB0094E47B64FAF9F8900009E0FCA3E0FDA3F3
:1078BB00E0FEA3E0FF12287C900006EEF0FAA3EFA7
:1078CB00F0FB128265D3EB940FEA9427400A9000E9
:1078DB00067427F0A3740FF0900006E0FAA3E0FB08
:1078EB007C037DE81281F6EF243090021AF07C03C2
:1078FB007DE812822D7D641281ECEF243090021909
:10790B00F07D6412822B7D0A1281ECEF2430900201
:0D791B0018F07D0A12822B2430900217F024
:01792800223C
:108EA80090020B7402F0A37432F0A37450F0A37410
:108EB80030F0A37439F0A37461F0A37420F0A374A4
:108EC80003F0E4A3F0900007F0900007E0FFD394CC
:108ED800075016900213E0FE12826EEE6F90021396
:108EE800F0900007E004F080E0E4900007F09000C4
:108EF80007E0FFD39408500E12826E120003900010
:068F080007E004F080E820
:018F0E002240
:10002E001010FFFFFFFFFFFFFFFFFFFFFFFFFFFFB0
:10003E00FFFFFFFFFFFFFFFFFFFFFFFFFFFFFFFFC2
:10004E00FFFFFFFFFFFFFFFFFFFFFFFFFFFFFFFFB2
:10005E00FFFFFFFFFFFFFFFFFFFFFFFFFFFFFFFFA2
:10006E00FFFFFFFFFFFFFFFFFFFFFFFFFFFFFFFF92
:10007E00FFFFFFFFFFFFFFFFFFFFFFFFFFFFFFFF82
:10008E00FFFFFFFFFFFFFFFFFFFFFFFFFFFFFFFF72
:10009E00FFFFFFFFFFFFFFFFFFFFFFFFFFFFFFFF62
:1000AE00FFFFFFFFFFFFFFFFFFFFFFFFFFFFFFFF52
:1000BE00FFFFFFFFFFFFFFFFFFFFFFFFFFFFFFFF42
:1000CE00FFFFFFFFFFFFFFFFFFFFFFFFFFFFFFFF32
:1000DE00FFFFFFFFFFFFFFFFFFFFFFFFFFFFFFFF22
:1000EE00FFFFFFFFFFFFFFFFFFFFFFFFFFFFFFFF12
:1000FE00FFFFFFFFFFFFFFFFFFFFFFFFFFFFFFFF02
:10010E00FFFFFFFFFFFFFFFFFFFFFFFFFFFFFFFFF1
:10011E00FFFFFFFFFFFFFFFFFFFFFFFFFFFFFFFFE1
:10012E00FFFF1010FFFFFFFFFFFFFFFFFFFFFFFFAF
:10013E00FFFFFFFFFFFFFFFFFFFFFFFFFFFFFFFFC1
:10014E00FFFFFFFFFFFFFFFFFFFFFFFFFFFFFFFFB1
:10015E00FFFFFFFFFFFFFFFFFFFFFFFFFFFFFFFFA1
:10016E00FFFFFFFFFFFFFFFFFFFFFFFFFFFFFFFF91
:10017E00FFFFFFFFFFFFFFFFFFFFFFFFFFFFFFFF81
:10018E00FFFFFFFFFFFFFFFFFFFFFFFFFFFFFFFF71
:10019E00FFFFFFFFFFFFFFFFFFFFFFFFFFFFFFFF61
:1001AE00FFFFFFFFFFFFFFFFFFFFFFFFFFFFFFFF51
:1001BE00FFFFFFFFFFFFFFFFFFFFFFFFFFFFFFFF41
:1001CE00FFFFFFFFFFFFFFFFFFFFFFFFFFFFFFFF31
:1001DE00FFFFFFFFFFFFFFFFFFFFFFFFFFFFFFFF21
:1001EE00FFFFFFFFFFFFFFFFFFFFFFFFFFFFFFFF11
:1001FE00FFFFFFFFFFFFFFFFFFFFFFFFFFFFFFFF01
:10020E00FFFFFFFFFFFFFFFFFFFFFFFFFFFFFFFFF0
:10021E00FFFFFFFFFFFFFFFFFFFFFFFFFFFFFFFFE0
:10022E00FFFFFFFF1010FFFFFFFFFFFFFFFFFFFFAE
:10023E00FFFFFFFFFFFFFFFFFFFFFFFFFFFFFFFFC0
:10024E00FFFFFFFFFFFFFFFFFFFFFFFFFFFFFFFFB0
:10025E00FFFFFFFFFFFFFFFFFFFFFFFFFFFFFFFFA0
:10026E00FFFFFFFFFFFFFFFFFFFFFFFFFFFFFFFF90
:10027E00FFFFFFFFFFFFFFFFFFFFFFFFFFFFFFFF80
:10028E00FFFFFFFFFFFFFFFFFFFFFFFFFFFFFFFF70
:10029E00FFFFFFFFFFFFFFFFFFFFFFFFFFFFFFFF60
:1002AE00FFFFFFFFFFFFFFFFFFFFFFFFFFFFFFFF50
:1002BE00FFFFFFFFFFFFFFFFFFFFFFFFFFFFFFFF40
:1002CE00FFFFFFFFFFFFFFFFFFFFFFFFFFFFFFFF30
:1002DE00FFFFFFFFFFFFFFFFFFFFFFFFFFFFFFFF20
:1002EE00FFFFFFFFFFFFFFFFFFFFFFFFFFFFFFFF10
:1002FE00FFFFFFFFFFFFFFFFFFFFFFFFFFFFFFFF00
:10030E00FFFFFFFFFFFFFFFFFFFFFFFFFFFFFFFFEF
:10031E00FFFFFFFFFFFFFFFFFFFFFFFFFFFFFFFFDF
:10032E00FFFFFFFFFFFF1010FFFFFFFFFFFFFFFFAD
:10033E00FFFFFFFFFFFFFFFFFFFFFFFFFFFFFFFFBF
:10034E00FFFFFFFFFFFFFFFFFFFFFFFFFFFFFFFFAF
:10035E00FFFFFFFFFFFFFFFFFFFFFFFFFFFFFFFF9F
:10036E00FFFFFFFFFFFFFFFFFFFFFFFFFFFFFFFF8F
:10037E00FFFFFFFFFFFFFFFFFFFFFFFFFFFFFFFF7F
:10038E00FFFFFFFFFFFFFFFFFFFFFFFFFFFFFFFF6F
:10039E00FFFFFFFFFFFFFFFFFFFFFFFFFFFFFFFF5F
:1003AE00FFFFFFFFFFFFFFFFFFFFFFFFFFFFFFFF4F
:1003BE00FFFFFFFFFFFFFFFFFFFFFFFFFFFFFFFF3F
:1003CE00FFFFFFFFFFFFFFFFFFFFFFFFFFFFFFFF2F
:1003DE00FFFFFFFFFFFFFFFFFFFFFFFFFFFFFFFF1F
:1003EE00FFFFFFFFFFFFFFFFFFFFFFFFFFFFFFFF0F
:1003FE00FFFFFFFFFFFFFFFFFFFFFFFFFFFFFFFFFF
:10040E00FFFFFFFFFFFFFFFFFFFFFFFFFFFFFFFFEE
:10041E00FFFFFFFFFFFFFFFFFFFFFFFFFFFFFFFFDE
:10042E00FFFFFFFFFFFFFFFF1010FFFFFFFFFFFFAC
:10043E00FFFFFFFFFFFFFFFFFFFFFFFFFFFFFFFFBE
:10044E00FFFFFFFFFFFFFFFFFFFFFFFFFFFFFFFFAE
:10045E00FFFFFFFFFFFFFFFFFFFFFFFFFFFFFFFF9E
:10046E00FFFFFFFFFFFFFFFFFFFFFFFFFFFFFFFF8E
:10047E00FFFFFFFFFFFFFFFFFFFFFFFFFFFFFFFF7E
:10048E00FFFFFFFFFFFFFFFFFFFFFFFFFFFFFFFF6E
:10049E00FFFFFFFFFFFFFFFFFFFFFFFFFFFFFFFF5E
:1004AE00FFFFFFFFFFFFFFFFFFFFFFFFFFFFFFFF4E
:1004BE00FFFFFFFFFFFFFFFFFFFFFFFFFFFFFFFF3E
:1004CE00FFFFFFFFFFFFFFFFFFFFFFFFFFFFFFFF2E
:1004DE00FFFFFFFFFFFFFFFFFFFFFFFFFFFFFFFF1E
:1004EE00FFFFFFFFFFFFFFFFFFFFFFFFFFFFFFFF0E
:1004FE00FFFFFFFFFFFFFFFFFFFFFFFFFFFFFFFFFE
:10050E00FFFFFFFFFFFFFFFFFFFFFFFFFFFFFFFFED
:10051E00FFFFFFFFFFFFFFFFFFFFFFFFFFFFFFFFDD
:10052E00FFFFFFFFFFFFFFFFFFFF1010FFFFFFFFAB
:10053E00FFFF00000000FFFFFFFFFFFFFFFFFFFFB9
:10054E00FF000000000000FFFFFFFFFFFFFFFFFFA7
:10055E000000020202020000FFFFFFFFFFFFFFFF8D
:10056E000000020202020000FFFFFFFFFFFFFF007C
:10057E00000202000002020000FFFFFFFFFFFF006B
:10058E00000202000002020000FFFFFFFFFF00005A
:10059E0002020000000002020000FFFFFFFF000049
:1005AE00020200FFFF0002020000FFFFFF00000238
:1005BE00020000FFFF000002020000FFFF00000229
:1005CE000200000000000002020000FF0000020214
:1005DE0002020202020202020202000000000202F5
:1005EE0002020202020202020202000000000202E5
:1005FE0000000000000000000202000000000202E5
:10060E000000FFFFFFFF00000202000000000202D8
:10061E000000FFFFFFFF00000202000000000000CC
:10062E000000FFFFFFFF00000000000010100000A0
:10063E00000000000000000000000000FFFF0002AC
:10064E0002020202020202020202000000FF000287
:10065E000202020202020202020202000000000076
:10066E000002020000000000020202020000FF0071
:10067E0000020200FFFFFF00000202020000FF0066
:10068E0000020200FFFFFF00000202020000FF0056
:10069E0000020200000000000202020000FFFF0044
:1006AE00000202020202020202020000FFFFFF002D
:1006BE00000202020202020202020000FFFFFF001D
:1006CE0000020200000000000202020000FFFF0014
:1006DE0000020200FFFFFF00000202020000FF0006
:1006EE0000020200FFFFFF000002020200000000F5
:1006FE0000020200000000000202020200000002DE
:10070E0002020202020202020202020000000002C3
:10071E0002020202020202020202000000FF0000B8
:10072E00000000000000000000000000FFFF10109D
:10073E00FFFFFF00000000000000000000FFFFFFB1
:10074E00FFFF00000202020202020202000000FF8E
:10075E00FF00000202020202020202020200000078
:10076E000000000202000000000000020202000071
:10077E0000000202020000FFFFFF00000202000064
:10078E00000002020000FFFFFFFFFF000202000058
:10079E00000002020000FFFFFFFFFFFF000000004D
:1007AE00000002020000FFFFFFFFFFFFFFFFFFFF41
:1007BE00000002020000FFFFFFFFFFFFFFFFFFFF31
:1007CE00000002020000FFFFFFFFFF00000000001C
:1007DE00000002020000FFFFFFFFFF000202000008
:1007EE0000000202000000FFFFFF000002020000F6
:1007FE0000000202020000000000000202020000DF
:10080E00FF000002020202020202020202000000C7
:10081E00FFFF00000202020202020202000000FFBD
:10082E00FFFFFF0000000000000000000000FFFFBF
:10083E001010000000000000000000000000FFFF8C
:10084E00FFFF00000202020202020202020000FF8B
:10085E00FFFF000002020202020202020202000078
:10086E00FFFF000002020000000000020202000072
:10087E00FFFF000002020000FFFF00000202000066
:10088E00FFFF000002020000FFFF00000202000056
:10089E00FFFF000002020000000000020202000042
:1008AE00FFFF00000202020202020202020000FF2B
:1008BE00FFFF00000202020202020202000000FF1D
:1008CE00FFFF000002020000020202000000FFFF14
:1008DE00FFFF000002020000000202020000FFFF04
:1008EE00FFFF00000202000000000202020000FFF3
:1008FE00FFFF000002020000FF00000202020000E3
:10090E00FFFF000002020000FFFF000002020200D3
:10091E0000FF000002020000FFFFFF0000020202C3
:10092E0000FF000000000000FFFFFFFF00000000BE
:10093E0000FF101000000000FFFFFFFFFFFFFFFF92
:10094E00000000000000000000FFFFFFFFFFFF009F
:10095E000000000000000C0C0000FFFFFFFF000075
:10096E000C0C000000000C0C0C0000000000000C31
:10097E000C0C000000000C0C0C0C000000000C0C09
:10098E000C0C000000000C0C0C0C0C0C0C0C0C0CC9
:10099E000C0C000000000C0C0C0C0C0C0C0C0C0CB9
:1009AE000C0C000000000C0C0C000C0C0C0C000CC1
:1009BE000C0C000000000C0C0C00000C0C00000CC9
:1009CE000C0C000000000C0C0C0000000000000CD1
:1009DE000C0C000000000C0C0C0000000000000CC1
:1009EE000C0C000000000C0C0C0000FFFF00000CB3
:1009FE000C0C000000000C0C0C0000FFFF00000CA3
:100A0E000C0C000000000C0C0C0000FFFF00000C92
:100A1E000C0C000000000C0C0C0000FFFF00000C82
:100A2E000C0C000000000000000000FFFF000000A2
:100A3E00000000001010FF00000000000000000089
:100A4E000000000000FFFF0000020202020202028C
:100A5E000202020000FFFF00000202020202020276
:100A6E000202020000FFFF00000000000000020270
:100A7E000200000000FFFFFFFFFFFFFF0000020269
:100A8E00020000FFFFFFFFFFFFFFFFFF000002025B
:100A9E00020000FFFFFFFFFFFFFFFFFF000002024B
:100AAE00020000FFFFFFFFFFFFFFFFFF000002023B
:100ABE00020000FFFFFFFFFFFFFFFFFF000002022B
:100ACE00020000FFFFFFFFFFFFFFFFFF000002021B
:100ADE00020000FFFFFFFF00000000FF0000020207
:100AEE00020000FFFFFFFF000202000000000202F2
:100AFE00020000FFFFFFFF000202020000020202DE
:100B0E00020000FFFFFFFF000002020202020202CB
:100B1E00000000FFFFFFFFFF0000020202020200C2
:100B2E000000FFFFFFFFFFFFFF00000000000000BE
:100B3E0000FFFFFFFFFF1010FFFFFFFFFFFFFFFF94
:100B4E00FFFFFFFFFFFFFFFFFFFFFFFFFF000000A4
:100B5E0000000000FFFFFFFFFFFFFFFF000001018D
:100B6E0001010000FFFFFFFFFFFFFF000001010179
:100B7E0001010000FFFFFFFFFFFF00000101010167
:100B8E00010000FFFFFFFFFFFF0000010101010157
:100B9E000000000000000000000001010101010141
:100BAE00010101010101000000010101010101012A
:100BBE00010101010101000000010101010101011A
:100BCE00010101010101000000000101010101010B
:100BDE000101010101010000FF00000101010101FD
:100BEE000000000000000000FFFF000001010101F5
:100BFE00010000FFFFFFFFFFFFFFFF0000010101EB
:100C0E0001010000FFFFFFFFFFFFFFFF00000101DA
:100C1E0001010000FFFFFFFFFFFFFFFFFF000000CD
:100C2E0000000000FFFFFFFFFFFFFFFFFFFFFFFFC2
:100C3E00FFFFFFFFFFFFFFFF1010FFFFFFFFFFFF94
:100C4E00FFFFFFFFFFFFFFFFFFFFFFFFFFFF0000A4
:100C5E000000000000FFFFFFFFFFFFFFFFFF00008F
:100C6E00010101010000FFFFFFFFFFFFFFFF00007A
:100C7E0001010101010000FFFFFFFFFFFFFFFF0069
:100C8E000001010101010000FFFF00000000000053
:100C9E00000001010101010000FF0000010101013E
:100CAE00010101010101010100000000010101012A
:100CBE000101010101010101010000000101010119
:100CCE00010101010101010101000000000000000D
:100CDE00000001010101010000FF00000000000002
:100CEE00000001010101010000FFFFFFFFFFFF00F7
:100CFE000001010101010000FFFFFFFFFFFF0000E7
:100D0E0001010101010000FFFFFFFFFFFFFF0000D7
:100D1E00010101010000FFFFFFFFFFFFFFFF0000C9
:100D2E000000000000FFFFFFFFFFFFFFFFFFFFFFC0
:100D3E00FFFFFFFFFFFFFFFFFFFF1010FFFFFFFF93
:100D4E000000000000000000FFFFFFFFFFFFFFFF9D
:100D5E000000010101010000FFFFFFFFFFFFFFFF89
:100D6E000000010101010000FFFFFFFFFFFFFFFF79
:100D7E000000010101010000FFFFFFFFFFFFFFFF69
:100D8E000000010101010000FFFFFFFF0000000055
:100D9E00000001010101000000000000000001013F
:100DAE00000001010101000001010000000001012D
:100DBE00010001010101000101010000000001011B
:100DCE000101010101010101010100000000010109
:100DDE00010101010101010101010000FF000001FB
:100DEE000101010101010101010000FFFFFF0000EF
:100DFE0001010101010101010000FFFFFFFFFF00E2
:100E0E00000101010101010000FFFFFFFFFFFFFFD5
:100E1E000000010101010000FFFFFFFFFFFFFFFFC8
:100E2E00FF000001010000FFFFFFFFFFFFFFFFFFBC
:100E3E00FFFF00000000FFFFFFFFFFFF1010FFFF8E
:100E4E00FFFFFFFFFFFF0000000000000000FFFF9C
:100E5E00FFFFFFFFFF000002020202020000FFFF81
:100E6E00FFFFFFFF00000202020202020000FFFF6E
:100E7E00FFFFFF000002020200000202000000005D
:100E8E00000000000202020000000202000000004A
:100E9E000202020202020200FF0002020000000033
:100EAE000202020202020200FF0002020000000023
:100EBE000202000000020200FF0002020000000019
:100ECE00020200FF00020200FF000202000000000A
:100EDE000202000000020200FF00020200000000F9
:100EEE000202020202020200FF00020200000000E3
:100EFE0002020202020202000000020200000000D2
:100F0E000000000000020202000002020000FFFFCB
:100F1E00FFFFFFFF00000202020202020000FFFFBD
:100F2E00FFFFFFFFFF000002020202020000FFFFB0
:100F3E00FFFFFFFFFFFF0000000000000000101089
:100F4E000000000000FFFFFFFFFFFF000000000099
:100F5E000001010100FFFFFFFFFFFF000101010083
:100F6E000001010100FFFFFFFFFFFF000101010073
:100F7E000001010100FFFFFFFFFFFF000101010063
:100F8E000001010100FFFFFFFFFFFF000101010053
:100F9E00000101010000FFFFFFFF00000101010041
:100FAE00000101010100FFFFFFFF0001010101002F
:100FBE00000001010100FFFFFFFF00010101000021
:100FCE0000000101010000FFFF000001010100000F
:100FDE00FF0000010101000000000101010000FFFF
:100FEE00FFFF000001010100000101010000FFFFF1
:100FFE00FFFF000000010100000101000000FFFFE3
:10100E00FFFFFF00000101010101010000FFFFFFD2
:10101E00FFFFFFFF0000010101010000FFFFFFFFC6
:10102E00FFFFFFFFFF00000101000000FFFFFFFFB9
:10103E00FFFFFFFFFFFF0000000000FFFFFFFFFFAD
:10104E00101000000000000000FFFFFFFFFFFFFF79
:10105E00FFFF00000101010000FFFFFFFFFFFFFF88
:10106E00FFFF00000101010000FFFFFFFFFFFFFF78
:10107E00FFFF00000101010000FFFFFFFFFFFFFF68
:10108E00FFFF00000101010000FFFFFFFFFFFFFF58
:10109E00FFFF00000101010000FFFFFFFFFFFFFF48
:1010AE00FFFF00000101010000FFFFFFFFFFFFFF38
:1010BE00FFFF00000101010000FFFFFFFFFFFFFF28
:1010CE00FFFF00000101010000FFFFFFFFFFFFFF18
:1010DE00FFFF00000101010000FFFFFFFFFF000006
:1010EE00000000000101010000FFFFFFFFFF0000F4
:1010FE00000000000101010000FFFFFFFF000001E2
:10110E0000000000010101000000000000000101CC
:10111E0000000000010101010101010101010101B5
:10112E0000000000010101010101010101010101A5
:10113E0000000000000000000000000000000000A1
:10114E0000001010FFFFFFFFFFFFFFFFFFFFFFFF7D
:10115E00FFFFFFFFFFFFFFFFFFFFFFFFFFFFFFFF91
:10116E00FFFFFFFFFFFFFFFFFFFFFFFFFFFFFFFF81
:10117E00FFFFFFFFFFFFFFFF00000000000000FF6A
:10118E00FFFFFFFFFFFFFF00000001010100000055
:10119E00FFFFFFFFFFFF0000010101010101010040
:1011AE0000FFFFFFFF00000101010000000101012F
:1011BE000000FFFF00000001010000FF0000010120
:1011CE00000000FF00000101010000FF000001010E
:1011DE00010000FF00000101010000FF00000101FD
:1011EE00010000FF00000101010000FF00000101ED
:1011FE00010000FF00000001010000FF00000101DE
:10120E00000000FFFF0000010101000000010101CC
:10121E000000FFFFFFFF00000101010101010100BD
:10122E0000FFFFFFFFFFFF000000010101000000B3
:10123E00FFFFFFFFFFFFFFFF00000000000000FFA9
:10124E00FFFFFFFF1010FFFFFFFFFFFFFFFFFFFF7E
:10125E00FFFFFFFFFFFFFFFFFFFF0000000000008A
:10126E000000FFFFFFFFFFFF00000000020202026E
:10127E00000000FFFFFFFF00000002020202020258
:10128E0002020000FFFFFF00000202020000000049
:10129E000202020000FFFF00000202020000FF0037
:1012AE000000000000FFFF0000000202020200002A
:1012BE000000FFFFFFFFFFFFFF000002020202021D
:1012CE00020000FFFFFFFFFFFFFF00000000020211
:1012DE0002020000FFFFFF0000000000FFFF000001
:1012EE000202020000FFFF000002020200000000E6
:1012FE000202020000FFFF000000020202020202D0
:10130E0002020000FFFFFFFFFF00000002020202C8
:10131E00000000FFFFFFFFFFFFFFFF0000000000C7
:10132E000000FFFFFFFFFFFFFFFFFFFFFFFFFFFFBD
:10133E00FFFFFFFFFFFFFFFFFFFFFFFFFFFFFFFFAF
:10134E00FFFFFFFFFFFF1010FFFFFFFFFFFFFFFF7D
:10135E00FFFFFFFFFFFFFFFFFFFFFFFFFFFFFFFF8F
:10136E00FFFFFFFFFFFFFFFFFFFFFFFFFFFFFFFF7F
:10137E00FFFFFFFFFFFFFFFFFFFFFFFFFFFFFFFF6F
:10138E00FFFFFFFFFFFFFFFFFFFFFFFFFFFFFFFF5F
:10139E00FFFFFFFFFFFFFFFFFFFFFFFFFFFFFFFF4F
:1013AE00FFFFFFFFFFFFFFFFFFFFFFFFFFFFFFFF3F
:1013BE00FFFFFFFFFFFFFFFFFFFFFFFFFFFFFFFF2F
:1013CE00FFFFFFFFFFFFFFFF1010FFFFFFFFFFFFFD
:1013DE00FFFFFFFFFFFFFFFFFFFFFFFFFFFFFFFF0F
:1013EE00FFFFFFFFFFFFFFFFFFFFFFFFFFFFFFFFFF
:1013FE00FFFFFFFFFFFFFFFFFFFFFFFFFFFFFFFFEF
:10140E00FFFFFFFFFFFFFFFFFFFFFFFFFFFFFFFFDE
:10141E00FFFFFFFFFFFFFFFFFFFFFFFFFFFFFFFFCE
:10142E00FFFFFFFFFFFFFFFFFFFFFFFFFFFFFFFFBE
:10143E00FFFFFFFFFFFFFFFFFFFFFFFFFFFFFFFFAE
:10144E00FFFFFFFFFFFFFFFFFFFF1010FFFFFFFF7C
:10145E00FFFFFFFFFFFFFFFFFFFFFFFFFFFFFFFF8E
:10146E00FFFFFFFFFFFFFFFFFFFFFFFFFFFFFFFF7E
:10147E00FFFFFFFFFFFFFFFFFFFFFFFFFFFFFFFF6E
:10148E00FFFFFFFFFFFFFFFFFFFFFFFFFFFFFFFF5E
:10149E00FFFFFFFFFFFFFFFFFFFFFFFFFFFFFFFF4E
:1014AE00FFFFFFFFFFFFFFFFFFFFFFFFFFFFFFFF3E
:1014BE00FFFFFFFFFFFFFFFFFFFFFFFFFFFFFFFF2E
:1014CE00FFFFFFFFFFFFFFFFFFFFFFFF1010FFFFFC
:1014DE00FFFFFFFFFFFFFFFFFFFFFFFFFFFFFFFF0E
:1014EE00FFFFFFFFFFFFFFFFFFFFFFFFFFFFFFFFFE
:1014FE00FFFFFFFFFFFFFFFFFFFFFFFFFFFFFFFFEE
:10150E00FFFFFFFFFFFFFFFFFFFFFFFFFFFFFFFFDD
:10151E00FFFFFFFFFFFFFFFFFFFFFFFFFFFFFFFFCD
:10152E00FFFFFFFFFFFFFFFFFFFFFFFFFFFFFFFFBD
:10153E00FFFFFFFFFFFFFFFFFFFFFFFFFFFFFFFFAD
:10154E00FFFFFFFFFFFFFFFFFFFFFFFFFFFF10107B
:10155E00FFFFFFFFFFFFFFFFFFFFFFFFFFFFFFFF8D
:10156E00FFFFFFFFFFFFFFFFFFFFFFFFFFFFFFFF7D
:10157E00FFFFFFFFFFFFFFFFFFFFFFFFFFFFFFFF6D
:10158E00FFFFFFFFFFFFFFFFFFFFFFFFFFFFFFFF5D
:10159E00FFFFFFFFFFFFFFFFFFFFFFFFFFFFFFFF4D
:1015AE00FFFFFFFFFFFFFFFFFFFFFFFFFFFFFFFF3D
:1015BE00FFFFFFFFFFFFFFFFFFFFFFFFFFFFFFFF2D
:1015CE00FFFFFFFFFFFFFFFFFFFFFFFFFFFFFFFF1D
:1015DE001010FFFFFF0000FFFFFFFFFFF000000FE6
:1015EE00FFFFFFFF00222200FFFFFFFF002222006D
:1015FE00FFFFFFF0022002200FFFFFF0022002206B
:10160E000FFFFF002200002200FFFF00220FF0223A
:10161E0000FFF002200FF002200FF0022000000267
:10162E00200F002222222222220000222222222207
:10163E0022000022000000002200002200FFFF0016
:10164E002200002200FFFF002200000000FFFF002A
:10165E000000101000000000000000FF02222222F5
:10166E002222000F0222222222222000000220002B
:10167E0000222200F00220FFF0022200F00220FFE2
:10168E00F0022200F00220000022200FF00222229F
:10169E00222200FFF0022222222200FFF00220006E
:1016AE000022200FF00220FFF0022200F00220FFA5
:1016BE00F00222000002200000222200022222223A
:1016CE0022222000022222222222000F00000000ED
:1016DE00000000FF1010101010101010101010103D
:0A16EE001010101010101010101052
:109C6B001226A7FF9003EFE02F9001F5F022900151
:109C7B00EFE0FBA3E0FAA3E0F922F09001EFE0FBA9
:109C8B00A3E475F001122763A9F0FA02268E900166
:089C9B00E6E0D364809480220E
:06A71E00E49003EFF022BD
:06A724009003EFEFF022AC
:0B664F009001E7EFF0A3ECF0A3EDF0EA
:10665A009001E7E0FF25E0F0E02408F09001EEF079
:10666A009001E8E0FEA3E07803C333CE33CED8F935
:10667A00F0EE9001E8F0A3E02408F09001E8E0349D
:10668A0000F0AF037E007C017D021226E6742E2FF5
:10669A00F974003EFA9001EF74FFF0A3EAF0A3E95F
:1066AA00129C859001EA129C859001EBF0E4A3F01C
:1066BA009001EAE0FF9001ECE0C39F400302679675
:1066CA00E4A3F09001EBE0FF9001EDE0C39F4003EB
:1066DA00026777129C7912268E129C6EE4FB7D0269
:1066EA00FF128FDD129C79900001129C6B7B0112C4
:1066FA0067C0900002129C6B7B021267C090000375
:10670A00129C6B7B031267D39001F57480F07B04B3
:10671A001267D39001F0E475F00412274D9001EE50
:10672A00E09001F5F07B051267DBA3E09001F5F03C
:10673A007B071267DBE07E007802C333CE33CED804
:10674A00F91267971267E620E7FA9001E8E025E078
:10675A0025E044081267971267E620E7FA9001EEEF
:10676A00E004F09001EDE02404F00266CD9001E728
:10677A00E09001EEF09001E9E004F070069001E883
:0C678A00E004F09001ECE004F00266BABC
:10679600229001F5F07B097D02E4FF128FDD7B0A72
:1067A6007D02E4FF128990EF543F44809001F5F09A
:1067B6007B0A7D02E4FF128FDD227D02E4FF128F49
:1067C600DD9001EFE0FBA3E0FAA3E0F9227D02E40D
:1067D600FF128FDD227D02E4FF128FDD9001E82299
:0B67E6007B0A7D02E4FF128990EF2285
:0B9169009001E0EFF0A3EDF0A3EBF0AD
:10917400A3129C7C12A4F39001E6EFF0C3648094E4
:109184008040429001E0E030E0339001E1E0FFA351
:10919400E0FD7C00A3129C7C12268EFB12664F908D
:1091A40001E6E014F09001E4E475F00112274D901B
:1091B40001E1E02402F0129C9950CF8005129C99A1
:0591C40050FB12A7485A
:0191C9002283
:10A343000500000600000700000800000900000ADD
:10A35300000012000020000B000C000D000E000096
:036FA400012100C8
:1083550090036EE075F003A42443F974A335F0FA95
:108365009001E374FFF0A3229001DDE0FBA3E0FAA6
:10837500A3E0F92290036EE0FF74017E00A80708D0
:1083850022FF90037BE0FDEF5D2274A3F0A37462EE
:10839500F0229000010226A774A3F0A3744FF022E7
:1083A50074A3F0A37460F022EAF0A3E9F0E4FB22E1
:1083B5009000020226A712268E540C1313543FF583
:1083C5003022EAF0A3E9F07B12227B017D127C00CA
:1083D500227D197B057C007F3A22EBF0A3EAF0A30E
:1083E500E9F0229000030226A77B017D0F7C002285
:1083F500EAF0A3E9F07B0F227B01E4FDFC7F1C2260
:088405007B01E4FDFC7F412234
:1094270012748912A71E7F0412A7427F0312A74551
:10943700E4F530AF3012945D0530E530C394064053
:10944700F27F01129D487FFF12A7457F0812945DA6
:05945700E490036BF03E
:10945C002212A3839001E1E4F0A37426F07B5AE47A
:07946C00FDFCFF1284C32286
:104400009001DD1283DF7F0212A7427FFF12A745D2
:1044100090036DE01229DE44451144542144882262
:1044200044BC3144FA3345353445704145C091456B
:10443000D7A14603A2462CB14671B346B2B446F4A6
:10444000C10000475112836D12268E20E1030247FE
:10445000510245CC12836D12268E30E10D12835528
:104460001283AD7DFF7F0112916912836D128397D4
:1044700020E10302475190036F128358EAF0A3E949
:10448000F07B1D7D5D02474C12836D12268E30E15C
:1044900011128355EAF0A3E9F07B0E7D487F0112EB
:1044A000916912836D12839720E1030247519003B3
:1044B0006F1283581283AD7D1402474C12836D1224
:1044C000268E30E1091283551283AD12479E128366
:1044D0006D12839730E10990036F12835812477F62
:1044E00012836D1283B520E10302475190037012CD
:1044F00083581283F57D3E02474C12836D12268E3F
:1045000030E10612835512475212836D12839730A1
:10451000E10990036F12835812477012836D128362
:10452000B520E1030247519003701283581283F5BE
:104530007D3E02474C12836D12268E30E1061283B7
:104540005512475212836D12839730E10990036F21
:1045500012835812477012836D1283B520E1030253
:1045600047519003701283581283F57D1402474C13
:1045700012836D12268E30E10612835512476112A6
:10458000836D12839730E10C90036F12835812836E
:10459000AD12479612836D1283B530E10990037016
:1045A00012835812477F12836D1283E820E10302C1
:1045B00047519003711283581283F57D3E02474C98
:1045C00012836D12268E20E1030247511283551289
:1045D00083AD7D2902474C12836D12268E30E1098E
:1045E0001283551283AD12479E12836D128397205A
:1045F000E10302475190036F1283581283C77D294C
:1046000002474C12836D12268E30E106128355123A
:10461000476112836D12839720E103024751900393
:104620006F1283581283AD7D3E02474C12836D1288
:10463000268E30E10D1283551283AD7D297F011244
:10464000916912836D12839730E10C90036F12838E
:10465000581283C712478E12836D1283B520E1036F
:104660000247519003701283581283C77D3E024760
:104670004C12836D12268E30E1091283551283ADE0
:1046800012478E12836D12839730E10C90036F12E4
:1046900083581283AD12479612836D1283B520E1C1
:1046A000030247519003701283581283C77D3E0264
:1046B000474C12836D12268E30E109128355128306
:1046C000AD1247A612836D12839730E11090036FED
:1046D0001283581283AD7D3E7F0112916912836D62
:1046E0001283B530E16B9003701283581283C77D3B
:1046F0001402474C12836D12268E30E10912835545
:104700001283AD1247A612836D12839730E1109089
:10471000036F1283581283AD7D3E7F01129169129F
:10472000836D1283B530E1109003701283581283A9
:10473000C77D147F0112916912836D1283E830E105
:10474000109003711283581283C77D3E7F0112912E
:104750006922EAF0A3E9F0E4FB7D147F011291697C
:1047600022EAF0A3E9F0E4FB7D147F0112916922B3
:10477000EAF0A3E9F0E4FB7D3E7F0112916922EAB1
:10478000F0A3E9F07B0F7D147F01129169227D1463
:104790007F01129169227D3E7F01129169227D295C
:0E47A0007F01129169227D147F01129169221E
:08A70E0090036CE04480F0228E
:10974F007B787D01E4FF128990EF540FFF90037B2C
:10975F00F090036CE06F602ED2277B31E4FDFF1297
:10976F008990EF547F9001F5F07B31E4FDFF128F6C
:10977F00DD7F4D12A7427F4012A72412A71E900330
:07978F007BE090036CF02267
:066DF1009001DD1283DFBA
:106DF7007F4112A74290036DE01229DE6E2B116EC0
:106E07003C216E70226EA7316ECA336EE7346E2B4B
:106E1700916E3CA16E70A26EA7B16ECAB36EE7B455
:106E270000006F249001DD1283701283BB600302A0
:106E37006EB2026EC09001DD1283701283BB6012C6
:106E4700126F251283641283AD7D1C7F0112916935
:106E570080061283FD12840D9001DD128370128368
:106E6700971283BE6037026EF59001DD12837012B0
:106E770083BB6012126F251283641283AD7D1C7F62
:106E87000112916980061283FD12840D9001DD12B3
:106E970083701283971283BE6003026EF5026F1A26
:106EA7009001DD1283701283BB600E126F3E128356
:106EB700641283AD7D31026F157B01E4FDFC7F31E8
:106EC700026F219001DD1283701283BB600D126F78
:106ED7003E1283641283AD7D1C80331283FD803A9A
:106EE7009001DD1283701283971283BE60257B02A7
:106EF700E4FDFCFF12840DE53025E0FFE433FE746A
:106F0700582FF974A33E1283641283AD7D467F0127
:0D6F17000291697B01E4FDFC7F4612840DB0
:106F2400227B02E4FDFCFF12840DE53025E0FFE442
:106F340033FE74582FF974A33E227B02E4FDFCFF58
:106F440012840DE53025E0FFE433FE74582FF97404
:036F5400A33E2237
:10321F009001DD1283DF7F0C12A74290036DE01245
:10322F0029DE325F11327121329D2232C6313311C4
:10323F003333543433A341341191342EA13469A262
:10324F0034A2B134FFB33554B435AFC100003628C2
:10325F009001DD12837012268E30E00302341D02BE
:10326F0034279001DD12837012268E30E00B12830B
:10327F006512839D1236AB80031236809001DD12EA
:10328F00837012839730E00302345402346190014B
:10329F00DD12837012268E30E008128365123629F4
:1032AF00800312364B9001DD12837012839730E04A
:1032BF000302348F02349C9001DD12837012268E2C
:1032CF0030E00B12836512839D1236AB80031236EA
:1032DF00809001DD12837012839730E00B128365AB
:1032EF0012839D1236D580081283EE7F1712840D3C
:1032FF009001DD1283701283B530E0030233FF02B9
:10330F00340A9001DD12837012268E30E00812838A
:10331F0065123629800312364B9001DD128370122D
:10332F00839730E00B12836512839D1236968003CC
:10333F001236569001DD1283701283B530E003020E
:10334F0033FF02340A9001DD12837012268E30E0B3
:10335F000812836512363A80031236619001DD122E
:10336F00837012839730E00B12836512839D1236A0
:10337F009680031236569001DD1283701283B5309A
:10338F00E00B12836512839D7B0F02359F7B017DBE
:10339F000F0235A89001DD12837012268E30E008DF
:1033AF0012836512363A80031236619001DD128363
:1033BF007012839730E00B12836512839D1236C013
:1033CF00800312368B9001DD1283701283B530E0CB
:1033DF000B12836512839D1236D580081283EE7F00
:1033EF001712840D9001DD1283701283E830E00B09
:1033FF0012836512839D7B0F0234977B017D0F0231
:10340F0034F89001DD12837012268E30E00A128399
:10341F006512839DE4FB80357B01E4FDFC803690D3
:10342F0001DD12837012268E30E00B12836512833A
:10343F009D1236DF80031236B59001DD12837012B4
:10344F00839730E00D12836512839D7B0F7D2C02D5
:10345F00361B1283EE7F2C0236259001DD1283700E
:10346F0012268E30E00B12836512839D12366C800C
:10347F00031236A09001DD12837012839730E00D96
:10348F0012836512839DE4FB7D4102361B12840576
:10349F000236259001DD12837012268E30E00B125A
:1034AF00836512839D1236DF80031236B59001DDDE
:1034BF0012837012839730E00B12836512839D1273
:1034CF0036E980081283CF7F1712840D9001DD1229
:1034DF0083701283B530E00D12836512839D7B12CA
:1034EF007D4102361B7B017D127C007F4102362518
:1034FF009001DD12837012268E30E00B128365125D
:10350F00839D12366C80031236A09001DD128370FA
:10351F0012839730E00B12836512839D1236C080A1
:10352F000312368B9001DD1283701283B530E00DDC
:10353F0012836512839D7B127D4102361B1283CF4E
:10354F007F410236259001DD12837012268E30E006
:10355F000B12836512839D12367680031236CA9042
:10356F0001DD12837012839730E00B128365128393
:10357F009D1236F3800612840512840D9001DD1220
:10358F0083701283B530E00D12836512839D7B1219
:10359F007D1702361B7B017D127C007F17023625BB
:1035AF009001DD12837012268E30E00B12836512AC
:1035BF00839D12367680031236CA9001DD12837016
:1035CF0012839730E00B12836512839D1236F380BE
:1035DF000612840512840D9001DD1283701283B5DB
:1035EF0030E00B12836512839D1236E98008128337
:1035FF00CF7F1712840D9001DD1283701283E83094
:10360F00E00F12836512839D7B127D417F01029132
:10361F00691283CF7F4112840D2274A3F0A3744FDC
:10362F00F0E4FB7D177F011291692274A3F0A3745C
:10363F004FF0E4FB7D177F01129169227B01E4FDBE
:10364F00FC7F1712840D227B01E4FDFC7F41128465
:10365F000D227B01E4FDFC7F1712840D22E4FB7D1C
:10366F00177F0112916922E4FB7D177F0112916987
:10367F00227B01E4FDFC7F2C12840D227B01E4FDF3
:10368F00FC7F4112840D22E4FB7D417F0112916981
:10369F00227B01E4FDFC7F1712840D22E4FB7D2CBD
:1036AF007F01129169227B01E4FDFC7F2C12840DB6
:1036BF0022E4FB7D417F01129169227B01E4FDFC35
:1036CF007F1712840D227B0F7D177F0112916922C4
:1036DF00E4FB7D2C7F01129169227B127D177F0104
:0E36EF0012916922E4FB7D417F011291692254
:1036FD009003DD1283DF7F0212A74290036DE0126B
:10370D0029DE373A11374C21377B2237A43137EF79
:10371D003338323438814138EF913912A2394FB1F3
:10372D0039B9B33A0EB43A66C100003ADC9003DD04
:10373D0012837012268E30E4030238FB0239089092
:10374D0003DD12837012268E30E40B128365128313
:10375D00A5123B748003123B549003DD128370124B
:10376D00268E30E4030238FB1283EE02390D9003EE
:10377D00DD12837012268E30E408128365123ADD55
:10378D008003123AFF9003DD12837012839730E4A9
:10379D00030239380239459003DD12837012268EEB
:1037AD0030E40B1283651283A5123B748003123B28
:1037BD00549003DD12837012839730E40B128365EE
:1037CD001283A5123B7E80081283EE7F1F12840D9B
:1037DD009003DD1283701283B530E4030238DD02ED
:1037ED0038E89003DD12837012268E30E4081283C0
:1037FD0065123ADD8003123AFF9003DD12837012D9
:10380D00839730E40B1283651283A5123B4A800324
:10381D00123B0A9003DD1283701283B530E403026C
:10382D0038DD0238E89003DD12837012268E30E405
:10383D0008128365123AEE8003123B159003DD12D8
:10384D00837012839730E40B1283651283A5123BAC
:10385D004A8003123B0A9003DD1283701283B53048
:10386D00E40B1283651283A57B0F023A567B017D13
:10387D000F023A5F9003DD12837012268E30E4083A
:10388D00128365123AEE8003123B159003DD12830D
:10389D007012839730E40B1283651283A5123B5F80
:1038AD008003123B349003DD1283701283B530E434
:1038BD000B1283651283A5123B7E80081283EE7F67
:1038CD001F12840D9003DD1283701283E830E40B18
:1038DD001283651283A57B0F0239407B017D0F0298
:1038ED0039B29003DD12837012268E30E40D1283EF
:1038FD00651283A5E4FB7D34023ACF7B01E4FDFC28
:10390D007F34023AD99003DD12837012268E30E493
:10391D000B1283651283A5123B208003123B3F904F
:10392D0003DD12837012839730E40D1283651283C9
:10393D00A5E4FB7D49023ACF7B01E4FDFC7F490202
:10394D003AD99003DD12837012268E30E411128362
:10395D00651283A5E4FB7D347F01129169800A7B9A
:10396D0001E4FDFC7F3412840D9003DD128370128F
:10397D00839730E40B1283651283A5123B9D80085B
:10398D001283CF7F1F12840D9003DD12837012837B
:10399D00B530E40D1283651283A57B127D49023A81
:1039AD00CF7B017D127C007F49023AD99003DD1255
:1039BD00837012268E30E40B1283651283A5123BA1
:1039CD00208003123B3F9003DD12837012839730EA
:1039DD00E40B1283651283A5123B5F8003123B3407
:1039ED009003DD1283701283B530E40D12836512DE
:1039FD0083A57B127D49023ACF1283CF7F49023ACC
:103A0D00D99003DD12837012268E30E40B1283657C
:103A1D001283A5123B2A8003123B699003DD1283AA
:103A2D007012839730E40B1283651283A5123B93BA
:103A3D008003123B889003DD1283701283B530E44E
:103A4D000D1283651283A57B127D1F023ACF7B0178
:103A5D007D127C007F1F023AD99003DD1283701214
:103A6D00268E30E40B1283651283A5123B2A800348
:103A7D00123B699003DD12837012839730E40B12B1
:103A8D0083651283A5123B938003123B889003DD5F
:103A9D001283701283B530E40B1283651283A51265
:103AAD003B9D80081283CF7F1F12840D9003DD1282
:103ABD0083701283E830E40F1283651283A57B12A5
:103ACD007D497F010291691283CF7F4912840D22B6
:103ADD0074A3F0A37460F0E4FB7D1F7F0112916964
:103AED002274A3F0A37460F0E4FB7D1F7F0112919B
:103AFD0069227B01E4FDFC7F1F12840D227B01E412
:103B0D00FDFC7F4912840D227B01E4FDFC7F1F1219
:103B1D00840D22E4FB7D1F7F0112916922E4FB7D60
:103B2D001F7F01129169227B01E4FDFC7F49128404
:103B3D000D227B01E4FDFC7F1F12840D22E4FB7D31
:103B4D00497F01129169227B01E4FDFC7F341284CF
:103B5D000D22E4FB7D497F01129169227B01E4FD79
:103B6D00FC7F1F12840D22E4FB7D347F01129169CD
:103B7D00227B0F7D1F7F01129169227B01E4FDFCE9
:103B8D007F4912840D22E4FB7D497F011291692248
:0A3B9D007B127D1F7F011291692247
:102C9B0090037BE0FD90036CE06DF565A3E01229DA
:102CAB00DE2CD4112CF7222D3C312DAD332E1434C8
:102CBB002E82412F11912F3AA22F87B12FF7B330CC
:102CCB0061B430DCC1000031681283798005C333F5
:102CDB00CE33CED8F9FFEF5D600B12836512838F75
:102CEB007B0D022F2A7B057D0D022F3312837980FA
:102CFB0005C333CE33CED8F9128386600B128365AE
:102D0B0012838F1231C5800312318190036F1283AE
:102D1B007C8005C333CE33CED8F9128386600B1279
:102D2B00836512838F7B0D022F777B057D0D022F21
:102D3B00801283798005C333CE33CED8F9128386C4
:102D4B00601112836512838F7B077D257F011291A2
:102D5B006980057D0712320B90036F12837C80050F
:102D6B00C333CE33CED8F9128386600D128365122E
:102D7B00838F7B151231E580031231CF90037012D4
:102D8B00837C8005C333CE33CED8F9128386600B98
:102D9B0012836512838F7B15022F777B057D1502BE
:102DAB002F801283798005C333CE33CED8F91283AB
:102DBB0086600B12836512838F1231C5800312312B
:102DCB008190036F12837C8005C333CE33CED8F949
:102DDB00128386600B12836512838F1231DB8003A3
:102DEB0012318D90037012837C8005C333CE33CEAA
:102DFB00D8F9128386600B12836512838F7B1502C1
:102E0B002F777B057D15022F801283798005C333C5
:102E1B00CE33CED8F9128386600B12836512838F63
:102E2B00123199800312316990036F12837C8005F4
:102E3B00C333CE33CED8F9128386600D128365125D
:102E4B00838F7D3A12320380087D0D1283D8128452
:102E5B000D90037012837C8005C333CE33CED8F92B
:102E6B00128386600B12836512838F7B150230CC25
:102E7B007B057D150230D51283798005C333CE33A4
:102E8B00CED8F9128386600B12836512838F1231B1
:102E9B0099800312316990036F12837C8005C333D1
:102EAB00CE33CED8F9128386600B12836512838FD3
:102EBB001231DB800312318D90037012837C8005FD
:102ECB00C333CE33CED8F9128386601112836512C9
:102EDB00838F7B157D107F0112916980031231CF97
:102EEB0090037112837C8005C333CE33CED8F91295
:102EFB008386600B12836512838F7B15022F777B82
:102F0B00057D15022F801283798005C333CE33CE16
:102F1B00D8F9128386600D12836512838F7B107D27
:102F2B002502315D7B057D107C007F25023165120A
:102F3B0083798005C333CE33CED8F9128386600DE7
:102F4B0012836512838F7B101231E580031231A33C
:102F5B0090036F12837C8005C333CE33CED8F91226
:102F6B008386600D12836512838F7B107D3A02314D
:102F7B005D7B057D107C007F3A0231651283798081
:102F8B0005C333CE33CED8F9128386601112836515
:102F9B0012838F7B087D257F0112916980057D0847
:102FAB0012320B90036F12837C8005C333CE33CE6A
:102FBB00D8F9128386600B12836512838F12321538
:102FCB0080031231ED90037012837C8005C333CEE6
:102FDB0033CED8F9128386600D12836512838F7BF3
:102FEB00197D3A02315D1283D602316512837980E5
:102FFB0005C333CE33CED8F9128386600D128365A9
:10300B0012838F7D1012320380031231A390036F52
:10301B0012837C8005C333CE33CED8F912838660FE
:10302B000B12836512838F1231F980031231B99021
:10303B00037012837C8005C333CE33CED8F9128351
:10304B0086600D12836512838F7B197D3A02315D89
:10305B001283D60231651283798005C333CE33CE0A
:10306B00D8F9128386600B12836512838F1231AFEE
:10307B00800312317590036F12837C8005C333CEAE
:10308B0033CED8F9128386601112836512838F7B3E
:10309B00107D3A7F01129169800B7B057D107C00BE
:1030AB007F3A12840D90037012837C8005C333CE5C
:1030BB0033CED8F9128386600D12836512838F7B12
:1030CB00197D1002315D7B057D197C007F1002316B
:1030DB00651283798005C333CE33CED8F91283863C
:1030EB00600B12836512838F1231AF80031231751F
:1030FB0090036F12837C8005C333CE33CED8F91285
:10310B008386600B12836512838F1231F980031251
:10311B0031B990037012837C8005C333CE33CED884
:10312B00F9128386600B12836512838F123215801E
:10313B00031231ED90037112837C8005C333CE33C0
:10314B00CED8F9128386600F12836512838F7B1999
:0D315B007D3A7F010291691283D612840D26
:10316800227B057D077C007F1012840D227B057D64
:10317800087C007F1012840D227B057D0D7C007F6A
:103188001012840D227B057D077C007F3A12840D86
:10319800227B077D107F01129169227B057D107CBF
:1031A800007F1012840D227B087D107F0112916927
:1031B800227B057D087C007F3A12840D227B0D7DE1
:1031C800107F01129169227B057D157C007F10120A
:1031D800840D227B077D3A7F01129169227D107F41
:1031E80001129169227B057D197C007F1012840DE4
:1031F800227B087D3A7F01129169227B0D7F0112A3
:103208009169227B057C007F2512840D227B197D24
:07321800107F0112916922F1
:10993E00E4FF12A38390036BE024FE6011047029F0
:10994E0012997812836574A3F0A37452800C129945
:10995E007812836574A3F0A37455F0E4FB7D017F48
:10996E00011291697FFF12A745227F0312A7457F3F
:05997E000412A74222C3
:10A2B100E4FF12A383900373E030E1127B017A0380
:10A2C100797312321F7B017A037973126DF112A730
:06A2D1000EE4FF029D48AF
:1016F80000000000000000000000000000000000E2
:1017080000000000000000000000000000000000D1
:10171800003E007E00FE01CE038E7F8E7F8E738E8C
:10172800738E738E7F8E7F8E01CE00FE007E003E0C
:1017380000000000020006000E001E003FFE7FFEB3
:101748007FFE3FFE1E000E000600020000000000A3
:101758000000000000400060007000787FFC7FFE01
:101768007FFE7FFC007800700060004000000000F1
:10177800000003C003C003C003C003C003C003C00C
:1017880003C03FFC1FF80FF007E003C00180000012
:1017980003C003C007E007E00E700E701C381C3849
:1017A800381C381C7FFE7FFE700E700E700E700E97
:1017B8007FF87FFC383E381E381E381E383C3FF80C
:1017C8003FF8383C381E381E381E383E7FFC7FF8FC
:1017D8000FF81FFC3C1C380E780E700E700070005D
:1017E80070007000700E700E380E3C1C1FFC0FF855
:1017F8007FF07FF07078703C703C703C70787FF0C0
:101808007FE0778073C071E070F07078703C701E74
:1018180000006006700E781E7C3E7FFE77EE73CE69
:10182800718E700E700E700E700E700E700E700E3F
:1018380000001FF81FF800E000E000E000E000E012
:1018480000E000E000E070E079E03FC01F800F009A
:1018580000000000000003C007800F001E003FFCCE
:101868003FFC1E000F00078003C0000000000000BE
:1018780000000000000003C001E000F000783FFC19
:101888003FFC007800F001E003C000000000000009
:1018980000000000018001800180018011881998F2
:1018A8001DB81FF80FF007E003C00180000000001A
:1018B800003E007E00FE01CE038E7F8E7F8E738EEB
:1018C800738E738E7F8E7F8E01CE00FE007E003E6B
:1018D800700E700E700E700E700E700E781E381C22
:1018E800381C1C381C380E700FF007E003C001804C
:1018F8000000380038003800380038003800380058
:1019080038003800380038063806380E3FFE3FFEEB
:101918000000000000000000000003800FE01C70C1
:10192800183038383838383818301C700FE00380D1
:101938000000000000000000000003C00FF01C3889
:101948001C000F0007E000F000381C380FF003C03F
:10195800000000000000000000000000000000007F
:10196800000000000000000000000000000000006F
:10197800000000000000000000000000000000005F
:10198800000000000000000000000000000000004F
:10199800000000000000000000000000000000003F
:1019A800000000000000000000000000000000002F
:1019B800000000000000000000000000000000001F
:1019C800000000000000000000000000000000000F
:1019D80000000000000000000000000000000000FF
:1019E80000000000000000000000000000000000EF
:1019F80000000000000000000000000000000000DF
:101A080000000000000000000000000000000000CE
:101A180000000000000000000000000000000000BE
:101A280000000000000000000000000000000000AE
:101A3800000000000000000000000000000000009E
:101A4800000000000000000000000000000000008E
:101A5800000000000000000000000000000000007E
:101A6800000000000000000000000000000000006E
:101A7800000000000000000000000000000000005E
:101A8800000000000000000000000000000000004E
:101A9800000000000000000000000000000000003E
:101AA800000000000000000000000000000000002E
:101AB800000000000000000000000000000000001E
:101AC800000000000000000000000000000000000E
:101AD80000000000000000000000000000000000FE
:101AE80000000000000000000000000000000000EE
:101AF80000000000000000000000000000000000DE
:101B080000000000000000000000000000000000CD
:101B1800000007000F800F800F800F80070007006C
:101B28000700020002000000020007000700020090
:101B38000000EE006600440088000000000000007D
:101B4800000000000000000000000000000000008D
:101B5800000008200820082008203FF80820082056
:101B68000820082008203FF808200820082008201E
:101B780000000FC01B603330333033001B000F00F0
:101B880003C0036013303B3033301B600FC00300C9
:101B980000003808441084200440048009001270B2
:101BA800E4880908120822084210822001C00000B7
:101BB80000000E001B00318031801B000E001C004D
:101BC8003678632061A060E0606030F01F9C000000
:101BD80000000000000000000000000000000000FD
:101BE800000000000000800060007000380018004D
:101BF8000000000400080018001000300030003019
:101C08000030003000300010001800080004000206
:101C180000008000400060002000300030003000EC
:101C280030003000300020006000400080000000DC
:101C3800000002004210222012400A800700FFFC28
:101C480007000A8012402220421002000200000011
:101C580000000000030003000300030003007FF8F6
:101C68007FF80300030003000300030000000000E6
:101C7800000000000000000000000000000000005C
:101C8800000018003C003C00180010002000400034
:101C980000000000000000000000000000007FF8C5
:101CA8007FF80000000000000000000000000000B5
:101CB800000000000000000000000000000000001C
:101CC8000000000000007800840084008400780090
:101CD800000000180030006000C00180030006000A
:101CE8000C00180030006000C000800000000000F8
:101CF80000000FE0183030183038307830D831987C
:101D0800331836183C183818301818300FE000000F
:101D18000000030007000F00030003000300030096
:101D28000300030003000300030003001FE000009A
:101D380000000FE01830301830183038007001C03B
:101D480003000E001800300830083FF83FF8000084
:101D5800000007C0183030183018003000E003C009
:101D680000E00030001830183018183007C00000A4
:101D7800000000C001C003C006C00CC018C030C0BD
:101D880060C0C0C0C0C0FFF800C000C003F00000C1
:101D980000003FF03FF030003000300037C03830EE
:101DA80030180018001830183018183007C0000014
:101DB800000007E01830303030003000300037E0E5
:101DC8003830301830183018301818300FC000006C
:101DD80000003FF83FF8201820180030006000C0CD
:101DE8000180030003000300030003000300000058
:101DF80000000780186030303030303018600FC075
:101E08001860303060186018601830300FC000005B
:101E1800000007801860303030183018301830381B
:101E2800187807980018303038301860078000009C
:101E3800000000000000000003000780030000000D
:101E480000000300078003000000000000000000FD
:101E580000000000000000000300078003000000ED
:101E680000000300078003800180070000000000D5
:101E780000000000001800600180060018006000E3
:101E88008000600018000600018000600018000053
:101E9800000000000000000000007FF87FF800004C
:101EA80000007FF87FF8000000000000000000003C
:101EB8000000800060001800060001800060001823
:101EC800000400180060018006001800600080000F
:101ED800000007800FC01CE038E038E011C0018026
:101EE80003000300020002000000020007000700D0
:101EF80000000FC030604010478888C890C890C85C
:101F080090C890C888D84770400830700FC000004B
:101F1800000003000300078007800CC00CC0186095
:101F280018601FE03030303060186018F03C000056
:101F380000003F80186018301830183018601FC033
:101F48001860183018181818181818303FC00000F2
:101F58000000078818683038601860086000600062
:101F6800600060006008601830301860078000006A
:101F780000007F8030E030383018301830183018C2
:101F88003018301830183018303030E07F800000BA
:101F980000003FF0183018101800188018801F80B3
:101FA8001880188018001800181018303FF000002A
:101FB80000003FF0183018101800188018801F8093
:101FC8001880188018001800180018003C0000003D
:101FD80000000F90187030306010601060006000D2
:101FE8006078603060306030307018F00FB00000FA
:101FF80000007878303030303030303030303FF0DA
:102008003030303030303030303030307878000098
:1020180000000FC0030003000300030003000300D7
:102028000300030003000300030003000FC00000C7
:10203800000001F000600060006000600060006067
:10204800006000603060306030E019C00F000000B0
:10205800000078F8306030C03180330036003C0032
:102068003E003300318030C030603030787C000072
:1020780000003C001800180018001800180018008C
:102088001800180018001808181818383FF8000029
:102098000000E03CE038F078F078D8D8D8D8C89874
:1020A800CD98CD98C518C718C218C018E07C000094
:1020B8000000C078E030F030F830DC30CE30C73087
:1020C800C3B0C1F0C0F0C070C030C030E0780000CC
:1020D80000000FC0387070386018601860186018F9
:1020E8006018601860186018703838700FC00000E9
:1020F80000003FC0187018381818181818381870C9
:102108001FC0180018001800180018003C00000034
