:0300000002886B08
:0C886B00787FE4F6D8FD75816D0288B2BC
:0BA69D00E0248DF582E43402F58322F6
:10A49600C2BCD2AC759852758DFAE4F58BD28E900B
:06A4A60002F1F0A3F02218
:10A5D4009002F1E0FFA3E0B507037F00227F012290
:10A44C009002F112A69DE0FF9002F1E004F0E0C34F
:08A45C0094644002E4F0D2AC6C
:01A4640022D5
:080003003099FD8F99C299228A
:03002300029F9C9D
:109F9C00C0E0C083C082C0D0309819C2989002F241
:109FAC0012A69DE599F09002F2E004F0E0C39464EF
:0D9FBC004002E4F0D0D0D082D083D0E0325B
:109B2900E0F580D2A3E4900335F0A3F022C39003BB
:109B390035E0940022900335E004F0229001E4E03E
:109B4900FBA3E0FAA3E0F922EDF0A3EBF0E4FFC2F6
:0C9B5900AF22D2B6D2B77580FFD2AF2287
:108E61009001F3129B5112A6F29001F3E0FF7006FC
:108E7100C2B7C2B68012EFB40106C2B7D2B680083B
:108E8100EFB40204D2B7C2B69001F4129B29129B2F
:108E910036500BA3E004F070F5129B3E80F0C2A3A4
:108EA1009001F5E0F580C2A1129B2E129B36500B6A
:108EB100A3E004F070F5129B3E80F0D2A112A6F25D
:048EC100129B5B2283
:108983009001D8129B5112A6F29001D8E0FF700615
:10899300C2B7C2B68012EFB40106C2B7D2B680081E
:1089A300EFB40204D2B7C2B69001D9E0FF04F08F4E
:1089B30080129B2C129B36500BA3E004F070F5122F
:1089C3009B3E80F0C2A39001DAE0FBA3E475F001C3
:1089D300122763A9F0FA12268EF580C2A1129B2EEC
:1089E300129B36500BA3E004F070F5129B3E80F00F
:1089F300D2A19001DDE014F070AE12A6F2129B5BDF
:018A03002250
:0B88F7009001F2EFF0A3EDF0A3EBF016
:10890200C2AF12A6F2E49001F2F0A3E0FF7006C239
:10891200B7C2B68012EFB40106C2B7D2B68008EF72
:10892200B40204D2B7C2B69001F4129B29129B364C
:10893200500BA3E004F070F5129B3E80F0C2A375C9
:1089420080FF129B2E129B36500BA3E004F070F5B1
:10895200129B3E80F0C2A29001F5E580F0129B2EA0
:10896200129B36500BA3E004F070F5129B3E80F090
:10897200D2A212A6F2D2B6D2B7D2AF9001F5E0FFE0
:0189820022D2
:1092CF009001E4EBF0A3EAF0A3E9F0129B4512271B
:1092DF0079F47003E5F0F46038122779FBAAF0EA0D
:1092EF00FDE4FF1288F7129B459000021226A7FC9F
:1092FF006F6012122779FBAAF0EAFD9001F5ECF0EE
:10930F00E4FF128E619001E5E475F00312274D80A2
:02931F00BA2270
:01A735002201
:105420002562782025627820256278000A3C523E69
:1054300025303262785B25303262785D3D2530322E
:105440006278002562782025627800256278202520
:1054500062782025627820256278200025316278E4
:105460002025316278202531627820005265616400
:105470004173696342797465203D3D20256278203F
:105480000A0063682562643A256264200063682527
:1054900062643A2562642063682562643A25626426
:1054A000200063682562643A25626420636825628F
:1054B000643A2562642063682562643A2562642048
:1054C0000063682562643A2562642063682562642B
:1054D0003A2562642063682562643A256264206329
:1054E000682562643A256264200063682562643A34
:1054F0002562642063682562643A256264206368DB
:105500002562643A2562642063682562643A2562F4
:10551000642063682562643A256264200025626421
:1055200020000A203D3D3D3D3D3D3D3D2050414751
:10553000452025623278203D3D3D3D3D3D3D3D3D90
:105540003D3D3D3D0A002562327809000A002531C3
:105550006278202531627820636825316278206383
:105560006825316278206368253162782063682578
:105570003162782000656E726563616C6C00656EE7
:10558000667265657A6500656E686D6972726F72C4
:1055900000656E766D6972726F7200656E656E6819
:1055A000616E636500656E626C616E6B00656E6254
:1055B0006F756E6400656E626C696E6B0064697312
:1055C000726563616C6C00646973667265657A65A7
:1055D00000646973686D6972726F720064697376D2
:1055E0006D6972726F7200646973656E68616E6373
:1055F0006500646973626C616E6B00646973626FED
:10560000756E6400646973626C696E6B003D3D3D4C
:105610003D3D20466F726D6174203A206368303DD5
:105620005B2562785D206368313D5B2562785D2093
:105630006368323D5B2562785D206368333D5B259E
:1056400062785D203D3D3D3D3D0A00256278202584
:1056500062782063682562783A256278206368253D
:1056600062783A2562782063682562783A25627804
:105670002063682562783A2562782000333400621E
:105680007573770079766D6978006873636F6D0064
:0E5690006D6F646500370038000102040810D9
:046CDC0041039B00D5
:10569E00A3F0A3E4F0A37400F0A37414F0A3E4F059
:1056AE00A37400F0A37419F0A3E4F0A37400F0A3A4
:1056BE007415F0A3E4F0A37400F0A3741AF0A3E43D
:1056CE00F0A37400F07416A3F0A3E4F0A322A3F0E9
:1056DE00A3E4F0A37400F0A37426F0A3E4F0A37483
:1056EE0000F0A3742BF0A3E4F0A37400F0A37427CE
:1056FE00F0A3E4F0A37400F0A3742CF0A3E4F0A3E1
:10570E007400F07428A3F0A3E4F0A322A3F0A3E4A2
:10571E00F0A37400F0A37443F0A3E4F0A37400F0BC
:10572E00A37447F0A3E4F0A37400F07444A3F0A3B1
:10573E00E4F0A322A3F09003B6E0FBA3E0FAA3E00B
:10574E00F9229001E074FFF0A37454F07482A3F078
:10575E00A3E4F0A3227400F0A3741BF0A3E4F0A35F
:10576E007400F07417A3F0A3E4F0A3227400F0A366
:10577E00742DF0A3E4F0A37400F07429A3F0A3E455
:10578E00F0A3227400F0A37448F0A3E4F0A3740015
:10579E00F07445A3F0A3E4F0A3229001E074FFF0AF
:1057AE00A37454F0748DA3F0A3E4F0A3229001E04F
:1057BE0074FFF0A37455F0741DA3F0A3E4F0A322BC
:1057CE007400F07414A3F0A3E4F0A3227400F07438
:1057DE0026A3F0A3E4F0A3229001E074FFF0A3222D
:1057EE00EBF0A3EAF0A3E9F09001E07401F0A3223C
:1057FE00A3F0A37401F0A37403F07483A3F0A37455
:10580E0001F0A322A3F0A3E4F0A322A3F0A3E4F0FB
:10581E00A322A3F0A3E4F0A322A3F0A3E4F0A32217
:10582E00A3F0A3E4F0A322FFE0248CF582E434037A
:10583E00F583EFF022E0FF9001E17401F0A3740311
:10584E00F0A37488F07B017A03798322A3F0A3E49A
:10585E00F0A322A3F0A3E4F0A322EBF0A3EAF0A3BB
:10586E00E9F022900001E475F0010227A47BFF7A93
:10587E0054792C90033BF022A3F0A3E4F0A322E092
:10588E005401FB7D2022253DF53DA3E0540322E586
:10589E001590569993FFE514932F2212296F022625
:0F58AE008EA3F0A3E4F0A32212A7369001D52217
:108BE3009001DD125868A31257471258A97002FF6B
:108BF300229001E01257471258A9B4200B9001E0CC
:108C030012574712587180E99001E0125747122911
:108C13006FC003C002C0019001DD12574712298FB4
:108C230080239001E01257471258A9FEB42010E4A4
:108C33001226D49001E01257471258717F0122EE99
:108C430070037F01229001E012574712587180D2BE
:069AEC009001DD12586834
:109AF200E4F53AF53B9001DD12574712268E6022BB
:109B02009001DDA3E475F001122763A9F0FA122691
:109B12008EFF3395E0FEEF253BF53BEE353AF53A05
:069B220080D3AE3AAF3B18
:019B2800221A
:01A736002200
:10957E00E4F53D900383E0540312589425E025E072
:10958E00125894C454F0125894C4333354C0253D29
:10959E00F53D900382E0B5070D900387E0B53D06DB
:1095AE00E4900392F0229003927401F0900387E509
:0795BE003DF0900382EFF085
:0195C5002283
:109656001257E67454F074201256D57400F0745400
:109666001257137400F0745512573B7400F0A3742C
:1096760056F0124B6FAB55AD54E4FF1288F79003CA
:109686003DEFF0E55412587BA3E555F01247EC0583
:0696960055E555B556DF55
:01969C0022AB
:109CC1001257E67454F0744312575C7400F0741E1A
:109CD1001257737400F0A3741FF0124B6FAB1FADDA
:109CE1001EE4FF1288F790033DEFF0E51E12587B4A
:079CF100A3E51FF00247ECA0
:109E72001257E67454F0742012578A7400F0745723
:109E82001257A17400F074581257B47400F0A374FE
:109E920059F0124B6F9001F5E559F0AB58AD57E40C
:049EA200FF028E61CC
:10937100E4F53AF53BF53CF53DC003C0021257E672
:109381007454F0744B1257C77400F0743A1257D3E7
:109391007400F0743B1257DF7400F0743C125812E1
:1093A1007400F0A3743DF0D002D003124B6F900112
:0D93B100F5E53DF0AB3CAD3BE4FF028E6105
:1095C600E4F550F551F552F5531257E67454F0741C
:1095D6005C1258127400F074501258197400F0742A
:1095E600511258197400F0A37452F0124B6FAB521B
:1095F600AD51E4FF1288F78F537BFF7A54796C9054
:08960600033BE553F00247ECC1
:03671C009003B631
:10671F001257EE7403F0A374B6F07B017A0379B9C4
:10672F00128BE3E4FB7D1FFF129D9C9003B9125760
:10673F0047127DCEEE6003026844EF24FE603614EC
:10674F00605A1460781470030267F1240460030226
:10675F0068441257501257CE7400F07419125742F2
:10676F00124B6FAB19AD14E4FF128B72E5149056F8
:10677F00999302683C1257A81257CE7400F07419FF
:10678F001258207400F074151258207400F0741A07
:10679F0012574212684512589D02683C1257E67410
:1067AF0054F074A212569E7400F0A3741B12574338
:1067BF00126845AB1BAD1612685B02683C1257E6B8
:1067CF007454F074C112569E1257637400F0A37480
:1067DF001C12574312687112685BFFE517932F0263
:1067EF00683C1257E67454F0A374EA12569F12577E
:1067FF00637400F0741C1258277400F07418125848
:10680F00277400F0A3741D125743126871E4FF122E
:10681F008B72AB1DAD18E4FF128B7212589DFFE502
:10682F0016932FFFE517932FFFE518932FFD7B018D
:05683F00E4FF129D9C26
:1068440022124B6FAB19AD14E4FF128B72AB1AAD6D
:1068540015E4FF128B7222E4FF128B72E515905639
:106864009993FFE514932FFFE516932F22124B6F94
:10687400AB19AD14E4FF128B72AB1AAD15E4FF1221
:106884008B72AB1BAD16E4FF128B72AB1CAD1722DF
:0FA60400E4FB7D1FFF129D9C7DFFE4FF029F3E44
:036F8D009003BCB2
:106F90001257EE7403F0A374BCF07B017A0379BF3F
:106FA000128BE39003BF125747127DCEEE600302AF
:106FB000709BEF24FE6030146056146071147003EF
:106FC0000270522404600302709B1257501257DA69
:106FD0007400F0A3742BF09003BC125747124B6F50
:106FE000AB2BAD260270961257A81257DA7400F038
:106FF000742B12582E7400F0742712582E7400F05F
:10700000A3742CF09003BC1257471270B60270960E
:107010001257E67454F074A21256DC7400F0A37494
:107020002DF09003BC12574712709C0270961257B5
:10703000E67454F074C11256DC12577A7400F0A34F
:10704000742EF09003BC12574712709C1270C70246
:1070500070961257E67454F0A374EA1256DD125774
:107060007A7400F0742E12585A7400F0742A125870
:107070005A7400F0A3742FF09003BC12574712709B
:10708000B6E4FF128C53AB2DAD281270C7E4FF128B
:0B7090008C53AB2FAD2AE4FF128C5391
:10709B0022124B6FAB2BAD26E4FF128C53AB2CADF6
:1070AB0027E4FF128C53AB2DAD2822124B6FAB2B69
:1070BB00AD26E4FF128C53AB2CAD2722E4FF128CD0
:0670CB0053AB2EAD29229B
:10A4ED001257BB7400F0A37469F0124B6FAD69E4A1
:04A4FD00FF029F3E7D
:10940A00E4F55E7BFF7A55792290033BE55EF01224
:10941A0047ECE4F55DAB5DAD5EE4FF1288F79003BF
:10942A003BEFF07BFF7A5579461247EC055DE55D27
:10943A00540F70097BFF7A55794C1247ECE55D7041
:0A944A00D4055EE55EC3940340B94B
:0194540022F5
:10922400C003C002C0011257E67455F0744E1258C0
:10923400617400F0745F1258617400F07460125726
:10924400FE7403F0748412580A7403F0A374851234
:10925400580B7403F0A37486F0D001D002D003122B
:109264004B6FE55FC454F0FFE560540F2FF55F12B8
:069274005853FF02625B8B
:0658BD009003C2125868BE
:1058C300E4F5387B019001E004F0A37403F0A374C2
:1058D300C2F07A0379C5128BE39003C512574712BE
:1058E3007DCE8F391257F6125AB59003C51257471A
:1058F300129AEC8E308F317A557975125A92B531EE
:105903000AEEB530067532800259927A55797E12C5
:105913005A92B5310AEEB530067532400259927A81
:10592300557987125A99B53109EEB530057532208C
:10593300805D7A557991125A99B53109EEB53005E2
:10594300753210804A7A55799B125AA0B53109EE07
:10595300B5300575320880377A5579A5125AA0B546
:105963003109EEB5300575320480247A5579AD12CC
:105973005AA7B53109EEB5300575320280117A5553
:1059830079B5125AA7B5310DEEB5300975320175E7
:105993003301025A3C7A5579BD125AAEB5310AEE3B
:1059A300B53006753280025A1F7A5579C7125AAE3E
:1059B300B53109EEB5300575324080607A5579D13D
:1059C300125AC6B53109EEB53005753220804D7ACD
:1059D3005579DC125AC6B53109EEB530057532106A
:1059E300803A7A5579E7125ACDB53109EEB53005CB
:1059F30075320880277A5579F2125ACDB53109EEFE
:105A0300B5300575320480147BFF7A5579FB129A01
:105A1300ECEFB5310CEEB53008753202E4F53380A6
:105A2300187BFF7A567904129AECEF65317003EE16
:105A33006530705A753201F5331257F6125AB5EFC5
:105A430060339003C512574712268EB477EB90004C
:105A5300011226A7B469E29000021226A7B46ED9F8
:105A6300E92403F9E43AFA127DCE74342538F8A612
:105A730007053880C4E53860152433F8E6FFC3957D
:0E5A8300395007AB33AD32129E3D153880E727
:105A9100227BFF129AECEF227BFF129AECEF227B22
:105AA100FF129AECEF227BFF129AECEF227BFF129E
:105AB1009AECEF227403F0A374C2F07B017A0379AC
:105AC100C5128BE3227BFF129AECEF227BFF129A25
:035AD100ECEF22D5
:10A59E001257BB7400F0A3743AF0124B6FAF3A022D
:02A5AE00A50105
:109BDC00E4FF129455C0077F01129455C0077F0211
:109BEC00129455C0077F0312945590033EEFF090EA
:109BFC00033DD0E0F090033CD0E0F090033BD0E08C
:0A9C0C00F07BFF7A56790D0247EC59
:0377DD009003C84E
:1077E0001257EE7403F0A374C8F07B017A0379CBCF
:1077F000128BE39003CB125747127DCEEE6003024B
:1078000078CFEF24FE602B1460531460792403605A
:10781000030278CF1257507400F0744312588674E4
:1078200000F0A37447F09003C81257471278EE0295
:1078300078CA1257E67454F0748D12571A7400F017
:10784000A37448F09003C81257471278EEE4FF1271
:107850009F6EE548C454F0FBAD440278CA1257E667
:107860007454F074A212571A1257917400F0A37452
:1078700049F09003C81257471278D0E549C454F034
:10788000FBAD450278CA1257E67454F0A374C112D6
:10789000571B1257917400F074491258867400F007
:1078A00074461258AF7400F0A3744AF09003C812E3
:1078B00057471278D0E549C454F0FBAD45E4FF12B8
:0F78C0009F6EE54AC454F0FBAD46E4FF129F6E85
:1078CF0022124B6FE547C454F0FBAD43E4FF129F08
:1078DF006EE548C454F0FBAD44E4FF129F6E2212D4
:0B78EF004B6FE547C454F0FBAD432293
:038FF0009003CE1D
:108FF3001257EE12903D125747127DCE8F611257D2
:10900300F612903D125747127DCE8F627F0412A74E
:109013002F7F0312A7327F0512A3B99003CEE0F985
:10902300A3E0FAA3E09003B2C9125869AB62AD6141
:0A9033007F011291137F05029D6674
:10903D007403F0A374CEF07B017A0379D1128BE324
:04904D009003D12299
:10969D00756401E4F56374882563F582E43403F59C
:1096AD0083E030E41574832563F582E43403F58398
:1096BD00E0FDE4FF129F3EE4F5640563E563C394AA
:1096CD000440D3E564600FE4FB7D1FFF129D9C7D7C
:0696DD00FFE4FF129F3EB6
:0196E3002264
:106E3F00C003C002C0011257E67456F0744B1258CB
:106E4F00AF7400F0A3743BF0A3E4F0A37400F074EC
:106E5F003C1257FE7403F0A3748812580B7403F09E
:106E6F00A3748412580B7403F0A3748912580B7413
:106E7F0003F0A3748512580B7403F0A3748A12588D
:106E8F000B7403F0A3748612580B7403F0A3748B66
:106E9F00F0D001D002D003124B6FE53BC454F0FF8A
:106EAF0090037FE0FEC433333354802FFFE53C540F
:106EBF000F2F900391F0900388E0900383125835C1
:106ECF00900389E090038412583590038AE0FF9075
:106EDF00038512583690038BE0FF900386125836C5
:106EEF0090038C12588DE4FF129B6590038D1258FE
:106EFF008D7F01129B6590038E12588D7F02129B1E
:106F0F006590038F12588D7F03129B657B017A0367
:106F1F00798C1270D190039112584312512890031B
:106F2F0091E0FF12585312625BE4F53A7488253AE8
:106F3F00F582E43403F58312588DAF3A129E3D0566
:106F4F003AE53AC3940440E4E4F508F509F50A7507
:106F5F000B057F0112A6C5900391E0FF12957E7F6E
:106F6F0008129EA6E4FF12A43212991A7B017A032B
:0D6F7F0079881243D3900391E090039BF0BA
:016F8C0022E2
:108D2800E4FF129455EFB40202C32290037FE0B52A
:108D38000702D32290037FEFF0E0C433333354802B
:108D4800FF900382E0547F4FF07F01129D669003ED
:108D58007FE0FF128EC57B017A03798C1270D19067
:108D68000382125843125128900382E0FF1258538D
:108D780012625BE4FF12A43212991A7B017A03791A
:088D8800881243D312A2A1D30B
:018D900022C0
:10A4AC001257E67455F0A3741D12580B7403F0A3E5
:06A4BC007480F0024B6FFA
:050026007F01029D6650
:10A5650090567CE493FF12000390567CA3E493FF7E
:03A57500020003DE
:037C02009001D519
:107C05001257EE7401F0A374D5F07B017A0179DA8D
:107C1500128BE39001DA125747129AEC9001D8EED5
:107C2500F0A3EFF07A56797F127CD5B50611A3E063
:107C3500B5070C9001D5125747129371027CD27A81
:107C4500567984127CD5B50611A3E0B5070C1258F8
:107C5500B612574712A59E027CD27A56798A127CB3
:107C6500DFE0B50618A3E0B507131258B61257475B
:107C7500126E3F12A2A1E4FF12A6C580507A567972
:107C850090127CDFE0B50610A3E0B5070B1258B6DD
:107C950012574712A4AC80357A567995127CE8E0E4
:107CA500B5060FA3E0B5070A900276E090028BF0C7
:107CB500801B7A567997127CE8E0B50610A3E0B5EB
:0F7CC500070B129EDA900276E0FF129FC97F0133
:107CD400227BFF129AEC9001D8E0227BFF129AECEF
:0D7CE4009001D8227BFF129AEC9001D8226B
:105EA8000D0A0050435400FFC896643200627573AF
:105EB80077203020312041312031316275737720CD
:105EC80030203120413220443779766D697820348A
:105ED800206D6F64652030206873636F6D203120FA
:105EE80031206368303A3130206368313A303020ED
:105EF8006368323A3030206368333A303020687350
:105F0800636F6D20312031206368323A313020636D
:105F180068313A3030206368303A30302063683373
:105F28003A3030206873636F6D2031203120636808
:105F3800313A3130206368303A3030206368323A81
:105F48003030206368333A3030206873636F6D20D7
:105F5800322032206368323A3130206368303A3177
:105F680030206368313A3030206368333A3030206B
:105F78006873636F6D20322032206368303A3130A5
:105F8800206368323A3130206368313A3030206318
:105F980068333A3030206873636F6D2032203220C6
:105FA8006368313A3130206368303A3130206368B1
:105FB800323A3030206368333A3030206873636F88
:105FC8006D20322032206368303A313020636831E6
:105FD8003A3130206368323A3030206368333A30DF
:105FE80030206873636F6D20322032206368313A45
:105FF8003130206368323A3130206368303A3030CB
:10600800206368333A3030206873636F6D20322024
:1060180032206368323A3130206368313A313020B7
:106028006368323A3030206368333A30302068731E
:10603800636F6D20332033206368303A313020633A
:1060480068313A3130206368323A3130206368333E
:106058003A3030206873636F6D20312031206368D7
:10606800333A3030206368313A3030206368323A4E
:0A6078003030206368303A303020E9
:106CE000C12844032E000000004103320041033359
:106CF0000041032D0141032C0241032A0141032BD2
:106D0000004103210042032200004203240000420C
:106D10000326000042032800004102F5014102F46D
:096D200000410334004102F300BC
:107F82007D017BFF7E007F26022668900213E0FEC1
:107F9200740B2FF582E43402F5832274DF2FF5820D
:107FA200E43401F583E022900006E0FAA3E0FB7CD2
:107FB20000FFAE020226F878F67C027D017B0122E8
:107FC2007D017BFF7E000226687C00AF03AE0212B9
:107FD20026F8900006ECF0A3EDF022E4F0A3F0A363
:107FE200F0A322E4FDFC900009E0F8A3E0F9A3E08D
:107FF200FAA3E0FBC302290E7D017BFF7E007F0E08
:10800200022668E53AF0900274E004F022E4FCFDF6
:10801200900009022932F0A37420F0A37403F0E463
:10802200A3F022900244E090032D2290020B7402EE
:10803200F0A37432F0A32234FFFE7C007D060226F8
:0F804200F8900274E0240B227B017A0279F62277
:107EA90012A5D4EF64016003027F7A43E11012A4A2
:107EB9004C8F3AE53AB40218900242E070129002EF
:107EC9007404F090020BE53AF09002427401F0223A
:107ED900E53A6403702A90020CE0FF64526004EFF3
:107EE900B4531D9002F3E07017900274E0FFD3942D
:107EF90003500D9002F37401F0127F921280052253
:107F0900E53AB4031B900246E07015128043127FD4
:107F1900951280059002467401F0E49002F3F02274
:107F2900900246E064017037128043127F95E53A6A
:107F3900F07B017A02790B7D04125CBFEF602F9010
:107F490003207401F090020CE09002F6F0E4A3F033
:107F590090020DE0900276F090031F7402F0221255
:107F69008043127F95128005E0D39408400A02A24B
:087F79007BE4900328F0A3F063
:017F810022DD
:09A6BC007BFF7A5E79A802A2027C
:0B9E08009003EFEBF0A3EAF0A3E9F0F9
:109E13009003EFE0FBA3E0FAA3E0F912268E6019AA
:109E23009003EFA3E475F001122763A9F0FA122659
:099E33008EF56AFF12000380D7CE
:019E3C002203
:10A27B00E4900242F0900246F0900274F090020BD0
:10A28B00127FDE127FDEF0A3F0A3F090031FF0A38A
:06A29B00F09002F6F02233
:09A6C500EF6003C20122D2012260
:0CA69100C200C201C227E4900408F022BD
:109FF6009003F2EBF0A3EAF0A3E9F020001D900332
:10A00600F2E0FBA3E0FAA3E0F8AC02AD037BFF7A33
:0CA016005E79AB122B82EF7002D20022A8
:089321009001D5EEF0A3EFF07E
:109329009001D5E07002A3E0603DE49001D7F0A37D
:10933900F09001D7E0FEA3E0FFE4FCFD7B1BFAF906
:10934900F8D312290E40109001D8E004F070E29091
:1093590001D7E004F080DA9001D6E024FFF0900113
:07936900D5E034FFF080B9EC
:0193700022DA
:10689400900000127FDD74C8F0A37464F0E4A3F0E8
:1068A4001294A012A61312A69112A27BE4FF12A5C1
:1068B400F4128A047F4D124E08128F8D750E0075E6
:1068C4000F287510017511E09003227401F0A37470
:1068D400E0F0751200751304A37407F0A304F07FAD
:1068E4009812A71DEF5410FFC4540F900005F01226
:1068F4007EA9900320E0B4010612804A127C029023
:106904000320E0B4010312A27B302707128D285024
:1069140002C22712A5D4EF6009900003E0750A00B3
:10692400F50BE50B6401450A700DF50AF50B9000B3
:1069340004E0750800F509E50964014508701E9036
:106944000242E070181296E490028BE0FF900289F4
:10695400E06F6003124E08750800750914E51364AE
:10696400014512701990024EE0C394014010900248
:106974003AE0B40109751200751304127A15E50F93
:106984006401450E703C90024EE0703690023AE08D
:10699400B4012F900321E0FF74017E00A807088052
:1069A40005C333CE33CED8F9FF129BA1900321E067
:1069B40004F0750E00750F28E0C394064007E4F058
:1069C4008003129F0C900322E07004A3E064017022
:1069D4000F90022EF0A3F090032204F0A374E0F0D1
:1069E400900324E07004A3E06401701690023AE07E
:1069F400B4010F900005E0FF129534E4900324F0F5
:086A0400A3F043E1100268F366
:1094A000E4F5B8F5A8F58775E127F5D0758922F5BB
:1094B0008812A49612A6CE12A415E4F58EF5A2D2B7
:1094C00099D2AF00F593F5944391035392FCF5952F
:1094D000F596F5B1F5B2F5B375B404C2E9C292C21E
:0A94E00093C294C295C296C297226F
:088051009001DDEFF0A3EDF05A
:1080590078DF7C017A5E79AF7F06127FC29001DDFD
:10806900E014603014604714605E14607514700386
:108079000281052405600302811EE4F5EA9001DE10
:10808900E0FF7004F5DA800375DA42127F9DF5FA94
:10809900E4F5F222E4F5EB9001DEE0FF7004F5DB94
:1080A900800375DB42127F9DF5FBE4F5F322E4F5CD
:1080B900EC9001DEE0FF7004F5DC800375DC421210
:1080C9007F9DF5FCE4F5F422E4F5ED9001DEE0FF97
:1080D9007004F5DD800375DD42127F9DF5FDE4F541
:1080E900F522E4F5EE9001DEE0FF7004F5DE800391
:1080F90075DE42127F9DF5FEE4F5F622E4F5EF9078
:1081090001DEE0FF7004F5DF800375DF42127F9D19
:05811900F5FFE4F5F79D
:01811E00223E
:0FA61300E4F5E9F5F975D90475D84043A680221E
:054E0800900006EFF030
:104E0D0078077C007A5E79B5127FFA78157C007A86
:104E1D005E79C3127FFA78237C007D017BFF7A5E79
:104E2D0079D17E007F08122668782B7C007A5E7916
:104E3D00D97F07127FC278327C007A5E79E0127FCB
:104E4D008278587C007A5F7906127F82787E7C00AA
:104E5D007D017BFF7A5F792C127F8678A47C007DA3
:104E6D00017BFF7A5F7952127F8678CA7C007D01C3
:104E7D007BFF7A5F7978127F8678F07C007D017BED
:104E8D00FF7A5F799E127F8678167C017D017BFF0C
:104E9D007A5F79C4127F86783C7C017D017BFF7A35
:104EAD005F79EA127F8678627C017D017BFF7A60F3
:104EBD007910127F8678887C017D017BFF7A60797D
:104ECD0036127F8678AE7C017D017BFF7A60795C3E
:104EDD00127F86E49001D4F0900006E0FE24B6FF28
:104EED00C3940A400674FC2FFF8005E4900277F00E
:104EFD00900289EEF0EFB408005062904F0FF82841
:104F0D002873024F27024F2C024F33024F39024FA5
:104F1D0040024F4E024F5A024F629003338041E4DC
:104F2D00900333F0803DE490024580199002457462
:104F3D000180129002447401F090032D7404F080EE
:104F4D0022E4900244F090032D04F0801690027735
:104F5D007414F0800E9002777441F0800690032D4A
:104F6D007401F0900277E0FFC39401400890033282
:104F7D00EFF0025003900333E06401704990024555
:104F8D00E0601B128025B4010B7402F090032C74A9
:104F9D0004F080237402F090032C14F08019128019
:104FAD0025B4010B7404F090032C7402F080087486
:104FBD0001F090032C04F090032DE0C454F0FF9009
:104FCD00032CE04F802C900245E0600590032D806E
:104FDD000C128025B4010B7404F090032C7402F0B4
:104FED0080087401F090032C04F090032DE0FFC4B1
:104FFD0054F0900332F090032AE060251299E812E4
:10500D007FB97A00790712510F7A00791512510F75
:10501D007A00792B7E007F0712266812804A127C57
:10502D0002900332E01229DE505410507A12507E55
:10503D0014505620507C21509024505F4050874191
:10504D00507A42000050A28009127FB97A00795837
:10505D008007127FB97A007932127F869001F5743C
:10506D0003F07B0F7D01E4FF128E618032801D8085
:10507D0012127FB97A0079F08022127FB97A017904
:10508D00168019127FB97A0079CA8010127FB97A09
:10509D000079A48007127FB97A007932127F86E4F5
:1050AD0090032AF012804A127C02900332E01229FA
:1050BD00DE50DD1050E71250EF1450DF2050EB2181
:1050CD0050FA2450E34050F34150FE420000510984
:1050DD008000E4FF8012E4FF80197F01800A7F01C8
:1050ED0080067F0180027F01128AFF800F7F018081
:1050FD00027F01128AFF9001D47401F09001D4E077
:01510D00FFA2
:10510E00227E007F0E1226687B017A0279F6127CCF
:0A511E000278F67C027D017B01227D
:029FC900AB07E4
:109FCB00E4FFFEEBC3943D4021EBD39461501BEBBC
:109FDB0024C3FFEE128039AA07EB24C3FFE41280DF
:0A9FEB0039AE05AF021280517F016C
:019FF5002249
:10917100E4FBFAFD7F9012972BEEC4F854F0C86817
:10918100FEEFC4540F48FFEEC4F854F0C868FAEF7C
:10919100C4540F48FB2091047A007B637C007D0A54
:1091A100AF03AE021226F8D3ED9409EC94005007F8
:1091B100ED2430900221F0AE02AF037C007D0A1253
:0991C10026F8EF2430900226F09C
:0191CA002282
:1076BF00900006127FDD12293E00000000E4FF1249
:1076CF00A399900006EEF0A3EFF0900006E0FEA362
:1076DF00E0FF12800F7F6E7E02127FE54042E47F53
:1076EF00A57E03FDFC900009E0F8A3A3A3E0D3124D
:1076FF00290E9000095020E0F8A3A3A3C374A59B03
:10770F00FF74039AFEE499FDE498FCE47B707A0120
:10771F00F9F81227F1802B12293E00030AE8803175
:10772F007FF37E01127FE5401E900006E0FEA3E08E
:10773F00FF746E9FFF74029EFE7C007DD21226E6C0
:10774F00E4FD128012800A90000912293E0000F217
:10775F0094E47B64FAF9F8900009E0FCA3E0FDA340
:10776F00E0FEA3E0FF12287C900006EEF0FAA3EFF4
:10777F00F0FB12800FD3EB940FEA9427400A90008E
:10778F00067427F0A3740FF0900006E0FAA3E0FB55
:10779F007C037DE8127FB3EF243090021BF07C0353
:1077AF007DE8127FCD7D64127FA9EF243090021AFD
:1077BF00F07D64127FCB7D0A127FA9EF24309002F7
:0D77CF0019F07D0A127FCB2430900218F0D3
:0177DC00228A
:10927A0012802D7450F0A37430F0A37461F0A374BB
:10928A003312801890000DF090000DE0FFD3940780
:10929A005013127F8DE0FFEE6F900213F090000DD5
:1092AA00E004F080E3E490000DF090000DE0FFD3BD
:1092BA0094085010127F92E0FF12000390000DE014
:0492CA0004F080E646
:0192CE00227D
:1090510012802D744FF090023FE090020EF09002CA
:1090610040E090020FF0900241E09002101280184F
:1090710090000DF090000DE0FFD394075013127F84
:109081008DE0FFEE6F900213F090000DE004F08090
:10909100E3E490000DF090000DE0FFD39408501030
:1090A100127F92E0FF12000390000DE004F080E6D1
:0190B100229C
:10002E001010FFFFFFFFFFFFFFFFFFFFFFFFFFFFB0
:10003E00FFFFFFFFFFFFFFFFFFFFFFFFFFFFFFFFC2
:10004E00FFFFFFFFFFFFFFFFFFFFFFFFFFFFFFFFB2
:10005E00FFFFFFFFFFFFFFFFFFFFFFFFFFFFFFFFA2
:10006E00FFFFFFFFFFFFFFFFFFFFFFFFFFFFFFFF92
:10007E00FFFFFFFFFFFFFFFFFFFFFFFFFFFFFFFF82
:10008E00FFFFFFFFFFFFFFFFFFFFFFFFFFFFFFFF72
:10009E00FFFFFFFFFFFFFFFFFFFFFFFFFFFFFFFF62
:1000AE00FFFFFFFFFFFFFFFFFFFFFFFFFFFFFFFF52
:1000BE00FFFFFFFFFFFFFFFFFFFFFFFFFFFFFFFF42
:1000CE00FFFFFFFFFFFFFFFFFFFFFFFFFFFFFFFF32
:1000DE00FFFFFFFFFFFFFFFFFFFFFFFFFFFFFFFF22
:1000EE00FFFFFFFFFFFFFFFFFFFFFFFFFFFFFFFF12
:1000FE00FFFFFFFFFFFFFFFFFFFFFFFFFFFFFFFF02
:10010E00FFFFFFFFFFFFFFFFFFFFFFFFFFFFFFFFF1
:10011E00FFFFFFFFFFFFFFFFFFFFFFFFFFFFFFFFE1
:10012E00FFFF1010FFFFFFFFFFFFFFFFFFFFFFFFAF
:10013E00FFFFFFFFFFFFFFFFFFFFFFFFFFFFFFFFC1
:10014E00FFFFFFFFFFFFFFFFFFFFFFFFFFFFFFFFB1
:10015E00FFFFFFFFFFFFFFFFFFFFFFFFFFFFFFFFA1
:10016E00FFFFFFFFFFFFFFFFFFFFFFFFFFFFFFFF91
:10017E00FFFFFFFFFFFFFFFFFFFFFFFFFFFFFFFF81
:10018E00FFFFFFFFFFFFFFFFFFFFFFFFFFFFFFFF71
:10019E00FFFFFFFFFFFFFFFFFFFFFFFFFFFFFFFF61
:1001AE00FFFFFFFFFFFFFFFFFFFFFFFFFFFFFFFF51
:1001BE00FFFFFFFFFFFFFFFFFFFFFFFFFFFFFFFF41
:1001CE00FFFFFFFFFFFFFFFFFFFFFFFFFFFFFFFF31
:1001DE00FFFFFFFFFFFFFFFFFFFFFFFFFFFFFFFF21
:1001EE00FFFFFFFFFFFFFFFFFFFFFFFFFFFFFFFF11
:1001FE00FFFFFFFFFFFFFFFFFFFFFFFFFFFFFFFF01
:10020E00FFFFFFFFFFFFFFFFFFFFFFFFFFFFFFFFF0
:10021E00FFFFFFFFFFFFFFFFFFFFFFFFFFFFFFFFE0
:10022E00FFFFFFFF1010FFFFFFFFFFFFFFFFFFFFAE
:10023E00FFFFFFFFFFFFFFFFFFFFFFFFFFFFFFFFC0
:10024E00FFFFFFFFFFFFFFFFFFFFFFFFFFFFFFFFB0
:10025E00FFFFFFFFFFFFFFFFFFFFFFFFFFFFFFFFA0
:10026E00FFFFFFFFFFFFFFFFFFFFFFFFFFFFFFFF90
:10027E00FFFFFFFFFFFFFFFFFFFFFFFFFFFFFFFF80
:10028E00FFFFFFFFFFFFFFFFFFFFFFFFFFFFFFFF70
:10029E00FFFFFFFFFFFFFFFFFFFFFFFFFFFFFFFF60
:1002AE00FFFFFFFFFFFFFFFFFFFFFFFFFFFFFFFF50
:1002BE00FFFFFFFFFFFFFFFFFFFFFFFFFFFFFFFF40
:1002CE00FFFFFFFFFFFFFFFFFFFFFFFFFFFFFFFF30
:1002DE00FFFFFFFFFFFFFFFFFFFFFFFFFFFFFFFF20
:1002EE00FFFFFFFFFFFFFFFFFFFFFFFFFFFFFFFF10
:1002FE00FFFFFFFFFFFFFFFFFFFFFFFFFFFFFFFF00
:10030E00FFFFFFFFFFFFFFFFFFFFFFFFFFFFFFFFEF
:10031E00FFFFFFFFFFFFFFFFFFFFFFFFFFFFFFFFDF
:10032E00FFFFFFFFFFFF1010FFFFFFFFFFFFFFFFAD
:10033E00FFFFFFFFFFFFFFFFFFFFFFFFFFFFFFFFBF
:10034E00FFFFFFFFFFFFFFFFFFFFFFFFFFFFFFFFAF
:10035E00FFFFFFFFFFFFFFFFFFFFFFFFFFFFFFFF9F
:10036E00FFFFFFFFFFFFFFFFFFFFFFFFFFFFFFFF8F
:10037E00FFFFFFFFFFFFFFFFFFFFFFFFFFFFFFFF7F
:10038E00FFFFFFFFFFFFFFFFFFFFFFFFFFFFFFFF6F
:10039E00FFFFFFFFFFFFFFFFFFFFFFFFFFFFFFFF5F
:1003AE00FFFFFFFFFFFFFFFFFFFFFFFFFFFFFFFF4F
:1003BE00FFFFFFFFFFFFFFFFFFFFFFFFFFFFFFFF3F
:1003CE00FFFFFFFFFFFFFFFFFFFFFFFFFFFFFFFF2F
:1003DE00FFFFFFFFFFFFFFFFFFFFFFFFFFFFFFFF1F
:1003EE00FFFFFFFFFFFFFFFFFFFFFFFFFFFFFFFF0F
:1003FE00FFFFFFFFFFFFFFFFFFFFFFFFFFFFFFFFFF
:10040E00FFFFFFFFFFFFFFFFFFFFFFFFFFFFFFFFEE
:10041E00FFFFFFFFFFFFFFFFFFFFFFFFFFFFFFFFDE
:10042E00FFFFFFFFFFFFFFFF1010FFFFFFFFFFFFAC
:10043E00FFFFFFFFFFFFFFFFFFFFFFFFFFFFFFFFBE
:10044E00FFFFFFFFFFFFFFFFFFFFFFFFFFFFFFFFAE
:10045E00FFFFFFFFFFFFFFFFFFFFFFFFFFFFFFFF9E
:10046E00FFFFFFFFFFFFFFFFFFFFFFFFFFFFFFFF8E
:10047E00FFFFFFFFFFFFFFFFFFFFFFFFFFFFFFFF7E
:10048E00FFFFFFFFFFFFFFFFFFFFFFFFFFFFFFFF6E
:10049E00FFFFFFFFFFFFFFFFFFFFFFFFFFFFFFFF5E
:1004AE00FFFFFFFFFFFFFFFFFFFFFFFFFFFFFFFF4E
:1004BE00FFFFFFFFFFFFFFFFFFFFFFFFFFFFFFFF3E
:1004CE00FFFFFFFFFFFFFFFFFFFFFFFFFFFFFFFF2E
:1004DE00FFFFFFFFFFFFFFFFFFFFFFFFFFFFFFFF1E
:1004EE00FFFFFFFFFFFFFFFFFFFFFFFFFFFFFFFF0E
:1004FE00FFFFFFFFFFFFFFFFFFFFFFFFFFFFFFFFFE
:10050E00FFFFFFFFFFFFFFFFFFFFFFFFFFFFFFFFED
:10051E00FFFFFFFFFFFFFFFFFFFFFFFFFFFFFFFFDD
:10052E00FFFFFFFFFFFFFFFFFFFF1010FFFFFFFFAB
:10053E00FFFF00000000FFFFFFFFFFFFFFFFFFFFB9
:10054E00FF000000000000FFFFFFFFFFFFFFFFFFA7
:10055E000000020202020000FFFFFFFFFFFFFFFF8D
:10056E000000020202020000FFFFFFFFFFFFFF007C
:10057E00000202000002020000FFFFFFFFFFFF006B
:10058E00000202000002020000FFFFFFFFFF00005A
:10059E0002020000000002020000FFFFFFFF000049
:1005AE00020200FFFF0002020000FFFFFF00000238
:1005BE00020000FFFF000002020000FFFF00000229
:1005CE000200000000000002020000FF0000020214
:1005DE0002020202020202020202000000000202F5
:1005EE0002020202020202020202000000000202E5
:1005FE0000000000000000000202000000000202E5
:10060E000000FFFFFFFF00000202000000000202D8
:10061E000000FFFFFFFF00000202000000000000CC
:10062E000000FFFFFFFF00000000000010100000A0
:10063E00000000000000000000000000FFFF0002AC
:10064E0002020202020202020202000000FF000287
:10065E000202020202020202020202000000000076
:10066E000002020000000000020202020000FF0071
:10067E0000020200FFFFFF00000202020000FF0066
:10068E0000020200FFFFFF00000202020000FF0056
:10069E0000020200000000000202020000FFFF0044
:1006AE00000202020202020202020000FFFFFF002D
:1006BE00000202020202020202020000FFFFFF001D
:1006CE0000020200000000000202020000FFFF0014
:1006DE0000020200FFFFFF00000202020000FF0006
:1006EE0000020200FFFFFF000002020200000000F5
:1006FE0000020200000000000202020200000002DE
:10070E0002020202020202020202020000000002C3
:10071E0002020202020202020202000000FF0000B8
:10072E00000000000000000000000000FFFF10109D
:10073E00FFFFFF00000000000000000000FFFFFFB1
:10074E00FFFF00000202020202020202000000FF8E
:10075E00FF00000202020202020202020200000078
:10076E000000000202000000000000020202000071
:10077E0000000202020000FFFFFF00000202000064
:10078E00000002020000FFFFFFFFFF000202000058
:10079E00000002020000FFFFFFFFFFFF000000004D
:1007AE00000002020000FFFFFFFFFFFFFFFFFFFF41
:1007BE00000002020000FFFFFFFFFFFFFFFFFFFF31
:1007CE00000002020000FFFFFFFFFF00000000001C
:1007DE00000002020000FFFFFFFFFF000202000008
:1007EE0000000202000000FFFFFF000002020000F6
:1007FE0000000202020000000000000202020000DF
:10080E00FF000002020202020202020202000000C7
:10081E00FFFF00000202020202020202000000FFBD
:10082E00FFFFFF0000000000000000000000FFFFBF
:10083E001010000000000000000000000000FFFF8C
:10084E00FFFF00000202020202020202020000FF8B
:10085E00FFFF000002020202020202020202000078
:10086E00FFFF000002020000000000020202000072
:10087E00FFFF000002020000FFFF00000202000066
:10088E00FFFF000002020000FFFF00000202000056
:10089E00FFFF000002020000000000020202000042
:1008AE00FFFF00000202020202020202020000FF2B
:1008BE00FFFF00000202020202020202000000FF1D
:1008CE00FFFF000002020000020202000000FFFF14
:1008DE00FFFF000002020000000202020000FFFF04
:1008EE00FFFF00000202000000000202020000FFF3
:1008FE00FFFF000002020000FF00000202020000E3
:10090E00FFFF000002020000FFFF000002020200D3
:10091E0000FF000002020000FFFFFF0000020202C3
:10092E0000FF000000000000FFFFFFFF00000000BE
:10093E0000FF101000000000FFFFFFFFFFFFFFFF92
:10094E00000000000000000000FFFFFFFFFFFF009F
:10095E000000000000000C0C0000FFFFFFFF000075
:10096E000C0C000000000C0C0C0000000000000C31
:10097E000C0C000000000C0C0C0C000000000C0C09
:10098E000C0C000000000C0C0C0C0C0C0C0C0C0CC9
:10099E000C0C000000000C0C0C0C0C0C0C0C0C0CB9
:1009AE000C0C000000000C0C0C000C0C0C0C000CC1
:1009BE000C0C000000000C0C0C00000C0C00000CC9
:1009CE000C0C000000000C0C0C0000000000000CD1
:1009DE000C0C000000000C0C0C0000000000000CC1
:1009EE000C0C000000000C0C0C0000FFFF00000CB3
:1009FE000C0C000000000C0C0C0000FFFF00000CA3
:100A0E000C0C000000000C0C0C0000FFFF00000C92
:100A1E000C0C000000000C0C0C0000FFFF00000C82
:100A2E000C0C000000000000000000FFFF000000A2
:100A3E00000000001010FF00000000000000000089
:100A4E000000000000FFFF0000020202020202028C
:100A5E000202020000FFFF00000202020202020276
:100A6E000202020000FFFF00000000000000020270
:100A7E000200000000FFFFFFFFFFFFFF0000020269
:100A8E00020000FFFFFFFFFFFFFFFFFF000002025B
:100A9E00020000FFFFFFFFFFFFFFFFFF000002024B
:100AAE00020000FFFFFFFFFFFFFFFFFF000002023B
:100ABE00020000FFFFFFFFFFFFFFFFFF000002022B
:100ACE00020000FFFFFFFFFFFFFFFFFF000002021B
:100ADE00020000FFFFFFFF00000000FF0000020207
:100AEE00020000FFFFFFFF000202000000000202F2
:100AFE00020000FFFFFFFF000202020000020202DE
:100B0E00020000FFFFFFFF000002020202020202CB
:100B1E00000000FFFFFFFFFF0000020202020200C2
:100B2E000000FFFFFFFFFFFFFF00000000000000BE
:100B3E0000FFFFFFFFFF1010FFFFFFFFFFFFFFFF94
:100B4E00FFFFFFFFFFFFFFFFFFFFFFFFFF000000A4
:100B5E0000000000FFFFFFFFFFFFFFFF000001018D
:100B6E0001010000FFFFFFFFFFFFFF000001010179
:100B7E0001010000FFFFFFFFFFFF00000101010167
:100B8E00010000FFFFFFFFFFFF0000010101010157
:100B9E000000000000000000000001010101010141
:100BAE00010101010101000000010101010101012A
:100BBE00010101010101000000010101010101011A
:100BCE00010101010101000000000101010101010B
:100BDE000101010101010000FF00000101010101FD
:100BEE000000000000000000FFFF000001010101F5
:100BFE00010000FFFFFFFFFFFFFFFF0000010101EB
:100C0E0001010000FFFFFFFFFFFFFFFF00000101DA
:100C1E0001010000FFFFFFFFFFFFFFFFFF000000CD
:100C2E0000000000FFFFFFFFFFFFFFFFFFFFFFFFC2
:100C3E00FFFFFFFFFFFFFFFF1010FFFFFFFFFFFF94
:100C4E00FFFFFFFFFFFFFFFFFFFFFFFFFFFF0000A4
:100C5E000000000000FFFFFFFFFFFFFFFFFF00008F
:100C6E00010101010000FFFFFFFFFFFFFFFF00007A
:100C7E0001010101010000FFFFFFFFFFFFFFFF0069
:100C8E000001010101010000FFFF00000000000053
:100C9E00000001010101010000FF0000010101013E
:100CAE00010101010101010100000000010101012A
:100CBE000101010101010101010000000101010119
:100CCE00010101010101010101000000000000000D
:100CDE00000001010101010000FF00000000000002
:100CEE00000001010101010000FFFFFFFFFFFF00F7
:100CFE000001010101010000FFFFFFFFFFFF0000E7
:100D0E0001010101010000FFFFFFFFFFFFFF0000D7
:100D1E00010101010000FFFFFFFFFFFFFFFF0000C9
:100D2E000000000000FFFFFFFFFFFFFFFFFFFFFFC0
:100D3E00FFFFFFFFFFFFFFFFFFFF1010FFFFFFFF93
:100D4E000000000000000000FFFFFFFFFFFFFFFF9D
:100D5E000000010101010000FFFFFFFFFFFFFFFF89
:100D6E000000010101010000FFFFFFFFFFFFFFFF79
:100D7E000000010101010000FFFFFFFFFFFFFFFF69
:100D8E000000010101010000FFFFFFFF0000000055
:100D9E00000001010101000000000000000001013F
:100DAE00000001010101000001010000000001012D
:100DBE00010001010101000101010000000001011B
:100DCE000101010101010101010100000000010109
:100DDE00010101010101010101010000FF000001FB
:100DEE000101010101010101010000FFFFFF0000EF
:100DFE0001010101010101010000FFFFFFFFFF00E2
:100E0E00000101010101010000FFFFFFFFFFFFFFD5
:100E1E000000010101010000FFFFFFFFFFFFFFFFC8
:100E2E00FF000001010000FFFFFFFFFFFFFFFFFFBC
:100E3E00FFFF00000000FFFFFFFFFFFF1010FFFF8E
:100E4E00FFFFFFFFFFFF0000000000000000FFFF9C
:100E5E00FFFFFFFFFF000002020202020000FFFF81
:100E6E00FFFFFFFF00000202020202020000FFFF6E
:100E7E00FFFFFF000002020200000202000000005D
:100E8E00000000000202020000000202000000004A
:100E9E000202020202020200FF0002020000000033
:100EAE000202020202020200FF0002020000000023
:100EBE000202000000020200FF0002020000000019
:100ECE00020200FF00020200FF000202000000000A
:100EDE000202000000020200FF00020200000000F9
:100EEE000202020202020200FF00020200000000E3
:100EFE0002020202020202000000020200000000D2
:100F0E000000000000020202000002020000FFFFCB
:100F1E00FFFFFFFF00000202020202020000FFFFBD
:100F2E00FFFFFFFFFF000002020202020000FFFFB0
:100F3E00FFFFFFFFFFFF0000000000000000101089
:100F4E000000000000FFFFFFFFFFFF000000000099
:100F5E000001010100FFFFFFFFFFFF000101010083
:100F6E000001010100FFFFFFFFFFFF000101010073
:100F7E000001010100FFFFFFFFFFFF000101010063
:100F8E000001010100FFFFFFFFFFFF000101010053
:100F9E00000101010000FFFFFFFF00000101010041
:100FAE00000101010100FFFFFFFF0001010101002F
:100FBE00000001010100FFFFFFFF00010101000021
:100FCE0000000101010000FFFF000001010100000F
:100FDE00FF0000010101000000000101010000FFFF
:100FEE00FFFF000001010100000101010000FFFFF1
:100FFE00FFFF000000010100000101000000FFFFE3
:10100E00FFFFFF00000101010101010000FFFFFFD2
:10101E00FFFFFFFF0000010101010000FFFFFFFFC6
:10102E00FFFFFFFFFF00000101000000FFFFFFFFB9
:10103E00FFFFFFFFFFFF0000000000FFFFFFFFFFAD
:10104E00101000000000000000FFFFFFFFFFFFFF79
:10105E00FFFF00000101010000FFFFFFFFFFFFFF88
:10106E00FFFF00000101010000FFFFFFFFFFFFFF78
:10107E00FFFF00000101010000FFFFFFFFFFFFFF68
:10108E00FFFF00000101010000FFFFFFFFFFFFFF58
:10109E00FFFF00000101010000FFFFFFFFFFFFFF48
:1010AE00FFFF00000101010000FFFFFFFFFFFFFF38
:1010BE00FFFF00000101010000FFFFFFFFFFFFFF28
:1010CE00FFFF00000101010000FFFFFFFFFFFFFF18
:1010DE00FFFF00000101010000FFFFFFFFFF000006
:1010EE00000000000101010000FFFFFFFFFF0000F4
:1010FE00000000000101010000FFFFFFFF000001E2
:10110E0000000000010101000000000000000101CC
:10111E0000000000010101010101010101010101B5
:10112E0000000000010101010101010101010101A5
:10113E0000000000000000000000000000000000A1
:10114E0000001010FFFFFFFFFFFFFFFFFFFFFFFF7D
:10115E00FFFFFFFFFFFFFFFFFFFFFFFFFFFFFFFF91
:10116E00FFFFFFFFFFFFFFFFFFFFFFFFFFFFFFFF81
:10117E00FFFFFFFFFFFFFFFF00000000000000FF6A
:10118E00FFFFFFFFFFFFFF00000001010100000055
:10119E00FFFFFFFFFFFF0000010101010101010040
:1011AE0000FFFFFFFF00000101010000000101012F
:1011BE000000FFFF00000001010000FF0000010120
:1011CE00000000FF00000101010000FF000001010E
:1011DE00010000FF00000101010000FF00000101FD
:1011EE00010000FF00000101010000FF00000101ED
:1011FE00010000FF00000001010000FF00000101DE
:10120E00000000FFFF0000010101000000010101CC
:10121E000000FFFFFFFF00000101010101010100BD
:10122E0000FFFFFFFFFFFF000000010101000000B3
:10123E00FFFFFFFFFFFFFFFF00000000000000FFA9
:10124E00FFFFFFFF1010FFFFFFFFFFFFFFFFFFFF7E
:10125E00FFFFFFFFFFFFFFFFFFFF0000000000008A
:10126E000000FFFFFFFFFFFF00000000020202026E
:10127E00000000FFFFFFFF00000002020202020258
:10128E0002020000FFFFFF00000202020000000049
:10129E000202020000FFFF00000202020000FF0037
:1012AE000000000000FFFF0000000202020200002A
:1012BE000000FFFFFFFFFFFFFF000002020202021D
:1012CE00020000FFFFFFFFFFFFFF00000000020211
:1012DE0002020000FFFFFF0000000000FFFF000001
:1012EE000202020000FFFF000002020200000000E6
:1012FE000202020000FFFF000000020202020202D0
:10130E0002020000FFFFFFFFFF00000002020202C8
:10131E00000000FFFFFFFFFFFFFFFF0000000000C7
:10132E000000FFFFFFFFFFFFFFFFFFFFFFFFFFFFBD
:10133E00FFFFFFFFFFFFFFFFFFFFFFFFFFFFFFFFAF
:10134E00FFFFFFFFFFFF1010FFFFFFFFFFFFFFFF7D
:10135E00FFFFFFFFFFFFFFFFFFFFFFFFFFFFFFFF8F
:10136E00FFFFFFFFFFFFFFFFFFFFFFFFFFFFFFFF7F
:10137E00FFFFFFFFFFFFFFFFFFFFFFFFFFFFFFFF6F
:10138E00FFFFFFFFFFFFFFFFFFFFFFFFFFFFFFFF5F
:10139E00FFFFFFFFFFFFFFFFFFFFFFFFFFFFFFFF4F
:1013AE00FFFFFFFFFFFFFFFFFFFFFFFFFFFFFFFF3F
:1013BE00FFFFFFFFFFFFFFFFFFFFFFFFFFFFFFFF2F
:1013CE00FFFFFFFFFFFFFFFF1010FFFFFFFFFFFFFD
:1013DE00FFFFFFFFFFFFFFFFFFFFFFFFFFFFFFFF0F
:1013EE00FFFFFFFFFFFFFFFFFFFFFFFFFFFFFFFFFF
:1013FE00FFFFFFFFFFFFFFFFFFFFFFFFFFFFFFFFEF
:10140E00FFFFFFFFFFFFFFFFFFFFFFFFFFFFFFFFDE
:10141E00FFFFFFFFFFFFFFFFFFFFFFFFFFFFFFFFCE
:10142E00FFFFFFFFFFFFFFFFFFFFFFFFFFFFFFFFBE
:10143E00FFFFFFFFFFFFFFFFFFFFFFFFFFFFFFFFAE
:10144E00FFFFFFFFFFFFFFFFFFFF1010FFFFFFFF7C
:10145E00FFFFFFFFFFFFFFFFFFFFFFFFFFFFFFFF8E
:10146E00FFFFFFFFFFFFFFFFFFFFFFFFFFFFFFFF7E
:10147E00FFFFFFFFFFFFFFFFFFFFFFFFFFFFFFFF6E
:10148E00FFFFFFFFFFFFFFFFFFFFFFFFFFFFFFFF5E
:10149E00FFFFFFFFFFFFFFFFFFFFFFFFFFFFFFFF4E
:1014AE00FFFFFFFFFFFFFFFFFFFFFFFFFFFFFFFF3E
:1014BE00FFFFFFFFFFFFFFFFFFFFFFFFFFFFFFFF2E
:1014CE00FFFFFFFFFFFFFFFFFFFFFFFF1010FFFFFC
:1014DE00FFFFFFFFFFFFFFFFFFFFFFFFFFFFFFFF0E
:1014EE00FFFFFFFFFFFFFFFFFFFFFFFFFFFFFFFFFE
:1014FE00FFFFFFFFFFFFFFFFFFFFFFFFFFFFFFFFEE
:10150E00FFFFFFFFFFFFFFFFFFFFFFFFFFFFFFFFDD
:10151E00FFFFFFFFFFFFFFFFFFFFFFFFFFFFFFFFCD
:10152E00FFFFFFFFFFFFFFFFFFFFFFFFFFFFFFFFBD
:10153E00FFFFFFFFFFFFFFFFFFFFFFFFFFFFFFFFAD
:10154E00FFFFFFFFFFFFFFFFFFFFFFFFFFFF10107B
:10155E00FFFFFFFFFFFFFFFFFFFFFFFFFFFFFFFF8D
:10156E00FFFFFFFFFFFFFFFFFFFFFFFFFFFFFFFF7D
:10157E00FFFFFFFFFFFFFFFFFFFFFFFFFFFFFFFF6D
:10158E00FFFFFFFFFFFFFFFFFFFFFFFFFFFFFFFF5D
:10159E00FFFFFFFFFFFFFFFFFFFFFFFFFFFFFFFF4D
:1015AE00FFFFFFFFFFFFFFFFFFFFFFFFFFFFFFFF3D
:1015BE00FFFFFFFFFFFFFFFFFFFFFFFFFFFFFFFF2D
:1015CE00FFFFFFFFFFFFFFFFFFFFFFFFFFFFFFFF1D
:1015DE001010FFFFFF0000FFFFFFFFFFF000000FE6
:1015EE00FFFFFFFF00222200FFFFFFFF002222006D
:1015FE00FFFFFFF0022002200FFFFFF0022002206B
:10160E000FFFFF002200002200FFFF00220FF0223A
:10161E0000FFF002200FF002200FF0022000000267
:10162E00200F002222222222220000222222222207
:10163E0022000022000000002200002200FFFF0016
:10164E002200002200FFFF002200000000FFFF002A
:10165E000000101000000000000000FF02222222F5
:10166E002222000F0222222222222000000220002B
:10167E0000222200F00220FFF0022200F00220FFE2
:10168E00F0022200F00220000022200FF00222229F
:10169E00222200FFF0022222222200FFF00220006E
:1016AE000022200FF00220FFF0022200F00220FFA5
:1016BE00F00222000002200000222200022222223A
:1016CE0022222000022222222222000F00000000ED
:1016DE00000000FF1010101010101010101010103D
:0A16EE001010101010101010101052
:109C89001226A7FF900407E02F9001F5F02290011A
:109C9900EFE0FBA3E0FAA3E0F922F09001EFE0FB8B
:109CA900A3E475F001122763A9F0FA02268E900148
:089CB900E6E0D36480948022F0
:06A70B00E4900407F022B7
:06A71100900407EFF022A6
:0B63FE009001E7EFF0A3ECF0A3EDF03E
:106409009001E7E0FF25E0F0E02408F09001EEF0CC
:106419009001E8E0FEA3E07803C333CE33CED8F988
:10642900F0EE9001E8F0A3E02408F09001E8E034F0
:1064390000F0AF037E007C017D021226E6742E2F48
:10644900F974003EFA9001EF74FFF0A3EAF0A3E9B2
:10645900129CA39001EA129CA39001EBF0E4A3F033
:106469009001EAE0FF9001ECE0C39F40030265451B
:10647900E4A3F09001EBE0FF9001EDE0C39F40033E
:10648900026526129C9712268E129C8CE4FB7D02D3
:10649900FF128E61129C97900001129C897B011258
:1064A900656F900002129C897B0212656F90000350
:1064B900129C897B031265829001F57480F07B043C
:1064C9001265829001F0E475F00412274D9001EEF7
:1064D900E09001F5F07B0512658AA3E09001F5F0E3
:1064E9007B0712658AE07E007802C333CE33CED8AB
:1064F900F912654612659520E7FA9001E8E025E072
:1065090025E0440812654612659520E7FA9001EEE8
:10651900E004F09001EDE02404F002647C9001E7CE
:10652900E09001EEF09001E9E004F070069001E8D6
:0C653900E004F09001ECE004F002646962
:10654500229001F5F07B097D02E4FF128E617B0A42
:106555007D02E4FF1288F7EF543F44809001F5F087
:106565007B0A7D02E4FF128E61227D02E4FF128E1A
:10657500619001EFE0FBA3E0FAA3E0F9227D02E4DC
:10658500FF128E61227D02E4FF128E619001E822E6
:0B6595007B0A7D02E4FF1288F7EF2272
:0B90B2009001E0EFF0A3EDF0A3EBF065
:1090BD00A3129C9A12A4D89001E6EFF0C364809499
:1090CD008040429001E0E030E0339001E1E0FFA309
:1090DD00E0FD7C00A3129C9A12268EFB1263FE907B
:1090ED0001E6E014F09001E4E475F00112274D90D3
:1090FD0001E1E02402F0129CB750CF8005129CB71D
:05910D0050FB12A73524
:01911200223A
:10A379000500000600000700000800000900000AA7
:10A38900000012000020000B000C000D000E000060
:036D290001210045
:1082A300900383E075F003A42479F974A335F0FAFD
:1082B3009001E374FFF0A3229001DDE0FBA3E0FA59
:1082C300A3E0F922900383E0FF74017E00A807086E
:1082D30022FF900390E0FDEF5D2274A3F0A3749856
:1082E300F0229000010226A774A3F0A37485F02264
:1082F30074A3F0A37496F022EAF0A3E9F0E4FB225E
:108303009000020226A712268E540C1313543FF535
:108313003A22EAF0A3E9F07B12227B017D127C0072
:10832300227D197B057C007F3A22EBF0A3EAF0A3C0
:10833300E9F0229000030226A77B017D0F7C002237
:10834300EAF0A3E9F07B0F227B01E4FDFC7F1C2212
:088353007B01E4FDFC7F4122E7
:1093BE0012721212A70B7F0412A72F7F0312A7326D
:1093CE00E4F53AAF3A1293F4053AE53AC3940640FF
:1093DE00F27F01129D667FFF12A7327F081293F46F
:0593EE00E4900380F093
:1093F3002212A3B99001E1E4F0A37426F07B5AE4AE
:07940300FDFCFF1284BE22F4
:1043D3009001DD12832D7F0212A72F7FFF12A732D8
:1043E300900382E01229DE441811442721445B2202
:1043F300448F3144CD33450834454341459391457A
:10440300AAA145D6A245FFB14644B34685B446C7E3
:10441300C1000047241282BB12268E20E10302470B
:104423002402459F1282BB12268E30E10D1282A315
:104433001282FB7DFF7F011290B21282BB1282E5D2
:1044430020E1030247249003841282A6EAF0A3E941
:10445300F07B1D7D5D02471F1282BB12268E30E169
:10446300111282A3EAF0A3E9F07B0E7D487F0112CB
:1044730090B21282BB1282E520E10302472490032B
:10448300841282A61282FB7D1402471F1282BB1282
:10449300268E30E1091282A31282FB124771128227
:1044A300BB1282E530E1099003841282A6124752BF
:1044B3001282BB12830320E1030247249003851277
:1044C30082A61283437D3E02471F1282BB12268EB1
:1044D30030E1061282A31247251282BB1282E53015
:1044E300E1099003841282A61247431282BB12830E
:1044F3000320E1030247249003851282A61283431B
:104503007D3E02471F1282BB12268E30E1061282C5
:10451300A31247251282BB1282E530E1099003847E
:104523001282A61247431282BB12830320E10302C5
:1045330047249003851282A61283437D1402471FEA
:104543001282BB12268E30E1061282A31247341266
:1045530082BB1282E530E10C9003841282A61282A0
:10456300FB1247691282BB12830330E10990038572
:104573001282A61247521282BB12833620E1030233
:1045830047249003861282A61283437D3E02471F6F
:104593001282BB12268E20E1030247241282A31249
:1045A30082FB7D2902471F1282BB12268E30E1094E
:1045B3001282A31282FB1247711282BB1282E52080
:1045C300E1030247249003841282A61283157D29F6
:1045D30002471F1282BB12268E30E1061282A312FB
:1045E30047341282BB1282E520E103024724900381
:1045F300841282A61282FB7D3E02471F1282BB12E7
:10460300268E30E10D1282A31282FB7D297F0112D7
:1046130090B21282BB1282E530E10C9003841282C5
:10462300A61283151247611282BB12830320E10392
:104633000247249003851282A61283157D3E02470A
:104643001F1282BB12268E30E1091282A31282FB53
:104653001247611282BB1282E530E10C900384128F
:1046630082A61282FB1247691282BB12830320E1E6
:10467300030247249003851282A61283157D3E020E
:10468300471F1282BB12268E30E1091282A31282C7
:10469300FB1247791282BB1282E530E1109003844A
:1046A3001282A61282FB7D3E7F011290B21282BB60
:1046B30012830330E16B9003851282A61283157D6A
:1046C3001402471F1282BB12268E30E1091282A305
:1046D3001282FB1247791282BB1282E530E11090FD
:1046E30003841282A61282FB7D3E7F011290B212D6
:1046F30082BB12830330E1109003851282A61283DA
:10470300157D147F011290B21282BB12833630E101
:10471300109003861282A61283157D3E7F011290AC
:10472300B222EAF0A3E9F0E4FB7D147F011290B218
:1047330022EAF0A3E9F0E4FB7D147F011290B22298
:10474300EAF0A3E9F0E4FB7D3E7F011290B222EA96
:10475300F0A3E9F07B0F7D147F011290B2227D1448
:104763007F011290B2227D3E7F011290B2227D29F9
:0E4773007F011290B2227D147F011290B222BB
:08A6FB00900381E04480F0228D
:1096E4007B787D01E4FF1288F7EF540FFF9003901D
:1096F400F0900381E06F602ED2277B31E4FDFF12EE
:1097040088F7EF547F9001F5F07B31E4FDFF128E72
:10971400617F4D12A72F7F4012A71112A70B900350
:0797240090E0900381F022A8
:066B76009001DD12832DE9
:106B7C007F4112A72F900382E01229DE6BB0116BBC
:106B8C00C1216BF5226C2C316C4F336C6C346BB0B7
:106B9C00916BC1A16BF5A26C2CB16C4FB36C6CB446
:106BAC0000006CA99001DD1282BE12830960030201
:106BBC006C37026C459001DD1282BE1283096012A3
:106BCC00126CAA1282B21282FB7D1C7F011290B24F
:106BDC00800612834B12835B9001DD1282BE1282FF
:106BEC00E512830C6037026C7A9001DD1282BE12C2
:106BFC0083096012126CAA1282B21282FB7D1C7F76
:106C0C00011290B2800612834B12835B9001DD124D
:106C1C0082BE1282E512830C6003026C7A026C9FB6
:106C2C009001DD1282BE128309600E126CC31282B7
:106C3C00B21282FB7D31026C9A7B01E4FDFC7F3148
:106C4C00026CA69001DD1282BE128309600D126CDB
:106C5C00C31282B21282FB7D1C803312834B803AAA
:106C6C009001DD1282BE1282E512830C60257B023C
:106C7C00E4FDFCFF12835BE53A25E0FFE433FE7490
:106C8C008E2FF974A33E1282B21282FB7D467F01D5
:0D6C9C000290B27B01E4FDFC7F4612835B99
:106CA900227B02E4FDFCFF12835BE53A25E0FFE469
:106CB90033FE748E2FF974A33E227B02E4FDFCFFA0
:106CC90012835BE53A25E0FFE433FE748E2FF974F5
:036CD900A33E22B5
:1031F2009001DD12832D7F0C12A72F900382E01223
:1032020029DE32321132442132702232993132E4D3
:103212003333273433764133E4913401A1343CA271
:103222003475B134D2B33527B43582C1000035FBD1
:103232009001DD1282BE12268E30E0030233F002CC
:1032420033FA9001DD1282BE12268E30E00B12821A
:10325200B31282EB12367E80031236539001DD12D6
:1032620082BE1282E530E003023427023434900138
:10327200DD1282BE12268E30E0081282B31235FCB5
:10328200800312361E9001DD1282BE1282E530E00A
:103292000302346202346F9001DD1282BE12268E66
:1032A20030E00B1282B31282EB12367E80031236AA
:1032B200539001DD1282BE1282E530E00B1282B31E
:1032C2001282EB1236A8800812833C7F1712835BAE
:1032D2009001DD1282BE12830330E0030233D20278
:1032E20033DD9001DD1282BE12268E30E00812829A
:1032F200B31235FC800312361E9001DD1282BE121B
:1033020082E530E00B1282B31282EB12366980033F
:103312001236299001DD1282BE12830330E00302CD
:1033220033D20233DD9001DD1282BE12268E30E0EE
:10333200081282B312360D80031236349001DD1268
:1033420082BE1282E530E00B1282B31282EB123699
:103352006980031236299001DD1282BE1283033086
:10336200E00B1282B31282EB7B0F0235727B017D7E
:103372000F02357B9001DD1282BE12268E30E008EC
:103382001282B312360D80031236349001DD12829E
:10339200BE1282E530E00B1282B31282EB12369338
:1033A200800312365E9001DD1282BE12830330E08A
:1033B2000B1282B31282EB1236A8800812833C7F72
:1033C2001712835B9001DD1282BE12833630E00B4E
:1033D2001282B31282EB7B0F02346A7B017D0F02F1
:1033E20034CB9001DD1282BE12268E30E00A1282A8
:1033F200B31282EBE4FB80357B01E4FDFC80369066
:1034020001DD1282BE12268E30E00B1282B31282CE
:10341200EB1236B280031236889001DD1282BE12A0
:1034220082E530E00D1282B31282EB7B0F7D2C021B
:1034320035EE12833C7F2C0235F89001DD1282BEFC
:1034420012268E30E00B1282B31282EB12363F80CC
:10345200031236739001DD1282BE1282E530E00D56
:103462001282B31282EBE4FB7D410235EE128353EA
:103472000235F89001DD1282BE12268E30E00B1268
:1034820082B31282EB1236B280031236889001DDCB
:103492001282BE1282E530E00B1282B31282EB126C
:1034A20036BC800812831D7F1712835B9001DD12E8
:1034B20082BE12830330E00D1282B31282EB7B12C2
:1034C2007D410235EE7B017D127C007F410235F8A1
:1034D2009001DD1282BE12268E30E00B1282B312F0
:1034E20082EB12363F80031236739001DD1282BEE8
:1034F2001282E530E00B1282B31282EB1236938015
:103502000312365E9001DD1282BE12830330E00D9B
:103512001282B31282EB7B127D410235EE12831DC1
:103522007F410235F89001DD1282BE12268E30E014
:103532000B1282B31282EB123649800312369D902F
:1035420001DD1282BE1282E530E00B1282B31282DA
:10355200EB1236C6800612835312835B9001DD1292
:1035620082BE12830330E00D1282B31282EB7B1211
:103572007D170235EE7B017D127C007F170235F844
:103582009001DD1282BE12268E30E00B1282B3123F
:1035920082EB123649800312369D9001DD1282BE03
:1035A2001282E530E00B1282B31282EB1236C68031
:1035B2000612835312835B9001DD1282BE128303D3
:1035C20030E00B1282B31282EB1236BC80081283F7
:1035D2001D7F1712835B9001DD1282BE128336308B
:1035E200E00F1282B31282EB7B127D417F010290C7
:1035F200B212831D7F4112835B2274A3F0A37485F0
:10360200F0E4FB7D177F011290B22274A3F0A37441
:1036120085F0E4FB7D177F011290B2227B01E4FD6D
:10362200FC7F1712835B227B01E4FDFC7F41128346
:103632005B227B01E4FDFC7F1712835B22E4FB7DAE
:10364200177F011290B222E4FB7D177F011290B224
:10365200227B01E4FDFC7F2C12835B227B01E4FDD3
:10366200FC7F4112835B22E4FB7D417F011290B219
:10367200227B01E4FDFC7F1712835B22E4FB7D2C9D
:103682007F011290B2227B01E4FDFC7F2C12835B4E
:1036920022E4FB7D417F011290B2227B01E4FDFC1A
:1036A2007F1712835B227B0F7D177F011290B2225C
:1036B200E4FB7D2C7F011290B2227B127D177F01E9
:0E36C2001290B222E4FB7D417F011290B222F1
:1036D0009003F512832D7F0212A72F900382E01230
:1036E00029DE370D11371F21374E2237773137C288
:1036F0003338053438544138C29138E5A23922B103
:10370000398CB339E1B43A39C100003AAF9003F5CE
:103710001282BE12268E30E4030238CE0238DB90CD
:1037200003F51282BE12268E30E40B1282B312828F
:10373000F3123B478003123B279003F51282BE121F
:10374000268E30E4030238CE12833C0238E0900328
:10375000F51282BE12268E30E4081282B3123AB0FD
:103760008003123AD29003F51282BE1282E530E451
:103770000302390B0239189003F51282BE12268E0D
:1037800030E40B1282B31282F3123B478003123BE8
:10379000279003F51282BE1282E530E40B1282B349
:1037A0001282F3123B51800812833C7F1F12835B0D
:1037B0009003F51282BE12830330E4030238B00294
:1037C00038BB9003F51282BE12268E30E4081282B6
:1037D000B3123AB08003123AD29003F51282BE12AD
:1037E00082E530E40B1282B31282F3123B1D800398
:1037F000123ADD9003F51282BE12830330E4030215
:1038000038B00238BB9003F51282BE12268E30E427
:10381000081282B3123AC18003123AE89003F512FB
:1038200082BE1282E530E40B1282B31282F3123BA5
:103830001D8003123ADD9003F51282BE128303301D
:10384000E40B1282B31282F37B0F023A297B017DD3
:103850000F023A329003F51282BE12268E30E4082F
:103860001282B3123AC18003123AE89003F5128231
:10387000BE1282E530E40B1282B31282F3123B32A5
:103880008003123B079003F51282BE12830330E4DB
:103890000B1282B31282F3123B51800812833C7FD9
:1038A0001F12835B9003F51282BE12833630E40B45
:1038B0001282B31282F37B0F0239137B017D0F0258
:1038C00039859003F51282BE12268E30E40D1282E5
:1038D000B31282F3E4FB7D34023AA27B01E4FDFCE7
:1038E0007F34023AAC9003F51282BE12268E30E489
:1038F0000B1282B31282F3123AF38003123B12903E
:1039000003F51282BE1282E530E40D1282B31282F8
:10391000F3E4FB7D49023AA27B01E4FDFC7F49020E
:103920003AAC9003F51282BE12268E30E411128258
:10393000B31282F3E4FB7D347F011290B2800A7BE4
:1039400001E4FDFC7F3412835B9003F51282BE120A
:1039500082E530E40B1282B31282F3123B708008CE
:1039600012831D7F1F12835B9003F51282BE1283A8
:103970000330E40D1282B31282F37B127D49023AC6
:10398000A27B017D127C007F49023AAC9003F512C4
:1039900082BE12268E30E40B1282B31282F3123AE8
:1039A000F38003123B129003F51282BE1282E530BF
:1039B000E40B1282B31282F3123B328003123B07F4
:1039C0009003F51282BE12830330E40D1282B3120B
:1039D00082F37B127D49023AA212831D7F49023A8B
:1039E000AC9003F51282BE12268E30E40B1282B325
:1039F0001282F3123AFD8003123B3C9003F51282CF
:103A0000BE1282E530E40B1282B31282F3123B66DF
:103A10008003123B5B9003F51282BE12830330E4F5
:103A20000D1282B31282F37B127D1F023AA27B0138
:103A30007D127C007F1F023AAC9003F51282BE1209
:103A4000268E30E40B1282B31282F3123AFD800309
:103A5000123B3C9003F51282BE1282E530E40B1259
:103A600082B31282F3123B668003123B5B9003F534
:103A70001282BE12830330E40B1282B31282F3125D
:103A80003B70800812831D7F1F12835B9003F51229
:103A900082BE12833630E40F1282B31282F37B129D
:103AA0007D497F010290B212831D7F4912835B2200
:103AB00074A3F0A37496F0E4FB7D1F7F011290B213
:103AC0002274A3F0A37496F0E4FB7D1F7F01129093
:103AD000B2227B01E4FDFC7F1F12835B227B01E4A9
:103AE000FDFC7F4912835B227B01E4FDFC7F1F12FA
:103AF000835B22E4FB7D1F7F011290B222E4FB7DF9
:103B00001F7F011290B2227B01E4FDFC7F491283EA
:103B10005B227B01E4FDFC7F1F12835B22E4FB7DC3
:103B2000497F011290B2227B01E4FDFC7F341283B5
:103B30005B22E4FB7D497F011290B2227B01E4FD10
:103B4000FC7F1F12835B22E4FB7D347F011290B265
:103B5000227B0F7D1F7F011290B2227B01E4FDFCCE
:103B60007F4912835B22E4FB7D497F011290B222E0
:0A3B70007B127D1F7F011290B2222C
:102C6E00900390E0FD900381E06DF56BA3E01229D7
:102C7E00DE2CA7112CCA222D0F312D80332DE734D7
:102C8E002E55412EE4912F0DA22F5AB12FCAB330DB
:102C9E0034B430AFC10000313B1282C78005C3335C
:102CAE00CE33CED8F9FFEF5D600B1282B31282DD08
:102CBE007B0D022EFD7B057D0D022F061282C78035
:102CCE0005C333CE33CED8F91282D4600B1282B341
:102CDE001282DD12319880031231549003841282D5
:102CEE00CA8005C333CE33CED8F91282D4600B120C
:102CFE0082B31282DD7B0D022F4A7B057D0D022FE2
:102D0E00531282C78005C333CE33CED8F91282D484
:102D1E0060111282B31282DD7B077D257F01129036
:102D2E00B280057D071231DE9003841282CA8005BF
:102D3E00C333CE33CED8F91282D4600D1282B312C1
:102D4E0082DD7B151231B880031231A290038512F9
:102D5E0082CA8005C333CE33CED8F91282D4600B2B
:102D6E001282B31282DD7B15022F4A7B057D15027E
:102D7E002F531282C78005C333CE33CED8F91282B9
:102D8E00D4600B1282B31282DD123198800312319D
:102D9E00549003841282CA8005C333CE33CED8F941
:102DAE001282D4600B1282B31282DD1231AE800316
:102DBE001231609003851282CA8005C333CE33CEA2
:102DCE00D8F91282D4600B1282B31282DD7B150207
:102DDE002F4A7B057D15022F531282C78005C33300
:102DEE00CE33CED8F91282D4600B1282B31282DDAA
:102DFE0012316C800312313C9003841282CA80051A
:102E0E00C333CE33CED8F91282D4600D1282B312F0
:102E1E0082DD7D3A1231D680087D0D128326128313
:102E2E005B9003851282CA8005C333CE33CED8F9A8
:102E3E001282D4600B1282B31282DD7B1502309F98
:102E4E007B057D150230A81282C78005C333CE33B1
:102E5E00CED8F91282D4600B1282B31282DD1231F7
:102E6E006C800312313C9003841282CA8005C333F6
:102E7E00CE33CED8F91282D4600B1282B31282DD19
:102E8E001231AE80031231609003851282CA800522
:102E9E00C333CE33CED8F91282D460111282B3125C
:102EAE0082DD7B157D107F011290B280031231A25C
:102EBE009003861282CA8005C333CE33CED8F91260
:102ECE0082D4600B1282B31282DD7B15022F4A7BF5
:102EDE00057D15022F531282C78005C333CE33CE24
:102EEE00D8F91282D4600D1282B31282DD7B107D6E
:102EFE00250231307B057D107C007F250231381292
:102F0E0082C78005C333CE33CED8F91282D4600D7A
:102F1E001282B31282DD7B101231B8800312317629
:102F2E009003841282CA8005C333CE33CED8F912F1
:102F3E0082D4600D1282B31282DD7B107D3A023193
:102F4E00307B057D107C007F3A0231381282C780BB
:102F5E0005C333CE33CED8F91282D460111282B3A8
:102F6E001282DD7B087D257F011290B280057D08DF
:102F7E001231DE9003841282CA8005C333CE33CE63
:102F8E00D8F91282D4600B1282B31282DD1231E8AC
:102F9E0080031231C09003851282CA8005C333CEDE
:102FAE0033CED8F91282D4600D1282B31282DD7B39
:102FBE00197D3A0231301283240231381282C780D1
:102FCE0005C333CE33CED8F91282D4600D1282B33C
:102FDE001282DD7D101231D6800312317690038479
:102FEE001282CA8005C333CE33CED8F91282D46092
:102FFE000B1282B31282DD1231CC800312318C900F
:10300E0003851282CA8005C333CE33CED8F912821D
:10301E00D4600D1282B31282DD7B197D3A023130FB
:10302E001283240231381282C78005C333CE33CEC9
:10303E00D8F91282D4600B1282B31282DD12318261
:10304E0080031231489003841282CA8005C333CEA6
:10305E0033CED8F91282D460111282B31282DD7B84
:10306E00107D3A7F011290B2800B7B057D107C00A3
:10307E007F3A12835B9003851282CA8005C333CEDA
:10308E0033CED8F91282D4600D1282B31282DD7B58
:10309E00197D100231307B057D197C007F100231C5
:1030AE00381282C78005C333CE33CED8F91282D4FC
:1030BE00600B1282B31282DD12318280031231480C
:1030CE009003841282CA8005C333CE33CED8F91250
:1030DE0082D4600B1282B31282DD1231CC800312C5
:1030EE00318C9003851282CA8005C333CE33CED87D
:1030FE00F91282D4600B1282B31282DD1231E88093
:10310E00031231C09003861282CA8005C333CE33B8
:10311E00CED8F91282D4600F1282B31282DD7B19DF
:0D312E007D3A7F010290B212832412835B70
:10313B00227B057D077C007F1012835B227B057D44
:10314B00087C007F1012835B227B057D0D7C007F4A
:10315B001012835B227B057D077C007F3A12835B19
:10316B00227B077D107F011290B2227B057D107CA4
:10317B00007F1012835B227B087D107F011290B2BF
:10318B00227B057D087C007F3A12835B227B0D7DC1
:10319B00107F011290B2227B057D157C007F1012EF
:1031AB00835B227B077D3A7F011290B2227D107FD9
:1031BB00011290B2227B057D197C007F1012835B7C
:1031CB00227B087D3A7F011290B2227B0D7F011288
:1031DB0090B2227B057C007F2512835B227B197DBD
:0731EB00107F011290B222D7
:10991A00E4FF12A3B9900380E024FE6011047029C9
:10992A001299541282B374A3F0A37488800C12990A
:10993A00541282B374A3F0A3748BF0E4FB7D017F0D
:10994A00011290B27FFF12A732227F0312A7327F41
:05995A000412A72F22FA
:10A2A100E4FF12A3B9900388E030E1127B017A0345
:10A2B10079881231F27B017A037988126B7612A6C2
:06A2C100FBE4FF029D66B4
:1016F80000000000000000000000000000000000E2
:1017080000000000000000000000000000000000D1
:10171800003E007E00FE01CE038E7F8E7F8E738E8C
:10172800738E738E7F8E7F8E01CE00FE007E003E0C
:1017380000000000020006000E001E003FFE7FFEB3
:101748007FFE3FFE1E000E000600020000000000A3
:101758000000000000400060007000787FFC7FFE01
:101768007FFE7FFC007800700060004000000000F1
:10177800000003C003C003C003C003C003C003C00C
:1017880003C03FFC1FF80FF007E003C00180000012
:1017980003C003C007E007E00E700E701C381C3849
:1017A800381C381C7FFE7FFE700E700E700E700E97
:1017B8007FF87FFC383E381E381E381E383C3FF80C
:1017C8003FF8383C381E381E381E383E7FFC7FF8FC
:1017D8000FF81FFC3C1C380E780E700E700070005D
:1017E80070007000700E700E380E3C1C1FFC0FF855
:1017F8007FF07FF07078703C703C703C70787FF0C0
:101808007FE0778073C071E070F07078703C701E74
:1018180000006006700E781E7C3E7FFE77EE73CE69
:10182800718E700E700E700E700E700E700E700E3F
:1018380000001FF81FF800E000E000E000E000E012
:1018480000E000E000E070E079E03FC01F800F009A
:1018580000000000000003C007800F001E003FFCCE
:101868003FFC1E000F00078003C0000000000000BE
:1018780000000000000003C001E000F000783FFC19
:101888003FFC007800F001E003C000000000000009
:1018980000000000018001800180018011881998F2
:1018A8001DB81FF80FF007E003C00180000000001A
:1018B800003E007E00FE01CE038E7F8E7F8E738EEB
:1018C800738E738E7F8E7F8E01CE00FE007E003E6B
:1018D800700E700E700E700E700E700E781E381C22
:1018E800381C1C381C380E700FF007E003C001804C
:1018F8000000380038003800380038003800380058
:1019080038003800380038063806380E3FFE3FFEEB
:101918000000000000000000000003800FE01C70C1
:10192800183038383838383818301C700FE00380D1
:101938000000000000000000000003C00FF01C3889
:101948001C000F0007E000F000381C380FF003C03F
:10195800000000000000000000000000000000007F
:10196800000000000000000000000000000000006F
:10197800000000000000000000000000000000005F
:10198800000000000000000000000000000000004F
:10199800000000000000000000000000000000003F
:1019A800000000000000000000000000000000002F
:1019B800000000000000000000000000000000001F
:1019C800000000000000000000000000000000000F
:1019D80000000000000000000000000000000000FF
:1019E80000000000000000000000000000000000EF
:1019F80000000000000000000000000000000000DF
:101A080000000000000000000000000000000000CE
:101A180000000000000000000000000000000000BE
:101A280000000000000000000000000000000000AE
:101A3800000000000000000000000000000000009E
:101A4800000000000000000000000000000000008E
:101A5800000000000000000000000000000000007E
:101A6800000000000000000000000000000000006E
:101A7800000000000000000000000000000000005E
:101A8800000000000000000000000000000000004E
:101A9800000000000000000000000000000000003E
:101AA800000000000000000000000000000000002E
:101AB800000000000000000000000000000000001E
:101AC800000000000000000000000000000000000E
:101AD80000000000000000000000000000000000FE
:101AE80000000000000000000000000000000000EE
:101AF80000000000000000000000000000000000DE
:101B080000000000000000000000000000000000CD
:101B1800000007000F800F800F800F80070007006C
:101B28000700020002000000020007000700020090
:101B38000000EE006600440088000000000000007D
:101B4800000000000000000000000000000000008D
:101B5800000008200820082008203FF80820082056
:101B68000820082008203FF808200820082008201E
:101B780000000FC01B603330333033001B000F00F0
:101B880003C0036013303B3033301B600FC00300C9
:101B980000003808441084200440048009001270B2
:101BA800E4880908120822084210822001C00000B7
:101BB80000000E001B00318031801B000E001C004D
:101BC8003678632061A060E0606030F01F9C000000
:101BD80000000000000000000000000000000000FD
:101BE800000000000000800060007000380018004D
:101BF8000000000400080018001000300030003019
:101C08000030003000300010001800080004000206
:101C180000008000400060002000300030003000EC
:101C280030003000300020006000400080000000DC
:101C3800000002004210222012400A800700FFFC28
:101C480007000A8012402220421002000200000011
:101C580000000000030003000300030003007FF8F6
:101C68007FF80300030003000300030000000000E6
:101C7800000000000000000000000000000000005C
:101C8800000018003C003C00180010002000400034
:101C980000000000000000000000000000007FF8C5
:101CA8007FF80000000000000000000000000000B5
:101CB800000000000000000000000000000000001C
:101CC8000000000000007800840084008400780090
:101CD800000000180030006000C00180030006000A
:101CE8000C00180030006000C000800000000000F8
:101CF80000000FE0183030183038307830D831987C
:101D0800331836183C183818301818300FE000000F
:101D18000000030007000F00030003000300030096
:101D28000300030003000300030003001FE000009A
:101D380000000FE01830301830183038007001C03B
:101D480003000E001800300830083FF83FF8000084
:101D5800000007C0183030183018003000E003C009
:101D680000E00030001830183018183007C00000A4
:101D7800000000C001C003C006C00CC018C030C0BD
:101D880060C0C0C0C0C0FFF800C000C003F00000C1
:101D980000003FF03FF030003000300037C03830EE
:101DA80030180018001830183018183007C0000014
:101DB800000007E01830303030003000300037E0E5
:101DC8003830301830183018301818300FC000006C
:101DD80000003FF83FF8201820180030006000C0CD
:101DE8000180030003000300030003000300000058
:101DF80000000780186030303030303018600FC075
:101E08001860303060186018601830300FC000005B
:101E1800000007801860303030183018301830381B
:101E2800187807980018303038301860078000009C
:101E3800000000000000000003000780030000000D
:101E480000000300078003000000000000000000FD
:101E580000000000000000000300078003000000ED
:101E680000000300078003800180070000000000D5
:101E780000000000001800600180060018006000E3
:101E88008000600018000600018000600018000053
:101E9800000000000000000000007FF87FF800004C
:101EA80000007FF87FF8000000000000000000003C
:101EB8000000800060001800060001800060001823
:101EC800000400180060018006001800600080000F
:101ED800000007800FC01CE038E038E011C0018026
:101EE80003000300020002000000020007000700D0
:101EF80000000FC030604010478888C890C890C85C
:101F080090C890C888D84770400830700FC000004B
:101F1800000003000300078007800CC00CC0186095
:101F280018601FE03030303060186018F03C000056
:101F380000003F80186018301830183018601FC033
:101F48001860183018181818181818303FC00000F2
:101F58000000078818683038601860086000600062
:101F6800600060006008601830301860078000006A
:101F780000007F8030E030383018301830183018C2
:101F88003018301830183018303030E07F800000BA
:101F980000003FF0183018101800188018801F80B3
:101FA8001880188018001800181018303FF000002A
:101FB80000003FF0183018101800188018801F8093
:101FC8001880188018001800180018003C0000003D
:101FD80000000F90187030306010601060006000D2
:101FE8006078603060306030307018F00FB00000FA
:101FF80000007878303030303030303030303FF0DA
:102008003030303030303030303030307878000098
:1020180000000FC0030003000300030003000300D7
:102028000300030003000300030003000FC00000C7
:10203800000001F000600060006000600060006067
:10204800006000603060306030E019C00F000000B0
:10205800000078F8306030C03180330036003C0032
:102068003E003300318030C030603030787C000072
:1020780000003C001800180018001800180018008C
:102088001800180018001808181818383FF8000029
:102098000000E03CE038F078F078D8D8D8D8C89874
:1020A800CD98CD98C518C718C218C018E07C000094
:1020B8000000C078E030F030F830DC30CE30C73087
