:03000000026DDDB1
:0C6DDD00787FE4F6D8FD758130026E244A
:0B834B00E02494F582E43402F5832264
:1081F400C2BCD2AC759852758DFAE4F58BD28E90D0
:0682040002F8F0A3F022D5
:1082BA009002F8E0FFA3E0B507037F00227F0122C6
:1081C2009002F812834BE0FF9002F8E004F0E0C363
:0881D20094644002E4F0D2AC19
:0181DA002282
:080003003099FD8F99C299228A
:03002300027F1F3A
:107F1F00C0E0C083C082C0D0309819C2989002F9D7
:107F2F0012834BE599F09002F9E004F0E0C39464FA
:0D7F3F004002E4F0D0D0D082D083D0E032F8
:107CF600E0F580D2A3E490033CF0A3F022C3900306
:107D06003CE094002290033CE004F0229001E4E081
:107D1600FBA3E0FAA3E0F922EDF0A3EBF0E4FFC247
:0C7D2600AF22D2B6D2B77580FFD2AF22D8
:1073E80090020E127D1E12838D90020EE0FF700631
:1073F800C2B7C2B68012EFB40106C2B7D2B68008CF
:10740800EFB40204D2B7C2B690020F127CF6127D16
:1074180003500BA3E004F070F5127D0B80F0C2A3BB
:10742800900210E0F580C2A1127CFB127D03500B84
:10743800A3E004F070F5127D0B80F0D2A112838DC9
:04744800127D282267
:106F77009001D8127D1E12838D9001D8E0FF700614
:106F8700C2B7C2B68012EFB40106C2B7D2B6800844
:106F9700EFB40204D2B7C2B69001D9E0FF04F08F74
:106FA70080127CF9127D03500BA3E004F070F512F8
:106FB7007D0B80F0C2A39001DAE0FBA3E475F0013A
:106FC700122B41A9F0FA122A6CF580C2A1127CFBA0
:106FD700127D03500BA3E004F070F5127D0B80F0D7
:106FE700D2A19001DDE014F070AE12838D127D28DE
:016FF7002277
:0B6E6900900209EFF0A3EDF0A3EBF0A6
:106E7400C2AF12838DE4900209F0A3E0FF7006C252
:106E8400B7C2B68012EFB40106C2B7D2B68008EF1B
:106E9400B40204D2B7C2B690020B127CF6127D0380
:106EA400500BA3E004F070F5127D0B80F0C2A375C3
:106EB40080FF127CFB127D03500BA3E004F070F5FD
:106EC400127D0B80F0C2A290020CE580F0127CFBD4
:106ED400127D03500BA3E004F070F5127D0B80F0DB
:106EE400D2A212838DD2B6D2B7D2AF90020CE0FFF9
:016EF400227B
:10779F009001E4EBF0A3EAF0A3E9F0127D12122BB3
:1077AF0057F47003E5F0F46038122B57FBAAF0EA98
:1077BF00FDE4FF126E69127D12900002122A85FC01
:1077CF006F6012122B57FBAAF0EAFD900210ECF03B
:1077DF00E4FF1273E89001E5E475F003122B2B80A0
:0277EF00BA22BC
:0100290022B4
:10716400256278202562782025627820256278209F
:1071740000256264200025627820256278206368F7
:107184002562783A2562782063682562783A256218
:10719400782063682562783A2562782063682562DE
:1071A400783A2562782000627573770079766D6984
:1071B40078006873636F6D006D6F64650037003825
:1071C400003031323334353637383941424344455F
:0271D400460073
:04561E0041035B00E9
:106EF50012002A9001D5E0FBA3E0FAA3E0F922A352
:106F0500F0A37401F0A322FFE0244CF582E43403DE
:106F1500F583EFF022E0FF9001E17401F0A3740323
:106F2500F0A37448F07B017A03794322EBF0A3EADE
:106F3500F0A3E9F022A3F0A3E4F0A322900001E47A
:106F450075F001022B829001E074FFF0A322A3F0FB
:106F5500A3E4F0A322E05401FB7D2022250BF50BD1
:106F6500A3E0540322122DD4022A6CA3F0A3E4F06B
:026F7500A32255
:1071D6009001E3126F31A3126EFB126F6A7002FF09
:1071E600229001E6126EFB126F6AB4200B9001E644
:1071F600126EFB126F4180E99001E6126EFB122DB2
:10720600D4C003C002C0019001E3126EFB122DF43C
:1072160080239001E6126EFB126F6AFEB42010E422
:10722600122AB29001E6126EFB126F417F0122EE26
:1072360070037F01229001E6126EFB126F4180D22D
:067CB9009001DD126F31A5
:107CBF00E4F508F5099001DD126EFB122A6C6022C3
:107CCF009001DDA3E475F001122B41A9F0FA122AFD
:107CDF006CFF3395E0FEEF2509F509EE3508F50841
:067CEF0080D3AE08AF09CE
:017CF500226C
:01002A0022B3
:107A9900E4F50B900343E05403126F6125E025E000
:107AA900126F61C454F0126F61C4333354C0250B93
:107AB900F50B900342E0B5070D900347E0B50B06BF
:107AC900E4900352F0229003527401F0900347E5C9
:077AD9000BF0900342EFF0F7
:017AE0002283
:10784100E4F508F509F50AF50BC003C002126F4B08
:107851007471F07464126F3A7400F07408126F3A24
:107861007400F07409126F537400F0740A126F53AC
:107871007400F0A3740BF0D002D00312430B9002FA
:0D78810010E50BF0AB0AAD09E4FF0273E85F
:10818E00126F4B7471F07475126F707400F0A374EB
:0A819E0008F012430BAF080282350F
:067383009001DD126F31E4
:107389001273CD126EFB1265A98F081273CD126E9E
:10739900FB1265A98F097F041200267F031283BEA1
:1073A9007F051281529001DDE0F9A3E0FAA3E09094
:1073B90001E6C9126F32AB09AD087F011276397F38
:0473C90005027E1B20
:1073CD009001E67401F0A37401F0A374DDF07B016C
:0B73DD007A0179E01271D69001E022E5
:1058E500C003C002C001126F4B7471F0747A126F5D
:1058F500707400F0A37409F0A3E4F0A37400F074CD
:105905000A126F047403F07443126F047403F0A356
:105915007448126F057403F0A37444126F05740381
:10592500F0A37449126F057403F0A37445126F0553
:105935007403F0A3744A126F057403F0A37446123E
:105945006F057403F0A3744BF0D001D002D003129D
:10595500430BE509C454F0FF90033FE0FEC4333325
:105965003354802FFFE50A540F2F900351F0900315
:1059750048E0900343126F0C900349E090034412F2
:105985006F0C90034AE0FF900345126F0D90034B97
:10599500E0FF900346126F0D90034C126F5AE4FF1F
:1059A500127BFA90034D126F5A7F01127BFA900316
:1059B5004E126F5A7F02127BFA90034F126F5A7F75
:1059C50003127BFA7B017A03794C125A3B900351FF
:1059D500126F1A1245DC900351E0FF126F2A124E26
:1059E50078E4F50874482508F582E43403F5831254
:1059F5006F5AAF08127DA90508E508C3940440E471
:105A0500E4F525F526F5277528057F0112836090B5
:105A15000351E0FF127A997F08127E87E4FF128115
:105A2500A8127B707B017A037948123F14900351C9
:055A3500E090035BF0AE
:015A3A002249
:1072B300E4FF1278DAEFB40202C32290033FE0B591
:1072C3000702D32290033FEFF0E0C43333335480FB
:1072D300FF900342E0547F4FF07F01127E1B900327
:1072E3003FE0FF12744C7B017A03794C125A3B90B6
:1072F3000342126F1A1245DC900342E0FF126F2A19
:10730300124E78E4FF1281A8127B707B017A037915
:0873130048123F141280C9D397
:01731B00224F
:10820A00126F4B7471F0A37475126F057403F0A3A7
:06821A007440F002430B6A
:066006009001D5126F317C
:10600C009001E67401F0A37401F0A374D5F07B0148
:10601C007A0179DA1271D69001DA126EFB127CB920
:10602C009001D8EEF0A3EFF07A7179AB1260F0B575
:10603C00060EA3E0B50709126EF81278410260ED66
:10604C007A7179B01260F0B5060EA3E0B5070912AB
:10605C006EF512818E0260ED7A7179B61260FAB526
:10606C000616A3E0B50711126EF51258E51280C999
:10607C00E4FF1283600260ED7A7179BC1260FAB5AC
:10608C00060DA3E0B50708126EF512820A80527A4B
:10609C007179C1126104E0B5060FA3E0B5070A904F
:1060AC00027CE0900292F080387A7179C31261041C
:1060BC00E0B50612A3E0B5070D127EBB90027CE0A2
:1060CC00FF127F4C801B7BFF7A7179C5127CB990D3
:1060DC0001D8E0B5060BA3E0B50706126EF81273F3
:0360EC00837F01AE
:1060EF00227BFF127CB99001D8E0227BFF127CB992
:0E60FF009001D8E0227BFF127CB99001D822DC
:104CA500FFF3EDE8E2DE62757377203020312041B5
:104CB5003120313162757377203020312041322027
:104CC500443779766D69782034206D6F64652030BE
:104CD500206873636F6D20312031206368303A316D
:104CE50030206368313A3030206368323A30302002
:104CF5006368333A3030206873636F6D203120313B
:104D0500206368323A3130206368313A30302063AD
:104D150068303A3030206368333A30302068736346
:104D25006F6D20312031206368313A31302063685E
:104D3500303A3030206368323A3030206368333A95
:104D45003030206873636F6D203220322063683203
:104D55003A3130206368303A3130206368313A3077
:104D650030206368333A3030206873636F6D2032CA
:104D75002032206368303A3130206368323A31306E
:104D8500206368313A3030206368333A3030206828
:104D950073636F6D20322032206368313A313020E1
:104DA5006368303A3130206368323A3030206368C6
:104DB500333A3030206873636F6D203120312063C2
:104DC50068313A3130206368303A303020636832D8
:104DD5003A3030206368333A3030206873636F6D42
:104DE50020322032206368313A3130206368323A0C
:104DF5003130206368303A3030206368333A3030E0
:104E0500206873636F6D20322032206368323A3137
:104E150030206368313A3130206368323A303020CF
:104E25006368333A3030206873636F6D2033203305
:104E3500206368303A3130206368313A313020637D
:104E450068323A3130206368333A30302068736312
:104E55006F6D20312031206368333A30302063682C
:104E6500313A3030206368323A3030206368303A66
:034E7500303020BA
:10562200C124440335000000004103390041033A1C
:10563200004103340141033302410331014103328A
:105642000041032800420329000042032B000042CC
:10565200032D000042032F00004102FC014102FB26
:095662000041033B004102FA0083
:1068F8007D017BFF7E007F26022A4678FD7C027D93
:10690800017B0122900219E0FE74112FF582E43414
:1069180002F5832274DF2FF582E43401F583E02247
:10692800900006E0FAA3E0FB7C00FFAE02022AD644
:106938007C00AF03AE02122AD6900006ECF0A3ED5D
:10694800F0227D017BFF7E007F0E022A46E4F0A341
:10695800F0A3F0A322E508F090027AE004F0227D8B
:10696800017BFF7E00022A46900009E0F8A3E0F9C7
:10697800A3E0FAA3E0FB22E412283B900009022DD1
:1069880057F0A37420F0A37403F0E4A3F02290025C
:10699800117402F0A37432F0A322900334F0900330
:1069A800332234FFFE7C007D06022AD690027AE06C
:0369B80024112285
:106684001282BAEF6401600302675343E11012817E
:10669400C28F08E508B40218900248E07012900214
:1066A4007A04F0900211E508F09002487401F02297
:1066B400E5086403702A900212E0FF64526004EF5C
:1066C400B4531D9002FAE0701790027AE0FFD3945D
:1066D40003500D9002FA7401F012691112695D22DF
:1066E400E508B4031B90024CE070151269B41269FA
:1066F4001412695D90024C7401F0E49002FAF022E5
:1067040090024CE0640170351269B4126914E50812
:10671400F07B017A027911124AC1EF602F900327AE
:106724007401F0900212E09002FDF0E4A3F09002F4
:1067340013E090027CF09003267402F0221269B4F4
:1067440012691412695DE0D39408400A0280A3E43C
:0667540090032FF0A3F0FA
:01675A00221C
:1080A300E4900248F090024CF090027AF0900211B2
:1080B300126956126956F0A3F0A3F0900326F0A3B9
:0680C300F09002FDF02226
:09836000EF6003C20122D20122E8
:0C833F00C200C201C223E490035DF022E2
:0877F100900007EEF0A3EFF099
:1077F900900007E07002A3E0603DE4900009F0A367
:10780900F0900009E0FEA3E0FFE4FCFD7B1BFAF920
:10781900F8D3122D19401090000AE004F070E2909C
:107829000009E004F080DA900008E024FFF09000FD
:0778390007E034FFF080B905
:017840002225
:1053390090000012695574C8F0A37464F0E4A3F0F6
:105349001279BB1282DA12833F1280A3E4FF128220
:10535900CA126FF87F4D123B8F127514752B0075A9
:105369002C28752D01752EE09003297401F0A37482
:10537900E0F0752F00753004A37407F0A304F07FE3
:10538900981283B2EF5410FFC4540F900005F01225
:105399006684900327E0B401097B017A0279FD1242
:1053A9006006900327E0B401031280A3302307129B
:1053B90072B35002C2231282BAEF6009900003E06F
:1053C900752700F528E52864014527700DF527F5AF
:1053D90028900004E0752500F526E5266401452599
:1053E900701E900248E07018127B29900292E0FF2B
:1053F900900290E06F6003123B8F752500752614AB
:10540900E5306401452F7019900254E0C3940140BE
:1054190010900240E0B40109752F00753004126143
:105429000DE52C6401452B703C900254E0703690D8
:105439000240E0B4012F900328E0FF74017E00A828
:1054490007088005C333CE33CED8F9FF127D6E909D
:105459000328E004F0752B00752C28E0C39406405E
:1054690007E4F08003127EED900329E07004A3E0C5
:105479006401700F900234F0A3F090032904F0A3A3
:1054890074E0F090032BE07004A3E06401701690BF
:105499000240E0B4010F900005E0FF127A4FE4905A
:0B54A900032BF0A3F043E11002539826
:1079BB00E4F5B8F5A8F58775E127F5D0758922F5BB
:1079CB00881281F4128369128171E4F58EF5A2D2CB
:1079DB0099D2AF00F593F5944391035392FCF5952F
:1079EB00F596F5B1F5B2F5B375B404C2E9C292C21E
:0A79FB0093C294C295C296C297226F
:08682A009001DDEFF0A3EDF099
:1068320078DF7C017A4C79A57F061269679001DDC9
:10684200E014603014604714605E146075147003C5
:106852000268DE240560030268F7E4F5EA9001DECF
:10686200E0FF7004F5DA800375DA4212691CF5FA6A
:10687200E4F5F222E4F5EB9001DEE0FF7004F5DBD3
:10688200800375DB4212691CF5FBE4F5F322E4F5A3
:10689200EC9001DEE0FF7004F5DC800375DC42124F
:1068A200691CF5FCE4F5F422E4F5ED9001DEE0FF6D
:1068B2007004F5DD800375DD4212691CF5FDE4F517
:1068C200F522E4F5EE9001DEE0FF7004F5DE8003D0
:1068D20075DE4212691CF5FEE4F5F622E4F5EF904E
:1068E20001DEE0FF7004F5DF800375DF4212691CF0
:0568F200F5FFE4F5F7DD
:0168F700227E
:0F82DA00E4F5E9F5F975D90475D84043A680227B
:053B8F00900006EFF0BC
:103B940078077C007A4C79AB12694A78157C007AF4
:103BA4004C79B912694A78237C007A4C79C77F082A
:103BB400126967782B7C007D017BFF7A4C79CF7E7C
:103BC400007F07122A4678327C007A4C79D6126834
:103BD400F878587C007A4C79FC1268F8787E7C007E
:103BE4007D017BFF7A4D79221268FC78A47C007DEC
:103BF400017BFF7A4D79481268FC78CA7C007D010C
:103C04007BFF7A4D796E1268FC78F07C007D017B35
:103C1400FF7A4D79941268FC78167C017D017BFF54
:103C24007A4D79BA1268FC783C7C017D017BFF7A7D
:103C34004D79E01268FC78627C017D017BFF7A4E4D
:103C440079061268FC78887C017D017BFF7A4E79C5
:103C54002C1268FC78AE7C017D017BFF7A4E795290
:103C64001268FCE49001D4F0900006E0FE24B6FF54
:103C7400C3940A400674FC2FFF8005E490027DF093
:103C8400900290EEF0EFB408005076903C96F8283D
:103C94002873023CAE023CB3023CBA023CC0023C74
:103CA400CD023CDA023CE5023CF290033A8055E452
:103CB40090033AF08051E490024B800590024B74DB
:103CC40001F090033404F0803E90024A7401F090B5
:103CD400033474048010E490024AF09003340480A6
:103CE4000590027D7414F0E4900282F08019900231
:103CF4007D7441F09002827401F0E490024BF080F4
:103D0400069003347401F090027DE0FFC3940140F7
:103D140008900339EFF0023DD990033AE064017052
:103D24006B90024BE06401702B900282E0B40105B9
:103D3400900334800A90024AE0900334B4010B7477
:103D440002F09003337404F080337402F090033370
:103D540014F08029900282E0B40105900334800AB3
:103D640090024AE0900334B4010B7404F0900333DE
:103D74007402F080087401F090033304F09003346B
:103D8400E0C454F0FF900333E04F804590024BE0D1
:103D9400600D9003347402F0E0FFC454F08032905C
:103DA400024AE0B4011074041269A27402F0A3E0A0
:103DB400FFC454F0801B900282E0600890033974C1
:103DC40041F0801174011269A204F0A3E0FFC4540D
:103DD400F0900339F0900331E0601912828490026C
:103DE400107411F07BA1123F0C90021074D7F07B79
:103DF400A2123F0C900339E0122E433E1E103E45A2
:103E0400123E58143E20203E4F213E6A243E1E405E
:103E14003E61413E834200003E9C80091269037A60
:103E240000795880071269037A0079321268FC908D
:103E340002107403F07B0F7D01E4FF1273E8023E6D
:103E4400A61269037A0079A4023EA31269037A00D8
:103E540079CA804B1269037A0079F08042126903AF
:103E64007A01791680391269037A0079CA1268FCDA
:103E7400900282E0602C1269037A01793C8020125E
:103E840069037A0079A41268FC900282E06013123C
:103E940069037A01796280071269037A0079321220
:103EA40068FCE4900331F07B017A0279FD1260062C
:103EB400900339E0122E433EDA103EE4123EEC1435
:103EC4003EDC203EE8213EF7243EE0403EF0413E09
:103ED400FB4200003F068000E4FF8012E4FF8019EB
:103EE4007F01800A7F0180067F0180027F011270BA
:103EF400F1800F7F0180027F011270F19001D47470
:073F040001F09001D4E0FF81
:093F0B00227D01E4FF1273E8229B
:027F4C00AB0781
:107F4E00E4FFFEEBC3943D4021EBD39461501BEB59
:107F5E0024C3FFEE1269AAAA07EB24C3FFE4126939
:0A7F6E00AAAE05AF0212682A7F01D7
:017F780022E6
:10769700E4FBFAFD7F90127C3AEEC4F854F0C86818
:1076A700FEEFC4540F48FFEEC4F854F0C868FAEF71
:1076B700C4540F48FB2091047A007B637C007D0A49
:1076C700AF03AE02122AD6D3ED9409EC940050070B
:1076D700ED2430900227F0AE02AF037C007D0A1242
:0976E7002AD6EF243090022CF0A9
:0176F0002277
:1062FA00900006126955122D6300000000E4FF1297
:10630A008132900006EEF0A3EFF0E024E1F0900075
:10631A0006E034FFF0E0FCA3E0FD12697F7F007E17
:10632A00807D8C7CC312697012259F7B007A8079EC
:10633A008C78431227997B9A7A9979CA78421226DD
:10634A0090126983E4FFFE7D207C41126970122657
:10635A0090122874AD07AC0612694112697F900049
:10636A0006E0FEA3E0FFC394EBEE94034015D3EFDF
:10637A0094FFEE9403500C9000067403F0A374F596
:10638A00F08013D3EF940FEE9427400A900006741E
:10639A0027F0A3740FF0900006E0FAA3E0FB7C0359
:1063AA007DE8126932EF2430900221F07C037DE807
:1063BA0012693A7D64126928EF2430900220F07D38
:1063CA00641269387D0A126928EF243090021FF09E
:0B63DA007D0A126938243090021EF08A
:0163E5002295
:10774A001269967450F0A37430F0A37461F0A374B4
:10775A006412698990000CF090000CE0FFD3940742
:10776A00501312690CE0FFEE6F900219F090000CB2
:10777A00E004F080E3E490000CF090000CE0FFD30A
:10778A0094085010126911E0FF12000390000CE0F7
:04779A0004F080E691
:01779E0022C8
:10757700126996744FF0900245E0900214F0900261
:1075870046E0900215F0900247E0900216126989D2
:1075970090000CF090000CE0FFD394075013126991
:1075A7000CE0FFEE6F900219F090000CE004F08001
:1075B700E3E490000CF090000CE0FFD39408501027
:1075C700126911E0FF12000390000CE004F080E65E
:0175D7002291
:10002E001010FFFFFFFFFFFFFFFFFFFFFFFFFFFFB0
:10003E00FFFFFFFFFFFFFFFFFFFFFFFFFFFFFFFFC2
:10004E00FFFFFFFFFFFFFFFFFFFFFFFFFFFFFFFFB2
:10005E00FFFFFFFFFFFFFFFFFFFFFFFFFFFFFFFFA2
:10006E00FFFFFFFFFFFFFFFFFFFFFFFFFFFFFFFF92
:10007E00FFFFFFFFFFFFFFFFFFFFFFFFFFFFFFFF82
:10008E00FFFFFFFFFFFFFFFFFFFFFFFFFFFFFFFF72
:10009E00FFFFFFFFFFFFFFFFFFFFFFFFFFFFFFFF62
:1000AE00FFFFFFFFFFFFFFFFFFFFFFFFFFFFFFFF52
:1000BE00FFFFFFFFFFFFFFFFFFFFFFFFFFFFFFFF42
:1000CE00FFFFFFFFFFFFFFFFFFFFFFFFFFFFFFFF32
:1000DE00FFFFFFFFFFFFFFFFFFFFFFFFFFFFFFFF22
:1000EE00FFFFFFFFFFFFFFFFFFFFFFFFFFFFFFFF12
:1000FE00FFFFFFFFFFFFFFFFFFFFFFFFFFFFFFFF02
:10010E00FFFFFFFFFFFFFFFFFFFFFFFFFFFFFFFFF1
:10011E00FFFFFFFFFFFFFFFFFFFFFFFFFFFFFFFFE1
:10012E00FFFF1010FFFFFFFFFFFFFFFFFFFFFFFFAF
:10013E00FFFFFFFFFFFFFFFFFFFFFFFFFFFFFFFFC1
:10014E00FFFFFFFFFFFFFFFFFFFFFFFFFFFFFFFFB1
:10015E00FFFFFFFFFFFFFFFFFFFFFFFFFFFFFFFFA1
:10016E00FFFFFFFFFFFFFFFFFFFFFFFFFFFFFFFF91
:10017E00FFFFFFFFFFFFFFFFFFFFFFFFFFFFFFFF81
:10018E00FFFFFFFFFFFFFFFFFFFFFFFFFFFFFFFF71
:10019E00FFFFFFFFFFFFFFFFFFFFFFFFFFFFFFFF61
:1001AE00FFFFFFFFFFFFFFFFFFFFFFFFFFFFFFFF51
:1001BE00FFFFFFFFFFFFFFFFFFFFFFFFFFFFFFFF41
:1001CE00FFFFFFFFFFFFFFFFFFFFFFFFFFFFFFFF31
:1001DE00FFFFFFFFFFFFFFFFFFFFFFFFFFFFFFFF21
:1001EE00FFFFFFFFFFFFFFFFFFFFFFFFFFFFFFFF11
:1001FE00FFFFFFFFFFFFFFFFFFFFFFFFFFFFFFFF01
:10020E00FFFFFFFFFFFFFFFFFFFFFFFFFFFFFFFFF0
:10021E00FFFFFFFFFFFFFFFFFFFFFFFFFFFFFFFFE0
:10022E00FFFFFFFF1010FFFFFFFFFFFFFFFFFFFFAE
:10023E00FFFFFFFFFFFFFFFFFFFFFFFFFFFFFFFFC0
:10024E00FFFFFFFFFFFFFFFFFFFFFFFFFFFFFFFFB0
:10025E00FFFFFFFFFFFFFFFFFFFFFFFFFFFFFFFFA0
:10026E00FFFFFFFFFFFFFFFFFFFFFFFFFFFFFFFF90
:10027E00FFFFFFFFFFFFFFFFFFFFFFFFFFFFFFFF80
:10028E00FFFFFFFFFFFFFFFFFFFFFFFFFFFFFFFF70
:10029E00FFFFFFFFFFFFFFFFFFFFFFFFFFFFFFFF60
:1002AE00FFFFFFFFFFFFFFFFFFFFFFFFFFFFFFFF50
:1002BE00FFFFFFFFFFFFFFFFFFFFFFFFFFFFFFFF40
:1002CE00FFFFFFFFFFFFFFFFFFFFFFFFFFFFFFFF30
:1002DE00FFFFFFFFFFFFFFFFFFFFFFFFFFFFFFFF20
:1002EE00FFFFFFFFFFFFFFFFFFFFFFFFFFFFFFFF10
:1002FE00FFFFFFFFFFFFFFFFFFFFFFFFFFFFFFFF00
:10030E00FFFFFFFFFFFFFFFFFFFFFFFFFFFFFFFFEF
:10031E00FFFFFFFFFFFFFFFFFFFFFFFFFFFFFFFFDF
:10032E00FFFFFFFFFFFF1010FFFFFFFFFFFFFFFFAD
:10033E00FFFFFFFFFFFFFFFFFFFFFFFFFFFFFFFFBF
:10034E00FFFFFFFFFFFFFFFFFFFFFFFFFFFFFFFFAF
:10035E00FFFFFFFFFFFFFFFFFFFFFFFFFFFFFFFF9F
:10036E00FFFFFFFFFFFFFFFFFFFFFFFFFFFFFFFF8F
:10037E00FFFFFFFFFFFFFFFFFFFFFFFFFFFFFFFF7F
:10038E00FFFFFFFFFFFFFFFFFFFFFFFFFFFFFFFF6F
:10039E00FFFFFFFFFFFFFFFFFFFFFFFFFFFFFFFF5F
:1003AE00FFFFFFFFFFFFFFFFFFFFFFFFFFFFFFFF4F
:1003BE00FFFFFFFFFFFFFFFFFFFFFFFFFFFFFFFF3F
:1003CE00FFFFFFFFFFFFFFFFFFFFFFFFFFFFFFFF2F
:1003DE00FFFFFFFFFFFFFFFFFFFFFFFFFFFFFFFF1F
:1003EE00FFFFFFFFFFFFFFFFFFFFFFFFFFFFFFFF0F
:1003FE00FFFFFFFFFFFFFFFFFFFFFFFFFFFFFFFFFF
:10040E00FFFFFFFFFFFFFFFFFFFFFFFFFFFFFFFFEE
:10041E00FFFFFFFFFFFFFFFFFFFFFFFFFFFFFFFFDE
:10042E00FFFFFFFFFFFFFFFF1010FFFFFFFFFFFFAC
:10043E00FFFFFFFFFFFFFFFFFFFFFFFFFFFFFFFFBE
:10044E00FFFFFFFFFFFFFFFFFFFFFFFFFFFFFFFFAE
:10045E00FFFFFFFFFFFFFFFFFFFFFFFFFFFFFFFF9E
:10046E00FFFFFFFFFFFFFFFFFFFFFFFFFFFFFFFF8E
:10047E00FFFFFFFFFFFFFFFFFFFFFFFFFFFFFFFF7E
:10048E00FFFFFFFFFFFFFFFFFFFFFFFFFFFFFFFF6E
:10049E00FFFFFFFFFFFFFFFFFFFFFFFFFFFFFFFF5E
:1004AE00FFFFFFFFFFFFFFFFFFFFFFFFFFFFFFFF4E
:1004BE00FFFFFFFFFFFFFFFFFFFFFFFFFFFFFFFF3E
:1004CE00FFFFFFFFFFFFFFFFFFFFFFFFFFFFFFFF2E
:1004DE00FFFFFFFFFFFFFFFFFFFFFFFFFFFFFFFF1E
:1004EE00FFFFFFFFFFFFFFFFFFFFFFFFFFFFFFFF0E
:1004FE00FFFFFFFFFFFFFFFFFFFFFFFFFFFFFFFFFE
:10050E00FFFFFFFFFFFFFFFFFFFFFFFFFFFFFFFFED
:10051E00FFFFFFFFFFFFFFFFFFFFFFFFFFFFFFFFDD
:10052E00FFFFFFFFFFFFFFFFFFFF1010FFFFFFFFAB
:10053E00FFFF00000000FFFFFFFFFFFFFFFFFFFFB9
:10054E00FF000000000000FFFFFFFFFFFFFFFFFFA7
:10055E000000020202020000FFFFFFFFFFFFFFFF8D
:10056E000000020202020000FFFFFFFFFFFFFF007C
:10057E00000202000002020000FFFFFFFFFFFF006B
:10058E00000202000002020000FFFFFFFFFF00005A
:10059E0002020000000002020000FFFFFFFF000049
:1005AE00020200FFFF0002020000FFFFFF00000238
:1005BE00020000FFFF000002020000FFFF00000229
:1005CE000200000000000002020000FF0000020214
:1005DE0002020202020202020202000000000202F5
:1005EE0002020202020202020202000000000202E5
:1005FE0000000000000000000202000000000202E5
:10060E000000FFFFFFFF00000202000000000202D8
:10061E000000FFFFFFFF00000202000000000000CC
:10062E000000FFFFFFFF00000000000010100000A0
:10063E00000000000000000000000000FFFF0002AC
:10064E0002020202020202020202000000FF000287
:10065E000202020202020202020202000000000076
:10066E000002020000000000020202020000FF0071
:10067E0000020200FFFFFF00000202020000FF0066
:10068E0000020200FFFFFF00000202020000FF0056
:10069E0000020200000000000202020000FFFF0044
:1006AE00000202020202020202020000FFFFFF002D
:1006BE00000202020202020202020000FFFFFF001D
:1006CE0000020200000000000202020000FFFF0014
:1006DE0000020200FFFFFF00000202020000FF0006
:1006EE0000020200FFFFFF000002020200000000F5
:1006FE0000020200000000000202020200000002DE
:10070E0002020202020202020202020000000002C3
:10071E0002020202020202020202000000FF0000B8
:10072E00000000000000000000000000FFFF10109D
:10073E00FFFFFF00000000000000000000FFFFFFB1
:10074E00FFFF00000202020202020202000000FF8E
:10075E00FF00000202020202020202020200000078
:10076E000000000202000000000000020202000071
:10077E0000000202020000FFFFFF00000202000064
:10078E00000002020000FFFFFFFFFF000202000058
:10079E00000002020000FFFFFFFFFFFF000000004D
:1007AE00000002020000FFFFFFFFFFFFFFFFFFFF41
:1007BE00000002020000FFFFFFFFFFFFFFFFFFFF31
:1007CE00000002020000FFFFFFFFFF00000000001C
:1007DE00000002020000FFFFFFFFFF000202000008
:1007EE0000000202000000FFFFFF000002020000F6
:1007FE0000000202020000000000000202020000DF
:10080E00FF000002020202020202020202000000C7
:10081E00FFFF00000202020202020202000000FFBD
:10082E00FFFFFF0000000000000000000000FFFFBF
:10083E001010000000000000000000000000FFFF8C
:10084E00FFFF00000202020202020202020000FF8B
:10085E00FFFF000002020202020202020202000078
:10086E00FFFF000002020000000000020202000072
:10087E00FFFF000002020000FFFF00000202000066
:10088E00FFFF000002020000FFFF00000202000056
:10089E00FFFF000002020000000000020202000042
:1008AE00FFFF00000202020202020202020000FF2B
:1008BE00FFFF00000202020202020202000000FF1D
:1008CE00FFFF000002020000020202000000FFFF14
:1008DE00FFFF000002020000000202020000FFFF04
:1008EE00FFFF00000202000000000202020000FFF3
:1008FE00FFFF000002020000FF00000202020000E3
:10090E00FFFF000002020000FFFF000002020200D3
:10091E0000FF000002020000FFFFFF0000020202C3
:10092E0000FF000000000000FFFFFFFF00000000BE
:10093E0000FF101000000000FFFFFFFFFFFFFFFF92
:10094E00000000000000000000FFFFFFFFFFFF009F
:10095E000000000000000C0C0000FFFFFFFF000075
:10096E000C0C000000000C0C0C0000000000000C31
:10097E000C0C000000000C0C0C0C000000000C0C09
:10098E000C0C000000000C0C0C0C0C0C0C0C0C0CC9
:10099E000C0C000000000C0C0C0C0C0C0C0C0C0CB9
:1009AE000C0C000000000C0C0C000C0C0C0C000CC1
:1009BE000C0C000000000C0C0C00000C0C00000CC9
:1009CE000C0C000000000C0C0C0000000000000CD1
:1009DE000C0C000000000C0C0C0000000000000CC1
:1009EE000C0C000000000C0C0C0000FFFF00000CB3
:1009FE000C0C000000000C0C0C0000FFFF00000CA3
:100A0E000C0C000000000C0C0C0000FFFF00000C92
:100A1E000C0C000000000C0C0C0000FFFF00000C82
:100A2E000C0C000000000000000000FFFF000000A2
:100A3E00000000001010FF00000000000000000089
:100A4E000000000000FFFF0000020202020202028C
:100A5E000202020000FFFF00000202020202020276
:100A6E000202020000FFFF00000000000000020270
:100A7E000200000000FFFFFFFFFFFFFF0000020269
:100A8E00020000FFFFFFFFFFFFFFFFFF000002025B
:100A9E00020000FFFFFFFFFFFFFFFFFF000002024B
:100AAE00020000FFFFFFFFFFFFFFFFFF000002023B
:100ABE00020000FFFFFFFFFFFFFFFFFF000002022B
:100ACE00020000FFFFFFFFFFFFFFFFFF000002021B
:100ADE00020000FFFFFFFF00000000FF0000020207
:100AEE00020000FFFFFFFF000202000000000202F2
:100AFE00020000FFFFFFFF000202020000020202DE
:100B0E00020000FFFFFFFF000002020202020202CB
:100B1E00000000FFFFFFFFFF0000020202020200C2
:100B2E000000FFFFFFFFFFFFFF00000000000000BE
:100B3E0000FFFFFFFFFF1010FFFFFFFFFFFFFFFF94
:100B4E00FFFFFFFFFFFFFFFFFFFFFFFFFF000000A4
:100B5E0000000000FFFFFFFFFFFFFFFF000001018D
:100B6E0001010000FFFFFFFFFFFFFF000001010179
:100B7E0001010000FFFFFFFFFFFF00000101010167
:100B8E00010000FFFFFFFFFFFF0000010101010157
:100B9E000000000000000000000001010101010141
:100BAE00010101010101000000010101010101012A
:100BBE00010101010101000000010101010101011A
:100BCE00010101010101000000000101010101010B
:100BDE000101010101010000FF00000101010101FD
:100BEE000000000000000000FFFF000001010101F5
:100BFE00010000FFFFFFFFFFFFFFFF0000010101EB
:100C0E0001010000FFFFFFFFFFFFFFFF00000101DA
:100C1E0001010000FFFFFFFFFFFFFFFFFF000000CD
:100C2E0000000000FFFFFFFFFFFFFFFFFFFFFFFFC2
:100C3E00FFFFFFFFFFFFFFFF1010FFFFFFFFFFFF94
:100C4E00FFFFFFFFFFFFFFFFFFFFFFFFFFFF0000A4
:100C5E000000000000FFFFFFFFFFFFFFFFFF00008F
:100C6E00010101010000FFFFFFFFFFFFFFFF00007A
:100C7E0001010101010000FFFFFFFFFFFFFFFF0069
:100C8E000001010101010000FFFF00000000000053
:100C9E00000001010101010000FF0000010101013E
:100CAE00010101010101010100000000010101012A
:100CBE000101010101010101010000000101010119
:100CCE00010101010101010101000000000000000D
:100CDE00000001010101010000FF00000000000002
:100CEE00000001010101010000FFFFFFFFFFFF00F7
:100CFE000001010101010000FFFFFFFFFFFF0000E7
:100D0E0001010101010000FFFFFFFFFFFFFF0000D7
:100D1E00010101010000FFFFFFFFFFFFFFFF0000C9
:100D2E000000000000FFFFFFFFFFFFFFFFFFFFFFC0
:100D3E00FFFFFFFFFFFFFFFFFFFF1010FFFFFFFF93
:100D4E000000000000000000FFFFFFFFFFFFFFFF9D
:100D5E000000010101010000FFFFFFFFFFFFFFFF89
:100D6E000000010101010000FFFFFFFFFFFFFFFF79
:100D7E000000010101010000FFFFFFFFFFFFFFFF69
:100D8E000000010101010000FFFFFFFF0000000055
:100D9E00000001010101000000000000000001013F
:100DAE00000001010101000001010000000001012D
:100DBE00010001010101000101010000000001011B
:100DCE000101010101010101010100000000010109
:100DDE00010101010101010101010000FF000001FB
:100DEE000101010101010101010000FFFFFF0000EF
:100DFE0001010101010101010000FFFFFFFFFF00E2
:100E0E00000101010101010000FFFFFFFFFFFFFFD5
:100E1E000000010101010000FFFFFFFFFFFFFFFFC8
:100E2E00FF000001010000FFFFFFFFFFFFFFFFFFBC
:100E3E00FFFF00000000FFFFFFFFFFFF1010FFFF8E
:100E4E00FFFFFFFFFFFF0000000000000000FFFF9C
:100E5E00FFFFFFFFFF000002020202020000FFFF81
:100E6E00FFFFFFFF00000202020202020000FFFF6E
:100E7E00FFFFFF000002020200000202000000005D
:100E8E00000000000202020000000202000000004A
:100E9E000202020202020200FF0002020000000033
:100EAE000202020202020200FF0002020000000023
:100EBE000202000000020200FF0002020000000019
:100ECE00020200FF00020200FF000202000000000A
:100EDE000202000000020200FF00020200000000F9
:100EEE000202020202020200FF00020200000000E3
:100EFE0002020202020202000000020200000000D2
:100F0E000000000000020202000002020000FFFFCB
:100F1E00FFFFFFFF00000202020202020000FFFFBD
:100F2E00FFFFFFFFFF000002020202020000FFFFB0
:100F3E00FFFFFFFFFFFF0000000000000000101089
:100F4E000000000000FFFFFFFFFFFF000000000099
:100F5E000001010100FFFFFFFFFFFF000101010083
:100F6E000001010100FFFFFFFFFFFF000101010073
:100F7E000001010100FFFFFFFFFFFF000101010063
:100F8E000001010100FFFFFFFFFFFF000101010053
:100F9E00000101010000FFFFFFFF00000101010041
:100FAE00000101010100FFFFFFFF0001010101002F
:100FBE00000001010100FFFFFFFF00010101000021
:100FCE0000000101010000FFFF000001010100000F
:100FDE00FF0000010101000000000101010000FFFF
:100FEE00FFFF000001010100000101010000FFFFF1
:100FFE00FFFF000000010100000101000000FFFFE3
:10100E00FFFFFF00000101010101010000FFFFFFD2
:10101E00FFFFFFFF0000010101010000FFFFFFFFC6
:10102E00FFFFFFFFFF00000101000000FFFFFFFFB9
:10103E00FFFFFFFFFFFF0000000000FFFFFFFFFFAD
:10104E00101000000000000000FFFFFFFFFFFFFF79
:10105E00FFFF00000101010000FFFFFFFFFFFFFF88
:10106E00FFFF00000101010000FFFFFFFFFFFFFF78
:10107E00FFFF00000101010000FFFFFFFFFFFFFF68
:10108E00FFFF00000101010000FFFFFFFFFFFFFF58
:10109E00FFFF00000101010000FFFFFFFFFFFFFF48
:1010AE00FFFF00000101010000FFFFFFFFFFFFFF38
:1010BE00FFFF00000101010000FFFFFFFFFFFFFF28
:1010CE00FFFF00000101010000FFFFFFFFFFFFFF18
:1010DE00FFFF00000101010000FFFFFFFFFF000006
:1010EE00000000000101010000FFFFFFFFFF0000F4
:1010FE00000000000101010000FFFFFFFF000001E2
:10110E0000000000010101000000000000000101CC
:10111E0000000000010101010101010101010101B5
:10112E0000000000010101010101010101010101A5
:10113E0000000000000000000000000000000000A1
:10114E0000001010FFFFFFFFFFFFFFFFFFFFFFFF7D
:10115E00FFFFFFFFFFFFFFFFFFFFFFFFFFFFFFFF91
:10116E00FFFFFFFFFFFFFFFFFFFFFFFFFFFFFFFF81
:10117E00FFFFFFFFFFFFFFFF00000000000000FF6A
:10118E00FFFFFFFFFFFFFF00000001010100000055
:10119E00FFFFFFFFFFFF0000010101010101010040
:1011AE0000FFFFFFFF00000101010000000101012F
:1011BE000000FFFF00000001010000FF0000010120
:1011CE00000000FF00000101010000FF000001010E
:1011DE00010000FF00000101010000FF00000101FD
:1011EE00010000FF00000101010000FF00000101ED
:1011FE00010000FF00000001010000FF00000101DE
:10120E00000000FFFF0000010101000000010101CC
:10121E000000FFFFFFFF00000101010101010100BD
:10122E0000FFFFFFFFFFFF000000010101000000B3
:10123E00FFFFFFFFFFFFFFFF00000000000000FFA9
:10124E00FFFFFFFF1010FFFFFFFFFFFFFFFFFFFF7E
:10125E00FFFFFFFFFFFFFFFFFFFF0000000000008A
:10126E000000FFFFFFFFFFFF00000000020202026E
:10127E00000000FFFFFFFF00000002020202020258
:10128E0002020000FFFFFF00000202020000000049
:10129E000202020000FFFF00000202020000FF0037
:1012AE000000000000FFFF0000000202020200002A
:1012BE000000FFFFFFFFFFFFFF000002020202021D
:1012CE00020000FFFFFFFFFFFFFF00000000020211
:1012DE0002020000FFFFFF0000000000FFFF000001
:1012EE000202020000FFFF000002020200000000E6
:1012FE000202020000FFFF000000020202020202D0
:10130E0002020000FFFFFFFFFF00000002020202C8
:10131E00000000FFFFFFFFFFFFFFFF0000000000C7
:10132E000000FFFFFFFFFFFFFFFFFFFFFFFFFFFFBD
:10133E00FFFFFFFFFFFFFFFFFFFFFFFFFFFFFFFFAF
:10134E00FFFFFFFFFFFF1010FFFFFFFFFFFFFFFF7D
:10135E00FFFFFFFFFFFFFFFFFFFFFFFFFFFFFFFF8F
:10136E00FFFFFFFFFFFFFFFFFFFFFFFFFFFFFFFF7F
:10137E00FFFFFFFFFFFFFFFFFFFFFFFFFFFFFFFF6F
:10138E00FFFFFFFFFFFFFFFFFFFFFFFFFFFFFFFF5F
:10139E00FFFFFFFFFFFFFFFFFFFFFFFFFFFFFFFF4F
:1013AE00FFFFFFFFFFFFFFFFFFFFFFFFFFFFFFFF3F
:1013BE00FFFFFFFFFFFFFFFFFFFFFFFFFFFFFFFF2F
:1013CE00FFFFFFFFFFFFFFFF1010FFFFFFFFFFFFFD
:1013DE00FFFFFFFFFFFFFFFFFFFFFFFFFFFFFFFF0F
:1013EE00FFFFFFFFFFFFFFFFFFFFFFFFFFFFFFFFFF
:1013FE00FFFFFFFFFFFFFFFFFFFFFFFFFFFFFFFFEF
:10140E00FFFFFFFFFFFFFFFFFFFFFFFFFFFFFFFFDE
:10141E00FFFFFFFFFFFFFFFFFFFFFFFFFFFFFFFFCE
:10142E00FFFFFFFFFFFFFFFFFFFFFFFFFFFFFFFFBE
:10143E00FFFFFFFFFFFFFFFFFFFFFFFFFFFFFFFFAE
:10144E00FFFFFFFFFFFFFFFFFFFF1010FFFFFFFF7C
:10145E00FFFFFFFFFFFFFFFFFFFFFFFFFFFFFFFF8E
:10146E00FFFFFFFFFFFFFFFFFFFFFFFFFFFFFFFF7E
:10147E00FFFFFFFFFFFFFFFFFFFFFFFFFFFFFFFF6E
:10148E00FFFFFFFFFFFFFFFFFFFFFFFFFFFFFFFF5E
:10149E00FFFFFFFFFFFFFFFFFFFFFFFFFFFFFFFF4E
:1014AE00FFFFFFFFFFFFFFFFFFFFFFFFFFFFFFFF3E
:1014BE00FFFFFFFFFFFFFFFFFFFFFFFFFFFFFFFF2E
:1014CE00FFFFFFFFFFFFFFFFFFFFFFFF1010FFFFFC
:1014DE00FFFFFFFFFFFFFFFFFFFFFFFFFFFFFFFF0E
:1014EE00FFFFFFFFFFFFFFFFFFFFFFFFFFFFFFFFFE
:1014FE00FFFFFFFFFFFFFFFFFFFFFFFFFFFFFFFFEE
:10150E00FFFFFFFFFFFFFFFFFFFFFFFFFFFFFFFFDD
:10151E00FFFFFFFFFFFFFFFFFFFFFFFFFFFFFFFFCD
:10152E00FFFFFFFFFFFFFFFFFFFFFFFFFFFFFFFFBD
:10153E00FFFFFFFFFFFFFFFFFFFFFFFFFFFFFFFFAD
:10154E00FFFFFFFFFFFFFFFFFFFFFFFFFFFF10107B
:10155E00FFFFFFFFFFFFFFFFFFFFFFFFFFFFFFFF8D
:10156E00FFFFFFFFFFFFFFFFFFFFFFFFFFFFFFFF7D
:10157E00FFFFFFFFFFFFFFFFFFFFFFFFFFFFFFFF6D
:10158E00FFFFFFFFFFFFFFFFFFFFFFFFFFFFFFFF5D
:10159E00FFFFFFFFFFFFFFFFFFFFFFFFFFFFFFFF4D
:1015AE00FFFFFFFFFFFFFFFFFFFFFFFFFFFFFFFF3D
:1015BE00FFFFFFFFFFFFFFFFFFFFFFFFFFFFFFFF2D
:1015CE00FFFFFFFFFFFFFFFFFFFFFFFFFFFFFFFF1D
:1015DE001010FFFFFF0000FFFFFFFFFFF000000FE6
:1015EE00FFFFFFFF00222200FFFFFFFF002222006D
:1015FE00FFFFFFF0022002200FFFFFF0022002206B
:10160E000FFFFF002200002200FFFF00220FF0223A
:10161E0000FFF002200FF002200FF0022000000267
:10162E00200F002222222222220000222222222207
:10163E0022000022000000002200002200FFFF0016
:10164E002200002200FFFF002200000000FFFF002A
:10165E000000101000000000000000FF02222222F5
:10166E002222000F0222222222222000000220002B
:10167E0000222200F00220FFF0022200F00220FFE2
:10168E00F0022200F00220000022200FF00222229F
:10169E00222200FFF0022222222200FFF00220006E
:1016AE000022200FF00220FFF0022200F00220FFA5
:1016BE00F00222000002200000222200022222223A
:1016CE0022222000022222222222000F00000000ED
:1016DE00000000FF1010101010101010101010103D
:0A16EE001010101010101010101052
:107DE300122A85FF90035CE02F900210F02290018D
:107DF300EFE0FBA3E0FAA3E0F922F09001EFE0FB50
:107E0300A3E475F001122B41A9F0FA022A6C900148
:087E1300E6E0D36480948022B4
:0683A600E490035CF022EC
:0683AC0090035CEFF022DB
:0B501B009001E7EFF0A3ECF0A3EDF034
:105026009001E7E0FF25E0F0E02408F09001EEF0C3
:105036009001E8E0FEA3E07803C333CE33CED8F97F
:10504600F0EE9001E8F0A3E02408F09001E8E034E7
:1050560000F0AF037E007C017D02122AC4742E2F5D
:10506600F974003EFA9001EF74FFF0A3EAF0A3E9A9
:10507600127DFD9001EA127DFD9001EBF0E4A3F0B4
:105086009001EAE0FF9001ECE0C39F400302516209
:10509600E4A3F09001EBE0FF9001EDE0C39F400335
:1050A600025143127DF1122A6C127DE6E4FB7D0269
:1050B600FF1273E8127DF1900001127DE37B01126D
:1050C600518C900002127DE37B0212518C900003FA
:1050D600127DE37B0312519F9002107480F07B04D3
:1050E60012519F9001F0E475F004122B2B9001EE03
:1050F600E0900210F07B051251A7A3E0900210F099
:105106007B071251A7E07E007802C333CE33CED898
:10511600F91251631251B220E7FA9001E8E025E056
:1051260025E044081251631251B220E7FA9001EECD
:10513600E004F09001EDE02404F00250999001E7BC
:10514600E09001EEF09001E9E004F070069001E8CD
:0C515600E004F09001ECE004F002508650
:1051620022900210F07B097D02E4FF1273E87B0AB1
:105172007D02E4FF126E69EF543F4480900210F00A
:105182007B0A7D02E4FF1273E8227D02E4FF1273C0
:10519200E89001EFE0FBA3E0FAA3E0F9227D02E44C
:1051A200FF1273E8227D02E4FF1273E89001E82205
:0B51B2007B0A7D02E4FF126E69EF2211
:0B75D8009001E0EFF0A3EDF0A3EBF05A
:1075E300A3127DF41282209001E6EFF0C36480942D
:1075F3008040429001E0E030E0339001E1E0FFA3FE
:10760300E0FD7C00A3127DF4122A6CFB12501B9048
:1076130001E6E014F09001E4E475F001122B2B90E5
:1076230001E1E02402F0127E1150CF8005127E1199
:0576330050FB120029CC
:01763800222F
:108112000500000600000700000800000900000A30
:10812200000012000020000B000C000D000E0000E9
:03566B000121001A
:10724600900343E075F003A42412F9748135F0FA33
:107256009001E374FFF0A3EAF0A3E9F0229001DDC8
:10726600E0FBA3E0FAA3E0F9229001E374FFF0A3A8
:107276007481F0A3741EF022900001022A85122A5E
:107286006C540C1313543FF50822900002022A8511
:10729600900003022A857B017D127C00227B01E49B
:0D72A600FDFC7F1C227B01E4FDFC7F4122EA
:10788E00125B7C1283A67F041200267F031283BE36
:10789E00E4F508AF081278C40508E508C39406405D
:1078AE00F27F01127E1B7FFF1283BE7F081278C407
:0578BE00E4900340F01E
:1078C300221281529001E1E4F0A37426F07B5AE482
:0778D300FDFCFF126C9A227C
:103F14009001DDEB12725B7F021200267FFF128399
:103F2400BE900342E0122E433F5A113F69213F9352
:103F3400223FC1313FFB33403534406F4140BB9198
:103F440040D1A140F9A24121B14161B3419BB441A7
:103F5400D2C10000421F127263122A6C20E10302D4
:103F6400421F0240C7127263122A6C30E1081272B7
:103F7400467DFF12423E12726312727E20E10302FA
:103F8400421F9003441272497B1D7D5D02421A1246
:103F94007263122A6C30E10C1272467B0E7D487FEC
:103FA400011275D812726312727E20E10302421F5D
:103FB400900344127249E4FB7D1402421A127263A4
:103FC400122A6C30E10612724612425A12726312BD
:103FD400727E30E1099003441272491242641272F3
:103FE4006312729020E10302421F9003451272494A
:103FF4007B0F7D3E02421A127263122A6C30E10674
:1040040012724612422012726312727E30E10990DB
:10401400034412724912424612726312729020E1F2
:104024000302421F9003451272497B0F7D3E0242F8
:104034001A127263122A6C30E1061272461242207E
:1040440012726312727E30E10990034412724912B3
:10405400424612726312729020E10302421F9003DF
:10406400451272497B0F7D1402421A127263122A9E
:104074006C30E10612724612422A12726312727E88
:1040840030E10990034412724912425012726312D1
:10409400729030E10990034512724912426412721F
:1040A4006312729620E10302421F90034612724982
:1040B4007B0F7D3E02421A127263122A6C20E103C6
:1040C40002421F127246E4FB7D2902421A127263F5
:1040D400122A6C30E10612724612425A12726312AC
:1040E400727E20E10302421F9003441272497B1244
:1040F4007D2902421A127263122A6C30E10612728E
:104104004612422A12726312727E20E10302421F97
:10411400900344127249E4FB7D3E02421A12726318
:10412400122A6C30E10C127246E4FB7D297F0112E5
:1041340075D812726312727E30E1099003441272D0
:104144004912427812726312729020E10302421FF4
:104154009003451272497B127D3E02421A12726329
:10416400122A6C30E1061272461242341272631241
:10417400727E30E109900344127249124250127265
:104184006312729020E10302421F900345127249A8
:104194007B127D3E02421A127263122A6C30E106CF
:1041A40012724612423412726312727E30E1099026
:1041B400034412724912426E12726312729030E119
:1041C4005A9003451272497B127D1402421A1272EC
:1041D40063122A6C30E1081272467D1412423E12B8
:1041E400726312727E30E1099003441272491242E2
:1041F4006E12726312729030E10990034512724993
:1042040012427812726312729630E10F90034612D2
:1042140072497B127D3E7F011275D822E4FB7D1426
:104224007F011275D822E4FB7D147F011275D82218
:10423400E4FB7D147F011275D822E4FB7F01127523
:10424400D822E4FB7D3E7F011275D822E4FB7D3E3B
:104254007F011275D822E4FB7D297F011275D822D3
:104264007B0F7D147F011275D822E4FB7D3E7F0114
:0E4274001275D8227B127D147F011275D8229C
:08839600900341E04480F02255
:107B29007B787D01E4FF126E69EF540FFF900350DB
:107B3900F0900341E06F602ED2237B31E4FDFF1208
:107B49006E69EF547F900210F07B31E4FDFF1273F0
:107B5900E87F4D1200267F401283AC1283A6900362
:077B690050E0900341F022FF
:075785009001DDEB12725BE5
:10578C007F41120026900342E0122E4357C011575E
:10579C00D12157FE22582E31585033586C3457C0F3
:1057AC009157D1A157FEA2582EB15850B3586CB492
:1057BC00000058A89001DD12726612728460030218
:1057CC0058390258469001DD127266127284600BD1
:1057DC001258A91272551258DB80061272A3126B62
:1057EC00349001DD12726612727E12728760300282
:1057FC00587A9001DD127266127284600B1258A9ED
:10580C001272551258DB80061272A3126B3490017F
:10581C00DD12726612727E127287600302587A026F
:10582C00589E9001DD127266127284600D1258C27D
:10583C00127255E4FB7D310258997B01E4FDFC7F2B
:10584C00310258A59001DD127266127284600C123E
:10585C0058C2127255E4FB7D1C80321272A380393F
:10586C009001DD12726612727E12728760247B02C6
:10587C00E4FDFCFF126B34E50825E0FFE433FE7415
:10588C00272FF974813E127255E4FB7D467F01028D
:0C589C0075D87B01E4FDFC7F46126B34E4
:1058A800227B02E4FDFCFF126B34E50825E0FFE4EF
:1058B80033FE74272FF974813E227B02E4FDFCFF3E
:1058C800126B34E50825E0FFE433FE74272FF974E2
:0D58D800813E22E4FB7D1C7F011275D82269
:102EB1009001DDEB12725B7F0C120026900342E061
:102EC100122E432EF2112F04212F2D222F56312F96
:102ED10096332FD634301F41307F913099A130D1B4
:102EE100A23104B13158B331A4B431F6C10000327A
:102EF100639001DD127266122A6C30E00302308B9E
:102F01000230929001DD127266122A6C30E00812D2
:102F1100726F1232D880031232AD9001DD127266E7
:102F210012727E30E0030230BC0230C69001DD1225
:102F31007266122A6C30E00812726F12326F8003CF
:102F41001232649001DD12726612727E30E0030269
:102F510030F40230FE9001DD127266122A6C30E00C
:102F61000812726F1232D880031232AD9001DD1255
:102F7100726612727E30E00812726F12330E800395
:102F81001232F79001DD12726612729030E0030284
:102F910030700230789001DD127266122A6C30E0D6
:102FA1000812726F12326F80031232649001DD12C7
:102FB100726612727E30E00812726F1232C38003A1
:102FC1001232839001DD12726612729030E00302B8
:102FD10030700230789001DD127266122A6C30E096
:102FE1000812726F123279800312328E9001DD1253
:102FF100726612727E30E00812726F1232C3800361
:103001001232839001DD12726612729030E0081262
:10301100726F7B0F0231E67B017D0F0231EF900170
:10302100DD127266122A6C30E00812726F12327968
:10303100800312328E9001DD12726612727E30E0D0
:103041000812726F1232ED80031232B89001DD1254
:10305100726612729030E00812726F12330E8003A2
:103061001232F79001DD12726612729630E0081288
:10307100726F7B0F0230F97B017D0F02315190019C
:10308100DD127266122A6C30E00712726FE4FB8067
:103091002F7B01E4FDFC80339001DD127266122A60
:1030A1006C30E00812726F12331880031232E29012
:1030B10001DD12726612727E30E00A12726F7B0FAE
:1030C1007D2C0232567B017D0F7C007F2C02326009
:1030D1009001DD127266122A6C30E00812726F12D2
:1030E100329980031232CD9001DD12726612727E26
:1030F10030E00A12726FE4FB7D410232561272AB6C
:103101000232609001DD127266122A6C30E0081200
:10311100726F12331880031232E29001DD1272666F
:1031210012727E30E00812726F123322800812721E
:103131009C7F17126B349001DD127266127290300F
:10314100E00A12726F7B127D410232567B017D12C1
:103151007C007F410232609001DD127266122A6C9E
:1031610030E00812726F12329980031232CD900151
:10317100DD12726612727E30E00812726F1232ED49
:1031810080031232B89001DD12726612729030E043
:103191000A12726F7B127D4102325612729C7F417C
:1031A1000232609001DD127266122A6C30E0081260
:1031B100726F1232A380031233039001DD12726623
:1031C10012727E30E00812726F12332C8006127276
:1031D100AB126B349001DD12726612729030E00A0C
:1031E10012726F7B127D170232567B017D127C00B9
:1031F1007F170232609001DD127266122A6C30E094
:103201000812726F1232A380031233039001DD1290
:10321100726612727E30E00812726F12332C8006D1
:103221001272AB126B349001DD1272661272903021
:10323100E00812726F123322800812729C7F1712FB
:103241006B349001DD12726612729630E00C1272CC
:103251006F7B127D417F010275D812729C7F4112F2
:103261006B34227B01E4FDFC7F17126B3422E4FBFB
:103271007D177F011275D822E4FB7D177F0112753E
:10328100D8227B01E4FDFC7F41126B34227B01E4F7
:10329100FDFC7F17126B3422E4FB7D177F01127551
:1032A100D822E4FB7D177F011275D8227B01E4FD52
:1032B100FC7F2C126B34227B01E4FDFC7F41126BFD
:1032C1003422E4FB7D417F011275D8227B01E4FDAC
:1032D100FC7F17126B3422E4FB7D2C7F011275D821
:1032E100227B01E4FDFC7F2C126B3422E4FB7D4147
:1032F1007F011275D8227B017D0F7C007F17126B35
:1033010034227B01E4FDFC7F17126B34227B0F7D9D
:10331100177F011275D822E4FB7D2C7F011275D82D
:10332100227B127D177F011275D822E4FB7D417F3C
:05333100011275D82215
:107B7000E4FF128152900340E024FE600E04702363
:107B8000127BA47481F0A374218009127BA47481F8
:107B9000F0A37424F0E4FB7D017F011275D87FFF10
:107BA0001283BE227F031283BE7F0412002690013F
:067BB000E374FFF0A322C4
:1080C900E4FF128152900348E030E1127B017A0308
:1080D9007948122EB17B017A0379481257851283A8
:0680E90096E4FF027E1B7D
:1016F80000000000000000000000000000000000E2
:1017080000000000000000000000000000000000D1
:10171800003E007E00FE01CE038E7F8E7F8E738E8C
:10172800738E738E7F8E7F8E01CE00FE007E003E0C
:1017380000000000020006000E001E003FFE7FFEB3
:101748007FFE3FFE1E000E000600020000000000A3
:101758000000000000400060007000787FFC7FFE01
:101768007FFE7FFC007800700060004000000000F1
:10177800000003C003C003C003C003C003C003C00C
:1017880003C03FFC1FF80FF007E003C00180000012
:1017980003C003C007E007E00E700E701C381C3849
:1017A800381C381C7FFE7FFE700E700E700E700E97
:1017B8007FF87FFC383E381E381E381E383C3FF80C
:1017C8003FF8383C381E381E381E383E7FFC7FF8FC
:1017D8000FF81FFC3C1C380E780E700E700070005D
:1017E80070007000700E700E380E3C1C1FFC0FF855
:1017F8007FF07FF07078703C703C703C70787FF0C0
:101808007FE0778073C071E070F07078703C701E74
:1018180000006006700E781E7C3E7FFE77EE73CE69
:10182800718E700E700E700E700E700E700E700E3F
:1018380000001FF81FF800E000E000E000E000E012
:1018480000E000E000E070E079E03FC01F800F009A
:1018580000000000000003C007800F001E003FFCCE
:101868003FFC1E000F00078003C0000000000000BE
:1018780000000000000003C001E000F000783FFC19
:101888003FFC007800F001E003C000000000000009
:1018980000000000018001800180018011881998F2
:1018A8001DB81FF80FF007E003C00180000000001A
:1018B800003E007E00FE01CE038E7F8E7F8E738EEB
:1018C800738E738E7F8E7F8E01CE00FE007E003E6B
:1018D800700E700E700E700E700E700E781E381C22
:1018E800381C1C381C380E700FF007E003C001804C
:1018F8000000380038003800380038003800380058
:1019080038003800380038063806380E3FFE3FFEEB
:101918000000000000000000000003800FE01C70C1
:10192800183038383838383818301C700FE00380D1
:101938000000000000000000000003C00FF01C3889
:101948001C000F0007E000F000381C380FF003C03F
:10195800000000000000000000000000000000007F
:10196800000000000000000000000000000000006F
:10197800000000000000000000000000000000005F
:10198800000000000000000000000000000000004F
:10199800000000000000000000000000000000003F
:1019A800000000000000000000000000000000002F
:1019B800000000000000000000000000000000001F
:1019C800000000000000000000000000000000000F
:1019D80000000000000000000000000000000000FF
:1019E80000000000000000000000000000000000EF
:1019F80000000000000000000000000000000000DF
:101A080000000000000000000000000000000000CE
:101A180000000000000000000000000000000000BE
:101A280000000000000000000000000000000000AE
:101A3800000000000000000000000000000000009E
:101A4800000000000000000000000000000000008E
:101A5800000000000000000000000000000000007E
:101A6800000000000000000000000000000000006E
:101A7800000000000000000000000000000000005E
:101A8800000000000000000000000000000000004E
:101A9800000000000000000000000000000000003E
:101AA800000000000000000000000000000000002E
:101AB800000000000000000000000000000000001E
:101AC800000000000000000000000000000000000E
:101AD80000000000000000000000000000000000FE
:101AE80000000000000000000000000000000000EE
:101AF80000000000000000000000000000000000DE
:101B080000000000000000000000000000000000CD
:101B1800000007000F800F800F800F80070007006C
:101B28000700020002000000020007000700020090
:101B38000000EE006600440088000000000000007D
:101B4800000000000000000000000000000000008D
:101B5800000008200820082008203FF80820082056
:101B68000820082008203FF808200820082008201E
:101B780000000FC01B603330333033001B000F00F0
:101B880003C0036013303B3033301B600FC00300C9
:101B980000003808441084200440048009001270B2
:101BA800E4880908120822084210822001C00000B7
:101BB80000000E001B00318031801B000E001C004D
:101BC8003678632061A060E0606030F01F9C000000
:101BD80000000000000000000000000000000000FD
:101BE800000000000000800060007000380018004D
:101BF8000000000400080018001000300030003019
:101C08000030003000300010001800080004000206
:101C180000008000400060002000300030003000EC
:101C280030003000300020006000400080000000DC
:101C3800000002004210222012400A800700FFFC28
:101C480007000A8012402220421002000200000011
:101C580000000000030003000300030003007FF8F6
:101C68007FF80300030003000300030000000000E6
:101C7800000000000000000000000000000000005C
:101C8800000018003C003C00180010002000400034
:101C980000000000000000000000000000007FF8C5
:101CA8007FF80000000000000000000000000000B5
:101CB800000000000000000000000000000000001C
:101CC8000000000000007800840084008400780090
:101CD800000000180030006000C00180030006000A
:101CE8000C00180030006000C000800000000000F8
:101CF80000000FE0183030183038307830D831987C
:101D0800331836183C183818301818300FE000000F
:101D18000000030007000F00030003000300030096
:101D28000300030003000300030003001FE000009A
:101D380000000FE01830301830183038007001C03B
:101D480003000E001800300830083FF83FF8000084
:101D5800000007C0183030183018003000E003C009
:101D680000E00030001830183018183007C00000A4
:101D7800000000C001C003C006C00CC018C030C0BD
:101D880060C0C0C0C0C0FFF800C000C003F00000C1
:101D980000003FF03FF030003000300037C03830EE
:101DA80030180018001830183018183007C0000014
:101DB800000007E01830303030003000300037E0E5
:101DC8003830301830183018301818300FC000006C
:101DD80000003FF83FF8201820180030006000C0CD
:101DE8000180030003000300030003000300000058
:101DF80000000780186030303030303018600FC075
:101E08001860303060186018601830300FC000005B
:101E1800000007801860303030183018301830381B
:101E2800187807980018303038301860078000009C
:101E3800000000000000000003000780030000000D
:101E480000000300078003000000000000000000FD
:101E580000000000000000000300078003000000ED
:101E680000000300078003800180070000000000D5
:101E780000000000001800600180060018006000E3
:101E88008000600018000600018000600018000053
:101E9800000000000000000000007FF87FF800004C
:101EA80000007FF87FF8000000000000000000003C
:101EB8000000800060001800060001800060001823
:101EC800000400180060018006001800600080000F
:101ED800000007800FC01CE038E038E011C0018026
:101EE80003000300020002000000020007000700D0
:101EF80000000FC030604010478888C890C890C85C
:101F080090C890C888D84770400830700FC000004B
:101F1800000003000300078007800CC00CC0186095
:101F280018601FE03030303060186018F03C000056
:101F380000003F80186018301830183018601FC033
:101F48001860183018181818181818303FC00000F2
:101F58000000078818683038601860086000600062
:101F6800600060006008601830301860078000006A
:101F780000007F8030E030383018301830183018C2
:101F88003018301830183018303030E07F800000BA
:101F980000003FF0183018101800188018801F80B3
:101FA8001880188018001800181018303FF000002A
:101FB80000003FF0183018101800188018801F8093
:101FC8001880188018001800180018003C0000003D
:101FD80000000F90187030306010601060006000D2
:101FE8006078603060306030307018F00FB00000FA
:101FF80000007878303030303030303030303FF0DA
:102008003030303030303030303030307878000098
:1020180000000FC0030003000300030003000300D7
:102028000300030003000300030003000FC00000C7
:10203800000001F000600060006000600060006067
:10204800006000603060306030E019C00F000000B0
:10205800000078F8306030C03180330036003C0032
:102068003E003300318030C030603030787C000072
:1020780000003C001800180018001800180018008C
:102088001800180018001808181818383FF8000029
:102098000000E03CE038F078F078D8D8D8D8C89874
:1020A800CD98CD98C518C718C218C018E07C000094
:1020B8000000C078E030F030F830DC30CE30C73087
:1020C800C3B0C1F0C0F0C070C030C030E0780000CC
:1020D80000000FC0387070386018601860186018F9
:1020E8006018601860186018703838700FC00000E9
:1020F80000003FC0187018381818181818381870C9
:102108001FC0180018001800180018003C00000034
:1021180000001F8070E0E070C030C030C030C030B8
:10212800C030C030C030CF30E1F070E01FEC003874
:1021380000003F8018E0187018301830187018E048
:102148001FC01B80198018C0186018303C7C000024
:1021580000000FD018703030301018000E000380C7
:1021680000E000302018301838182C3027E0000024
:1021780000007FF873386318430803000300030066
:1021880003000300030003000300030007800000AE
:102198000000787830303030303030303030303007
:1021A800303030303030303030301CE00FC000007C
:1021B8000000F0786030603060306030603060304F
:1021C80060306030306018C00D80070002000000E9
:1021D8000000C71C82088208C71847184510451018
:1021E8006DB06DB028A038E01040104010400000DD
:1021F8000000F07C6030306018C008800D80070057
:10220800020007000D8018C030606030F07C0000CC
:102218000000F03C6018303018600CC007800300E4
:10222800030003000300030003000300078000000D
:1022380000003FF8301820180030006000C001800E
:10224800030006000C001800300860187FF8000032
:102258000000001C0030006000600060006000604A
:102268000060006000600060006000600030001CDA
:1022780000008000C0006000300018000C0006005C
:102288000300018000C0006000300018000C00044A
:102298000000E000300018001800180018001800AE
:1022A8001800180018001800180018003000E00086
:1022B8000000000000000000000000000000000016
:1022C800020007000D8018C07070C01C00000000DC
:1022D80000000000000000000000000000000000F6
:1022E8000000000000000000000000000000FFFEE9
:1022F80000000E0007000180004000000000000000
:1023080000000000000000000000000000000000C5
:102318000000000000000000000000000F8030C036
:1023280000C00FC018C030C030C031D01F600000DE
:102338000000380018001800180018001FC01C60A2
:10234800183018301830183018301C603FC00000A2
:102358000000000000000000000000000FC018602E
:102368003060306030003000300018200FC00000AE
:102378000000007000300030003000300FB01870DE
:102388003030303030303030303018700FB000001E
:102398000000000000000000000000000FC01860EE
:1023A800303030303FF03000300018300FE000009F
:1023B800000003C006600660060006003FC0060075
:1023C8000600060006000600060006000F000000D2
:1023D800000000000000000000000FB018E018C066
:1023E80018C00F80070018C03060306018C00F8018
:1023F8000000380018001800180018001BC01E60E4
:102408001C30183018301830183018303C7800005C
:1024180000000000030003000000000007000300A4
:10242800030003000300030003000300078000000B
:10243800000001800180000000000380018001800D
:102448000180018001801980198019800F00000027
:1024580000003800180018001800180019F018C0FB
:1024680019801B001F801CC0186018303C7C0000BD
:10247800000007000300030003000300030003003B
:1024880003000300030003000300030007800000AB
:10249800000000000000000000000000DEF073985B
:1024A800631863186318631863186318F39C0000B3
:1024B80000000000000000000000000037C01C60A1
:1024C8001860186018601860186018603CF0000008
:1024D8000000000000000000000000000FC01860AD
:1024E8003030303030303030303018600FC00000BD
:1024F80000000000000000000000000037C01C6061
:102508001830183018301C601FC0180018003C0024
:102518000000000000000000000000000F8018E02C
:1025280030603060306018E00FE00060006000F05C
:102538000000000000000000000000001BC00EE0CA
:102548000C600C000C000C000C000C001E000000BD
:102558000000000000000000000000000FC018E0AC
:1025680018200E00030001C0106018600FC00000A2
:102578000000000000000600060006003FC006003C
:102588000600060006000600066006E007C0030015
:1054B400EF543F4480900210F07B0A7D02E4FF2207
:1054C40075F020A424F8F9741635F0FA74FFF0A3EB
:1054D400EAF0A3E9F022EFF0A3ECF0A3EDF0A3EBE4
:1054E400F0E517900210F0E4FB7D02FF22F0A3E048
:1054F400FBA3E0FAA3E0F92225E025E0FDE02D443A
:1055040002900210F07B097D02E4FF22900209E080
:10551400FF04F0EF4480900210F07B047D02E4FF6E
:1055240022E517900210F07B017D02E4FF22E517CB
:10553400900210F07B027D02E4FF22E51790021036
:10554400F07B037D02E4FF22A3E0900210F07B07CE
:105554007D02E4FF22122A8575F020A424F8F97450
:105564001635F0FA229001E4E0FFA3E0FD7C009000
:1055740001E9E0FEFB9001E6E0F9A3E0FAA3E022F2
:105584009001EBE025E025E0FF9001EDE025E0252A
:10559400E014FEC454F04F229001E7E4122B2B9048
:1055A40001E4E02408F09001E9E0D36480948022CF
:1055B400F0A3E0FEA3E0780322900210F07B057DC7
:1055C40002E4FF22F0900210F07B0F7D02E4FF2240
:1055D4009001D87454F0A374FFF02275F003A4244E
:1055E400F1F582E43401F58322A3E0900210F07B0C
:1055F400087D02E4FF22E0900210F07B067D02E4C5
:10560400FF22ECF0A3EDF0A3EB22900001022A8527
:0A561400E0FBA3E0FAA3E07E002211
:030026008F18220E
:0383BE008F1722F4
:1076F1009001D5EFF0A3EDF0900210EBF07B0B12AF
:1077010077429001D8E0900210F07B0C1277429002
:1077110001D9E0900210F07B0D7D02E4FF1273E8C5
:107721009001D5E030E006A3E0448080069001D6C8
:10773100E044C0900210F07B0E7D02E4FF1273E87A
:09774100227D02E4FF1273E8222C
:105B7C0090021074C0F07B1F7D02E4FF1273E8905A
:105B8C000210740C1255CC1273E81255D47F021209
:105B9C005C7C7454F0A3744AF07B4C7F02125C92D0
:105BAC0074FFF0A3746BF07F02125C877480F0A317
:105BBC00F0E4FBFD125C9B1255D77F01125C7C74E8
:105BCC0055F0A3744AF07B4B7F01125C9274FFF08A
:105BDC00A3746BF07F01125C877480F0A3F07BF0F0
:105BEC007D04125C9B7480F0A3F07BC07D05125C7D
:105BFC00A47480F0A3F07B7F7D06125CA47480F00B
:105C0C00A3F07B3F7D07125CAD744FF0A374B5F02D
:105C1C007B957D08125CAD74AAF0E4A3F07BB27D99
:105C2C00097F011276F19001D874D4F0A374EAF0D4
:105C3C007B697D0A7F011276F19001D874B5F0A3CF
:105C4C00743AF07B617D0B7F011276F1E49001D800
:105C5C00F0A37494F07BE17D0C7F011276F1125568
:105C6C00D47B4C7D0D7F011276F1E4F517F51822EB
:105C7C007B4C7D011276F19001D8227B1D7D0312A5
:105C8C0076F19001D8227D021276F19001D8227F14
:105C9C00011276F19001D8227F011276F19001D891
:0A5CAC00227F011276F19001D82248
:108152009001E3EF1254BC126E69EF54C3FF900119
:0F816200E3E0FE25E025E04FF01254B90273E888
:107E1B009001E3EFF064087B0F7D027007127E3C4C
:107E2B0044028006E4127E3C44081255C81273E8E3
:107E3B0022FF126E69EF540FFF9001E3E05407FE2F
:067E4B00C454F04FF022C8
:047E87009001DDEF9A
:107E8B001255CC126E69EF540FFF9001DEE4F0A394
:107E9B00EFF09001DDE0F4FFE4F4FEA3E05EFEA35F
:107EAB00E05FFF9001DEEEF0A3EF1255C80273E81E
:106C9A009001DD1254DA1273E81255251273E812C4
:106CAA0055321273E812553F1273E89001DDE0FF86
:106CBA0025E01255B4C333CE33CED8F9FF9001DEA6
:106CCA00EEF0FCA3EFF0FDA3E025E0FF9001DDE08C
:106CDA00FB2F149001E01255B4C333CE33CED8F94A
:106CEA002DFFEE3CCF24FFCF34FF9001E1F0A3EF5C
:106CFA00F0EB1255BD1273E89001E01255FA1273C7
:106D0A00E89001DE12554C1273E89001E11255ED3C
:106D1A001273E89001DEE09001E11254FC1273E86C
:106D2A001254BD126E69EF44C01254B91273E812BC
:0A6D3A0054BD126E69EF20E7F62247
:1081A8001281527FFF1283BE9001E1E4F0A374268E
:0A81B800F07B5AE4FDFCFF026C9A14
:1051BD009001FDEFF0A3EB1254D29001FE1254F3C7
:1051CD00122A6CF522301704AF188002AF17EF12B8
:1051DD0054E71273E8301604AF188002AF1712535C
:1051ED0013301504AF188002AF1712532230140478
:1051FD00AF188002AF171252F19001FDE004F030AC
:10520D001304AF188002AF17900210EF1254EA1278
:10521D0073E8301204AF188002AF17125313301118
:10522D0004AF188002AF17125322301004AF18804C
:10523D0002AF171252F19001FDE0041254F1125613
:10524D000EF522301704AF188002AF17900210EF41
:10525D001254EA1273E8301604AF188002AF17EF3C
:10526D001255271273E8301504AF188002AF17EFEF
:10527D001255341273E8301404AF188002AF17EFD3
:10528D0012554112533112551812533104F0301387
:10529D0004AF188002AF17900210EF1254EA127388
:1052AD00E8301204AF188002AF17900210EF1255BC
:1052BD002A1273E8301104AF188002AF1790021054
:1052CD00EF1255371273E8301004AF188002AF1784
:1052DD00900210EF1255441273E89001FDE0125543
:1052ED00180273E8900210EFF07B037D02E4FF12C9
:1052FD0073E89001FDE04480900210F07B047D0284
:10530D00E4FF1273E822900210EFF07B017D02E4BE
:10531D00FF1273E822900210EFF07B027D02E4FF92
:0C532D001273E8221273E89001FDE022E8
:075CB6009001EB125606F00D
:105CBD00EF25E02408FFF50C9001EB1255B6C33328
:105CCD00CE33CED8F9F0EE9001EBF0A3E02408F03E
:105CDD009001EBE03400F09001EE1254F3122A6CB7
:105CED009001F11254C49001EE1254F512560E901B
:105CFD0001F41254C49001EE1254F59000021255A5
:105D0D00599001F71254D09001EE1254F590000302
:105D1D001255599001FA1254D09001EDE0D394042C
:105D2D0040037404F0E4F50AE50AC394204003022D
:105D3D005DD9E4F50B9001EDE0FFE50BC39F502617
:105D4D00E50B75F003A424F1F582E43401F583121B
:105D5D005614250AF9EE3AFAE50B25E025E0FF1277
:105D6D0051BD050B80CFE50C1255BD1273E89001A6
:105D7D00EB12554C1273E81255841255051273E847
:105D8D001254BD126E691254B41273E81254BD123E
:105D9D006E69EF20E7F6125584440812550512730B
:105DAD00E81254BD126E691254B41273E81254BD48
:105DBD00126E69EF20E7F69001ECE004F0700690AA
:0C5DCD0001EBE004F0050A050A025D3558
:015DD90022A7
:036B34009001E0ED
:106B37001254DA1273E81255251273E812553212FD
:106B470073E812553F1273E89001E0E0FF25E0F08B
:106B5700E024081255B4C333CE33CED8F9F0EE9003
:106B670001E1F0A3E02408F09001E1E03400F090A7
:106B770001E3E025E025E0FF9001E0E0FD2F149020
:106B870001E4F09001E2E0240FFE9001E1E034001F
:106B97009001E5F0A3CEF0900210ED1255C01273EC
:106BA700E89001E41255FA1273E89001E112554C8E
:106BB7001273E89001E51255ED1273E89001E1E0D8
:106BC7009001E51254FC1273E81254BD126E69EF7E
:106BD70044C01254B91273E81254BD126E69EF2003
:026BE700E7F6CF
:016BE9002289
:105DDA00900209EFF0A3EB1254D290020A1254F384
:105DEA00122A6CF522301704AF188002AF17EFC4DD
:105DFA0054F0FF301604AE188002AE17EF4E12545C
:105E0A00E71273E8301504AF188002AF17EFC454D5
:105E1A00F0FF301404AE188002AE17EF4E12552769
:105E2A001273E8301304AF188002AF17EFC454F0AE
:105E3A00FF301204AE188002AE17EF4E125534121C
:105E4A0073E8301104AF188002AF17EFC454F0FFA3
:105E5A00301004AE188002AE17EF4E12554112737D
:105E6A00E81255101273E890020A1254F312560EF1
:105E7A00F522301704AF188002AF17EFC454F0FFB1
:105E8A00301604AE188002AE17EF4E1254E71273A2
:105E9A00E8301504AF188002AF17EFC454F0FF3092
:105EAA001404AE188002AE17EF4E1255271273E88B
:105EBA00301304AF188002AF17EFC454F0FF30124A
:105ECA0004AE188002AE17EF4E1255341273E83042
:105EDA001104AF188002AF17EFC454F0FF3010045A
:105EEA00AE188002AE17EF4E1255411273E81255E2
:045EFA00100273E837
:0A6208009001EAEFF0A3125606F031
:106212009001EAE0FF25E0F0E024041255B4C33314
:10622200CE33CED8F9F0EE9001EBF0A3E02404F0E7
:106232009001EBE03400F0EBD3940840069001EDBE
:106242007408F0E4F50A9001EDE0FFE50AC39F50FF
:10625200181254F2850A82758300125559E50A1202
:1062620055DF1254D0050A80DDE4F50AE50AC3942D
:106272002040030262F9E4F50B9001EDE0FFE50B2B
:10628200C39F501AE50B1255DF125614250AF9EE78
:106292003AFAE50B25E0FF125DDA050B80DB90018F
:1062A200EAE01255BD1273E89001EB12554C1273DD
:1062B200E89001EBE025E025E0FF9001EDE0FEC46F
:1062C2003354E024F04F1255051273E81254BD12F4
:1062D2006E691254B41273E81254BD126E69EF2043
:1062E200E7F69001ECE004F070069001EBE004F0B8
:0762F200050A050A02626EB5
:0162F9002282
:077639009001E3EF12560778
:107640001254F11282209001E9EFF0C3648094801B
:1076500040449001E3E030E01E1255699001EEC90C
:107660001254D2125CB69001E9E024FCF075F004EB
:1076700012559C50E4801C1255699001EEC91254B9
:10768000D21262089001E9E024F8F075F008125572
:067690009C50E4120029E9
:0176960022D1
:09836900D28C758CEFE4F58A2238
:10817100D2CAD2ADD2BDE4F5C975C804C2CF75CD9E
:0C818100B8F5CC7F0C7825E4F608DFFC94
:01818D0022CF
:03000B0002832548
:0D832500C2AF758CDC758A00C28DD2AF32FC
:03002B000264CCA0
:1064CC00C0E0C083C082C0D0C2AF75CDB875CC005F
:1064DC00C2CFD3E5269401E525648094804008E57D
:1064EC0026152670021525D3E5289401E52764802E
:1064FC0094804008E528152870021527D3E52A94C6
:10650C0001E529648094804008E52A152A7002155B
:10651C0029D3E52C9401E52B648094804008E52C6C
:10652C00152C7002152BD3E52E9401E52D64809467
:10653C00804008E52E152E7002152DD3E530940100
:10654C00E52F648094804008E53015307002152FDB
:10655C00D390032AE09401900329E09400400CA30B
:10656C00E024FFF0900329E034FFF0D390032CE0FB
:10657C00940190032BE09400400CA3E024FFF090D6
:10658C00032BE034FFF09002FCE0D394014003E0D5
:0D659C0014F0D2AFD0D0D082D083D0E03246
:10333600FFFF00FFFF000130000131B40132000140
:1033460033780134000135B401360001377801388D
:10335600000139B4013A00013B78013C00013DB45B
:10336600013E00013F78FFFFFFFFFF00FFFF000166
:1033760030000131B40132000133900134000135CF
:10338600B40136000137900138000139B4013A0022
:10339600013B90013C00013DB4013E00013F90FF1E
:1033A600FFFFFFFF007FFF000130000131B4013253
:1033B6000001333C0134000135B401363C01377855
:1033C600FFFFFF555500555500FFFF01FFFF0101A7
:1033D60030780131B40132500133780134000135BF
:1033E600B4013600013778FFFFFFFFFF007FFF00C3
:1033F6000130000131B401320001334801340001CB
:1034060035B4013648013790FFFFFF7FFF00FFFF0D
:103416000001300001315A01320001339001345A63
:103426000135B4013600013790FFFFFFFFFF007F33
:10343600FF007FFF017FFF017FFF027FFF02013058
:10344600000131B401320001333C01340001355A28
:1034560001363C01377801385A0139B4013A3C014A
:103466003B78FFFFFF7FFF007FFF007FFF017FFFAD
:1034760001FFFF027FFF0201300001315A013200D5
:1034860001333C01345A0135B401360001373C01A1
:1034960038000139B4013A3C013B78FFFFFF7FFF5A
:1034A60000FFFF007FFF017FFF017FFF027FFF021A
:1034B60001300001315A01320001337801345A01DA
:1034C60035B401360001373C01385A0139B4013AA6
:1034D6003C013B78FFFFFF7FFF007FFF007FFF017E
:1034E600FFFF017FFF027FFF0201300001315A0119
:1034F600320001333C01345A0135B401360001373C
:103506007801380001395A013A3C013B78FFFFFF48
:10351600FFFF007FFF007FFF017FFF017FFF027F2C
:10352600FF020130000131B4013200013348013499
:103536000001355A01364801379001385A0139B42D
:10354600013A48013B90FFFFFF7FFF007FFF007FAE
:10355600FF017FFF01FFFF027FFF02013000013103
:103566005A01320001334801345A0135B40136009C
:103576000137480138000139B4013A48013B90FF50
:10358600FFFF7FFF00FFFF007FFF017FFF017FFF3F
:10359600027FFF0201300001315A013200013390EF
:1035A60001345A0135B401360001374801385A0151
:1035B60039B4013A48013B90FFFFFF7FFF007FFFD0
:1035C600007FFF01FFFF017FFF027FFF0201300046
:1035D60001315A01320001334801345A0135B40130
:1035E600360001379001380001395A013A48013B4B
:1035F60090FFFFFF7FFF007FFF0001300001315A7F
:1036060001320001333C01345A0135B40136000160
:10361600373C01380001395A013A3C013B78013CFC
:103626005A013DB4013E3C013F78FFFFFF7FFF009A
:103636007FFF0001300001315A0132000133480199
:10364600345A0135B40136000137480138000139D2
:103656005A013A48013B90013C5A013DB4013E48AB
:10366600013F90FFFFFF00021500121F0022150008
:10367600321FFFFFFF00022000123000222000321E
:1036860030FFFFFF000432462E40080A18261D248C
:1036960016261A240022080134550135B0FFFFFF13
:1036A60000222E0134550135B0FFFFFF00322E01F6
:1036B6003007013160FFFFFF00320801300701319A
:1036C60060FFFFFF0022380134550135B0FFFFFFD0
:1036D6000160C0016381016682016983008A01017C
:1036E6006C03016D00FFFFFF0160800163C101668D
:1036F60082016983009A41016C0C016D00FFFFFF96
:103706000160800163810166C201698300AA8101AB
:103716006C30016D00FFFFFF01608001638101666F
:10372600820169C300BAC1016CC0016D00FFFFFFD1
:10373600016080016381016682016983008A31002C
:103746009A7100AAB100BAF1016C00016DE4FFFFA5
:10375600FF01110119012101290114011C01240194
:103766002C01100118012001280113011B0123015E
:103776002B016101640167016A83848182939491BC
:0937860092A3A4A1A2B3B4B1B254
:105EFE0090033FE04404FF9001E4F09001E1E0FBE9
:105F0E00A3E0FAA3E0900001F9122A855401FE25C0
:105F1E00E04F9001E4F09001DEE0FBA3E0FAA3E095
:105F2E00F922900002122A85C454F04402FB2290FA
:105F3E00033FE0FF9001E4F09001E1229000011296
:105F4E002A855401F925E0FE90033FE02E2235F01C
:105F5E009001E1FA74FFF0A3EAF0A3E9F0229000B9
:105F6E0001122A85FF9001E1E0FBA3E0FAA3E022F3
:105F7E00122A6C540125E0FEEF4E2225E02457F53F
:105F8E0082E43437F583E493FA740193FBEAFD223D
:105F9E009001DDE0540F24FFFFE434FFFE7C00127D
:105FAE002AC49001E2EE8FF0122B2B9001DE22120A
:105FBE002A8554034480900210F02290369293FE6C
:105FCE006F22122A6CFF9001E122A3E0900210F0E2
:105FDE00E4FDFF22900001022A8590033FE0440475
:105FEE0022900002022A8590368A93FE6F2225E0C7
:085FFE002477F582E434372218
:0578DA00900006EFF034
:1078DF00E4A3F0FBFDFF126E69EF540FFFBF0F1310
:1078EF00900006E0C454F0FBE4FDFF126E699000B7
:1078FF0007EFF0900007E0FE70037F0222EE54E0E6
:10790F00900007F0E0C4135407F0D3940340047FB2
:05791F000080027F0161
:017924002240
:076D44009001E4EB125F6413
:106D4B00EF75F004A4247FF9743735F0A3125F615B
:106D5B009001E4125F27122B57FFAEF09001EAEE81
:106D6B00F0A3EFF0F47002EEF4126DA3125FD812E1
:106D7B0073E89001E5E475F003122B2B9001E412FC
:106D8B005F27122B57FF9001EAE5F0F0A3EFF0120B
:086D9B006DA3125FD80273E83A
:106DA3009001E7E0FBA3E475F001122B41A9F0FA8F
:106DB300122A6CFB9001EAE0900210F0E4FDFF124E
:106DC30073E89001E7E0FBA3E475F001122B41A9FE
:0A6DD300F0FA122A6CFB9001EA228C
:0745DC009001DEEB125F64A9
:1045E300EF122E43460F11463622465E3146B9334B
:1045F300470234476041460F914636A2465EB146B4
:10460300B9B34702B44760C1000047F090033FE0ED
:104613004408125F41125F27122A6C125F1A122A92
:104623006CFD9001E430E006E04404F08002E0F029
:10463300ED801D125F3D125F27125F7E125F201215
:104643002A6C125F36741B1248C9125EFE125FE2B7
:10465300125F3690021074190247E990033FE04459
:104663000C125F41125F27122A6C125F1A12486004
:104673006006125F2412487A125F3D125F27125FB1
:10468300E2125F81125F201247F16006125F24126B
:104693004848125FE8125F41125F76900002125F92
