:030000000288F87B
:0C88F800787FE4F6D8FD75816702893FA7
:0BA71300E0248CF582E43402F5832280
:10A54200C2BCD2AC759852758DFAE4F58BD28E905E
:06A5520002DCF0A3F02280
:10A659009002DCE0FFA3E0B507037F00227F01221F
:10A4E0009002DC12A713E0FF9002DCE004F0E0C36E
:08A4F00094504002E4F0D2ACEC
:01A4F8002241
:080003003099FD8F99C299228A
:0300230002A03FF9
:10A03F00C0E0C083C082C0D0309819C2989002DDB2
:10A04F0012A713E599F09002DDE004F0E0C39450FD
:0DA05F004002E4F0D0D0D082D083D0E032B7
:109BD700E0F580D2A3E490031FF0A3F022C3900323
:109BE7001FE094002290031FE004F0229001E4E0BC
:109BF700FBA3E0FAA3E0F922EDF0A3EBF0E4FFC248
:0C9C0700AF22D2B6D2B77580FFD2AF22D8
:1090A8009001F3129BFF12A7879001F3E0FF70066F
:1090B800C2B7C2B68012EFB40106C2B7D2B68008F2
:1090C800EFB40204D2B7C2B69001F4129BD7129B38
:1090D800E4500BA3E004F070F5129BEC80F0C2A3FF
:1090E8009001F5E0F580C2A1129BDC129BE4500BC5
:1090F800A3E004F070F5129BEC80F0D2A112A787D0
:04910800129C09228A
:108A95009001D8129BFF12A7879001D8E0FF7006BE
:108AA500C2B7C2B68012EFB40106C2B7D2B680080B
:108AB500EFB40204D2B7C2B69001D9E0FF04F08F3B
:108AC50080129BDA129BE4500BA3E004F070F512C0
:108AD5009BEC80F0C2A39001DAE0FBA3E475F00102
:108AE500122763A9F0FA12268EF580C2A1129BDC2B
:108AF500129BE4500BA3E004F070F5129BEC80F0A0
:108B0500D2A19001DDE014F070AE12A787129C0986
:018B1500223D
:0B8984009001F2EFF0A3EDF0A3EBF088
:10898F00C2AF12A787E49001F2F0A3E0FF7006C216
:10899F00B7C2B68012EFB40106C2B7D2B68008EFE5
:1089AF00B40204D2B7C2B69001F4129BD7129BE463
:1089BF00500BA3E004F070F5129BEC80F0C2A3758E
:1089CF0080FF129BDC129BE4500BA3E004F070F5C8
:1089DF00129BEC80F0C2A29001F5E580F0129BDCB7
:1089EF00129BE4500BA3E004F070F5129BEC80F0A7
:1089FF00D2A212A787D2B6D2B7D2AF9001F5E0FFBD
:018A0F002244
:109403009001E4EBF0A3EAF0A3E9F0129BF3122737
:1094130079F47003E5F0F46038122779FBAAF0EAD7
:10942300FDE4FF128984129BF39000021226A7FC2D
:109433006F6012122779FBAAF0EAFD9001F5ECF0B8
:10944300E4FF1290A89001E5E475F00312274D8024
:02945300BA223B
:01A7CA00226C
:10544D002562782025627820256278000A3C523E3C
:10545D0025303262785B25303262785D3D25303201
:10546D0062780025627820256278002562782025F3
:10547D0062782025627820256278200025316278B7
:10548D0020253162782025316278200052656164D3
:10549D004173696342797465203D3D202562782012
:1054AD000A0063682562643A2562642000636825FA
:1054BD0062643A2562642063682562643A256264F9
:1054CD00200063682562643A256264206368256262
:1054DD00643A2562642063682562643A256264201B
:1054ED000063682562643A256264206368256264FE
:1054FD003A2562642063682562643A2562642063FC
:10550D00682562643A256264200063682562643A06
:10551D002562642063682562643A256264206368AD
:10552D002562643A2562642063682562643A2562C7
:10553D00642063682562643A2562642000256264F4
:10554D0020000A203D3D3D3D3D3D3D3D2050414724
:10555D00452025623278203D3D3D3D3D3D3D3D3D63
:10556D003D3D3D3D0A002562327809000A00253196
:10557D006278202531627820636825316278206356
:10558D00682531627820636825316278206368254B
:10559D003162782000656E726563616C6C00656EBA
:1055AD00667265657A6500656E686D6972726F7297
:1055BD0000656E766D6972726F7200656E656E68EC
:1055CD00616E636500656E626C616E6B00656E6227
:1055DD006F756E6400656E626C696E6B00646973E5
:1055ED00726563616C6C00646973667265657A657A
:1055FD0000646973686D6972726F720064697376A5
:10560D006D6972726F7200646973656E68616E6345
:10561D006500646973626C616E6B00646973626FBF
:10562D00756E6400646973626C696E6B003D3D3D1F
:10563D003D3D20466F726D6174203A206368303DA8
:10564D005B2562785D206368313D5B2562785D2066
:10565D006368323D5B2562785D206368333D5B2571
:10566D0062785D203D3D3D3D3D0A00256278202557
:10567D0062782063682562783A2562782063682510
:10568D0062783A2562782063682562783A256278D7
:10569D002063682562783A256278200033340062F1
:1056AD007573770079766D6978006873636F6D0037
:0E56BD006D6F646500370038000102040810AC
:046F62004103820065
:10592E00A3F0A3E4F0A37400F0A37408F0A3E4F0D2
:10593E00A37400F0A3740DF0A3E4F0A37400F0A31D
:10594E007409F0A3E4F0A37400F0A3740EF0A3E4C2
:10595E00F0A37400F0740AA3F0A3E4F0A322A3F062
:10596E00A3E4F0A37400F0A37412F0A3E4F0A37404
:10597E0000F0A37417F0A3E4F0A37400F0A3741363
:10598E00F0A3E4F0A37400F0A37418F0A3E4F0A362
:10599E007400F07414A3F0A3E4F0A322A3F0A3E424
:1059AE00F0A37400F0A37439F0A3E4F0A37400F034
:1059BE00A3743DF0A3E4F0A37400F0743AA3F0A333
:1059CE00E4F0A322A3F090039DE0FBA3E0FAA3E092
:1059DE00F9229001E074FFF0A37454F074AFA3F0B9
:1059EE00A3E4F0A3227400F0A3740FF0A3E4F0A3D9
:1059FE007400F0740BA3F0A3E4F0A3227400F0A3E0
:105A0E007419F0A3E4F0A37400F07415A3F0A3E4EA
:105A1E00F0A3227400F0A3743EF0A3E4F0A374008C
:105A2E00F0743BA3F0A3E4F0A3229001E074FFF026
:105A3E00A37454F074BAA3F0A3E4F0A3229001E08F
:105A4E0074FFF0A37455F0744AA3F0A3E4F0A322FC
:105A5E007400F07408A3F0A3E4F0A3227400F074B1
:105A6E0012A3F0A3E4F0A3229001E074FFF0A322AE
:105A7E00EBF0A3EAF0A3E9F09001E07401F0A322A9
:105A8E00A3F0A37401F0A37403F0746DA3F0A374D8
:105A9E0001F0A322A3F0A3E4F0A322A3F0A3E4F069
:105AAE00A322A3F0A3E4F0A322A3F0A3E4F0A32285
:105ABE00A3F0A3E4F0A322FFE02476F582E43403FE
:105ACE00F583EFF022E0FF9001E17401F0A374037F
:105ADE00F0A37472F07B017A03796D22A3F0A3E434
:105AEE00F0A322A3F0A3E4F0A322EBF0A3EAF0A329
:105AFE00E9F022900001E475F0010227A47BFF7A01
:105B0E00547959900325F022A3F0A3E4F0A322E0E8
:105B1E005401FB7D20222533F533A3E0540322E507
:105B2E00099056C693FFE508932F2212296F02267D
:0F5B3E008EA3F0A3E4F0A32212A7CB9001D522EF
:108D61009001DD125AF8A31259D7125B397002FF34
:108D7100229001E01259D7125B39B4200B9001E027
:108D81001259D7125B0180E99001E01259D71229DB
:108D91006FC003C002C0019001DD1259D712298FA3
:108DA10080239001E01259D7125B39FEB42010E400
:108DB1001226D49001E01259D7125B017F0122EEF5
:108DC10070037F01229001E01259D7125B0180D21A
:069B9A009001DD125AF8F3
:109BA000E4F530F5319001DD1259D712268E60228E
:109BB0009001DDA3E475F001122763A9F0FA1226E3
:109BC0008EFF3395E0FEEF2531F531EE3530F5307F
:069BD00080D3AE30AF317E
:019BD600226C
:01A7CB00226B
:1096FC00E4F53390036DE05403125B2425E025E080
:10970C00125B24C454F0125B24C4333354C025338D
:10971C00F53390036CE0B5070D900371E0B533069B
:10972C00E490037CF02290037C7401F0900371E5CB
:07973C0033F090036CEFF025
:019743002203
:10978C00125A767454F0744D1259657400F0744C7E
:10979C001259A37400F0744D1259CB7400F0A374D9
:1097AC004EF0124B9CAB4DAD4CE4FF1289849003F0
:1097BC0027EFF0E54C125B0BA3E54DF012481905B1
:0697CC004DE54DB54EDF36
:0197D2002274
:109D3400125A767454F074701259EC7400F074551D
:109D4400125A037400F0A37456F0124B9CAB56AD38
:109D540055E4FF128984900327EFF0E555125B0B5D
:079D6400A3E556F0024819C7
:109EE500125A767454F0744D125A1A7400F0744F65
:109EF500125A317400F07450125A447400F0A3746D
:109F050051F0124B9C9001F5E551F0AB50AD4FE48B
:049F1500FF0290A80F
:1094A500E4F530F531F532F533C003C002125A76D2
:1094B5007454F07478125A577400F07430125A6369
:1094C5007400F07431125A6F7400F07432125AA29B
:1094D5007400F0A37433F0D002D003124B9C9001BA
:0D94E500F5E533F0AB32AD31E4FF0290A8A5
:10974400E4F51CF51DF51EF51F125A767454F074D9
:1097540089125AA27400F0741C125AA97400F0748D
:109764001D125AA97400F0A3741EF0124B9CAB1E78
:10977400AD1DE4FF1289848F1F7BFF7A5479999081
:089784000325E51FF00248195E
:036B1A0090039D48
:106B1D00125A7E7403F0A3749DF07B017A0379A061
:106B2D00128D61E4FB7D1FFF129E0F9003A0125981
:106B3D00D7127F5CEE6003026C42EF24FE603614C8
:106B4D00605A146078147003026BEF240460030222
:106B5D006C421259E0125A5E7400F0740D1259D243
:106B6D00124B9CAB0DAD08E4FF128CF0E50890566E
:106B7D00C693026C3A125A38125A5E7400F0740DB4
:106B8D00125AB07400F07409125AB07400F0740EF9
:106B9D001259D2126C43125B2D026C3A125A767452
:106BAD0054F074CF12592E7400F0A3740F1259D3F0
:106BBD00126C43AB0FAD0A126C59026C3A125A7635
:106BCD007454F074EE12592E1259F37400F0A3742C
:106BDD00101259D3126C6F126C59FFE50B932F02E3
:106BED006C3A125A767455F0A3741712592F125924
:106BFD00F37400F07410125AB77400F0740C125A3A
:106C0D00B77400F0A374111259D3126C6FE4FF1214
:106C1D008CF0AB11AD0CE4FF128CF0125B2DFFE587
:106C2D000A932FFFE50B932FFFE50C932FFD7B01AF
:056C3D00E4FF129E0FB0
:106C420022124B9CAB0DAD08E4FF128CF0AB0EADE3
:106C520009E4FF128CF022E4FF128CF0E509905651
:106C6200C693FFE508932FFFE50A932F22124B9C50
:106C7200AB0DAD08E4FF128CF0AB0EAD09E4FF12D0
:106C82008CF0AB0FAD0AE4FF128CF0AB10AD0B220F
:0FA67900E4FB7D1FFF129E0F7DFFE4FF029FB3E6
:03720B009003A34A
:10720E00125A7E7403F0A374A3F07B017A0379A65D
:10721E00128D619003A61259D7127F5CEE600302A5
:10722E007319EF24FE6030146056146071147003ED
:10723E000272D0240460030273191259E0125A6AC2
:10724E007400F0A37417F09003A31259D7124B9C3D
:10725E00AB17AD12027314125A38125A6A7400F038
:10726E007417125ABE7400F07413125ABE7400F0E2
:10727E00A37418F09003A31259D712733402731427
:10728E00125A767454F074CF12596C7400F0A374C1
:10729E0019F09003A31259D712731A027314125ACB
:1072AE00767454F074EE12596C125A0A7400F0A3EC
:1072BE00741AF09003A31259D712731A127345025F
:1072CE007314125A767455F0A3741712596D125A1C
:1072DE000A7400F0741A125AEA7400F07416125AF4
:1072EE00EA7400F0A3741BF09003A31259D7127323
:1072FE0034E4FF128DD1AB19AD14127345E4FF12B5
:0B730E008DD1AB1BAD16E4FF128DD13A
:1073190022124B9CAB17AD12E4FF128DD1AB18AD05
:1073290013E4FF128DD1AB19AD1422124B9CAB178C
:10733900AD12E4FF128DD1AB18AD1322E4FF128D0B
:06734900D1AB1AAD1522C4
:10A59900125A4B7400F0A37463F0124B9CAD63E440
:04A5A900FF029FB35B
:10953E00E4F5587BFF7A55794F900325E558F012E4
:10954E004819E4F557AB57AD58E4FF1289849003E0
:10955E0025EFF07BFF7A5579731248190557E557B9
:10956E00540F70097BFF7A557979124819E55770B7
:0A957E00D40558E558C3940340B922
:0195880022C0
:1093AD00C003C002C001125A767455F0747B125A74
:1093BD00F17400F07459125AF17400F0745A125A83
:1093CD008E7403F0746E125A9A7403F0A3746F12B4
:1093DD005A9B7403F0A37470F0D001D002D0031225
:1093ED004B9CE559C454F0FFE55A540F2FF5591213
:0693FD005AE3FF0266596D
:065B4D009003A9125AF8B2
:105B5300E4F52E7B019001E004F0A37403F0A37439
:105B6300A9F07A0379AC128D619003AC1259D71264
:105B73007F5C8F2F125A86125D459003AC1259D762
:105B8300129B9A8E268F277A5579A2125D22B5270A
:105B93000AEEB52606752880025C227A5579AB1287
:105BA3005D22B5270AEEB52606752840025C227AE7
:105BB3005579B4125D29B52709EEB5260575282058
:105BC300805D7A5579BE125D29B52709EEB52605A4
:105BD300752810804A7A5579C8125D30B52709EEC9
:105BE300B5260575280880377A5579D2125D30B508
:105BF3002709EEB5260575280480247A5579DA122B
:105C03005D37B52709EEB5260575280280117A554B
:105C130079E2125D37B5270DEEB5260975280175B2
:105C23002901025CCC7A5579EA125D3EB5270AEE6A
:105C3300B52606752880025CAF7A5579F4125D3E6D
:105C4300B52709EEB5260575284080607A5579FE9B
:105C5300125D56B52709EEB52605752820804D7AC5
:105C6300567909125D56B52709EEB5260575281034
:105C7300803A7A567914125D5DB52709EEB526058B
:105C830075280880277A56791F125D5DB52709EEBE
:105C9300B5260575280480147BFF7A567928129B54
:105CA3009AEFB5270CEEB52608752802E4F529808E
:105CB300187BFF7A567931129B9AEF65277003EEB2
:105CC3006526705A752801F529125A86125D45EF2B
:105CD30060339003AC1259D712268EB477EB900041
:105CE300011226A7B469E29000021226A7B46ED966
:105CF300E92403F9E43AFA127F5C742A252EF8A604
:105D030007052E80C4E52E60152429F8E6FFC39508
:0E5D13002F5007AB29AD28129EB0152E80E749
:105D2100227BFF129B9AEF227BFF129B9AEF227B31
:105D3100FF129B9AEF227BFF129B9AEF227BFF12AD
:105D41009B9AEF227403F0A374A9F07B017A037983
:105D5100AC128D61227BFF129B9AEF227BFF129B7B
:035D61009AEF2294
:10A62300125A4B7400F0A37430F0124B9CAF3002FB
:02A63300A5ADD3
:109C4F00E4FF129589C0077F01129589C0077F0233
:109C5F00129589C0077F03129589900328EFF09022
:109C6F000327D0E0F0900326D0E0F0900325D0E05A
:0A9C7F00F07BFF7A56793A0248198B
:037930009003AF12
:10793300125A7E7403F0A374AFF07B017A0379B219
:10794300128D619003B21259D7127F5CEE6003026D
:107953007A22EF24FE602B146053146079240360B1
:1079630003027A221259E07400F07439125B167420
:1079730000F0A3743DF09003AF1259D7127A41027D
:107983007A1D125A767454F074BA1259AA7400F01C
:10799300A3743EF09003AF1259D7127A41E4FF1259
:1079A3009FE3E53EC454F0FBAD3A027A1D125A76CA
:1079B3007454F074CF1259AA125A217400F0A374AC
:1079C3003FF09003AF1259D7127A23E53FC454F026
:1079D300FBAD3B027A1D125A767454F0A374EE1277
:1079E30059AB125A217400F0743F125B167400F005
:1079F300743C125B3F7400F0A37440F09003AF1229
:107A030059D7127A23E53FC454F0FBAD3BE4FF1290
:0F7A13009FE3E540C454F0FBAD3CE4FF129FE35A
:107A220022124B9CE53DC454F0FBAD39E4FF129F9A
:107A3200E3E53EC454F0FBAD3AE4FF129FE32212A9
:0B7A42004B9CE53DC454F0FBAD392225
:0391D3009003B551
:1091D600125A7E1292201259D7127F5C8F5B125A56
:1091E600861292201259D7127F5C8F5C7F0412A7D9
:1091F600C47F0312A7C77F0512A4149003B5E0F934
:10920600A3E0FAA3E0900399C9125AF9AB5CAD5BEF
:0A9216007F011292F67F05029DD938
:109220007403F0A374B5F07B017A0379B8128D61F1
:049230009003B822CD
:1097D300755E01E4F55D7472255DF582E43403F58D
:1097E30083E030E415746D255DF582E43403F5837D
:1097F300E0FDE4FF129FB3E4F55E055DE55DC39410
:109803000440D3E55E600FE4FB7D1FFF129E0F7DD6
:06981300FFE4FF129FB309
:01981900222C
:1070BD00C003C002C001125A767456F07478125B88
:1070CD003F7400F0A37431F0A3E4F0A37400F074E6
:1070DD0032125A8E7403F0A37472125A9B7403F019
:1070ED00A3746E125A9B7403F0A37473125A9B749B
:1070FD0003F0A3746F125A9B7403F0A37474125AA5
:10710D009B7403F0A37470125A9B7403F0A37475EF
:10711D00F0D001D002D003124B9CE531C454F0FFE6
:10712D00900369E0FEC433333354802FFFE53254AE
:10713D000F2F90037BF0900372E090036D125AC5F0
:10714D00900373E090036E125AC5900374E0FF90A4
:10715D00036F125AC6900375E0FF900370125AC662
:10716D00900376125B1DE4FF129C13900377125B64
:10717D001D7F01129C13900378125B1D7F02129CE0
:10718D0013900379125B1D7F03129C137B017A030D
:10719D00797612734F90037B125AD3125155900387
:1071AD007BE0FF125AE3126659E4F5307472253014
:1071BD00F582E43403F583125B1DAF30129EB005EA
:1071CD0030E530C3940440E4E4F541F542F54375F0
:1071DD0044057F0112A75190037BE0FF1296FC7FBF
:1071ED0008129F19E4FF12A4C6129A097B017A03B3
:0D71FD00797212440090037BE0900382F051
:01720A002261
:108EA600E4FF129589EFB40202C322900369E0B58C
:108EB6000702D322900369EFF0E0C43333335480C2
:108EC600FF90036CE0547F4FF07F01129DD9900311
:108ED60069E0FF12910C7B017A03797612734F9049
:108EE600036C125AD312515590036CE0FF125AE3E9
:108EF600126659E4FF12A4C6129A097B017A037915
:088F06007212440012A342D3D1
:018F0E002240
:10A55800125A767455F0A3744A125A9B7403F0A3E6
:06A56800746AF0024B9C36
:050026007F01029DD9DD
:10A5FD009056A9E493FF1200039056A9A3E493FF8C
:03A60D0002000345
:037E6D009001D5AC
:107E7000125A7E7401F0A374D5F07B017A0179DA8D
:107E8000128D619001DA1259D7129B9A9001D8EEA7
:107E9000F0A3EFF07A5679AC127F40B50611A3E05B
:107EA000B5070C9001D51259D71294A5027F3D7ADF
:107EB0005679B1127F40B50611A3E0B5070C125BED
:107EC000461259D712A623027F3D7A5679B7127F00
:107ED0004AE0B50618A3E0B50713125B461259D75E
:107EE0001270BD12A342E4FF12A75180507A567956
:107EF000BD127F4AE0B50610A3E0B5070B125B4642
:107F00001259D712A55880357A5679C2127F53E09C
:107F1000B5060FA3E0B5070A900275E090028AF05B
:107F2000801B7A5679C4127F53E0B50610A3E0B5E2
:0F7F3000070B129F81900275E0FF12A06C7F017A
:107F3F00227BFF129B9A9001D8E0227BFF129B9A23
:0D7F4F009001D8227BFF129B9A9001D8224E
:105F4B000D0A0050435400FFC8966432006275730B
:105F5B007720302031204131203131627573772029
:105F6B0030203120413220443779766D69782034E6
:105F7B00206D6F64652030206873636F6D20312056
:105F8B0031206368303A3130206368313A30302049
:105F9B006368323A3030206368333A3030206873AC
:105FAB00636F6D20312031206368323A31302063CA
:105FBB0068313A3030206368303A303020636833D0
:105FCB003A3030206873636F6D2031203120636865
:105FDB00313A3130206368303A3030206368323ADE
:105FEB003030206368333A3030206873636F6D2034
:105FFB00322032206368323A3130206368303A31D4
:10600B0030206368313A3030206368333A303020C7
:10601B006873636F6D20322032206368303A313001
:10602B00206368323A3130206368313A3030206374
:10603B0068333A3030206873636F6D203220322022
:10604B006368313A3130206368303A31302063680D
:10605B00323A3030206368333A3030206873636FE4
:10606B006D20322032206368303A31302063683142
:10607B003A3130206368323A3030206368333A303B
:10608B0030206873636F6D20322032206368313AA1
:10609B003130206368323A3130206368303A303027
:1060AB00206368333A3030206873636F6D20322081
:1060BB0032206368323A3130206368313A31302014
:1060CB006368323A3030206368333A30302068737B
:1060DB00636F6D20332033206368303A3130206397
:1060EB0068313A3130206368323A3130206368339B
:1060FB003A3030206873636F6D2031203120636834
:10610B00333A3030206368313A3030206368323AAA
:0A611B003030206368303A30302045
:106F6600C1284403180000000041031C0041031D12
:106F760000410317014103160241031401410315A1
:106F86000041030B0042030C000042030E000042C6
:106F96000310000042031200004102DF0041031EFD
:056FA600004102DE00C5
:1081D5007D017BFF7E007F26022668900006E0FA7F
:1081E500A3E0FB7C00FFAE020226F874DF2FF582C8
:1081F500E43401F583E02278E07C027D017B0122F5
:10820500900273E0240BF582E43402F583E530F047
:10821500227D017BFF7E000226687C00AF03AE0253
:108225001226F8900006ECF0A3EDF022E4F0A3F09E
:10823500A3F0A322E4FDFC900009E0F8A3E0F9A374
:10824500E0FAA3E0FBC302290E7D017BFF7E007FE0
:108255000E022668E4FCFD900009022932740B2FFA
:10826500F582E43402F583E0FF22900243E09003B7
:10827500172234FFFE7C007D060226F8900273E08B
:0A82850004F0227B017A0279E02266
:1080370012A659EF640160030280FF43E11012A406
:10804700E08F30E530B40218900241E070129002E0
:108057007304F090020BE530F09002417401F022B6
:10806700E5306403702D90020CE0FF64526004EF6A
:10807700B453209002DEE0701A900273E0FFD394AD
:108087000350109002DE7401F0740B2F12820B1252
:10809700828122E530B40318900245E07012128203
:1080A700051282819002457401F0E49002DEF0220D
:1080B700900245E0640170311282057B017A0279F2
:1080C7000B7D04125D64EF602C90030A7401F0903D
:1080D700020CE09002E0F0E4A3F090020DE09002C1
:1080E70075F09003097402F022128205128281E072
:0F80F700D39408400A02A31CE4900312F0A3F0F4
:018106002256
:09A748007BFF7A5F794B02A27AD3
:0B9E7B009003D6EBF0A3EAF0A3E9F09F
:109E86009003D6E0FBA3E0FAA3E0F912268E601950
:109E96009003D6A3E475F001122763A9F0FA1226FF
:099EA6008EF564FF12000380D761
:019EAF002290
:10A31C00E4900241F0900245F0900273F090020B31
:10A32C00128232128232F0A3F0A3F0900309F0A350
:06A33C00F09002E0F022A7
:09A75100EF6003C20122D20122D3
:0CA70700C200C201C227E49003EDF02262
:10A099009003D9EBF0A3EAF0A3E9F020001D9003A7
:10A0A900D9E0FBA3E0FAA3E0F8AC02AD037BFF7AA9
:0CA0B9005F794E122BAFEF7002D2002234
:089455009001D5EEF0A3EFF049
:10945D009001D5E07002A3E0603DE49001D7F0A348
:10946D00F09001D7E0FEA3E0FFE4FCFD7B1BFAF9D1
:10947D00F8D312290E40109001D8E004F070E2905C
:10948D0001D7E004F080DA9001D6E024FFF09001DE
:07949D00D5E034FFF080B9B7
:0194A40022A5
:1062FE0090000012823174C8F0A37464F0E4A3F02D
:10630E001295D412A68812A70712A31CE4FF12A698
:10631E0069E4FF128A107F4D124E3575470075489D
:10632E0028754901754AE090030C7401F0A374E0DE
:10633E00F0754B00754C04A37407F0A304F07F981E
:10634E0012A7B2EF5410FFC4540F900005F0128044
:10635E003790030AE0B40106128288127E6D900314
:10636E000AE0B4010312A31C302707128EA65002B6
:10637E00C22712A659EF6009900003E0754300F59D
:10638E0044E54464014543700DF543F54490000423
:10639E00E0754100F542E5426401454170279002E7
:1063AE0041E0702112961E12781212981A129170F4
:1063BE0090028AE0FF900288E06F6003124E3575FE
:1063CE004100754214E54C6401454B701290024D2C
:1063DE00E0C394014009754B00754C041286A390DE
:1063EE000315E07041E54864014547703990024D50
:1063FE00E0703390030BE0FF74017E00A807088065
:10640E0005C333CE33CED8F9FF128C7D90030BE04B
:10641E0004F0754700754828E0C3940C4002E4F080
:10642E009003157401F090030CE07004A3E0640176
:10643E00700F90022DF0A3F090030C04F0A374E003
:10644E00F0129F4D90030EE07004A3E06401703FC4
:10645E00900005E0FF1296B2E490030EF0A3F080D8
:10646E002E9002DFE0B4012CC3900311E09414903F
:10647E000310E094004018900246E0FF900280E086
:10648E00FD129295E49002DFF0900312F0A3F04318
:0E649E00E11080CDE4900310F0A3F002635CE7
:1095D400E4F5B8F5A8F58775E127F5D0758922F586
:1095E4008812A54212A75A12A470E4F58EF5A2D2ED
:1095F40099D2AF00F593F5944391035392FCF595FA
:10960400F596F5B1F5B2F5B375B404C2E9C292C2E8
:0A96140093C294C295C296C2972239
:088107009001DDEFF0A3EDF0A3
:10810F0078DF7C017A5F79527F061282169001DD4B
:10811F00E014603014604714605E146075147003CF
:10812F000281BB240560030281D4E4F5EA9001DEED
:10813F00E0FF7004F5DA800375DA421281F0F5FA88
:10814F00E4F5F222E4F5EB9001DEE0FF7004F5DBDD
:10815F00800375DB421281F0F5FBE4F5F322E4F5C1
:10816F00EC9001DEE0FF7004F5DC800375DC421259
:10817F0081F0F5FCE4F5F422E4F5ED9001DEE0FF8B
:10818F007004F5DD800375DD421281F0F5FDE4F535
:10819F00F522E4F5EE9001DEE0FF7004F5DE8003DA
:1081AF0075DE421281F0F5FEE4F5F622E4F5EF906C
:1081BF0001DEE0FF7004F5DF800375DF421281F00E
:0581CF00F5FFE4F5F7E7
:0181D4002288
:0FA68800E4F5E9F5F975D90475D84043A68022A9
:054E3500900006EFF003
:104E3A0078077C007A5F795812824E78157C007A5E
:104E4A005F796612824E78237C007D017BFF7A5F50
:104E5A0079747E007F08122668782B7C007A5F7945
:104E6A007C7F0712821678327C007A5F79831281FE
:104E7A00D578587C007A5F79A91281D5787E7C0032
:104E8A007D017BFF7A5F79CF1281D978A47C007D7E
:104E9A00017BFF7A5F79F51281D978CA7C007D019E
:104EAA007BFF7A60791B1281D978F07C007D017BC7
:104EBA00FF7A6079411281D978167C017D017BFFE6
:104ECA007A6079671281D9783C7C017D017BFF7A0F
:104EDA0060798D1281D978627C017D017BFF7A60CD
:104EEA0079B31281D978887C017D017BFF7A607958
:104EFA00D91281D978AE7C017D017BFF7A6079FF76
:104F0A001281D9E49001D4F0900006E0FE24B6FFA5
:104F1A00C3940A400674FC2FFF8005E4900276F0E1
:104F2A00900288EEF0EFB408005062904F3CF828E7
:104F3A002873024F54024F59024F60024F66024FC4
:104F4A006D024F7B024F87024F8F90031D8041E411
:104F5A0090031DF0803DE49002448019900244744D
:104F6A000180129002437401F09003177404F080D8
:104F7A0022E4900243F090031704F0801690027620
:104F8A007414F0800E9002767441F0800690031734
:104F9A007401F0900276E0FFC39401400890031C6C
:104FAA00EFF002503090031DE06401704990024412
:104FBA00E0601B12826FB4010B7402F09003167446
:104FCA0004F080237402F090031614F08019128200
:104FDA006FB4010B7404F09003167402F080087425
:104FEA0001F090031604F0900317E0C454F0FF9008
:104FFA000316E04F802C900244E06005900317806E
:10500A000C12826FB4010B7404F09003167402F050
:10501A0080087401F090031604F0900317E0FFC4AF
:10502A0054F090031CF0900314E06025129AD712F2
:10503A0081FC7A00790712513C7A00791512513CA9
:10504A007A00792B7E007F07122668128288127EE8
:10505A006D90031CE01229DE50811050A71250AB4C
:10506A001450832050A92150BD24508C4050B44183
:10507A0050A742000050CF80091281FC7A0079586B
:10508A0080071281FC7A0079321281D99001F57475
:10509A0003F07B0F7D01E4FF1290A88032801D800F
:1050AA00121281FC7A0079F080221281FC7A01794D
:1050BA001680191281FC7A0079CA80101281FC7A52
:1050CA000079A480071281FC7A0079321281D9E42E
:1050DA00900314F0128288127E6D90031CE012294C
:1050EA00DE510A10511412511C14510C205118216E
:1050FA00512724511040512041512B420000513672
:10510A008000E4FF8012E4FF80197F01800A7F019A
:10511A0080067F0180027F01128C0A800F7F018046
:10512A00027F01128C0A9001D47401F09001D4E03C
:01513A00FF75
:10513B00227E007F0E1226687B017A0279E0127EB6
:0A514B006D78E07C027D017B0122FB
:02A06C00AB0740
:10A06E00E4FFFEEBC3943D4021EBD39461501BEB18
:10A07E0024C3FFEE128277AA07EB24C3FFE41282F9
:0AA08E0077AE05AF021281077F01D3
:01A0980022A5
:10961E00E4FBFA900006F0FD7F90129DA2EEC4F8D6
:10962E0054F0C868FEEFC4540F48FFEEC4F854F06F
:10963E00C868FAEFC4540F48FB7C007D0A1281EA19
:10964E00EF2430900220F0AE02AF037C007D0A12B0
:09965E0026F8ED2430900225F0FD
:0196670022E0
:1078120090000612823112293E00000000E4FF129D
:10782200A3F4900006EEF0A3EFF0900006E0FEA3B2
:10783200E0FF1282597F6E7E021282394042E47F5B
:10784200A57E03FDFC900009E0F8A3A3A3E0D312F8
:10785200290E9000095020E0F8A3A3A3C374A59BAE
:10786200FF74039AFEE499FDE498FCE47B707A01CC
:10787200F9F81227F1802B12293E00030AE8803121
:107882007FF37E01128239401E900006E0FEA3E0E3
:10789200FF746E9FFF74029EFE7C007DD21226E66C
:1078A200E4FD12825C800A90000912293E0000F277
:1078B20094E47B64FAF9F8900009E0FCA3E0FDA3EC
:1078C200E0FEA3E0FF12287C900006EEF0FAA3EFA0
:1078D200F0FB128259D3EB940FEA9427400A9000EE
:1078E200067427F0A3740FF0900006E0FAA3E0FB01
:1078F2007C037DE81281EAEF243090021AF07C03C7
:107902007DE81282217D641281E0EF243090021919
:10791200F07D6412821F7D0A1281E0EF2430900212
:0D79220018F07D0A12821F2430900217F029
:01792F002235
:108FDD0090020B7402F0A37432F0A37450F0A374DA
:108FED0030F0A37439F0A314F0A37420F0A374032C
:108FFD00F0E4A3F0900007F0900007E0FFD3940792
:10900D005016900213E0FE128262EE6F900213F082
:10901D00900007E004F080E0E4900007F090000776
:10902D00E0FFD39408500E128262120003900007E5
:05903D00E004F080E8F2
:01904200220B
:10002E001010FFFFFFFFFFFFFFFFFFFFFFFFFFFFB0
:10003E00FFFFFFFFFFFFFFFFFFFFFFFFFFFFFFFFC2
:10004E00FFFFFFFFFFFFFFFFFFFFFFFFFFFFFFFFB2
:10005E00FFFFFFFFFFFFFFFFFFFFFFFFFFFFFFFFA2
:10006E00FFFFFFFFFFFFFFFFFFFFFFFFFFFFFFFF92
:10007E00FFFFFFFFFFFFFFFFFFFFFFFFFFFFFFFF82
:10008E00FFFFFFFFFFFFFFFFFFFFFFFFFFFFFFFF72
:10009E00FFFFFFFFFFFFFFFFFFFFFFFFFFFFFFFF62
:1000AE00FFFFFFFFFFFFFFFFFFFFFFFFFFFFFFFF52
:1000BE00FFFFFFFFFFFFFFFFFFFFFFFFFFFFFFFF42
:1000CE00FFFFFFFFFFFFFFFFFFFFFFFFFFFFFFFF32
:1000DE00FFFFFFFFFFFFFFFFFFFFFFFFFFFFFFFF22
:1000EE00FFFFFFFFFFFFFFFFFFFFFFFFFFFFFFFF12
:1000FE00FFFFFFFFFFFFFFFFFFFFFFFFFFFFFFFF02
:10010E00FFFFFFFFFFFFFFFFFFFFFFFFFFFFFFFFF1
:10011E00FFFFFFFFFFFFFFFFFFFFFFFFFFFFFFFFE1
:10012E00FFFF1010FFFFFFFFFFFFFFFFFFFFFFFFAF
:10013E00FFFFFFFFFFFFFFFFFFFFFFFFFFFFFFFFC1
:10014E00FFFFFFFFFFFFFFFFFFFFFFFFFFFFFFFFB1
:10015E00FFFFFFFFFFFFFFFFFFFFFFFFFFFFFFFFA1
:10016E00FFFFFFFFFFFFFFFFFFFFFFFFFFFFFFFF91
:10017E00FFFFFFFFFFFFFFFFFFFFFFFFFFFFFFFF81
:10018E00FFFFFFFFFFFFFFFFFFFFFFFFFFFFFFFF71
:10019E00FFFFFFFFFFFFFFFFFFFFFFFFFFFFFFFF61
:1001AE00FFFFFFFFFFFFFFFFFFFFFFFFFFFFFFFF51
:1001BE00FFFFFFFFFFFFFFFFFFFFFFFFFFFFFFFF41
:1001CE00FFFFFFFFFFFFFFFFFFFFFFFFFFFFFFFF31
:1001DE00FFFFFFFFFFFFFFFFFFFFFFFFFFFFFFFF21
:1001EE00FFFFFFFFFFFFFFFFFFFFFFFFFFFFFFFF11
:1001FE00FFFFFFFFFFFFFFFFFFFFFFFFFFFFFFFF01
:10020E00FFFFFFFFFFFFFFFFFFFFFFFFFFFFFFFFF0
:10021E00FFFFFFFFFFFFFFFFFFFFFFFFFFFFFFFFE0
:10022E00FFFFFFFF1010FFFFFFFFFFFFFFFFFFFFAE
:10023E00FFFFFFFFFFFFFFFFFFFFFFFFFFFFFFFFC0
:10024E00FFFFFFFFFFFFFFFFFFFFFFFFFFFFFFFFB0
:10025E00FFFFFFFFFFFFFFFFFFFFFFFFFFFFFFFFA0
:10026E00FFFFFFFFFFFFFFFFFFFFFFFFFFFFFFFF90
:10027E00FFFFFFFFFFFFFFFFFFFFFFFFFFFFFFFF80
:10028E00FFFFFFFFFFFFFFFFFFFFFFFFFFFFFFFF70
:10029E00FFFFFFFFFFFFFFFFFFFFFFFFFFFFFFFF60
:1002AE00FFFFFFFFFFFFFFFFFFFFFFFFFFFFFFFF50
:1002BE00FFFFFFFFFFFFFFFFFFFFFFFFFFFFFFFF40
:1002CE00FFFFFFFFFFFFFFFFFFFFFFFFFFFFFFFF30
:1002DE00FFFFFFFFFFFFFFFFFFFFFFFFFFFFFFFF20
:1002EE00FFFFFFFFFFFFFFFFFFFFFFFFFFFFFFFF10
:1002FE00FFFFFFFFFFFFFFFFFFFFFFFFFFFFFFFF00
:10030E00FFFFFFFFFFFFFFFFFFFFFFFFFFFFFFFFEF
:10031E00FFFFFFFFFFFFFFFFFFFFFFFFFFFFFFFFDF
:10032E00FFFFFFFFFFFF1010FFFFFFFFFFFFFFFFAD
:10033E00FFFFFFFFFFFFFFFFFFFFFFFFFFFFFFFFBF
:10034E00FFFFFFFFFFFFFFFFFFFFFFFFFFFFFFFFAF
:10035E00FFFFFFFFFFFFFFFFFFFFFFFFFFFFFFFF9F
:10036E00FFFFFFFFFFFFFFFFFFFFFFFFFFFFFFFF8F
:10037E00FFFFFFFFFFFFFFFFFFFFFFFFFFFFFFFF7F
:10038E00FFFFFFFFFFFFFFFFFFFFFFFFFFFFFFFF6F
:10039E00FFFFFFFFFFFFFFFFFFFFFFFFFFFFFFFF5F
:1003AE00FFFFFFFFFFFFFFFFFFFFFFFFFFFFFFFF4F
:1003BE00FFFFFFFFFFFFFFFFFFFFFFFFFFFFFFFF3F
:1003CE00FFFFFFFFFFFFFFFFFFFFFFFFFFFFFFFF2F
:1003DE00FFFFFFFFFFFFFFFFFFFFFFFFFFFFFFFF1F
:1003EE00FFFFFFFFFFFFFFFFFFFFFFFFFFFFFFFF0F
:1003FE00FFFFFFFFFFFFFFFFFFFFFFFFFFFFFFFFFF
:10040E00FFFFFFFFFFFFFFFFFFFFFFFFFFFFFFFFEE
:10041E00FFFFFFFFFFFFFFFFFFFFFFFFFFFFFFFFDE
:10042E00FFFFFFFFFFFFFFFF1010FFFFFFFFFFFFAC
:10043E00FFFFFFFFFFFFFFFFFFFFFFFFFFFFFFFFBE
:10044E00FFFFFFFFFFFFFFFFFFFFFFFFFFFFFFFFAE
:10045E00FFFFFFFFFFFFFFFFFFFFFFFFFFFFFFFF9E
:10046E00FFFFFFFFFFFFFFFFFFFFFFFFFFFFFFFF8E
:10047E00FFFFFFFFFFFFFFFFFFFFFFFFFFFFFFFF7E
:10048E00FFFFFFFFFFFFFFFFFFFFFFFFFFFFFFFF6E
:10049E00FFFFFFFFFFFFFFFFFFFFFFFFFFFFFFFF5E
:1004AE00FFFFFFFFFFFFFFFFFFFFFFFFFFFFFFFF4E
:1004BE00FFFFFFFFFFFFFFFFFFFFFFFFFFFFFFFF3E
:1004CE00FFFFFFFFFFFFFFFFFFFFFFFFFFFFFFFF2E
:1004DE00FFFFFFFFFFFFFFFFFFFFFFFFFFFFFFFF1E
:1004EE00FFFFFFFFFFFFFFFFFFFFFFFFFFFFFFFF0E
:1004FE00FFFFFFFFFFFFFFFFFFFFFFFFFFFFFFFFFE
:10050E00FFFFFFFFFFFFFFFFFFFFFFFFFFFFFFFFED
:10051E00FFFFFFFFFFFFFFFFFFFFFFFFFFFFFFFFDD
:10052E00FFFFFFFFFFFFFFFFFFFF1010FFFFFFFFAB
:10053E00FFFF00000000FFFFFFFFFFFFFFFFFFFFB9
:10054E00FF000000000000FFFFFFFFFFFFFFFFFFA7
:10055E000000020202020000FFFFFFFFFFFFFFFF8D
:10056E000000020202020000FFFFFFFFFFFFFF007C
:10057E00000202000002020000FFFFFFFFFFFF006B
:10058E00000202000002020000FFFFFFFFFF00005A
:10059E0002020000000002020000FFFFFFFF000049
:1005AE00020200FFFF0002020000FFFFFF00000238
:1005BE00020000FFFF000002020000FFFF00000229
:1005CE000200000000000002020000FF0000020214
:1005DE0002020202020202020202000000000202F5
:1005EE0002020202020202020202000000000202E5
:1005FE0000000000000000000202000000000202E5
:10060E000000FFFFFFFF00000202000000000202D8
:10061E000000FFFFFFFF00000202000000000000CC
:10062E000000FFFFFFFF00000000000010100000A0
:10063E00000000000000000000000000FFFF0002AC
:10064E0002020202020202020202000000FF000287
:10065E000202020202020202020202000000000076
:10066E000002020000000000020202020000FF0071
:10067E0000020200FFFFFF00000202020000FF0066
:10068E0000020200FFFFFF00000202020000FF0056
:10069E0000020200000000000202020000FFFF0044
:1006AE00000202020202020202020000FFFFFF002D
:1006BE00000202020202020202020000FFFFFF001D
:1006CE0000020200000000000202020000FFFF0014
:1006DE0000020200FFFFFF00000202020000FF0006
:1006EE0000020200FFFFFF000002020200000000F5
:1006FE0000020200000000000202020200000002DE
:10070E0002020202020202020202020000000002C3
:10071E0002020202020202020202000000FF0000B8
:10072E00000000000000000000000000FFFF10109D
:10073E00FFFFFF00000000000000000000FFFFFFB1
:10074E00FFFF00000202020202020202000000FF8E
:10075E00FF00000202020202020202020200000078
:10076E000000000202000000000000020202000071
:10077E0000000202020000FFFFFF00000202000064
:10078E00000002020000FFFFFFFFFF000202000058
:10079E00000002020000FFFFFFFFFFFF000000004D
:1007AE00000002020000FFFFFFFFFFFFFFFFFFFF41
:1007BE00000002020000FFFFFFFFFFFFFFFFFFFF31
:1007CE00000002020000FFFFFFFFFF00000000001C
:1007DE00000002020000FFFFFFFFFF000202000008
:1007EE0000000202000000FFFFFF000002020000F6
:1007FE0000000202020000000000000202020000DF
:10080E00FF000002020202020202020202000000C7
:10081E00FFFF00000202020202020202000000FFBD
:10082E00FFFFFF0000000000000000000000FFFFBF
:10083E001010000000000000000000000000FFFF8C
:10084E00FFFF00000202020202020202020000FF8B
:10085E00FFFF000002020202020202020202000078
:10086E00FFFF000002020000000000020202000072
:10087E00FFFF000002020000FFFF00000202000066
:10088E00FFFF000002020000FFFF00000202000056
:10089E00FFFF000002020000000000020202000042
:1008AE00FFFF00000202020202020202020000FF2B
:1008BE00FFFF00000202020202020202000000FF1D
:1008CE00FFFF000002020000020202000000FFFF14
:1008DE00FFFF000002020000000202020000FFFF04
:1008EE00FFFF00000202000000000202020000FFF3
:1008FE00FFFF000002020000FF00000202020000E3
:10090E00FFFF000002020000FFFF000002020200D3
:10091E0000FF000002020000FFFFFF0000020202C3
:10092E0000FF000000000000FFFFFFFF00000000BE
:10093E0000FF101000000000FFFFFFFFFFFFFFFF92
:10094E00000000000000000000FFFFFFFFFFFF009F
:10095E000000000000000C0C0000FFFFFFFF000075
:10096E000C0C000000000C0C0C0000000000000C31
:10097E000C0C000000000C0C0C0C000000000C0C09
:10098E000C0C000000000C0C0C0C0C0C0C0C0C0CC9
:10099E000C0C000000000C0C0C0C0C0C0C0C0C0CB9
:1009AE000C0C000000000C0C0C000C0C0C0C000CC1
:1009BE000C0C000000000C0C0C00000C0C00000CC9
:1009CE000C0C000000000C0C0C0000000000000CD1
:1009DE000C0C000000000C0C0C0000000000000CC1
:1009EE000C0C000000000C0C0C0000FFFF00000CB3
:1009FE000C0C000000000C0C0C0000FFFF00000CA3
:100A0E000C0C000000000C0C0C0000FFFF00000C92
:100A1E000C0C000000000C0C0C0000FFFF00000C82
:100A2E000C0C000000000000000000FFFF000000A2
:100A3E00000000001010FF00000000000000000089
:100A4E000000000000FFFF0000020202020202028C
:100A5E000202020000FFFF00000202020202020276
:100A6E000202020000FFFF00000000000000020270
:100A7E000200000000FFFFFFFFFFFFFF0000020269
:100A8E00020000FFFFFFFFFFFFFFFFFF000002025B
:100A9E00020000FFFFFFFFFFFFFFFFFF000002024B
:100AAE00020000FFFFFFFFFFFFFFFFFF000002023B
:100ABE00020000FFFFFFFFFFFFFFFFFF000002022B
:100ACE00020000FFFFFFFFFFFFFFFFFF000002021B
:100ADE00020000FFFFFFFF00000000FF0000020207
:100AEE00020000FFFFFFFF000202000000000202F2
:100AFE00020000FFFFFFFF000202020000020202DE
:100B0E00020000FFFFFFFF000002020202020202CB
:100B1E00000000FFFFFFFFFF0000020202020200C2
:100B2E000000FFFFFFFFFFFFFF00000000000000BE
:100B3E0000FFFFFFFFFF1010FFFFFFFFFFFFFFFF94
:100B4E00FFFFFFFFFFFFFFFFFFFFFFFFFF000000A4
:100B5E0000000000FFFFFFFFFFFFFFFF000001018D
:100B6E0001010000FFFFFFFFFFFFFF000001010179
:100B7E0001010000FFFFFFFFFFFF00000101010167
:100B8E00010000FFFFFFFFFFFF0000010101010157
:100B9E000000000000000000000001010101010141
:100BAE00010101010101000000010101010101012A
:100BBE00010101010101000000010101010101011A
:100BCE00010101010101000000000101010101010B
:100BDE000101010101010000FF00000101010101FD
:100BEE000000000000000000FFFF000001010101F5
:100BFE00010000FFFFFFFFFFFFFFFF0000010101EB
:100C0E0001010000FFFFFFFFFFFFFFFF00000101DA
:100C1E0001010000FFFFFFFFFFFFFFFFFF000000CD
:100C2E0000000000FFFFFFFFFFFFFFFFFFFFFFFFC2
:100C3E00FFFFFFFFFFFFFFFF1010FFFFFFFFFFFF94
:100C4E00FFFFFFFFFFFFFFFFFFFFFFFFFFFF0000A4
:100C5E000000000000FFFFFFFFFFFFFFFFFF00008F
:100C6E00010101010000FFFFFFFFFFFFFFFF00007A
:100C7E0001010101010000FFFFFFFFFFFFFFFF0069
:100C8E000001010101010000FFFF00000000000053
:100C9E00000001010101010000FF0000010101013E
:100CAE00010101010101010100000000010101012A
:100CBE000101010101010101010000000101010119
:100CCE00010101010101010101000000000000000D
:100CDE00000001010101010000FF00000000000002
:100CEE00000001010101010000FFFFFFFFFFFF00F7
:100CFE000001010101010000FFFFFFFFFFFF0000E7
:100D0E0001010101010000FFFFFFFFFFFFFF0000D7
:100D1E00010101010000FFFFFFFFFFFFFFFF0000C9
:100D2E000000000000FFFFFFFFFFFFFFFFFFFFFFC0
:100D3E00FFFFFFFFFFFFFFFFFFFF1010FFFFFFFF93
:100D4E000000000000000000FFFFFFFFFFFFFFFF9D
:100D5E000000010101010000FFFFFFFFFFFFFFFF89
:100D6E000000010101010000FFFFFFFFFFFFFFFF79
:100D7E000000010101010000FFFFFFFFFFFFFFFF69
:100D8E000000010101010000FFFFFFFF0000000055
:100D9E00000001010101000000000000000001013F
:100DAE00000001010101000001010000000001012D
:100DBE00010001010101000101010000000001011B
:100DCE000101010101010101010100000000010109
:100DDE00010101010101010101010000FF000001FB
:100DEE000101010101010101010000FFFFFF0000EF
:100DFE0001010101010101010000FFFFFFFFFF00E2
:100E0E00000101010101010000FFFFFFFFFFFFFFD5
:100E1E000000010101010000FFFFFFFFFFFFFFFFC8
:100E2E00FF000001010000FFFFFFFFFFFFFFFFFFBC
:100E3E00FFFF00000000FFFFFFFFFFFF1010FFFF8E
:100E4E00FFFFFFFFFFFF0000000000000000FFFF9C
:100E5E00FFFFFFFFFF000002020202020000FFFF81
:100E6E00FFFFFFFF00000202020202020000FFFF6E
:100E7E00FFFFFF000002020200000202000000005D
:100E8E00000000000202020000000202000000004A
:100E9E000202020202020200FF0002020000000033
:100EAE000202020202020200FF0002020000000023
:100EBE000202000000020200FF0002020000000019
:100ECE00020200FF00020200FF000202000000000A
:100EDE000202000000020200FF00020200000000F9
:100EEE000202020202020200FF00020200000000E3
:100EFE0002020202020202000000020200000000D2
:100F0E000000000000020202000002020000FFFFCB
:100F1E00FFFFFFFF00000202020202020000FFFFBD
:100F2E00FFFFFFFFFF000002020202020000FFFFB0
:100F3E00FFFFFFFFFFFF0000000000000000101089
:100F4E000000000000FFFFFFFFFFFF000000000099
:100F5E000001010100FFFFFFFFFFFF000101010083
:100F6E000001010100FFFFFFFFFFFF000101010073
:100F7E000001010100FFFFFFFFFFFF000101010063
:100F8E000001010100FFFFFFFFFFFF000101010053
:100F9E00000101010000FFFFFFFF00000101010041
:100FAE00000101010100FFFFFFFF0001010101002F
:100FBE00000001010100FFFFFFFF00010101000021
:100FCE0000000101010000FFFF000001010100000F
:100FDE00FF0000010101000000000101010000FFFF
:100FEE00FFFF000001010100000101010000FFFFF1
:100FFE00FFFF000000010100000101000000FFFFE3
:10100E00FFFFFF00000101010101010000FFFFFFD2
:10101E00FFFFFFFF0000010101010000FFFFFFFFC6
:10102E00FFFFFFFFFF00000101000000FFFFFFFFB9
:10103E00FFFFFFFFFFFF0000000000FFFFFFFFFFAD
:10104E00101000000000000000FFFFFFFFFFFFFF79
:10105E00FFFF00000101010000FFFFFFFFFFFFFF88
:10106E00FFFF00000101010000FFFFFFFFFFFFFF78
:10107E00FFFF00000101010000FFFFFFFFFFFFFF68
:10108E00FFFF00000101010000FFFFFFFFFFFFFF58
:10109E00FFFF00000101010000FFFFFFFFFFFFFF48
:1010AE00FFFF00000101010000FFFFFFFFFFFFFF38
:1010BE00FFFF00000101010000FFFFFFFFFFFFFF28
:1010CE00FFFF00000101010000FFFFFFFFFFFFFF18
:1010DE00FFFF00000101010000FFFFFFFFFF000006
:1010EE00000000000101010000FFFFFFFFFF0000F4
:1010FE00000000000101010000FFFFFFFF000001E2
:10110E0000000000010101000000000000000101CC
:10111E0000000000010101010101010101010101B5
:10112E0000000000010101010101010101010101A5
:10113E0000000000000000000000000000000000A1
:10114E0000001010FFFFFFFFFFFFFFFFFFFFFFFF7D
:10115E00FFFFFFFFFFFFFFFFFFFFFFFFFFFFFFFF91
:10116E00FFFFFFFFFFFFFFFFFFFFFFFFFFFFFFFF81
:10117E00FFFFFFFFFFFFFFFF00000000000000FF6A
:10118E00FFFFFFFFFFFFFF00000001010100000055
:10119E00FFFFFFFFFFFF0000010101010101010040
:1011AE0000FFFFFFFF00000101010000000101012F
:1011BE000000FFFF00000001010000FF0000010120
:1011CE00000000FF00000101010000FF000001010E
:1011DE00010000FF00000101010000FF00000101FD
:1011EE00010000FF00000101010000FF00000101ED
:1011FE00010000FF00000001010000FF00000101DE
:10120E00000000FFFF0000010101000000010101CC
:10121E000000FFFFFFFF00000101010101010100BD
:10122E0000FFFFFFFFFFFF000000010101000000B3
:10123E00FFFFFFFFFFFFFFFF00000000000000FFA9
:10124E00FFFFFFFF1010FFFFFFFFFFFFFFFFFFFF7E
:10125E00FFFFFFFFFFFFFFFFFFFF0000000000008A
:10126E000000FFFFFFFFFFFF00000000020202026E
:10127E00000000FFFFFFFF00000002020202020258
:10128E0002020000FFFFFF00000202020000000049
:10129E000202020000FFFF00000202020000FF0037
:1012AE000000000000FFFF0000000202020200002A
:1012BE000000FFFFFFFFFFFFFF000002020202021D
:1012CE00020000FFFFFFFFFFFFFF00000000020211
:1012DE0002020000FFFFFF0000000000FFFF000001
:1012EE000202020000FFFF000002020200000000E6
:1012FE000202020000FFFF000000020202020202D0
:10130E0002020000FFFFFFFFFF00000002020202C8
:10131E00000000FFFFFFFFFFFFFFFF0000000000C7
:10132E000000FFFFFFFFFFFFFFFFFFFFFFFFFFFFBD
:10133E00FFFFFFFFFFFFFFFFFFFFFFFFFFFFFFFFAF
:10134E00FFFFFFFFFFFF1010FFFFFFFFFFFFFFFF7D
:10135E00FFFFFFFFFFFFFFFFFFFFFFFFFFFFFFFF8F
:10136E00FFFFFFFFFFFFFFFFFFFFFFFFFFFFFFFF7F
:10137E00FFFFFFFFFFFFFFFFFFFFFFFFFFFFFFFF6F
:10138E00FFFFFFFFFFFFFFFFFFFFFFFFFFFFFFFF5F
:10139E00FFFFFFFFFFFFFFFFFFFFFFFFFFFFFFFF4F
:1013AE00FFFFFFFFFFFFFFFFFFFFFFFFFFFFFFFF3F
:1013BE00FFFFFFFFFFFFFFFFFFFFFFFFFFFFFFFF2F
:1013CE00FFFFFFFFFFFFFFFF1010FFFFFFFFFFFFFD
:1013DE00FFFFFFFFFFFFFFFFFFFFFFFFFFFFFFFF0F
:1013EE00FFFFFFFFFFFFFFFFFFFFFFFFFFFFFFFFFF
:1013FE00FFFFFFFFFFFFFFFFFFFFFFFFFFFFFFFFEF
:10140E00FFFFFFFFFFFFFFFFFFFFFFFFFFFFFFFFDE
:10141E00FFFFFFFFFFFFFFFFFFFFFFFFFFFFFFFFCE
:10142E00FFFFFFFFFFFFFFFFFFFFFFFFFFFFFFFFBE
:10143E00FFFFFFFFFFFFFFFFFFFFFFFFFFFFFFFFAE
:10144E00FFFFFFFFFFFFFFFFFFFF1010FFFFFFFF7C
:10145E00FFFFFFFFFFFFFFFFFFFFFFFFFFFFFFFF8E
:10146E00FFFFFFFFFFFFFFFFFFFFFFFFFFFFFFFF7E
:10147E00FFFFFFFFFFFFFFFFFFFFFFFFFFFFFFFF6E
:10148E00FFFFFFFFFFFFFFFFFFFFFFFFFFFFFFFF5E
:10149E00FFFFFFFFFFFFFFFFFFFFFFFFFFFFFFFF4E
:1014AE00FFFFFFFFFFFFFFFFFFFFFFFFFFFFFFFF3E
:1014BE00FFFFFFFFFFFFFFFFFFFFFFFFFFFFFFFF2E
:1014CE00FFFFFFFFFFFFFFFFFFFFFFFF1010FFFFFC
:1014DE00FFFFFFFFFFFFFFFFFFFFFFFFFFFFFFFF0E
:1014EE00FFFFFFFFFFFFFFFFFFFFFFFFFFFFFFFFFE
:1014FE00FFFFFFFFFFFFFFFFFFFFFFFFFFFFFFFFEE
:10150E00FFFFFFFFFFFFFFFFFFFFFFFFFFFFFFFFDD
:10151E00FFFFFFFFFFFFFFFFFFFFFFFFFFFFFFFFCD
:10152E00FFFFFFFFFFFFFFFFFFFFFFFFFFFFFFFFBD
:10153E00FFFFFFFFFFFFFFFFFFFFFFFFFFFFFFFFAD
:10154E00FFFFFFFFFFFFFFFFFFFFFFFFFFFF10107B
:10155E00FFFFFFFFFFFFFFFFFFFFFFFFFFFFFFFF8D
:10156E00FFFFFFFFFFFFFFFFFFFFFFFFFFFFFFFF7D
:10157E00FFFFFFFFFFFFFFFFFFFFFFFFFFFFFFFF6D
:10158E00FFFFFFFFFFFFFFFFFFFFFFFFFFFFFFFF5D
:10159E00FFFFFFFFFFFFFFFFFFFFFFFFFFFFFFFF4D
:1015AE00FFFFFFFFFFFFFFFFFFFFFFFFFFFFFFFF3D
:1015BE00FFFFFFFFFFFFFFFFFFFFFFFFFFFFFFFF2D
:1015CE00FFFFFFFFFFFFFFFFFFFFFFFFFFFFFFFF1D
:1015DE001010FFFFFF0000FFFFFFFFFFF000000FE6
:1015EE00FFFFFFFF00222200FFFFFFFF002222006D
:1015FE00FFFFFFF0022002200FFFFFF0022002206B
:10160E000FFFFF002200002200FFFF00220FF0223A
:10161E0000FFF002200FF002200FF0022000000267
:10162E00200F002222222222220000222222222207
:10163E0022000022000000002200002200FFFF0016
:10164E002200002200FFFF002200000000FFFF002A
:10165E000000101000000000000000FF02222222F5
:10166E002222000F0222222222222000000220002B
:10167E0000222200F00220FFF0022200F00220FFE2
:10168E00F0022200F00220000022200FF00222229F
:10169E00222200FFF0022222222200FFF00220006E
:1016AE000022200FF00220FFF0022200F00220FFA5
:1016BE00F00222000002200000222200022222223A
:1016CE0022222000022222222222000F00000000ED
:1016DE00000000FF1010101010101010101010103D
:0A16EE001010101010101010101052
:109CFC001226A7FF9003ECE02F9001F5F0229001C3
:109D0C00EFE0FBA3E0FAA3E0F922F09001EFE0FB17
:109D1C00A3E475F001122763A9F0FA02268E9001D4
:089D2C00E6E0D364809480227C
:06A7A000E49003ECF0223E
:06A7A6009003ECEFF0222D
:0B67FC009001E7EFF0A3ECF0A3EDF03C
:106807009001E7E0FF25E0F0E02408F09001EEF0CA
:106817009001E8E0FEA3E07803C333CE33CED8F986
:10682700F0EE9001E8F0A3E02408F09001E8E034EE
:1068370000F0AF037E007C017D021226E6742E2F46
:10684700F974003EFA9001EF74FFF0A3EAF0A3E9B0
:10685700129D169001EA129D169001EBF0E4A3F049
:106867009001EAE0FF9001ECE0C39F400302694317
:10687700E4A3F09001EBE0FF9001EDE0C39F40033C
:10688700026924129D0A12268E129CFFE4FB7D02E8
:10689700FF1290A8129D0A900001129CFC7B011226
:1068A700696D900002129CFC7B0212696D900003D7
:1068B700129CFC7B031269809001F57480F07B04C5
:1068C7001269809001F0E475F00412274D9001EEF3
:1068D700E09001F5F07B05126988A3E09001F5F0DF
:1068E7007B07126988E07E007802C333CE33CED8A7
:1068F700F912694412699320E7FA9001E8E025E06C
:1069070025E0440812694412699320E7FA9001EEE2
:10691700E004F09001EDE02404F002687A9001E7CA
:10692700E09001EEF09001E9E004F070069001E8D4
:0C693700E004F09001ECE004F00268675E
:10694300229001F5F07B097D02E4FF1290A87B0AF7
:106953007D02E4FF128984EF543F44809001F5F0F7
:106963007B0A7D02E4FF1290A8227D02E4FF1290CD
:10697300A89001EFE0FBA3E0FAA3E0F9227D02E493
:10698300FF1290A8227D02E4FF1290A89001E82252
:0B6993007B0A7D02E4FF128984EF22E2
:0B9234009001E0EFF0A3EDF0A3EBF0E1
:10923F00A3129D0D12A5849001E6EFF0C3648094F4
:10924F008040429001E0E030E0339001E1E0FFA385
:10925F00E0FD7C00A3129D0D12268EFB1267FC9081
:10926F0001E6E014F09001E4E475F00112274D904F
:10927F0001E1E02402F0129D2A50CF8005129D2AB1
:05928F0050FB12A7CA0C
:0192940022B7
:10A3D4000500000600000700000800000900000A4C
:10A3E400000012000020000B000C000D000E000005
:036FAB00012100C1
:1083490090036DE075F003A424D4F974A335F0FA11
:108359009001E374FFF0A3229001DDE0FBA3E0FAB2
:10836900A3E0F92290036DE0FF74017E00A80708DD
:1083790022FF90037AE0FDEF5D2274A3F0A374F36A
:10838900F0229000010226A774A3F0A374E0F02262
:1083990074A3F0A374F1F022EAF0A3E9F0E4FB225C
:1083A9009000020226A712268E540C1313543FF58F
:1083B9003022EAF0A3E9F07B12227B017D127C00D6
:1083C900227D197B057C007F3A22EBF0A3EAF0A31A
:1083D900E9F0229000030226A77B017D0F7C002291
:1083E900EAF0A3E9F07B0F227B01E4FDFC7F1C226C
:0883F9007B01E4FDFC7F412241
:1094F20012749012A7A07F0412A7C47F0312A7C7F9
:10950200E4F530AF301295280530E530C3940640BB
:10951200F27F01129DD97FFF12A7C77F08129528FB
:05952200E490036AF073
:109527002212A4149001E1E4F0A37426F07B5AE41C
:07953700FDFCFF1284B722C6
:104400009001DD1283D37F0212A7C47FFF12A7C7DA
:1044100090036CE01229DE44451144542144882263
:1044200044BC3144FA3345353445704145C091456B
:10443000D7A14603A2462CB14671B346B2B446F4A6
:10444000C10000475112836112268E20E10302470A
:10445000510245CC12836112268E30E10D12834940
:104460001283A17DFF7F0112923412836112838B2C
:1044700020E10302475190036E12834CEAF0A3E956
:10448000F07B1D7D5D02474C12836112268E30E168
:1044900011128349EAF0A3E9F07B0E7D487F0112F7
:1044A000923412836112838B20E1030247519003FF
:1044B0006E12834C1283A17D1402474C1283611249
:1044C000268E30E1091283491283A112479E12837E
:1044D0006112838B30E10990036E12834C12477F87
:1044E0001283611283A920E10302475190036F12E6
:1044F000834C1283E97D3E02474C12836112268E63
:1045000030E10612834912475212836112838B30C5
:10451000E10990036E12834C12477012836112837B
:10452000A920E10302475190036F12834C1283E9E3
:104530007D3E02474C12836112268E30E1061283C3
:104540004912475212836112838B30E10990036E46
:1045500012834C1247701283611283A920E1030277
:10456000475190036F12834C1283E97D1402474C2C
:1045700012836112268E30E10612834912476112BE
:10458000836112838B30E10C90036E12834C128393
:10459000A11247961283611283A930E10990036F3B
:1045A00012834C12477F1283611283DC20E10302E5
:1045B000475190037012834C1283E97D3E02474CB1
:1045C00012836112268E20E10302475112834912A1
:1045D00083A17D2902474C12836112268E30E109A6
:1045E0001283491283A112479E12836112838B208A
:1045F000E10302475190036E12834C1283BB7D2965
:1046000002474C12836112268E30E1061283491252
:10461000476112836112838B20E1030247519003AB
:104620006E12834C1283A17D3E02474C12836112AD
:10463000268E30E10D1283491283A17D297F01125C
:10464000923412836112838B30E10C90036E1283DB
:104650004C1283BB12478E1283611283A920E1039F
:1046600002475190036F12834C1283BB7D3E024779
:104670004C12836112268E30E1091283491283A104
:1046800012478E12836112838B30E10C90036E12FD
:10469000834C1283A11247961283611283A920E1F1
:1046A0000302475190036F12834C1283BB7D3E027D
:1046B000474C12836112268E30E10912834912831E
:1046C000A11247A612836112838B30E11090036E12
:1046D00012834C1283A17D3E7F01129234128361BA
:1046E0001283A930E16B90036F12834C1283BB7D60
:1046F0001402474C12836112268E30E1091283495D
:104700001283A11247A612836112838B30E11090AD
:10471000036E12834C1283A17D3E7F0112923412EC
:1047200083611283A930E11090036F12834C1283CE
:10473000BB7D147F011292341283611283DC30E15D
:104740001090037012834C1283BB7D3E7F01129246
:104750003422EAF0A3E9F0E4FB7D147F01129234E5
:1047600022EAF0A3E9F0E4FB7D147F0112923422E7
:10477000EAF0A3E9F0E4FB7D3E7F0112923422EAE5
:10478000F0A3E9F07B0F7D147F01129234227D1497
:104790007F01129234227D3E7F01129234227D29C4
:0E47A0007F01129234227D147F011292342286
:08A7900090036BE04480F0220D
:10981A007B787D01E4FF128984EF540FFF90037A6D
:10982A00F090036BE06F602ED2277B31E4FDFF12CC
:10983A008984EF547F9001F5F07B31E4FDFF1290AB
:10984A00A87F4D12A7C47F4012A7A612A7A0900313
:07985A007AE090036BF0229D
:066DFC009001DD1283D3BB
:106E02007F4112A7C490036CE01229DE6E36116E28
:106E120047216E7B226EB2316ED5336EF2346E36FE
:106E2200916E47A16E7BA26EB2B16ED5B36EF2B413
:106E320000006F2F9001DD1283641283AF600302A2
:106E42006EBD026ECB9001DD1283641283AF6012BD
:106E5200126F301283581283A17D1C7F011292346B
:106E620080061283F11284019001DD128364128381
:106E72008B1283B26037026F009001DD12836412BD
:106E820083AF6012126F301283581283A17D1C7F70
:106E92000112923480061283F11284019001DD12F4
:106EA200836412838B1283B26003026F00026F2528
:106EB2009001DD1283641283AF600E126F49128358
:106EC200581283A17D31026F207B01E4FDFC7F31EA
:106ED200026F2C9001DD1283641283AF600D126F7A
:106EE200491283581283A17D1C80331283F1803AA8
:106EF2009001DD12836412838B1283B260257B02C0
:106F0200E4FDFCFF128401E53025E0FFE433FE746A
:106F1200E92FF974A33E1283581283A17D467F01A3
:0D6F22000292347B01E4FDFC7F46128401E5
:106F2F00227B02E4FDFCFF128401E53025E0FFE443
:106F3F0033FE74E92FF974A33E227B02E4FDFCFFBC
:106F4F00128401E53025E0FFE433FE74E92FF97474
:036F5F00A33E222C
:10321F009001DD1283D37F0C12A7C490036CE012D0
:10322F0029DE325F11327121329D2232C6313311C4
:10323F003333543433A341341191342EA13469A262
:10324F0034A2B134FFB33554B435AFC100003628C2
:10325F009001DD12836412268E30E00302341D02CA
:10326F0034279001DD12836412268E30E00B128317
:10327F00591283911236AB80031236809001DD1202
:10328F00836412838B30E003023454023461900163
:10329F00DD12836412268E30E0081283591236290C
:1032AF00800312364B9001DD12836412838B30E062
:1032BF000302348F02349C9001DD12836412268E38
:1032CF0030E00B1283591283911236AB8003123602
:1032DF00809001DD12836412838B30E00B128359CF
:1032EF001283911236D580081283E27F1712840160
:1032FF009001DD1283641283A930E0030233FF02D1
:10330F00340A9001DD12836412268E30E008128396
:10331F0059123629800312364B9001DD1283641245
:10332F00838B30E00B1283591283911236968003F0
:10333F001236569001DD1283641283A930E0030226
:10334F0033FF02340A9001DD12836412268E30E0BF
:10335F000812835912363A80031236619001DD123A
:10336F00836412838B30E00B1283591283911236D0
:10337F009680031236569001DD1283641283A930B2
:10338F00E00B1283591283917B0F02359F7B017DD6
:10339F000F0235A89001DD12836412268E30E008EB
:1033AF0012835912363A80031236619001DD12836F
:1033BF006412838B30E00B1283591283911236C043
:1033CF00800312368B9001DD1283641283A930E0E3
:1033DF000B1283591283911236D580081283E27F24
:1033EF00171284019001DD1283641283DC30E00B2D
:1033FF001283591283917B0F0234977B017D0F0249
:10340F0034F89001DD12836412268E30E00A1283A5
:10341F0059128391E4FB80357B01E4FDFC803690EB
:10342F0001DD12836412268E30E00B128359128352
:10343F00911236DF80031236B59001DD12836412CC
:10344F00838B30E00D1283591283917B0F7D2C02F9
:10345F00361B1283E27F2C0236259001DD12836426
:10346F0012268E30E00B12835912839112366C8024
:10347F00031236A09001DD12836412838B30E00DAE
:10348F00128359128391E4FB7D4102361B1283F99B
:10349F000236259001DD12836412268E30E00B1266
:1034AF0083591283911236DF80031236B59001DDF6
:1034BF0012836412838B30E00B12835912839112A3
:1034CF0036E980081283C37F171284019001DD1241
:1034DF0083641283A930E00D1283591283917B12FA
:1034EF007D4102361B7B017D127C007F4102362518
:1034FF009001DD12836412268E30E00B1283591275
:10350F00839112366C80031236A09001DD12836412
:10351F0012838B30E00B1283591283911236C080C5
:10352F000312368B9001DD1283641283A930E00DF4
:10353F001283591283917B127D4102361B1283C372
:10354F007F410236259001DD12836412268E30E012
:10355F000B12835912839112367680031236CA905A
:10356F0001DD12836412838B30E00B1283591283B7
:10357F00911236F380061283F91284019001DD1245
:10358F0083641283A930E00D1283591283917B1249
:10359F007D1702361B7B017D127C007F17023625BB
:1035AF009001DD12836412268E30E00B12835912C4
:1035BF00839112367680031236CA9001DD1283642E
:1035CF0012838B30E00B1283591283911236F380E2
:1035DF00061283F91284019001DD1283641283A90C
:1035EF0030E00B1283591283911236E9800812834F
:1035FF00C37F171284019001DD1283641283DC30C4
:10360F00E00F1283591283917B127D417F01029249
:10361F00341283C37F411284012274A3F0A374E098
:10362F00F0E4FB7D177F011292342274A3F0A37490
:10363F00E0F0E4FB7D177F01129234227B01E4FD61
:10364F00FC7F17128401227B01E4FDFC7F41128471
:10365F0001227B01E4FDFC7F1712840122E4FB7D34
:10366F00177F0112923422E4FB7D177F01129234EF
:10367F00227B01E4FDFC7F2C128401227B01E4FDFF
:10368F00FC7F4112840122E4FB7D417F01129234C1
:10369F00227B01E4FDFC7F1712840122E4FB7D2CC9
:1036AF007F01129234227B01E4FDFC7F2C128401F6
:1036BF0022E4FB7D417F01129234227B01E4FDFC69
:1036CF007F17128401227B0F7D177F011292342204
:1036DF00E4FB7D2C7F01129234227B127D177F0138
:0E36EF0012923422E4FB7D417F0112923422BC
:1036FD009003DC1283D37F0212A7C490036CE012F7
:10370D0029DE373A11374C21377B2237A43137EF79
:10371D003338323438814138EF913912A2394FB1F3
:10372D0039B9B33A0EB43A66C100003ADC9003DC05
:10373D0012836412268E30E4030238FB023908909E
:10374D0003DC12836412268E30E40B12835912832C
:10375D0099123B748003123B549003DC1283641264
:10376D00268E30E4030238FB1283E202390D9003FA
:10377D00DC12836412268E30E408128359123ADD6E
:10378D008003123AFF9003DC12836412838B30E4C2
:10379D00030239380239459003DC12836412268EF8
:1037AD0030E40B128359128399123B748003123B40
:1037BD00549003DC12836412838B30E40B12835913
:1037CD00128399123B7E80081283E27F1F128401BF
:1037DD009003DC1283641283A930E4030238DD0206
:1037ED0038E89003DC12836412268E30E4081283CD
:1037FD0059123ADD8003123AFF9003DC12836412F2
:10380D00838B30E40B128359128399123B4A800348
:10381D00123B0A9003DC1283641283A930E4030285
:10382D0038DD0238E89003DC12836412268E30E412
:10383D0008128359123AEE8003123B159003DC12E5
:10384D00836412838B30E40B128359128399123BDC
:10385D004A8003123B0A9003DC1283641283A93061
:10386D00E40B1283591283997B0F023A567B017D2B
:10387D000F023A5F9003DC12836412268E30E40847
:10388D00128359123AEE8003123B159003DC12831A
:10389D006412838B30E40B128359128399123B5FB0
:1038AD008003123B349003DC1283641283A930E44D
:1038BD000B128359128399123B7E80081283E27F8B
:1038CD001F1284019003DC1283641283DC30E40B3D
:1038DD001283591283997B0F0239407B017D0F02B0
:1038ED0039B29003DC12836412268E30E40D1283FC
:1038FD0059128399E4FB7D34023ACF7B01E4FDFC40
:10390D007F34023AD99003DC12836412268E30E4A0
:10391D000B128359128399123B208003123B3F9067
:10392D0003DC12836412838B30E40D1283591283EE
:10393D0099E4FB7D49023ACF7B01E4FDFC7F49020E
:10394D003AD99003DC12836412268E30E41112836F
:10395D0059128399E4FB7D347F01129234800A7BE6
:10396D0001E4FDFC7F341284019003DC12836412A8
:10397D00838B30E40B128359128399123B9D80087F
:10398D001283C37F1F1284019003DC1283641283A0
:10399D00A930E40D1283591283997B127D49023AA5
:1039AD00CF7B017D127C007F49023AD99003DC1256
:1039BD00836412268E30E40B128359128399123BC5
:1039CD00208003123B3F9003DC12836412838B3003
:1039DD00E40B128359128399123B5F8003123B341F
:1039ED009003DC1283641283A930E40D1283591203
:1039FD0083997B127D49023ACF1283C37F49023AE4
:103A0D00D99003DC12836412268E30E40B12835995
:103A1D00128399123B2A8003123B699003DC1283B7
:103A2D006412838B30E40B128359128399123B93EA
:103A3D008003123B889003DC1283641283A930E467
:103A4D000D1283591283997B127D1F023ACF7B0190
:103A5D007D127C007F1F023AD99003DC1283641221
:103A6D00268E30E40B128359128399123B2A800360
:103A7D00123B699003DC12836412838B30E40B12CA
:103A8D008359128399123B938003123B889003DC78
:103A9D001283641283A930E40B1283591283991295
:103AAD003B9D80081283C37F1F1284019003DC129B
:103ABD0083641283DC30E40F1283591283997B12D5
:103ACD007D497F010292341283C37F491284012202
:103ADD0074A3F0A374F1F0E4FB7D1F7F0112923407
:103AED002274A3F0A374F1F0E4FB7D1F7F01129209
:103AFD0034227B01E4FDFC7F1F128401227B01E453
:103B0D00FDFC7F49128401227B01E4FDFC7F1F1225
:103B1D00840122E4FB7D1F7F0112923422E4FB7DA0
:103B2D001F7F01129234227B01E4FDFC7F49128438
:103B3D0001227B01E4FDFC7F1F12840122E4FB7D49
:103B4D00497F01129234227B01E4FDFC7F34128403
:103B5D000122E4FB7D497F01129234227B01E4FDB9
:103B6D00FC7F1F12840122E4FB7D347F011292340D
:103B7D00227B0F7D1F7F01129234227B01E4FDFC1D
:103B8D007F4912840122E4FB7D497F011292342288
:0A3B9D007B127D1F7F01129234227B
:102C9B0090037AE0FD90036BE06DF565A3E01229DC
:102CAB00DE2CD4112CF7222D3C312DAD332E1434C8
:102CBB002E82412F11912F3AA22F87B12FF7B330CC
:102CCB0061B430DCC10000316812836D8005C33301
:102CDB00CE33CED8F9FFEF5D600B1283591283838D
:102CEB007B0D022F2A7B057D0D022F3312836D8006
:102CFB0005C333CE33CED8F912837A600B128359C6
:102D0B001283831231C5800312318190036E1283BB
:102D1B00708005C333CE33CED8F912837A600B1291
:102D2B0083591283837B0D022F777B057D0D022F39
:102D3B008012836D8005C333CE33CED8F912837ADC
:102D4B0060111283591283837B077D257F011292B9
:102D5B003480057D0712320B90036E128370800551
:102D6B00C333CE33CED8F912837A600D1283591246
:102D7B0083837B151231E580031231CF90036F12E1
:102D8B0083708005C333CE33CED8F912837A600BB0
:102D9B001283591283837B15022F777B057D1502D6
:102DAB002F8012836D8005C333CE33CED8F91283B7
:102DBB007A600B1283591283831231C5800312314F
:102DCB008190036E1283708005C333CE33CED8F956
:102DDB0012837A600B1283591283831231DB8003C7
:102DEB0012318D90036F1283708005C333CE33CEB7
:102DFB00D8F912837A600B1283591283837B1502E5
:102E0B002F777B057D15022F8012836D8005C333D1
:102E1B00CE33CED8F912837A600B12835912838387
:102E2B00123199800312316990036E128370800501
:102E3B00C333CE33CED8F912837A600D1283591275
:102E4B0083837D3A12320380087D0D1283CC12846A
:102E5B000190036F1283708005C333CE33CED8F944
:102E6B0012837A600B1283591283837B150230CC49
:102E7B007B057D150230D512836D8005C333CE33B0
:102E8B00CED8F912837A600B1283591283831231D5
:102E9B0099800312316990036E1283708005C333DE
:102EAB00CE33CED8F912837A600B128359128383F7
:102EBB001231DB800312318D90036F12837080050A
:102ECB00C333CE33CED8F912837A601112835912E1
:102EDB0083837B157D107F0112923480031231CFD7
:102EEB009003701283708005C333CE33CED8F912A2
:102EFB00837A600B1283591283837B15022F777BA6
:102F0B00057D15022F8012836D8005C333CE33CE22
:102F1B00D8F912837A600D1283591283837B107D4B
:102F2B002502315D7B057D107C007F25023165120A
:102F3B00836D8005C333CE33CED8F912837A600DFF
:102F4B001283591283837B101231E580031231A354
:102F5B0090036E1283708005C333CE33CED8F91233
:102F6B00837A600D1283591283837B107D3A023171
:102F7B005D7B057D107C007F3A02316512836D808D
:102F8B0005C333CE33CED8F912837A60111283592D
:102F9B001283837B087D257F0112923480057D0887
:102FAB0012320B90036E1283708005C333CE33CE77
:102FBB00D8F912837A600B1283591283831232155C
:102FCB0080031231ED90036F1283708005C333CEF3
:102FDB0033CED8F912837A600D1283591283837B17
:102FEB00197D3A02315D1283CA02316512836D80FD
:102FFB0005C333CE33CED8F912837A600D128359C1
:10300B001283837D1012320380031231A390036E5F
:10301B001283708005C333CE33CED8F912837A6016
:10302B000B1283591283831231F980031231B99039
:10303B00036F1283708005C333CE33CED8F912835E
:10304B007A600D1283591283837B197D3A02315DAD
:10305B001283CA02316512836D8005C333CE33CE22
:10306B00D8F912837A600B1283591283831231AF12
:10307B00800312317590036E1283708005C333CEBB
:10308B0033CED8F912837A60111283591283837B62
:10309B00107D3A7F01129234800B7B057D107C00F2
:1030AB007F3A12840190036F1283708005C333CE75
:1030BB0033CED8F912837A600D1283591283837B36
:1030CB00197D1002315D7B057D197C007F1002316B
:1030DB006512836D8005C333CE33CED8F912837A54
:1030EB00600B1283591283831231AF800312317537
:1030FB0090036E1283708005C333CE33CED8F91292
:10310B00837A600B1283591283831231F980031275
:10311B0031B990036F1283708005C333CE33CED891
:10312B00F912837A600B1283591283831232158042
:10313B00031231ED9003701283708005C333CE33CD
:10314B00CED8F912837A600F1283591283837B19BD
:0D315B007D3A7F010292341283CA12840172
:10316800227B057D077C007F10128401227B057D70
:10317800087C007F10128401227B057D0D7C007F76
:1031880010128401227B057D077C007F3A1284019E
:10319800227B077D107F01129234227B057D107CF3
:1031A800007F10128401227B087D107F0112923467
:1031B800227B057D087C007F3A128401227B0D7DED
:1031C800107F01129234227B057D157C007F10123E
:1031D8008401227B077D3A7F01129234227D107F81
:1031E80001129234227B057D197C007F1012840124
:1031F800227B087D3A7F01129234227B0D7F0112D7
:103208009234227B057C007F25128401227B197D64
:07321800107F011292342225
:109A0900E4FF12A41490036AE024FE601104702993
:109A1900129A4312835974A3F0A374E3800C129A27
:109A29004312835974A3F0A374E6F0E4FB7D017F2C
:109A3900011292347FFF12A7C7227F0312A7C77FA3
:059A49000412A7C42275
:10A34200E4FF12A414900372E030E1127B017A035D
:10A35200797212321F7B017A037972126DFC12A795
:06A3620090E4FF029DD90A
:1016F80000000000000000000000000000000000E2
:1017080000000000000000000000000000000000D1
:10171800003E007E00FE01CE038E7F8E7F8E738E8C
:10172800738E738E7F8E7F8E01CE00FE007E003E0C
:1017380000000000020006000E001E003FFE7FFEB3
:101748007FFE3FFE1E000E000600020000000000A3
:101758000000000000400060007000787FFC7FFE01
:101768007FFE7FFC007800700060004000000000F1
:10177800000003C003C003C003C003C003C003C00C
:1017880003C03FFC1FF80FF007E003C00180000012
:1017980003C003C007E007E00E700E701C381C3849
:1017A800381C381C7FFE7FFE700E700E700E700E97
:1017B8007FF87FFC383E381E381E381E383C3FF80C
:1017C8003FF8383C381E381E381E383E7FFC7FF8FC
:1017D8000FF81FFC3C1C380E780E700E700070005D
:1017E80070007000700E700E380E3C1C1FFC0FF855
:1017F8007FF07FF07078703C703C703C70787FF0C0
:101808007FE0778073C071E070F07078703C701E74
:1018180000006006700E781E7C3E7FFE77EE73CE69
:10182800718E700E700E700E700E700E700E700E3F
:1018380000001FF81FF800E000E000E000E000E012
:1018480000E000E000E070E079E03FC01F800F009A
:1018580000000000000003C007800F001E003FFCCE
:101868003FFC1E000F00078003C0000000000000BE
:1018780000000000000003C001E000F000783FFC19
:101888003FFC007800F001E003C000000000000009
:1018980000000000018001800180018011881998F2
:1018A8001DB81FF80FF007E003C00180000000001A
:1018B800003E007E00FE01CE038E7F8E7F8E738EEB
:1018C800738E738E7F8E7F8E01CE00FE007E003E6B
:1018D800700E700E700E700E700E700E781E381C22
:1018E800381C1C381C380E700FF007E003C001804C
:1018F8000000380038003800380038003800380058
:1019080038003800380038063806380E3FFE3FFEEB
:101918000000000000000000000003800FE01C70C1
:10192800183038383838383818301C700FE00380D1
:101938000000000000000000000003C00FF01C3889
:101948001C000F0007E000F000381C380FF003C03F
:10195800000000000000000000000000000000007F
:10196800000000000000000000000000000000006F
:10197800000000000000000000000000000000005F
:10198800000000000000000000000000000000004F
:10199800000000000000000000000000000000003F
:1019A800000000000000000000000000000000002F
:1019B800000000000000000000000000000000001F
:1019C800000000000000000000000000000000000F
:1019D80000000000000000000000000000000000FF
:1019E80000000000000000000000000000000000EF
:1019F80000000000000000000000000000000000DF
:101A080000000000000000000000000000000000CE
:101A180000000000000000000000000000000000BE
:101A280000000000000000000000000000000000AE
:101A3800000000000000000000000000000000009E
:101A4800000000000000000000000000000000008E
:101A5800000000000000000000000000000000007E
:101A6800000000000000000000000000000000006E
:101A7800000000000000000000000000000000005E
:101A8800000000000000000000000000000000004E
:101A9800000000000000000000000000000000003E
:101AA800000000000000000000000000000000002E
:101AB800000000000000000000000000000000001E
:101AC800000000000000000000000000000000000E
:101AD80000000000000000000000000000000000FE
:101AE80000000000000000000000000000000000EE
:101AF80000000000000000000000000000000000DE
:101B080000000000000000000000000000000000CD
:101B1800000007000F800F800F800F80070007006C
:101B28000700020002000000020007000700020090
:101B38000000EE006600440088000000000000007D
:101B4800000000000000000000000000000000008D
:101B5800000008200820082008203FF80820082056
:101B68000820082008203FF808200820082008201E
:101B780000000FC01B603330333033001B000F00F0
:101B880003C0036013303B3033301B600FC00300C9
:101B980000003808441084200440048009001270B2
:101BA800E4880908120822084210822001C00000B7
:101BB80000000E001B00318031801B000E001C004D
:101BC8003678632061A060E0606030F01F9C000000
:101BD80000000000000000000000000000000000FD
:101BE800000000000000800060007000380018004D
:101BF8000000000400080018001000300030003019
:101C08000030003000300010001800080004000206
:101C180000008000400060002000300030003000EC
:101C280030003000300020006000400080000000DC
:101C3800000002004210222012400A800700FFFC28
:101C480007000A8012402220421002000200000011
:101C580000000000030003000300030003007FF8F6
:101C68007FF80300030003000300030000000000E6
:101C7800000000000000000000000000000000005C
:101C8800000018003C003C00180010002000400034
:101C980000000000000000000000000000007FF8C5
:101CA8007FF80000000000000000000000000000B5
:101CB800000000000000000000000000000000001C
:101CC8000000000000007800840084008400780090
:101CD800000000180030006000C00180030006000A
:101CE8000C00180030006000C000800000000000F8
:101CF80000000FE0183030183038307830D831987C
:101D0800331836183C183818301818300FE000000F
:101D18000000030007000F00030003000300030096
:101D28000300030003000300030003001FE000009A
:101D380000000FE01830301830183038007001C03B
:101D480003000E001800300830083FF83FF8000084
:101D5800000007C0183030183018003000E003C009
:101D680000E00030001830183018183007C00000A4
:101D7800000000C001C003C006C00CC018C030C0BD
:101D880060C0C0C0C0C0FFF800C000C003F00000C1
:101D980000003FF03FF030003000300037C03830EE
:101DA80030180018001830183018183007C0000014
:101DB800000007E01830303030003000300037E0E5
:101DC8003830301830183018301818300FC000006C
:101DD80000003FF83FF8201820180030006000C0CD
:101DE8000180030003000300030003000300000058
:101DF80000000780186030303030303018600FC075
:101E08001860303060186018601830300FC000005B
:101E1800000007801860303030183018301830381B
:101E2800187807980018303038301860078000009C
:101E3800000000000000000003000780030000000D
:101E480000000300078003000000000000000000FD
:101E580000000000000000000300078003000000ED
:101E680000000300078003800180070000000000D5
:101E780000000000001800600180060018006000E3
:101E88008000600018000600018000600018000053
:101E9800000000000000000000007FF87FF800004C
:101EA80000007FF87FF8000000000000000000003C
:101EB8000000800060001800060001800060001823
:101EC800000400180060018006001800600080000F
:101ED800000007800FC01CE038E038E011C0018026
:101EE80003000300020002000000020007000700D0
:101EF80000000FC030604010478888C890C890C85C
:101F080090C890C888D84770400830700FC000004B
:101F1800000003000300078007800CC00CC0186095
:101F280018601FE03030303060186018F03C000056
:101F380000003F80186018301830183018601FC033
:101F48001860183018181818181818303FC00000F2
:101F58000000078818683038601860086000600062
:101F6800600060006008601830301860078000006A
:101F780000007F8030E030383018301830183018C2
:101F88003018301830183018303030E07F800000BA
:101F980000003FF0183018101800188018801F80B3
:101FA8001880188018001800181018303FF000002A
:101FB80000003FF0183018101800188018801F8093
:101FC8001880188018001800180018003C0000003D
:101FD80000000F90187030306010601060006000D2
:101FE8006078603060306030307018F00FB00000FA
:101FF80000007878303030303030303030303FF0DA
:102008003030303030303030303030307878000098
:1020180000000FC0030003000300030003000300D7
:102028000300030003000300030003000FC00000C7
:10203800000001F000600060006000600060006067
:10204800006000603060306030E019C00F000000B0
:10205800000078F8306030C03180330036003C0032
:102068003E003300318030C030603030787C000072
:1020780000003C001800180018001800180018008C
:102088001800180018001808181818383FF8000029
:102098000000E03CE038F078F078D8D8D8D8C89874
:1020A800CD98CD98C518C718C218C018E07C000094
:1020B8000000C078E030F030F830DC30CE30C73087
:1020C800C3B0C1F0C0F0C070C030C030E0780000CC
:1020D80000000FC0387070386018601860186018F9
:1020E8006018601860186018703838700FC00000E9
:1020F80000003FC0187018381818181818381870C9
:102108001FC0180018001800180018003C00000034
