:03000000026D3C52
:0C6D3C00787FE4F6D8FD758130026D838D
:0B82BE00E02493F582E43402F58322F3
:10817900C2BCD2AC759852758DFAE4F58BD28E904B
:0681890002F7F0A3F02252
:10822D009002F7E0FFA3E0B507037F00227F012254
:108147009002F71282BEE0FF9002F7E004F0E0C36E
:0881570094644002E4F0D2AC94
:01815F0022FD
:080003003099FD8F99C299228A
:03002300027E83D7
:107E8300C0E0C083C082C0D0309819C2989002F875
:107E93001282BEE599F09002F8E004F0E0C3946426
:0D7EA3004002E4F0D0D0D082D083D0E03295
:107C9600E0F580D2A3E490033BF0A3F022C3900367
:107CA6003BE094002290033BE004F0229001E4E0E4
:107CB600FBA3E0FAA3E0F922EDF0A3EBF0E4FFC2A8
:0C7CC600AF22D2B6D2B77580FFD2AF2239
:1073470090020E127CBE12830090020EE0FF7006C0
:10735700C2B7C2B68012EFB40106C2B7D2B6800870
:10736700EFB40204D2B7C2B690020F127C96127C19
:10737700A3500BA3E004F070F5127CAB80F0C2A31E
:10738700900210E0F580C2A1127C9B127CA3500BE7
:10739700A3E004F070F5127CAB80F0D2A112830059
:0473A700127CC8226A
:106ED6009001D8127CBE1283009001D8E0FF7006A4
:106EE600C2B7C2B68012EFB40106C2B7D2B68008E6
:106EF600EFB40204D2B7C2B69001D9E0FF04F08F16
:106F060080127C99127CA3500BA3E004F070F5125A
:106F16007CAB80F0C2A39001DAE0FBA3E475F0013C
:106F2600122B41A9F0FA122A6CF580C2A1127C9BA1
:106F3600127CA3500BA3E004F070F5127CAB80F03A
:106F4600D2A19001DDE014F070AE128300127CC86D
:016F56002218
:0B6DC800900209EFF0A3EDF0A3EBF048
:106DD300C2AF128300E4900209F0A3E0FF7006C281
:106DE300B7C2B68012EFB40106C2B7D2B68008EFBD
:106DF300B40204D2B7C2B690020B127C96127CA3E3
:106E0300500BA3E004F070F5127CAB80F0C2A375C5
:106E130080FF127C9B127CA3500BA3E004F070F55F
:106E2300127CAB80F0C2A290020CE580F0127C9B36
:106E3300127CA3500BA3E004F070F5127CAB80F03E
:106E4300D2A2128300D2B6D2B7D2AF90020CE0FF27
:016E5300221C
:1076FC009001E4EBF0A3EAF0A3E9F0127CB2122BB8
:10770C0057F47003E5F0F46038122B57FBAAF0EA3B
:10771C00FDE4FF126DC8127CB2900002122A85FCA7
:10772C006F6012122B57FBAAF0EAFD900210ECF0DE
:10773C00E4FF1273479001E5E475F003122B2B80E4
:02774C00BA225F
:0100290022B4
:1070C3002562782025627820256278202562782041
:1070D3000025626420002562782025627820636899
:1070E3002562783A2562782063682562783A2562BA
:1070F300782063682562783A256278206368256280
:10710300783A2562782000627573770079766D6925
:1071130078006873636F6D006D6F646500370038C6
:107123000030313233343536373839414243444500
:02713300460014
:0455810041035A0088
:106E540012002A9001D5E0FBA3E0FAA3E0F922A3F3
:106E6400F0A37401F0A322FFE0244BF582E4340381
:106E7400F583EFF022E0FF9001E17401F0A37403C5
:106E8400F0A37447F07B017A03794222EBF0A3EA82
:106E9400F0A3E9F022A3F0A3E4F0A322900001E41C
:106EA40075F001022B829001E074FFF0A322A3F09D
:106EB400A3E4F0A322E05401FB7D2022250BF50B73
:106EC400A3E0540322122DD4022A6CA3F0A3E4F00D
:026ED400A322F7
:107135009001E3126E90A3126E5A126EC97002FF8F
:10714500229001E6126E5A126EC9B4200B9001E628
:10715500126E5A126EA080E99001E6126E5A122D37
:10716500D4C003C002C0019001E3126E5A122DF47F
:1071750080239001E6126E5A126EC9FEB42010E407
:10718500122AB29001E6126E5A126EA07F0122EE0B
:1071950070037F01229001E6126E5A126EA080D212
:067C59009001DD126E90A7
:107C5F00E4F508F5099001DD126E5A122A6C6022C4
:107C6F009001DDA3E475F001122B41A9F0FA122A5D
:107C7F006CFF3395E0FEEF2509F509EE3508F508A1
:067C8F0080D3AE08AF092E
:017C950022CC
:01002A0022B3
:1079F600E4F50B900342E05403126EC025E025E047
:107A0600126EC0C454F0126EC0C4333354C0250B7A
:107A1600F50B900341E0B5070D900346E0B50B0664
:107A2600E4900351F0229003517401F0900346E56F
:077A36000BF0900341EFF09B
:017A3D002226
:10779E00E4F508F509F50AF50BC003C002126EAA4E
:1077AE007470F074C3126E997400F07408126E99AE
:1077BE007400F07409126EB27400F0740A126EB294
:1077CE007400F0A3740BF0D002D003123F86900227
:0D77DE0010E50BF0AB0AAD09E4FF027347A4
:10811300126EAA7470F074D4126ECF7400F0A3744C
:0A81230008F0123F86AF080281BA8F
:0672E2009001DD126E9028
:1072E80012732C126E5A1265088F0812732C126EC4
:1072F8005A1265088F097F041200267F0312833112
:107308007F051280D79001DDE0F9A3E0FAA3E090B1
:1073180001E6C9126E91AB09AD087F011275987F1D
:0473280005027D7F5E
:10732C009001E67401F0A37401F0A374DDF07B010D
:0B733C007A0179E01271359001E02227
:10584400C003C002C001126EAA7470F074D9126E43
:10585400CF7400F0A37409F0A3E4F0A37400F0740F
:105864000A126E637403F07442126E637403F0A33D
:105874007447126E647403F0A37443126E64740369
:10588400F0A37448126E647403F0A37444126E643B
:105894007403F0A37449126E647403F0A374451284
:1058A4006E647403F0A3744AF0D001D002D00312E2
:1058B4003F86E509C454F0FF90033EE0FEC4333351
:1058C4003354802FFFE50A540F2F900350F09003B8
:1058D40047E0900342126E6B900348E0900343123A
:1058E4006E6B900349E0FF900344126E6C90034A80
:1058F400E0FF900345126E6C90034B126EB9E4FF07
:10590400127B9A90034C126EB97F01127B9A90031A
:105914004D126EB97F02127B9A90034E126EB97FBC
:1059240003127B9A7B017A03794B12599A900350A4
:10593400126E79124257900350E0FF126E89124D95
:10594400DBE4F50874472508F582E43403F5831293
:105954006EB9AF08127D0D0508E508C3940440E450
:10596400E4F525F526F5277528057F011282D390E5
:105974000350E0FF1279F67F08127DEBE4FF1281F9
:105984002D127ACD7B017A037947123B8F90035015
:05599400E090035AF051
:0159990022EB
:10721200E4FF127837EFB40202C32290033EE0B5D6
:107222000702D32290033EEFF0E0C433333354809D
:10723200FF900341E0547F4FF07F01127D7F900366
:107242003EE0FF1273AB7B017A03794B12599A909D
:107252000341126E79124257900341E0FF126E8988
:10726200124DDBE4FF12812D127ACD7B017A037974
:0872720047123B8F12802DD35F
:01727A0022F1
:10818F00126EAA7470F0A374D4126E647403F0A309
:06819F00743FF0023F8670
:065F65009001D5126E90C0
:105F6B009001E67401F0A37401F0A374D5F07B01EA
:105F7B007A0179DA1271359001DA126E5A127C5964
:105F8B009001D8EEF0A3EFF07A71790A12604FB559
:105F9B00060EA3E0B50709126E5712779E02604CEE
:105FAB007A71790F12604FB5060EA3E0B50709128F
:105FBB006E5412811302604C7A717915126059B5C7
:105FCB000616A3E0B50711126E5412584412802D19
:105FDB00E4FF1282D302604C7A71791B126059B5BF
:105FEB00060DA3E0B50708126E5412818F80527A0A
:105FFB00717920126063E0B5060FA3E0B5070A9034
:10600B00027CE0900291F080387A71792212606301
:10601B00E0B50612A3E0B5070D127E1F90027CE0DF
:10602B00FF127EB0801B7BFF7A717924127C599012
:10603B0001D8E0B5060BA3E0B50706126E57127236
:03604B00E27F01F0
:10604E00227BFF127C599001D8E0227BFF127C59F3
:0E605E009001D8E0227BFF127C599001D822DD
:104C0800FFF3EDE8E2DE6275737720302031204152
:104C180031203131627573772030203120413220C4
:104C2800443779766D69782034206D6F646520305B
:104C3800206873636F6D20312031206368303A310A
:104C480030206368313A3030206368323A3030209F
:104C58006368333A3030206873636F6D20312031D8
:104C6800206368323A3130206368313A303020634B
:104C780068303A3030206368333A303020687363E4
:104C88006F6D20312031206368313A3130206368FC
:104C9800303A3030206368323A3030206368333A33
:104CA8003030206873636F6D2032203220636832A1
:104CB8003A3130206368303A3130206368313A3015
:104CC80030206368333A3030206873636F6D203268
:104CD8002032206368303A3130206368323A31300C
:104CE800206368313A3030206368333A30302068C6
:104CF80073636F6D20322032206368313A3130207F
:104D08006368303A3130206368323A303020636863
:104D1800333A3030206873636F6D2032203220635D
:104D280068303A3130206368313A31302063683274
:104D38003A3030206368333A3030206873636F6DDF
:104D480020322032206368313A3130206368323AA9
:104D58003130206368303A3030206368333A30307D
:104D6800206873636F6D20322032206368323A31D5
:104D780030206368313A3130206368323A3030206D
:104D88006368333A3030206873636F6D20332033A3
:104D9800206368303A3130206368313A313020631B
:104DA80068323A3130206368333A303020687363B0
:104DB8006F6D20312031206368333A3030206368CA
:104DC800313A3030206368323A3030206368303A04
:034DD80030302058
:10558500C1244403340000000041033800410339BD
:10559500004103330141033202410330014103312C
:1055A5000041032700420328000042032A0000426D
:1055B500032C000042032E00004102FB014102FAC8
:0955C5000041033A004102F90023
:106857007D017BFF7E007F26022A46900219E0FE1B
:1068670074112FF582E43402F5832274DF2FF58249
:10687700E43401F583E022900006E0FAA3E0FB7C14
:1068870000FFAE02022AD67C00AF03AE02122AD660
:10689700900006ECF0A3EDF02278FC7C027D017BF2
:1068A70001227D017BFF7E007F0E022A46E4F0A3D2
:1068B700F0A3F0A322E508F090027AE004F0227D2D
:1068C700017BFF7E00022A46900009E0F8A3E0F969
:1068D700A3E0FAA3E0FB22E412283B900009022D73
:1068E70057F0A37420F0A37403F0E4A3F0229002FE
:1068F7004AE0900333229002117402F0A37432F03D
:10690700A32234FFFE7C007D06022AD690027AE09D
:0369170024112226
:1065E30012822DEF640160030266B243E11012814F
:1065F300478F08E508B40218900248E07012900231
:106603007A04F0900211E508F09002487401F02238
:10661300E5086403702A900212E0FF64526004EFFD
:10662300B4531D9002F9E0701790027AE0FFD394FF
:1066330003500D9002F97401F01268671268BC22CE
:10664300E508B4031B90024CE0701512691312683D
:106653006A1268BC90024C7401F0E49002F9F022D3
:1066630090024CE06401703512691312686AE50800
:10667300F07B017A027911124A24EF602F900326EE
:106683007401F0900212E09002FCF0E4A3F0900297
:1066930013E090027CF09003257402F02212691338
:1066A30012686A1268BCE0D39408400A028007E4C7
:0666B30090032EF0A3F09D
:0166B90022BE
:10800700E4900248F090024CF090027AF09002114E
:108017001268B51268B5F0A3F0A3F0900325F0A39A
:06802700F09002FCF022C3
:0982D300EF6003C20122D2012276
:0C82B200C200C201C223E490035CF02271
:08774E009001D5EEF0A3EFF06D
:107756009001D5E07002A3E0603DE49001D7F0A36C
:10776600F09001D7E0FEA3E0FFE4FCFD7B1BFAF9F5
:10777600F8D3122D1940109001D8E004F070E29071
:1077860001D7E004F080DA9001D6E024FFF0900102
:07779600D5E034FFF080B9DB
:01779D0022C9
:10529C009000001268B474C8F0A37464F0E4A3F036
:1052AC0012791812824D1282B2128007E4FF128218
:1052BC003D126F577F4D12454F127473752B00754D
:1052CC002C28752D01752EE09003287401F0A37421
:1052DC00E0F0752F00753004A37407F0A304F07F81
:1052EC0098128325EF5410FFC4540F900005F01250
:1052FC0065E3900326E0B401097B017A0279FC1284
:10530C005F65900326E0B401031280073023071277
:10531C0072125002C22312822DEF6009900003E03A
:10532C00752700F528E52864014527700DF527F54C
:10533C0028900004E0752500F526E5266401452536
:10534C00701E900248E07018127A86900291E0FF6D
:10535C0090028FE06F600312454F7525007526147F
:10536C00E5306401452F7019900254E0C39401405C
:10537C0010900240E0B40109752F007530041260E2
:10538C006CE52C6401452B703C900254E070369017
:10539C000240E0B4012F900327E0FF74017E00A8C7
:1053AC0007088005C333CE33CED8F9FF127CD290D8
:1053BC000327E004F0752B00752C28E0C3940640FD
:1053CC0007E4F08003127E51900328E07004A3E000
:1053DC006401700F900234F0A3F090032804F0A342
:1053EC0074E0F090032AE07004A3E064017016905E
:1053FC000240E0B4010F900005E0FF1279ACE4909C
:0B540C00032AF0A3F043E1100252FB62
:10791800E4F5B8F5A8F58775E127F5D0758922F55E
:10792800881281791282DC1280F6E4F58EF5A2D2F3
:1079380099D2AF00F593F5944391035392FCF595D2
:10794800F596F5B1F5B2F5B375B404C2E9C292C2C1
:0A79580093C294C295C296C2972212
:086789009001DDEFF0A3EDF03B
:1067910078DF7C017A4C79087F061268C69001DDAA
:1067A100E014603014604714605E14607514700367
:1067B10002683D24056003026856E4F5EA9001DEB3
:1067C100E0FF7004F5DA800375DA42126872F5FAB7
:1067D100E4F5F222E4F5EB9001DEE0FF7004F5DB75
:1067E100800375DB42126872F5FBE4F5F322E4F5F0
:1067F100EC9001DEE0FF7004F5DC800375DC4212F1
:106801006872F5FCE4F5F422E4F5ED9001DEE0FFB9
:106811007004F5DD800375DD42126872F5FDE4F563
:10682100F522E4F5EE9001DEE0FF7004F5DE800371
:1068310075DE42126872F5FEE4F5F622E4F5EF909A
:1068410001DEE0FF7004F5DF800375DF421268723C
:05685100F5FFE4F5F77E
:01685600221F
:0F824D00E4F5E9F5F975D90475D84043A6802208
:05454F00900006EFF0F2
:1045540078077C007A4C790E1268A978157C007A69
:104564004C791C1268A978237C007A4C792A7F083C
:104574001268C6782B7C007D017BFF7A4C79327EF1
:10458400007F07122A4678327C007A4C7939126807
:104594005778587C007A4C795F126857787E7C0093
:1045A4007D017BFF7A4C798512685B78A47C007D61
:1045B400017BFF7A4C79AB12685B78CA7C007D0181
:1045C4007BFF7A4C79D112685B78F07C007D017BAB
:1045D400FF7A4C79F712685B78167C017D017BFFCA
:1045E4007A4D791D12685B783C7C017D017BFF7AF2
:1045F4004D794312685B78627C017D017BFF7A4DC3
:10460400796912685B78887C017D017BFF7A4D793A
:104614008F12685B78AE7C017D017BFF7A4D79B5A2
:1046240012685BE49001D4F0900006E0FE24B6FF2B
:10463400C3940A400674FC2FFF8005E490027DF0C9
:1046440090028FEEF0EFB408005062904656F828BE
:10465400287302466E02467302467A024680024678
:10466400870246950246A10246A99003398041E497
:10467400900339F0803DE490024B801990024B7412
:1046840001801290024A7401F09003337404F080A4
:1046940022E490024AF090033304F0801690027DE5
:1046A4007414F0800E90027D7441F0800690033300
:1046B4007401F090027DE0FFC39401400890033838
:1046C400EFF002474A900339E06401704990024BCD
:1046D400E0601B1268F5B4010B7402F090033274AD
:1046E40004F080237402F090033214F080191268ED
:1046F400F5B4010B7404F09003327402F080087472
:1047040001F090033204F0900333E0C454F0FF90BE
:104714000332E04F802C90024BE06005900333801D
:104724000C1268F5B4010B7404F09003327402F0B7
:1047340080087401F090033204F0900333E0FFC466
:1047440054F0900338F0900330E06003127B5790EC
:104754000338E0122E43477910479F1247A31447AA
:104764007B2047A12147B52447844047AC41479F5C
:1047740042000047C780091268A07A007958800770
:104784001268A07A00793212685B9002107403F008
:104794007B0F7D01E4FF1273478032801D8012126B
:1047A40068A07A0079F080221268A07A01791680D4
:1047B400191268A07A0079CA80101268A07A007968
:1047C400A480071268A07A00793212685BE490032F
:1047D40030F07B017A0279FC125F65900338E012B5
:1047E4002E43480510480F12481714480720481351
:1047F40021482224480B40481B41482642000048D7
:10480400318000E4FF8012E4FF80197F01800A7F79
:104814000180067F0180027F01127050800F7F01AA
:1048240080027F011270509001D47401F09001D481
:02483400E0FFA3
:01483600225F
:027EB000AB071E
:107EB200E4FFFEEBC3943D4021EBD39461501BEBF6
:107EC20024C3FFEE126909AA07EB24C3FFE4126977
:0A7ED20009AE05AF021267897F01B7
:017EDC002283
:1075F600E4FBFAFD7F90127BDAEEC4F854F0C8681B
:10760600FEEFC4540F48FFEEC4F854F0C868FAEF12
:10761600C4540F48FB2091047A007B637C007D0AEA
:10762600AF03AE02122AD6D3ED9409EC94005007AC
:10763600ED2430900227F0AE02AF037C007D0A12E3
:097646002AD6EF243090022CF04A
:01764F002218
:106259009000061268B4122D6300000000E4FF12DA
:1062690080B7900006EEF0A3EFF0E024E1F0900093
:1062790006E034FFF0E0FCA3E0FD1268DE7F007E5B
:10628900807D8C7CC31268CF12259F7B007A807930
:106299008C78431227997B9A7A9979CA784212267F
:1062A900901268E2E4FFFE7D207C411268CF12263D
:1062B90090122874AD07AC061268971268DE900038
:1062C90006E0FEA3E0FFC394EBEE94034015D3EF81
:1062D90094FFEE9403500C9000067403F0A374F538
:1062E900F08013D3EF940FEE9427400A90000674C0
:1062F90027F0A3740FF0900006E0FAA3E0FB7C03FB
:106309007DE8126888EF2430900221F07C037DE853
:106319001268907D6412687EEF2430900220F07D2F
:106329006412688E7D0A12687EEF243090021FF095
:0B6339007D0A12688E243090021EF0D6
:016344002236
:1076A9001268FD7450F0A37430F0A37461F0A31252
:1076B90068E890000CF090000CE0FFD39407501399
:1076C900126862E0FFEE6F900219F090000CE0047E
:1076D900F080E3E490000CF090000CE0FFD39408F4
:1076E9005010126867E0FF12000390000CE004F0EC
:0276F90080E629
:0176FB00226C
:1074D6001268FD744FF0900245E0900214F090029D
:1074E60046E0900215F0900247E09002161268E816
:1074F60090000CF090000CE0FFD394075013126834
:1075060062E0FFEE6F900219F090000CE004F0804C
:10751600E3E490000CF090000CE0FFD394085010C8
:10752600126867E0FF12000390000CE004F080E6AA
:017536002232
:10002E001010FFFFFFFFFFFFFFFFFFFFFFFFFFFFB0
:10003E00FFFFFFFFFFFFFFFFFFFFFFFFFFFFFFFFC2
:10004E00FFFFFFFFFFFFFFFFFFFFFFFFFFFFFFFFB2
:10005E00FFFFFFFFFFFFFFFFFFFFFFFFFFFFFFFFA2
:10006E00FFFFFFFFFFFFFFFFFFFFFFFFFFFFFFFF92
:10007E00FFFFFFFFFFFFFFFFFFFFFFFFFFFFFFFF82
:10008E00FFFFFFFFFFFFFFFFFFFFFFFFFFFFFFFF72
:10009E00FFFFFFFFFFFFFFFFFFFFFFFFFFFFFFFF62
:1000AE00FFFFFFFFFFFFFFFFFFFFFFFFFFFFFFFF52
:1000BE00FFFFFFFFFFFFFFFFFFFFFFFFFFFFFFFF42
:1000CE00FFFFFFFFFFFFFFFFFFFFFFFFFFFFFFFF32
:1000DE00FFFFFFFFFFFFFFFFFFFFFFFFFFFFFFFF22
:1000EE00FFFFFFFFFFFFFFFFFFFFFFFFFFFFFFFF12
:1000FE00FFFFFFFFFFFFFFFFFFFFFFFFFFFFFFFF02
:10010E00FFFFFFFFFFFFFFFFFFFFFFFFFFFFFFFFF1
:10011E00FFFFFFFFFFFFFFFFFFFFFFFFFFFFFFFFE1
:10012E00FFFF1010FFFFFFFFFFFFFFFFFFFFFFFFAF
:10013E00FFFFFFFFFFFFFFFFFFFFFFFFFFFFFFFFC1
:10014E00FFFFFFFFFFFFFFFFFFFFFFFFFFFFFFFFB1
:10015E00FFFFFFFFFFFFFFFFFFFFFFFFFFFFFFFFA1
:10016E00FFFFFFFFFFFFFFFFFFFFFFFFFFFFFFFF91
:10017E00FFFFFFFFFFFFFFFFFFFFFFFFFFFFFFFF81
:10018E00FFFFFFFFFFFFFFFFFFFFFFFFFFFFFFFF71
:10019E00FFFFFFFFFFFFFFFFFFFFFFFFFFFFFFFF61
:1001AE00FFFFFFFFFFFFFFFFFFFFFFFFFFFFFFFF51
:1001BE00FFFFFFFFFFFFFFFFFFFFFFFFFFFFFFFF41
:1001CE00FFFFFFFFFFFFFFFFFFFFFFFFFFFFFFFF31
:1001DE00FFFFFFFFFFFFFFFFFFFFFFFFFFFFFFFF21
:1001EE00FFFFFFFFFFFFFFFFFFFFFFFFFFFFFFFF11
:1001FE00FFFFFFFFFFFFFFFFFFFFFFFFFFFFFFFF01
:10020E00FFFFFFFFFFFFFFFFFFFFFFFFFFFFFFFFF0
:10021E00FFFFFFFFFFFFFFFFFFFFFFFFFFFFFFFFE0
:10022E00FFFFFFFF1010FFFFFFFFFFFFFFFFFFFFAE
:10023E00FFFFFFFFFFFFFFFFFFFFFFFFFFFFFFFFC0
:10024E00FFFFFFFFFFFFFFFFFFFFFFFFFFFFFFFFB0
:10025E00FFFFFFFFFFFFFFFFFFFFFFFFFFFFFFFFA0
:10026E00FFFFFFFFFFFFFFFFFFFFFFFFFFFFFFFF90
:10027E00FFFFFFFFFFFFFFFFFFFFFFFFFFFFFFFF80
:10028E00FFFFFFFFFFFFFFFFFFFFFFFFFFFFFFFF70
:10029E00FFFFFFFFFFFFFFFFFFFFFFFFFFFFFFFF60
:1002AE00FFFFFFFFFFFFFFFFFFFFFFFFFFFFFFFF50
:1002BE00FFFFFFFFFFFFFFFFFFFFFFFFFFFFFFFF40
:1002CE00FFFFFFFFFFFFFFFFFFFFFFFFFFFFFFFF30
:1002DE00FFFFFFFFFFFFFFFFFFFFFFFFFFFFFFFF20
:1002EE00FFFFFFFFFFFFFFFFFFFFFFFFFFFFFFFF10
:1002FE00FFFFFFFFFFFFFFFFFFFFFFFFFFFFFFFF00
:10030E00FFFFFFFFFFFFFFFFFFFFFFFFFFFFFFFFEF
:10031E00FFFFFFFFFFFFFFFFFFFFFFFFFFFFFFFFDF
:10032E00FFFFFFFFFFFF1010FFFFFFFFFFFFFFFFAD
:10033E00FFFFFFFFFFFFFFFFFFFFFFFFFFFFFFFFBF
:10034E00FFFFFFFFFFFFFFFFFFFFFFFFFFFFFFFFAF
:10035E00FFFFFFFFFFFFFFFFFFFFFFFFFFFFFFFF9F
:10036E00FFFFFFFFFFFFFFFFFFFFFFFFFFFFFFFF8F
:10037E00FFFFFFFFFFFFFFFFFFFFFFFFFFFFFFFF7F
:10038E00FFFFFFFFFFFFFFFFFFFFFFFFFFFFFFFF6F
:10039E00FFFFFFFFFFFFFFFFFFFFFFFFFFFFFFFF5F
:1003AE00FFFFFFFFFFFFFFFFFFFFFFFFFFFFFFFF4F
:1003BE00FFFFFFFFFFFFFFFFFFFFFFFFFFFFFFFF3F
:1003CE00FFFFFFFFFFFFFFFFFFFFFFFFFFFFFFFF2F
:1003DE00FFFFFFFFFFFFFFFFFFFFFFFFFFFFFFFF1F
:1003EE00FFFFFFFFFFFFFFFFFFFFFFFFFFFFFFFF0F
:1003FE00FFFFFFFFFFFFFFFFFFFFFFFFFFFFFFFFFF
:10040E00FFFFFFFFFFFFFFFFFFFFFFFFFFFFFFFFEE
:10041E00FFFFFFFFFFFFFFFFFFFFFFFFFFFFFFFFDE
:10042E00FFFFFFFFFFFFFFFF1010FFFFFFFFFFFFAC
:10043E00FFFFFFFFFFFFFFFFFFFFFFFFFFFFFFFFBE
:10044E00FFFFFFFFFFFFFFFFFFFFFFFFFFFFFFFFAE
:10045E00FFFFFFFFFFFFFFFFFFFFFFFFFFFFFFFF9E
:10046E00FFFFFFFFFFFFFFFFFFFFFFFFFFFFFFFF8E
:10047E00FFFFFFFFFFFFFFFFFFFFFFFFFFFFFFFF7E
:10048E00FFFFFFFFFFFFFFFFFFFFFFFFFFFFFFFF6E
:10049E00FFFFFFFFFFFFFFFFFFFFFFFFFFFFFFFF5E
:1004AE00FFFFFFFFFFFFFFFFFFFFFFFFFFFFFFFF4E
:1004BE00FFFFFFFFFFFFFFFFFFFFFFFFFFFFFFFF3E
:1004CE00FFFFFFFFFFFFFFFFFFFFFFFFFFFFFFFF2E
:1004DE00FFFFFFFFFFFFFFFFFFFFFFFFFFFFFFFF1E
:1004EE00FFFFFFFFFFFFFFFFFFFFFFFFFFFFFFFF0E
:1004FE00FFFFFFFFFFFFFFFFFFFFFFFFFFFFFFFFFE
:10050E00FFFFFFFFFFFFFFFFFFFFFFFFFFFFFFFFED
:10051E00FFFFFFFFFFFFFFFFFFFFFFFFFFFFFFFFDD
:10052E00FFFFFFFFFFFFFFFFFFFF1010FFFFFFFFAB
:10053E00FFFF00000000FFFFFFFFFFFFFFFFFFFFB9
:10054E00FF000000000000FFFFFFFFFFFFFFFFFFA7
:10055E000000020202020000FFFFFFFFFFFFFFFF8D
:10056E000000020202020000FFFFFFFFFFFFFF007C
:10057E00000202000002020000FFFFFFFFFFFF006B
:10058E00000202000002020000FFFFFFFFFF00005A
:10059E0002020000000002020000FFFFFFFF000049
:1005AE00020200FFFF0002020000FFFFFF00000238
:1005BE00020000FFFF000002020000FFFF00000229
:1005CE000200000000000002020000FF0000020214
:1005DE0002020202020202020202000000000202F5
:1005EE0002020202020202020202000000000202E5
:1005FE0000000000000000000202000000000202E5
:10060E000000FFFFFFFF00000202000000000202D8
:10061E000000FFFFFFFF00000202000000000000CC
:10062E000000FFFFFFFF00000000000010100000A0
:10063E00000000000000000000000000FFFF0002AC
:10064E0002020202020202020202000000FF000287
:10065E000202020202020202020202000000000076
:10066E000002020000000000020202020000FF0071
:10067E0000020200FFFFFF00000202020000FF0066
:10068E0000020200FFFFFF00000202020000FF0056
:10069E0000020200000000000202020000FFFF0044
:1006AE00000202020202020202020000FFFFFF002D
:1006BE00000202020202020202020000FFFFFF001D
:1006CE0000020200000000000202020000FFFF0014
:1006DE0000020200FFFFFF00000202020000FF0006
:1006EE0000020200FFFFFF000002020200000000F5
:1006FE0000020200000000000202020200000002DE
:10070E0002020202020202020202020000000002C3
:10071E0002020202020202020202000000FF0000B8
:10072E00000000000000000000000000FFFF10109D
:10073E00FFFFFF00000000000000000000FFFFFFB1
:10074E00FFFF00000202020202020202000000FF8E
:10075E00FF00000202020202020202020200000078
:10076E000000000202000000000000020202000071
:10077E0000000202020000FFFFFF00000202000064
:10078E00000002020000FFFFFFFFFF000202000058
:10079E00000002020000FFFFFFFFFFFF000000004D
:1007AE00000002020000FFFFFFFFFFFFFFFFFFFF41
:1007BE00000002020000FFFFFFFFFFFFFFFFFFFF31
:1007CE00000002020000FFFFFFFFFF00000000001C
:1007DE00000002020000FFFFFFFFFF000202000008
:1007EE0000000202000000FFFFFF000002020000F6
:1007FE0000000202020000000000000202020000DF
:10080E00FF000002020202020202020202000000C7
:10081E00FFFF00000202020202020202000000FFBD
:10082E00FFFFFF0000000000000000000000FFFFBF
:10083E001010000000000000000000000000FFFF8C
:10084E00FFFF00000202020202020202020000FF8B
:10085E00FFFF000002020202020202020202000078
:10086E00FFFF000002020000000000020202000072
:10087E00FFFF000002020000FFFF00000202000066
:10088E00FFFF000002020000FFFF00000202000056
:10089E00FFFF000002020000000000020202000042
:1008AE00FFFF00000202020202020202020000FF2B
:1008BE00FFFF00000202020202020202000000FF1D
:1008CE00FFFF000002020000020202000000FFFF14
:1008DE00FFFF000002020000000202020000FFFF04
:1008EE00FFFF00000202000000000202020000FFF3
:1008FE00FFFF000002020000FF00000202020000E3
:10090E00FFFF000002020000FFFF000002020200D3
:10091E0000FF000002020000FFFFFF0000020202C3
:10092E0000FF000000000000FFFFFFFF00000000BE
:10093E0000FF101000000000FFFFFFFFFFFFFFFF92
:10094E00000000000000000000FFFFFFFFFFFF009F
:10095E000000000000000C0C0000FFFFFFFF000075
:10096E000C0C000000000C0C0C0000000000000C31
:10097E000C0C000000000C0C0C0C000000000C0C09
:10098E000C0C000000000C0C0C0C0C0C0C0C0C0CC9
:10099E000C0C000000000C0C0C0C0C0C0C0C0C0CB9
:1009AE000C0C000000000C0C0C000C0C0C0C000CC1
:1009BE000C0C000000000C0C0C00000C0C00000CC9
:1009CE000C0C000000000C0C0C0000000000000CD1
:1009DE000C0C000000000C0C0C0000000000000CC1
:1009EE000C0C000000000C0C0C0000FFFF00000CB3
:1009FE000C0C000000000C0C0C0000FFFF00000CA3
:100A0E000C0C000000000C0C0C0000FFFF00000C92
:100A1E000C0C000000000C0C0C0000FFFF00000C82
:100A2E000C0C000000000000000000FFFF000000A2
:100A3E00000000001010FF00000000000000000089
:100A4E000000000000FFFF0000020202020202028C
:100A5E000202020000FFFF00000202020202020276
:100A6E000202020000FFFF00000000000000020270
:100A7E000200000000FFFFFFFFFFFFFF0000020269
:100A8E00020000FFFFFFFFFFFFFFFFFF000002025B
:100A9E00020000FFFFFFFFFFFFFFFFFF000002024B
:100AAE00020000FFFFFFFFFFFFFFFFFF000002023B
:100ABE00020000FFFFFFFFFFFFFFFFFF000002022B
:100ACE00020000FFFFFFFFFFFFFFFFFF000002021B
:100ADE00020000FFFFFFFF00000000FF0000020207
:100AEE00020000FFFFFFFF000202000000000202F2
:100AFE00020000FFFFFFFF000202020000020202DE
:100B0E00020000FFFFFFFF000002020202020202CB
:100B1E00000000FFFFFFFFFF0000020202020200C2
:100B2E000000FFFFFFFFFFFFFF00000000000000BE
:100B3E0000FFFFFFFFFF1010FFFFFFFFFFFFFFFF94
:100B4E00FFFFFFFFFFFFFFFFFFFFFFFFFF000000A4
:100B5E0000000000FFFFFFFFFFFFFFFF000001018D
:100B6E0001010000FFFFFFFFFFFFFF000001010179
:100B7E0001010000FFFFFFFFFFFF00000101010167
:100B8E00010000FFFFFFFFFFFF0000010101010157
:100B9E000000000000000000000001010101010141
:100BAE00010101010101000000010101010101012A
:100BBE00010101010101000000010101010101011A
:100BCE00010101010101000000000101010101010B
:100BDE000101010101010000FF00000101010101FD
:100BEE000000000000000000FFFF000001010101F5
:100BFE00010000FFFFFFFFFFFFFFFF0000010101EB
:100C0E0001010000FFFFFFFFFFFFFFFF00000101DA
:100C1E0001010000FFFFFFFFFFFFFFFFFF000000CD
:100C2E0000000000FFFFFFFFFFFFFFFFFFFFFFFFC2
:100C3E00FFFFFFFFFFFFFFFF1010FFFFFFFFFFFF94
:100C4E00FFFFFFFFFFFFFFFFFFFFFFFFFFFF0000A4
:100C5E000000000000FFFFFFFFFFFFFFFFFF00008F
:100C6E00010101010000FFFFFFFFFFFFFFFF00007A
:100C7E0001010101010000FFFFFFFFFFFFFFFF0069
:100C8E000001010101010000FFFF00000000000053
:100C9E00000001010101010000FF0000010101013E
:100CAE00010101010101010100000000010101012A
:100CBE000101010101010101010000000101010119
:100CCE00010101010101010101000000000000000D
:100CDE00000001010101010000FF00000000000002
:100CEE00000001010101010000FFFFFFFFFFFF00F7
:100CFE000001010101010000FFFFFFFFFFFF0000E7
:100D0E0001010101010000FFFFFFFFFFFFFF0000D7
:100D1E00010101010000FFFFFFFFFFFFFFFF0000C9
:100D2E000000000000FFFFFFFFFFFFFFFFFFFFFFC0
:100D3E00FFFFFFFFFFFFFFFFFFFF1010FFFFFFFF93
:100D4E000000000000000000FFFFFFFFFFFFFFFF9D
:100D5E000000010101010000FFFFFFFFFFFFFFFF89
:100D6E000000010101010000FFFFFFFFFFFFFFFF79
:100D7E000000010101010000FFFFFFFFFFFFFFFF69
:100D8E000000010101010000FFFFFFFF0000000055
:100D9E00000001010101000000000000000001013F
:100DAE00000001010101000001010000000001012D
:100DBE00010001010101000101010000000001011B
:100DCE000101010101010101010100000000010109
:100DDE00010101010101010101010000FF000001FB
:100DEE000101010101010101010000FFFFFF0000EF
:100DFE0001010101010101010000FFFFFFFFFF00E2
:100E0E00000101010101010000FFFFFFFFFFFFFFD5
:100E1E000000010101010000FFFFFFFFFFFFFFFFC8
:100E2E00FF000001010000FFFFFFFFFFFFFFFFFFBC
:100E3E00FFFF00000000FFFFFFFFFFFF1010FFFF8E
:100E4E00FFFFFFFFFFFF0000000000000000FFFF9C
:100E5E00FFFFFFFFFF000002020202020000FFFF81
:100E6E00FFFFFFFF00000202020202020000FFFF6E
:100E7E00FFFFFF000002020200000202000000005D
:100E8E00000000000202020000000202000000004A
:100E9E000202020202020200FF0002020000000033
:100EAE000202020202020200FF0002020000000023
:100EBE000202000000020200FF0002020000000019
:100ECE00020200FF00020200FF000202000000000A
:100EDE000202000000020200FF00020200000000F9
:100EEE000202020202020200FF00020200000000E3
:100EFE0002020202020202000000020200000000D2
:100F0E000000000000020202000002020000FFFFCB
:100F1E00FFFFFFFF00000202020202020000FFFFBD
:100F2E00FFFFFFFFFF000002020202020000FFFFB0
:100F3E00FFFFFFFFFFFF0000000000000000101089
:100F4E000000000000FFFFFFFFFFFF000000000099
:100F5E000001010100FFFFFFFFFFFF000101010083
:100F6E000001010100FFFFFFFFFFFF000101010073
:100F7E000001010100FFFFFFFFFFFF000101010063
:100F8E000001010100FFFFFFFFFFFF000101010053
:100F9E00000101010000FFFFFFFF00000101010041
:100FAE00000101010100FFFFFFFF0001010101002F
:100FBE00000001010100FFFFFFFF00010101000021
:100FCE0000000101010000FFFF000001010100000F
:100FDE00FF0000010101000000000101010000FFFF
:100FEE00FFFF000001010100000101010000FFFFF1
:100FFE00FFFF000000010100000101000000FFFFE3
:10100E00FFFFFF00000101010101010000FFFFFFD2
:10101E00FFFFFFFF0000010101010000FFFFFFFFC6
:10102E00FFFFFFFFFF00000101000000FFFFFFFFB9
:10103E00FFFFFFFFFFFF0000000000FFFFFFFFFFAD
:10104E00101000000000000000FFFFFFFFFFFFFF79
:10105E00FFFF00000101010000FFFFFFFFFFFFFF88
:10106E00FFFF00000101010000FFFFFFFFFFFFFF78
:10107E00FFFF00000101010000FFFFFFFFFFFFFF68
:10108E00FFFF00000101010000FFFFFFFFFFFFFF58
:10109E00FFFF00000101010000FFFFFFFFFFFFFF48
:1010AE00FFFF00000101010000FFFFFFFFFFFFFF38
:1010BE00FFFF00000101010000FFFFFFFFFFFFFF28
:1010CE00FFFF00000101010000FFFFFFFFFFFFFF18
:1010DE00FFFF00000101010000FFFFFFFFFF000006
:1010EE00000000000101010000FFFFFFFFFF0000F4
:1010FE00000000000101010000FFFFFFFF000001E2
:10110E0000000000010101000000000000000101CC
:10111E0000000000010101010101010101010101B5
:10112E0000000000010101010101010101010101A5
:10113E0000000000000000000000000000000000A1
:10114E0000001010FFFFFFFFFFFFFFFFFFFFFFFF7D
:10115E00FFFFFFFFFFFFFFFFFFFFFFFFFFFFFFFF91
:10116E00FFFFFFFFFFFFFFFFFFFFFFFFFFFFFFFF81
:10117E00FFFFFFFFFFFFFFFF00000000000000FF6A
:10118E00FFFFFFFFFFFFFF00000001010100000055
:10119E00FFFFFFFFFFFF0000010101010101010040
:1011AE0000FFFFFFFF00000101010000000101012F
:1011BE000000FFFF00000001010000FF0000010120
:1011CE00000000FF00000101010000FF000001010E
:1011DE00010000FF00000101010000FF00000101FD
:1011EE00010000FF00000101010000FF00000101ED
:1011FE00010000FF00000001010000FF00000101DE
:10120E00000000FFFF0000010101000000010101CC
:10121E000000FFFFFFFF00000101010101010100BD
:10122E0000FFFFFFFFFFFF000000010101000000B3
:10123E00FFFFFFFFFFFFFFFF00000000000000FFA9
:10124E00FFFFFFFF1010FFFFFFFFFFFFFFFFFFFF7E
:10125E00FFFFFFFFFFFFFFFFFFFF0000000000008A
:10126E000000FFFFFFFFFFFF00000000020202026E
:10127E00000000FFFFFFFF00000002020202020258
:10128E0002020000FFFFFF00000202020000000049
:10129E000202020000FFFF00000202020000FF0037
:1012AE000000000000FFFF0000000202020200002A
:1012BE000000FFFFFFFFFFFFFF000002020202021D
:1012CE00020000FFFFFFFFFFFFFF00000000020211
:1012DE0002020000FFFFFF0000000000FFFF000001
:1012EE000202020000FFFF000002020200000000E6
:1012FE000202020000FFFF000000020202020202D0
:10130E0002020000FFFFFFFFFF00000002020202C8
:10131E00000000FFFFFFFFFFFFFFFF0000000000C7
:10132E000000FFFFFFFFFFFFFFFFFFFFFFFFFFFFBD
:10133E00FFFFFFFFFFFFFFFFFFFFFFFFFFFFFFFFAF
:10134E00FFFFFFFFFFFF1010FFFFFFFFFFFFFFFF7D
:10135E00FFFFFFFFFFFFFFFFFFFFFFFFFFFFFFFF8F
:10136E00FFFFFFFFFFFFFFFFFFFFFFFFFFFFFFFF7F
:10137E00FFFFFFFFFFFFFFFFFFFFFFFFFFFFFFFF6F
:10138E00FFFFFFFFFFFFFFFFFFFFFFFFFFFFFFFF5F
:10139E00FFFFFFFFFFFFFFFFFFFFFFFFFFFFFFFF4F
:1013AE00FFFFFFFFFFFFFFFFFFFFFFFFFFFFFFFF3F
:1013BE00FFFFFFFFFFFFFFFFFFFFFFFFFFFFFFFF2F
:1013CE00FFFFFFFFFFFFFFFF1010FFFFFFFFFFFFFD
:1013DE00FFFFFFFFFFFFFFFFFFFFFFFFFFFFFFFF0F
:1013EE00FFFFFFFFFFFFFFFFFFFFFFFFFFFFFFFFFF
:1013FE00FFFFFFFFFFFFFFFFFFFFFFFFFFFFFFFFEF
:10140E00FFFFFFFFFFFFFFFFFFFFFFFFFFFFFFFFDE
:10141E00FFFFFFFFFFFFFFFFFFFFFFFFFFFFFFFFCE
:10142E00FFFFFFFFFFFFFFFFFFFFFFFFFFFFFFFFBE
:10143E00FFFFFFFFFFFFFFFFFFFFFFFFFFFFFFFFAE
:10144E00FFFFFFFFFFFFFFFFFFFF1010FFFFFFFF7C
:10145E00FFFFFFFFFFFFFFFFFFFFFFFFFFFFFFFF8E
:10146E00FFFFFFFFFFFFFFFFFFFFFFFFFFFFFFFF7E
:10147E00FFFFFFFFFFFFFFFFFFFFFFFFFFFFFFFF6E
:10148E00FFFFFFFFFFFFFFFFFFFFFFFFFFFFFFFF5E
:10149E00FFFFFFFFFFFFFFFFFFFFFFFFFFFFFFFF4E
:1014AE00FFFFFFFFFFFFFFFFFFFFFFFFFFFFFFFF3E
:1014BE00FFFFFFFFFFFFFFFFFFFFFFFFFFFFFFFF2E
:1014CE00FFFFFFFFFFFFFFFFFFFFFFFF1010FFFFFC
:1014DE00FFFFFFFFFFFFFFFFFFFFFFFFFFFFFFFF0E
:1014EE00FFFFFFFFFFFFFFFFFFFFFFFFFFFFFFFFFE
:1014FE00FFFFFFFFFFFFFFFFFFFFFFFFFFFFFFFFEE
:10150E00FFFFFFFFFFFFFFFFFFFFFFFFFFFFFFFFDD
:10151E00FFFFFFFFFFFFFFFFFFFFFFFFFFFFFFFFCD
:10152E00FFFFFFFFFFFFFFFFFFFFFFFFFFFFFFFFBD
:10153E00FFFFFFFFFFFFFFFFFFFFFFFFFFFFFFFFAD
:10154E00FFFFFFFFFFFFFFFFFFFFFFFFFFFF10107B
:10155E00FFFFFFFFFFFFFFFFFFFFFFFFFFFFFFFF8D
:10156E00FFFFFFFFFFFFFFFFFFFFFFFFFFFFFFFF7D
:10157E00FFFFFFFFFFFFFFFFFFFFFFFFFFFFFFFF6D
:10158E00FFFFFFFFFFFFFFFFFFFFFFFFFFFFFFFF5D
:10159E00FFFFFFFFFFFFFFFFFFFFFFFFFFFFFFFF4D
:1015AE00FFFFFFFFFFFFFFFFFFFFFFFFFFFFFFFF3D
:1015BE00FFFFFFFFFFFFFFFFFFFFFFFFFFFFFFFF2D
:1015CE00FFFFFFFFFFFFFFFFFFFFFFFFFFFFFFFF1D
:1015DE001010FFFFFF0000FFFFFFFFFFF000000FE6
:1015EE00FFFFFFFF00222200FFFFFFFF002222006D
:1015FE00FFFFFFF0022002200FFFFFF0022002206B
:10160E000FFFFF002200002200FFFF00220FF0223A
:10161E0000FFF002200FF002200FF0022000000267
:10162E00200F002222222222220000222222222207
:10163E0022000022000000002200002200FFFF0016
:10164E002200002200FFFF002200000000FFFF002A
:10165E000000101000000000000000FF02222222F5
:10166E002222000F0222222222222000000220002B
:10167E0000222200F00220FFF0022200F00220FFE2
:10168E00F0022200F00220000022200FF00222229F
:10169E00222200FFF0022222222200FFF00220006E
:1016AE000022200FF00220FFF0022200F00220FFA5
:1016BE00F00222000002200000222200022222223A
:1016CE0022222000022222222222000F00000000ED
:1016DE00000000FF1010101010101010101010103D
:0A16EE001010101010101010101052
:107D4700122A85FF90035BE02F900210F02290012A
:107D5700EFE0FBA3E0FAA3E0F922F09001EFE0FBEC
:107D6700A3E475F001122B41A9F0FA022A6C9001E5
:087D7700E6E0D3648094802251
:06831900E490035BF0227A
:06831F0090035BEFF02269
:0B4F7E009001E7EFF0A3ECF0A3EDF0D2
:104F89009001E7E0FF25E0F0E02408F09001EEF061
:104F99009001E8E0FEA3E07803C333CE33CED8F91D
:104FA900F0EE9001E8F0A3E02408F09001E8E03485
:104FB90000F0AF037E007C017D02122AC4742E2FFB
:104FC900F974003EFA9001EF74FFF0A3EAF0A3E947
:104FD900127D619001EA127D619001EBF0E4A3F08A
:104FE9009001EAE0FF9001ECE0C39F40030250C545
:104FF900E4A3F09001EBE0FF9001EDE0C39F4003D3
:105009000250A6127D55122A6C127D4AE4FB7D02DC
:10501900FF127347127D55900001127D477B0112E3
:1050290050EF900002127D477B021250EF9000036F
:10503900127D477B031251029002107480F07B04A9
:105049001251029001F0E475F004122B2B9001EE3D
:10505900E0900210F07B0512510AA3E0900210F0D3
:105069007B0712510AE07E007802C333CE33CED8D3
:10507900F91250C612511520E7FA9001E8E025E02F
:1050890025E044081250C612511520E7FA9001EEA6
:10509900E004F09001EDE02404F0024FFC9001E7F8
:1050A900E09001EEF09001E9E004F070069001E86B
:0C50B900E004F09001ECE004F0024FE98C
:1050C50022900210F07B097D02E4FF1273477B0AF0
:1050D5007D02E4FF126DC8EF543F4480900210F04A
:1050E5007B0A7D02E4FF127347227D02E4FF1273FF
:1050F500479001EFE0FBA3E0FAA3E0F9227D02E48B
:10510500FF127347227D02E4FF1273479001E822E4
:0B5115007B0A7D02E4FF126DC8EF2250
:0B7537009001E0EFF0A3EDF0A3EBF0FB
:10754200A3127D581281A59001E6EFF0C3648094E6
:107552008040429001E0E030E0339001E1E0FFA39F
:10756200E0FD7C00A3127D58122A6CFB124F7E9024
:1075720001E6E014F09001E4E475F001122B2B9087
:1075820001E1E02402F0127D7550CF8005127D7575
:0575920050FB1200296E
:0175970022D1
:108097000500000600000700000800000900000AAC
:1080A700000012000020000B000C000D000E000065
:0355CE00012100B8
:1071A500900342E075F003A42497F9748035F0FA52
:1071B5009001E374FFF0A3EAF0A3E9F0229001DD6A
:1071C500E0FBA3E0FAA3E0F9229001E374FFF0A34A
:1071D5007480F0A374A3F022900001022A85122A7C
:1071E5006C540C1313543FF50822900002022A85B3
:1071F500900003022A857B017D127C00227B01E43D
:0D720500FDFC7F1C227B01E4FDFC7F41228B
:1077EB00125ADB1283197F041200267F0312833196
:1077FB00E4F508AF081278210508E508C3940640A4
:10780B00F27F01127D7F7FFF1283317F0812782177
:05781B00E490033FF0C2
:10782000221280D79001E1E4F0A37426F07B5AE4A1
:07783000FDFCFF126BF922C1
:103B8F009001DDEB1271BA7F021200267FFF1283C4
:103B9F0031900341E0122E433BD5113BE4213C0E03
:103BAF00223C3C313C76333CB0343CEA413D3691CB
:103BBF003D4CA13D74A23D9CB13DDCB33E16B43EDD
:103BCF004DC100003E9A1271C2122A6C20E103020D
:103BDF003E9A023D421271C2122A6C30E1081271F4
:103BEF00A57DFF123EB91271C21271DD20E10302F1
:103BFF003E9A9003431271A87B1D7D5D023E951284
:103C0F0071C2122A6C30E10C1271A57B0E7D487FB8
:103C1F00011275371271C21271DD20E103023E9A53
:103C2F009003431271A8E4FB7D14023E951271C2FA
:103C3F00122A6C30E1061271A5123ED51271C21212
:103C4F0071DD30E1099003431271A8123EDF12714A
:103C5F00C21271EF20E103023E9A9003441271A841
:103C6F007B0F7D3E023E951271C2122A6C30E10627
:103C7F001271A5123E9B1271C21271DD30E10990D3
:103C8F0003431271A8123EC11271C21271EF20E1EB
:103C9F0003023E9A9003441271A87B0F7D3E023EB1
:103CAF00951271C2122A6C30E1061271A5123E9B59
:103CBF001271C21271DD30E1099003431271A81223
:103CCF003EC11271C21271EF20E103023E9A9003BE
:103CDF00441271A87B0F7D14023E951271C2122AF5
:103CEF006C30E1061271A5123EA51271C21271DD80
:103CFF0030E1099003431271A8123ECB1271C21228
:103D0F0071EF30E1099003441271A8123EDF127176
:103D1F00C21271F520E103023E9A9003451271A879
:103D2F007B0F7D3E023E951271C2122A6C20E10379
:103D3F00023E9A1271A5E4FB7D29023E951271C2D3
:103D4F00122A6C30E1061271A5123ED51271C21201
:103D5F0071DD20E103023E9A9003431271A87B129A
:103D6F007D29023E951271C2122A6C30E106127142
:103D7F00A5123EA51271C21271DD20E103023E9A17
:103D8F009003431271A8E4FB7D3E023E951271C26F
:103D9F00122A6C30E10C1271A5E4FB7D297F011210
:103DAF0075371271C21271DD30E109900343127140
:103DBF00A8123EF31271C21271EF20E103023E9A74
:103DCF009003441271A87B127D3E023E951271C280
:103DDF00122A6C30E1061271A5123EAF1271C21297
:103DEF0071DD30E1099003431271A8123ECB1271BD
:103DFF00C21271EF20E103023E9A9003441271A8A0
:103E0F007B127D3E023E951271C2122A6C30E10682
:103E1F001271A5123EAF1271C21271DD30E109901D
:103E2F0003431271A8123EE91271C21271EF30E111
:103E3F005A9003441271A87B127D14023E951271A1
:103E4F00C2122A6C30E1081271A57D14123EB9120C
:103E5F0071C21271DD30E1099003431271A8123E55
:103E6F00E91271C21271EF30E1099003441271A887
:103E7F00123EF31271C21271F530E10F9003451229
:103E8F0071A87B127D3E7F0112753722E4FB7D14F2
:103E9F007F0112753722E4FB7D147F0112753722E3
:103EAF00E4FB7D147F0112753722E4FB7F0112754D
:103EBF003722E4FB7D3E7F0112753722E4FB7D3E06
:103ECF007F0112753722E4FB7D297F01127537229E
:103EDF007B0F7D147F0112753722E4FB7D3E7F013E
:0E3EEF00127537227B127D147F011275372267
:08830900900340E04480F022E3
:107A86007B787D01E4FF126DC8EF540FFF90034F22
:107A9600F0900340E06F602ED2237B31E4FDFF12AD
:107AA6006DC8EF547F900210F07B31E4FDFF127336
:107AB600477F4D1200267F4012831F1283199003C1
:077AC6004FE0900340F022A5
:0756E4009001DDEB1271BA29
:1056EB007F41120026900341E0122E43571F1157A2
:1056FB003021575D22578D3157AF3357CB34571F5E
:10570B00915730A1575DA2578DB157AFB357CBB45B
:10571B00000058079001DD1271C51271E36003029E
:10572B0057980257A59001DD1271C51271E3600BFA
:10573B001258081271B412583A8006127202126A89
:10574B00939001DD1271C51271DD1271E6603002AA
:10575B0057D99001DD1271C51271E3600B12580815
:10576B001271B412583A8006127202126A939001A7
:10577B00DD1271C51271DD1271E660030257D90299
:10578B0057FD9001DD1271C51271E3600D125821A6
:10579B001271B4E4FB7D310257F87B01E4FDFC7F11
:1057AB00310258049001DD1271C51271E3600C12C5
:1057BB0058211271B4E4FB7D1C80321272028039C5
:1057CB009001DD1271C51271DD1271E660247B024E
:1057DB00E4FDFCFF126A93E50825E0FFE433FE7459
:1057EB00AC2FF974803E1271B4E4FB7D467F01024D
:0C57FB0075377B01E4FDFC7F46126A93C9
:10580700227B02E4FDFCFF126A93E50825E0FFE432
:1058170033FE74AC2FF974803E227B02E4FDFCFF5B
:10582700126A93E50825E0FFE433FE74AC2FF974A0
:0D583700803E22E4FB7D1C7F0112753722AC
:102EB1009001DDEB1271BA7F0C120026900341E004
:102EC100122E432EF2112F04212F2D222F56312F96
:102ED10096332FD634301F41307F913099A130D1B4
:102EE100A23104B13158B331A4B431F6C10000327A
:102EF100639001DD1271C5122A6C30E00302308B40
:102F01000230929001DD1271C5122A6C30E0081274
:102F110071CE1232D880031232AD9001DD1271C52B
:102F21001271DD30E0030230BC0230C69001DD12C7
:102F310071C5122A6C30E0081271CE12326F800313
:102F41001232649001DD1271C51271DD30E00302AD
:102F510030F40230FE9001DD1271C5122A6C30E0AE
:102F6100081271CE1232D880031232AD9001DD12F7
:102F710071C51271DD30E0081271CE12330E80037B
:102F81001232F79001DD1271C51271EF30E00302C8
:102F910030700230789001DD1271C5122A6C30E078
:102FA100081271CE12326F80031232649001DD1269
:102FB10071C51271DD30E0081271CE1232C3800387
:102FC1001232839001DD1271C51271EF30E00302FC
:102FD10030700230789001DD1271C5122A6C30E038
:102FE100081271CE123279800312328E9001DD12F5
:102FF10071C51271DD30E0081271CE1232C3800347
:103001001232839001DD1271C51271EF30E00812A6
:1030110071CE7B0F0231E67B017D0F0231EF900112
:10302100DD1271C5122A6C30E0081271CE123279AC
:10303100800312328E9001DD1271C51271DD30E014
:10304100081271CE1232ED80031232B89001DD12F6
:1030510071C51271EF30E0081271CE12330E800388
:103061001232F79001DD1271C51271F530E00812CC
:1030710071CE7B0F0230F97B017D0F02315190013E
:10308100DD1271C5122A6C30E0071271CEE4FB80AB
:103091002F7B01E4FDFC80339001DD1271C5122A02
:1030A1006C30E0081271CE12331880031232E290B4
:1030B10001DD1271C51271DD30E00A1271CE7B0F94
:1030C1007D2C0232567B017D0F7C007F2C02326009
:1030D1009001DD1271C5122A6C30E0081271CE1216
:1030E100329980031232CD9001DD1271C51271DD6A
:1030F10030E00A1271CEE4FB7D4102325612720AAF
:103101000232609001DD1271C5122A6C30E00812A2
:1031110071CE12331880031232E29001DD1271C5B3
:103121001271DD30E0081271CE1233228008127163
:10313100FB7F17126A939001DD1271C51271EF3096
:10314100E00A1271CE7B127D410232567B017D1263
:103151007C007F410232609001DD1271C5122A6C40
:1031610030E0081271CE12329980031232CD9001F3
:10317100DD1271C51271DD30E0081271CE1232ED2F
:1031810080031232B89001DD1271C51271EF30E087
:103191000A1271CE7B127D410232561271FB7F41C0
:1031A1000232609001DD1271C5122A6C30E0081202
:1031B10071CE1232A380031233039001DD1271C567
:1031C1001271DD30E0081271CE12332C80061272BA
:1031D1000A126A939001DD1271C51271EF30E00A93
:1031E1001271CE7B127D170232567B017D127C005B
:1031F1007F170232609001DD1271C5122A6C30E036
:10320100081271CE1232A380031233039001DD1232
:1032110071C51271DD30E0081271CE12332C8006B7
:1032210012720A126A939001DD1271C51271EF30A8
:10323100E0081271CE12332280081271FB7F17123F
:103241006A939001DD1271C51271F530E00C1271B3
:10325100CE7B127D417F010275371271FB7F4112D6
:103261006A93227B01E4FDFC7F17126A9322E4FB3F
:103271007D177F0112753722E4FB7D177F011275DF
:1032810037227B01E4FDFC7F41126A93227B01E43A
:10329100FDFC7F17126A9322E4FB7D177F011275F3
:1032A1003722E4FB7D177F01127537227B01E4FD94
:1032B100FC7F2C126A93227B01E4FDFC7F41126AA0
:1032C1009322E4FB7D417F01127537227B01E4FDEE
:1032D100FC7F17126A9322E4FB7D2C7F0112753764
:1032E100227B01E4FDFC7F2C126A9322E4FB7D41E9
:1032F1007F01127537227B017D0F7C007F17126AD7
:1033010093227B01E4FDFC7F17126A93227B0F7DE0
:10331100177F0112753722E4FB7D2C7F011275376F
:10332100227B127D177F0112753722E4FB7D417FDD
:053331000112753722B6
:107ACD00E4FF1280D790033FE024FE600E04702384
:107ADD00127B017480F0A374A68009127B0174805F
:107AED00F0A374A9F0E4FB7D017F011275377FFFD0
:107AFD00128331227F031283317F041200269001FD
:067B0D00E374FFF0A32267
:10802D00E4FF1280D7900347E030E1127B017A0321
:10803D007947122EB17B017A0379471256E41283E8
:06804D0009E4FF027D7F43
:1016F80000000000000000000000000000000000E2
:1017080000000000000000000000000000000000D1
:10171800003E007E00FE01CE038E7F8E7F8E738E8C
:10172800738E738E7F8E7F8E01CE00FE007E003E0C
:1017380000000000020006000E001E003FFE7FFEB3
:101748007FFE3FFE1E000E000600020000000000A3
:101758000000000000400060007000787FFC7FFE01
:101768007FFE7FFC007800700060004000000000F1
:10177800000003C003C003C003C003C003C003C00C
:1017880003C03FFC1FF80FF007E003C00180000012
:1017980003C003C007E007E00E700E701C381C3849
:1017A800381C381C7FFE7FFE700E700E700E700E97
:1017B8007FF87FFC383E381E381E381E383C3FF80C
:1017C8003FF8383C381E381E381E383E7FFC7FF8FC
:1017D8000FF81FFC3C1C380E780E700E700070005D
:1017E80070007000700E700E380E3C1C1FFC0FF855
:1017F8007FF07FF07078703C703C703C70787FF0C0
:101808007FE0778073C071E070F07078703C701E74
:1018180000006006700E781E7C3E7FFE77EE73CE69
:10182800718E700E700E700E700E700E700E700E3F
:1018380000001FF81FF800E000E000E000E000E012
:1018480000E000E000E070E079E03FC01F800F009A
:1018580000000000000003C007800F001E003FFCCE
:101868003FFC1E000F00078003C0000000000000BE
:1018780000000000000003C001E000F000783FFC19
:101888003FFC007800F001E003C000000000000009
:1018980000000000018001800180018011881998F2
:1018A8001DB81FF80FF007E003C00180000000001A
:1018B800003E007E00FE01CE038E7F8E7F8E738EEB
:1018C800738E738E7F8E7F8E01CE00FE007E003E6B
:1018D800700E700E700E700E700E700E781E381C22
:1018E800381C1C381C380E700FF007E003C001804C
:1018F8000000380038003800380038003800380058
:1019080038003800380038063806380E3FFE3FFEEB
:101918000000000000000000000003800FE01C70C1
:10192800183038383838383818301C700FE00380D1
:101938000000000000000000000003C00FF01C3889
:101948001C000F0007E000F000381C380FF003C03F
:10195800000000000000000000000000000000007F
:10196800000000000000000000000000000000006F
:10197800000000000000000000000000000000005F
:10198800000000000000000000000000000000004F
:10199800000000000000000000000000000000003F
:1019A800000000000000000000000000000000002F
:1019B800000000000000000000000000000000001F
:1019C800000000000000000000000000000000000F
:1019D80000000000000000000000000000000000FF
:1019E80000000000000000000000000000000000EF
:1019F80000000000000000000000000000000000DF
:101A080000000000000000000000000000000000CE
:101A180000000000000000000000000000000000BE
:101A280000000000000000000000000000000000AE
:101A3800000000000000000000000000000000009E
:101A4800000000000000000000000000000000008E
:101A5800000000000000000000000000000000007E
:101A6800000000000000000000000000000000006E
:101A7800000000000000000000000000000000005E
:101A8800000000000000000000000000000000004E
:101A9800000000000000000000000000000000003E
:101AA800000000000000000000000000000000002E
:101AB800000000000000000000000000000000001E
:101AC800000000000000000000000000000000000E
:101AD80000000000000000000000000000000000FE
:101AE80000000000000000000000000000000000EE
:101AF80000000000000000000000000000000000DE
:101B080000000000000000000000000000000000CD
:101B1800000007000F800F800F800F80070007006C
:101B28000700020002000000020007000700020090
:101B38000000EE006600440088000000000000007D
:101B4800000000000000000000000000000000008D
:101B5800000008200820082008203FF80820082056
:101B68000820082008203FF808200820082008201E
:101B780000000FC01B603330333033001B000F00F0
:101B880003C0036013303B3033301B600FC00300C9
:101B980000003808441084200440048009001270B2
:101BA800E4880908120822084210822001C00000B7
:101BB80000000E001B00318031801B000E001C004D
:101BC8003678632061A060E0606030F01F9C000000
:101BD80000000000000000000000000000000000FD
:101BE800000000000000800060007000380018004D
:101BF8000000000400080018001000300030003019
:101C08000030003000300010001800080004000206
:101C180000008000400060002000300030003000EC
:101C280030003000300020006000400080000000DC
:101C3800000002004210222012400A800700FFFC28
:101C480007000A8012402220421002000200000011
:101C580000000000030003000300030003007FF8F6
:101C68007FF80300030003000300030000000000E6
:101C7800000000000000000000000000000000005C
:101C8800000018003C003C00180010002000400034
:101C980000000000000000000000000000007FF8C5
:101CA8007FF80000000000000000000000000000B5
:101CB800000000000000000000000000000000001C
:101CC8000000000000007800840084008400780090
:101CD800000000180030006000C00180030006000A
:101CE8000C00180030006000C000800000000000F8
:101CF80000000FE0183030183038307830D831987C
:101D0800331836183C183818301818300FE000000F
:101D18000000030007000F00030003000300030096
:101D28000300030003000300030003001FE000009A
:101D380000000FE01830301830183038007001C03B
:101D480003000E001800300830083FF83FF8000084
:101D5800000007C0183030183018003000E003C009
:101D680000E00030001830183018183007C00000A4
:101D7800000000C001C003C006C00CC018C030C0BD
:101D880060C0C0C0C0C0FFF800C000C003F00000C1
:101D980000003FF03FF030003000300037C03830EE
:101DA80030180018001830183018183007C0000014
:101DB800000007E01830303030003000300037E0E5
:101DC8003830301830183018301818300FC000006C
:101DD80000003FF83FF8201820180030006000C0CD
:101DE8000180030003000300030003000300000058
:101DF80000000780186030303030303018600FC075
:101E08001860303060186018601830300FC000005B
:101E1800000007801860303030183018301830381B
:101E2800187807980018303038301860078000009C
:101E3800000000000000000003000780030000000D
:101E480000000300078003000000000000000000FD
:101E580000000000000000000300078003000000ED
:101E680000000300078003800180070000000000D5
:101E780000000000001800600180060018006000E3
:101E88008000600018000600018000600018000053
:101E9800000000000000000000007FF87FF800004C
:101EA80000007FF87FF8000000000000000000003C
:101EB8000000800060001800060001800060001823
:101EC800000400180060018006001800600080000F
:101ED800000007800FC01CE038E038E011C0018026
:101EE80003000300020002000000020007000700D0
:101EF80000000FC030604010478888C890C890C85C
:101F080090C890C888D84770400830700FC000004B
:101F1800000003000300078007800CC00CC0186095
:101F280018601FE03030303060186018F03C000056
:101F380000003F80186018301830183018601FC033
:101F48001860183018181818181818303FC00000F2
:101F58000000078818683038601860086000600062
:101F6800600060006008601830301860078000006A
:101F780000007F8030E030383018301830183018C2
:101F88003018301830183018303030E07F800000BA
:101F980000003FF0183018101800188018801F80B3
:101FA8001880188018001800181018303FF000002A
:101FB80000003FF0183018101800188018801F8093
:101FC8001880188018001800180018003C0000003D
:101FD80000000F90187030306010601060006000D2
:101FE8006078603060306030307018F00FB00000FA
:101FF80000007878303030303030303030303FF0DA
:102008003030303030303030303030307878000098
:1020180000000FC0030003000300030003000300D7
:102028000300030003000300030003000FC00000C7
:10203800000001F000600060006000600060006067
:10204800006000603060306030E019C00F000000B0
:10205800000078F8306030C03180330036003C0032
:102068003E003300318030C030603030787C000072
:1020780000003C001800180018001800180018008C
:102088001800180018001808181818383FF8000029
:102098000000E03CE038F078F078D8D8D8D8C89874
:1020A800CD98CD98C518C718C218C018E07C000094
:1020B8000000C078E030F030F830DC30CE30C73087
:1020C800C3B0C1F0C0F0C070C030C030E0780000CC
:1020D80000000FC0387070386018601860186018F9
:1020E8006018601860186018703838700FC00000E9
:1020F80000003FC0187018381818181818381870C9
:102108001FC0180018001800180018003C00000034
:1021180000001F8070E0E070C030C030C030C030B8
:10212800C030C030C030CF30E1F070E01FEC003874
:1021380000003F8018E0187018301830187018E048
:102148001FC01B80198018C0186018303C7C000024
:1021580000000FD018703030301018000E000380C7
:1021680000E000302018301838182C3027E0000024
:1021780000007FF873386318430803000300030066
:1021880003000300030003000300030007800000AE
:102198000000787830303030303030303030303007
:1021A800303030303030303030301CE00FC000007C
:1021B8000000F0786030603060306030603060304F
:1021C80060306030306018C00D80070002000000E9
:1021D8000000C71C82088208C71847184510451018
:1021E8006DB06DB028A038E01040104010400000DD
:1021F8000000F07C6030306018C008800D80070057
:10220800020007000D8018C030606030F07C0000CC
:102218000000F03C6018303018600CC007800300E4
:10222800030003000300030003000300078000000D
:1022380000003FF8301820180030006000C001800E
:10224800030006000C001800300860187FF8000032
:102258000000001C0030006000600060006000604A
:102268000060006000600060006000600030001CDA
:1022780000008000C0006000300018000C0006005C
:102288000300018000C0006000300018000C00044A
:102298000000E000300018001800180018001800AE
:1022A8001800180018001800180018003000E00086
:1022B8000000000000000000000000000000000016
:1022C800020007000D8018C07070C01C00000000DC
:1022D80000000000000000000000000000000000F6
:1022E8000000000000000000000000000000FFFEE9
:1022F80000000E0007000180004000000000000000
:1023080000000000000000000000000000000000C5
:102318000000000000000000000000000F8030C036
:1023280000C00FC018C030C030C031D01F600000DE
:102338000000380018001800180018001FC01C60A2
:10234800183018301830183018301C603FC00000A2
:102358000000000000000000000000000FC018602E
:102368003060306030003000300018200FC00000AE
:102378000000007000300030003000300FB01870DE
:102388003030303030303030303018700FB000001E
:102398000000000000000000000000000FC01860EE
:1023A800303030303FF03000300018300FE000009F
:1023B800000003C006600660060006003FC0060075
:1023C8000600060006000600060006000F000000D2
:1023D800000000000000000000000FB018E018C066
:1023E80018C00F80070018C03060306018C00F8018
:1023F8000000380018001800180018001BC01E60E4
:102408001C30183018301830183018303C7800005C
:1024180000000000030003000000000007000300A4
:10242800030003000300030003000300078000000B
:10243800000001800180000000000380018001800D
:102448000180018001801980198019800F00000027
:1024580000003800180018001800180019F018C0FB
:1024680019801B001F801CC0186018303C7C0000BD
:10247800000007000300030003000300030003003B
:1024880003000300030003000300030007800000AB
:10249800000000000000000000000000DEF073985B
:1024A800631863186318631863186318F39C0000B3
:1024B80000000000000000000000000037C01C60A1
:1024C8001860186018601860186018603CF0000008
:1024D8000000000000000000000000000FC01860AD
:1024E8003030303030303030303018600FC00000BD
:1024F80000000000000000000000000037C01C6061
:102508001830183018301C601FC0180018003C0024
:102518000000000000000000000000000F8018E02C
:1025280030603060306018E00FE00060006000F05C
:102538000000000000000000000000001BC00EE0CA
:102548000C600C000C000C000C000C001E000000BD
:102558000000000000000000000000000FC018E0AC
:1025680018200E00030001C0106018600FC00000A2
:102578000000000000000600060006003FC006003C
:102588000600060006000600066006E007C0030015
:10541700EF543F4480900210F07B0A7D02E4FF22A4
:1054270075F020A424F8F9741635F0FA74FFF0A388
:10543700EAF0A3E9F022EFF0A3ECF0A3EDF0A3EB81
:10544700F0E517900210F0E4FB7D02FF22F0A3E0E5
:10545700FBA3E0FAA3E0F92225E025E0FDE02D44D7
:1054670002900210F07B097D02E4FF22900209E01E
:10547700FF04F0EF4480900210F07B047D02E4FF0C
:1054870022E517900210F07B017D02E4FF22E51769
:10549700900210F07B027D02E4FF22E517900210D4
:1054A700F07B037D02E4FF22A3E0900210F07B076C
:1054B7007D02E4FF22122A8575F020A424F8F974EE
:1054C7001635F0FA229001E4E0FFA3E0FD7C00909E
:1054D70001E9E0FEFB9001E6E0F9A3E0FAA3E02290
:1054E7009001EBE025E025E0FF9001EDE025E025C8
:1054F700E014FEC454F04F229001E7E4122B2B90E6
:1055070001E4E02408F09001E9E0D364809480226C
:10551700F0A3E0FEA3E0780322900210F07B057D64
:1055270002E4FF22F0900210F07B0F7D02E4FF22DD
:105537009001D87454F0A374FFF02275F003A424EB
:10554700F1F582E43401F58322A3E0900210F07BA9
:10555700087D02E4FF22E0900210F07B067D02E462
:10556700FF22ECF0A3EDF0A3EB22900001022A85C5
:0A557700E0FBA3E0FAA3E07E0022AF
:030026008F18220E
:038331008F172281
:107650009001D5EFF0A3EDF0900210EBF07B0B1250
:1076600076A19001D8E0900210F07B0C1276A190E8
:1076700001D9E0900210F07B0D7D02E4FF12734708
:107680009001D5E030E006A3E0448080069001D66A
:10769000E044C0900210F07B0E7D02E4FF127347BD
:0976A000227D02E4FF127347226F
:105ADB0090021074C0F07B1F7D02E4FF127347909D
:105AEB000210740C12552F1273471255377F021286
:105AFB005BDB7454F0A3744AF07B4C7F02125BF1B6
:105B0B0074FFF0A3746BF07F02125BE67480F0A35A
:105B1B00F0E4FBFD125BFA12553A7F01125BDB746A
:105B2B0055F0A3744AF07B4B7F01125BF174FFF0CD
:105B3B00A3746BF07F01125BE67480F0A3F07BF033
:105B4B007D04125BFA7480F0A3F07BC07D05125CC0
:105B5B00037480F0A3F07B7F7D06125C037480F0EE
:105B6B00A3F07B3F7D07125C0C744FF0A374B5F070
:105B7B007B957D08125C0C74AAF0E4A3F07BB27DDC
:105B8B00097F011276509001D874D4F0A374EAF017
:105B9B007B697D0A7F011276509001D874B5F0A312
:105BAB00743AF07B617D0B7F01127650E49001D843
:105BBB00F0A37494F07BE17D0C7F011276501255AB
:105BCB00377B4C7D0D7F01127650E4F517F51822CB
:105BDB007B4C7D011276509001D8227B1D7D0312E8
:105BEB0076509001D8227D021276509001D8227FF8
:105BFB00011276509001D8227F011276509001D875
:0A5C0B00227F011276509001D8228A
:1080D7009001E3EF12541F126DC8EF54C3FF9001D4
:0F80E700E3E0FE25E025E04FF012541C02734742
:107D7F009001E3EFF064087B0F7D027007127DA086
:107D8F0044028006E4127DA0440812552B1273475B
:107D9F0022FF126DC8EF540FFF9001E3E05407FE6E
:067DAF00C454F04FF02265
:047DEB009001DDEF37
:107DEF0012552F126DC8EF540FFF9001DEE4F0A370
:107DFF00EFF09001DDE0F4FFE4F4FEA3E05EFEA3FC
:107E0F00E05FFF9001DEEEF0A3EF12552B027347F8
:106BF9009001DD12543D12734712548812734712E3
:106C090054951273471254A21273479001DDE0FFA5
:106C190025E0125517C333CE33CED8F9FF9001DEE4
:106C2900EEF0FCA3EFF0FDA3E025E0FF9001DDE02D
:106C3900FB2F149001E0125517C333CE33CED8F988
:106C49002DFFEE3CCF24FFCF34FF9001E1F0A3EFFD
:106C5900F0EB1255201273479001E012555D127343
:106C6900479001DE1254AF1273479001E11255505B
:106C79001273479001DEE09001E112545F127347ED
:106C8900125420126DC8EF44C012541C12734712DB
:0A6C99005420126DC8EF20E7F62228
:10812D001280D77FFF1283319001E1E4F0A3742612
:0A813D00F07B5AE4FDFCFF026BF931
:105120009001FDEFF0A3EB1254359001FE1254569E
:10513000122A6CF522301704AF188002AF17EF1255
:10514000544A127347301604AF188002AF17125238
:1051500076301504AF188002AF1712528530140450
:10516000AF188002AF171252549001FDE004F030E6
:105170001304AF188002AF17900210EF12544D12B3
:105180007347301204AF188002AF171252763011F5
:1051900004AF188002AF17125285301004AF188088
:1051A00002AF171252549001FDE0041254541255EC
:1051B00071F522301704AF188002AF17900210EF7C
:1051C00012544D127347301604AF188002AF17EF18
:1051D00012548A127347301504AF188002AF17EFCC
:1051E000125497127347301404AF188002AF17EFB0
:1051F0001254A412529412547B12529404F030139D
:1052000004AF188002AF17900210EF12544D1273C2
:1052100047301204AF188002AF17900210EF1254FB
:105220008D127347301104AF188002AF179002102F
:10523000EF12549A127347301004AF188002AF1760
:10524000900210EF1254A71273479001FDE0125420
:105250007B027347900210EFF07B037D02E4FF12A4
:1052600073479001FDE04480900210F07B047D02C2
:10527000E4FF12734722900210EFF07B017D02E4FD
:10528000FF12734722900210EFF07B027D02E4FFD1
:0C529000127347221273479001FDE022C8
:075C15009001EB125569F04C
:105C1C00EF25E02408FFF50C9001EB125519C33366
:105C2C00CE33CED8F9F0EE9001EBF0A3E02408F0DF
:105C3C009001EBE03400F09001EE125456122A6CF5
:105C4C009001F11254279001EE1254581255719094
:105C5C0001F41254279001EE125458900002125481
:105C6C00BC9001F71254339001EE1254589000037B
:105C7C001254BC9001FA1254339001EDE0D3940409
:105C8C0040037404F0E4F50AE50AC39420400302CF
:105C9C005D38E4F50B9001EDE0FFE50BC39F50265A
:105CAC00E50B75F003A424F1F582E43401F58312BD
:105CBC005577250AF9EE3AFAE50B25E025E0FF12B7
:105CCC005120050B80CFE50C125520127347900123
:105CDC00EB1254AF1273471254E712546812734705
:105CEC00125420126DC812541712734712542012FA
:105CFC006DC8EF20E7F61254E7440812546812738B
:105D0C0047125420126DC8125417127347125420A4
:105D1C00126DC8EF20E7F69001ECE004F0700690ED
:0C5D2C0001EBE004F0050A050A025C949B
:015D38002248
:036A93009001E08F
:106A960012543D12734712548812734712549512BA
:106AA60073471254A21273479001E0E0FF25E0F00D
:106AB600E02408125517C333CE33CED8F9F0EE9042
:106AC60001E1F0A3E02408F09001E1E03400F09049
:106AD60001E3E025E025E0FF9001E0E0FD2F1490C2
:106AE60001E4F09001E2E0240FFE9001E1E03400C1
:106AF6009001E5F0A3CEF0900210ED12552312732B
:106B0600479001E412555D1273479001E11254AFAC
:106B16001273479001E51255501273479001E1E058
:106B26009001E512545F127347125420126DC8EF9C
:106B360044C012541C127347125420126DC8EF2021
:026B4600E7F670
:016B4800222A
:105D3900900209EFF0A3EB12543590020A1254565F
:105D4900122A6CF522301704AF188002AF17EFC47E
:105D590054F0FF301604AE188002AE17EF4E1254FD
:105D69004A127347301504AF188002AF17EFC454B5
:105D7900F0FF301404AE188002AE17EF4E12548AA9
:105D8900127347301304AF188002AF17EFC454F0F1
:105D9900FF301204AE188002AE17EF4E125497125C
:105DA9007347301104AF188002AF17EFC454F0FFE6
:105DB900301004AE188002AE17EF4E1254A41273BD
:105DC9004712547312734790020A125456125571AE
:105DD900F522301704AF188002AF17EFC454F0FF53
:105DE900301604AE188002AE17EF4E12544A1273E1
:105DF90047301504AF188002AF17EFC454F0FF30D5
:105E09001404AE188002AE17EF4E12548A1273476B
:105E1900301304AF188002AF17EFC454F0FF3012EB
:105E290004AE188002AE17EF4E1254971273473022
:105E39001104AF188002AF17EFC454F0FF301004FB
:105E4900AE188002AE17EF4E1254A41273471254C3
:045E59007302734716
:0A6167009001EAEFF0A3125569F071
:106171009001EAE0FF25E0F0E02404125517C33353
:10618100CE33CED8F9F0EE9001EBF0A3E02404F089
:106191009001EBE03400F0EBD3940840069001ED60
:1061A1007408F0E4F50A9001EDE0FFE50AC39F50A1
:1061B10018125455850A827583001254BCE50A12DF
:1061C1005542125433050A80DDE4F50AE50AC39409
:1061D100204003026258E4F50B9001EDE0FFE50B6E
:1061E100C39F501AE50B125542125577250AF9EE55
:1061F1003AFAE50B25E0FF125D39050B80DB9001D2
:10620100EAE01255201273479001EB1254AF12735A
:10621100479001EBE025E025E0FF9001EDE0FEC4B1
:106221003354E024F04F1254681273471254201271
:106231006DC8125417127347125420126DC8EF2003
:10624100E7F69001ECE004F070069001EBE004F059
:07625100050A050A0261CDF8
:016258002223
:077598009001E3EF12556AB8
:10759F001254541281A59001E9EFF0C364809480D6
:1075AF0040449001E3E030E01E1254CC9001EEC94C
:1075BF00125435125C159001E9E024FCF075F004CB
:1075CF001254FF50E4801C1254CC9001EEC9125497
:1075DF00351261679001E9E024F8F075F008125454
:0675EF00FF50E412002928
:0175F5002273
:0982DC00D28C758CEFE4F58A22C6
:1080F600D2CAD2ADD2BDE4F5C975C804C2CF75CD1A
:0C810600B8F5CC7F0C7825E4F608DFFC0F
:01811200224A
:03000B00028298D6
:0D829800C2AF758CDC758A00C28DD2AF328A
:03002B0002642B41
:10642B00C0E0C083C082C0D0C2AF75CDB875CC0000
:10643B00C2CFD3E5269401E525648094804008E51E
:10644B0026152670021525D3E5289401E5276480CF
:10645B0094804008E528152870021527D3E52A9467
:10646B0001E529648094804008E52A152A700215FD
:10647B0029D3E52C9401E52B648094804008E52C0E
:10648B00152C7002152BD3E52E9401E52D64809409
:10649B00804008E52E152E7002152DD3E5309401A2
:1064AB00E52F648094804008E53015307002152F7D
:1064BB00D3900329E09401900328E09400400CA3AF
:1064CB00E024FFF0900328E034FFF0D390032BE09F
:1064DB00940190032AE09400400CA3E024FFF09079
:1064EB00032AE034FFF09002FBE0D394014003E079
:0D64FB0014F0D2AFD0D0D082D083D0E032E8
:10333600FFFF00FFFF000130000131B40132000140
:1033460033780134000135B401360001377801388D
:10335600000139B4013A00013B78013C00013DB45B
:10336600013E00013F78FFFFFFFFFF00FFFF000166
:1033760030000131B40132000133900134000135CF
:10338600B40136000137900138000139B4013A0022
:10339600013B90013C00013DB4013E00013F90FF1E
:1033A600FFFFFFFF007FFF000130000131B4013253
:1033B6000001333C0134000135B401363C01377855
:1033C600FFFFFF555500555500FFFF01FFFF0101A7
:1033D60030780131B40132500133780134000135BF
:1033E600B4013600013778FFFFFFFFFF007FFF00C3
:1033F6000130000131B401320001334801340001CB
:1034060035B4013648013790FFFFFF7FFF00FFFF0D
:103416000001300001315A01320001339001345A63
:103426000135B4013600013790FFFFFFFFFF007F33
:10343600FF007FFF017FFF017FFF027FFF02013058
:10344600000131B401320001333C01340001355A28
:1034560001363C01377801385A0139B4013A3C014A
:103466003B78FFFFFF7FFF007FFF007FFF017FFFAD
:1034760001FFFF027FFF0201300001315A013200D5
:1034860001333C01345A0135B401360001373C01A1
:1034960038000139B4013A3C013B78FFFFFF7FFF5A
:1034A60000FFFF007FFF017FFF017FFF027FFF021A
:1034B60001300001315A01320001337801345A01DA
:1034C60035B401360001373C01385A0139B4013AA6
:1034D6003C013B78FFFFFF7FFF007FFF007FFF017E
:1034E600FFFF017FFF027FFF0201300001315A0119
:1034F600320001333C01345A0135B401360001373C
:103506007801380001395A013A3C013B78FFFFFF48
:10351600FFFF007FFF007FFF017FFF017FFF027F2C
:10352600FF020130000131B4013200013348013499
:103536000001355A01364801379001385A0139B42D
:10354600013A48013B90FFFFFF7FFF007FFF007FAE
:10355600FF017FFF01FFFF027FFF02013000013103
:103566005A01320001334801345A0135B40136009C
:103576000137480138000139B4013A48013B90FF50
:10358600FFFF7FFF00FFFF007FFF017FFF017FFF3F
:10359600027FFF0201300001315A013200013390EF
:1035A60001345A0135B401360001374801385A0151
:1035B60039B4013A48013B90FFFFFF7FFF007FFFD0
:1035C600007FFF01FFFF017FFF027FFF0201300046
:1035D60001315A01320001334801345A0135B40130
:1035E600360001379001380001395A013A48013B4B
:1035F60090FFFFFF7FFF007FFF0001300001315A7F
:1036060001320001333C01345A0135B40136000160
:10361600373C01380001395A013A3C013B78013CFC
:103626005A013DB4013E3C013F78FFFFFF7FFF009A
:103636007FFF0001300001315A0132000133480199
:10364600345A0135B40136000137480138000139D2
:103656005A013A48013B90013C5A013DB4013E48AB
:10366600013F90FFFFFF00021500121F0022150008
:10367600321FFFFFFF00022000123000222000321E
:1036860030FFFFFF000432462E40080A18261D248C
:1036960016261A240022080134550135B0FFFFFF13
:1036A60000222E0134550135B0FFFFFF00322E01F6
:1036B6003007013160FFFFFF00320801300701319A
:1036C60060FFFFFF0022380134550135B0FFFFFFD0
:1036D6000160C0016381016682016983008A01017C
:1036E6006C03016D00FFFFFF0160800163C101668D
:1036F60082016983009A41016C0C016D00FFFFFF96
:103706000160800163810166C201698300AA8101AB
:103716006C30016D00FFFFFF01608001638101666F
:10372600820169C300BAC1016CC0016D00FFFFFFD1
:10373600016080016381016682016983008A31002C
:103746009A7100AAB100BAF1016C00016DE4FFFFA5
:10375600FF01110119012101290114011C01240194
:103766002C01100118012001280113011B0123015E
:103776002B016101640167016A83848182939491BC
:0937860092A3A4A1A2B3B4B1B254
:105E5D0090033EE04404FF9001E4F09001E1E0FB8B
:105E6D00A3E0FAA3E0900001F9122A855401FE2562
:105E7D00E04F9001E4F09001DEE0FBA3E0FAA3E037
:105E8D00F922900002122A85C454F04402FB22909C
:105E9D00033EE0FF9001E4F09001E1229000011239
:105EAD002A855401F925E0FE90033EE02E2235F0BF
:105EBD009001E1FA74FFF0A3EAF0A3E9F02290005B
:105ECD0001122A85FF9001E1E0FBA3E0FAA3E02295
:105EDD00122A6C540125E0FEEF4E2225E02457F5E1
:105EED0082E43437F583E493FA740193FBEAFD22DF
:105EFD009001DDE0540F24FFFFE434FFFE7C00121F
:105F0D002AC49001E2EE8FF0122B2B9001DE2212AB
:105F1D002A8554034480900210F02290369293FE0D
:105F2D006F22122A6CFF9001E122A3E0900210F083
:105F3D00E4FDFF22900001022A8590033EE0440417
:105F4D0022900002022A8590368A93FE6F2225E068
:085F5D002477F582E4343722B9
:057837009001D5EFF007
:10783C00E4A3F0FBFDFF126DC8EF540FFFBF0F1355
:10784C009001D5E0C454F0FBE4FDFF126DC890012B
:10785C00D6EFF09001D6E0FE70037F0222EE54E0EA
:10786C009001D6F0E0C4135407F0D3940340047F86
:05787C000080027F0105
:0178810022E4
:076CA3009001E4EB125EC357
:106CAA00EF75F004A4247FF9743735F0A3125EC09F
:106CBA009001E4125E86122B57FFAEF09001EAEEC5
:106CCA00F0A3EFF0F47002EEF4126D02125F3712C5
:106CDA0073479001E5E475F003122B2B9001E4123F
:106CEA005E86122B57FF9001EAE5F0F0A3EFF0124F
:086CFA006D02125F37027347BF
:106D02009001E7E0FBA3E475F001122B41A9F0FA30
:106D1200122A6CFB9001EAE0900210F0E4FDFF12EF
:106D220073479001E7E0FBA3E475F001122B41A940
:0A6D3200F0FA122A6CFB9001EA222D
:074257009001DEEB125EC3D3
:10425E00EF122E43428A1142B12242D931433433F6
:10426E00437D3443DB41428A9142B1A242D9B143EC
:10427E0034B3437DB443DBC10000446B90033EE096
:10428E004408125EA0125E86122A6C125E79122A01
:10429E006CFD9001E430E006E04404F08002E0F0B2
:1042AE00ED801D125E9C125E86125EDD125E7F1226
:1042BE002A6C125E95741B124544125E5D125F41AC
:1042CE00125E95900210741902446490033EE0440D
:1042DE000C125EA0125E86122A6C125E791244DBFC
:1042EE006006125E831244F5125E9C125E86125FA9
:1042FE0041125EE0125E7F12446C6006125E831203
:10430E0044C3125F47125EA0125ED5900002125E89
:10431E0075124489700302446B125E83125E8F9095
:10432E000210EE024464125E9C125E86125EDD1274
:10433E005E7F1244DB6006125E831244F5125E5DF0
:10434E0012446C6006125E831244C3125F47125E03
:10435E00A0125E86900002125E76124489700302ED
:10436E00446B125E83125E8F900210EE0244641252
:10437E005E9C125E86125EDD125E7F122A6C125EEB
:10438E009512450A600C125E83122A6C125E95120B
:10439E00451B125E5D1244A6600C125E83900001F6
:1043AE00125E9212451B125E9C125E86125F4E12B8
