:030000000266E0B5
:0C66E000787FE4F6D8FD75813002672752
:0B7BDA00E0248DF582E43402F58322E4
:107AA400C2BCD2AC759852758DFAE4F58BD28E9027
:067AB40002F1F0A3F02234
:107B58009002F1E0FFA3E0B507037F00227F012236
:107A72009002F1127BDAE0FF9002F1E004F0E0C341
:087A820094644002E4F0D2AC70
:017A8A0022D9
:080003003099FD8F99C299228A
:030023000277AEB3
:1077AE00C0E0C083C082C0D0309819C2989002F257
:1077BE00127BDAE599F09002F2E004F0E0C39464F3
:0D77CE004002E4F0D0D0D082D083D0E03271
:1075C100E0F580D2A3E4900335F0A3F022C3900349
:1075D10035E0940022900335E004F0229001E4E0CC
:1075E100FBA3E0FAA3E0F922EDF0A3EBF0E4FFC284
:0C75F100AF22D2B6D2B77580FFD2AF2215
:106C0F009001F31275E9127C1C9001F3E0FF7006FE
:106C1F00C2B7C2B68012EFB40106C2B7D2B68008AF
:106C2F00EFB40204D2B7C2B69001F41275C1127557
:106C3F00CE500BA3E004F070F51275D680F0C2A30E
:106C4F009001F5E0F580C2A11275C61275CE500BFA
:106C5F00A3E004F070F51275D680F0D2A1127C1C5F
:046C6F001275F32285
:10687E009001D81275E9127C1C9001D8E0FF7006C9
:10688E00C2B7C2B68012EFB40106C2B7D2B6800844
:10689E00EFB40204D2B7C2B69001D9E0FF04F08F74
:1068AE00801275C41275CE500BA3E004F070F51271
:1068BE0075D680F0C2A39001DAE0FBA3E475F00177
:1068CE00122B41A9F0FA122A6CF580C2A11275C6DC
:1068DE001275CE500BA3E004F070F51275D680F051
:1068EE00D2A19001DDE014F070AE127C1C1275F393
:0168FE002277
:0B676C009001F2EFF0A3EDF0A3EBF0C2
:10677700C2AF127C1CE49001F2F0A3E0FF7006C2E6
:10678700B7C2B68012EFB40106C2B7D2B68008EF1F
:10679700B40204D2B7C2B69001F41275C11275CE15
:1067A700500BA3E004F070F51275D680F0C2A37504
:1067B70080FF1275C61275CE500BA3E004F070F57A
:1067C7001275D680F0C2A29001F5E580F01275C669
:1067D7001275CE500BA3E004F070F51275D680F059
:1067E700D2A2127C1CD2B6D2B7D2AF9001F5E0FF8D
:0167F700227F
:107027009001E4EBF0A3EAF0A3E9F01275DD122B6F
:1070370057F47003E5F0F46038122B57FBAAF0EA17
:10704700FDE4FF12676C1275DD900002122A85FCC1
:107057006F6012122B57FBAAF0EAFD9001F5ECF0D6
:10706700E4FF126C0F9001E5E475F003122B2B80FF
:02707700BA223B
:0100290022B4
:106D9E002562782025627820256278202562782069
:106DAE0000256264200025627820256278206368C1
:106DBE002562783A2562782063682562783A2562E2
:106DCE00782063682562783A2562782063682562A8
:106DDE00783A2562782000627573770079766D694E
:106DEE0078006873636F6D006D6F646500370038EF
:016DFE000094
:045300004103540011
:1067F8009001E0E0FBA3E0FAA3E0F922A3F0A37480
:1068080001F0A322FFE02445F582E43403F583EF89
:10681800F022E0FF9001E17401F0A37403F0A37487
:1068280041F07B017A03793C22A3F0A3E4F0A32290
:10683800900001E475F001022B829001E074FFF0F2
:10684800A322A3F0A3E4F0A322E05401FB7D2022BD
:10685800EBF0A3EAF0A3E9F022250BF50BA3E05433
:106868000322122DD4022A6CA3F0A3E4F0A322126F
:06687800002A9001D52268
:106EC1009001DD126858A31267FB12686A7002FF15
:106ED100221267F812686AB420081267F81268383B
:106EE10080EF1267F8122DD4C003C002C0019001D7
:106EF100DD1267FB122DF4801D1267F812686AFE1D
:106F0100B4200DE4122AB21267F81268387F012208
:0E6F1100EE70037F01221267F812683880DBF1
:067584009001DD126858C1
:10758A00E4F508F5099001DD1267FB122A6C602206
:10759A009001DDA3E475F001122B41A9F0FA122A39
:1075AA006CFF3395E0FEEF2509F509EE3508F5087D
:0675BA0080D3AE08AF090A
:0175C00022A8
:01002A0022B3
:10732100E4F50B90033CE0540312686125E025E08D
:10733100126861C454F0126861C4333354C0250B20
:10734100F50B90033BE0B5070D900340E0B50B064C
:10735100E490034BF02290034B7401F0900340E55D
:077361000BF090033BEFF07D
:017368002202
:1070C900E4F508F509F50AF50BC003C00212684298
:1070D900746DF0749E1268317400F074081268318E
:1070E9007400F0740912684A7400F0740A12684A4C
:1070F9007400F0A3740BF0D002D003123F86900104
:0D710900F5E50BF0AB0AAD09E4FF026C0FD9
:107A3E00126842746DF074AF1268707400F0A37423
:0A7A4E0008F0123F86AF08027AE547
:1055C300C003C002C001126842746DF074B4126863
:1055D300707400F0A37409F0A3E4F0A37400F074F2
:1055E3000A1268047403F0743C1268047403F0A391
:1055F30074411268057403F0A3743D1268057403C3
:10560300F0A374421268057403F0A3743E12680594
:105613007403F0A374431268057403F0A3743F1278
:1056230068057403F0A37444F0D001D002D00312D0
:105633003F86E509C454F0FF900338E0FEC43333DA
:105643003354802FFFE50A540F2F90034AF0900341
:1056530041E090033C12680C900342E090033D123A
:10566300680C900343E0FF90033E12680D900344DF
:10567300E0FF90033F12680D900345126851E4FF69
:105683001274C59003461268517F011274C59003CA
:10569300471268517F021274C59003481268517F04
:1056A300031274C57B017A03794512571990034A93
:1056B30012681A12459490034AE0FF12682A124EA8
:1056C30030E4F50874412508F582E43403F58312C8
:1056D3006851AF081276380508E508C3940440E41E
:1056E300E4F525F526F5277528057F01127BEF9054
:1056F300034AE0FF1273217F08127716E4FF127A40
:10570300581273F87B017A037941123B8F90034A55
:05571300E0900354F0DA
:01571800226E
:106AD800E4FF127162EFB40202C322900338E0B5FA
:106AE8000702D322900338EFF0E0C43333335480E5
:106AF800FF90033BE0547F4FF07F011276AA90038A
:106B080038E0FF126C737B017A03794512571990AC
:106B1800033B12681A12459490033BE0FF12682A5F
:106B2800124E30E4FF127A581273F87B017A037917
:086B380041123B8F127958D382
:016B40002232
:107ABA00126842746DF0A374AF1268057403F0A3E0
:067ACA007439F0023F8652
:065B97009001D5126858D0
:105B9D009001E07401F0A37401F0A374D5F07B01C2
:105BAD007A0179DA126EC19001DA1267FB127584EF
:105BBD009001D8EEF0A3EFF07A6D79E5125C71B536
:105BCD000611A3E0B5070C9001D51267FB1270C941
:105BDD00025C6E7A6D79EA125C71B50611A3E0B5BF
:105BED00070C1268771267FB127A3E025C6E7A6DB3
:105BFD0079F0125C7BE0B50618A3E0B507131268C7
:105C0D00771267FB1255C3127958E4FF127BEF80B0
:105C1D00507A6D79F6125C7BE0B50610A3E0B507FE
:105C2D000B1268771267FB127ABA80357A6D79FBA1
:105C3D00125C84E0B5060FA3E0B5070A900276E08A
:105C4D0090028BF0801B7A6D79FD125C84E0B506B5
:105C5D0010A3E0B5070B12774A900276E0FF12779A
:035C6D00DB7F01D9
:105C7000227BFF1275849001D8E0227BFF1275848D
:0D5C80009001D8227BFF1275849001D8227C
:104C5D00FFF3EDE8E2DE62757377203020312041FD
:104C6D00312031316275737720302031204132206F
:104C7D00443779766D69782034206D6F6465203006
:104C8D00206873636F6D20312031206368303A31B5
:104C9D0030206368313A3030206368323A3030204A
:104CAD006368333A3030206873636F6D2031203183
:104CBD00206368323A3130206368313A30302063F6
:104CCD0068303A3030206368333A3030206873638F
:104CDD006F6D20312031206368313A3130206368A7
:104CED00303A3030206368323A3030206368333ADE
:104CFD003030206873636F6D20322032206368324C
:104D0D003A3130206368303A3130206368313A30BF
:104D1D0030206368333A3030206873636F6D203212
:104D2D002032206368303A3130206368323A3130B6
:104D3D00206368313A3030206368333A3030206870
:104D4D0073636F6D20322032206368313A31302029
:104D5D006368303A3130206368323A30302063680E
:104D6D00333A3030206873636F6D20322032206308
:104D7D0068303A3130206368313A3130206368321F
:104D8D003A3030206368333A3030206873636F6D8A
:104D9D0020322032206368313A3130206368323A54
:104DAD003130206368303A3030206368333A303028
:104DBD00206873636F6D20322032206368323A3180
:104DCD0030206368313A3130206368323A30302018
:104DDD006368333A3030206873636F6D203320334E
:104DED00206368303A3130206368313A31302063C6
:104DFD0068323A3130206368333A3030206873635B
:104E0D006F6D20312031206368333A303020636874
:104E1D00313A3030206368323A3030206368303AAE
:034E2D0030302002
:10530400C12444032E000000004103320041033352
:105314000041032D0141032C0241032A0141032BC7
:105324000041032100420322000042032400004202
:105334000326000042032800004102F5014102F463
:0953440000410334004102F300B2
:10635B007D017BFF7E007F26022A46900213E0FE22
:10636B00740B2FF582E43402F5832274DF2FF58250
:10637B00E43401F583E02278F67C027D017B012277
:10638B00900006E0FAA3E0FB7C00FFAE02022AD6E7
:10639B007C00AF03AE02122AD6900006ECF0A3ED00
:1063AB00F0227D017BFF7E007F0E022A46E4F0A3E4
:1063BB00F0A3F0A3227D017BFF7E00022A46E508B5
:1063CB00F0900274E004F022900009E0F8A3E0F9E9
:1063DB00A3E0FAA3E0FB22E412283B900009022D74
:1063EB0057F0A37420F0A37403F0E4A3F0229002FF
:1063FB0044E090032D2290020B7402F0A37432F050
:10640B00A32234FFFE7C007D06022AD6900274E0A4
:03641B00240B222D
:10601600127B58EF640160030260E543E110127AD7
:10602600728F08E508B40218900242E070129002DE
:106036007404F090020BE508F09002427401F0221D
:10604600E5086403702A90020CE0FF64526004EFD6
:10605600B4531D9002F3E07017900274E0FFD394DE
:1060660003500D9002F37401F012636B1263C922A0
:10607600E508B4031B900246E0701512641712631C
:106086006E1263C99002467401F0E49002F3F022A6
:10609600900246E06401703512641712636EE508DB
:1060A600F07B017A02790B124A79EF602F90032078
:1060B6007401F090020CE09002F6F0E4A3F0900276
:1060C6000DE0900276F090031F7402F0221264171E
:1060D60012636E1263C9E0D39408400A027932E46F
:0660E600900328F0A3F076
:0160EC002291
:10793200E4900242F0900246F0900274F090020B42
:107942001263B91263B9F0A3F0A3F090031FF0A37E
:06795200F09002F6F022A5
:097BEF00EF6003C20122D2012261
:0C7BCE00C200C201C223E4900356F02262
:087079009001D5EEF0A3EFF049
:107081009001D5E07002A3E0603DE49001D7F0A348
:10709100F09001D7E0FEA3E0FFE4FCFD7B1BFAF9D1
:1070A100F8D3122D1940109001D8E004F070E2904D
:1070B10001D7E004F080DA9001D6E024FFF09001DE
:0770C100D5E034FFF080B9B7
:0170C80022A5
:105175009000001263B874C8F0A37464F0E4A3F05F
:10518500127243127B78127BCE127932E4FF127BC6
:10519500681268FF7F4D12425790032A7402F07F10
:1051A5004D124257E490032AF0126D3B752B0075A2
:1051B5002C28752D01752EE09003227401F0A3743F
:1051C500E0F0752F00753004A37407F0A304F07F99
:1051D50098127C41EF5410FFC4540F900005F01253
:1051E5006016900320E0B401097B017A0279F6127A
:1051F5005B97900320E0B401031279323023071244
:105205006AD85002C223127B58EF6009900003E070
:10521500752700F528E52864014527700DF527F564
:1052250028900004E0752500F526E526640145254E
:10523500701E900242E070181273B190028BE0FF6D
:10524500900289E06F600312425775250075261498
:10525500E5306401452F701990024EE0C39401407A
:105265001090023AE0B40109752F00753004125A06
:105275009CE52C6401452B703C90024EE070369005
:10528500023AE0B4012F900321E0FF74017E00A8EB
:1052950007088005C333CE33CED8F9FF1275FD90CC
:1052A5000321E004F0752B00752C28E0C39406401B
:1052B50007E4F0800312777C900322E07004A3E0FA
:1052C5006401700F90022EF0A3F090032204F0A366
:1052D50074E0F0900324E07004A3E064017016907C
:1052E500023AE0B4010F900005E0FF1272D7E49096
:0B52F5000324F0A3F043E1100251E499
:10724300E4F5B8F5A8F58775E127F5D0758922F53A
:1072530088127AA4127BF8127A21E4F58EF5A2D271
:1072630099D2AF00F593F5944391035392FCF595AE
:10727300F596F5B1F5B2F5B375B404C2E9C292C29D
:0A72830093C294C295C296C29722EE
:08628D009001DDEFF0A3EDF03C
:1062950078DF7C017A4C795D7F061263C09001DD61
:1062A500E014603014604714605E14607514700368
:1062B5000263412405600302635AE4F5EA9001DEB6
:1062C500E0FF7004F5DA800375DA42126376F5FAB9
:1062D500E4F5F222E4F5EB9001DEE0FF7004F5DB76
:1062E500800375DB42126376F5FBE4F5F322E4F5F2
:1062F500EC9001DEE0FF7004F5DC800375DC4212F2
:106305006376F5FCE4F5F422E4F5ED9001DEE0FFBB
:106315007004F5DD800375DD42126376F5FDE4F565
:10632500F522E4F5EE9001DEE0FF7004F5DE800372
:1063350075DE42126376F5FEE4F5F622E4F5EF909C
:1063450001DEE0FF7004F5DF800375DF421263763E
:05635500F5FFE4F5F77F
:01635A002220
:0F7B7800E4F5E9F5F975D90475D84043A68022E4
:05425700900006EFF0ED
:10425C0078077C007A4C79631263AD78157C007A10
:10426C004C79711263AD78237C007D017BFF7A4C15
:10427C00797F7E007F08122A46782B7C007A4C7955
:10428C00877F071263C078327C007A4C798E126378
:10429C005B78587C007A4C79B412635B787E7C0036
:1042AC007D017BFF7A4C79DA12635F78A47C007D08
:1042BC00017BFF7A4D790012635F78CA7C007D0127
:1042CC007BFF7A4D792612635F78F07C007D017B51
:1042DC00FF7A4D794C12635F78167C017D017BFF70
:1042EC007A4D797212635F783C7C017D017BFF7A99
:1042FC004D799812635F78627C017D017BFF7A4D6A
:10430C0079BE12635F78887C017D017BFF7A4D79E1
:10431C00E412635F78AE7C017D017BFF7A4E790AF3
:10432C0012635FE49001D4F0900006E0FE24B6FF27
:10433C00C3940A400674FC2FFF8005E4900277F0CA
:10434C00900289EEF0EFB40800506290435EF828BA
:10435C00287302437602437B024382024388024362
:10436C008F02439D0243A90243B19003338041E481
:10437C00900333F0803DE49002458019900245741F
:10438C000180129002447401F090032D7404F080AB
:10439C0022E4900244F090032D04F08016900277F2
:1043AC007414F0800E9002777441F0800690032D07
:1043BC007401F0900277E0FFC3940140089003323F
:1043CC00EFF0024452900333E064017049900245CF
:1043DC00E0601B1263F9B4010B7402F090032C74AF
:1043EC0004F080237402F090032C14F080191263F3
:1043FC00F9B4010B7404F090032C7402F08008746F
:10440C0001F090032C04F090032DE0C454F0FF90C5
:10441C00032CE04F802C900245E0600590032D802A
:10442C000C1263F9B4010B7404F090032C7402F0B9
:10443C0080087401F090032C04F090032DE0FFC46D
:10444C0054F0900332F090032AE0B4020612456D4A
:10445C007F002290032AE0602412748212456D12B0
:10446C0063827A0079151263B112458A1263827ADB
:10447C0000792B7E007F07122A4612458A90033260
:10448C00E0122E4344AF1044D51244D91444B12049
:10449C0044D72144EB2444BA4044E24144D5420081
:1044AC000044FD80091263827A00795880071263F8
:1044BC00827A00793212635F9001F57403F07B0FFE
:1044CC007D01E4FF126C0F8032801D80121263821A
:1044DC007A0079F080221263827A0179168019129F
:1044EC0063827A0079CA80101263827A0079A48080
:1044FC00071263827A00793212635FE490032AF028
:10450C007B017A0279F6125B97900332E0122E430C
:10451C00453B10454512454D14453D204549214527
:10452C005824454140455141455C42000045678057
:10453C0000E4FF8012E4FF80197F01800A7F018074
:10454C00067F0180027F011269F8800F7F018002D3
:10455C007F011269F89001D47401F09001D4E0FF4E
:10456C002278F67C027D017B017A0079077E007F40
:10457C000E122A467B017A0279F6125B97227B0196
:08458C007A0279F6125B972216
:0277DB00AB07FA
:1077DD00E4FFFEEBC3943D4021EBD39461501BEBD2
:1077ED0024C3FFEE12640DAA07EB24C3FFE4126459
:0A77FD000DAE05AF0212628D7F0190
:01780700225E
:106F1F00E4FBFAFD7F90127505EEC4F854F0C868D3
:106F2F00FEEFC4540F48FFEEC4F854F0C868FAEFF0
:106F3F00C4540F48FB2091047A007B637C007D0AC8
:106F4F00AF03AE02122AD6D3ED9409EC940050078A
:106F5F00ED2430900221F0AE02AF037C007D0A12C7
:096F6F002AD6EF2430900226F02E
:016F780022F6
:105C8D009000061263B8122D6300000000E4FF12AD
:105C9D0079E2900006EEF0A3EFF0E024E1F0900041
:105CAD0006E034FFF0E0FCA3E0FD1263E27F007E2E
:105CBD00807D8C7CC31263D312259F7B007A807903
:105CCD008C78431227997B9A7A9979CA7842122651
:105CDD00901263E6E4FFFE7D207C411263D3122611
:105CED0090122874AD07AC061263A41263E2900003
:105CFD0006E0FEA3E0FFC394EBEE94034015D3EF53
:105D0D0094FFEE9403500C9000067403F0A374F509
:105D1D00F08013D3EF940FEE9427400A9000067491
:105D2D0027F0A3740FF0900006E0FAA3E0FB7C03CC
:105D3D007DE8126395EF243090021BF07C037DE823
:105D4D0012639D7D6412638BEF243090021AF07DF7
:105D5D006412639B7D0A12638BEF2430900219F05D
:0B5D6D007D0A12639B2430900218F0A6
:015D78002208
:106FD2001264017450F0A37430F0A37461F0A374CE
:106FE200391263EC90000CF090000CE0FFD3940790
:106FF2005013126366E0FFEE6F900213F090000CE4
:10700200E004F080E3E490000CF090000CE0FFD389
:107012009408501012636BE0FF12000390000CE022
:0470220004F080E610
:017026002247
:106DFF00126401744FF090023FE090020EF0900287
:106E0F0040E090020FF0900241E09002101263EC0C
:106E1F0090000CF090000CE0FFD394075013126316
:106E2F0066E0FFEE6F900213F090000CE004F0802C
:106E3F00E3E490000CF090000CE0FFD394085010A6
:106E4F0012636BE0FF12000390000CE004F080E689
:016E5F002210
:10002E001010FFFFFFFFFFFFFFFFFFFFFFFFFFFFB0
:10003E00FFFFFFFFFFFFFFFFFFFFFFFFFFFFFFFFC2
:10004E00FFFFFFFFFFFFFFFFFFFFFFFFFFFFFFFFB2
:10005E00FFFFFFFFFFFFFFFFFFFFFFFFFFFFFFFFA2
:10006E00FFFFFFFFFFFFFFFFFFFFFFFFFFFFFFFF92
:10007E00FFFFFFFFFFFFFFFFFFFFFFFFFFFFFFFF82
:10008E00FFFFFFFFFFFFFFFFFFFFFFFFFFFFFFFF72
:10009E00FFFFFFFFFFFFFFFFFFFFFFFFFFFFFFFF62
:1000AE00FFFFFFFFFFFFFFFFFFFFFFFFFFFFFFFF52
:1000BE00FFFFFFFFFFFFFFFFFFFFFFFFFFFFFFFF42
:1000CE00FFFFFFFFFFFFFFFFFFFFFFFFFFFFFFFF32
:1000DE00FFFFFFFFFFFFFFFFFFFFFFFFFFFFFFFF22
:1000EE00FFFFFFFFFFFFFFFFFFFFFFFFFFFFFFFF12
:1000FE00FFFFFFFFFFFFFFFFFFFFFFFFFFFFFFFF02
:10010E00FFFFFFFFFFFFFFFFFFFFFFFFFFFFFFFFF1
:10011E00FFFFFFFFFFFFFFFFFFFFFFFFFFFFFFFFE1
:10012E00FFFF1010FFFFFFFFFFFFFFFFFFFFFFFFAF
:10013E00FFFFFFFFFFFFFFFFFFFFFFFFFFFFFFFFC1
:10014E00FFFFFFFFFFFFFFFFFFFFFFFFFFFFFFFFB1
:10015E00FFFFFFFFFFFFFFFFFFFFFFFFFFFFFFFFA1
:10016E00FFFFFFFFFFFFFFFFFFFFFFFFFFFFFFFF91
:10017E00FFFFFFFFFFFFFFFFFFFFFFFFFFFFFFFF81
:10018E00FFFFFFFFFFFFFFFFFFFFFFFFFFFFFFFF71
:10019E00FFFFFFFFFFFFFFFFFFFFFFFFFFFFFFFF61
:1001AE00FFFFFFFFFFFFFFFFFFFFFFFFFFFFFFFF51
:1001BE00FFFFFFFFFFFFFFFFFFFFFFFFFFFFFFFF41
:1001CE00FFFFFFFFFFFFFFFFFFFFFFFFFFFFFFFF31
:1001DE00FFFFFFFFFFFFFFFFFFFFFFFFFFFFFFFF21
:1001EE00FFFFFFFFFFFFFFFFFFFFFFFFFFFFFFFF11
:1001FE00FFFFFFFFFFFFFFFFFFFFFFFFFFFFFFFF01
:10020E00FFFFFFFFFFFFFFFFFFFFFFFFFFFFFFFFF0
:10021E00FFFFFFFFFFFFFFFFFFFFFFFFFFFFFFFFE0
:10022E00FFFFFFFF1010FFFFFFFFFFFFFFFFFFFFAE
:10023E00FFFFFFFFFFFFFFFFFFFFFFFFFFFFFFFFC0
:10024E00FFFFFFFFFFFFFFFFFFFFFFFFFFFFFFFFB0
:10025E00FFFFFFFFFFFFFFFFFFFFFFFFFFFFFFFFA0
:10026E00FFFFFFFFFFFFFFFFFFFFFFFFFFFFFFFF90
:10027E00FFFFFFFFFFFFFFFFFFFFFFFFFFFFFFFF80
:10028E00FFFFFFFFFFFFFFFFFFFFFFFFFFFFFFFF70
:10029E00FFFFFFFFFFFFFFFFFFFFFFFFFFFFFFFF60
:1002AE00FFFFFFFFFFFFFFFFFFFFFFFFFFFFFFFF50
:1002BE00FFFFFFFFFFFFFFFFFFFFFFFFFFFFFFFF40
:1002CE00FFFFFFFFFFFFFFFFFFFFFFFFFFFFFFFF30
:1002DE00FFFFFFFFFFFFFFFFFFFFFFFFFFFFFFFF20
:1002EE00FFFFFFFFFFFFFFFFFFFFFFFFFFFFFFFF10
:1002FE00FFFFFFFFFFFFFFFFFFFFFFFFFFFFFFFF00
:10030E00FFFFFFFFFFFFFFFFFFFFFFFFFFFFFFFFEF
:10031E00FFFFFFFFFFFFFFFFFFFFFFFFFFFFFFFFDF
:10032E00FFFFFFFFFFFF1010FFFFFFFFFFFFFFFFAD
:10033E00FFFFFFFFFFFFFFFFFFFFFFFFFFFFFFFFBF
:10034E00FFFFFFFFFFFFFFFFFFFFFFFFFFFFFFFFAF
:10035E00FFFFFFFFFFFFFFFFFFFFFFFFFFFFFFFF9F
:10036E00FFFFFFFFFFFFFFFFFFFFFFFFFFFFFFFF8F
:10037E00FFFFFFFFFFFFFFFFFFFFFFFFFFFFFFFF7F
:10038E00FFFFFFFFFFFFFFFFFFFFFFFFFFFFFFFF6F
:10039E00FFFFFFFFFFFFFFFFFFFFFFFFFFFFFFFF5F
:1003AE00FFFFFFFFFFFFFFFFFFFFFFFFFFFFFFFF4F
:1003BE00FFFFFFFFFFFFFFFFFFFFFFFFFFFFFFFF3F
:1003CE00FFFFFFFFFFFFFFFFFFFFFFFFFFFFFFFF2F
:1003DE00FFFFFFFFFFFFFFFFFFFFFFFFFFFFFFFF1F
:1003EE00FFFFFFFFFFFFFFFFFFFFFFFFFFFFFFFF0F
:1003FE00FFFFFFFFFFFFFFFFFFFFFFFFFFFFFFFFFF
:10040E00FFFFFFFFFFFFFFFFFFFFFFFFFFFFFFFFEE
:10041E00FFFFFFFFFFFFFFFFFFFFFFFFFFFFFFFFDE
:10042E00FFFFFFFFFFFFFFFF1010FFFFFFFFFFFFAC
:10043E00FFFFFFFFFFFFFFFFFFFFFFFFFFFFFFFFBE
:10044E00FFFFFFFFFFFFFFFFFFFFFFFFFFFFFFFFAE
:10045E00FFFFFFFFFFFFFFFFFFFFFFFFFFFFFFFF9E
:10046E00FFFFFFFFFFFFFFFFFFFFFFFFFFFFFFFF8E
:10047E00FFFFFFFFFFFFFFFFFFFFFFFFFFFFFFFF7E
:10048E00FFFFFFFFFFFFFFFFFFFFFFFFFFFFFFFF6E
:10049E00FFFFFFFFFFFFFFFFFFFFFFFFFFFFFFFF5E
:1004AE00FFFFFFFFFFFFFFFFFFFFFFFFFFFFFFFF4E
:1004BE00FFFFFFFFFFFFFFFFFFFFFFFFFFFFFFFF3E
:1004CE00FFFFFFFFFFFFFFFFFFFFFFFFFFFFFFFF2E
:1004DE00FFFFFFFFFFFFFFFFFFFFFFFFFFFFFFFF1E
:1004EE00FFFFFFFFFFFFFFFFFFFFFFFFFFFFFFFF0E
:1004FE00FFFFFFFFFFFFFFFFFFFFFFFFFFFFFFFFFE
:10050E00FFFFFFFFFFFFFFFFFFFFFFFFFFFFFFFFED
:10051E00FFFFFFFFFFFFFFFFFFFFFFFFFFFFFFFFDD
:10052E00FFFFFFFFFFFFFFFFFFFF1010FFFFFFFFAB
:10053E00FFFF00000000FFFFFFFFFFFFFFFFFFFFB9
:10054E00FF000000000000FFFFFFFFFFFFFFFFFFA7
:10055E000000020202020000FFFFFFFFFFFFFFFF8D
:10056E000000020202020000FFFFFFFFFFFFFF007C
:10057E00000202000002020000FFFFFFFFFFFF006B
:10058E00000202000002020000FFFFFFFFFF00005A
:10059E0002020000000002020000FFFFFFFF000049
:1005AE00020200FFFF0002020000FFFFFF00000238
:1005BE00020000FFFF000002020000FFFF00000229
:1005CE000200000000000002020000FF0000020214
:1005DE0002020202020202020202000000000202F5
:1005EE0002020202020202020202000000000202E5
:1005FE0000000000000000000202000000000202E5
:10060E000000FFFFFFFF00000202000000000202D8
:10061E000000FFFFFFFF00000202000000000000CC
:10062E000000FFFFFFFF00000000000010100000A0
:10063E00000000000000000000000000FFFF0002AC
:10064E0002020202020202020202000000FF000287
:10065E000202020202020202020202000000000076
:10066E000002020000000000020202020000FF0071
:10067E0000020200FFFFFF00000202020000FF0066
:10068E0000020200FFFFFF00000202020000FF0056
:10069E0000020200000000000202020000FFFF0044
:1006AE00000202020202020202020000FFFFFF002D
:1006BE00000202020202020202020000FFFFFF001D
:1006CE0000020200000000000202020000FFFF0014
:1006DE0000020200FFFFFF00000202020000FF0006
:1006EE0000020200FFFFFF000002020200000000F5
:1006FE0000020200000000000202020200000002DE
:10070E0002020202020202020202020000000002C3
:10071E0002020202020202020202000000FF0000B8
:10072E00000000000000000000000000FFFF10109D
:10073E00FFFFFF00000000000000000000FFFFFFB1
:10074E00FFFF00000202020202020202000000FF8E
:10075E00FF00000202020202020202020200000078
:10076E000000000202000000000000020202000071
:10077E0000000202020000FFFFFF00000202000064
:10078E00000002020000FFFFFFFFFF000202000058
:10079E00000002020000FFFFFFFFFFFF000000004D
:1007AE00000002020000FFFFFFFFFFFFFFFFFFFF41
:1007BE00000002020000FFFFFFFFFFFFFFFFFFFF31
:1007CE00000002020000FFFFFFFFFF00000000001C
:1007DE00000002020000FFFFFFFFFF000202000008
:1007EE0000000202000000FFFFFF000002020000F6
:1007FE0000000202020000000000000202020000DF
:10080E00FF000002020202020202020202000000C7
:10081E00FFFF00000202020202020202000000FFBD
:10082E00FFFFFF0000000000000000000000FFFFBF
:10083E001010000000000000000000000000FFFF8C
:10084E00FFFF00000202020202020202020000FF8B
:10085E00FFFF000002020202020202020202000078
:10086E00FFFF000002020000000000020202000072
:10087E00FFFF000002020000FFFF00000202000066
:10088E00FFFF000002020000FFFF00000202000056
:10089E00FFFF000002020000000000020202000042
:1008AE00FFFF00000202020202020202020000FF2B
:1008BE00FFFF00000202020202020202000000FF1D
:1008CE00FFFF000002020000020202000000FFFF14
:1008DE00FFFF000002020000000202020000FFFF04
:1008EE00FFFF00000202000000000202020000FFF3
:1008FE00FFFF000002020000FF00000202020000E3
:10090E00FFFF000002020000FFFF000002020200D3
:10091E0000FF000002020000FFFFFF0000020202C3
:10092E0000FF000000000000FFFFFFFF00000000BE
:10093E0000FF101000000000FFFFFFFFFFFFFFFF92
:10094E00000000000000000000FFFFFFFFFFFF009F
:10095E000000000000000C0C0000FFFFFFFF000075
:10096E000C0C000000000C0C0C0000000000000C31
:10097E000C0C000000000C0C0C0C000000000C0C09
:10098E000C0C000000000C0C0C0C0C0C0C0C0C0CC9
:10099E000C0C000000000C0C0C0C0C0C0C0C0C0CB9
:1009AE000C0C000000000C0C0C000C0C0C0C000CC1
:1009BE000C0C000000000C0C0C00000C0C00000CC9
:1009CE000C0C000000000C0C0C0000000000000CD1
:1009DE000C0C000000000C0C0C0000000000000CC1
:1009EE000C0C000000000C0C0C0000FFFF00000CB3
:1009FE000C0C000000000C0C0C0000FFFF00000CA3
:100A0E000C0C000000000C0C0C0000FFFF00000C92
:100A1E000C0C000000000C0C0C0000FFFF00000C82
:100A2E000C0C000000000000000000FFFF000000A2
:100A3E00000000001010FF00000000000000000089
:100A4E000000000000FFFF0000020202020202028C
:100A5E000202020000FFFF00000202020202020276
:100A6E000202020000FFFF00000000000000020270
:100A7E000200000000FFFFFFFFFFFFFF0000020269
:100A8E00020000FFFFFFFFFFFFFFFFFF000002025B
:100A9E00020000FFFFFFFFFFFFFFFFFF000002024B
:100AAE00020000FFFFFFFFFFFFFFFFFF000002023B
:100ABE00020000FFFFFFFFFFFFFFFFFF000002022B
:100ACE00020000FFFFFFFFFFFFFFFFFF000002021B
:100ADE00020000FFFFFFFF00000000FF0000020207
:100AEE00020000FFFFFFFF000202000000000202F2
:100AFE00020000FFFFFFFF000202020000020202DE
:100B0E00020000FFFFFFFF000002020202020202CB
:100B1E00000000FFFFFFFFFF0000020202020200C2
:100B2E000000FFFFFFFFFFFFFF00000000000000BE
:100B3E0000FFFFFFFFFF1010FFFFFFFFFFFFFFFF94
:100B4E00FFFFFFFFFFFFFFFFFFFFFFFFFF000000A4
:100B5E0000000000FFFFFFFFFFFFFFFF000001018D
:100B6E0001010000FFFFFFFFFFFFFF000001010179
:100B7E0001010000FFFFFFFFFFFF00000101010167
:100B8E00010000FFFFFFFFFFFF0000010101010157
:100B9E000000000000000000000001010101010141
:100BAE00010101010101000000010101010101012A
:100BBE00010101010101000000010101010101011A
:100BCE00010101010101000000000101010101010B
:100BDE000101010101010000FF00000101010101FD
:100BEE000000000000000000FFFF000001010101F5
:100BFE00010000FFFFFFFFFFFFFFFF0000010101EB
:100C0E0001010000FFFFFFFFFFFFFFFF00000101DA
:100C1E0001010000FFFFFFFFFFFFFFFFFF000000CD
:100C2E0000000000FFFFFFFFFFFFFFFFFFFFFFFFC2
:100C3E00FFFFFFFFFFFFFFFF1010FFFFFFFFFFFF94
:100C4E00FFFFFFFFFFFFFFFFFFFFFFFFFFFF0000A4
:100C5E000000000000FFFFFFFFFFFFFFFFFF00008F
:100C6E00010101010000FFFFFFFFFFFFFFFF00007A
:100C7E0001010101010000FFFFFFFFFFFFFFFF0069
:100C8E000001010101010000FFFF00000000000053
:100C9E00000001010101010000FF0000010101013E
:100CAE00010101010101010100000000010101012A
:100CBE000101010101010101010000000101010119
:100CCE00010101010101010101000000000000000D
:100CDE00000001010101010000FF00000000000002
:100CEE00000001010101010000FFFFFFFFFFFF00F7
:100CFE000001010101010000FFFFFFFFFFFF0000E7
:100D0E0001010101010000FFFFFFFFFFFFFF0000D7
:100D1E00010101010000FFFFFFFFFFFFFFFF0000C9
:100D2E000000000000FFFFFFFFFFFFFFFFFFFFFFC0
:100D3E00FFFFFFFFFFFFFFFFFFFF1010FFFFFFFF93
:100D4E000000000000000000FFFFFFFFFFFFFFFF9D
:100D5E000000010101010000FFFFFFFFFFFFFFFF89
:100D6E000000010101010000FFFFFFFFFFFFFFFF79
:100D7E000000010101010000FFFFFFFFFFFFFFFF69
:100D8E000000010101010000FFFFFFFF0000000055
:100D9E00000001010101000000000000000001013F
:100DAE00000001010101000001010000000001012D
:100DBE00010001010101000101010000000001011B
:100DCE000101010101010101010100000000010109
:100DDE00010101010101010101010000FF000001FB
:100DEE000101010101010101010000FFFFFF0000EF
:100DFE0001010101010101010000FFFFFFFFFF00E2
:100E0E00000101010101010000FFFFFFFFFFFFFFD5
:100E1E000000010101010000FFFFFFFFFFFFFFFFC8
:100E2E00FF000001010000FFFFFFFFFFFFFFFFFFBC
:100E3E00FFFF00000000FFFFFFFFFFFF1010FFFF8E
:100E4E00FFFFFFFFFFFF0000000000000000FFFF9C
:100E5E00FFFFFFFFFF000002020202020000FFFF81
:100E6E00FFFFFFFF00000202020202020000FFFF6E
:100E7E00FFFFFF000002020200000202000000005D
:100E8E00000000000202020000000202000000004A
:100E9E000202020202020200FF0002020000000033
:100EAE000202020202020200FF0002020000000023
:100EBE000202000000020200FF0002020000000019
:100ECE00020200FF00020200FF000202000000000A
:100EDE000202000000020200FF00020200000000F9
:100EEE000202020202020200FF00020200000000E3
:100EFE0002020202020202000000020200000000D2
:100F0E000000000000020202000002020000FFFFCB
:100F1E00FFFFFFFF00000202020202020000FFFFBD
:100F2E00FFFFFFFFFF000002020202020000FFFFB0
:100F3E00FFFFFFFFFFFF0000000000000000101089
:100F4E000000000000FFFFFFFFFFFF000000000099
:100F5E000001010100FFFFFFFFFFFF000101010083
:100F6E000001010100FFFFFFFFFFFF000101010073
:100F7E000001010100FFFFFFFFFFFF000101010063
:100F8E000001010100FFFFFFFFFFFF000101010053
:100F9E00000101010000FFFFFFFF00000101010041
:100FAE00000101010100FFFFFFFF0001010101002F
:100FBE00000001010100FFFFFFFF00010101000021
:100FCE0000000101010000FFFF000001010100000F
:100FDE00FF0000010101000000000101010000FFFF
:100FEE00FFFF000001010100000101010000FFFFF1
:100FFE00FFFF000000010100000101000000FFFFE3
:10100E00FFFFFF00000101010101010000FFFFFFD2
:10101E00FFFFFFFF0000010101010000FFFFFFFFC6
:10102E00FFFFFFFFFF00000101000000FFFFFFFFB9
:10103E00FFFFFFFFFFFF0000000000FFFFFFFFFFAD
:10104E00101000000000000000FFFFFFFFFFFFFF79
:10105E00FFFF00000101010000FFFFFFFFFFFFFF88
:10106E00FFFF00000101010000FFFFFFFFFFFFFF78
:10107E00FFFF00000101010000FFFFFFFFFFFFFF68
:10108E00FFFF00000101010000FFFFFFFFFFFFFF58
:10109E00FFFF00000101010000FFFFFFFFFFFFFF48
:1010AE00FFFF00000101010000FFFFFFFFFFFFFF38
:1010BE00FFFF00000101010000FFFFFFFFFFFFFF28
:1010CE00FFFF00000101010000FFFFFFFFFFFFFF18
:1010DE00FFFF00000101010000FFFFFFFFFF000006
:1010EE00000000000101010000FFFFFFFFFF0000F4
:1010FE00000000000101010000FFFFFFFF000001E2
:10110E0000000000010101000000000000000101CC
:10111E0000000000010101010101010101010101B5
:10112E0000000000010101010101010101010101A5
:10113E0000000000000000000000000000000000A1
:10114E0000001010FFFFFFFFFFFFFFFFFFFFFFFF7D
:10115E00FFFFFFFFFFFFFFFFFFFFFFFFFFFFFFFF91
:10116E00FFFFFFFFFFFFFFFFFFFFFFFFFFFFFFFF81
:10117E00FFFFFFFFFFFFFFFF00000000000000FF6A
:10118E00FFFFFFFFFFFFFF00000001010100000055
:10119E00FFFFFFFFFFFF0000010101010101010040
:1011AE0000FFFFFFFF00000101010000000101012F
:1011BE000000FFFF00000001010000FF0000010120
:1011CE00000000FF00000101010000FF000001010E
:1011DE00010000FF00000101010000FF00000101FD
:1011EE00010000FF00000101010000FF00000101ED
:1011FE00010000FF00000001010000FF00000101DE
:10120E00000000FFFF0000010101000000010101CC
:10121E000000FFFFFFFF00000101010101010100BD
:10122E0000FFFFFFFFFFFF000000010101000000B3
:10123E00FFFFFFFFFFFFFFFF00000000000000FFA9
:10124E00FFFFFFFF1010FFFFFFFFFFFFFFFFFFFF7E
:10125E00FFFFFFFFFFFFFFFFFFFF0000000000008A
:10126E000000FFFFFFFFFFFF00000000020202026E
:10127E00000000FFFFFFFF00000002020202020258
:10128E0002020000FFFFFF00000202020000000049
:10129E000202020000FFFF00000202020000FF0037
:1012AE000000000000FFFF0000000202020200002A
:1012BE000000FFFFFFFFFFFFFF000002020202021D
:1012CE00020000FFFFFFFFFFFFFF00000000020211
:1012DE0002020000FFFFFF0000000000FFFF000001
:1012EE000202020000FFFF000002020200000000E6
:1012FE000202020000FFFF000000020202020202D0
:10130E0002020000FFFFFFFFFF00000002020202C8
:10131E00000000FFFFFFFFFFFFFFFF0000000000C7
:10132E000000FFFFFFFFFFFFFFFFFFFFFFFFFFFFBD
:10133E00FFFFFFFFFFFFFFFFFFFFFFFFFFFFFFFFAF
:10134E00FFFFFFFFFFFF1010FFFFFFFFFFFFFFFF7D
:10135E00FFFFFFFFFFFFFFFFFFFFFFFFFFFFFFFF8F
:10136E00FFFFFFFFFFFFFFFFFFFFFFFFFFFFFFFF7F
:10137E00FFFFFFFFFFFFFFFFFFFFFFFFFFFFFFFF6F
:10138E00FFFFFFFFFFFFFFFFFFFFFFFFFFFFFFFF5F
:10139E00FFFFFFFFFFFFFFFFFFFFFFFFFFFFFFFF4F
:1013AE00FFFFFFFFFFFFFFFFFFFFFFFFFFFFFFFF3F
:1013BE00FFFFFFFFFFFFFFFFFFFFFFFFFFFFFFFF2F
:1013CE00FFFFFFFFFFFFFFFF1010FFFFFFFFFFFFFD
:1013DE00FFFFFFFFFFFFFFFFFFFFFFFFFFFFFFFF0F
:1013EE00FFFFFFFFFFFFFFFFFFFFFFFFFFFFFFFFFF
:1013FE00FFFFFFFFFFFFFFFFFFFFFFFFFFFFFFFFEF
:10140E00FFFFFFFFFFFFFFFFFFFFFFFFFFFFFFFFDE
:10141E00FFFFFFFFFFFFFFFFFFFFFFFFFFFFFFFFCE
:10142E00FFFFFFFFFFFFFFFFFFFFFFFFFFFFFFFFBE
:10143E00FFFFFFFFFFFFFFFFFFFFFFFFFFFFFFFFAE
:10144E00FFFFFFFFFFFFFFFFFFFF1010FFFFFFFF7C
:10145E00FFFFFFFFFFFFFFFFFFFFFFFFFFFFFFFF8E
:10146E00FFFFFFFFFFFFFFFFFFFFFFFFFFFFFFFF7E
:10147E00FFFFFFFFFFFFFFFFFFFFFFFFFFFFFFFF6E
:10148E00FFFFFFFFFFFFFFFFFFFFFFFFFFFFFFFF5E
:10149E00FFFFFFFFFFFFFFFFFFFFFFFFFFFFFFFF4E
:1014AE00FFFFFFFFFFFFFFFFFFFFFFFFFFFFFFFF3E
:1014BE00FFFFFFFFFFFFFFFFFFFFFFFFFFFFFFFF2E
:1014CE00FFFFFFFFFFFFFFFFFFFFFFFF1010FFFFFC
:1014DE00FFFFFFFFFFFFFFFFFFFFFFFFFFFFFFFF0E
:1014EE00FFFFFFFFFFFFFFFFFFFFFFFFFFFFFFFFFE
:1014FE00FFFFFFFFFFFFFFFFFFFFFFFFFFFFFFFFEE
:10150E00FFFFFFFFFFFFFFFFFFFFFFFFFFFFFFFFDD
:10151E00FFFFFFFFFFFFFFFFFFFFFFFFFFFFFFFFCD
:10152E00FFFFFFFFFFFFFFFFFFFFFFFFFFFFFFFFBD
:10153E00FFFFFFFFFFFFFFFFFFFFFFFFFFFFFFFFAD
:10154E00FFFFFFFFFFFFFFFFFFFFFFFFFFFF10107B
:10155E00FFFFFFFFFFFFFFFFFFFFFFFFFFFFFFFF8D
:10156E00FFFFFFFFFFFFFFFFFFFFFFFFFFFFFFFF7D
:10157E00FFFFFFFFFFFFFFFFFFFFFFFFFFFFFFFF6D
:10158E00FFFFFFFFFFFFFFFFFFFFFFFFFFFFFFFF5D
:10159E00FFFFFFFFFFFFFFFFFFFFFFFFFFFFFFFF4D
:1015AE00FFFFFFFFFFFFFFFFFFFFFFFFFFFFFFFF3D
:1015BE00FFFFFFFFFFFFFFFFFFFFFFFFFFFFFFFF2D
:1015CE00FFFFFFFFFFFFFFFFFFFFFFFFFFFFFFFF1D
:1015DE001010FFFFFF0000FFFFFFFFFFF000000FE6
:1015EE00FFFFFFFF00222200FFFFFFFF002222006D
:1015FE00FFFFFFF0022002200FFFFFF0022002206B
:10160E000FFFFF002200002200FFFF00220FF0223A
:10161E0000FFF002200FF002200FF0022000000267
:10162E00200F002222222222220000222222222207
:10163E0022000022000000002200002200FFFF0016
:10164E002200002200FFFF002200000000FFFF002A
:10165E000000101000000000000000FF02222222F5
:10166E002222000F0222222222222000000220002B
:10167E0000222200F00220FFF0022200F00220FFE2
:10168E00F0022200F00220000022200FF00222229F
:10169E00222200FFF0022222222200FFF00220006E
:1016AE000022200FF00220FFF0022200F00220FFA5
:1016BE00F00222000002200000222200022222223A
:1016CE0022222000022222222222000F00000000ED
:1016DE00000000FF1010101010101010101010103D
:0A16EE001010101010101010101052
:10767200122A85FF900355E02F9001F5F022900128
:10768200EFE0FBA3E0FAA3E0F922F09001EFE0FBC8
:10769200A3E475F001122B41A9F0FA022A6C9001C1
:0876A200E6E0D364809480222D
:067C3500E4900355F0226B
:067C3B00900355EFF0225A
:0B4FD3009001E7EFF0A3ECF0A3EDF07D
:104FDE009001E7E0FF25E0F0E02408F09001EEF00C
:104FEE009001E8E0FEA3E07803C333CE33CED8F9C8
:104FFE00F0EE9001E8F0A3E02408F09001E8E03430
:10500E0000F0AF037E007C017D02122AC4742E2FA5
:10501E00F974003EFA9001EF74FFF0A3EAF0A3E9F1
:10502E0012768C9001EA12768C9001EBF0E4A3F0EC
:10503E009001EAE0FF9001ECE0C39F400302511A99
:10504E00E4A3F09001EBE0FF9001EDE0C39F40037D
:10505E000250FB127680122A6C127675E4FB7D02EA
:10506E00FF126C0F1276809000011276727B011285
:10507E0051449000021276727B021251449000034A
:10508E001276727B031251579001F57480F07B04F7
:10509E001251579001F0E475F004122B2B9001EE93
:1050AE00E09001F5F07B0512515FA3E09001F5F061
:1050BE007B0712515FE07E007802C333CE33CED829
:1050CE00F912511B12516A20E7FA9001E8E025E02F
:1050DE0025E0440812511B12516A20E7FA9001EEA6
:1050EE00E004F09001EDE02404F00250519001E74D
:1050FE00E09001EEF09001E9E004F070069001E816
:0C510E00E004F09001ECE004F002503EE0
:10511A00229001F5F07B097D02E4FF126C0F7B0AF5
:10512A007D02E4FF12676CEF543F44809001F5F072
:10513A007B0A7D02E4FF126C0F227D02E4FF126CEF
:10514A000F9001EFE0FBA3E0FAA3E0F9227D02E46D
:10515A00FF126C0F227D02E4FF126C0F9001E8220D
:0B516A007B0A7D02E4FF12676CEF225D
:0B6E60009001E0EFF0A3EDF0A3EBF0D9
:106E6B00A3127683127AD09001E6EFF0C36480947C
:106E7B008040429001E0E030E0339001E1E0FFA37D
:106E8B00E0FD7C00A3127683122A6CFB124FD39089
:106E9B0001E6E014F09001E4E475F001122B2B9065
:106EAB0001E1E02402F01276A050CF80051276A00B
:056EBB0050FB1200294C
:016EC00022AF
:1079C2000500000600000700000800000900000A88
:1079D200000012000020000B000C000D000E000041
:03534D000121003B
:106A6B0090033CE075F003A424C2F9747935F0FA75
:106A7B009001E374FFF0A3EAF0A3E9F0229001DDAB
:106A8B00E0FBA3E0FAA3E0F9229001E374FFF0A38B
:106A9B007479F0A374CEF022900001022A85122A99
:106AAB006C540C1313543FF50822900002022A85F4
:106ABB00900003022A857B017D127C00227B01E47E
:0D6ACB00FDFC7F1C227B01E4FDFC7F4122CD
:1071160012585A127C357F041200267F03127C4DCA
:10712600E4F508AF0812714C0508E508C39406405B
:10713600F27F011276AA7FFF127C4D7F0812714CF6
:05714600E4900339F0A4
:10714B0022127A029001E1E4F0A37426F07B5AE458
:07715B00FDFCFF1260ED22B4
:103B8F009001DDEB126A807F021200267FFF127C0C
:103B9F004D90033BE0122E433BD5113BE4213C0EED
:103BAF00223C3C313C76333CB0343CEA413D3691CB
:103BBF003D4CA13D74A23D9CB13DDCB33E16B43EDD
:103BCF004DC100003E9A126A88122A6C20E103024E
:103BDF003E9A023D42126A88122A6C30E108126A3C
:103BEF006B7DFF123EB9126A88126AA320E10302AD
:103BFF003E9A90033D126A6E7B1D7D5D023E9512CB
:103C0F006A88122A6C30E10C126A6B7B0E7D487F3A
:103C1F0001126E60126A88126AA320E103023E9AB3
:103C2F0090033D126A6EE4FB7D14023E95126A8882
:103C3F00122A6C30E106126A6B123ED5126A881294
:103C4F006AA330E10990033D126A6E123EDF126AD9
:103C5F0088126AB520E103023E9A90033E126A6E03
:103C6F007B0F7D3E023E95126A88122A6C30E10668
:103C7F00126A6B123E9B126A88126AA330E1099096
:103C8F00033D126A6E123EC1126A88126AB520E1B4
:103C9F0003023E9A90033E126A6E7B0F7D3E023EF8
:103CAF0095126A88122A6C30E106126A6B123E9BDB
:103CBF00126A88126AA330E10990033D126A6E12EC
:103CCF003EC1126A88126AB520E103023E9A900340
:103CDF003E126A6E7B0F7D14023E95126A88122A7D
:103CEF006C30E106126A6B123EA5126A88126AA343
:103CFF0030E10990033D126A6E123ECB126A8812B0
:103D0F006AB530E10990033E126A6E123EDF126A05
:103D1F0088126ABB20E103023E9A90033F126A6E3B
:103D2F007B0F7D3E023E95126A88122A6C20E103BA
:103D3F00023E9A126A6BE4FB7D29023E95126A8855
:103D4F00122A6C30E106126A6B123ED5126A881283
:103D5F006AA320E103023E9A90033D126A6E7B1222
:103D6F007D29023E95126A88122A6C30E106126A8A
:103D7F006B123EA5126A88126AA320E103023E9AD3
:103D8F0090033D126A6EE4FB7D3E023E95126A88F7
:103D9F00122A6C30E10C126A6BE4FB7D297F011251
:103DAF006E60126A88126AA330E10990033D126AAD
:103DBF006E123EF3126A88126AB520E103023E9A30
:103DCF0090033E126A6E7B127D3E023E95126A8808
:103DDF00122A6C30E106126A6B123EAF126A881219
:103DEF006AA330E10990033D126A6E123ECB126A4C
:103DFF0088126AB520E103023E9A90033E126A6E62
:103E0F007B127D3E023E95126A88122A6C30E106C3
:103E1F00126A6B123EAF126A88126AA330E10990E0
:103E2F00033D126A6E123EE9126A88126AB530E1DA
:103E3F005A90033E126A6E7B127D14023E95126AEF
:103E4F0088122A6C30E108126A6B7D14123EB91287
:103E5F006A88126AA330E10990033D126A6E123E1E
:103E6F00E9126A88126AB530E10990033E126A6E50
:103E7F00123EF3126A88126ABB30E10F90033F12B1
:103E8F006A6E7B127D3E7F01126E6022E4FB7D1411
:103E9F007F01126E6022E4FB7D147F01126E60229F
:103EAF00E4FB7D147F01126E6022E4FB7F01126E32
:103EBF006022E4FB7D3E7F01126E6022E4FB7D3EBB
:103ECF007F01126E6022E4FB7D297F01126E60225A
:103EDF007B0F7D147F01126E6022E4FB7D3E7F011C
:0E3EEF00126E60227B127D147F01126E602223
:087C250090033AE04480F022D4
:1073B1007B787D01E4FF12676CEF540FFF90034966
:1073C100F090033AE06F602ED2237B31E4FDFF128F
:1073D100676CEF547F9001F5F07B31E4FDFF126C97
:1073E1000F7F4D1200267F40127C3B127C359003AB
:0773F10049E090033AF0228D
:075463009001DDEB126A80ED
:10546A007F4112002690033BE0122E43549E1154B2
:10547A00AF2154DC22550C31552E33554A34549EF3
:10548A009154AFA154DCA2550CB1552EB3554AB470
:10549A00000055869001DD126A8B126AA960030228
:1054AA0055170255249001DD126A8B126AA9600B06
:1054BA00125587126A7A1255B98006126AC8125FA3
:1054CA003C9001DD126A8B126AA3126AAC60300248
:1054DA0055589001DD126A8B126AA9600B12558722
:1054EA00126A7A1255B98006126AC8125F3C900194
:1054FA00DD126A8B126AA3126AAC60030255580263
:10550A00557C9001DD126A8B126AA9600D1255A0B2
:10551A00126A7AE4FB7D310255777B01E4FDFC7F58
:10552A00310255839001DD126A8B126AA9600C124E
:10553A0055A0126A7AE4FB7D1C8032126AC880394F
:10554A009001DD126A8B126AA3126AAC60247B0294
:10555A00E4FDFCFF125F3CE50825E0FFE433FE743E
:10556A00D72FF974793E126A7AE4FB7D467F0102ED
:0C557A006E607B01E4FDFC7F46125F3C8C
:10558600227B02E4FDFCFF125F3CE50825E0FFE418
:1055960033FE74D72FF974793E227B02E4FDFCFFBB
:1055A600125F3CE50825E0FFE433FE74D72FF9745B
:0D55B600793E22E4FB7D1C7F01126E602215
:102EB1009001DDEB126A807F0C12002690033BE04B
:102EC100122E432EF2112F04212F2D222F56312F96
:102ED10096332FD634301F41307F913099A130D1B4
:102EE100A23104B13158B331A4B431F6C10000327A
:102EF100639001DD126A8B122A6C30E00302308B81
:102F01000230929001DD126A8B122A6C30E00812B5
:102F11006A941232D880031232AD9001DD126A8BAD
:102F2100126AA330E0030230BC0230C69001DD1208
:102F31006A8B122A6C30E008126A9412326F800395
:102F41001232649001DD126A8B126AA330E003022F
:102F510030F40230FE9001DD126A8B122A6C30E0EF
:102F610008126A941232D880031232AD9001DD1238
:102F71006A8B126AA330E008126A9412330E80033E
:102F81001232F79001DD126A8B126AB530E003024A
:102F910030700230789001DD126A8B122A6C30E0B9
:102FA10008126A9412326F80031232649001DD12AA
:102FB1006A8B126AA330E008126A941232C380034A
:102FC1001232839001DD126A8B126AB530E003027E
:102FD10030700230789001DD126A8B122A6C30E079
:102FE10008126A94123279800312328E9001DD1236
:102FF1006A8B126AA330E008126A941232C380030A
:103001001232839001DD126A8B126AB530E0081228
:103011006A947B0F0231E67B017D0F0231EF900153
:10302100DD126A8B122A6C30E008126A941232792E
:10303100800312328E9001DD126A8B126AA330E096
:1030410008126A941232ED80031232B89001DD1237
:103051006A8B126AB530E008126A9412330E80034B
:103061001232F79001DD126A8B126ABB30E008124E
:103071006A947B0F0230F97B017D0F02315190017F
:10308100DD126A8B122A6C30E007126A94E4FB802D
:103091002F7B01E4FDFC80339001DD126A8B122A43
:1030A1006C30E008126A9412331880031232E290F5
:1030B10001DD126A8B126AA330E00A126A947B0F57
:1030C1007D2C0232567B017D0F7C007F2C02326009
:1030D1009001DD126A8B122A6C30E008126A941298
:1030E100329980031232CD9001DD126A8B126AA3EC
:1030F10030E00A126A94E4FB7D41023256126AD032
:103101000232609001DD126A8B122A6C30E00812E3
:103111006A9412331880031232E29001DD126A8B35
:10312100126AA330E008126A941233228008126AEC
:10313100C17F17125F3C9001DD126A8B126AB530B4
:10314100E00A126A947B127D410232567B017D12A4
:103151007C007F410232609001DD126A8B122A6C81
:1031610030E008126A9412329980031232CD900134
:10317100DD126A8B126AA330E008126A941232EDF2
:1031810080031232B89001DD126A8B126AB530E009
:103191000A126A947B127D41023256126AC17F4142
:1031A1000232609001DD126A8B122A6C30E0081243
:1031B1006A941232A380031233039001DD126A8BE9
:1031C100126AA330E008126A9412332C8006126A44
:1031D100D0125F3C9001DD126A8B126AB530E00AB1
:1031E100126A947B127D170232567B017D127C009C
:1031F1007F170232609001DD126A8B122A6C30E077
:1032010008126A941232A380031233039001DD1273
:103211006A8B126AA330E008126A9412332C80067A
:10322100126AD0125F3C9001DD126A8B126AB530CE
:10323100E008126A941233228008126AC17F1712C1
:103241005F3C9001DD126A8B126ABB30E00C126A9E
:10325100947B127D417F01026E60126AC17F41122F
:103261005F3C227B01E4FDFC7F17125F3C22E4FB03
:103271007D177F01126E6022E4FB7D177F01126EC4
:1032810060227B01E4FDFC7F41125F3C227B01E473
:10329100FDFC7F17125F3C22E4FB7D177F01126E5C
:1032A1006022E4FB7D177F01126E60227B01E4FD49
:1032B100FC7F2C125F3C227B01E4FDFC7F41125F0D
:1032C1003C22E4FB7D417F01126E60227B01E4FD23
:1032D100FC7F17125F3C22E4FB7D2C7F01126E60A4
:1032E100227B01E4FDFC7F2C125F3C22E4FB7D414B
:1032F1007F01126E60227B017D0F7C007F17125FC0
:103301003C227B01E4FDFC7F17125F3C227B0F7D99
:10331100177F01126E6022E4FB7D2C7F01126E602B
:10332100227B127D177F01126E6022E4FB7D417FBB
:0533310001126E602294
:1073F800E4FF127A02900339E024FE600E04702341
:1074080012742C7479F0A374D1800912742C7479D5
:10741800F0A374D4F0E4FB7D017F01126E607FFF5E
:10742800127C4D227F03127C4D7F041200269001AE
:06743800E374FFF0A32243
:10795800E4FF127A02900341E030E1127B017A03DE
:107968007941122EB17B017A037941125463127C5A
:0679780025E4FF0276AADF
:1016F80000000000000000000000000000000000E2
:1017080000000000000000000000000000000000D1
:10171800003E007E00FE01CE038E7F8E7F8E738E8C
:10172800738E738E7F8E7F8E01CE00FE007E003E0C
:1017380000000000020006000E001E003FFE7FFEB3
:101748007FFE3FFE1E000E000600020000000000A3
:101758000000000000400060007000787FFC7FFE01
:101768007FFE7FFC007800700060004000000000F1
:10177800000003C003C003C003C003C003C003C00C
:1017880003C03FFC1FF80FF007E003C00180000012
:1017980003C003C007E007E00E700E701C381C3849
:1017A800381C381C7FFE7FFE700E700E700E700E97
:1017B8007FF87FFC383E381E381E381E383C3FF80C
:1017C8003FF8383C381E381E381E383E7FFC7FF8FC
:1017D8000FF81FFC3C1C380E780E700E700070005D
:1017E80070007000700E700E380E3C1C1FFC0FF855
:1017F8007FF07FF07078703C703C703C70787FF0C0
:101808007FE0778073C071E070F07078703C701E74
:1018180000006006700E781E7C3E7FFE77EE73CE69
:10182800718E700E700E700E700E700E700E700E3F
:1018380000001FF81FF800E000E000E000E000E012
:1018480000E000E000E070E079E03FC01F800F009A
:1018580000000000000003C007800F001E003FFCCE
:101868003FFC1E000F00078003C0000000000000BE
:1018780000000000000003C001E000F000783FFC19
:101888003FFC007800F001E003C000000000000009
:1018980000000000018001800180018011881998F2
:1018A8001DB81FF80FF007E003C00180000000001A
:1018B800003E007E00FE01CE038E7F8E7F8E738EEB
:1018C800738E738E7F8E7F8E01CE00FE007E003E6B
:1018D800700E700E700E700E700E700E781E381C22
:1018E800381C1C381C380E700FF007E003C001804C
:1018F8000000380038003800380038003800380058
:1019080038003800380038063806380E3FFE3FFEEB
:101918000000000000000000000003800FE01C70C1
:10192800183038383838383818301C700FE00380D1
:101938000000000000000000000003C00FF01C3889
:101948001C000F0007E000F000381C380FF003C03F
:10195800000000000000000000000000000000007F
:10196800000000000000000000000000000000006F
:10197800000000000000000000000000000000005F
:10198800000000000000000000000000000000004F
:10199800000000000000000000000000000000003F
:1019A800000000000000000000000000000000002F
:1019B800000000000000000000000000000000001F
:1019C800000000000000000000000000000000000F
:1019D80000000000000000000000000000000000FF
:1019E80000000000000000000000000000000000EF
:1019F80000000000000000000000000000000000DF
:101A080000000000000000000000000000000000CE
:101A180000000000000000000000000000000000BE
:101A280000000000000000000000000000000000AE
:101A3800000000000000000000000000000000009E
:101A4800000000000000000000000000000000008E
:101A5800000000000000000000000000000000007E
:101A6800000000000000000000000000000000006E
:101A7800000000000000000000000000000000005E
:101A8800000000000000000000000000000000004E
:101A9800000000000000000000000000000000003E
:101AA800000000000000000000000000000000002E
:101AB800000000000000000000000000000000001E
:101AC800000000000000000000000000000000000E
:101AD80000000000000000000000000000000000FE
:101AE80000000000000000000000000000000000EE
:101AF80000000000000000000000000000000000DE
:101B080000000000000000000000000000000000CD
:101B1800000007000F800F800F800F80070007006C
:101B28000700020002000000020007000700020090
:101B38000000EE006600440088000000000000007D
:101B4800000000000000000000000000000000008D
:101B5800000008200820082008203FF80820082056
:101B68000820082008203FF808200820082008201E
:101B780000000FC01B603330333033001B000F00F0
:101B880003C0036013303B3033301B600FC00300C9
:101B980000003808441084200440048009001270B2
:101BA800E4880908120822084210822001C00000B7
:101BB80000000E001B00318031801B000E001C004D
:101BC8003678632061A060E0606030F01F9C000000
:101BD80000000000000000000000000000000000FD
:101BE800000000000000800060007000380018004D
:101BF8000000000400080018001000300030003019
:101C08000030003000300010001800080004000206
:101C180000008000400060002000300030003000EC
:101C280030003000300020006000400080000000DC
:101C3800000002004210222012400A800700FFFC28
:101C480007000A8012402220421002000200000011
:101C580000000000030003000300030003007FF8F6
:101C68007FF80300030003000300030000000000E6
:101C7800000000000000000000000000000000005C
:101C8800000018003C003C00180010002000400034
:101C980000000000000000000000000000007FF8C5
:101CA8007FF80000000000000000000000000000B5
:101CB800000000000000000000000000000000001C
:101CC8000000000000007800840084008400780090
:101CD800000000180030006000C00180030006000A
:101CE8000C00180030006000C000800000000000F8
:101CF80000000FE0183030183038307830D831987C
:101D0800331836183C183818301818300FE000000F
:101D18000000030007000F00030003000300030096
:101D28000300030003000300030003001FE000009A
:101D380000000FE01830301830183038007001C03B
:101D480003000E001800300830083FF83FF8000084
:101D5800000007C0183030183018003000E003C009
:101D680000E00030001830183018183007C00000A4
:101D7800000000C001C003C006C00CC018C030C0BD
:101D880060C0C0C0C0C0FFF800C000C003F00000C1
:101D980000003FF03FF030003000300037C03830EE
:101DA80030180018001830183018183007C0000014
:101DB800000007E01830303030003000300037E0E5
:101DC8003830301830183018301818300FC000006C
:101DD80000003FF83FF8201820180030006000C0CD
:101DE8000180030003000300030003000300000058
:101DF80000000780186030303030303018600FC075
:101E08001860303060186018601830300FC000005B
:101E1800000007801860303030183018301830381B
:101E2800187807980018303038301860078000009C
:101E3800000000000000000003000780030000000D
:101E480000000300078003000000000000000000FD
:101E580000000000000000000300078003000000ED
:101E680000000300078003800180070000000000D5
:101E780000000000001800600180060018006000E3
:101E88008000600018000600018000600018000053
:101E9800000000000000000000007FF87FF800004C
:101EA80000007FF87FF8000000000000000000003C
:101EB8000000800060001800060001800060001823
:101EC800000400180060018006001800600080000F
:101ED800000007800FC01CE038E038E011C0018026
:101EE80003000300020002000000020007000700D0
:101EF80000000FC030604010478888C890C890C85C
:101F080090C890C888D84770400830700FC000004B
:101F1800000003000300078007800CC00CC0186095
:101F280018601FE03030303060186018F03C000056
:101F380000003F80186018301830183018601FC033
:101F48001860183018181818181818303FC00000F2
:101F58000000078818683038601860086000600062
:101F6800600060006008601830301860078000006A
:101F780000007F8030E030383018301830183018C2
:101F88003018301830183018303030E07F800000BA
:101F980000003FF0183018101800188018801F80B3
:101FA8001880188018001800181018303FF000002A
:101FB80000003FF0183018101800188018801F8093
:101FC8001880188018001800180018003C0000003D
:101FD80000000F90187030306010601060006000D2
:101FE8006078603060306030307018F00FB00000FA
:101FF80000007878303030303030303030303FF0DA
:102008003030303030303030303030307878000098
:1020180000000FC0030003000300030003000300D7
:102028000300030003000300030003000FC00000C7
:10203800000001F000600060006000600060006067
:10204800006000603060306030E019C00F000000B0
:10205800000078F8306030C03180330036003C0032
:102068003E003300318030C030603030787C000072
:1020780000003C001800180018001800180018008C
:102088001800180018001808181818383FF8000029
:102098000000E03CE038F078F078D8D8D8D8C89874
:1020A800CD98CD98C518C718C218C018E07C000094
:1020B8000000C078E030F030F830DC30CE30C73087
:1020C800C3B0C1F0C0F0C070C030C030E0780000CC
:1020D80000000FC0387070386018601860186018F9
:1020E8006018601860186018703838700FC00000E9
:1020F80000003FC0187018381818181818381870C9
:102108001FC0180018001800180018003C00000034
:1021180000001F8070E0E070C030C030C030C030B8
:10212800C030C030C030CF30E1F070E01FEC003874
:1021380000003F8018E0187018301830187018E048
:102148001FC01B80198018C0186018303C7C000024
:1021580000000FD018703030301018000E000380C7
:1021680000E000302018301838182C3027E0000024
:1021780000007FF873386318430803000300030066
:1021880003000300030003000300030007800000AE
:102198000000787830303030303030303030303007
:1021A800303030303030303030301CE00FC000007C
:1021B8000000F0786030603060306030603060304F
:1021C80060306030306018C00D80070002000000E9
:1021D8000000C71C82088208C71847184510451018
:1021E8006DB06DB028A038E01040104010400000DD
:1021F8000000F07C6030306018C008800D80070057
:10220800020007000D8018C030606030F07C0000CC
:102218000000F03C6018303018600CC007800300E4
:10222800030003000300030003000300078000000D
:1022380000003FF8301820180030006000C001800E
:10224800030006000C001800300860187FF8000032
:102258000000001C0030006000600060006000604A
:102268000060006000600060006000600030001CDA
:1022780000008000C0006000300018000C0006005C
:102288000300018000C0006000300018000C00044A
:102298000000E000300018001800180018001800AE
:1022A8001800180018001800180018003000E00086
:1022B8000000000000000000000000000000000016
:1022C800020007000D8018C07070C01C00000000DC
:1022D80000000000000000000000000000000000F6
:1022E8000000000000000000000000000000FFFEE9
:1022F80000000E0007000180004000000000000000
:1023080000000000000000000000000000000000C5
:102318000000000000000000000000000F8030C036
:1023280000C00FC018C030C030C031D01F600000DE
:102338000000380018001800180018001FC01C60A2
:10234800183018301830183018301C603FC00000A2
:102358000000000000000000000000000FC018602E
:102368003060306030003000300018200FC00000AE
:102378000000007000300030003000300FB01870DE
:102388003030303030303030303018700FB000001E
:102398000000000000000000000000000FC01860EE
:1023A800303030303FF03000300018300FE000009F
:1023B800000003C006600660060006003FC0060075
:1023C8000600060006000600060006000F000000D2
:1023D800000000000000000000000FB018E018C066
:1023E80018C00F80070018C03060306018C00F8018
:1023F8000000380018001800180018001BC01E60E4
:102408001C30183018301830183018303C7800005C
:1024180000000000030003000000000007000300A4
:10242800030003000300030003000300078000000B
:10243800000001800180000000000380018001800D
:102448000180018001801980198019800F00000027
:1024580000003800180018001800180019F018C0FB
:1024680019801B001F801CC0186018303C7C0000BD
:10247800000007000300030003000300030003003B
:1024880003000300030003000300030007800000AB
:10249800000000000000000000000000DEF073985B
:1024A800631863186318631863186318F39C0000B3
:1024B80000000000000000000000000037C01C60A1
:1024C8001860186018601860186018603CF0000008
:1024D8000000000000000000000000000FC01860AD
:1024E8003030303030303030303018600FC00000BD
:1024F80000000000000000000000000037C01C6061
:102508001830183018301C601FC0180018003C0024
:102518000000000000000000000000000F8018E02C
:1025280030603060306018E00FE00060006000F05C
:102538000000000000000000000000001BC00EE0CA
:102548000C600C000C000C000C000C001E000000BD
:102558000000000000000000000000000FC018E0AC
:1025680018200E00030001C0106018600FC00000A2
:102578000000000000000600060006003FC006003C
:102588000600060006000600066006E007C0030015
:106B4100EF44C09001F5F07B0A7D02E4FF22EFF0F3
:106B5100A3ECF0A3EDF0A3EBF09001F5E517F02223
:106B6100F09001F5F07B0F7D02E4FF2225E025E0A6
:106B7100FDE02D44029001F5F07B097D02E4FF2246
:106B81009001D87454F0A374FFF022F0A3E0FEA3A7
:106B9100E0780322A3E09001F5F022E09001F5F006
:076BA1007B067D02E4FF22E8
:030026008F18220E
:037C4D008F17226C
:106F79009001D5EFF0A3EDF09001F5EBF07B0B124A
:106F89006FCA9001D8E09001F5F07B0C126FCA909E
:106F990001D9E09001F5F07B0D7D02E4FF126C0F41
:106FA9009001D5E030E006A3E0448080069001D648
:106FB900E044C09001F5F07B0E7D02E4FF126C0FF6
:096FC900227D02E4FF126C0F228C
:10585A009001F574C0F07B1F7D02E4FF126C0F907B
:10586A0001F5740C126B65126C0F126B817F0212B8
:10587A00595A7454F0A3744AF07B4C7F021259703F
:10588A0074FFF0A3746BF07F021259657480F0A361
:10589A00F0E4FBFD125979126B847F0112595A7494
:1058AA0055F0A3744AF07B4B7F0112597074FFF0D4
:1058BA00A3746BF07F011259657480F0A3F07BF03A
:1058CA007D041259797480F0A3F07BC07D051259CA
:1058DA00827480F0A3F07B7F7D061259827480F077
:1058EA00A3F07B3F7D0712598B744FF0A374B5F078
:1058FA007B957D0812598B74AAF0E4A3F07BB27DE4
:10590A00097F01126F799001D874D4F0A374EAF078
:10591A007B697D0A7F01126F799001D874B5F0A373
:10592A00743AF07B617D0B7F01126F79E49001D8A4
:10593A00F0A37494F07BE17D0C7F01126F79126BF6
:10594A00817B4C7D0D7F01126F79E4F517F51822E2
:10595A007B4C7D01126F799001D8227B1D7D031249
:10596A006F799001D8227D02126F799001D8227F37
:10597A0001126F799001D8227F01126F799001D8B4
:0A598A00227F01126F799001D822EC
:107A02009001DDEF126B4712676CEF54C3FF9001D8
:0F7A1200DDE0FE25E025E04FF0126B44026C0F23
:1076AA009001DDEFF064087B0F7D0270071276CB44
:1076BA0044028006E41276CB4408126B61126C0F06
:1076CA0022FF12676CEF540FFF9001DDE05407FEB2
:0676DA00C454F04FF02241
:047716009001DDEF12
:10771A00126B6512676CEF540FFF9001DEE4F0A361
:10772A00EFF09001DDE0F4FFE4F4FEA3E05EFEA3D7
:10773A00E05FFF9001DEEEF0A3EF126B61026C0FC7
:1060ED009001DD126B4FE4FB7D02FF126C0F126B02
:1060FD005A7B011261AE126B5A7B021261AE126BAA
:10610D005A7B031261B69001DDE0FF25E0126B8C26
:10611D00C333CE33CED8F9FF9001DEEEF0FCA3EF02
:10612D00F0FDA3E025E0FF9001DDE0FB2F149001D1
:10613D00E0126B8CC333CE33CED8F92DFFEE3CCFAE
:10614D0024FFCF34FF9001E1F0A3EFF09001F5EBC8
:10615D00F07B051261B69001E0126B9C126C0F90F2
:10616D0001DE126B957B077D02E4FF126C0F90012F
:10617D00E1126B957B087D02E4FF126C0F9001DE3E
:10618D00E09001E1126B6D126C0F126B4812676C8F
:10619D00126B41126C0F126B4812676CEF20E7F611
:1061AD00227D02E4FF126C0F227D02E4FF126C0FC0
:0161BD0022BF
:107A5800127A027FFF127C4D9001E1E4F0A37426B4
:0A7A6800F07B5AE4FDFCFF0260ED24
:035F3C009001E0F1
:105F3F00126B4FE4FB7D02FF126C0F126B5A7B0149
:105F4F00126006126B5A7B02126006126B5A7B03A9
:105F5F0012600E9001E0E0FF25E0F0E02408126BE4
:105F6F008CC333CE33CED8F9F0EE9001E1F0A3E03D
:105F7F002408F09001E1E03400F09001E3E025E027
:105F8F0025E0FF9001E0E0FD2F149001E4F0900177
:105F9F00E2E0240FFE9001E1E034009001E5F0A370
:105FAF00CEF09001F5EDF07B0512600E9001E4123A
:105FBF006B9C126C0F9001E1126B957B077D02E4D5
:105FCF00FF126C0F9001E5126B957B087D02E4FFC9
:105FDF00126C0F9001E1E09001E5126B6D126C0FE6
:105FEF00126B4812676C126B41126C0F126B4812D6
:065FFF00676CEF20E7F6DD
:10600500227D02E4FF126C0F227D02E4FF126C0F69
:016015002268
:097BF800D28C758CEFE4F58A22B1
:107A2100D2CAD2ADD2BDE4F5C975C804C2CF75CDF5
:0C7A3100B8F5CC7F0C7825E4F608DFFCEB
:017A3D002226
:03000B00027BB4C1
:0D7BB400C2AF758CDC758A00C28DD2AF3275
:03002B00025E5F13
:105E5F00C0E0C083C082C0D0C2AF75CDB875CC00D2
:105E6F00C2CFD3E5269401E525648094804008E5F0
:105E7F0026152670021525D3E5289401E5276480A1
:105E8F0094804008E528152870021527D3E52A9439
:105E9F0001E529648094804008E52A152A700215CF
:105EAF0029D3E52C9401E52B648094804008E52CE0
:105EBF00152C7002152BD3E52E9401E52D648094DB
:105ECF00804008E52E152E7002152DD3E530940174
:105EDF00E52F648094804008E53015307002152F4F
:105EEF00D3900323E09401900322E09400400CA38D
:105EFF00E024FFF0900322E034FFF0D3900325E07D
:105F0F009401900324E09400400CA3E024FFF09050
:105F1F000324E034FFF09002F5E0D394014003E056
:0D5F2F0014F0D2AFD0D0D082D083D0E032B9
:10333600FFFF00FFFF000130000131B40132000140
:1033460033780134000135B401360001377801388D
:10335600000139B4013A00013B78013C00013DB45B
:10336600013E00013F78FFFFFFFFFF00FFFF000166
:1033760030000131B40132000133900134000135CF
:10338600B40136000137900138000139B4013A0022
:10339600013B90013C00013DB4013E00013F90FF1E
:1033A600FFFFFFFF007FFF000130000131B4013253
:1033B6000001333C0134000135B401363C01377855
:1033C600FFFFFF555500555500FFFF01FFFF0101A7
:1033D60030780131B40132500133780134000135BF
:1033E600B4013600013778FFFFFFFFFF007FFF00C3
:1033F6000130000131B401320001334801340001CB
:1034060035B4013648013790FFFFFF7FFF00FFFF0D
:103416000001300001315A01320001339001345A63
:103426000135B4013600013790FFFFFFFFFF007F33
:10343600FF007FFF017FFF017FFF027FFF02013058
:10344600000131B401320001333C01340001355A28
:1034560001363C01377801385A0139B4013A3C014A
:103466003B78FFFFFF7FFF007FFF007FFF017FFFAD
:1034760001FFFF027FFF0201300001315A013200D5
:1034860001333C01345A0135B401360001373C01A1
:1034960038000139B4013A3C013B78FFFFFF7FFF5A
:1034A60000FFFF007FFF017FFF017FFF027FFF021A
:1034B60001300001315A01320001337801345A01DA
:1034C60035B401360001373C01385A0139B4013AA6
:1034D6003C013B78FFFFFF7FFF007FFF007FFF017E
:1034E600FFFF017FFF027FFF0201300001315A0119
:1034F600320001333C01345A0135B401360001373C
:103506007801380001395A013A3C013B78FFFFFF48
:10351600FFFF007FFF007FFF017FFF017FFF027F2C
:10352600FF020130000131B4013200013348013499
:103536000001355A01364801379001385A0139B42D
:10354600013A48013B90FFFFFF7FFF007FFF007FAE
:10355600FF017FFF01FFFF027FFF02013000013103
:103566005A01320001334801345A0135B40136009C
:103576000137480138000139B4013A48013B90FF50
:10358600FFFF7FFF00FFFF007FFF017FFF017FFF3F
:10359600027FFF0201300001315A013200013390EF
:1035A60001345A0135B401360001374801385A0151
:1035B60039B4013A48013B90FFFFFF7FFF007FFFD0
:1035C600007FFF01FFFF017FFF027FFF0201300046
:1035D60001315A01320001334801345A0135B40130
:1035E600360001379001380001395A013A48013B4B
:1035F60090FFFFFF7FFF007FFF0001300001315A7F
:1036060001320001333C01345A0135B40136000160
:10361600373C01380001395A013A3C013B78013CFC
:103626005A013DB4013E3C013F78FFFFFF7FFF009A
:103636007FFF0001300001315A0132000133480199
:10364600345A0135B40136000137480138000139D2
:103656005A013A48013B90013C5A013DB4013E48AB
:10366600013F90FFFFFF00021500121F0022150008
:10367600321FFFFFFF00022000123000222000321E
:1036860030FFFFFF000432462E40080A18261D248C
:1036960016261A240022080134550135B0FFFFFF13
:1036A60000222E0134550135B0FFFFFF00322E01F6
:1036B6003007013160FFFFFF00320801300701319A
:1036C60060FFFFFF0022380134550135B0FFFFFFD0
:1036D6000160C0016381016682016983008A01017C
:1036E6006C03016D00FFFFFF0160800163C101668D
:1036F60082016983009A41016C0C016D00FFFFFF96
:103706000160800163810166C201698300AA8101AB
:103716006C30016D00FFFFFF01608001638101666F
:10372600820169C300BAC1016CC0016D00FFFFFFD1
:10373600016080016381016682016983008A31002C
:103746009A7100AAB100BAF1016C00016DE4FFFFA5
:10375600FF01110119012101290114011C01240194
:103766002C01100118012001280113011B0123015E
:103776002B016101640167016A83848182939491BC
:0937860092A3A4A1A2B3B4B1B254
:10599400900338E04404FF9001E4F09001E1E0FB5F
:1059A400A3E0FAA3E0900001F9122A855401FE2530
:1059B400E04F9001E4F09001DEE0FBA3E0FAA3E005
:1059C400F922900002122A85C454F04402FB22906A
:1059D4000338E0FF9001E4F09001E122900001120D
:1059E4002A855401F925E0FE900338E02E2235F093
:1059F4009001E1FA74FFF0A3EAF0A3E9F022900029
:105A040001122A85FF9001E1E0FBA3E0FAA3E02262
:105A1400122A6C540125E0FEEF4E2225E02457F5AE
:105A240082E43437F583E493FA740193FBEAFD22AC
:105A34009001DDE0540F24FFFFE434FFFE7C0012EC
:105A44002AC49001E2EE8FF0122B2B9001DE221279
:105A54002A85540344809001F5F02290369293FEF7
:105A64006F22122A6CFF9001E122A3E09001F5F06D
:105A7400E4FDFF22900001022A85900338E04404EB
:105A840022900002022A8590368A93FE6F2225E036
:085A94002477F582E434372287
:057162009001D5EFF0E3
:10716700E4A3F0FBFDFF12676CEF540FFFBF0F1393
:107177009001D5E0C454F0FBE4FDFF12676C900169
:10718700D6EFF09001D6E0FE70037F0222EE54E0C6
:107197009001D6F0E0C4135407F0D3940340047F62
:0571A7000080027F01E1
:0171AC0022C0
:076647009001E4EB1259FA87
:10664E00EF75F004A4247FF9743735F0A31259F7CF
:10665E009001E41259BD122B57FFAEF09001EAEEF5
:10666E00F0A3EFF0F47002EEF41266A6125A6E1258
:10667E006C0F9001E5E475F003122B2B9001E412E0
:10668E0059BD122B57FF9001EAE5F0F0A3EFF0127F
:08669E0066A6125A6E026C0F91
:1066A6009001E7E0FBA3E475F001122B41A9F0FA93
:1066B600122A6CFB9001EAE09001F5F0E4FDFF126E
:1066C6006C0F9001E7E0FBA3E475F001122B41A9E2
:0A66D600F0FA122A6CFB9001EA2290
:074594009001DEEB1259FA61
:10459B00EF122E4345C71145EE22461631467133B5
:1045AB0046BA3447184145C79145EEA24616B14667
:1045BB0071B346BAB44718C1000047A8900338E05E
:1045CB0044081259D71259BD122A6C1259B0122A2B
:1045DB006CFD9001E430E006E04404F08002E0F072
:1045EB00ED801D1259D31259BD125A141259B6121D
:1045FB002A6C1259CC741B124881125994125A7896
:10460B001259CC9001F574190247A1900338E0447C
:10461B000C1259D71259BD122A6C1259B0124818E4
:10462B0060061259BA1248321259D31259BD125A96
:10463B0078125A171259B61247A960061259BA12B4
:10464B004800125A7E1259D7125A0C900002125976
:10465B00AC1247C670030247A81259BA1259C6903A
:10466B0001F5EE0247A11259D31259BD125A141279
:10467B0059B612481860061259BA12483212599498
:10468B001247A960061259BA124800125A7E1259E3
:10469B00D71259BD9000021259AD1247C6700302D2
:1046AB0047A81259BA1259C69001F5EE0247A1124A
:1046BB0059D31259BD125A141259B6122A6C1259E7
:1046CB00CC124847600C1259BA122A6C1259CC12F0
:1046DB0048581259941247E3600C1259BA900001D2
:1046EB001259C91248581259D31259BD125A851270
:1046FB005A171259B61259C612484770030247A8E7
:10470B001259BA1259C69001F5EE0247A11259D3AC
:10471B001259BD125A141259B6122A6C1259CC12D4
:10472B004870600C1259BA122A6C1259CC12486498
:10473B001259941247E3600C1259BA9000011259A6
:10474B00C91248641259D31259BD125A85125A17FD
:10475B001259B61259C6124870600A1259BA125938
:10476B00C6EE124881125A7E1259D71259BD9000CB
:10477B00031259AD9000031259C9E4FDFF12676C87
:10478B009001E4E0125A8B60141259BA9000031294
:0D479B0059C99001F5EEF0E4FDFF126C0F1E
:1047A80022900001122A85C454F04402FBE4FDFF64
:1047B80012676C9001E4E090368A93FE6F229000B5
:1047C80002122A85C454F04402FBE4FDFF12676C10
:1047D8009001E4E090368A93FE6F22900001122A3D
:1047E80085C454F04402FBE4FDFF12676C9001E4B9
:1047F800E090368A93FE6F22900001122A85C454F5
:10480800F04402FB9001F5EEF0E4FDFF126C0F227C
:10481800122A6CC454F04402FBE4FDFF12676C904A
:1048280001E4E090368A93FE6F22122A6CC454F099
:104838004402FB9001F5EEF0E4FDFF126C0F22E458
:10484800FDFF12676C9001E4E090368A93FE6F22B8
:104858009001F5EEF0E4FDFF126C0F229001F5EEE9
:10486800F0E4FDFF126C0F22E4FDFF12676C90016B
:10487800E4E090368A93FE6F229001F5F0E4FDFFA4
:04488800126C0F227D
:0A4E30009001DDEFF0A3EB1259FA38
:104E3A009001DE1259BD122A6C125A567B10124F7B
:104E4A00B71259BD900001125A537B18124FB7126C
:104E5A0059BD900002125A537B207D01E4FF126C67
:104E6A000F9001DE1259BD900003125A537B287D20
:104E7A0001E4FF126C0F9001DDE024DF604B146047
:104E8A004824F124FC507424F47003024F4C24B0DB
:104E9A00601B24F0603314603024F124FC505C243D
:104EAA00F47003024F4C24B06003024FAF900338F2
:104EBA00E075F039A42436F974331259F29001DE00
:104ECA001259BD122A6C024F97900338E075F042CE
:104EDA00A424A8F974331259F27D21125A341259B2
:104EEA00BD125A661259BD124FB01259BD125A025A
:104EFA00124FC2125A09240C024FA6900338E075C9
:104F0A00F0E4A42432F974341259F27D39125A3475
:104F1A001259BD125A661259BD124FB01259BD121A
:104F2A005A02124FC29001DE1259BD900002125A63
:104F3A0005240CF9E43AFA126647125A09241202B5
:104F4A004FA6900338E075F039A424FAF9743512A3
:104F5A0059F29001DE1259BD125A661259BD124F0A
:104F6A00CC1259BD125A78FF9001E11259BD124F65
:104F7A00CC1259BD125A85FF9001E11259BD126631
:104F8A00479001DE1259BD900003122A85FF900155
:104F9A00E11259BD126647125A092406F9E43AFA8F
:054FAA00E4FF12702776
:104FAF00221266479001DE227D01E4FF126C0F9002
:104FBF0001DE222406F9E43AFA1266472212664706
:044FCF009001DE224D
:107AE500EF75F018A424D6F9743635F0FA7BFFE467
:047AF500FF027027F5
:105719009001DDEB1259FA7B6C7D01E4FF12676C95
:10572900EF24FD70030257B824F770030257D324FE
:10573900DC70030257EA2470700302580424C06025
:10574900030258221258231259BD122A6C1259E623
:10575900125A8B600A9001F5EEF07B02125847123B
:10576900582F1259BD1259E090368E93FE6F600A78
:105779009001F5EEF07B1212584712583B1259BDB1
:105789009000021259E3125A8B600D9001F5EEF068
:105799007B22E4FDFF126C0F12584E1259BD900086
:1057A900031259E390368E93FE6F606D02581512FD
:1057B90058231259BD122A6C1259E6125A5F6059C0
:1057C9009001F5EEF07B0202581C12582F1259BDB8
:1057D9001259E0125A5F60419001F5EEF07B128098
:1057E9003212583B1259BD9000021259E3125A5F06
:1057F90060279001F5EEF07B22801812584E12595D
:10580900BD9000031259E3125A5F600D9001F5EE45
:10581900F07B32E4FDFF126C0F227B02E4FDFF12E4
:10582900676C9001DD227B12E4FDFF12676C900129
:10583900DD227B22E4FDFF12676C9001DD22E4FD8D
:10584900FF126C0F227B32E4FDFF12676C9001DDC1
:01585900222C
:0D7638009001DEEDF0A3EBF09001DDEFF02E
:10764500125A1FE4FF12676CAC079001DFE090014E
:10765500DE6005E04CFC8004E0F45CFC9001DDE0BC
:0D766500125A1F9001F5ECF0E4FF026C0FCB
:0D74C5009001DEEDF0A3EBF09001DDEFF0A3
:1074D200125A92125A28E4FF12676CAC079001DF2D
:1074E200E09001DE6005E04CFC8004E0F45CFC907E
:1074F20001DDE0125A92125A289001F5ECF0E4FFF5
:03750200026C0F09
:10378F00804800D006F0088080908002060011006B
:10379F00804836D006F008808097670246001100F7
:1037AF00804800D006F008808087700286001100E4
:1037BF00804800D006F0088080648002C6001100A7
:1037CF0000777745A0D02F6480808282000F05009C
:1037DF000080060000FF0000000000000000000055
:1037EF00AAAA00001032547698BADCFE000088882E
:1037FF00A8540000000000000000000000000000BE
:10380F00017FFF7FFF00FFFFFFFF3100D000F008B7
:10381F00417FFF7FFF00FFFFFFFF7100D000F00827
:10382F00817FFF7FFF00FFFFFFFFB100D000F00897
:10383F00C17FFF7FFF00FFFFFFFFF100D000F00807
:10384F00000000070000F0FF003C4F0000000000E8
:10385F000000000000000000000000000000000059
:10386F000000000000000000000000000000000049
:10387F000000000000000000000000000000280011
