:0300000002857CFA
:0C857C00787FE4F6D8FD7581670285C3A6
:0BA37400E02486F582E43402F5832229
:10A1A300C2BCD2AC759852758DFAE4F58BD28E9001
:06A1B30002D6F0A3F02229
:10A2BA009002D6E0FFA3E0B507037F00227F0122C8
:10A141009002D612A374E0FF9002D6E004F0E0C3BF
:08A1510094504002E4F0D2AC8E
:01A1590022E3
:080003003099FD8F99C299228A
:03002300029C59E3
:109C5900C0E0C083C082C0D0309819C2989002D7A2
:109C690012A374E599F09002D7E004F0E0C3945090
:0D9C79004002E4F0D0D0D082D083D0E032A1
:1097F500E0F580D2A3E490030DF0A3F022C390031B
:109805000DE094002290030DE004F0229001E3E0C6
:10981500FBA3E0FAA3E0F922EDF0A3EBF0E4FFC22D
:0C982500AF22D2B6D2B77580FFD2AF22BE
:108DB4009001F212981D12A3E89001F2E0FF7006F0
:108DC400C2B7C2B68012EFB40106C2B7D2B68008E9
:108DD400EFB40204D2B7C2B69001F31297F5129819
:108DE40002500BA3E004F070F512980A80F0C2A3BD
:108DF4009001F4E0F580C2A11297FA129802500B88
:108E0400A3E004F070F512980A80F0D2A112A3E84E
:048E14001298272267
:108719009001D712981D12A3E89001D7E0FF7006C7
:10872900C2B7C2B68012EFB40106C2B7D2B680088A
:10873900EFB40204D2B7C2B69001D8E0FF04F08FBB
:10874900801297F8129802500BA3E004F070F5120A
:10875900980A80F0C2A39001D9E0FBA3E475F00167
:10876900122763A9F0FA12268EF580C2A11297FA90
:10877900129802500BA3E004F070F512980A80F0E9
:10878900D2A19001DCE014F070AE12A3E812982790
:0187990022BD
:0B8608009001F1EFF0A3EDF0A3EBF008
:10861300C2AF12A3E8E49001F1F0A3E0FF7006C239
:10862300B7C2B68012EFB40106C2B7D2B68008EF64
:10863300B40204D2B7C2B69001F31297F5129802AE
:10864300500BA3E004F070F512980A80F0C2A375F2
:1086530080FF1297FA129802500BA3E004F070F512
:1086630012980A80F0C2A29001F4E580F01297FA02
:10867300129802500BA3E004F070F512980A80F0F0
:10868300D2A212A3E8D2B6D2B7D2AF9001F4E0FFE0
:0186930022C4
:1090AE009001E3EBF0A3EAF0A3E9F0129811122776
:1090BE0079F47003E5F0F46038122779FBAAF0EA30
:1090CE00FDE4FF1286081298119000021226A7FCEA
:1090DE006F6012122779FBAAF0EAFD9001F4ECF012
:1090EE00E4FF128DB49001E4E475F00312274D8075
:0290FE00BA2294
:01A42B00220E
:105443002562782025627820256278000A3C523E46
:1054530025303262785B25303262785D3D2530320B
:1054630062780025627820256278002562782025FD
:1054730062782025627820256278200025316278C1
:1054830020253162782025316278200052656164DD
:105493004173696342797465203D3D20256278201C
:1054A3000A0063682562643A256264200063682504
:1054B30062643A2562642063682562643A25626403
:1054C300200063682562643A25626420636825626C
:1054D300643A2562642063682562643A2562642025
:1054E3000063682562643A25626420636825626408
:1054F3003A2562642063682562643A256264206306
:10550300682562643A256264200063682562643A10
:105513002562642063682562643A256264206368B7
:105523002562643A2562642063682562643A2562D1
:10553300642063682562643A2562642000256264FE
:1055430020000A203D3D3D3D3D3D3D3D205041472E
:10555300452025623278203D3D3D3D3D3D3D3D3D6D
:105563003D3D3D3D0A002562327809000A002531A0
:105573006278202531627820636825316278206360
:105583006825316278206368253162782063682555
:105593003162782000656E726563616C6C00656EC4
:1055A300667265657A6500656E686D6972726F72A1
:1055B30000656E766D6972726F7200656E656E68F6
:1055C300616E636500656E626C616E6B00656E6231
:1055D3006F756E6400656E626C696E6B00646973EF
:1055E300726563616C6C00646973667265657A6584
:1055F30000646973686D6972726F720064697376AF
:105603006D6972726F7200646973656E68616E634F
:105613006500646973626C616E6B00646973626FC9
:10562300756E6400646973626C696E6B003D3D3D29
:105633003D3D20466F726D6174203A206368303DB2
:105643005B2562785D206368313D5B2562785D2070
:105653006368323D5B2562785D206368333D5B257B
:1056630062785D203D3D3D3D3D0A00256278202561
:1056730062782063682562783A256278206368251A
:1056830062783A2562782063682562783A256278E1
:105693002063682562783A256278200033340062FB
:1056A3007573770079766D6978006873636F6D0041
:1056B3006D6F646500370038003100010204081083
:04766700410370006B
:1056C300A3F0A3E4F0A37400F0A37408F0A3E4F040
:1056D300A37400F0A3740DF0A3E4F0A37400F0A38B
:1056E3007409F0A3E4F0A37400F0A3740EF0A3E430
:1056F300F0A37400F0740AA3F0A3E4F0A322A3F0D0
:10570300A3E4F0A37400F0A37412F0A3E4F0A37471
:1057130000F0A37417F0A3E4F0A37400F0A37413D0
:10572300F0A3E4F0A37400F0A37418F0A3E4F0A3CF
:105733007400F07414A3F0A3E4F0A322A3F0A3E491
:10574300F0A37400F0A37439F0A3E4F0A37400F0A1
:10575300A3743DF0A3E4F0A37400F0743AA3F0A3A0
:10576300E4F0A322A3F090038BE0FBA3E0FAA3E011
:10577300F9229001DF74FFF0A37454F074A5A3F031
:10578300A3E4F0A3227400F0A3740FF0A3E4F0A346
:105793007400F0740BA3F0A3E4F0A3227400F0A34D
:1057A3007419F0A3E4F0A37400F07415A3F0A3E458
:1057B300F0A3227400F0A3743EF0A3E4F0A37400FA
:1057C300F0743BA3F0A3E4F0A3229001DF74FFF095
:1057D300A37454F074B0A3F0A3E4F0A3229001DF08
:1057E30074FFF0A37455F07440A3F0A3E4F0A32274
:1057F3007400F07408A3F0A3E4F0A3227400F0741F
:1058030012A3F0A3E4F0A3229001DF74FFF0A3221C
:10581300EBF0A3EAF0A3E9F09001DF7401F0A32217
:10582300A3F0A37401F0A37403F0745BA3F0A37457
:1058330001F0A322A3F0A3E4F0A322A3F0A3E4F0D6
:10584300A322A3F0A3E4F0A322A3F0A3E4F0A322F2
:10585300A3F0A3E4F0A322FFE02464F582E434037D
:10586300F583EFF022E0FF9001E07401F0A37403ED
:10587300F0A37460F07B017A03795B22A3F0A3E4C5
:10588300F0A322A3F0A3E4F0A322EBF0A3EAF0A396
:10589300E9F022900001E475F0010227A47BFF7A6E
:1058A30054794F900313F022A3F0A3E4F0A322E072
:1058B3005401FB7D20222533F533A3E0540322E575
:1058C300099056BE93FFE508932F2212296F0226F3
:0F58D3008EA3F0A3E4F0A32212A42C9001D42200
:108A60009001DC12588DA312576C1258CE7002FF81
:108A7000229001DF12576C1258CEB4200B9001DF08
:108A800012576C12589680E99001DF12576C122928
:108A90006FC003C002C0019001DC12576C12298F15
:108AA00080239001DF12576C1258CEFEB42010E4E0
:108AB0001226D49001DF12576C1258967F0122EED5
:108AC00070037F01229001DF12576C12589680D2FA
:0697B8009001DC12588D47
:1097BE00E4F530F5319001DC12576C12268E6022E2
:1097CE009001DCA3E475F001122763A9F0FA1226CA
:1097DE008EFF3395E0FEEF2531F531EE3530F53065
:0697EE0080D3AE30AF3164
:0197F4002252
:01A42C00220D
:1093F300E4F53390035BE054031258B925E025E00C
:109403001258B9C454F01258B9C4333354C0253375
:10941300F53390035AE0B5070D90035FE0B53306CB
:10942300E490036AF02290036A7401F090035FE50D
:0794330033F090035AEFF043
:01943A00220F
:1094830012580B7454F074431256FA7400F0744C6F
:109493001257387400F0744D1257607400F0A374BF
:1094A3004EF0124B9CAB4DAD4CE4FF12860890037B
:1094B30015EFF0E54C1258A0A3E54DF0124819053D
:0694C3004DE54DB54EDF42
:0194C9002280
:1098DF0012580B7454F074661257817400F074555B
:1098EF001257987400F0A37456F0124B9CAB56AD00
:1098FF0055E4FF128608900315EFF0E5551258A0B6
:07990F00A3E556F002481920
:109B330012580B7454F074431257AF7400F0744FFF
:109B43001257C67400F074501257D97400F0A374FE
:109B530051F0124B9C9001F4E551F0AB50AD4FE442
:049B6300FF028DB4BC
:10915000E4F530F531F532F533C003C00212580B97
:109160007454F0746E1257EC7400F074301257F8A7
:109170007400F074311258047400F07432125837CD
:109180007400F0A37433F0D002D003124B9C900112
:0D919000F4E533F0AB32AD31E4FF028DB4F5
:10943B00E4F51CF51DF51EF51F12580B7454F07452
:10944B007F1258377400F0741C12583E7400F0747D
:10945B001D12583E7400F0A3741EF0124B9CAB1EF1
:10946B00AD1DE4FF1286088F1F7BFF7A54798F9016
:08947B000313E51FF00248197C
:0365600090038B1A
:106563001258137403F0A3748BF07B017A03798EB2
:10657300128A60E4FB7D1FFF1299F190038E12577C
:106583006C127CDEEE6003026688EF24FE60361434
:10659300605A1460781470030266352404600302A1
:1065A30066881257751257F37400F0740D1257670B
:1065B300124B9CAB0DAD08E4FF1289EFE508905632
:1065C300BE930266801257CD1257F37400F0740D18
:1065D3001258457400F074091258457400F0740E93
:1065E3001257671266891258C202668012580B74DA
:1065F30054F074C51256C37400F0A3740F12576895
:10660300126689AB0FAD0A12669F02668012580BA1
:106613007454F074E41256C31257887400F0A374D0
:10662300101257681266B512669FFFE50B932F028F
:10663300668012580B7455F0A3740D1256C412578A
:10664300887400F0741012584C7400F0740C1258D3
:106653004C7400F0A374111257681266B5E4FF126C
:1066630089EFAB11AD0CE4FF1289EF1258C2FFE5BD
:106673000A932FFFE50B932FFFE50C932FFD7B016F
:05668300E4FF1299F193
:1066880022124B9CAB0DAD08E4FF1289EFAB0EADA7
:1066980009E4FF1289EF22E4FF1289EFE509905619
:1066A800BE93FFE508932FFFE50A932F22124B9C18
:1066B800AB0DAD08E4FF1289EFAB0EAD09E4FF1294
:1066C80089EFAB0FAD0AE4FF1289EFAB10AD0B22D7
:0FA2DA00E4FB7D1FFF1299F17DFFE4FF029BCD96
:036F380090039132
:106F3B001258137403F0A37491F07B017A037994C4
:106F4B00128A6090039412576C127CDEEE6003027F
:106F5B007046EF24FE603014605614607114700399
:106F6B00026FFD240460030270461257751257FF1F
:106F7B007400F0A37417F090039112576C124B9C92
:106F8B00AB17AD120270411257CD1257FF7400F0C0
:106F9B0074171258537400F074131258537400F092
:106FAB00A37418F090039112576C12706102704128
:106FBB0012580B7454F074C51257017400F0A3747B
:106FCB0019F090039112576C1270470270411258CE
:106FDB000B7454F074E412570112579F7400F0A312
:106FEB00741AF090039112576C1270471270720260
:106FFB00704112580B7455F0A3740D1257021257AF
:10700B009F7400F0741A12587F7400F074161258A3
:10701B007F7400F0A3741BF090039112576C1270E5
:10702B0061E4FF128B3FAB19AD14127072E4FF12C7
:0B703B008B3FAB1BAD16E4FF128B3F38
:1070460022124B9CAB17AD12E4FF128B3FAB18AD6F
:1070560013E4FF128B3FAB19AD1422124B9CAB17F6
:10706600AD12E4FF128B3FAB18AD1322E4FF128B77
:067076003FAB1AAD15222C
:10A1FA001257E07400F0A37463F0124B9CAD63E451
:04A20A00FF029BCDE7
:1091E900E4F5587BFF7A557945900313E558F01259
:1091F9004819E4F557AB57AD58E4FF1286089003B8
:1092090013EFF07BFF7A5579691248190557E5572D
:10921900540F70097BFF7A55796F124819E5577019
:0A922900D40558E558C3940340B97A
:019233002218
:10905800C003C002C00112580B7455F07471125845
:10906800867400F074591258867400F0745A1258B5
:10907800237403F0745C12582F7403F0A3745D1208
:1090880058307403F0A3745EF0D001D002D00312FC
:109098004B9CE559C454F0FFE55A540F2FF559126B
:0690A8005878FF02609FF2
:0658E20090039712588D9F
:1058E800E4F52E7B019001DF04F0A37403F0A374A8
:1058F80097F07A03799A128A6090039A12576C1279
:105908007CDE8F2F12581B125ADA90039A12576CAA
:105918001297B88E268F277A557998125AB7B527D5
:105928000AEEB526067528800259B77A5579A1126C
:105938005AB7B5270AEEB526067528400259B77A30
:105948005579AA125ABEB52709EEB526057528203D
:10595800805D7A5579B4125ABEB52709EEB5260589
:10596800752810804A7A5579BE125AC5B52709EEAE
:10597800B5260575280880377A5579C8125AC5B5ED
:105988002709EEB5260575280480247A5579D012A2
:105998005ACCB52709EEB5260575280280117A5527
:1059A80079D8125ACCB5270DEEB526097528017598
:1059B8002901025A617A5579E0125AD3B5270AEEBD
:1059C800B52606752880025A447A5579EA125AD3C0
:1059D800B52709EEB5260575284080607A5579F413
:1059E800125AEBB52709EEB52605752820804D7AA1
:1059F8005579FF125AEBB52709EEB526057528101B
:105A0800803A7A56790A125AF2B52709EEB5260570
:105A180075280880277A567915125AF2B52709EEA3
:105A2800B5260575280480147BFF7A56791E1297CF
:105A3800B8EFB5270CEEB52608752802E4F52980DD
:105A4800187BFF7A5679271297B8EF65277003EE0F
:105A58006526705A752801F52912581B125ADAEF73
:105A6800603390039A12576C12268EB477EB90002D
:105A7800011226A7B469E29000021226A7B46ED9D3
:105A8800E92403F9E43AFA127CDE742A252EF8A6F2
:105A980007052E80C4E52E60152429F8E6FFC39576
:0E5AA8002F5007AB29AD28129AFE152E80E76D
:105AB600227BFF1297B8EF227BFF1297B8EF227B6B
:105AC600FF1297B8EF227BFF1297B8EF227BFF12E7
:105AD60097B8EF227403F0A37497F07B017A0379E9
:105AE6009A128A60227BFF1297B8EF227BFF1297E9
:035AF600B8EF22E4
:10A284001257E07400F0A37430F0124B9CAF30020C
:02A29400A20E18
:10986D00E4FF129234C0077F01129234C0077F02C9
:10987D00129234C0077F03129234900316EFF090CA
:10988D000315D0E0F0900314D0E0F0900313D0E076
:0A989D00F07BFF7A5679300248197B
:0378A80090039DAD
:1078AB001258137403F0A3749DF07B017A0379A033
:1078BB00128A609003A012576C127CDEEE600302FA
:1078CB00799AEF24FE602B146053146079240360C3
:1078DB000302799A1257757400F074391258AB740D
:1078EB0000F0A3743DF090039D12576C1279B9020E
:1078FB00799512580B7454F074B012573F7400F012
:10790B00A3743EF090039D12576C1279B9E4FF12E9
:10791B009BFDE53EC454F0FBAD3A02799512580B32
:10792B007454F074C512573F1257B67400F0A37419
:10793B003FF090039D12576C12799BE53FC454F0B6
:10794B00FBAD3B02799512580B7454F0A374E412FF
:10795B0057401257B67400F0743F1258AB7400F0D6
:10796B00743C1258D47400F0A37440F090039D1231
:10797B00576C12799BE53FC454F0FBAD3BE4FF120F
:0F798B009BFDE540C454F0FBAD3CE4FF129BFDB7
:10799A0022124B9CE53DC454F0FBAD39E4FF129B27
:1079AA00FDE53EC454F0FBAD3AE4FF129BFD221202
:0B79BA004B9CE53DC454F0FBAD3922AE
:038EDF009003A35A
:108EE200125813128F2C12576C127CDE8F5B1258A1
:108EF2001B128F2C12576C127CDE8F5C7F0412A423
:108F0200257F0312A4287F0512A0589003A3E0F93D
:108F1200A3E0FAA3E0900387C912588EAB5CAD5B65
:0A8F22007F01128FA17F050299BBA9
:108F2C007403F0A374A3F07B017A0379A6128A6010
:048F3C009003A622D6
:1094CA00755E01E4F55D7460255DF582E43403F5AB
:1094DA0083E030E415745B255DF582E43403F5839B
:1094EA00E0FDE4FF129BCDE4F55E055DE55DC39406
:1094FA000440D3E55E600FE4FB7D1FFF1299F17D06
:06950A00FFE4FF129BCDFF
:019510002238
:106DEA00C003C002C00112580B7456F0746E1258D8
:106DFA00D47400F0A37431F0A3E4F0A37400F07427
:106E0A00321258237403F0A374601258307403F0DA
:106E1A00A3745C1258307403F0A37461125830746E
:106E2A0003F0A3745D1258307403F0A3746212580D
:106E3A00307403F0A3745E1258307403F0A37463C1
:106E4A00F0D001D002D003124B9CE531C454F0FFBC
:106E5A00900357E0FEC433333354802FFFE5325496
:106E6A000F2F900369F0900360E090035B12585A69
:106E7A00900361E090035C12585A900362E0FF901D
:106E8A00035D12585B900363E0FF90035E12585B48
:106E9A009003641258B2E4FF1298319003651258B5
:106EAA00B27F011298319003661258B27F0212988B
:106EBA00319003671258B27F031298317B017A032B
:106ECA00796412707C90036912586812514B9003CE
:106EDA0069E0FF12587812609FE4F530746025303B
:106EEA00F582E43403F5831258B2AF30129AFE05E4
:106EFA0030E530C3940440E4E4F541F542F54375C6
:106F0A0044057F0112A3B2900369E0FF1293F37F55
:106F1A0008129B67E4FF12A1271295E67B017A0308
:0D6F2A007960124400900369E0900370F05C
:016F37002237
:108C1400E4FF129234EFB40202C322900357E0B58A
:108C24000702D322900357EFF0E0C4333333548068
:108C3400FF90035AE0547F4FF07F011299BB9003D9
:108C440057E0FF128E187B017A03796412707C90CE
:108C5400035A12586812514B90035AE0FF12587885
:108C640012609FE4FF12A1271295E67B017A037933
:088C740060124400129F87D337
:018C7C0022D5
:10A1B90012580B7455F0A374401258307403F0A36D
:06A1C9007458F0024B9CEB
:050026007F010299BBFF
:10A25E0090569FE493FF12000390569FA3E493FF42
:03A26E00020003E8
:0372F7009001D42F
:1072FA001258137401F0A374D4F07B017A0179D97E
:10730A00128A609001D912576C1297B89001D7EE81
:10731A00F0A3EFF07A5679A2127402B50611A3E02F
:10732A00B5070C9001D412576C1291500273FF7A70
:10733A005679A7127402B50611A3E0B5070C1258C4
:10734A00DB12576C12A2840273FF7A5679AD12745B
:10735A000CB50619A3E0B507141258DB12576C12C4
:10736A006DEA129F87E4FF12A3B20273FF7A56797D
:10737A00B312740CB50610A3E0B5070B1258DB1252
:10738A00576C12A1B9806E7A5679B8127416E0B5A4
:10739A00060FA3E0B5070A900270E0900284F0801D
:1073AA00547A5679BA127416E0B50612A3E0B507F4
:1073BA000D129B9B900270E0FF129C8680377BFF28
:1073CA007A5679BC1297B89001D7E06E7003A3E0A1
:1073DA006F702290020CE0B431051296F780169075
:1073EA00020CE0B43305129FF8800A90020CE0B454
:0773FA005003128AD07F014D
:10740100227BFF1297B89001D7E0227BFF1297B839
:0E7411009001D7E0227BFF1297B89001D7229E
:105CEC000D0A0050435400FFC8966432006275736D
:105CFC00772030203120413120313162757377208B
:105D0C0030203120413220443779766D6978203447
:105D1C00206D6F64652030206873636F6D203120B7
:105D2C0031206368303A3130206368313A303020AA
:105D3C006368323A3030206368333A30302068730D
:105D4C00636F6D20312031206368323A313020632B
:105D5C0068313A3030206368303A30302063683331
:105D6C003A3030206873636F6D20312031206368C6
:105D7C00313A3130206368303A3030206368323A3F
:105D8C003030206368333A3030206873636F6D2095
:105D9C00322032206368323A3130206368303A3135
:105DAC0030206368313A3030206368333A30302029
:105DBC006873636F6D20322032206368303A313063
:105DCC00206368323A3130206368313A30302063D6
:105DDC0068333A3030206873636F6D203220322084
:105DEC006368313A3130206368303A31302063686F
:105DFC00323A3030206368333A3030206873636F46
:105E0C006D20322032206368303A313020636831A3
:105E1C003A3130206368323A3030206368333A309C
:105E2C0030206873636F6D20322032206368313A02
:105E3C003130206368323A3130206368303A303088
:105E4C00206368333A3030206873636F6D203220E2
:105E5C0032206368323A3130206368313A31302075
:105E6C006368323A3030206368333A3030206873DC
:105E7C00636F6D20332033206368303A31302063F8
:105E8C0068313A3130206368323A313020636833FC
:105E9C003A3030206873636F6D2031203120636895
:105EAC00333A3030206368313A3030206368323A0C
:0A5EBC003030206368303A303020A7
:10766B00C1284403070000000041030B0041030C39
:10767B0000410306014103050241030401410303D9
:01768B0000FE
:10879A007D017BFF7E007F2602266878D87C027DD9
:1087AA00017B012274DE2FF582E43401F583E02295
:1087BA0090026EE0240AF582E43402F583227D01F8
:1087CA007BFF7E00022668F0A3F0A3F0A322EF2429
:1087DA0030F0AE02AF037C007D0A0226F87D017BF1
:1087EA00FF7E007F0E02266890023FE09003062279
:1087FA0034FFFE7C007D060226F8E530F090026E1A
:0B880A00E004F0227B017A0279D82202
:10845F0012A2BAEF640160030284ED12A1418F30C2
:10846F00E530B4021690023DE0701090026E04F0F9
:10847F0090020AE530F090023D8014E530B403130A
:10848F00900241E0700D1287BA1288049002417475
:10849F0001F022900241E0640170341287BAE53096
:1084AF00F07B017A02790A7D041266D8EF602C9076
:1084BF0003027401F090020BE09002D8F0E4A3F0F5
:1084CF0090020CE0900270F09003017402F02212FF
:0E84DF0087BA128804E0D394084003129F610C
:0184ED00226C
:09A3A9007BFF7A5C79EC029EBF97
:0B9AC9009003C4EBF0A3EAF0A3E9F067
:109AD4009003C4E0FBA3E0FAA3E0F912268E601918
:109AE4009003C4A3E475F001122763A9F0FA1226C7
:099AF4008EF564FF12000380D717
:019AFD002246
:109F6100E490023DF0900241F090026EF090020AFE
:109F71001287D11287D1F0A3F0A3F0900301F0A3CF
:069F8100F09002D8F0226E
:09A3B200EF6003C20122D2012276
:0CA36800C200C201C227E49003DBF02217
:109CB3009003C7EBF0A3EAF0A3E9F020001D9003A3
:109CC300C7E0FBA3E0FAA3E0F8AC02AD037BFF7AA5
:0C9CD3005C79EF122BAFEF7002D2002280
:089100009001D4EEF0A3EFF0A2
:109108009001D4E07002A3E0603DE49001D6F0A3A2
:10911800F09001D6E0FEA3E0FFE4FCFD7B1BFAF92A
:10912800F8D312290E40109001D7E004F070E290B5
:1091380001D6E004F080DA9001D5E024FFF0900138
:07914800D4E034FFF080B910
:01914F0022FD
:10778A00E49000001287D174C8F0A37464F01293D5
:10779A001512A2E912A368129F61E4FF12A2CAE4B9
:1077AA00FF1286947F4D124E35754700754828752D
:1077BA004901754AE0754B00754C0412845F9003C9
:1077CA0002E0B4010612880E1272F7900302E0B4C6
:1077DA000103129F61302707128C145002C227122C
:1077EA00A2BAEF6009900003E0754300F544E5444E
:1077FA0064014543700DF543F544900004E075417A
:10780A0000F542E54264014541701B129511128E42
:10781A007C900284E0FF900282E06F6003124E3592
:10782A00754100754214E54C6401454B7012900293
:10783A0048E0C394014009754B00754C0412829BC1
:10784A0090023DE07052E54864014547703390026A
:10785A0048E0702D900303E0FF74017E00A807083A
:10786A008005C333CE33CED8F9FF12897C90030347
:10787A00E004F0754700754828E0C3940C4002E420
:10788A00F0E54A64014549700C90022AF0A3F075AC
:0E789A004901754AE012A0EE43E1100277C5E5
:10931500E4F5B8F5A8F58775E127F5D0758922F547
:109325008812A1A312A3BB12A0B4E4F58EF5A2D2B4
:1093350099D2AF00F593F5944391035392FCF595BB
:10934500F596F5B1F5B2F5B375B404C2E9C292C2AA
:0A93550093C294C295C296C29722FB
:087DB9009001DCEFF0A3EDF0F6
:107DC10078DE7C017A5C79F37F061287C89001DC4A
:107DD100E014603014604714605E14607514700321
:107DE100027E6D24056003027E86E4F5EA9001DDE2
:107DF100E0FF7004F5DA800375DA421287AEF5FA16
:107E0100E4F5F222E4F5EB9001DDE0FF7004F5DB2F
:107E1100800375DB421287AEF5FBE4F5F322E4F54E
:107E2100EC9001DDE0FF7004F5DC800375DC4212AB
:107E310087AEF5FCE4F5F422E4F5ED9001DDE0FF19
:107E41007004F5DD800375DD421287AEF5FDE4F5C2
:107E5100F522E4F5EE9001DDE0FF7004F5DE80032C
:107E610075DE421287AEF5FEE4F5F622E4F5EF90F9
:107E710001DDE0FF7004F5DF800375DF421287AE9C
:057E8100F5FFE4F5F738
:017E860022D9
:0FA2E900E4F5E9F5F975D90475D84043A680224C
:054E3500900005EFF004
:104E3A0078067C007A5C79F91287E778147C007A24
:104E4A005D79071287E778227C007D017BFF7A5D16
:104E5A0079157E007F08122668782A7C007A5D79A7
:104E6A001D7F071287C878317C007A5D7924128702
:104E7A009A78577C007A5D794A12879A787D7C0005
:104E8A007D017BFF7A5D797012879E78A37C007D15
:104E9A00017BFF7A5D799612879E78C97C007D0135
:104EAA007BFF7A5D79BC12879E78EF7C007D017B5F
:104EBA00FF7A5D79E212879E78157C017D017BFF7E
:104ECA007A5E790812879E783B7C017D017BFF7AA6
:104EDA005E792E12879E78617C017D017BFF7A5E66
:104EEA00795412879E78877C017D017BFF7A5E79EF
:104EFA007A12879E78AD7C017D017BFF7A5E79A06C
:104F0A0012879EE49001D3F0900005E0FE24B6FFDC
:104F1A00C3940A400674FC2FFF8005E4900271F0E6
:104F2A00900282EEF0EFB408005062904F3CF828ED
:104F3A002873024F54024F59024F60024F66024FC4
:104F4A006D024F7B024F87024F8F90030C8041E422
:104F5A0090030CF0803DE490024080199002407466
:104F6A0001801290023F7401F09003067404F080ED
:104F7A0022E490023FF090030604F080169002713A
:104F8A007414F0800E9002717441F080069003064A
:104F9A007401F0900271E0FFC39401400890030B82
:104FAA00EFF002503090030CE06401704990024027
:104FBA00E0601B1287F2B4010B7402F090030574CF
:104FCA0004F080237402F090030514F0801912870C
:104FDA00F2B4010B7404F09003057402F0800874B3
:104FEA0001F090030504F0900306E0C454F0FF902A
:104FFA000305E04F802C900240E060059003068094
:10500A000C1287F2B4010B7404F09003057402F0D9
:10501A0080087401F090030504F0900306E0FFC4D1
:10502A0054F090030BF0900304E060251296B4123A
:10503A0087A57A0079061251327A00791412513210
:10504A007A00792A7E007F0712266812880E127269
:10505A00F790030BE01229DE50811050AE1250C0B7
:10506A0014508A2050B72150D22450934050C9413D
:10507A0050DB42000050E41287A57A007931801093
:10508A001287A57A00795780071287A57A00797D59
:10509A0012879E9001F47403F07B0F7D01E4FF12E6
:1050AA008DB480401287A57A0079A380341287A52F
:1050BA007A0079C9802B1287A57A0079EF802212AB
:1050CA0087A57A01791580191287A57A01793B801B
:1050DA00101287A57A01796180071287A57A00796B
:1050EA003112879EE4900304F012880E1272F79030
:1050FA00030BE01229DE511F1051271251271451B8
:10510A00212051272151272451234051274151273A
:10511A00420000512C80028000E4FF80027F0112CD
:07512A0089099001D3E0FFA9
:10513100227E007F0E1226687B017A0279D81272D4
:0A514100F778D87C027D017B012283
:029C8600AB072A
:109C8800E4FFFEEBC3943D4021EBD39461501BEB02
:109C980024C3FFEE1287FAAA07EB24C3FFE4128756
:0A9CA800FAAE05AF02127DB97F018C
:019CB200228F
:1096F700E4FBFA9001DCF0FD7F9012994DEEC4F87F
:1097070054F0C868FEEFC4540F48FFEEC4F854F095
:10971700C868FAEFC4540F48FB7C007D0AFFAE020D
:109727001226F890021D1287D8ED2430900222F0FD
:01973700220F
:109FF800E4FBFA9001DCF0FF12A038AA06AB0712C6
:0FA0080087E09002171287D8ED2430900216F0EF
:01A017002226
:108AD00090020A7402F0A37432F0A37450F0A374ED
:108AE00030F0A3F0A37437F0A37420F0A37403F064
:108AF000E4A3F09001DCF09001DCE0FFD394075098
:108B00001B900212E0FE740A2F1287C0E0FFEE6F86
:108B1000900212F09001DCE004F080DBE49001DCD4
:108B2000F09001DCE0FFD394085013740A2F1287F1
:0E8B3000C0E0FF1200039001DCE004F080E3DF
:018B3E002214
:10002E001010FFFFFFFFFFFFFFFFFFFFFFFFFFFFB0
:10003E00FFFFFFFFFFFFFFFFFFFFFFFFFFFFFFFFC2
:10004E00FFFFFFFFFFFFFFFFFFFFFFFFFFFFFFFFB2
:10005E00FFFFFFFFFFFFFFFFFFFFFFFFFFFFFFFFA2
:10006E00FFFFFFFFFFFFFFFFFFFFFFFFFFFFFFFF92
:10007E00FFFFFFFFFFFFFFFFFFFFFFFFFFFFFFFF82
:10008E00FFFFFFFFFFFFFFFFFFFFFFFFFFFFFFFF72
:10009E00FFFFFFFFFFFFFFFFFFFFFFFFFFFFFFFF62
:1000AE00FFFFFFFFFFFFFFFFFFFFFFFFFFFFFFFF52
:1000BE00FFFFFFFFFFFFFFFFFFFFFFFFFFFFFFFF42
:1000CE00FFFFFFFFFFFFFFFFFFFFFFFFFFFFFFFF32
:1000DE00FFFFFFFFFFFFFFFFFFFFFFFFFFFFFFFF22
:1000EE00FFFFFFFFFFFFFFFFFFFFFFFFFFFFFFFF12
:1000FE00FFFFFFFFFFFFFFFFFFFFFFFFFFFFFFFF02
:10010E00FFFFFFFFFFFFFFFFFFFFFFFFFFFFFFFFF1
:10011E00FFFFFFFFFFFFFFFFFFFFFFFFFFFFFFFFE1
:10012E00FFFF1010FFFFFFFFFFFFFFFFFFFFFFFFAF
:10013E00FFFFFFFFFFFFFFFFFFFFFFFFFFFFFFFFC1
:10014E00FFFFFFFFFFFFFFFFFFFFFFFFFFFFFFFFB1
:10015E00FFFFFFFFFFFFFFFFFFFFFFFFFFFFFFFFA1
:10016E00FFFFFFFFFFFFFFFFFFFFFFFFFFFFFFFF91
:10017E00FFFFFFFFFFFFFFFFFFFFFFFFFFFFFFFF81
:10018E00FFFFFFFFFFFFFFFFFFFFFFFFFFFFFFFF71
:10019E00FFFFFFFFFFFFFFFFFFFFFFFFFFFFFFFF61
:1001AE00FFFFFFFFFFFFFFFFFFFFFFFFFFFFFFFF51
:1001BE00FFFFFFFFFFFFFFFFFFFFFFFFFFFFFFFF41
:1001CE00FFFFFFFFFFFFFFFFFFFFFFFFFFFFFFFF31
:1001DE00FFFFFFFFFFFFFFFFFFFFFFFFFFFFFFFF21
:1001EE00FFFFFFFFFFFFFFFFFFFFFFFFFFFFFFFF11
:1001FE00FFFFFFFFFFFFFFFFFFFFFFFFFFFFFFFF01
:10020E00FFFFFFFFFFFFFFFFFFFFFFFFFFFFFFFFF0
:10021E00FFFFFFFFFFFFFFFFFFFFFFFFFFFFFFFFE0
:10022E00FFFFFFFF1010FFFFFFFFFFFFFFFFFFFFAE
:10023E00FFFFFFFFFFFFFFFFFFFFFFFFFFFFFFFFC0
:10024E00FFFFFFFFFFFFFFFFFFFFFFFFFFFFFFFFB0
:10025E00FFFFFFFFFFFFFFFFFFFFFFFFFFFFFFFFA0
:10026E00FFFFFFFFFFFFFFFFFFFFFFFFFFFFFFFF90
:10027E00FFFFFFFFFFFFFFFFFFFFFFFFFFFFFFFF80
:10028E00FFFFFFFFFFFFFFFFFFFFFFFFFFFFFFFF70
:10029E00FFFFFFFFFFFFFFFFFFFFFFFFFFFFFFFF60
:1002AE00FFFFFFFFFFFFFFFFFFFFFFFFFFFFFFFF50
:1002BE00FFFFFFFFFFFFFFFFFFFFFFFFFFFFFFFF40
:1002CE00FFFFFFFFFFFFFFFFFFFFFFFFFFFFFFFF30
:1002DE00FFFFFFFFFFFFFFFFFFFFFFFFFFFFFFFF20
:1002EE00FFFFFFFFFFFFFFFFFFFFFFFFFFFFFFFF10
:1002FE00FFFFFFFFFFFFFFFFFFFFFFFFFFFFFFFF00
:10030E00FFFFFFFFFFFFFFFFFFFFFFFFFFFFFFFFEF
:10031E00FFFFFFFFFFFFFFFFFFFFFFFFFFFFFFFFDF
:10032E00FFFFFFFFFFFF1010FFFFFFFFFFFFFFFFAD
:10033E00FFFFFFFFFFFFFFFFFFFFFFFFFFFFFFFFBF
:10034E00FFFFFFFFFFFFFFFFFFFFFFFFFFFFFFFFAF
:10035E00FFFFFFFFFFFFFFFFFFFFFFFFFFFFFFFF9F
:10036E00FFFFFFFFFFFFFFFFFFFFFFFFFFFFFFFF8F
:10037E00FFFFFFFFFFFFFFFFFFFFFFFFFFFFFFFF7F
:10038E00FFFFFFFFFFFFFFFFFFFFFFFFFFFFFFFF6F
:10039E00FFFFFFFFFFFFFFFFFFFFFFFFFFFFFFFF5F
:1003AE00FFFFFFFFFFFFFFFFFFFFFFFFFFFFFFFF4F
:1003BE00FFFFFFFFFFFFFFFFFFFFFFFFFFFFFFFF3F
:1003CE00FFFFFFFFFFFFFFFFFFFFFFFFFFFFFFFF2F
:1003DE00FFFFFFFFFFFFFFFFFFFFFFFFFFFFFFFF1F
:1003EE00FFFFFFFFFFFFFFFFFFFFFFFFFFFFFFFF0F
:1003FE00FFFFFFFFFFFFFFFFFFFFFFFFFFFFFFFFFF
:10040E00FFFFFFFFFFFFFFFFFFFFFFFFFFFFFFFFEE
:10041E00FFFFFFFFFFFFFFFFFFFFFFFFFFFFFFFFDE
:10042E00FFFFFFFFFFFFFFFF1010FFFFFFFFFFFFAC
:10043E00FFFFFFFFFFFFFFFFFFFFFFFFFFFFFFFFBE
:10044E00FFFFFFFFFFFFFFFFFFFFFFFFFFFFFFFFAE
:10045E00FFFFFFFFFFFFFFFFFFFFFFFFFFFFFFFF9E
:10046E00FFFFFFFFFFFFFFFFFFFFFFFFFFFFFFFF8E
:10047E00FFFFFFFFFFFFFFFFFFFFFFFFFFFFFFFF7E
:10048E00FFFFFFFFFFFFFFFFFFFFFFFFFFFFFFFF6E
:10049E00FFFFFFFFFFFFFFFFFFFFFFFFFFFFFFFF5E
:1004AE00FFFFFFFFFFFFFFFFFFFFFFFFFFFFFFFF4E
:1004BE00FFFFFFFFFFFFFFFFFFFFFFFFFFFFFFFF3E
:1004CE00FFFFFFFFFFFFFFFFFFFFFFFFFFFFFFFF2E
:1004DE00FFFFFFFFFFFFFFFFFFFFFFFFFFFFFFFF1E
:1004EE00FFFFFFFFFFFFFFFFFFFFFFFFFFFFFFFF0E
:1004FE00FFFFFFFFFFFFFFFFFFFFFFFFFFFFFFFFFE
:10050E00FFFFFFFFFFFFFFFFFFFFFFFFFFFFFFFFED
:10051E00FFFFFFFFFFFFFFFFFFFFFFFFFFFFFFFFDD
:10052E00FFFFFFFFFFFFFFFFFFFF1010FFFFFFFFAB
:10053E00FFFF00000000FFFFFFFFFFFFFFFFFFFFB9
:10054E00FF000000000000FFFFFFFFFFFFFFFFFFA7
:10055E000000020202020000FFFFFFFFFFFFFFFF8D
:10056E000000020202020000FFFFFFFFFFFFFF007C
:10057E00000202000002020000FFFFFFFFFFFF006B
:10058E00000202000002020000FFFFFFFFFF00005A
:10059E0002020000000002020000FFFFFFFF000049
:1005AE00020200FFFF0002020000FFFFFF00000238
:1005BE00020000FFFF000002020000FFFF00000229
:1005CE000200000000000002020000FF0000020214
:1005DE0002020202020202020202000000000202F5
:1005EE0002020202020202020202000000000202E5
:1005FE0000000000000000000202000000000202E5
:10060E000000FFFFFFFF00000202000000000202D8
:10061E000000FFFFFFFF00000202000000000000CC
:10062E000000FFFFFFFF00000000000010100000A0
:10063E00000000000000000000000000FFFF0002AC
:10064E0002020202020202020202000000FF000287
:10065E000202020202020202020202000000000076
:10066E000002020000000000020202020000FF0071
:10067E0000020200FFFFFF00000202020000FF0066
:10068E0000020200FFFFFF00000202020000FF0056
:10069E0000020200000000000202020000FFFF0044
:1006AE00000202020202020202020000FFFFFF002D
:1006BE00000202020202020202020000FFFFFF001D
:1006CE0000020200000000000202020000FFFF0014
:1006DE0000020200FFFFFF00000202020000FF0006
:1006EE0000020200FFFFFF000002020200000000F5
:1006FE0000020200000000000202020200000002DE
:10070E0002020202020202020202020000000002C3
:10071E0002020202020202020202000000FF0000B8
:10072E00000000000000000000000000FFFF10109D
:10073E00FFFFFF00000000000000000000FFFFFFB1
:10074E00FFFF00000202020202020202000000FF8E
:10075E00FF00000202020202020202020200000078
:10076E000000000202000000000000020202000071
:10077E0000000202020000FFFFFF00000202000064
:10078E00000002020000FFFFFFFFFF000202000058
:10079E00000002020000FFFFFFFFFFFF000000004D
:1007AE00000002020000FFFFFFFFFFFFFFFFFFFF41
:1007BE00000002020000FFFFFFFFFFFFFFFFFFFF31
:1007CE00000002020000FFFFFFFFFF00000000001C
:1007DE00000002020000FFFFFFFFFF000202000008
:1007EE0000000202000000FFFFFF000002020000F6
:1007FE0000000202020000000000000202020000DF
:10080E00FF000002020202020202020202000000C7
:10081E00FFFF00000202020202020202000000FFBD
:10082E00FFFFFF0000000000000000000000FFFFBF
:10083E001010000000000000000000000000FFFF8C
:10084E00FFFF00000202020202020202020000FF8B
:10085E00FFFF000002020202020202020202000078
:10086E00FFFF000002020000000000020202000072
:10087E00FFFF000002020000FFFF00000202000066
:10088E00FFFF000002020000FFFF00000202000056
:10089E00FFFF000002020000000000020202000042
:1008AE00FFFF00000202020202020202020000FF2B
:1008BE00FFFF00000202020202020202000000FF1D
:1008CE00FFFF000002020000020202000000FFFF14
:1008DE00FFFF000002020000000202020000FFFF04
:1008EE00FFFF00000202000000000202020000FFF3
:1008FE00FFFF000002020000FF00000202020000E3
:10090E00FFFF000002020000FFFF000002020200D3
:10091E0000FF000002020000FFFFFF0000020202C3
:10092E0000FF000000000000FFFFFFFF00000000BE
:10093E0000FF101000000000FFFFFFFFFFFFFFFF92
:10094E00000000000000000000FFFFFFFFFFFF009F
:10095E000000000000000C0C0000FFFFFFFF000075
:10096E000C0C000000000C0C0C0000000000000C31
:10097E000C0C000000000C0C0C0C000000000C0C09
:10098E000C0C000000000C0C0C0C0C0C0C0C0C0CC9
:10099E000C0C000000000C0C0C0C0C0C0C0C0C0CB9
:1009AE000C0C000000000C0C0C000C0C0C0C000CC1
:1009BE000C0C000000000C0C0C00000C0C00000CC9
:1009CE000C0C000000000C0C0C0000000000000CD1
:1009DE000C0C000000000C0C0C0000000000000CC1
:1009EE000C0C000000000C0C0C0000FFFF00000CB3
:1009FE000C0C000000000C0C0C0000FFFF00000CA3
:100A0E000C0C000000000C0C0C0000FFFF00000C92
:100A1E000C0C000000000C0C0C0000FFFF00000C82
:100A2E000C0C000000000000000000FFFF000000A2
:100A3E00000000001010FF00000000000000000089
:100A4E000000000000FFFF0000020202020202028C
:100A5E000202020000FFFF00000202020202020276
:100A6E000202020000FFFF00000000000000020270
:100A7E000200000000FFFFFFFFFFFFFF0000020269
:100A8E00020000FFFFFFFFFFFFFFFFFF000002025B
:100A9E00020000FFFFFFFFFFFFFFFFFF000002024B
:100AAE00020000FFFFFFFFFFFFFFFFFF000002023B
:100ABE00020000FFFFFFFFFFFFFFFFFF000002022B
:100ACE00020000FFFFFFFFFFFFFFFFFF000002021B
:100ADE00020000FFFFFFFF00000000FF0000020207
:100AEE00020000FFFFFFFF000202000000000202F2
:100AFE00020000FFFFFFFF000202020000020202DE
:100B0E00020000FFFFFFFF000002020202020202CB
:100B1E00000000FFFFFFFFFF0000020202020200C2
:100B2E000000FFFFFFFFFFFFFF00000000000000BE
:100B3E0000FFFFFFFFFF1010FFFFFFFFFFFFFFFF94
:100B4E00FFFFFFFFFFFFFFFFFFFFFFFFFF000000A4
:100B5E0000000000FFFFFFFFFFFFFFFF000001018D
:100B6E0001010000FFFFFFFFFFFFFF000001010179
:100B7E0001010000FFFFFFFFFFFF00000101010167
:100B8E00010000FFFFFFFFFFFF0000010101010157
:100B9E000000000000000000000001010101010141
:100BAE00010101010101000000010101010101012A
:100BBE00010101010101000000010101010101011A
:100BCE00010101010101000000000101010101010B
:100BDE000101010101010000FF00000101010101FD
:100BEE000000000000000000FFFF000001010101F5
:100BFE00010000FFFFFFFFFFFFFFFF0000010101EB
:100C0E0001010000FFFFFFFFFFFFFFFF00000101DA
:100C1E0001010000FFFFFFFFFFFFFFFFFF000000CD
:100C2E0000000000FFFFFFFFFFFFFFFFFFFFFFFFC2
:100C3E00FFFFFFFFFFFFFFFF1010FFFFFFFFFFFF94
:100C4E00FFFFFFFFFFFFFFFFFFFFFFFFFFFF0000A4
:100C5E000000000000FFFFFFFFFFFFFFFFFF00008F
:100C6E00010101010000FFFFFFFFFFFFFFFF00007A
:100C7E0001010101010000FFFFFFFFFFFFFFFF0069
:100C8E000001010101010000FFFF00000000000053
:100C9E00000001010101010000FF0000010101013E
:100CAE00010101010101010100000000010101012A
:100CBE000101010101010101010000000101010119
:100CCE00010101010101010101000000000000000D
:100CDE00000001010101010000FF00000000000002
:100CEE00000001010101010000FFFFFFFFFFFF00F7
:100CFE000001010101010000FFFFFFFFFFFF0000E7
:100D0E0001010101010000FFFFFFFFFFFFFF0000D7
:100D1E00010101010000FFFFFFFFFFFFFFFF0000C9
:100D2E000000000000FFFFFFFFFFFFFFFFFFFFFFC0
:100D3E00FFFFFFFFFFFFFFFFFFFF1010FFFFFFFF93
:100D4E000000000000000000FFFFFFFFFFFFFFFF9D
:100D5E000000010101010000FFFFFFFFFFFFFFFF89
:100D6E000000010101010000FFFFFFFFFFFFFFFF79
:100D7E000000010101010000FFFFFFFFFFFFFFFF69
:100D8E000000010101010000FFFFFFFF0000000055
:100D9E00000001010101000000000000000001013F
:100DAE00000001010101000001010000000001012D
:100DBE00010001010101000101010000000001011B
:100DCE000101010101010101010100000000010109
:100DDE00010101010101010101010000FF000001FB
:100DEE000101010101010101010000FFFFFF0000EF
:100DFE0001010101010101010000FFFFFFFFFF00E2
:100E0E00000101010101010000FFFFFFFFFFFFFFD5
:100E1E000000010101010000FFFFFFFFFFFFFFFFC8
:100E2E00FF000001010000FFFFFFFFFFFFFFFFFFBC
:100E3E00FFFF00000000FFFFFFFFFFFF1010FFFF8E
:100E4E00FFFFFFFFFFFF0000000000000000FFFF9C
:100E5E00FFFFFFFFFF000002020202020000FFFF81
:100E6E00FFFFFFFF00000202020202020000FFFF6E
:100E7E00FFFFFF000002020200000202000000005D
:100E8E00000000000202020000000202000000004A
:100E9E000202020202020200FF0002020000000033
:100EAE000202020202020200FF0002020000000023
:100EBE000202000000020200FF0002020000000019
:100ECE00020200FF00020200FF000202000000000A
:100EDE000202000000020200FF00020200000000F9
:100EEE000202020202020200FF00020200000000E3
:100EFE0002020202020202000000020200000000D2
:100F0E000000000000020202000002020000FFFFCB
:100F1E00FFFFFFFF00000202020202020000FFFFBD
:100F2E00FFFFFFFFFF000002020202020000FFFFB0
:100F3E00FFFFFFFFFFFF0000000000000000101089
:100F4E000000000000FFFFFFFFFFFF000000000099
:100F5E000001010100FFFFFFFFFFFF000101010083
:100F6E000001010100FFFFFFFFFFFF000101010073
:100F7E000001010100FFFFFFFFFFFF000101010063
:100F8E000001010100FFFFFFFFFFFF000101010053
:100F9E00000101010000FFFFFFFF00000101010041
:100FAE00000101010100FFFFFFFF0001010101002F
:100FBE00000001010100FFFFFFFF00010101000021
:100FCE0000000101010000FFFF000001010100000F
:100FDE00FF0000010101000000000101010000FFFF
:100FEE00FFFF000001010100000101010000FFFFF1
:100FFE00FFFF000000010100000101000000FFFFE3
:10100E00FFFFFF00000101010101010000FFFFFFD2
:10101E00FFFFFFFF0000010101010000FFFFFFFFC6
:10102E00FFFFFFFFFF00000101000000FFFFFFFFB9
:10103E00FFFFFFFFFFFF0000000000FFFFFFFFFFAD
:10104E00101000000000000000FFFFFFFFFFFFFF79
:10105E00FFFF00000101010000FFFFFFFFFFFFFF88
:10106E00FFFF00000101010000FFFFFFFFFFFFFF78
:10107E00FFFF00000101010000FFFFFFFFFFFFFF68
:10108E00FFFF00000101010000FFFFFFFFFFFFFF58
:10109E00FFFF00000101010000FFFFFFFFFFFFFF48
:1010AE00FFFF00000101010000FFFFFFFFFFFFFF38
:1010BE00FFFF00000101010000FFFFFFFFFFFFFF28
:1010CE00FFFF00000101010000FFFFFFFFFFFFFF18
:1010DE00FFFF00000101010000FFFFFFFFFF000006
:1010EE00000000000101010000FFFFFFFFFF0000F4
:1010FE00000000000101010000FFFFFFFF000001E2
:10110E0000000000010101000000000000000101CC
:10111E0000000000010101010101010101010101B5
:10112E0000000000010101010101010101010101A5
:10113E0000000000000000000000000000000000A1
:10114E0000001010FFFFFFFFFFFFFFFFFFFFFFFF7D
:10115E00FFFFFFFFFFFFFFFFFFFFFFFFFFFFFFFF91
:10116E00FFFFFFFFFFFFFFFFFFFFFFFFFFFFFFFF81
:10117E00FFFFFFFFFFFFFFFF00000000000000FF6A
:10118E00FFFFFFFFFFFFFF00000001010100000055
:10119E00FFFFFFFFFFFF0000010101010101010040
:1011AE0000FFFFFFFF00000101010000000101012F
:1011BE000000FFFF00000001010000FF0000010120
:1011CE00000000FF00000101010000FF000001010E
:1011DE00010000FF00000101010000FF00000101FD
:1011EE00010000FF00000101010000FF00000101ED
:1011FE00010000FF00000001010000FF00000101DE
:10120E00000000FFFF0000010101000000010101CC
:10121E000000FFFFFFFF00000101010101010100BD
:10122E0000FFFFFFFFFFFF000000010101000000B3
:10123E00FFFFFFFFFFFFFFFF00000000000000FFA9
:10124E00FFFFFFFF1010FFFFFFFFFFFFFFFFFFFF7E
:10125E00FFFFFFFFFFFFFFFFFFFF0000000000008A
:10126E000000FFFFFFFFFFFF00000000020202026E
:10127E00000000FFFFFFFF00000002020202020258
:10128E0002020000FFFFFF00000202020000000049
:10129E000202020000FFFF00000202020000FF0037
:1012AE000000000000FFFF0000000202020200002A
:1012BE000000FFFFFFFFFFFFFF000002020202021D
:1012CE00020000FFFFFFFFFFFFFF00000000020211
:1012DE0002020000FFFFFF0000000000FFFF000001
:1012EE000202020000FFFF000002020200000000E6
:1012FE000202020000FFFF000000020202020202D0
:10130E0002020000FFFFFFFFFF00000002020202C8
:10131E00000000FFFFFFFFFFFFFFFF0000000000C7
:10132E000000FFFFFFFFFFFFFFFFFFFFFFFFFFFFBD
:10133E00FFFFFFFFFFFFFFFFFFFFFFFFFFFFFFFFAF
:10134E00FFFFFFFFFFFF1010FFFFFFFFFFFFFFFF7D
:10135E00FFFFFFFFFFFFFFFFFFFFFFFFFFFFFFFF8F
:10136E00FFFFFFFFFFFFFFFFFFFFFFFFFFFFFFFF7F
:10137E00FFFFFFFFFFFFFFFFFFFFFFFFFFFFFFFF6F
:10138E00FFFFFFFFFFFFFFFFFFFFFFFFFFFFFFFF5F
:10139E00FFFFFFFFFFFFFFFFFFFFFFFFFFFFFFFF4F
:1013AE00FFFFFFFFFFFFFFFFFFFFFFFFFFFFFFFF3F
:1013BE00FFFFFFFFFFFFFFFFFFFFFFFFFFFFFFFF2F
:1013CE00FFFFFFFFFFFFFFFF1010FFFFFFFFFFFFFD
:1013DE00FFFFFFFFFFFFFFFFFFFFFFFFFFFFFFFF0F
:1013EE00FFFFFFFFFFFFFFFFFFFFFFFFFFFFFFFFFF
:1013FE00FFFFFFFFFFFFFFFFFFFFFFFFFFFFFFFFEF
:10140E00FFFFFFFFFFFFFFFFFFFFFFFFFFFFFFFFDE
:10141E00FFFFFFFFFFFFFFFFFFFFFFFFFFFFFFFFCE
:10142E00FFFFFFFFFFFFFFFFFFFFFFFFFFFFFFFFBE
:10143E00FFFFFFFFFFFFFFFFFFFFFFFFFFFFFFFFAE
:10144E00FFFFFFFFFFFFFFFFFFFF1010FFFFFFFF7C
:10145E00FFFFFFFFFFFFFFFFFFFFFFFFFFFFFFFF8E
:10146E00FFFFFFFFFFFFFFFFFFFFFFFFFFFFFFFF7E
:10147E00FFFFFFFFFFFFFFFFFFFFFFFFFFFFFFFF6E
:10148E00FFFFFFFFFFFFFFFFFFFFFFFFFFFFFFFF5E
:10149E00FFFFFFFFFFFFFFFFFFFFFFFFFFFFFFFF4E
:1014AE00FFFFFFFFFFFFFFFFFFFFFFFFFFFFFFFF3E
:1014BE00FFFFFFFFFFFFFFFFFFFFFFFFFFFFFFFF2E
:1014CE00FFFFFFFFFFFFFFFFFFFFFFFF1010FFFFFC
:1014DE00FFFFFFFFFFFFFFFFFFFFFFFFFFFFFFFF0E
:1014EE00FFFFFFFFFFFFFFFFFFFFFFFFFFFFFFFFFE
:1014FE00FFFFFFFFFFFFFFFFFFFFFFFFFFFFFFFFEE
:10150E00FFFFFFFFFFFFFFFFFFFFFFFFFFFFFFFFDD
:10151E00FFFFFFFFFFFFFFFFFFFFFFFFFFFFFFFFCD
:10152E00FFFFFFFFFFFFFFFFFFFFFFFFFFFFFFFFBD
:10153E00FFFFFFFFFFFFFFFFFFFFFFFFFFFFFFFFAD
:10154E00FFFFFFFFFFFFFFFFFFFFFFFFFFFF10107B
:10155E00FFFFFFFFFFFFFFFFFFFFFFFFFFFFFFFF8D
:10156E00FFFFFFFFFFFFFFFFFFFFFFFFFFFFFFFF7D
:10157E00FFFFFFFFFFFFFFFFFFFFFFFFFFFFFFFF6D
:10158E00FFFFFFFFFFFFFFFFFFFFFFFFFFFFFFFF5D
:10159E00FFFFFFFFFFFFFFFFFFFFFFFFFFFFFFFF4D
:1015AE00FFFFFFFFFFFFFFFFFFFFFFFFFFFFFFFF3D
:1015BE00FFFFFFFFFFFFFFFFFFFFFFFFFFFFFFFF2D
:1015CE00FFFFFFFFFFFFFFFFFFFFFFFFFFFFFFFF1D
:1015DE001010FFFFFF0000FFFFFFFFFFF000000FE6
:1015EE00FFFFFFFF00222200FFFFFFFF002222006D
:1015FE00FFFFFFF0022002200FFFFFF0022002206B
:10160E000FFFFF002200002200FFFF00220FF0223A
:10161E0000FFF002200FF002200FF0022000000267
:10162E00200F002222222222220000222222222207
:10163E0022000022000000002200002200FFFF0016
:10164E002200002200FFFF002200000000FFFF002A
:10165E000000101000000000000000FF02222222F5
:10166E002222000F0222222222222000000220002B
:10167E0000222200F00220FFF0022200F00220FFE2
:10168E00F0022200F00220000022200FF00222229F
:10169E00222200FFF0022222222200FFF00220006E
:1016AE000022200FF00220FFF0022200F00220FFA5
:1016BE00F00222000002200000222200022222223A
:1016CE0022222000022222222222000F00000000ED
:1016DE00000000FF1010101010101010101010103D
:0A16EE001010101010101010101052
:1098A7001226A7FF9003DAE02F9001F4F02290012F
:1098B700EEE0FBA3E0FAA3E0F922F09001EEE0FB73
:1098C700A3E475F001122763A9F0FA02268E90012E
:0898D700E5E0D36480948022D7
:06A40100E49003DAF022F2
:06A407009003DAEFF022E1
:0B6242009001E6EFF0A3ECF0A3EDF0FC
:10624D009001E6E0FF25E0F0E02408F09001EDF08C
:10625D009001E7E0FEA3E07803C333CE33CED8F947
:10626D00F0EE9001E7F0A3E02408F09001E7E034B0
:10627D0000F0AF037E007C017D021226E6742E2F06
:10628D00F974003EFA9001EE74FFF0A3EAF0A3E971
:10629D001298C19001E91298C19001EAF0E4A3F0BF
:1062AD009001E9E0FF9001EBE0C39F400302638999
:1062BD00E4A3F09001EAE0FF9001ECE0C39F4003FE
:1062CD0002636A1298B512268E1298AAE4FB7D021B
:1062DD00FF128DB41298B59000011298A77B011290
:1062ED0063B39000021298A77B021263B390000370
:1062FD001298A77B031263C69001F47480F07B049F
:10630D001263C69001EFE475F00412274D9001ED74
:10631D00E09001F4F07B051263CEA3E09001F4F060
:10632D007B071263CEE07E007802C333CE33CED826
:10633D00F912638A1263D920E7FA9001E7E025E0AC
:10634D0025E0440812638A1263D920E7FA9001ED23
:10635D00E004F09001ECE02404F00262C09001E64C
:10636D00E09001EDF09001E8E004F070069001E797
:0C637D00E004F09001EBE004F00262ADDF
:10638900229001F4F07B097D02E4FF128DB47B0AAF
:106399007D02E4FF128608EF543F44809001F4F037
:1063A9007B0A7D02E4FF128DB4227D02E4FF128D87
:1063B900B49001EEE0FBA3E0FAA3E0F9227D02E448
:1063C900FF128DB4227D02E4FF128DB49001E72201
:0B63D9007B0A7D02E4FF128608EF2221
:0B8F40009001DFEFF0A3EDF0A3EBF0D9
:108F4B00A31298B812A1E59001E5EFF0C3648094E9
:108F5B008040429001DFE030E0339001E0E0FFA37E
:108F6B00E0FD7C00A31298B812268EFB1262429091
:108F7B0001E5E014F09001E3E475F00112274D9048
:108F8B0001E0E02402F01298D550CF80051298D55D
:058F9B0050FB12A42BA5
:018FA00022AE
:10A018000500000600000700000800000900000A0B
:10A02800000012000020000B000C000D000E0000C4
:03768C00012100D9
:107F410090035BE075F003A42418F974A035F0FAEE
:107F51009001E274FFF0A3229001DCE0FBA3E0FAC0
:107F6100A3E0F92290035BE0FF74017E00A80708FB
:107F710022FF900368E0FDEF5D2274A0F0A3743747
:107F8100F0229000010226A774A0F0A37424F0222D
:107F910074A0F0A37435F022EAF0A3E9F0E4FB2227
:107FA1009000020226A712268E540C1313543FF59B
:107FB1003022EAF0A3E9F07B12227B017D127C00E2
:107FC100227D197B057C007F3A22EBF0A3EAF0A326
:107FD100E9F0229000030226A77B017D0F7C00229D
:107FE100EAF0A3E9F07B0F227B01E4FDFC7F1C2278
:087FF1007B01E4FDFC7F41224D
:10919D001271BD12A4017F0412A4257F0312A4280D
:1091AD00E4F530AF301291D30530E530C39406406D
:1091BD00F27F011299BB7FFF12A4287F081291D371
:0591CD00E4900358F0DE
:1091D2002212A0589001E0E4F0A37426F07B5AE436
:0791E200FDFCFF1280AF222B
:104400009001DC127FCB7F0212A4257FFF12A4282B
:1044100090035AE01229DE44451144542144882275
:1044200044BC3144FA3345353445704145C091456B
:10443000D7A14603A2462CB14671B346B2B446F4A6
:10444000C100004751127F5912268E20E103024716
:10445000510245CC127F5912268E30E10D127F4158
:10446000127F997DFF7F01128F40127F59127F8347
:1044700020E10302475190035C127F44EAF0A3E974
:10448000F07B1D7D5D02474C127F5912268E30E174
:1044900011127F41EAF0A3E9F07B0E7D487F011203
:1044A0008F40127F59127F8320E10302475190030E
:1044B0005C127F44127F997D1402474C127F59127F
:1044C000268E30E109127F41127F9912479E127F9A
:1044D00059127F8330E10990035C127F4412477FB9
:1044E000127F59127FA120E10302475190035D1210
:1044F0007F44127FE17D3E02474C127F5912268E87
:1045000030E106127F41124752127F59127F8330E9
:10451000E10990035C127F44124770127F59127FA9
:10452000A120E10302475190035D127F44127FE115
:104530007D3E02474C127F5912268E30E106127FD3
:1045400041124752127F59127F8330E10990035C78
:10455000127F44124770127F59127FA120E103029B
:10456000475190035D127F44127FE17D1402474C56
:10457000127F5912268E30E106127F4112476112D6
:104580007F59127F8330E10C90035C127F44127FCD
:1045900099124796127F59127FA130E10990035D6D
:1045A000127F4412477F127F59127FD420E1030209
:1045B000475190035E127F44127FE17D3E02474CDB
:1045C000127F5912268E20E103024751127F4112B9
:1045D0007F997D2902474C127F5912268E30E109BE
:1045E000127F41127F9912479E127F59127F8320BA
:1045F000E10302475190035C127F44127FB37D298F
:1046000002474C127F5912268E30E106127F41126A
:104610004761127F59127F8320E1030247519003C3
:104620005C127F44127F997D3E02474C127F5912E3
:10463000268E30E10D127F41127F997D297F011274
:104640008F40127F59127F8330E10C90035C127F00
:1046500044127FB312478E127F59127FA120E103CB
:1046600002475190035D127F44127FB37D3E0247A3
:104670004C127F5912268E30E109127F41127F9928
:1046800012478E127F59127F8330E10C90035C1227
:104690007F44127F99124796127F59127FA120E121
:1046A0000302475190035D127F44127FB37D3E02A7
:1046B000474C127F5912268E30E109127F41127F3A
:1046C000991247A6127F59127F8330E11090035C44
:1046D000127F44127F997D3E7F01128F40127F59D5
:1046E000127FA130E16B90035D127F44127FB37D96
:1046F0001402474C127F5912268E30E109127F4175
:10470000127F991247A6127F59127F8330E11090D1
:10471000035C127F44127F997D3E7F01128F40120D
:104720007F59127FA130E11090035D127F44127F08
:10473000B37D147F01128F40127F59127FD430E174
:104740001090035E127F44127FB37D3E7F01128F73
:104750004022EAF0A3E9F0E4FB7D147F01128F40D0
:1047600022EAF0A3E9F0E4FB7D147F01128F4022DE
:10477000EAF0A3E9F0E4FB7D3E7F01128F4022EADC
:10478000F0A3E9F07B0F7D147F01128F40227D148E
:104790007F01128F40227D3E7F01128F40227D29B2
:0E47A0007F01128F40227D147F01128F402274
:08A3F100900359E04480F022C2
:109511007B787D01E4FF128608EF540FFF9003680A
:10952100F0900359E06F602ED2277B31E4FDFF12EA
:109531008608EF547F9001F4F07B31E4FDFF128D3A
:10954100B47F4D12A4257F4012A40712A4019003F9
:0795510068E0900359F022CD
:066B22009001DC127FCBA4
:106B28007F4112A42590035AE01229DE6B5C116B99
:106B38006D216BA1226BD8316BFB336C18346B5C05
:106B4800916B6DA16BA1A26BD8B16BFBB36C18B440
:106B580000006C559001DC127F5C127FA760030275
:106B68006BE3026BF19001DC127F5C127FA760126D
:106B7800126C56127F50127F997D1C7F01128F4034
:106B88008006127FE9127FF99001DC127F5C127F88
:106B980083127FAA6037026C269001DC127F5C1298
:106BA8007FA76012126C56127F50127F997D1C7F4E
:106BB80001128F408006127FE9127FF99001DC12E2
:106BC8007F5C127F83127FAA6003026C26026C4BE3
:106BD8009001DC127F5C127FA7600E126C6F127F2F
:106BE80050127F997D31026C467B01E4FDFC7F31B8
:106BF800026C529001DC127F5C127FA7600D126C50
:106C08006F127F50127F997D1C8033127FE9803A82
:106C18009001DC127F5C127F83127FAA60257B02C1
:106C2800E4FDFCFF127FF9E53025E0FFE433FE7454
:106C38002D2FF974A03E127F50127F997D467F0157
:0D6C4800028F407B01E4FDFC7F46127FF9C6
:106C5500227B02E4FDFCFF127FF9E53025E0FFE42D
:106C650033FE742D2FF974A03E227B02E4FDFCFF58
:106C7500127FF9E53025E0FFE433FE742D2FF9741A
:036C8500A03E220C
:10321F009001DC127FCB7F0C12A42590035AE01291
:10322F0029DE325F11327121329D2232C6313311C4
:10323F003333543433A341341191342EA13469A262
:10324F0034A2B134FFB33554B435AFC100003628C2
:10325F009001DC127F5C12268E30E00302341D02D7
:10326F0034279001DC127F5C12268E30E00B127F28
:10327F0051127F891236AB80031236809001DC1217
:10328F007F5C127F8330E00302345402346190017B
:10329F00DC127F5C12268E30E008127F5112362925
:1032AF00800312364B9001DC127F5C127F8330E07B
:1032BF000302348F02349C9001DC127F5C12268E45
:1032CF0030E00B127F51127F891236AB800312361A
:1032DF00809001DC127F5C127F8330E00B127F51F4
:1032EF00127F891236D58008127FDA7F17127FF985
:1032FF009001DC127F5C127FA130E0030233FF02EA
:10330F00340A9001DC127F5C12268E30E008127FA7
:10331F0051123629800312364B9001DC127F5C125A
:10332F007F8330E00B127F51127F89123696800314
:10333F001236569001DC127F5C127FA130E003023F
:10334F0033FF02340A9001DC127F5C12268E30E0CC
:10335F0008127F5112363A80031236619001DC1247
:10336F007F5C127F8330E00B127F51127F89123600
:10337F009680031236569001DC127F5C127FA130CB
:10338F00E00B127F51127F897B0F02359F7B017DEE
:10339F000F0235A89001DC127F5C12268E30E008F8
:1033AF00127F5112363A80031236619001DC127F80
:1033BF005C127F8330E00B127F51127F891236C06F
:1033CF00800312368B9001DC127F5C127FA130E0FC
:1033DF000B127F51127F891236D58008127FDA7F48
:1033EF0017127FF99001DC127F5C127FD430E00B53
:1033FF00127F51127F897B0F0234977B017D0F0261
:10340F0034F89001DC127F5C12268E30E00A127FB6
:10341F0051127F89E4FB80357B01E4FDFC803690FF
:10342F0001DC127F5C12268E30E00B127F51127F6F
:10343F00891236DF80031236B59001DC127F5C12E1
:10344F007F8330E00D127F51127F897B0F7D2C021D
:10345F00361B127FDA7F2C0236259001DC127F5C3F
:10346F0012268E30E00B127F51127F8912366C803C
:10347F00031236A09001DC127F5C127F8330E00DC7
:10348F00127F51127F89E4FB7D4102361B127FF1BF
:10349F000236259001DC127F5C12268E30E00B1273
:1034AF007F51127F891236DF80031236B59001DC0F
:1034BF00127F5C127F8330E00B127F51127F8912D3
:1034CF0036E98008127FBB7F17127FF99001DC125B
:1034DF007F5C127FA130E00D127F51127F897B122A
:1034EF007D4102361B7B017D127C007F4102362518
:1034FF009001DC127F5C12268E30E00B127F51128E
:10350F007F8912366C80031236A09001DC127F5C2B
:10351F00127F8330E00B127F51127F891236C080E9
:10352F000312368B9001DC127F5C127FA130E00D0D
:10353F00127F51127F897B127D4102361B127FBB96
:10354F007F410236259001DC127F5C12268E30E01F
:10355F000B127F51127F8912367680031236CA9072
:10356F0001DC127F5C127F8330E00B127F51127FE0
:10357F00891236F38006127FF1127FF99001DC1267
:10358F007F5C127FA130E00D127F51127F897B1279
:10359F007D1702361B7B017D127C007F17023625BB
:1035AF009001DC127F5C12268E30E00B127F5112DD
:1035BF007F8912367680031236CA9001DC127F5C47
:1035CF00127F8330E00B127F51127F891236F38006
:1035DF0006127FF1127FF99001DC127F5C127FA13E
:1035EF0030E00B127F51127F891236E98008127F6B
:1035FF00BB7F17127FF99001DC127F5C127FD430F2
:10360F00E00F127F51127F897B127D417F01028F64
:10361F0040127FBB7F41127FF92274A0F0A3742464
:10362F00F0E4FB7D177F01128F402274A0F0A3748A
:10363F0024F0E4FB7D177F01128F40227B01E4FD14
:10364F00FC7F17127FF9227B01E4FDFC7F41127F83
:10365F00F9227B01E4FDFC7F17127FF922E4FB7D49
:10366F00177F01128F4022E4FB7D177F01128F40DD
:10367F00227B01E4FDFC7F2C127FF9227B01E4FD0C
:10368F00FC7F41127FF922E4FB7D417F01128F40C5
:10369F00227B01E4FDFC7F17127FF922E4FB7D2CD6
:1036AF007F01128F40227B01E4FDFC7F2C127FF9FA
:1036BF0022E4FB7D417F01128F40227B01E4FDFC60
:1036CF007F17127FF9227B0F7D177F01128F402208
:1036DF00E4FB7D2C7F01128F40227B127D177F012F
:0E36EF00128F4022E4FB7D417F01128F4022AA
:1036FD009003CA127FCB7F0212A42590035AE012C9
:10370D0029DE373A11374C21377B2237A43137EF79
:10371D003338323438814138EF913912A2394FB1F3
:10372D0039B9B33A0EB43A66C100003ADC9003CA17
:10373D00127F5C12268E30E4030238FB02390890AA
:10374D0003CA127F5C12268E30E40B127F51127F5A
:10375D0091123B748003123B549003CA127F5C128A
:10376D00268E30E4030238FB127FDA02390D900306
:10377D00CA127F5C12268E30E408127F51123ADD98
:10378D008003123AFF9003CA127F5C127F8330E4EC
:10379D00030239380239459003CA127F5C12268E16
:1037AD0030E40B127F51127F91123B748003123B58
:1037BD00549003CA127F5C127F8330E40B127F5149
:1037CD00127F91123B7E8008127FDA7F1F127FF9E4
:1037DD009003CA127F5C127FA130E4030238DD0230
:1037ED0038E89003CA127F5C12268E30E408127FEF
:1037FD0051123ADD8003123AFF9003CA127F5C1218
:10380D007F8330E40B127F51127F91123B4A80036C
:10381D00123B0A9003CA127F5C127FA130E40302AF
:10382D0038DD0238E89003CA127F5C12268E30E430
:10383D0008127F51123AEE8003123B159003CA1203
:10384D007F5C127F8330E40B127F51127F91123B0C
:10385D004A8003123B0A9003CA127F5C127FA1308B
:10386D00E40B127F51127F917B0F023A567B017D43
:10387D000F023A5F9003CA127F5C12268E30E40865
:10388D00127F51123AEE8003123B159003CA127F3C
:10389D005C127F8330E40B127F51127F91123B5FDC
:1038AD008003123B349003CA127F5C127FA130E477
:1038BD000B127F51127F91123B7E8008127FDA7FAF
:1038CD001F127FF99003CA127F5C127FD430E40B74
:1038DD00127F51127F917B0F0239407B017D0F02C8
:1038ED0039B29003CA127F5C12268E30E40D127F1E
:1038FD0051127F91E4FB7D34023ACF7B01E4FDFC54
:10390D007F34023AD99003CA127F5C12268E30E4BE
:10391D000B127F51127F91123B208003123B3F907F
:10392D0003CA127F5C127F8330E40D127F51127F28
:10393D0091E4FB7D49023ACF7B01E4FDFC7F490216
:10394D003AD99003CA127F5C12268E30E411127F91
:10395D0051127F91E4FB7D347F01128F40800A7BF1
:10396D0001E4FDFC7F34127FF99003CA127F5C12D3
:10397D007F8330E40B127F51127F91123B9D8008A3
:10398D00127FBB7F1F127FF99003CA127F5C127FDB
:10399D00A130E40D127F51127F917B127D49023AC5
:1039AD00CF7B017D127C007F49023AD99003CA1268
:1039BD007F5C12268E30E40B127F51127F91123BE9
:1039CD00208003123B3F9003CA127F5C127F83302D
:1039DD00E40B127F51127F91123B5F8003123B3437
:1039ED009003CA127F5C127FA130E40D127F511239
:1039FD007F917B127D49023ACF127FBB7F49023AFC
:103A0D00D99003CA127F5C12268E30E40B127F51BF
:103A1D00127F91123B2A8003123B699003CA127FD9
:103A2D005C127F8330E40B127F51127F91123B9316
:103A3D008003123B889003CA127F5C127FA130E491
:103A4D000D127F51127F917B127D1F023ACF7B01A8
:103A5D007D127C007F1F023AD99003CA127F5C123F
:103A6D00268E30E40B127F51127F91123B2A800378
:103A7D00123B699003CA127F5C127F8330E40B12F4
:103A8D007F51127F91123B938003123B889003CAA2
:103A9D00127F5C127FA130E40B127F51127F9112C5
:103AAD003B9D8008127FBB7F1F127FF99003CA12C6
:103ABD007F5C127FD430E40F127F51127F917B1205
:103ACD007D497F01028F40127FBB7F49127FF92212
:103ADD0074A0F0A37435F0E4FB7D1F7F01128F40BD
:103AED002274A0F0A37435F0E4FB7D1F7F01128FCB
:103AFD0040227B01E4FDFC7F1F127FF9227B01E454
:103B0D00FDFC7F49127FF9227B01E4FDFC7F1F1232
:103B1D007FF922E4FB7D1F7F01128F4022E4FB7DA4
:103B2D001F7F01128F40227B01E4FDFC7F49127F34
:103B3D00F9227B01E4FDFC7F1F127FF922E4FB7D5E
:103B4D00497F01128F40227B01E4FDFC7F34127FFF
:103B5D00F922E4FB7D497F01128F40227B01E4FDB8
:103B6D00FC7F1F127FF922E4FB7D347F01128F4011
:103B7D00227B0F7D1F7F01128F40227B01E4FDFC14
:103B8D007F49127FF922E4FB7D497F01128F40228C
:0A3B9D007B127D1F7F01128F402272
:102C9B00900368E0FD900359E06DF565A3E0122900
:102CAB00DE2CD4112CF7222D3C312DAD332E1434C8
:102CBB002E82412F11912F3AA22F87B12FF7B330CC
:102CCB0061B430DCC100003168127F658005C3330D
:102CDB00CE33CED8F9FFEF5D600B127F51127F7BA5
:102CEB007B0D022F2A7B057D0D022F33127F658012
:102CFB0005C333CE33CED8F9127F72600B127F51DE
:102D0B00127F7B1231C5800312318190035C127FDD
:102D1B00688005C333CE33CED8F9127F72600B12A5
:102D2B007F51127F7B7B0D022F777B057D0D022F51
:102D3B0080127F658005C333CE33CED8F9127F72F4
:102D4B006011127F51127F7B7B077D257F01128FD4
:102D5B004080057D0712320B90035C127F68800563
:102D6B00C333CE33CED8F9127F72600D127F51125E
:102D7B007F7B7B151231E580031231CF90035D12FF
:102D8B007F688005C333CE33CED8F9127F72600BC8
:102D9B00127F51127F7B7B15022F777B057D1502EE
:102DAB002F80127F658005C333CE33CED8F9127FC7
:102DBB0072600B127F51127F7B1231C5800312316F
:102DCB008190035C127F688005C333CE33CED8F974
:102DDB00127F72600B127F51127F7B1231DB8003EB
:102DEB0012318D90035D127F688005C333CE33CED5
:102DFB00D8F9127F72600B127F51127F7B7B150209
:102E0B002F777B057D15022F80127F658005C333DD
:102E1B00CE33CED8F9127F72600B127F51127F7BAB
:102E2B00123199800312316990035C127F6880051F
:102E3B00C333CE33CED8F9127F72600D127F51128D
:102E4B007F7B7D3A12320380087D0D127FC4127F87
:102E5B00F990035D127F688005C333CE33CED8F96A
:102E6B00127F72600B127F51127F7B7B150230CC6D
:102E7B007B057D150230D5127F658005C333CE33BC
:102E8B00CED8F9127F72600B127F51127F7B1231F9
:102E9B0099800312316990035C127F688005C333FC
:102EAB00CE33CED8F9127F72600B127F51127F7B1B
:102EBB001231DB800312318D90035D127F68800528
:102ECB00C333CE33CED8F9127F726011127F5112F9
:102EDB007F7B7B157D107F01128F4080031231CFDA
:102EEB0090035E127F688005C333CE33CED8F912C0
:102EFB007F72600B127F51127F7B7B15022F777BCA
:102F0B00057D15022F80127F658005C333CE33CE2E
:102F1B00D8F9127F72600D127F51127F7B7B107D6F
:102F2B002502315D7B057D107C007F25023165120A
:102F3B007F658005C333CE33CED8F9127F72600D17
:102F4B00127F51127F7B7B101231E580031231A36C
:102F5B0090035C127F688005C333CE33CED8F91251
:102F6B007F72600D127F51127F7B7B107D3A023195
:102F7B005D7B057D107C007F3A023165127F658099
:102F8B0005C333CE33CED8F9127F726011127F5145
:102F9B00127F7B7B087D257F01128F4080057D088A
:102FAB0012320B90035C127F688005C333CE33CE95
:102FBB00D8F9127F72600B127F51127F7B12321580
:102FCB0080031231ED90035D127F688005C333CE11
:102FDB0033CED8F9127F72600D127F51127F7B7B3B
:102FEB00197D3A02315D127FC2023165127F658015
:102FFB0005C333CE33CED8F9127F72600D127F51D9
:10300B00127F7B7D1012320380031231A390035C7D
:10301B00127F688005C333CE33CED8F9127F72602E
:10302B000B127F51127F7B1231F980031231B99051
:10303B00035D127F688005C333CE33CED8F9127F80
:10304B0072600D127F51127F7B7B197D3A02315DCD
:10305B00127FC2023165127F658005C333CE33CE3A
:10306B00D8F9127F72600B127F51127F7B1231AF36
:10307B00800312317590035C127F688005C333CED9
:10308B0033CED8F9127F726011127F51127F7B7B86
:10309B00107D3A7F01128F40800B7B057D107C00E9
:1030AB007F3A127FF990035D127F688005C333CEA0
:1030BB0033CED8F9127F72600D127F51127F7B7B5A
:1030CB00197D1002315D7B057D197C007F1002316B
:1030DB0065127F658005C333CE33CED8F9127F726C
:1030EB00600B127F51127F7B1231AF80031231754F
:1030FB0090035C127F688005C333CE33CED8F912B0
:10310B007F72600B127F51127F7B1231F980031299
:10311B0031B990035D127F688005C333CE33CED8AF
:10312B00F9127F72600B127F51127F7B1232158066
:10313B00031231ED90035E127F688005C333CE33EB
:10314B00CED8F9127F72600F127F51127F7B7B19E1
:0D315B007D3A7F01028F40127FC2127FF982
:10316800227B057D077C007F10127FF9227B057D7D
:10317800087C007F10127FF9227B057D0D7C007F83
:1031880010127FF9227B057D077C007F3A127FF9B8
:10319800227B077D107F01128F40227B057D107CEA
:1031A800007F10127FF9227B087D107F01128F406B
:1031B800227B057D087C007F3A127FF9227B0D7DFA
:1031C800107F01128F40227B057D157C007F101235
:1031D8007FF9227B077D3A7F01128F40227D107F85
:1031E80001128F40227B057D197C007F10127FF928
:1031F800227B087D3A7F01128F40227B0D7F0112CE
:103208008F40227B057C007F25127FF9227B197D68
:07321800107F01128F40221C
:1095E600E4FF12A058900358E024FE60110470298D
:1095F600129620127F5174A0F0A37427800C129645
:1096060020127F5174A0F0A3742AF0E4FB7D017F41
:1096160001128F407FFF12A428227F0312A4287F05
:059626000412A425223E
:109F8700E4FF12A058900360E030E1127B017A03EE
:109F9700796012321F7B017A037960126B2212A358
:069FA700F1E4FF0299BB8A
:1016F80000000000000000000000000000000000E2
:1017080000000000000000000000000000000000D1
:10171800003E007E00FE01CE038E7F8E7F8E738E8C
:10172800738E738E7F8E7F8E01CE00FE007E003E0C
:1017380000000000020006000E001E003FFE7FFEB3
:101748007FFE3FFE1E000E000600020000000000A3
:101758000000000000400060007000787FFC7FFE01
:101768007FFE7FFC007800700060004000000000F1
:10177800000003C003C003C003C003C003C003C00C
:1017880003C03FFC1FF80FF007E003C00180000012
:1017980003C003C007E007E00E700E701C381C3849
:1017A800381C381C7FFE7FFE700E700E700E700E97
:1017B8007FF87FFC383E381E381E381E383C3FF80C
:1017C8003FF8383C381E381E381E383E7FFC7FF8FC
:1017D8000FF81FFC3C1C380E780E700E700070005D
:1017E80070007000700E700E380E3C1C1FFC0FF855
:1017F8007FF07FF07078703C703C703C70787FF0C0
:101808007FE0778073C071E070F07078703C701E74
:1018180000006006700E781E7C3E7FFE77EE73CE69
:10182800718E700E700E700E700E700E700E700E3F
:1018380000001FF81FF800E000E000E000E000E012
:1018480000E000E000E070E079E03FC01F800F009A
:1018580000000000000003C007800F001E003FFCCE
:101868003FFC1E000F00078003C0000000000000BE
:1018780000000000000003C001E000F000783FFC19
:101888003FFC007800F001E003C000000000000009
:1018980000000000018001800180018011881998F2
:1018A8001DB81FF80FF007E003C00180000000001A
:1018B800003E007E00FE01CE038E7F8E7F8E738EEB
:1018C800738E738E7F8E7F8E01CE00FE007E003E6B
:1018D800700E700E700E700E700E700E781E381C22
:1018E800381C1C381C380E700FF007E003C001804C
:1018F8000000380038003800380038003800380058
:1019080038003800380038063806380E3FFE3FFEEB
:101918000000000000000000000003800FE01C70C1
:10192800183038383838383818301C700FE00380D1
:101938000000000000000000000003C00FF01C3889
:101948001C000F0007E000F000381C380FF003C03F
:10195800000000000000000000000000000000007F
:10196800000000000000000000000000000000006F
:10197800000000000000000000000000000000005F
:10198800000000000000000000000000000000004F
:10199800000000000000000000000000000000003F
:1019A800000000000000000000000000000000002F
:1019B800000000000000000000000000000000001F
:1019C800000000000000000000000000000000000F
:1019D80000000000000000000000000000000000FF
:1019E80000000000000000000000000000000000EF
:1019F80000000000000000000000000000000000DF
:101A080000000000000000000000000000000000CE
:101A180000000000000000000000000000000000BE
:101A280000000000000000000000000000000000AE
:101A3800000000000000000000000000000000009E
:101A4800000000000000000000000000000000008E
:101A5800000000000000000000000000000000007E
:101A6800000000000000000000000000000000006E
:101A7800000000000000000000000000000000005E
:101A8800000000000000000000000000000000004E
:101A9800000000000000000000000000000000003E
:101AA800000000000000000000000000000000002E
:101AB800000000000000000000000000000000001E
:101AC800000000000000000000000000000000000E
:101AD80000000000000000000000000000000000FE
:101AE80000000000000000000000000000000000EE
:101AF80000000000000000000000000000000000DE
:101B080000000000000000000000000000000000CD
:101B1800000007000F800F800F800F80070007006C
:101B28000700020002000000020007000700020090
:101B38000000EE006600440088000000000000007D
:101B4800000000000000000000000000000000008D
:101B5800000008200820082008203FF80820082056
:101B68000820082008203FF808200820082008201E
:101B780000000FC01B603330333033001B000F00F0
:101B880003C0036013303B3033301B600FC00300C9
:101B980000003808441084200440048009001270B2
:101BA800E4880908120822084210822001C00000B7
:101BB80000000E001B00318031801B000E001C004D
:101BC8003678632061A060E0606030F01F9C000000
:101BD80000000000000000000000000000000000FD
:101BE800000000000000800060007000380018004D
:101BF8000000000400080018001000300030003019
:101C08000030003000300010001800080004000206
:101C180000008000400060002000300030003000EC
:101C280030003000300020006000400080000000DC
:101C3800000002004210222012400A800700FFFC28
:101C480007000A8012402220421002000200000011
:101C580000000000030003000300030003007FF8F6
:101C68007FF80300030003000300030000000000E6
:101C7800000000000000000000000000000000005C
:101C8800000018003C003C00180010002000400034
:101C980000000000000000000000000000007FF8C5
:101CA8007FF80000000000000000000000000000B5
:101CB800000000000000000000000000000000001C
:101CC8000000000000007800840084008400780090
:101CD800000000180030006000C00180030006000A
:101CE8000C00180030006000C000800000000000F8
:101CF80000000FE0183030183038307830D831987C
:101D0800331836183C183818301818300FE000000F
:101D18000000030007000F00030003000300030096
:101D28000300030003000300030003001FE000009A
:101D380000000FE01830301830183038007001C03B
:101D480003000E001800300830083FF83FF8000084
:101D5800000007C0183030183018003000E003C009
:101D680000E00030001830183018183007C00000A4
:101D7800000000C001C003C006C00CC018C030C0BD
:101D880060C0C0C0C0C0FFF800C000C003F00000C1
:101D980000003FF03FF030003000300037C03830EE
:101DA80030180018001830183018183007C0000014
:101DB800000007E01830303030003000300037E0E5
:101DC8003830301830183018301818300FC000006C
:101DD80000003FF83FF8201820180030006000C0CD
:101DE8000180030003000300030003000300000058
:101DF80000000780186030303030303018600FC075
:101E08001860303060186018601830300FC000005B
:101E1800000007801860303030183018301830381B
:101E2800187807980018303038301860078000009C
:101E3800000000000000000003000780030000000D
:101E480000000300078003000000000000000000FD
:101E580000000000000000000300078003000000ED
:101E680000000300078003800180070000000000D5
:101E780000000000001800600180060018006000E3
:101E88008000600018000600018000600018000053
:101E9800000000000000000000007FF87FF800004C
:101EA80000007FF87FF8000000000000000000003C
:101EB8000000800060001800060001800060001823
:101EC800000400180060018006001800600080000F
:101ED800000007800FC01CE038E038E011C0018026
:101EE80003000300020002000000020007000700D0
:101EF80000000FC030604010478888C890C890C85C
:101F080090C890C888D84770400830700FC000004B
:101F1800000003000300078007800CC00CC0186095
:101F280018601FE03030303060186018F03C000056
:101F380000003F80186018301830183018601FC033
:101F48001860183018181818181818303FC00000F2
:101F58000000078818683038601860086000600062
:101F6800600060006008601830301860078000006A
:101F780000007F8030E030383018301830183018C2
:101F88003018301830183018303030E07F800000BA
:101F980000003FF0183018101800188018801F80B3
:101FA8001880188018001800181018303FF000002A
:101FB80000003FF0183018101800188018801F8093
:101FC8001880188018001800180018003C0000003D
:101FD80000000F90187030306010601060006000D2
:101FE8006078603060306030307018F00FB00000FA
:101FF80000007878303030303030303030303FF0DA
:102008003030303030303030303030307878000098
:1020180000000FC0030003000300030003000300D7
:102028000300030003000300030003000FC00000C7
:10203800000001F000600060006000600060006067
:10204800006000603060306030E019C00F000000B0
:10205800000078F8306030C03180330036003C0032
:102068003E003300318030C030603030787C000072
:1020780000003C001800180018001800180018008C
:102088001800180018001808181818383FF8000029
:102098000000E03CE038F078F078D8D8D8D8C89874
:1020A800CD98CD98C518C718C218C018E07C000094
:1020B8000000C078E030F030F830DC30CE30C73087
:1020C800C3B0C1F0C0F0C070C030C030E0780000CC
:1020D80000000FC0387070386018601860186018F9
:1020E8006018601860186018703838700FC00000E9
:1020F80000003FC0187018381818181818381870C9
:102108001FC0180018001800180018003C00000034
:1021180000001F8070E0E070C030C030C030C030B8
:10212800C030C030C030CF30E1F070E01FEC003874
:1021380000003F8018E0187018301830187018E048
:102148001FC01B80198018C0186018303C7C000024
:1021580000000FD018703030301018000E000380C7
:1021680000E000302018301838182C3027E0000024
:1021780000007FF873386318430803000300030066
:1021880003000300030003000300030007800000AE
:102198000000787830303030303030303030303007
:1021A800303030303030303030301CE00FC000007C
:1021B8000000F0786030603060306030603060304F
:1021C80060306030306018C00D80070002000000E9
:1021D8000000C71C82088208C71847184510451018
:1021E8006DB06DB028A038E01040104010400000DD
:1021F8000000F07C6030306018C008800D80070057
:10220800020007000D8018C030606030F07C0000CC
:102218000000F03C6018303018600CC007800300E4
:10222800030003000300030003000300078000000D
:1022380000003FF8301820180030006000C001800E
:10224800030006000C001800300860187FF8000032
:102258000000001C0030006000600060006000604A
:102268000060006000600060006000600030001CDA
:1022780000008000C0006000300018000C0006005C
:102288000300018000C0006000300018000C00044A
:102298000000E000300018001800180018001800AE
:1022A8001800180018001800180018003000E00086
:1022B8000000000000000000000000000000000016
:1022C800020007000D8018C07070C01C00000000DC
:1022D80000000000000000000000000000000000F6
:1022E8000000000000000000000000000000FFFEE9
:1022F80000000E0007000180004000000000000000
:1023080000000000000000000000000000000000C5
:102318000000000000000000000000000F8030C036
