:030000000280BDBE
:0C80BD00787FE4F6D8FD7581350281045F
:108FC200D2BCD2AC758DF5D28EE47850F208F22282
:0F8FD2007850E2FF08E2B507037F00227F0122FB
:108EFE00C2AC7850E22400F8E2FF7850E204F2E2CD
:098F0E00C394504002E4F2D2AC1D
:018F17002237
:080003003099FD8F99C299228A
:030023000286EC66
:1086EC00C0E0C0D075D008309846C2987851E2FFEF
:1086FC002401FDE433FC18E27A00B50D07EAB50C51
:10870C0003E204F2EFB44F087850E27003E204F293
:10871C007850E2C394504002E4F27851E22400F81D
:10872C00E599F27851E204F2E2C394504002E4F28B
:05873C00D0D0D0E032B6
:108B1400C2AF7590F6ED7006C2B7C2B68012EDB45E
:108B24000106C2B7D2B68008EDB40204D2B7C2B609
:108B3400AF038F80D293C29378D4E2F580C291D2EE
:0E8B4400917590F6D2B6D2B77580FFD2AF22EF
:10853600AE03C2AF7590F6ED7006C2B7C2B6801232
:10854600EDB40106C2B7D2B68008EDB40204D2B7C4
:10855600C2B6AF060E8F80D293C29378A6E2FB080E
:1085660008E2F92401F218E2FA3400F2124CB3F5EB
:1085760080C291D29178A9E214F270D67590F6D2A3
:09858600B6D2B77580FFD2AF2216
:108B5200C2AF7590F6ED7006C2B7C2B68012EDB420
:108B62000106C2B7D2B68008EDB40204D2B7C2B6CB
:108B7200AF038F80D293C2937580FFC292AF80D22F
:0A8B8200927590F6D2B6D2B7D2AFCA
:018B8C0022C6
:1084800078A8EBF208EAF208E9F278A8E2FB08E241
:10849000FA08E2F9124D1DF47003E5F0F4603B7840
:1084A000A8E2FB08E2FA08E2F9124D1DFBAAF0EA85
:1084B000FDC00378A8E2FB08E2FA08E2F9900002A6
:1084C000124CCC78D4F2D003E4FF128B1478AAE2D9
:0B84D0002403F218E23400F280B02216
:0190560022F7
:105A34002562782025627820256278000A3C523E4F
:105A440025303262785B25303262785D3D25303214
:105A54006278002562782025627800256278202506
:105A640062782025627820256278200025316278CA
:105A740020253162782025316278200052656164E6
:105A84004173696342797465203D3D202562782025
:105A94000A0063682562643A25626420006368250D
:105AA40062643A2562642063682562643A2562640C
:105AB400200063682562643A256264206368256275
:105AC400643A2562642063682562643A256264202E
:105AD4000063682562643A25626420636825626411
:105AE4003A2562642063682562643A25626420630F
:105AF400682562643A256264200063682562643A1A
:105B04002562642063682562643A256264206368C0
:105B14002562643A2562642063682562643A2562DA
:105B2400642063682562643A256264200025626407
:105B340020000A203D3D3D3D3D3D3D3D2050414737
:105B4400452025623278203D3D3D3D3D3D3D3D3D76
:105B54003D3D3D3D0A002562327809000A002531A9
:105B64006278202531627820636825316278206369
:105B7400682531627820636825316278206368255E
:105B84003162782000656E726563616C6C00656ECD
:105B9400667265657A6500656E686D6972726F72AA
:105BA40000656E766D6972726F7200656E656E68FF
:105BB400616E636500656E626C616E6B00656E623A
:105BC4006F756E6400656E626C696E6B00646973F8
:105BD400726563616C6C00646973667265657A658D
:105BE40000646973686D6972726F720064697376B8
:105BF4006D6972726F7200646973656E68616E6359
:105C04006500646973626C616E6B00646973626FD2
:105C1400756E6400646973626C696E6B003D3D3D32
:105C24003D3D20466F726D6174203A206368303DBB
:105C34005B2562785D206368313D5B2562785D2079
:105C44006368323D5B2562785D206368333D5B2584
:105C540062785D203D3D3D3D3D0A0025627820256A
:105C640062782063682562783A2562782063682523
:105C740062783A2562782063682562783A256278EA
:105C84002063682562783A25627820003333002641
:105C940000280029006275737700627573720061D1
:105CA4006D697800616D757465006164756D70006F
:105CB400616761696E00616C697665006275737213
:105CC4007400766D697800766D6978657272007615
:105CD400617474720079766D697800696E69740014
:105CE4007664657400767365746600737374720009
:105CF4006873636F6D006D6F6465006469737363CB
:0E5D0400726F6C6C007665720001020408106C
:107CB70078AA74FEF2087400F20874A1F27BFE7AC7
:037CC7000079A49D
:107CCA0078A7EBF208EAF208E9F208E2FB08E2FA1E
:107CDA0008E2F9124D95124CB37002FF2278AAE21B
:107CEA00FB08E2FA08E2F9124D95124CB3B42016D9
:107CFA0078AAE2FB08E2FA08E2F9900001E475F0DA
:107D0A0001124D4880D778AAE2FB08E2FA08E2F9A4
:107D1A00124D95C003C002C00178A7E2FB08E2FA3F
:107D2A0008E2F9124DB5803578AAE2FB08E2FA08B2
:107D3A00E2F9124D95124CB3FEB4201BE4124CF931
:107D4A0078AAE2FB08E2FA08E2F9900001E475F089
:107D5A0001124D487F0122EE70037F012278AAE2C8
:107D6A00FB08E2FA08E2F9900001E475F001124D0D
:037D7A004880B589
:08888E00E2FB08E2FA08E2F93E
:0A88960078A7EBF208EAF208E9F215
:1088A000E4F531F53278A7E2FB08E2FA08E2F912C2
:1088B0004CB3602578A7E2FB0808E2F92401F2181E
:1088C000E2FA3400F2124CB3FF3395E0FEEF2532AA
:0D88D000F532EE3531F53180CCAE31AF32EE
:0188DD002278
:0F8FE1007F411200037F431200037F4B02000306
:1088DE00E4F52A7856E25403252AF52A08E25403D1
:1088EE0025E025E0252AF52A08E25403C454F02594
:1088FE002AF52A08E25403C4333354C0252AF52A34
:10890E007855E2B5070B785AE2B52A05E47865F298
:0F891E002278657401F2785AE52AF27855EFF263
:01892D002227
:10858F0078AA74FFF208745AF2087434F208E4F20D
:10859F00087400F2087427F208E4F2087400F20875
:1085AF007428F208E4F2087400F2087429F21254E5
:1085BF008BAB28AD27E4FF128B5278A6EFF27BFF2F
:1085CF007A5A794078A4E527F208E528F212511477
:0785DF000528E528B529DAA3
:0185E6002272
:108A0D0078AA74FFF208745AF2087457F208E4F267
:108A1D00087400F2087427F208E4F2087400F208F2
:108A2D007428F212548BAB28AD27E4FF128B5278C9
:108A3D00A6EFF27BFF7A5A794078A4E527F208E594
:058A4D0028F2025114A3
:108AD50078AA74FFF208745AF2087434F208E4F2C2
:108AE500087400F2087427F208E4F2087400F2082A
:108AF5007428F208E4F2087400F2087429F212549A
:0F8B05008B78D4E529F2AB28AD27E4FF028B145F
:1084DB00E4F527F528F529F52AC003C00278AA741C
:1084EB00FFF208745AF208745FF208E4F2087400A1
:1084FB00F2087427F208E4F2087400F2087428F208
:10850B0008E4F2087400F2087429F208E4F2087423
:10851B0000F208742AF2D002D00312548B78D4E5FF
:0B852B002AF2AB29AD28E4FF028B14FC
:1087E900E4F527F528F529F52A78AA74FFF2087423
:1087F9005AF2087470F208E4F2087400F208742757
:10880900F208E4F2087400F2087428F208E4F208A5
:108819007400F2087429F212548BAB29AD28E4FFD5
:10882900128B528F2A7BFF7A5A798078A4E52AF233
:03883900025114D5
:0A57230078A1EBF208EAF208E9F2BF
:10572D0078AA74FEF2087400F20874A1F27BFE7A76
:10573D000079A4127CCAE4FB7D1FFF128C6878A44B
:10574D00E2FB08E2FA08E2F9127BE7EE6003025A87
:10575D0033EF24FE605B14700302582414700302AF
:10576D0058AE14700302595C24046003025A337856
:10577D00AA74FFF208745AF2087496F208E4F2085B
:10578D007400F2087427F208E4F2087400F2087449
:10579D002CF278A1E2FB08E2FA08E2F912548BAB85
:1057AD002CAD27E4FF127E35E527905D0D93025A4F
:1057BD002B78AA74FFF208745AF20874A1F208E467
:1057CD00F2087400F2087427F208E4F2087400F28B
:1057DD0008742CF208E4F2087400F2087428F20838
:1057ED00E4F2087400F208742DF278A1E2FB08E2ED
:1057FD00FA08E2F912548BAB2CAD27E4FF127E357B
:10580D00AB2DAD28E4FF127E35E528905D0D93FF9D
:10581D00E527932F025A2B78AA74FFF208745AF2D7
:10582D000874B6F208E4F2087400F2087427F2085E
:10583D00E4F2087400F208742CF208E4F208740023
:10584D00F2087428F208E4F2087400F208742DF2DC
:10585D0008E4F2087400F2087429F208E4F20874FE
:10586D0000F208742EF278A1E2FB08E2FA08E2F9E0
:10587D0012548BAB2CAD27E4FF127E35AB2DAD282A
:10588D00E4FF127E35AB2EAD29E4FF127E35E528FF
:10589D00905D0D93FFE527932FFFE529932F025A76
:1058AD002B78AA74FFF208745AF20874D5F208E442
:1058BD00F2087400F2087427F208E4F2087400F29A
:1058CD0008742CF208E4F2087400F2087428F20847
:1058DD00E4F2087400F208742DF208E4F208740082
:1058ED00F2087429F208E4F2087400F208742EF23A
:1058FD0008E4F2087400F208742AF208E4F208745D
:10590D0000F208742FF278A1E2FB08E2FA08E2F93E
:10591D0012548BAB2CAD27E4FF127E35AB2DAD2889
:10592D00E4FF127E35AB2EAD29E4FF127E35AB2F91
:10593D00AD2AE4FF127E35E528905D0D93FFE52736
:10594D00932FFFE529932FFFE52A932F025A2B78EA
:10595D00AA74FFF208745AF20874FEF208E4F20811
:10596D007400F2087427F208E4F2087400F2087467
:10597D002CF208E4F2087400F2087428F208E4F23C
:10598D00087400F208742DF208E4F2087400F208AD
:10599D007429F208E4F2087400F208742EF208E497
:1059AD00F2087400F208742AF208E4F2087400F2A6
:1059BD0008742FF208E4F2087400F208742BF20850
:1059CD00E4F2087400F2087430F278A1E2FB08E208
:1059DD00FA08E2F912548BAB2CAD27E4FF127E3599
:1059ED00AB2DAD28E4FF127E35AB2EAD29E4FF12B1
:1059FD007E35AB2FAD2AE4FF127E35AB30AD2BE4F7
:105A0D00FF127E35E528905D0D93FFE527932FFF5F
:105A1D00E529932FFFE52A932FFFE52B932FFD7B90
:065A2D0001E4FF128C6889
:015A33002250
:0F8FF000E4FB7D1FFF128C687DFFE4FF028D7B89
:0A5FEB0078A1EBF208EAF208E9F2EF
:105FF50078AA74FEF2087400F20874A1F27BFE7AA6
:106005000079A4127CCA78A4E2FB08E2FA08E2F956
:10601500127BE7EE6003026287EF24FE6050147086
:10602500030260C914700302613E1470030261D259
:106035002404600302628778AA74FFF208745AF296
:10604500087496F208E4F2087400F2087427F2085E
:10605500E4F2087400F208742CF278A1E2FB08E27D
:10606500FA08E2F912548BAB2CAD2702628278AAAA
:1060750074FFF208745AF20874A1F208E4F2087485
:1060850000F2087427F208E4F2087400F208742C90
:10609500F208E4F2087400F2087428F208E4F20841
:1060A5007400F208742DF278A1E2FB08E2FA08E226
:1060B500F912548BAB2CAD27E4FF127EE6AB2DAD68
:1060C5002802628278AA74FFF208745AF20874B63C
:1060D500F208E4F2087400F2087427F208E4F20802
:1060E5007400F208742CF208E4F2087400F20874E3
:1060F50028F208E4F2087400F208742DF208E4F2BC
:10610500087400F2087429F208E4F2087400F20831
:10611500742EF278A1E2FB08E2FA08E2F912548B38
:10612500AB2CAD27E4FF127EE6AB2DAD28E4FF12C4
:106135007EE6AB2EAD2902628278AA74FFF208745E
:106145005AF20874D5F208E4F2087400F2087427CC
:10615500F208E4F2087400F208742CF208E4F2087C
:106165007400F2087428F208E4F2087400F2087466
:106175002DF208E4F2087400F2087429F208E4F23A
:10618500087400F208742EF208E4F2087400F208AC
:10619500742AF208E4F2087400F208742FF278A168
:1061A500E2FB08E2FA08E2F912548BAB2CAD27E4C6
:1061B500FF127EE6AB2DAD28E4FF127EE6AB2EADD9
:1061C50029E4FF127EE6AB2FAD2A02628278AA741B
:1061D500FFF208745AF20874FEF208E4F20874003B
:1061E500F2087427F208E4F2087400F208742CF23D
:1061F50008E4F2087400F2087428F208E4F208745E
:1062050000F208742DF208E4F2087400F20874290B
:10621500F208E4F2087400F208742EF208E4F208B9
:106225007400F208742AF208E4F2087400F20874A3
:106235002FF208E4F2087400F208742BF208E4F275
:10624500087400F2087430F278A1E2FB08E2FA085B
:10625500E2F912548BAB2CAD27E4FF127EE6AB2D91
:10626500AD28E4FF127EE6AB2EAD29E4FF127EE6F3
:10627500AB2FAD2AE4FF127EE6AB30AD2BE4FF1267
:026285007EE6B3
:0162870022F4
:108E430078AA74FFF208745BF2087431F208E4F252
:108E5300087400F2087427F212548BAD27E4FF0262
:028E63008D7B05
:10897D00E4F5287BFF7A5B793678A4E528F212516D
:10898D0014E4F527AB27AD28E4FF128B5278A4EF42
:10899D00F27BFF7A5B795A1251140527E527540FA4
:1089AD0070097BFF7A5B7960125114E52770D5054C
:0889BD0028E528C3940340BB28
:0189C500228F
:0A81CD00789BE2FB08E2FA08E2F9F1
:1081D700C003C002C00178AA74FFF208745BF208FA
:1081E7007462F208E4F2087400F2087427F208E4F3
:1081F700F2087400F2087428F20874FEF20874009A
:10820700F2087456F20874FEF2087400F208745704
:10821700F20874FEF2087400F2087458F20874FE4B
:10822700F2087400F2087459F2D001D002D0031298
:10823700548BE527C454F0FFE528540F2FF5277B0F
:09824700FE7A007956FF0266BAC6
:0A6AC70078A1EBF208EAF208E9F208
:106AD100E4F52F127CB778A4E2FB08E2FA08E2F9A8
:106AE100127BE78F30127CB778A412888E8E278FA5
:106AF100287BFF7A5B7989128896EFB5280AEEB573
:106B01002706752980026BA27BFF7A5B7992128836
:106B110096EFB5280AEEB52706752940026BA27BD0
:106B2100FF7A5B799B128896EFB52809EEB52705A8
:106B3100752920806C7BFF7A5B79A5128896EFB569
:106B41002809EEB5270575291080567BFF7A5B79F8
:106B5100AF128896EFB52809EEB52705752908808B
:106B6100407BFF7A5B79B9128896EFB52809EEB5BB
:106B71002705752904802A7BFF7A5B79C1128896E3
:106B8100EFB52809EEB5270575290280147BFF7A38
:106B91005B79C9128896EFB5280DEEB527097529DD
:106BA10001752A01026C5E7BFF7A5B79D1128896AE
:106BB100EFB5280AEEB52706752980026C417BFFE7
:106BC1007A5B79DB128896EFB52809EEB527057552
:106BD1002940806C7BFF7A5B79E5128896EFB528B6
:106BE10009EEB5270575292080567BFF7A5B79F080
:106BF100128896EFB52809EEB52705752910804052
:106C01007BFF7A5B79FB128896EFB52809EEB527F1
:106C110005752908802A7BFF7A5C7906128896EF30
:106C2100B52809EEB5270575290480147BFF7A5C28
:106C3100790F128896EFB5280CEEB5270875290251
:106C4100E4F52A80187BFF7A5C7918128896EF6543
:106C5100287003EE6527705B752901F52A127CB750
:106C6100EF603778A4E2FB08E2FA08E2F9124CB3CC
:106C7100B477EA900001124CCCB469E190000212A1
:106C81004CCCB46ED8E92403F9E43AFA127BE774E8
:106C91002B252FF8A607052F80C3E52F6015242A81
:106CA100F8E6FFC395305007AB2AAD2912863E1591
:036CB1002F80E74A
:016CB40022BD
:108E870078AA74FFF208745BF2087431F208E4F20E
:108E9700087400F2087427F212548BAF27028F74FC
:108C3500E4FF128EA7C0077F01128EA7C0077F022F
:108C4500128EA7C0077F03128EA778A7EFF218D060
:108C5500E0F218D0E0F218D0E0F27BFF7A5C7921DF
:038C6500025114A5
:0A64AE0078A1EBF208EAF208E9F227
:1064B80078AA74FEF2087400F20874A1F27BFE7ADE
:1064C8000079A4127CCA78A4E2FB08E2FA08E2F98F
:1064D800127BE7EE60030266B9EF24FE604E14708B
:1064E80003026592147003026613240360030266B4
:1064F800B978AA74FFF208745AF2087496F208E49C
:10650800F2087400F2087427F208E4F2087400F242
:1065180008742BF278A1E2FB08E2FA08E2F91254B7
:106528008BE52BC454F0FBAD270266B478AA74FF40
:10653800F208745AF20874A1F208E4F2087400F23E
:10654800087427F208E4F2087400F208742BF208C1
:10655800E4F2087400F2087428F208E4F2087400FF
:10656800F208742CF278A1E2FB08E2FA08E2F912C8
:10657800548BE52BC454F0FBAD27E4FF128D26E5C0
:106588002CC454F0FBAD280266B478AA74FFF20854
:10659800745AF20874B6F208E4F2087400F2087447
:1065A80027F208E4F2087400F208742BF208E4F207
:1065B800087400F2087428F208E4F2087400F2087B
:1065C800742CF208E4F2087400F2087429F208E462
:1065D800F2087400F208742DF278A1E2FB08E2FADE
:1065E80008E2F912548BE52BC454F0FBAD27E4FF05
:1065F800128D26E52CC454F0FBAD28E4FF128D263D
:10660800E52DC454F0FBAD290266B478AA74FFF2F4
:1066180008745AF20874D5F208E4F2087400F20813
:106628007427F208E4F2087400F208742BF208E404
:10663800F2087400F2087428F208E4F2087400F210
:1066480008742CF208E4F2087400F2087429F208BD
:10665800E4F2087400F208742DF208E4F2087400F9
:10666800F208742AF208E4F2087400F208742EF2B0
:1066780078A1E2FB08E2FA08E2F912548BE52BC490
:1066880054F0FBAD27E4FF128D26E52CC454F0FB33
:10669800AD28E4FF128D26E52DC454F0FBAD29E4A6
:1066A800FF128D26E52EC454F0FBAD2AE4FF128DAF
:0166B80026BB
:0166B90022BE
:0A81490078A1EBF208EAF208E9F26F
:1081530078AA74FEF2087400F20874A1F27BFE7A26
:108163000079A4127CCA78A4E2FB08E2FA08E2F9D7
:10817300127BE78F2778AA74FEF2087400F2087462
:10818300A1F27BFE7A0079A4127CCA78A4E2FB08F0
:10819300E2FA08E2F9127BE78F287F041290507FFE
:1081A300031290537F05128DCF78A1E2F908E2FA0A
:1081B30008E278AAC9F208EAF208E9F2AB28AD2787
:0A81C3007F01127D7D7F050289C651
:108B8D00752601E4F525745B2525F8E230E40F74B4
:108B9D00562525F8E2FDE4FF128D7BE4F52605252B
:108BAD00E525C3940440DFE526600FE4FB7D1FFF40
:0A8BBD00128C687DFFE4FF128D7B2F
:018BC700228B
:10706900C003C002C00178AA74FFF208745CF20878
:10707900745FF208E4F2087400F2087428F208E474
:10708900F2087400F2087429F20874FEF208740018
:10709900F2087456F20874FEF2087400F208745B80
:1070A900F20874FEF2087400F2087457F20874FECC
:1070B900F2087400F208745CF20874FEF2087400B5
:1070C900F2087458F20874FEF2087400F208745D4C
:1070D900F20874FEF2087400F2087459F20874FE9A
:1070E900F2087400F208745EF2D001D002D00312E3
:1070F900548BE528C454F0FF7852E2FEC43333338D
:1071090054802FFFE529540F2F7864F2785BE2FF52
:107119007856E2245FF8EFF2785CE2FF7857E224D0
:107129005FF8EFF2785DE2FF7858E2245FF8EFF25A
:10713900785EE2FF7859E2245FF8EFF2785FE25473
:1071490001FB7D20E4FF1286957860E25401FB7D06
:10715900207F011286957861E25401FB7D207F0230
:107169001286957862E25401FB7D207F0312869591
:107179007BFE7A00795F1274F27864E2FF78A57475
:10718900FEF2087400F208745BF27BFE7A0079560D
:1071990012447D7864E2FF7BFE7A0079561266BA62
:1071A900128250E4F527745B2527F8E25401FB7D30
:1071B90020AF2712863E0527E527C3940440E7E45C
:1071C900F510F511F5127513057F011290217864F8
:1071D900E2FF1288DE7F08128E1DE4FF128F18125B
:0B71E9008C9B7BFE7A00795B022D720C
:1082CF007F03128EA77852E26F606B7F03128EA727
:1082DF007852EFF2E2C43333335480FF7855E254CF
:1082EF007F4FF27F011289C67852E2FF1280237B03
:1082FF00FE7A00795F1274F27855E2FF78A574FE6A
:10830F00F2087400F208745BF27BFE7A0079561261
:10831F00447D7855E2FF7BFE7A0079561266BA12D9
:10832F008250E4FF128F18128C9B7BFE7A00795BD0
:07833F00122D72128CCB22FB
:108EE20078AA74FFF208745BF2087431F20874FE17
:0C8EF200F2087400F2087453F202548B72
:059038007F010289C662
:108F9C00905C90E493FF120003905C90A3E493FF29
:038FAC00020003BD
:0A5D1200789BEBF208EAF208E9F2D0
:105D1C0078AA74FEF2087400F208749BF27BFE7A87
:105D2C0000799E127CCA789E12888E8E258F267BD7
:105D3C00FF7A5C7993128896EFB52614EEB5251090
:105D4C00789BE2FB08E2FA08E2F912858F025FE821
:105D5C007BFF7A5C7995128896EFB52614EEB52503
:105D6C0010789BE2FB08E2FA08E2F9128A0D025F56
:105D7C00E87BFF7A5C7997128896EFB52614EEB51E
:105D8C002510789BE2FB08E2FA08E2F9128AD502A8
:105D9C005FE87BFF7A5C7999128896EFB52614EE52
:105DAC00B52510789BE2FB08E2FA08E2F91284DBD5
:105DBC00025FE87BFF7A5C799E128896EFB5261419
:105DCC00EEB52510789BE2FB08E2FA08E2F912879F
:105DDC00E9025FE87BFF7A5C79A3128896EFB5261F
:105DEC0014EEB52510789BE2FB08E2FA08E2F912F2
:105DFC005723025FE87BFF7A5C79A8128896EFB58F
:105E0C00260AEEB52506128FF0025FE87BFF7A5C5E
:105E1C0079AE128896EFB5260AEEB5250612628881
:105E2C00025FE87BFF7A5C79B4128896EFB5261492
:105E3C00EEB52510789BE2FB08E2FA08E2F9125F56
:105E4C00EB025FE87BFF7A5C79BA128896EFB52695
:105E5C0014EEB52510789BE2FB08E2FA08E2F91281
:105E6C008E43025FE87BFF7A5C79C0128896EFB5AF
:105E7C00260AEEB5250612897D025FE87BFF7A5C67
:105E8C0079C6128896EFB52612EEB5250E7F401214
:105E9C0084221281CD128FE1025FE87BFF7A5C795C
:105EAC00CB128896EFB5260AEEB525061281CD02E7
:105EBC005FE87BFF7A5C79D3128896EFB52614EEF7
:105ECC00B52510789BE2FB08E2FA08E2F9126AC7E2
:105EDC00025FE87BFF7A5C79D9128896EFB52617BA
:105EEC00EEB52513128FE1789BE2FB08E2FA08E28B
:105EFC00F9128E87025FE87BFF7A5C79DF12889655
:105F0C00EFB5260AEEB52506128BC8025FE87BFFBB
:105F1C007A5C79E4128896EFB5260AEEB52506125E
:105F2C008C35025FE87BFF7A5C79E9128896EFB5D5
:105F3C002614EEB52510789BE2FB08E2FA08E2F98C
:105F4C001264AE025FE87BFF7A5C79EF128896EF01
:105F5C00B52613EEB5250F789BE2FB08E2FA08E2B2
:105F6C00F912814980767BFF7A5C79F4128896EF7E
:105F7C00B52616EEB52512128FE1789BE2FB08E2EE
:105F8C00FA08E2F912706980537BFF7A5C79FA1295
:105F9C008896EFB52616EEB52512128FE1789BE2A6
:105FAC00FB08E2FA08E2F9128EE280307BFF7A5CA1
:105FBC0079FF128896EFB5260CEEB52508128FE105
:105FCC0012903880177BFF7A5D7909128896EFB5AD
:0E5FDC00260AEEB52506128FE1128F9C7F017A
:015FEA002294
:108F31000D0A0044656275672050726F6772616D3A
:078F4100203E0050435400E4
:10883C00128FD2EF640170497895E27044128EFE6B
:10884C008F25300003120003E52524F8601F24FB5C
:10885C0070217894E2246BF8E4F2789504F27BFEB4
:10886C007A00796B128D513000170290187894E2CF
:10887C0014F2227894E2246BF8E525F27894E20461
:01888C00F2F9
:01888D0022C8
:099018007BFF7A8F7931028DA5EE
:0A8BFF00789BEBF208EAF208E9F2B5
:108C0900789BE2FB08E2FA08E2F9124CB3601C789F
:108C19009BE2FB0808E2F92401F218E2FA3400F2B7
:0B8C2900124CB3F525FF12000380D5AC
:018C3400221D
:108F48003000097BFF7A8F7934128BFFE47894F232
:068F580008F2786BF22222
:09902100EF6003C20122D201221A
:05903D00C200C2012287
:108D5100789BEBF208EAF208E9F220001C789BE22A
:108D6100FB08E2FA08E2F8AC02AD037BFF7A8F79E7
:0A8D710044124FB2EF7002D200224C
:1083B500E4789AF2128EC512903D129056128BC82F
:1083C500128F4812883C7895E2B401097BFE7A0049
:1083D500796B125D127895E2B40103128F4812820F
:1083E500CF128FD2EF600675120075130AE513647C
:1083F5000145127015128B8D128CCBE4FF12902162
:10840500E4F512F513F510751132E5116401451007
:0D84150070B1128CF975100075113280A63F
:108EC500E4F5B8F5A8F587F5D0758921F588759885
:0D8ED50052128FC2128F5ED299D2AF0022CE
:100026001010FFFFFFFFFFFFFFFFFFFFFFFFFFFFB8
:10003600FFFFFFFFFFFFFFFFFFFFFFFFFFFFFFFFCA
:10004600FFFFFFFFFFFFFFFFFFFFFFFFFFFFFFFFBA
:10005600FFFFFFFFFFFFFFFFFFFFFFFFFFFFFFFFAA
:10006600FFFFFFFFFFFFFFFFFFFFFFFFFFFFFFFF9A
:10007600FFFFFFFFFFFFFFFFFFFFFFFFFFFFFFFF8A
:10008600FFFFFFFFFFFFFFFFFFFFFFFFFFFFFFFF7A
:10009600FFFFFFFFFFFFFFFFFFFFFFFFFFFFFFFF6A
:1000A600FFFFFFFFFFFFFFFFFFFFFFFFFFFFFFFF5A
:1000B600FFFFFFFFFFFFFFFFFFFFFFFFFFFFFFFF4A
:1000C600FFFFFFFFFFFFFFFFFFFFFFFFFFFFFFFF3A
:1000D600FFFFFFFFFFFFFFFFFFFFFFFFFFFFFFFF2A
:1000E600FFFFFFFFFFFFFFFFFFFFFFFFFFFFFFFF1A
:1000F600FFFFFFFFFFFFFFFFFFFFFFFFFFFFFFFF0A
:10010600FFFFFFFFFFFFFFFFFFFFFFFFFFFFFFFFF9
:10011600FFFFFFFFFFFFFFFFFFFFFFFFFFFFFFFFE9
:10012600FFFF1010FFFFFFFFFFFFFFFFFFFFFFFFB7
:10013600FFFFFFFFFFFFFFFFFFFFFFFFFFFFFFFFC9
:10014600FFFFFFFFFFFFFFFFFFFFFFFFFFFFFFFFB9
:10015600FFFFFFFFFFFFFFFFFFFFFFFFFFFFFFFFA9
:10016600FFFFFFFFFFFFFFFFFFFFFFFFFFFFFFFF99
:10017600FFFFFFFFFFFFFFFFFFFFFFFFFFFFFFFF89
:10018600FFFFFFFFFFFFFFFFFFFFFFFFFFFFFFFF79
:10019600FFFFFFFFFFFFFFFFFFFFFFFFFFFFFFFF69
:1001A600FFFFFFFFFFFFFFFFFFFFFFFFFFFFFFFF59
:1001B600FFFFFFFFFFFFFFFFFFFFFFFFFFFFFFFF49
:1001C600FFFFFFFFFFFFFFFFFFFFFFFFFFFFFFFF39
:1001D600FFFFFFFFFFFFFFFFFFFFFFFFFFFFFFFF29
:1001E600FFFFFFFFFFFFFFFFFFFFFFFFFFFFFFFF19
:1001F600FFFFFFFFFFFFFFFFFFFFFFFFFFFFFFFF09
:10020600FFFFFFFFFFFFFFFFFFFFFFFFFFFFFFFFF8
:10021600FFFFFFFFFFFFFFFFFFFFFFFFFFFFFFFFE8
:10022600FFFFFFFF1010FFFFFFFFFFFFFFFFFFFFB6
:10023600FFFFFFFFFFFFFFFFFFFFFFFFFFFFFFFFC8
:10024600FFFFFFFFFFFFFFFFFFFFFFFFFFFFFFFFB8
:10025600FFFFFFFFFFFFFFFFFFFFFFFFFFFFFFFFA8
:10026600FFFFFFFFFFFFFFFFFFFFFFFFFFFFFFFF98
:10027600FFFFFFFFFFFFFFFFFFFFFFFFFFFFFFFF88
:10028600FFFFFFFFFFFFFFFFFFFFFFFFFFFFFFFF78
:10029600FFFFFFFFFFFFFFFFFFFFFFFFFFFFFFFF68
:1002A600FFFFFFFFFFFFFFFFFFFFFFFFFFFFFFFF58
:1002B600FFFFFFFFFFFFFFFFFFFFFFFFFFFFFFFF48
:1002C600FFFFFFFFFFFFFFFFFFFFFFFFFFFFFFFF38
:1002D600FFFFFFFFFFFFFFFFFFFFFFFFFFFFFFFF28
:1002E600FFFFFFFFFFFFFFFFFFFFFFFFFFFFFFFF18
:1002F600FFFFFFFFFFFFFFFFFFFFFFFFFFFFFFFF08
:10030600FFFFFFFFFFFFFFFFFFFFFFFFFFFFFFFFF7
:10031600FFFFFFFFFFFFFFFFFFFFFFFFFFFFFFFFE7
:10032600FFFFFFFFFFFF1010FFFFFFFFFFFFFFFFB5
:10033600FFFFFFFFFFFFFFFFFFFFFFFFFFFFFFFFC7
:10034600FFFFFFFFFFFFFFFFFFFFFFFFFFFFFFFFB7
:10035600FFFFFFFFFFFFFFFFFFFFFFFFFFFFFFFFA7
:10036600FFFFFFFFFFFFFFFFFFFFFFFFFFFFFFFF97
:10037600FFFFFFFFFFFFFFFFFFFFFFFFFFFFFFFF87
:10038600FFFFFFFFFFFFFFFFFFFFFFFFFFFFFFFF77
:10039600FFFFFFFFFFFFFFFFFFFFFFFFFFFFFFFF67
:1003A600FFFFFFFFFFFFFFFFFFFFFFFFFFFFFFFF57
:1003B600FFFFFFFFFFFFFFFFFFFFFFFFFFFFFFFF47
:1003C600FFFFFFFFFFFFFFFFFFFFFFFFFFFFFFFF37
:1003D600FFFFFFFFFFFFFFFFFFFFFFFFFFFFFFFF27
:1003E600FFFFFFFFFFFFFFFFFFFFFFFFFFFFFFFF17
:1003F600FFFFFFFFFFFFFFFFFFFFFFFFFFFFFFFF07
:10040600FFFFFFFFFFFFFFFFFFFFFFFFFFFFFFFFF6
:10041600FFFFFFFFFFFFFFFFFFFFFFFFFFFFFFFFE6
:10042600FFFFFFFFFFFFFFFF1010FFFFFFFFFFFFB4
:10043600FFFFFFFFFFFFFFFFFFFFFFFFFFFFFFFFC6
:10044600FFFFFFFFFFFFFFFFFFFFFFFFFFFFFFFFB6
:10045600FFFFFFFFFFFFFFFFFFFFFFFFFFFFFFFFA6
:10046600FFFFFFFFFFFFFFFFFFFFFFFFFFFFFFFF96
:10047600FFFFFFFFFFFFFFFFFFFFFFFFFFFFFFFF86
:10048600FFFFFFFFFFFFFFFFFFFFFFFFFFFFFFFF76
:10049600FFFFFFFFFFFFFFFFFFFFFFFFFFFFFFFF66
:1004A600FFFFFFFFFFFFFFFFFFFFFFFFFFFFFFFF56
:1004B600FFFFFFFFFFFFFFFFFFFFFFFFFFFFFFFF46
:1004C600FFFFFFFFFFFFFFFFFFFFFFFFFFFFFFFF36
:1004D600FFFFFFFFFFFFFFFFFFFFFFFFFFFFFFFF26
:1004E600FFFFFFFFFFFFFFFFFFFFFFFFFFFFFFFF16
:1004F600FFFFFFFFFFFFFFFFFFFFFFFFFFFFFFFF06
:10050600FFFFFFFFFFFFFFFFFFFFFFFFFFFFFFFFF5
:10051600FFFFFFFFFFFFFFFFFFFFFFFFFFFFFFFFE5
:10052600FFFFFFFFFFFFFFFFFFFF1010FFFFFFFFB3
:10053600FFFF00000000FFFFFFFFFFFFFFFFFFFFC1
:10054600FF000000000000FFFFFFFFFFFFFFFFFFAF
:100556000000020202020000FFFFFFFFFFFFFFFF95
:100566000000020202020000FFFFFFFFFFFFFF0084
:10057600000202000002020000FFFFFFFFFFFF0073
:10058600000202000002020000FFFFFFFFFF000062
:1005960002020000000002020000FFFFFFFF000051
:1005A600020200FFFF0002020000FFFFFF00000240
:1005B600020000FFFF000002020000FFFF00000231
:1005C6000200000000000002020000FF000002021C
:1005D60002020202020202020202000000000202FD
:1005E60002020202020202020202000000000202ED
:1005F60000000000000000000202000000000202ED
:100606000000FFFFFFFF00000202000000000202E0
:100616000000FFFFFFFF00000202000000000000D4
:100626000000FFFFFFFF00000000000010100000A8
:10063600000000000000000000000000FFFF0002B4
:1006460002020202020202020202000000FF00028F
:10065600020202020202020202020200000000007E
:100666000002020000000000020202020000FF0079
:1006760000020200FFFFFF00000202020000FF006E
:1006860000020200FFFFFF00000202020000FF005E
:1006960000020200000000000202020000FFFF004C
:1006A600000202020202020202020000FFFFFF0035
:1006B600000202020202020202020000FFFFFF0025
:1006C60000020200000000000202020000FFFF001C
:1006D60000020200FFFFFF00000202020000FF000E
:1006E60000020200FFFFFF000002020200000000FD
:1006F60000020200000000000202020200000002E6
:1007060002020202020202020202020000000002CB
:1007160002020202020202020202000000FF0000C0
:10072600000000000000000000000000FFFF1010A5
:10073600FFFFFF00000000000000000000FFFFFFB9
:10074600FFFF00000202020202020202000000FF96
:10075600FF00000202020202020202020200000080
:100766000000000202000000000000020202000079
:1007760000000202020000FFFFFF0000020200006C
:10078600000002020000FFFFFFFFFF000202000060
:10079600000002020000FFFFFFFFFFFF0000000055
:1007A600000002020000FFFFFFFFFFFFFFFFFFFF49
:1007B600000002020000FFFFFFFFFFFFFFFFFFFF39
:1007C600000002020000FFFFFFFFFF000000000024
:1007D600000002020000FFFFFFFFFF000202000010
:1007E60000000202000000FFFFFF000002020000FE
:1007F60000000202020000000000000202020000E7
:10080600FF000002020202020202020202000000CF
:10081600FFFF00000202020202020202000000FFC5
:10082600FFFFFF0000000000000000000000FFFFC7
:100836001010000000000000000000000000FFFF94
:10084600FFFF00000202020202020202020000FF93
:10085600FFFF000002020202020202020202000080
:10086600FFFF00000202000000000002020200007A
:10087600FFFF000002020000FFFF0000020200006E
:10088600FFFF000002020000FFFF0000020200005E
:10089600FFFF00000202000000000002020200004A
:1008A600FFFF00000202020202020202020000FF33
:1008B600FFFF00000202020202020202000000FF25
:1008C600FFFF000002020000020202000000FFFF1C
:1008D600FFFF000002020000000202020000FFFF0C
:1008E600FFFF00000202000000000202020000FFFB
:1008F600FFFF000002020000FF00000202020000EB
:10090600FFFF000002020000FFFF000002020200DB
:1009160000FF000002020000FFFFFF0000020202CB
:1009260000FF000000000000FFFFFFFF00000000C6
:1009360000FF101000000000FFFFFFFFFFFFFFFF9A
:10094600000000000000000000FFFFFFFFFFFF00A7
:100956000000000000000C0C0000FFFFFFFF00007D
:100966000C0C000000000C0C0C0000000000000C39
:100976000C0C000000000C0C0C0C000000000C0C11
:100986000C0C000000000C0C0C0C0C0C0C0C0C0CD1
:100996000C0C000000000C0C0C0C0C0C0C0C0C0CC1
:1009A6000C0C000000000C0C0C000C0C0C0C000CC9
:1009B6000C0C000000000C0C0C00000C0C00000CD1
:1009C6000C0C000000000C0C0C0000000000000CD9
:1009D6000C0C000000000C0C0C0000000000000CC9
:1009E6000C0C000000000C0C0C0000FFFF00000CBB
:1009F6000C0C000000000C0C0C0000FFFF00000CAB
:100A06000C0C000000000C0C0C0000FFFF00000C9A
:100A16000C0C000000000C0C0C0000FFFF00000C8A
:100A26000C0C000000000000000000FFFF000000AA
:100A3600000000001010FF00000000000000000091
:100A46000000000000FFFF00000202020202020294
:100A56000202020000FFFF0000020202020202027E
:100A66000202020000FFFF00000000000000020278
:100A76000200000000FFFFFFFFFFFFFF0000020271
:100A8600020000FFFFFFFFFFFFFFFFFF0000020263
:100A9600020000FFFFFFFFFFFFFFFFFF0000020253
:100AA600020000FFFFFFFFFFFFFFFFFF0000020243
:100AB600020000FFFFFFFFFFFFFFFFFF0000020233
:100AC600020000FFFFFFFFFFFFFFFFFF0000020223
:100AD600020000FFFFFFFF00000000FF000002020F
:100AE600020000FFFFFFFF000202000000000202FA
:100AF600020000FFFFFFFF000202020000020202E6
:100B0600020000FFFFFFFF000002020202020202D3
:100B1600000000FFFFFFFFFF0000020202020200CA
:100B26000000FFFFFFFFFFFFFF00000000000000C6
:100B360000FFFFFFFFFF1010FFFFFFFFFFFFFFFF9C
:100B4600FFFFFFFFFFFFFFFFFFFFFFFFFF000000AC
:100B560000000000FFFFFFFFFFFFFFFF0000010195
:100B660001010000FFFFFFFFFFFFFF000001010181
:100B760001010000FFFFFFFFFFFF0000010101016F
:100B8600010000FFFFFFFFFFFF000001010101015F
:100B96000000000000000000000001010101010149
:100BA6000101010101010000000101010101010132
:100BB6000101010101010000000101010101010122
:100BC6000101010101010000000001010101010113
:100BD6000101010101010000FF0000010101010105
:100BE6000000000000000000FFFF000001010101FD
:100BF600010000FFFFFFFFFFFFFFFF0000010101F3
:100C060001010000FFFFFFFFFFFFFFFF00000101E2
:100C160001010000FFFFFFFFFFFFFFFFFF000000D5
:100C260000000000FFFFFFFFFFFFFFFFFFFFFFFFCA
:100C3600FFFFFFFFFFFFFFFF1010FFFFFFFFFFFF9C
:100C4600FFFFFFFFFFFFFFFFFFFFFFFFFFFF0000AC
:100C56000000000000FFFFFFFFFFFFFFFFFF000097
:100C6600010101010000FFFFFFFFFFFFFFFF000082
:100C760001010101010000FFFFFFFFFFFFFFFF0071
:100C86000001010101010000FFFF0000000000005B
:100C9600000001010101010000FF00000101010146
:100CA6000101010101010101000000000101010132
:100CB6000101010101010101010000000101010121
:100CC6000101010101010101010000000000000015
:100CD600000001010101010000FF0000000000000A
:100CE600000001010101010000FFFFFFFFFFFF00FF
:100CF6000001010101010000FFFFFFFFFFFF0000EF
:100D060001010101010000FFFFFFFFFFFFFF0000DF
:100D1600010101010000FFFFFFFFFFFFFFFF0000D1
:100D26000000000000FFFFFFFFFFFFFFFFFFFFFFC8
:100D3600FFFFFFFFFFFFFFFFFFFF1010FFFFFFFF9B
:100D46000000000000000000FFFFFFFFFFFFFFFFA5
:100D56000000010101010000FFFFFFFFFFFFFFFF91
:100D66000000010101010000FFFFFFFFFFFFFFFF81
:100D76000000010101010000FFFFFFFFFFFFFFFF71
:100D86000000010101010000FFFFFFFF000000005D
:100D96000000010101010000000000000000010147
:100DA6000000010101010000010100000000010135
:100DB6000100010101010001010100000000010123
:100DC6000101010101010101010100000000010111
:100DD600010101010101010101010000FF00000103
:100DE6000101010101010101010000FFFFFF0000F7
:100DF60001010101010101010000FFFFFFFFFF00EA
:100E0600000101010101010000FFFFFFFFFFFFFFDD
:100E16000000010101010000FFFFFFFFFFFFFFFFD0
:100E2600FF000001010000FFFFFFFFFFFFFFFFFFC4
:100E3600FFFF00000000FFFFFFFFFFFF1010FFFF96
:100E4600FFFFFFFFFFFF0000000000000000FFFFA4
:100E5600FFFFFFFFFF000002020202020000FFFF89
:100E6600FFFFFFFF00000202020202020000FFFF76
:100E7600FFFFFF0000020202000002020000000065
:100E86000000000002020200000002020000000052
:100E96000202020202020200FF000202000000003B
:100EA6000202020202020200FF000202000000002B
:100EB6000202000000020200FF0002020000000021
:100EC600020200FF00020200FF0002020000000012
:100ED6000202000000020200FF0002020000000001
:100EE6000202020202020200FF00020200000000EB
:100EF60002020202020202000000020200000000DA
:100F06000000000000020202000002020000FFFFD3
:100F1600FFFFFFFF00000202020202020000FFFFC5
:100F2600FFFFFFFFFF000002020202020000FFFFB8
:100F3600FFFFFFFFFFFF0000000000000000101091
:100F46000000000000FFFFFFFFFFFF0000000000A1
:100F56000001010100FFFFFFFFFFFF00010101008B
:100F66000001010100FFFFFFFFFFFF00010101007B
:100F76000001010100FFFFFFFFFFFF00010101006B
:100F86000001010100FFFFFFFFFFFF00010101005B
:100F9600000101010000FFFFFFFF00000101010049
:100FA600000101010100FFFFFFFF00010101010037
:100FB600000001010100FFFFFFFF00010101000029
:100FC60000000101010000FFFF0000010101000017
:100FD600FF0000010101000000000101010000FF07
:100FE600FFFF000001010100000101010000FFFFF9
:100FF600FFFF000000010100000101000000FFFFEB
:10100600FFFFFF00000101010101010000FFFFFFDA
:10101600FFFFFFFF0000010101010000FFFFFFFFCE
:10102600FFFFFFFFFF00000101000000FFFFFFFFC1
:10103600FFFFFFFFFFFF0000000000FFFFFFFFFFB5
:10104600101000000000000000FFFFFFFFFFFFFF81
:10105600FFFF00000101010000FFFFFFFFFFFFFF90
:10106600FFFF00000101010000FFFFFFFFFFFFFF80
:10107600FFFF00000101010000FFFFFFFFFFFFFF70
:10108600FFFF00000101010000FFFFFFFFFFFFFF60
:10109600FFFF00000101010000FFFFFFFFFFFFFF50
:1010A600FFFF00000101010000FFFFFFFFFFFFFF40
:1010B600FFFF00000101010000FFFFFFFFFFFFFF30
:1010C600FFFF00000101010000FFFFFFFFFFFFFF20
:1010D600FFFF00000101010000FFFFFFFFFF00000E
:1010E600000000000101010000FFFFFFFFFF0000FC
:1010F600000000000101010000FFFFFFFF000001EA
:1011060000000000010101000000000000000101D4
:1011160000000000010101010101010101010101BD
:1011260000000000010101010101010101010101AD
:1011360000000000000000000000000000000000A9
:1011460000001010FFFFFFFFFFFFFFFFFFFFFFFF85
:10115600FFFFFFFFFFFFFFFFFFFFFFFFFFFFFFFF99
:10116600FFFFFFFFFFFFFFFFFFFFFFFFFFFFFFFF89
:10117600FFFFFFFFFFFFFFFF00000000000000FF72
:10118600FFFFFFFFFFFFFF0000000101010000005D
:10119600FFFFFFFFFFFF0000010101010101010048
:1011A60000FFFFFFFF000001010100000001010137
:1011B6000000FFFF00000001010000FF0000010128
:1011C600000000FF00000101010000FF0000010116
:1011D600010000FF00000101010000FF0000010105
:1011E600010000FF00000101010000FF00000101F5
:1011F600010000FF00000001010000FF00000101E6
:10120600000000FFFF0000010101000000010101D4
:101216000000FFFFFFFF00000101010101010100C5
:1012260000FFFFFFFFFFFF000000010101000000BB
:10123600FFFFFFFFFFFFFFFF00000000000000FFB1
:10124600FFFFFFFF1010FFFFFFFFFFFFFFFFFFFF86
:10125600FFFFFFFFFFFFFFFFFFFFFFFFFFFFFFFF98
:10126600FFFFFFFFFFFFFFFFFFFFFFFFFFFFFFFF88
:10127600FFFFFFFFFFFFFFFFFFFF00000000000072
:101286000000FFFFFFFFFFFF00000000010101015A
:10129600000000FFFFFFFF00000001010101010146
:1012A60001010000FFFFFF00000101010000000036
:1012B6000101010000FFFF00000101010000FF0025
:1012C6000000000000FFFF00000001010101000016
:1012D6000000FFFFFFFFFFFFFF000001010101010A
:1012E600010000FFFFFFFFFFFFFF000000000101FC
:1012F60001010000FFFFFF0000000000FFFF0000EB
:101306000101010000FFFF000001010100000000D3
:101316000101010000FFFF000000010101010101C0
:1013260001010000FFFFFFFFFF00000001010101B6
:10133600000000FFFFFFFFFFFFFFFF0000000000AF
:101346000000FFFFFFFF1010FFFFFFFFFFFFFFFF83
:10135600FFFFFFFFFFFFFFFFFFFFFFFFFFFFFFFF97
:10136600FFFFFFFFFFFFFFFFFFFFFFFFFFFFFFFF87
:10137600FFFFFFFFFFFFFFFFFFFFFFFFFFFFFFFF77
:10138600FFFFFFFFFFFFFFFFFFFFFFFFFFFFFFFF67
:10139600FFFFFFFFFFFFFFFFFFFFFFFFFFFFFFFF57
:1013A600FFFFFFFFFFFFFFFFFFFFFFFFFFFFFFFF47
:1013B600FFFFFFFFFFFFFFFFFFFFFFFFFFFFFFFF37
:1013C600FFFFFFFFFFFFFFFF1010FFFFFFFFFFFF05
:1013D600FFFFFFFFFFFFFFFFFFFFFFFFFFFFFFFF17
:1013E600FFFFFFFFFFFFFFFFFFFFFFFFFFFFFFFF07
:1013F600FFFFFFFFFFFFFFFFFFFFFFFFFFFFFFFFF7
:10140600FFFFFFFFFFFFFFFFFFFFFFFFFFFFFFFFE6
:10141600FFFFFFFFFFFFFFFFFFFFFFFFFFFFFFFFD6
:10142600FFFFFFFFFFFFFFFFFFFFFFFFFFFFFFFFC6
:10143600FFFFFFFFFFFFFFFFFFFFFFFFFFFFFFFFB6
:10144600FFFFFFFFFFFFFFFFFFFF1010FFFFFFFF84
:10145600FFFFFFFFFFFFFFFFFFFFFFFFFFFFFFFF96
:10146600FFFFFFFFFFFFFFFFFFFFFFFFFFFFFFFF86
:10147600FFFFFFFFFFFFFFFFFFFFFFFFFFFFFFFF76
:10148600FFFFFFFFFFFFFFFFFFFFFFFFFFFFFFFF66
:10149600FFFFFFFFFFFFFFFFFFFFFFFFFFFFFFFF56
:1014A600FFFFFFFFFFFFFFFFFFFFFFFFFFFFFFFF46
:1014B600FFFFFFFFFFFFFFFFFFFFFFFFFFFFFFFF36
:1014C600FFFFFFFFFFFFFFFFFFFFFFFF1010FFFF04
:1014D600FFFFFFFFFFFFFFFFFFFFFFFFFFFFFFFF16
:1014E600FFFFFFFFFFFFFFFFFFFFFFFFFFFFFFFF06
:1014F600FFFFFFFFFFFFFFFFFFFFFFFFFFFFFFFFF6
:10150600FFFFFFFFFFFFFFFFFFFFFFFFFFFFFFFFE5
:10151600FFFFFFFFFFFFFFFFFFFFFFFFFFFFFFFFD5
:10152600FFFFFFFFFFFFFFFFFFFFFFFFFFFFFFFFC5
:10153600FFFFFFFFFFFFFFFFFFFFFFFFFFFFFFFFB5
:10154600FFFFFFFFFFFFFFFFFFFFFFFFFFFF101083
:10155600FFFFFFFFFFFFFFFFFFFFFFFFFFFFFFFF95
:10156600FFFFFFFFFFFFFFFFFFFFFFFFFFFFFFFF85
:10157600FFFFFFFFFFFFFFFFFFFFFFFFFFFFFFFF75
:10158600FFFFFFFFFFFFFFFFFFFFFFFFFFFFFFFF65
:10159600FFFFFFFFFFFFFFFFFFFFFFFFFFFFFFFF55
:1015A600FFFFFFFFFFFFFFFFFFFFFFFFFFFFFFFF45
:1015B600FFFFFFFFFFFFFFFFFFFFFFFFFFFFFFFF35
:1015C600FFFFFFFFFFFFFFFFFFFFFFFFFFFFFFFF25
:1015D6001010FFFFFF0000FFFFFFFFFFF000000FEE
:1015E600FFFFFFFF00222200FFFFFFFF0022220075
:1015F600FFFFFFF0022002200FFFFFF00220022073
:101606000FFFFF002200002200FFFF00220FF02242
:1016160000FFF002200FF002200FF002200000026F
:10162600200F00222222222222000022222222220F
:1016360022000022000000002200002200FFFF001E
:101646002200002200FFFF002200000000FFFF0032
:101656000000101000000000000000FF02222222FD
:101666002222000F02222222222220000002200033
:1016760000222200F00220FFF0022200F00220FFEA
:10168600F0022200F00220000022200FF0022222A7
:10169600222200FFF0022222222200FFF002200076
:1016A6000022200FF00220FFF0022200F00220FFAD
:1016B600F002220000022000002222000222222242
:1016C60022222000022222222222000F00000000F5
:1016D600000000FF10101010101010101010101045
:0A16E600101010101010101010105A
:05904200E47898F22221
:059047007898EFF22211
:0A68C50078ABEFF208ECF208EDF2F8
:1068CF0078ABE2FF25E0F2E22408F278B2F278AC7E
:1068DF00E2FE08E27803C333CE33CED8F979ADF3B5
:1068EF00EE19F378ADE22408F218E23400F2AF03A8
:1068FF007E007C017D02124D0B74262FF974003E31
:10690F00FA78B374FFF208EAF208E9F278B3E2FB1F
:10691F000808E2F92401F218E2FA3400F2124CB33B
:10692F0078AEF278B3E2FB0808E2F92401F218E23C
:10693F00FA3400F2124CB378AFF2E408F278AEE218
:10694F00FF78B0E2C39F4003026AC6E408F278AF53
:10695F00E2FF78B1E2C39F4003026AAD78B3E2FB76
:10696F0008E2FA08E2F9124CB3FF7898E22F78D4D4
:10697F00F2E4FB7D02FF128B1478B3E2FB08E2FA1C
:10698F0008E2F9900001124CCCFF7898E22F78D4EE
:10699F00F27B017D02E4FF128B1478B3E2FB08E275
:1069AF00FA08E2F9900002124CCCFF7898E22F78A7
:1069BF00D4F27B027D02E4FF128B1478B3E2FB0862
:1069CF00E2FA08E2F9900003124CCCFF7898E22F1C
:1069DF0078D4F27B037D02E4FF128B1478D4748099
:1069EF00F27B047D02E4FF128B1478B5E22404F2EB
:1069FF0018E23400F278B2E278D4F27B057D02E43B
:106A0F00FF128B1478AC08E278D4F27B077D02E496
:106A1F00FF128B1478ACE27E007802C333CE33CEF4
:106A2F00D8F978D4F27B097D02E4FF128B147B0A2C
:106A3F007D02E4FF128B52EF543F448078D4F27BF7
:106A4F000A7D02E4FF128B147B0A7D02E4FF128B96
:106A5F0052EF20E7F378ACE225E025E0440878D444
:106A6F00F27B097D02E4FF128B147B0A7D02E4FFA7
:106A7F00128B52EF543F448078D4F27B0A7D02E4AC
:106A8F00FF128B147B0A7D02E4FF128B52EF20E77B
:106A9F00F378B2E204F218E22404F202695D78ABF3
:106AAF00E278B2F278ADE22401F218E23400F27823
:076ABF00B0E204F202694C91
:016AC60022AD
:0A83460078A4EFF208EDF208EBF264
:1083500008E2FB08E2FA08E2F912000E78AAEFF24E
:10836000C364809480404D78A4E230E03A78A5E27E
:10837000FF08E2FD7C0008E2FB08E2FA08E2F912DD
:108380004CB3FB1268C578AAE214F218E22401F299
:1083900018E23400F278A5E22402F278AAE2D3646B
:1083A00080948050C8800A78AAE2D3648094805078
:0483B000F6129056DB
:0183B40022A6
:108E65000500000600000700000800000900000AD0
:108E7500000020000B000C000D000E000F10111259
:028E85001200D9
:03904C00012100FF
:1085E70012764F1290427F041290507F03129053DD
:1085F700E4F527AF27128DCF78A5E4F2087426F2A9
:108607007B5AE4FDFCFF1279D40527E527C39406BE
:1086170040E17F011289C67FFF1290537F08128DB8
:10862700CF78A5E4F2087426F27B5AE4FDFCFF122A
:0686370079D4E47853F24F
:01863D00221A
:102D720078A1EBF208EAF208E9F27F021290507FA2
:102D8200FF1290537855E2124E042DB4112DCA222F
:102D92002E16312E98332F1C342FBA41308E91309B
:102DA200C2A2312CB131CCB3326CB4330CC10000AD
:102DB20033E178A1E2FB08E2FA08E2F9124CB3200F
:102DC200E1030233E10230A178A1E2FB08E2FA0852
:102DD200E2F9124CB330E1237856E275F003A424F1
:102DE20065F9748E35F0FA78A774FFF208EAF208F2
:102DF200E9F2E4FB7D147F0112834678A1E2FB082D
:102E0200E2FA08E2F9900001124CCC20E10302330D
:102E1200E102310B78A1E2FB08E2FA08E2F9124C76
:102E2200B330E1237856E275F003A42465F9748E79
:102E320035F0FA78A774FFF208EAF208E9F2E4FB47
:102E42007D297F0112834678A1E2FB08E2FA08E2BB
:102E5200F9900001124CCC30E1237857E275F0036F
:102E6200A42465F9748E35F0FA78A774FFF208EAA3
:102E7200F208E9F27B0F7D147F0112834678A1E20A
:102E8200FB08E2FA08E2F9900002124CCC20E103BE
:102E92000233E1022F1778A1E2FB08E2FA08E2F915
:102EA200124CB330E1237856E275F003A42465F99D
:102EB200748E35F0FA78A774FFF208EAF208E9F2A4
:102EC200E4FB7D147F0112834678A1E2FB08E2FA5B
:102ED20008E2F9900001124CCC30E1237857E275F8
:102EE200F003A42465F9748E35F0FA78A774FFF222
:102EF20008EAF208E9F2E4FB7D3E7F01128346789C
:102F0200A1E2FB08E2FA08E2F9900002124CCC209E
:102F1200E1030233E1785802307178A1E2FB08E262
:102F2200FA08E2F9124CB330E1237856E275F00365
:102F3200A42465F9748E35F0FA78A774FFF208EAD2
:102F4200F208E9F2E4FB7D147F0112834678A1E2E4
:102F5200FB08E2FA08E2F9900001124CCC30E123BE
:102F62007857E275F003A42465F9748E35F0FA7887
:102F7200A774FFF208EAF208E9F2E4FB7D3E7F0162
:102F820012834678A1E2FB08E2FA08E2F990000215
:102F9200124CCC20E1030233E17858E275F003A42D
:102FA2002465F9748E35F0FA78A774FFF208EAF214
:102FB20008E9F27B0F02330778A1E2FB08E2FA0884
:102FC200E2F9124CB330E1237856E275F003A424FF
:102FD20065F9748E35F0FA78A774FFF208EAF20800
:102FE200E9F2E4FB7D147F0112834678A1E2FB083B
:102FF200E2FA08E2F9900001124CCC30E123785752
:10300200E275F003A42465F9748E35F0FA78A7749A
:10301200FFF208EAF208E9F2E4FB7D3E7F01128347
:103022004678A1E2FB08E2FA08E2F9900002124CAB
:10303200CC30E1237858E275F003A42465F9748E4C
:1030420035F0FA78A774FFF208EAF208E9F27B0F8A
:103052007D147F0112834678A1E2FB08E2FA08E2BE
:10306200F9900003124CCC20E1030233E17859E2DB
:1030720075F003A42465F9748E35F0FA78A774FF0D
:10308200F208EAF208E9F27B0F02312778A1E2FBAB
:1030920008E2FA08E2F9124CB320E1030233E178C4
:1030A20056E275F003A42465F9748E35F0FA78A718
:1030B20074FFF208EAF208E9F2E4FB7D290233DC4C
:1030C20078A1E2FB08E2FA08E2F9124CB330E123FC
:1030D2007856E275F003A42465F9748E35F0FA7817
:1030E200A774FFF208EAF208E9F2E4FB7D147F011B
:1030F20012834678A1E2FB08E2FA08E2F9900001A5
:10310200124CCC20E1030233E17857E275F003A4BC
:103112002465F9748E35F0FA78A774FFF208EAF2A2
:1031220008E9F2E4FB7D3E0233DC78A1E2FB08E22F
:10313200FA08E2F9124CB330E1237856E275F00353
:10314200A42465F9748E35F0FA78A774FFF208EAC0
:10315200F208E9F2E4FB7D297F0112834678A1E2BD
:10316200FB08E2FA08E2F9900001124CCC30E123AC
:103172007857E275F003A42465F9748E35F0FA7875
:10318200A774FFF208EAF208E9F27B127D147F01CC
:1031920012834678A1E2FB08E2FA08E2F990000203
:1031A200124CCC20E1030233E17858E275F003A41B
:1031B2002465F9748E35F0FA78A774FFF208EAF202
:1031C20008E9F27B127D3E0233DC78A1E2FB08E2E1
:1031D200FA08E2F9124CB330E1237856E275F003B3
:1031E200A42465F9748E35F0FA78A774FFF208EA20
:1031F200F208E9F2E4FB7D147F0112834678A1E232
:10320200FB08E2FA08E2F9900001124CCC30E1230B
:103212007857E275F003A42465F9748E35F0FA78D4
:10322200A774FFF208EAF208E9F2E4FB7D3E7F01AF
:1032320012834678A1E2FB08E2FA08E2F990000262
:10324200124CCC20E1030233E17858E275F003A47A
:103252002465F9748E35F0FA78A774FFF208EAF261
:1032620008E9F27B127D3E0233DC78A1E2FB08E240
:10327200FA08E2F9124CB330E1237856E275F00312
:10328200A42465F9748E35F0FA78A774FFF208EA7F
:10329200F208E9F2E4FB7D147F0112834678A1E291
:1032A200FB08E2FA08E2F9900001124CCC30E1236B
:1032B2007857E275F003A42465F9748E35F0FA7834
:1032C200A774FFF208EAF208E9F2E4FB7D3E7F010F
:1032D20012834678A1E2FB08E2FA08E2F9900002C2
:1032E200124CCC20E1030233E17858E275F003A4DA
:1032F2002465F9748E35F0FA78A774FFF208EAF2C1
:1033020008E9F27B127D140233DC78A1E2FB08E2C9
:10331200FA08E2F9124CB330E1237856E275F00371
:10332200A42465F9748E35F0FA78A774FFF208EADE
:10333200F208E9F2E4FB7D147F0112834678A1E2F0
:10334200FB08E2FA08E2F9900001124CCC30E123CA
:103352007857E275F003A42465F9748E35F0FA7893
:10336200A774FFF208EAF208E9F2E4FB7D3E7F016E
:1033720012834678A1E2FB08E2FA08E2F990000221
:10338200124CCC30E1237858E275F003A42465F99D
:10339200748E35F0FA78A774FFF208EAF208E9F2BF
:1033A2007B127D147F0112834678A1E2FB08E2FAC8
:1033B20008E2F9900003124CCC30E1237859E2750F
:1033C200F003A42465F9748E35F0FA78A774FFF23D
:1033D20008EAF208E9F27B127D3E7F01128346225F
:07902A007854E24480F222B9
:108CF9007B787D01E4FF128B52EF540FFF7863F20A
:108D09007854E26F60167F4D1290507F4012904761
:0D8D19001225901290427863E27854F22205
:0A71F400789BEBF208EAF208E9F2DA
:1071FE007F411290507855E2124E04722B11724854
:10720E002272AD3172EE33732D34722B917248A20D
:10721E0072ADB172EEB3732DB400007373789BE24E
:10722E00FB08E2FA08E2F9124CB3540C1313543F64
:10723E00F52560030272C40272E4789BE2FB08E259
:10724E00FA08E2F9124CB3540C1313543FF52560AF
:10725E002425E0FFE433FE74772FF9748E3EFA781E
:10726E00A774FFF208EAF208E9F2E4FB7D1C7F0145
:10727E00128346800A7B01E4FDFC7F1C127ADE78C5
:10728E009BE2FB08E2FA08E2F9900001124CCC54A2
:10729E000C1313543FF5256003027347027369788C
:1072AE009BE2FB08E2FA08E2F9124CB3540C1313FA
:1072BE00543FF525602025E0FFE433FE74772FF967
:1072CE00748E3EFA78A774FFF208EAF208E9F2E447
:1072DE00FB7D310273647B01E4FDFC7F3102737030
:1072EE00789BE2FB08E2FA08E2F9124CB3540C1355
:1072FE0013543FF525601F25E0FFE433FE74772F0E
:10730E00F9748E3EFA78A774FFF208EAF208E9F2F1
:10731E00E4FB7D1C80407B01E4FDFC7F1C804378F8
:10732E009BE2FB08E2FA08E2F9900001124CCC5401
:10733E000C1313543FF525602225E0FFE433FE7451
:10734E00772FF9748E3EFA78A774FFF208EAF208E6
:10735E00E9F2E4FB7D467F010283467B01E4FDFCFE
:05736E007F46127ADEEB
:0173730022F7
:1033E200789BEBF208EAF208E9F27F0C129050782F
:1033F20055E2124E04341F11343522348031350126
:103402003335813436144136DD91370BA2376EB134
:103412003808B338A1B4393AC100003A0B789BE2BC
:10342200FB08E2FA08E2F9124CB330E0030236ED8F
:10343200023701789BE2FB08E2FA08E2F9124CB388
:1034420030E01878A774FFF208748EF2087471F2F3
:10345200E4FB7D177F01128346800A7B01E4FDFCB9
:103462007F17127ADE789BE2FB08E2FA08E2F99013
:103472000001124CCC30E003023750023764789BD3
:10348200E2FB08E2FA08E2F9124CB330E01878A73E
:1034920074FFF208748EF2087471F2E4FB7D2C7FE3
:1034A20001128346800A7B01E4FDFC7F2C127ADE46
:1034B200789BE2FB08E2FA08E2F9900001124CCC98
:1034C20030E01878A774FFF208748EF2087471F273
:1034D2007B0F7D177F01128346800B7B017D0F7C62
:1034E200007F17127ADE789BE2FB08E2FA08E2F923
:1034F200900002124CCC30E0030236C40236D67879
:103502009BE2FB08E2FA08E2F9124CB330E01878C9
:10351200A774FFF208748EF2087471F2E4FB7D174F
:103522007F01128346800A7B01E4FDFC7F17127A39
:10353200DE789BE2FB08E2FA08E2F9900001124C05
:10354200CC30E01878A774FFF208748EF208747118
:10355200F2E4FB7D417F01128346800A7B01E4FD98
:10356200FC7F41127ADE789BE2FB08E2FA08E2F97C
:10357200900002124CCC30E0030236C40236D678F8
:103582009BE2FB08E2FA08E2F9124CB330E0187849
:10359200A774FFF208748EF2087471F2E4FB7D17CF
:1035A2007F01128346800A7B01E4FDFC7F17127AB9
:1035B200DE789BE2FB08E2FA08E2F9900001124C85
:1035C200CC30E01878A774FFF208748EF208747198
:1035D200F2E4FB7D417F01128346800A7B01E4FD18
:1035E200FC7F41127ADE789BE2FB08E2FA08E2F9FC
:1035F200900002124CCC30E01278A774FFF20874EB
:103602008EF2087471F27B0F02392A7B017D0F0260
:103612003933789BE2FB08E2FA08E2F9124CB33044
:10362200E01878A774FFF208748EF2087471F2E45D
:10363200FB7D177F01128346800A7B01E4FDFC7F3C
:1036420017127ADE789BE2FB08E2FA08E2F99000B0
:1036520001124CCC30E01878A774FFF208748EF295
:10366200087471F2E4FB7D417F01128346800A7B7C
:1036720001E4FDFC7F41127ADE789BE2FB08E2FA6C
:1036820008E2F9900002124CCC30E01878A774FFDF
:10369200F208748EF2087471F27B0F7D177F0112AB
:1036A2008346800B7B017D0F7C007F17127ADE78C8
:1036B2009BE2FB08E2FA08E2F9900003124CCC30DC
:1036C200E01278A774FFF208748EF2087471F27B2C
:1036D2000F02375F7B017D0F023801789BE2FB0806
:1036E200E2FA08E2F9124CB330E01478A774FFF260
:1036F20008748EF2087471F2E4FB7D2C0239FB7BB4
:1037020001E4FDFC7F2C023A08789BE2FB08E2FA16
:1037120008E2F9124CB330E01878A774FFF208748B
:103722008EF2087471F2E4FB7D177F0112834680EA
:103732000A7B01E4FDFC7F17127ADE789BE2FB082C
:10374200E2FA08E2F9900001124CCC30E01478A7BA
:1037520074FFF208748EF2087471F2E4FB7D410288
:1037620039FB7B01E4FDFC7F41023A08789BE2FBD6
:1037720008E2FA08E2F9124CB330E01878A774FFB5
:10378200F208748EF2087471F2E4FB7D2C7F011250
:103792008346800A7B01E4FDFC7F2C127ADE789B53
:1037A200E2FB08E2FA08E2F9900001124CCC30E0A8
:1037B2001878A774FFF208748EF2087471F27B1203
:1037C2007D177F01128346800B7B017D127C007F77
:1037D20017127ADE789BE2FB08E2FA08E2F990001F
:1037E20001124CCC30E01478A774FFF208748EF208
:1037F200087471F27B127D410239FB7B017D127CE0
:10380200007F41023A08789BE2FB08E2FA08E2F9FB
:10381200124CB330E01878A774FFF208748EF208E5
:103822007471F2E4FB7D177F01128346800A7B01EB
:10383200E4FDFC7F17127ADE789BE2FB08E2FA08CD
:10384200E2F9900001124CCC30E01878A774FFF234
:1038520008748EF2087471F2E4FB7D417F011283D9
:1038620046800A7B01E4FDFC7F41127ADE789BE20E
:10387200FB08E2FA08E2F9900002124CCC30E014A4
:1038820078A774FFF208748EF2087471F27B127DCD
:10389200410239FB7B017D127C007F41023A0878AC
:1038A2009BE2FB08E2FA08E2F9124CB330E0187826
:1038B200A774FFF208748EF2087471F2E4FB7D17AC
:1038C2007F01128346800A7B01E4FDFC7F17127A96
:1038D200DE789BE2FB08E2FA08E2F9900001124C62
:1038E200CC30E01878A774FFF208748EF208747175
:1038F200F2E4FB7D417F01128346800A7B01E4FDF5
:10390200FC7F41127ADE789BE2FB08E2FA08E2F9D8
:10391200900002124CCC30E01478A774FFF20874C5
:103922008EF2087471F27B127D170239FB7B017DE6
:10393200127C007F17023A08789BE2FB08E2FA0841
:10394200E2F9124CB330E01878A774FFF208748ED3
:10395200F2087471F2E4FB7D177F01128346800A3C
:103962007B01E4FDFC7F17127ADE789BE2FB08E222
:10397200FA08E2F9900001124CCC30E01878A774F2
:10398200FFF208748EF2087471F2E4FB7D417F014C
:10399200128346800A7B01E4FDFC7F41127ADE78C5
:1039A2009BE2FB08E2FA08E2F9900002124CCC30EA
:1039B200E01878A774FFF208748EF2087471F27B33
:1039C200127D177F01128346800B7B017D127C00E2
:1039D2007F17127ADE789BE2FB08E2FA08E2F9909E
:1039E2000003124CCC30E01678A774FFF208748EF4
:1039F200F2087471F27B127D417F010283467B01E2
:0A3A02007D127C007F41127ADE2263
:103A0C00789BEBF208EAF208E9F27F021290507808
:103A1C0055E2124E043A49113A5F223AAA313B2B35
:103A2C00333BAB343C3E413D07913D35A23D98B113
:103A3C003E32B33ECBB43F64C100004035789BE2CC
:103A4C00FB08E2FA08E2F9124CB330E403023D172A
:103A5C00023D2B789BE2FB08E2FA08E2F9124CB328
:103A6C0030E41878A774FFF208748EF208747FF2B1
:103A7C00E4FB7D1F7F01128346800A7B01E4FDFC81
:103A8C007F1F127ADE789BE2FB08E2FA08E2F990DB
:103A9C000001124CCC30E403023D7A023D8E789B3F
:103AAC00E2FB08E2FA08E2F9124CB330E41878A70A
:103ABC0074FFF208748EF208747FF2E4FB7D347F9D
:103ACC0001128346800A7B01E4FDFC7F34127ADE0E
:103ADC00789BE2FB08E2FA08E2F9900001124CCC68
:103AEC0030E41878A774FFF208748EF208747FF231
:103AFC007B0F7D1F7F01128346800B7B017D0F7C2A
:103B0C00007F1F127ADE789BE2FB08E2FA08E2F9EA
:103B1C00900002124CCC30E403023CEE023D0078E3
:103B2C009BE2FB08E2FA08E2F9124CB330E4187895
:103B3C00A774FFF208748EF208747FF2E4FB7D1F09
:103B4C007F01128346800A7B01E4FDFC7F1F127A01
:103B5C00DE789BE2FB08E2FA08E2F9900001124CD5
:103B6C00CC30E41878A774FFF208748EF208747FD6
:103B7C00F2E4FB7D497F01128346800A7B01E4FD60
:103B8C00FC7F49127ADE789BE2FB08E2FA08E2F944
:103B9C00900002124CCC30E403023CEE023D007863
:103BAC009BE2FB08E2FA08E2F9124CB330E4187815
:103BBC00A774FFF208748EF208747FF2E4FB7D1F89
:103BCC007F01128346800A7B01E4FDFC7F1F127A81
:103BDC00DE789BE2FB08E2FA08E2F9900001124C55
:103BEC00CC30E41878A774FFF208748EF208747F56
:103BFC00F2E4FB7D497F01128346800A7B01E4FDE0
:103C0C00FC7F49127ADE789BE2FB08E2FA08E2F9C3
:103C1C00900002124CCC30E41278A774FFF20874B6
:103C2C008EF208747FF27B0F023F547B017D0F02F2
:103C3C003F5D789BE2FB08E2FA08E2F9124CB330E4
:103C4C00E41878A774FFF208748EF208747FF2E41B
:103C5C00FB7D1F7F01128346800A7B01E4FDFC7F04
:103C6C001F127ADE789BE2FB08E2FA08E2F9900078
:103C7C0001124CCC30E41878A774FFF208748EF261
:103C8C0008747FF2E4FB7D497F01128346800A7B36
:103C9C0001E4FDFC7F49127ADE789BE2FB08E2FA34
:103CAC0008E2F9900002124CCC30E41878A774FFAB
:103CBC00F208748EF208747FF27B0F7D1F7F011265
:103CCC008346800B7B017D0F7C007F1F127ADE7890
:103CDC009BE2FB08E2FA08E2F9900003124CCC30AC
:103CEC00E41278A774FFF208748EF208747FF27BEA
:103CFC000F023D897B017D0F023E2B789BE2FB0876
:103D0C00E2FA08E2F9124CB330E41478A774FFF22B
:103D1C0008748EF208747FF2E4FB7D340240257B3C
:103D2C0001E4FDFC7F34024032789BE2FB08E2FAAE
:103D3C0008E2F9124CB330E41878A774FFF2087457
:103D4C008EF208747FF2E4FB7D1F7F0112834680A4
:103D5C000A7B01E4FDFC7F1F127ADE789BE2FB08F4
:103D6C00E2FA08E2F9900001124CCC30E41478A786
:103D7C0074FFF208748EF208747FF2E4FB7D490242
:103D8C0040257B01E4FDFC7F49024032789BE2FB3D
:103D9C0008E2FA08E2F9124CB330E41878A774FF81
:103DAC00F208748EF208747FF2E4FB7D347F01120A
:103DBC008346800A7B01E4FDFC7F34127ADE789B1B
:103DCC00E2FB08E2FA08E2F9900001124CCC30E474
:103DDC001878A774FFF208748EF208747FF27B12C5
:103DEC007D1F7F01128346800B7B017D127C007F3F
:103DFC001F127ADE789BE2FB08E2FA08E2F99000E7
:103E0C0002124CCC30E41478A774FFF208748EF2D2
:103E1C0008747FF27B127D490240257B017D127C68
:103E2C00007F49024032789BE2FB08E2FA08E2F993
:103E3C00124CB330E41878A774FFF208748EF208B1
:103E4C00747FF2E4FB7D1F7F01128346800A7B01A5
:103E5C00E4FDFC7F1F127ADE789BE2FB08E2FA0895
:103E6C00E2F9900001124CCC30E41878A774FFF200
:103E7C0008748EF208747FF2E4FB7D497F01128393
:103E8C0046800A7B01E4FDFC7F49127ADE789BE2D6
:103E9C00FB08E2FA08E2F9900002124CCC30E41470
:103EAC0078A774FFF208748EF208747FF27B127D8F
:103EBC00490240257B017D127C007F49024032780B
:103ECC009BE2FB08E2FA08E2F9124CB330E41878F2
:103EDC00A774FFF208748EF208747FF2E4FB7D1F66
:103EEC007F01128346800A7B01E4FDFC7F1F127A5E
:103EFC00DE789BE2FB08E2FA08E2F9900001124C32
:103F0C00CC30E41878A774FFF208748EF208747F32
:103F1C00F2E4FB7D497F01128346800A7B01E4FDBC
:103F2C00FC7F49127ADE789BE2FB08E2FA08E2F9A0
:103F3C00900002124CCC30E41478A774FFF2087491
:103F4C008EF208747FF27B127D1F0240257B017D6F
:103F5C00127C007F1F024032789BE2FB08E2FA08D9
:103F6C00E2F9124CB330E41878A774FFF208748E9F
:103F7C00F208747FF2E4FB7D1F7F01128346800AF6
:103F8C007B01E4FDFC7F1F127ADE789BE2FB08E2EA
:103F9C00FA08E2F9900001124CCC30E41878A774BE
:103FAC00FFF208748EF208747FF2E4FB7D497F0106
:103FBC00128346800A7B01E4FDFC7F49127ADE788D
:103FCC009BE2FB08E2FA08E2F9900002124CCC30BA
:103FDC00E41878A774FFF208748EF208747FF27BF1
:103FEC00127D1F7F01128346800B7B017D127C00AA
:103FFC007F1F127ADE789BE2FB08E2FA08E2F99066
:10400C000003124CCC30E41678A774FFF208748EBF
:10401C00F208747FF27B127D497F010283467B019B
:0A402C007D127C007F49127ADE222B
:102590007863E2FD7854E26DF52508E2124E0425D9
:1025A000C71125F922266F3127253327DB342891DF
:1025B0004129879129C3A22A3FB12AFBB32BB7B483
:1025C0002C73C100002D717856E2FF74017E00A8C3
:1025D00007088005C333CE33CED8F9FFEF5D601214
:1025E00078A774FFF208748EF2087481F27B0D02F2
:1025F00029B37B057D0D0229BC7856E2FF74017E6C
:1026000000A807088005C333CE33CED8F9FF78631E
:10261000E2FDEF5D601878A774FFF208748EF2088F
:102620007481F27B0D7D107F01128346800B7B0548
:102630007D0D7C007F10127ADE7857E2FF74017EF8
:1026400000A807088005C333CE33CED8F9FF7863DE
:10265000E2FDEF5D601278A774FFF208748EF20855
:102660007481F27B0D022A2F7B057D0D022A3878BA
:1026700056E2FF74017E00A807088005C333CE33FD
:10268000CED8F9FF7863E2FDEF5D601878A774FF9C
:10269000F208748EF2087481F27B077D257F0112A7
:1026A0008346800B7B057D077C007F25127ADE78D0
:1026B00057E2FF74017E00A807088005C333CE33BC
:1026C000CED8F9FF7863E2FDEF5D601878A774FF5C
:1026D000F208748EF2087481F27B157D107F01126E
:1026E0008346800B7B057D157C007F10127ADE7897
:1026F00058E2FF74017E00A807088005C333CE337B
:10270000CED8F9FF7863E2FDEF5D601278A774FF21
:10271000F208748EF2087481F27B15022A2F7B0571
:102720007D15022A387856E2FF74017E00A807085A
:102730008005C333CE33CED8F9FF7863E2FDEF5D79
:10274000601878A774FFF208748EF2087481F27B27
:102750000D7D107F01128346800B7B057D0D7C0073
:102760007F10127ADE7857E2FF74017E00A8070816
:102770008005C333CE33CED8F9FF7863E2FDEF5D39
:10278000601878A774FFF208748EF2087481F27BE7
:10279000077D3A7F01128346800B7B057D077C0015
:1027A0007F3A127ADE7858E2FF74017E00A80708AB
:1027B0008005C333CE33CED8F9FF7863E2FDEF5DF9
:1027C000601278A774FFF208748EF2087481F27BAD
:1027D00015022A2F7B057D15022A387856E2FF74F0
:1027E000017E00A807088005C333CE33CED8F9FF99
:1027F0007863E2FDEF5D601878A774FFF208748ECD
:10280000F2087481F27B077D107F01128346800BF2
:102810007B057D077C007F10127ADE7857E2FF741B
:10282000017E00A807088005C333CE33CED8F9FF58
:102830007863E2FDEF5D601878A774FFF208748E8C
:10284000F2087481F27B0D7D3A7F01128346800B82
:102850007B057D0D7C007F3A127ADE7858E2FF74AA
:10286000017E00A807088005C333CE33CED8F9FF18
:102870007863E2FDEF5D601278A774FFF208748E52
:10288000F2087481F27B15022C637B057D15022C06
:102890006C7856E2FF74017E00A807088005C333F8
:1028A000CE33CED8F9FF7863E2FDEF5D601878A7EC
:1028B00074FFF208748EF2087481F27B077D107F3A
:1028C00001128346800B7B057D077C007F10127A06
:1028D000DE7857E2FF74017E00A807088005C33345
:1028E000CE33CED8F9FF7863E2FDEF5D601878A7AC
:1028F00074FFF208748EF2087481F27B077D3A7FD0
:1029000001128346800B7B057D077C007F3A127A9B
:10291000DE7858E2FF74017E00A807088005C33303
:10292000CE33CED8F9FF7863E2FDEF5D601878A76B
:1029300074FFF208748EF2087481F27B157D107FAB
:1029400001128346800B7B057D157C007F10127A77
:10295000DE7859E2FF74017E00A807088005C333C2
:10296000CE33CED8F9FF7863E2FDEF5D601278A731
:1029700074FFF208748EF2087481F27B15022A2F1C
:102980007B057D15022A387856E2FF74017E00A887
:1029900007088005C333CE33CED8F9FF7863E2FD54
:1029A000EF5D601478A774FFF208748EF2087481EA
:1029B000F27B107D25022D617B057D107C007F253B
:1029C000022D6E7856E2FF74017E00A8070880058C
:1029D000C333CE33CED8F9FF7863E2FDEF5D6018E4
:1029E00078A774FFF208748EF2087481F27B107D70
:1029F000107F01128346800B7B057D107C007F10C9
:102A0000127ADE7857E2FF74017E00A8070880057D
:102A1000C333CE33CED8F9FF7863E2FDEF5D6014A7
:102A200078A774FFF208748EF2087481F27B107D2F
:102A30003A022D617B057D107C007F3A022D6E7875
:102A400056E2FF74017E00A807088005C333CE3329
:102A5000CED8F9FF7863E2FDEF5D601878A774FFC8
:102A6000F208748EF2087481F27B087D257F0112D2
:102A70008346800B7B057D087C007F25127ADE78FB
:102A800057E2FF74017E00A807088005C333CE33E8
:102A9000CED8F9FF7863E2FDEF5D601878A774FF88
:102AA000F208748EF2087481F27B197D107F011296
:102AB0008346800B7B057D197C007F10127ADE78BF
:102AC00058E2FF74017E00A807088005C333CE33A7
:102AD000CED8F9FF7863E2FDEF5D601478A774FF4C
:102AE000F208748EF2087481F27B197D3A022D612E
:102AF0007B057D197C007F3A022D6E7856E2FF74CB
:102B0000017E00A807088005C333CE33CED8F9FF75
:102B10007863E2FDEF5D601878A774FFF208748EA9
:102B2000F2087481F27B0D7D107F01128346800BC9
:102B30007B057D107C007F10127ADE7857E2FF74EF
:102B4000017E00A807088005C333CE33CED8F9FF35
:102B50007863E2FDEF5D601878A774FFF208748E69
:102B6000F2087481F27B087D3A7F01128346800B64
:102B70007B057D087C007F3A127ADE7858E2FF748C
:102B8000017E00A807088005C333CE33CED8F9FFF5
:102B90007863E2FDEF5D601478A774FFF208748E2D
:102BA000F2087481F27B197D3A022D617B057D1953
:102BB0007C007F3A022D6E7856E2FF74017E00A8F9
:102BC00007088005C333CE33CED8F9FF7863E2FD22
:102BD000EF5D601878A774FFF208748EF2087481B4
:102BE000F27B087D107F01128346800B7B057D08F8
:102BF0007C007F10127ADE7857E2FF74017E00A815
:102C000007088005C333CE33CED8F9FF7863E2FDE1
:102C1000EF5D601878A774FFF208748EF208748173
:102C2000F27B107D3A7F01128346800B7B057D107D
:102C30007C007F3A127ADE7858E2FF74017E00A8A9
:102C400007088005C333CE33CED8F9FF7863E2FDA1
:102C5000EF5D601478A774FFF208748EF208748137
:102C6000F27B197D10022D617B057D197C007F10A0
:102C7000022D6E7856E2FF74017E00A807088005D9
:102C8000C333CE33CED8F9FF7863E2FDEF5D601831
:102C900078A774FFF208748EF2087481F27B087DC5
:102CA000107F01128346800B7B057D087C007F101E
:102CB000127ADE7857E2FF74017E00A807088005CB
:102CC000C333CE33CED8F9FF7863E2FDEF5D6018F1
:102CD00078A774FFF208748EF2087481F27B087D85
:102CE0003A7F01128346800B7B057D087C007F3A8A
:102CF000127ADE7858E2FF74017E00A8070880058A
:102D0000C333CE33CED8F9FF7863E2FDEF5D6018B0
:102D100078A774FFF208748EF2087481F27B197D33
:102D2000107F01128346800B7B057D197C007F108C
:102D3000127ADE7859E2FF74017E00A80708800548
:102D4000C333CE33CED8F9FF7863E2FDEF5D601672
:102D500078A774FFF208748EF2087481F27B197DF3
:102D60003A7F010283467B057D197C007F3A127A07
:012D7000DE84
:012D7100223F
:108C9B00E4FF128DCF7853E260257F031290537F50
:108CAB000412905078A774FFF208748EF208747453
:108CBB00F2E4FB7D017F011283467FFF129053226A
:108CCB00E4FF128DCF785BE230E11E7BFE7A0079F8
:108CDB005B1233E27BFE7A00795B123A0C7BFE7AF5
:0E8CEB0000795B1271F412902AE4FF0289C630
:1016F00000000000000000000000000000000000EA
:1017000000000000000000000000000000000000D9
:10171000003E007E00FE01CE038E7F8E7F8E738E94
:10172000738E738E7F8E7F8E01CE00FE007E003E14
:1017300000000000020006000E001E003FFE7FFEBB
:101740007FFE3FFE1E000E000600020000000000AB
:101750000000000000400060007000787FFC7FFE09
:101760007FFE7FFC007800700060004000000000F9
:10177000000003C003C003C003C003C003C003C014
:1017800003C03FFC1FF80FF007E003C0018000001A
:1017900003C003C007E007E00E700E701C381C3851
:1017A000381C381C7FFE7FFE700E700E700E700E9F
:1017B0007FF87FFC383E381E381E381E383C3FF814
:1017C0003FF8383C381E381E381E383E7FFC7FF804
:1017D0000FF81FFC3C1C380E780E700E7000700065
:1017E00070007000700E700E380E3C1C1FFC0FF85D
:1017F0007FF07FF07078703C703C703C70787FF0C8
:101800007FE0778073C071E070F07078703C701E7C
:1018100000006006700E781E7C3E7FFE77EE73CE71
:10182000718E700E700E700E700E700E700E700E47
:1018300000001FF81FF800E000E000E000E000E01A
:1018400000E000E000E070E079E03FC01F800F00A2
:1018500000000000000003C007800F001E003FFCD6
:101860003FFC1E000F00078003C0000000000000C6
:1018700000000000000003C001E000F000783FFC21
:101880003FFC007800F001E003C000000000000011
:1018900000000000018001800180018011881998FA
:1018A0001DB81FF80FF007E003C001800000000022
:1018B000003E007E00FE01CE038E7F8E7F8E738EF3
:1018C000738E738E7F8E7F8E01CE00FE007E003E73
:1018D000700E700E700E700E700E700E781E381C2A
:1018E000381C1C381C380E700FF007E003C0018054
:1018F0000000380038003800380038003800380060
:1019000038003800380038063806380E3FFE3FFEF3
:101910000000000000000000000003800FE01C70C9
:10192000183038383838383818301C700FE00380D9
:101930000000000000000000000003C00FF01C3891
:101940001C000F0007E000F000381C380FF003C047
:101950000000000000000000000000000000000087
:101960000000000000000000000000000000000077
:101970000000000000000000000000000000000067
:101980000000000000000000000000000000000057
:101990000000000000000000000000000000000047
:1019A0000000000000000000000000000000000037
:1019B0000000000000000000000000000000000027
:1019C0000000000000000000000000000000000017
:1019D0000000000000000000000000000000000007
:1019E00000000000000000000000000000000000F7
:1019F00000000000000000000000000000000000E7
:101A000000000000000000000000000000000000D6
:101A100000000000000000000000000000000000C6
:101A200000000000000000000000000000000000B6
:101A300000000000000000000000000000000000A6
:101A40000000000000000000000000000000000096
:101A50000000000000000000000000000000000086
:101A60000000000000000000000000000000000076
:101A70000000000000000000000000000000000066
:101A80000000000000000000000000000000000056
:101A90000000000000000000000000000000000046
:101AA0000000000000000000000000000000000036
:101AB0000000000000000000000000000000000026
:101AC0000000000000000000000000000000000016
:101AD0000000000000000000000000000000000006
:101AE00000000000000000000000000000000000F6
:101AF00000000000000000000000000000000000E6
:101B000000000000000000000000000000000000D5
:101B1000000007000F800F800F800F800700070074
:101B20000700020002000000020007000700020098
:101B30000000EE0066004400880000000000000085
:101B40000000000000000000000000000000000095
:101B5000000008200820082008203FF8082008205E
:101B60000820082008203FF8082008200820082026
:101B700000000FC01B603330333033001B000F00F8
:101B800003C0036013303B3033301B600FC00300D1
:101B900000003808441084200440048009001270BA
:101BA000E4880908120822084210822001C00000BF
:101BB00000000E001B00318031801B000E001C0055
:101BC0003678632061A060E0606030F01F9C000008
:101BD0000000000000000000000000000000000005
:101BE0000000000000008000600070003800180055
:101BF0000000000400080018001000300030003021
:101C0000003000300030001000180008000400020E
:101C100000008000400060002000300030003000F4
:101C200030003000300020006000400080000000E4
:101C3000000002004210222012400A800700FFFC30
:101C400007000A8012402220421002000200000019
:101C500000000000030003000300030003007FF8FE
:101C60007FF80300030003000300030000000000EE
:101C70000000000000000000000000000000000064
:101C8000000018003C003C0018001000200040003C
:101C900000000000000000000000000000007FF8CD
:101CA0007FF80000000000000000000000000000BD
:101CB0000000000000000000000000000000000024
:101CC0000000000000007800840084008400780098
:101CD000000000180030006000C001800300060012
:101CE0000C00180030006000C00080000000000000
:101CF00000000FE0183030183038307830D8319884
:101D0000331836183C183818301818300FE0000017
:101D10000000030007000F0003000300030003009E
:101D20000300030003000300030003001FE00000A2
:101D300000000FE01830301830183038007001C043
:101D400003000E001800300830083FF83FF800008C
:101D5000000007C0183030183018003000E003C011
:101D600000E00030001830183018183007C00000AC
:101D7000000000C001C003C006C00CC018C030C0C5
:101D800060C0C0C0C0C0FFF800C000C003F00000C9
:101D900000003FF03FF030003000300037C03830F6
:101DA00030180018001830183018183007C000001C
:101DB000000007E01830303030003000300037E0ED
:101DC0003830301830183018301818300FC0000074
:101DD00000003FF83FF8201820180030006000C0D5
:101DE0000180030003000300030003000300000060
:101DF00000000780186030303030303018600FC07D
:101E00001860303060186018601830300FC0000063
:101E10000000078018603030301830183018303823
:101E200018780798001830303830186007800000A4
:101E30000000000000000000030007800300000015
:101E40000000030007800300000000000000000005
:101E500000000000000000000300078003000000F5
:101E600000000300078003800180070000000000DD
:101E700000000000001800600180060018006000EB
:101E8000800060001800060001800060001800005B
:101E9000000000000000000000007FF87FF8000054
:101EA00000007FF87FF80000000000000000000044
:101EB000000080006000180006000180006000182B
:101EC0000004001800600180060018006000800017
:101ED000000007800FC01CE038E038E011C001802E
:101EE00003000300020002000000020007000700D8
:101EF00000000FC030604010478888C890C890C864
:101F000090C890C888D84770400830700FC0000053
:101F1000000003000300078007800CC00CC018609D
:101F200018601FE03030303060186018F03C00005E
:101F300000003F80186018301830183018601FC03B
:101F40001860183018181818181818303FC00000FA
:101F5000000007881868303860186008600060006A
:101F60006000600060086018303018600780000072
:101F700000007F8030E030383018301830183018CA
:101F80003018301830183018303030E07F800000C2
:101F900000003FF0183018101800188018801F80BB
:101FA0001880188018001800181018303FF0000032
:101FB00000003FF0183018101800188018801F809B
:101FC0001880188018001800180018003C00000045
:101FD00000000F90187030306010601060006000DA
:101FE0006078603060306030307018F00FB0000002
:101FF00000007878303030303030303030303FF0E2
:1020000030303030303030303030303078780000A0
:1020100000000FC0030003000300030003000300DF
:102020000300030003000300030003000FC00000CF
:10203000000001F00060006000600060006000606F
:10204000006000603060306030E019C00F000000B8
:10205000000078F8306030C03180330036003C003A
:102060003E003300318030C030603030787C00007A
