:0300000002894929
:0C894900787FE4F6D8FD75816702899004
:0BA73600E0248CF582E43402F583225D
:10A55600C2BCD2AC759852758DFAE4F58BD28E904A
:06A5660002DCF0A3F0226C
:10A66D009002DCE0FFA3E0B507037F00227F01220B
:10A4F4009002DC12A736E0FF9002DCE004F0E0C337
:08A5040094504002E4F0D2ACD7
:01A50C00222C
:080003003099FD8F99C299228A
:0300230002A053E5
:10A05300C0E0C083C082C0D0309819C2989002DD9E
:10A0630012A736E599F09002DDE004F0E0C39450C6
:0DA073004002E4F0D0D0D082D083D0E032A3
:109BEB00E0F580D2A3E4900320F0A3F022C390030E
:109BFB0020E0940022900320E004F0229001E4E0A6
:109C0B00FBA3E0FAA3E0F922EDF0A3EBF0E4FFC233
:0C9C1B00AF22D2B6D2B77580FFD2AF22C4
:10901F009001F3129C1312A7AA9001F3E0FF7006C0
:10902F00C2B7C2B68012EFB40106C2B7D2B680087B
:10903F00EFB40204D2B7C2B69001F4129BEB129BAD
:10904F00F8500BA3E004F070F5129C0080F0C2A35F
:10905F009001F5E0F580C2A1129BF0129BF8500B26
:10906F00A3E004F070F5129C0080F0D2A112A7AA21
:04907F00129C1D2200
:108A61009001D8129C1312A7AA9001D8E0FF7006BA
:108A7100C2B7C2B68012EFB40106C2B7D2B680083F
:108A8100EFB40204D2B7C2B69001D9E0FF04F08F6F
:108A910080129BEE129BF8500BA3E004F070F512CC
:108AA1009C0080F0C2A39001DAE0FBA3E475F00121
:108AB100122763A9F0FA12268EF580C2A1129BF04B
:108AC100129BF8500BA3E004F070F5129C0080F0AB
:108AD100D2A19001DDE014F070AE12A7AA129C1D84
:018AE1002272
:0B89D5009001F2EFF0A3EDF0A3EBF037
:1089E000C2AF12A7AAE49001F2F0A3E0FF7006C2A2
:1089F000B7C2B68012EFB40106C2B7D2B68008EF94
:108A0000B40204D2B7C2B69001F4129BEB129BF8E9
:108A1000500BA3E004F070F5129C0080F0C2A37527
:108A200080FF129BF0129BF8500BA3E004F070F54E
:108A3000129C0080F0C2A29001F5E580F0129BF03C
:108A4000129BF8500BA3E004F070F5129C0080F02C
:108A5000D2A212A7AAD2B6D2B7D2AF9001F5E0FF48
:018A600022F3
:1093CF009001E4EBF0A3EAF0A3E9F0129C07122757
:1093DF0079F47003E5F0F46038122779FBAAF0EA0C
:1093EF00FDE4FF1289D5129C079000021226A7FCFC
:1093FF006F6012122779FBAAF0EAFD9001F5ECF0ED
:10940F00E4FF12901F9001E5E475F00312274D80E1
:02941F00BA226F
:01A7ED002249
:10544D002562782025627820256278000A3C523E3C
:10545D0025303262785B25303262785D3D25303201
:10546D0062780025627820256278002562782025F3
:10547D0062782025627820256278200025316278B7
:10548D0020253162782025316278200052656164D3
:10549D004173696342797465203D3D202562782012
:1054AD000A0063682562643A2562642000636825FA
:1054BD0062643A2562642063682562643A256264F9
:1054CD00200063682562643A256264206368256262
:1054DD00643A2562642063682562643A256264201B
:1054ED000063682562643A256264206368256264FE
:1054FD003A2562642063682562643A2562642063FC
:10550D00682562643A256264200063682562643A06
:10551D002562642063682562643A256264206368AD
:10552D002562643A2562642063682562643A2562C7
:10553D00642063682562643A2562642000256264F4
:10554D0020000A203D3D3D3D3D3D3D3D2050414724
:10555D00452025623278203D3D3D3D3D3D3D3D3D63
:10556D003D3D3D3D0A002562327809000A00253196
:10557D006278202531627820636825316278206356
:10558D00682531627820636825316278206368254B
:10559D003162782000656E726563616C6C00656EBA
:1055AD00667265657A6500656E686D6972726F7297
:1055BD0000656E766D6972726F7200656E656E68EC
:1055CD00616E636500656E626C616E6B00656E6227
:1055DD006F756E6400656E626C696E6B00646973E5
:1055ED00726563616C6C00646973667265657A657A
:1055FD0000646973686D6972726F720064697376A5
:10560D006D6972726F7200646973656E68616E6345
:10561D006500646973626C616E6B00646973626FBF
:10562D00756E6400646973626C696E6B003D3D3D1F
:10563D003D3D20466F726D6174203A206368303DA8
:10564D005B2562785D206368313D5B2562785D2066
:10565D006368323D5B2562785D206368333D5B2571
:10566D0062785D203D3D3D3D3D0A00256278202557
:10567D0062782063682562783A2562782063682510
:10568D0062783A2562782063682562783A256278D7
:10569D002063682562783A256278200033340062F1
:1056AD007573770079766D6978006873636F6D0037
:0E56BD006D6F646500370038000102040810AC
:046F61004103830065
:10592E00A3F0A3E4F0A37400F0A37408F0A3E4F0D2
:10593E00A37400F0A3740DF0A3E4F0A37400F0A31D
:10594E007409F0A3E4F0A37400F0A3740EF0A3E4C2
:10595E00F0A37400F0740AA3F0A3E4F0A322A3F062
:10596E00A3E4F0A37400F0A37412F0A3E4F0A37404
:10597E0000F0A37417F0A3E4F0A37400F0A3741363
:10598E00F0A3E4F0A37400F0A37418F0A3E4F0A362
:10599E007400F07414A3F0A3E4F0A322A3F0A3E424
:1059AE00F0A37400F0A37439F0A3E4F0A37400F034
:1059BE00A3743DF0A3E4F0A37400F0743AA3F0A333
:1059CE00E4F0A322A3F090039EE0FBA3E0FAA3E091
:1059DE00F9229001E074FFF0A37454F074AFA3F0B9
:1059EE00A3E4F0A3227400F0A3740FF0A3E4F0A3D9
:1059FE007400F0740BA3F0A3E4F0A3227400F0A3E0
:105A0E007419F0A3E4F0A37400F07415A3F0A3E4EA
:105A1E00F0A3227400F0A3743EF0A3E4F0A374008C
:105A2E00F0743BA3F0A3E4F0A3229001E074FFF026
:105A3E00A37454F074BAA3F0A3E4F0A3229001E08F
:105A4E0074FFF0A37455F0744AA3F0A3E4F0A322FC
:105A5E007400F07408A3F0A3E4F0A3227400F074B1
:105A6E0012A3F0A3E4F0A3229001E074FFF0A322AE
:105A7E00EBF0A3EAF0A3E9F09001E07401F0A322A9
:105A8E00A3F0A37401F0A37403F0746EA3F0A374D7
:105A9E0001F0A322A3F0A3E4F0A322A3F0A3E4F069
:105AAE00A322A3F0A3E4F0A322A3F0A3E4F0A32285
:105ABE00A3F0A3E4F0A322FFE02477F582E43403FD
:105ACE00F583EFF022E0FF9001E17401F0A374037F
:105ADE00F0A37473F07B017A03796E22A3F0A3E432
:105AEE00F0A322A3F0A3E4F0A322EBF0A3EAF0A329
:105AFE00E9F022900001E475F0010227A47BFF7A01
:105B0E00547959900326F022A3F0A3E4F0A322E0E7
:105B1E005401FB7D20222533F533A3E0540322E507
:105B2E00099056C693FFE508932F2212296F02267D
:0F5B3E008EA3F0A3E4F0A32212A7EE9001D522CC
:108D3A009001DD125AF8A31259D7125B397002FF5B
:108D4A00229001E01259D7125B39B4200B9001E04E
:108D5A001259D7125B0180E99001E01259D7122902
:108D6A006FC003C002C0019001DD1259D712298FCA
:108D7A0080239001E01259D7125B39FEB42010E427
:108D8A001226D49001E01259D7125B017F0122EE1C
:108D9A0070037F01229001E01259D7125B0180D241
:069BAE009001DD125AF8DF
:109BB400E4F530F5319001DD1259D712268E60227A
:109BC4009001DDA3E475F001122763A9F0FA1226CF
:109BD4008EFF3395E0FEEF2531F531EE3530F5306B
:069BE40080D3AE30AF316A
:019BEA002258
:01A7EE002248
:1096CF00E4F53390036EE05403125B2425E025E0AC
:1096DF00125B24C454F0125B24C4333354C02533BB
:1096EF00F53390036DE0B5070D900372E0B53306C7
:1096FF00E490037DF02290037D7401F0900372E5F6
:07970F0033F090036DEFF051
:019716002230
:10975F00125A767454F0744D1259657400F0744CAB
:10976F001259A37400F0744D1259CB7400F0A37406
:10977F004EF0124B9CAB4DAD4CE4FF1289D59003CC
:10978F0028EFF0E54C125B0BA3E54DF012481905DD
:06979F004DE54DB54EDF63
:0197A50022A1
:109D4800125A767454F074701259EC7400F0745509
:109D5800125A037400F0A37456F0124B9CAB56AD24
:109D680055E4FF1289D5900328EFF0E555125B0BF7
:079D7800A3E556F0024819B3
:109EF900125A767454F0744D125A1A7400F0744F51
:109F0900125A317400F07450125A447400F0A37458
:109F190051F0124B9C9001F5E551F0AB50AD4FE477
:049F2900FF02901F84
:1094C200E4F530F531F532F533C003C002125A76B5
:1094D2007454F07478125A577400F07430125A634C
:1094E2007400F07431125A6F7400F07432125AA27E
:1094F2007400F0A37433F0D002D003124B9C90019D
:0D950200F5E533F0AB32AD31E4FF02901F10
:10971700E4F51CF51DF51EF51F125A767454F07406
:1097270089125AA27400F0741C125AA97400F074BA
:109737001D125AA97400F0A3741EF0124B9CAB1EA5
:10974700AD1DE4FF1289D58F1F7BFF7A547999905D
:089757000326E51FF00248198A
:036B190090039E48
:106B1C00125A7E7403F0A3749EF07B017A0379A160
:106B2C00128D3AE4FB7D1FFF129E239003A1125994
:106B3C00D7127F8FEE6003026C41EF24FE60361497
:106B4C00605A146078147003026BEE240460030224
:106B5C006C411259E0125A5E7400F0740D1259D245
:106B6C00124B9CAB0DAD08E4FF128CC9E508905696
:106B7C00C693026C39125A38125A5E7400F0740DB6
:106B8C00125AB07400F07409125AB07400F0740EFA
:106B9C001259D2126C42125B2D026C39125A767455
:106BAC0054F074CF12592E7400F0A3740F1259D3F1
:106BBC00126C42AB0FAD0A126C58026C39125A7639
:106BCC007454F074EE12592E1259F37400F0A3742D
:106BDC00101259D3126C6E126C58FFE50B932F02E6
:106BEC006C39125A767455F0A3741712592F125926
:106BFC00F37400F07410125AB77400F0740C125A3B
:106C0C00B77400F0A374111259D3126C6EE4FF1216
:106C1C008CC9AB11AD0CE4FF128CC9125B2DFFE5D6
:106C2C000A932FFFE50B932FFFE50C932FFD7B01B0
:056C3C00E4FF129E239D
:106C410022124B9CAB0DAD08E4FF128CC9AB0EAD0B
:106C510009E4FF128CC922E4FF128CC9E5099056A0
:106C6100C693FFE508932FFFE50A932F22124B9C51
:106C7100AB0DAD08E4FF128CC9AB0EAD09E4FF12F8
:106C81008CC9AB0FAD0AE4FF128CC9AB10AD0B225E
:0FA68D00E4FB7D1FFF129E237DFFE4FF029FC7AA
:03720E009003A446
:10721100125A7E7403F0A374A4F07B017A0379A758
:10722100128D3A9003A71259D7127F8FEE60030295
:10723100731CEF24FE6030146056146071147003E7
:107241000272D32404600302731C1259E0125A6AB9
:107251007400F0A37417F09003A41259D7124B9C39
:10726100AB17AD12027317125A38125A6A7400F032
:107271007417125ABE7400F07413125ABE7400F0DF
:10728100A37418F09003A41259D71273370273171D
:10729100125A767454F074CF12596C7400F0A374BE
:1072A10019F09003A41259D712731D027317125AC1
:1072B100767454F074EE12596C125A0A7400F0A3E9
:1072C100741AF09003A41259D712731D1273480255
:1072D1007317125A767455F0A3741712596D125A16
:1072E1000A7400F0741A125AEA7400F07416125AF1
:1072F100EA7400F0A3741BF09003A41259D712731F
:1073010037E4FF128DAAAB19AD14127348E4FF12D2
:0B7311008DAAAB1BAD16E4FF128DAA85
:10731C0022124B9CAB17AD12E4FF128DAAAB18AD29
:10732C0013E4FF128DAAAB19AD1422124B9CAB17B0
:10733C00AD12E4FF128DAAAB18AD1322E4FF128D2F
:06734C00AAAB1AAD1522E8
:10A5AD00125A4B7400F0A37463F0124B9CAD63E42C
:04A5BD00FF029FC733
:10955B00E4F5587BFF7A55794F900326E558F012C6
:10956B004819E4F557AB57AD58E4FF1289D5900372
:10957B0026EFF07BFF7A5579731248190557E5579B
:10958B00540F70097BFF7A557979124819E557709A
:0A959B00D40558E558C3940340B905
:0195A50022A3
:10932400C003C002C001125A767455F0747B125AFD
:10933400F17400F07459125AF17400F0745A125A0C
:109344008E7403F0746F125A9A7403F0A37470123B
:109354005A9B7403F0A37471F0D001D002D00312AD
:109364004B9CE559C454F0FFE55A540F2FF559129C
:069374005AE3FF0263163C
:065B4D009003AA125AF8B1
:105B5300E4F52E7B019001E004F0A37403F0A37439
:105B6300AAF07A0379AD128D3A9003AD1259D71288
:105B73007F8F8F2F125A86125D459003AD1259D72E
:105B8300129BAE8E268F277A5579A2125D22B527F6
:105B93000AEEB52606752880025C227A5579AB1287
:105BA3005D22B5270AEEB52606752840025C227AE7
:105BB3005579B4125D29B52709EEB5260575282058
:105BC300805D7A5579BE125D29B52709EEB52605A4
:105BD300752810804A7A5579C8125D30B52709EEC9
:105BE300B5260575280880377A5579D2125D30B508
:105BF3002709EEB5260575280480247A5579DA122B
:105C03005D37B52709EEB5260575280280117A554B
:105C130079E2125D37B5270DEEB5260975280175B2
:105C23002901025CCC7A5579EA125D3EB5270AEE6A
:105C3300B52606752880025CAF7A5579F4125D3E6D
:105C4300B52709EEB5260575284080607A5579FE9B
:105C5300125D56B52709EEB52605752820804D7AC5
:105C6300567909125D56B52709EEB5260575281034
:105C7300803A7A567914125D5DB52709EEB526058B
:105C830075280880277A56791F125D5DB52709EEBE
:105C9300B5260575280480147BFF7A567928129B54
:105CA300AEEFB5270CEEB52608752802E4F529807A
:105CB300187BFF7A567931129BAEEF65277003EE9E
:105CC3006526705A752801F529125A86125D45EF2B
:105CD30060339003AD1259D712268EB477EB900040
:105CE300011226A7B469E29000021226A7B46ED966
:105CF300E92403F9E43AFA127F8F742A252EF8A6D1
:105D030007052E80C4E52E60152429F8E6FFC39508
:0E5D13002F5007AB29AD28129EC4152E80E735
:105D2100227BFF129BAEEF227BFF129BAEEF227B09
:105D3100FF129BAEEF227BFF129BAEEF227BFF1285
:105D41009BAEEF227403F0A374AAF07B017A03796E
:105D5100AD128D3A227BFF129BAEEF227BFF129B8D
:035D6100AEEF2280
:10A63700125A4B7400F0A37430F0124B9CAF3002E7
:02A64700A5C1AB
:109C6300E4FF1295A6C0077F011295A6C0077F02E5
:109C73001295A6C0077F031295A6900329EFF090D3
:109C83000328D0E0F0900327D0E0F0900326D0E043
:0A9C9300F07BFF7A56793A02481977
:037A63009003B0DD
:107A6600125A7E7403F0A374B0F07B017A0379B3E3
:107A7600128D3A9003B31259D7127F8FEE6003022C
:107A86007B55EF24FE602B14605314607924036049
:107A960003027B551259E07400F07439125B1674B8
:107AA60000F0A3743DF09003B01259D7127B740214
:107AB6007B50125A767454F074BA1259AA7400F0B4
:107AC600A3743EF09003B01259D7127B74E4FF12F0
:107AD6009FF7E53EC454F0FBAD3A027B50125A764E
:107AE6007454F074CF1259AA125A217400F0A37478
:107AF6003FF09003B01259D7127B56E53FC454F0BD
:107B0600FBAD3B027B50125A767454F0A374EE120E
:107B160059AB125A217400F0743F125B167400F0D0
:107B2600743C125B3F7400F0A37440F09003B012F3
:107B360059D7127B56E53FC454F0FBAD3BE4FF1228
:0F7B46009FF7E540C454F0FBAD3CE4FF129FF7FE
:107B550022124B9CE53DC454F0FBAD39E4FF129F66
:107B6500F7E53EC454F0FBAD3AE4FF129FF722124D
:0B7B75004B9CE53DC454F0FBAD3922F1
:03914A009003B6D9
:10914D00125A7E1291971259D7127F8F8F5B125A36
:10915D00861291971259D7127F8F8F5C7F0412A7B9
:10916D00E77F0312A7EA7F0512A4289003B6E0F962
:10917D00A3E0FAA3E090039AC9125AF9AB5CAD5B78
:0A918D007F0112926D7F05029DED37
:109197007403F0A374B6F07B017A0379B9128D3AA0
:0491A7009003B92256
:1097A600755E01E4F55D7473255DF582E43403F5B9
:1097B60083E030E415746E255DF582E43403F583A9
:1097C600E0FDE4FF129FC7E4F55E055DE55DC39429
:1097D6000440D3E55E600FE4FB7D1FFF129E237DF0
:0697E600FFE4FF129FC723
:0197EC00225A
:1070C000C003C002C001125A767456F07478125B85
:1070D0003F7400F0A37431F0A3E4F0A37400F074E3
:1070E00032125A8E7403F0A37473125A9B7403F015
:1070F000A3746F125A9B7403F0A37474125A9B7496
:1071000003F0A37470125A9B7403F0A37475125A9F
:107110009B7403F0A37471125A9B7403F0A37476EA
:10712000F0D001D002D003124B9CE531C454F0FFE3
:1071300090036AE0FEC433333354802FFFE53254AA
:107140000F2F90037CF0900373E090036E125AC5EA
:10715000900374E090036F125AC5900375E0FF909E
:107160000370125AC6900376E0FF900371125AC65C
:10717000900377125B1DE4FF129C27900378125B4B
:107180001D7F01129C27900379125B1D7F02129CC8
:107190002790037A125B1D7F03129C277B017A03E1
:1071A000797712735290037C125AD312515590037F
:1071B0007CE0FF125AE3126316E4F5307473253055
:1071C000F582E43403F583125B1DAF30129EC405D3
:1071D00030E530C3940440E4E4F541F542F54375ED
:1071E00044057F0112A77490037CE0FF1296CF7FC5
:1071F00008129F2DE4FF12A4DA1299DC7B017A03B6
:0D720000797312440090037CE0900383F04A
:01720D00225E
:108E7F00E4FF1295A6EFB40202C32290036AE0B595
:108E8F000702D32290036AEFF0E0C43333335480E8
:108E9F00FF90036DE0547F4FF07F01129DED900323
:108EAF006AE0FF1290837B017A03797712735290F5
:108EBF00036D125AD312515590036DE0FF125AE30E
:108ECF00126316E4FF12A4DA1299DC7B017A03799C
:088EDF007312440012A356D3E4
:018EE7002268
:10A56C00125A767455F0A3744A125A9B7403F0A3D2
:06A57C00746BF0024B9C21
:050026007F01029DEDC9
:10A611009056A9E493FF1200039056A9A3E493FF77
:03A6210002000331
:037EA0009001D579
:107EA300125A7E7401F0A374D5F07B017A0179DA5A
:107EB300128D3A9001DA1259D7129BAE9001D8EE87
:107EC300F0A3EFF07A5679AC127F73B50611A3E0F5
:107ED300B5070C9001D51259D71294C2027F707A5C
:107EE3005679B1127F73B50611A3E0B5070C125B87
:107EF300461259D712A637027F707A5679B7127F86
:107F03007DE0B50618A3E0B50713125B461259D7F7
:107F13001270C012A356E4FF12A77480507A5679E8
:107F2300BD127F7DE0B50610A3E0B5070B125B46DB
:107F33001259D712A56C80357A5679C2127F86E022
:107F4300B5060FA3E0B5070A900275E090028AF028
:107F5300801B7A5679C4127F86E0B50610A3E0B57C
:0F7F6300070B129F95900275E0FF12A0807F011F
:107F7200227BFF129BAE9001D8E0227BFF129BAEC8
:0D7F82009001D8227BFF129BAE9001D82207
:105F63000D0A0050435400FFC896643200627573F3
:105F73007720302031204131203131627573772011
:105F830030203120413220443779766D69782034CE
:105F9300206D6F64652030206873636F6D2031203E
:105FA30031206368303A3130206368313A30302031
:105FB3006368323A3030206368333A303020687394
:105FC300636F6D20312031206368323A31302063B2
:105FD30068313A3030206368303A303020636833B8
:105FE3003A3030206873636F6D203120312063684D
:105FF300313A3130206368303A3030206368323AC6
:106003003030206368333A3030206873636F6D201B
:10601300322032206368323A3130206368303A31BB
:1060230030206368313A3030206368333A303020AF
:106033006873636F6D20322032206368303A3130E9
:10604300206368323A3130206368313A303020635C
:1060530068333A3030206873636F6D20322032200A
:106063006368313A3130206368303A3130206368F5
:10607300323A3030206368333A3030206873636FCC
:106083006D20322032206368303A3130206368312A
:106093003A3130206368323A3030206368333A3023
:1060A30030206873636F6D20322032206368313A89
:1060B3003130206368323A3130206368303A30300F
:1060C300206368333A3030206873636F6D20322069
:1060D30032206368323A3130206368313A313020FC
:1060E3006368323A3030206368333A303020687363
:1060F300636F6D20332033206368303A313020637F
:1061030068313A3130206368323A31302063683382
:106113003A3030206873636F6D203120312063681B
:10612300333A3030206368313A3030206368323A92
:0A6133003030206368303A3030202D
:106F6500C1284403190000000041031D0041031E10
:106F7500004103180141031702410315014103169E
:106F85000041030C0042030D000042030F000042C4
:106F95000311000042031300004102E0014102DF3A
:096FA5000041031F004102DE005F
:108143007D017BFF7E007F26022668900213E0FEFE
:10815300740B2FF582E43402F5832274DF2FF5824A
:10816300E43401F583E022900006E0FAA3E0FB7C0F
:1081730000FFAE020226F878E17C027D017B01223A
:108183007D017BFF7E000226687C00AF03AE0212F6
:1081930026F8900006ECF0A3EDF022E4F0A3F0A3A0
:1081A300F0A322E4FDFC900009E0F8A3E0F9A3E0CA
:1081B300FAA3E0FBC302290E7D017BFF7E007F0E45
:1081C300022668E530F0900273E004F022E4FCFD3F
:1081D300900009022932F0A37420F0A37403F0E4A1
:1081E300A3F022900243E09003182290020B740242
:1081F300F0A37432F0A32234FFFE7C007D06022636
:0F820300F8900273E0240B227B017A0279E122CA
:10806A0012A66DEF6401600302813B43E11012A482
:10807A00F48F30E530B40218900241E07012900299
:10808A007304F090020BE530F09002417401F02283
:10809A00E5306403702A90020CE0FF64526004EF3A
:1080AA00B4531D9002DEE07017900273E0FFD39480
:1080BA0003500D9002DE7401F01281531281C62220
:1080CA00E530B4031B900245E07015128204128158
:1080DA00561281C69002457401F0E49002DEF02245
:1080EA00900245E064017037128204128156E5302D
:1080FA00F07B017A02790B7D04125D64EF602F90A8
:10810A00030B7401F090020CE09002E1F0E4A3F09A
:10811A0090020DE0900275F090030A7402F02212A8
:10812A0082041281561281C6E0D39408400A02A33F
:08813A0030E4900313F0A3F000
:01814200221A
:09A76B007BFF7A5F796302A28E84
:0B9E8F009003D7EBF0A3EAF0A3E9F08A
:109E9A009003D7E0FBA3E0FAA3E0F912268E60193B
:109EAA009003D7A3E475F001122763A9F0FA1226EA
:099EBA008EF564FF12000380D74D
:019EC300227C
:10A33000E4900241F0900245F0900273F090020B1D
:10A3400012819F12819FF0A3F0A3F090030AF0A363
:06A35000F09002E1F02292
:09A77400EF6003C20122D20122B0
:0CA72A00C200C201C227E49003F0F0223C
:10A0AD009003DAEBF0A3EAF0A3E9F020001D900392
:10A0BD00DAE0FBA3E0FAA3E0F8AC02AD037BFF7A94
:0CA0CD005F7966122BAFEF7002D2002208
:089472009001D5EEF0A3EFF02C
:10947A009001D5E07002A3E0603DE49001D7F0A32B
:10948A00F09001D7E0FEA3E0FFE4FCFD7B1BFAF9B4
:10949A00F8D312290E40109001D8E004F070E2903F
:1094AA0001D7E004F080DA9001D6E024FFF09001C1
:0794BA00D5E034FFF080B99A
:0194C1002288
:1067FD0090000012819E74C8F0A37464F0E4A3F0BD
:10680D001295F112A69C12A72A12A330E4FF12A62C
:10681D007D128AE27F4D124E3575470075482875F9
:10682D004901754AE090030D7401F0A374E0F07511
:10683D004B00754C04A37407F0A304F07F9812A7C6
:10684D00D5EF5410FFC4540F900005F012806A90DC
:10685D00030BE0B4010612820B127EA090030BE035
:10686D00B4010312A330302707128E7F5002C227C6
:10687D0012A66DEF6009900003E0754300F544E545
:10688D004464014543700DF543F544900004E075F3
:10689D004100F542E542640145417021900241E01D
:1068AD00701B1297ED1290E790028AE0FF9002881C
:1068BD00E06F6003124E35754100754214E54C646E
:1068CD0001454B701290024DE0C394014009754B88
:1068DD0000754C041286F4900316E07041E548648F
:1068ED00014547703990024DE0703390030CE0FF85
:1068FD0074017E00A807088005C333CE33CED8F9C6
:10690D00FF129AED90030CE004F0754700754828CE
:10691D00E0C3940D4002E4F09003167401F090036F
:10692D000DE07004A3E06401700F90022DF0A3F050
:10693D0090030D04F0A374E0F0129F6190030FE03B
:10694D007004A3E064017039900005E0FF12968594
:10695D00E490030FF0A3F080289002DFE0B401264D
:10696D00C3900311E094004018900246E0FF90029E
:10697D0080E0FD128EE8E49002DFF0900313F0A3A7
:10698D00F043E11080D3E4900311F0A3F0026859B5
:1095F100E4F5B8F5A8F58775E127F5D0758922F569
:109601008812A55612A77D12A484E4F58EF5A2D284
:1096110099D2AF00F593F5944391035392FCF595DC
:10962100F596F5B1F5B2F5B375B404C2E9C292C2CB
:0A96310093C294C295C296C297221C
:088212009001DDEFF0A3EDF097
:10821A0078DF7C017A5F796A7F061281839001DDBB
:10822A00E014603014604714605E146075147003C3
:10823A000282C6240560030282DFE4F5EA9001DEC9
:10824A00E0FF7004F5DA800375DA4212815EF5FA0E
:10825A00E4F5F222E4F5EB9001DEE0FF7004F5DBD1
:10826A00800375DB4212815EF5FBE4F5F322E4F547
:10827A00EC9001DEE0FF7004F5DC800375DC42124D
:10828A00815EF5FCE4F5F422E4F5ED9001DEE0FF11
:10829A007004F5DD800375DD4212815EF5FDE4F5BB
:1082AA00F522E4F5EE9001DEE0FF7004F5DE8003CE
:1082BA0075DE4212815EF5FEE4F5F622E4F5EF90F2
:1082CA0001DEE0FF7004F5DF800375DF4212815E94
:0582DA00F5FFE4F5F7DB
:0182DF00227C
:0FA69C00E4F5E9F5F975D90475D84043A6802295
:054E3500900006EFF003
:104E3A0078077C007A5F79701281BB78157C007ADA
:104E4A005F797E1281BB78237C007D017BFF7A5FCC
:104E5A00798C7E007F08122668782B7C007A5F792D
:104E6A00947F0712818378327C007A5F799B128162
:104E7A004378587C007A5F79C1128143787E7C003E
:104E8A007D017BFF7A5F79E712814778A47C007DF8
:104E9A00017BFF7A60790D12814778CA7C007D0117
:104EAA007BFF7A60793312814778F07C007D017B41
:104EBA00FF7A60795912814778167C017D017BFF60
:104ECA007A60797F128147783C7C017D017BFF7A89
:104EDA006079A512814778627C017D017BFF7A6047
:104EEA0079CB12814778887C017D017BFF7A6079D2
:104EFA00F112814778AE7C017D017BFF7A617917D7
:104F0A00128147E49001D4F0900006E0FE24B6FF37
:104F1A00C3940A400674FC2FFF8005E4900276F0E1
:104F2A00900288EEF0EFB408005062904F3CF828E7
:104F3A002873024F54024F59024F60024F66024FC4
:104F4A006D024F7B024F87024F8F90031E8041E410
:104F5A0090031EF0803DE49002448019900244744C
:104F6A000180129002437401F09003187404F080D7
:104F7A0022E4900243F090031804F080169002761F
:104F8A007414F0800E9002767441F0800690031833
:104F9A007401F0900276E0FFC39401400890031D6B
:104FAA00EFF002503090031EE06401704990024411
:104FBA00E0601B1281E6B4010B7402F090031774CF
:104FCA0004F080237402F090031714F08019128100
:104FDA00E6B4010B7404F09003177402F0800874AD
:104FEA0001F090031704F0900318E0C454F0FF9006
:104FFA000317E04F802C900244E06005900318806C
:10500A000C1281E6B4010B7404F09003177402F0D9
:10501A0080087401F090031704F0900318E0FFC4AD
:10502A0054F090031DF0900315E06025129AAA121D
:10503A00817A7A00790712513C7A00791512513C2B
:10504A007A00792B7E007F0712266812820B127E65
:10505A00A090031DE01229DE50811050A71250AB18
:10506A001450832050A92150BD24508C4050B44183
:10507A0050A742000050CF800912817A7A007958ED
:10508A00800712817A7A0079321281479001F57489
:10509A0003F07B0F7D01E4FF12901F8032801D8098
:1050AA001212817A7A0079F0802212817A7A017951
:1050BA0016801912817A7A0079CA801012817A7A56
:1050CA000079A4800712817A7A007932128147E442
:1050DA00900315F012820B127EA090031DE0122994
:1050EA00DE510A10511412511C14510C205118216E
:1050FA00512724511040512041512B420000513672
:10510A008000E4FF8012E4FF80197F01800A7F019A
:10511A0080067F0180027F01128C56800F7F0180FA
:10512A00027F01128C569001D47401F09001D4E0F0
:01513A00FF75
:10513B00227E007F0E1226687B017A0279E1127EB5
:0A514B00A078E17C027D017B0122C7
:02A08000AB072C
:10A08200E4FFFEEBC3943D4021EBD39461501BEB04
:10A0920024C3FFEE1281FAAA07EB24C3FFE4128164
:0AA0A200FAAE05AF021282127F0130
:01A0AC002291
:10942100E4FBFAFD7F90129DB6EEC4F854F0C868D3
:10943100FEEFC4540F48FFEEC4F854F0C868FAEFC9
:10944100C4540F48FB2091047A007B637C007D0AA1
:10945100AF03AE021226F8ED2430900220F0AE02E6
:10946100AF037C007D0A1226F8EF2430900225F02C
:0194710022D8
:1079450090000612819E12293E00000000E4FF12FD
:10795500A408900006EEF0A3EFF0900006E0FEA369
:10796500E0FF1281D07F6E7E021281A64042E47F45
:10797500A57E03FDFC900009E0F8A3A3A3E0D312C4
:10798500290E9000095020E0F8A3A3A3C374A59B7A
:10799500FF74039AFEE499FDE498FCE47B707A0198
:1079A500F9F81227F1802B12293E00030AE88031ED
:1079B5007FF37E011281A6401E900006E0FEA3E043
:1079C500FF746E9FFF74029EFE7C007DD21226E638
:1079D500E4FD1281D3800A90000912293E0000F2CD
:1079E50094E47B64FAF9F8900009E0FCA3E0FDA3B8
:1079F500E0FEA3E0FF12287C900006EEF0FAA3EF6C
:107A0500F0FB1281D0D3EB940FEA9427400A900043
:107A1500067427F0A3740FF0900006E0FAA3E0FBCC
:107A25007C037DE8128174EF243090021AF07C0308
:107A35007DE812818E7D6412816AEF2430900219EF
:107A4500F07D6412818C7D0A12816AEF24309002E8
:0D7A550018F07D0A12818C2430900217F089
:017A62002201
:10937A001281EE7450F0A37430F0A37439F0A37420
:10938A00661281D9900007F0900007E0FFD3940796
:10939A00501312814EE0FFEE6F900213F090000717
:1093AA00E004F080E3E4900007F0900007E0FFD3C8
:1093BA0094085010128153E0FF120003900007E056
:0493CA0004F080E645
:0193CE00227C
:1091AB001281EE744FF090023EE090020EF09002AE
:1091BB003FE090020FF0900240E09002101281D934
:1091CB00900007F0900007E0FFD394075013128133
:1091DB004EE0FFEE6F900213F0900007E004F0807A
:1091EB00E3E4900007F0900007E0FFD394085010E1
:1091FB00128153E0FF120003900007E004F080E6B9
:01920B002240
:10002E001010FFFFFFFFFFFFFFFFFFFFFFFFFFFFB0
:10003E00FFFFFFFFFFFFFFFFFFFFFFFFFFFFFFFFC2
:10004E00FFFFFFFFFFFFFFFFFFFFFFFFFFFFFFFFB2
:10005E00FFFFFFFFFFFFFFFFFFFFFFFFFFFFFFFFA2
:10006E00FFFFFFFFFFFFFFFFFFFFFFFFFFFFFFFF92
:10007E00FFFFFFFFFFFFFFFFFFFFFFFFFFFFFFFF82
:10008E00FFFFFFFFFFFFFFFFFFFFFFFFFFFFFFFF72
:10009E00FFFFFFFFFFFFFFFFFFFFFFFFFFFFFFFF62
:1000AE00FFFFFFFFFFFFFFFFFFFFFFFFFFFFFFFF52
:1000BE00FFFFFFFFFFFFFFFFFFFFFFFFFFFFFFFF42
:1000CE00FFFFFFFFFFFFFFFFFFFFFFFFFFFFFFFF32
:1000DE00FFFFFFFFFFFFFFFFFFFFFFFFFFFFFFFF22
:1000EE00FFFFFFFFFFFFFFFFFFFFFFFFFFFFFFFF12
:1000FE00FFFFFFFFFFFFFFFFFFFFFFFFFFFFFFFF02
:10010E00FFFFFFFFFFFFFFFFFFFFFFFFFFFFFFFFF1
:10011E00FFFFFFFFFFFFFFFFFFFFFFFFFFFFFFFFE1
:10012E00FFFF1010FFFFFFFFFFFFFFFFFFFFFFFFAF
:10013E00FFFFFFFFFFFFFFFFFFFFFFFFFFFFFFFFC1
:10014E00FFFFFFFFFFFFFFFFFFFFFFFFFFFFFFFFB1
:10015E00FFFFFFFFFFFFFFFFFFFFFFFFFFFFFFFFA1
:10016E00FFFFFFFFFFFFFFFFFFFFFFFFFFFFFFFF91
:10017E00FFFFFFFFFFFFFFFFFFFFFFFFFFFFFFFF81
:10018E00FFFFFFFFFFFFFFFFFFFFFFFFFFFFFFFF71
:10019E00FFFFFFFFFFFFFFFFFFFFFFFFFFFFFFFF61
:1001AE00FFFFFFFFFFFFFFFFFFFFFFFFFFFFFFFF51
:1001BE00FFFFFFFFFFFFFFFFFFFFFFFFFFFFFFFF41
:1001CE00FFFFFFFFFFFFFFFFFFFFFFFFFFFFFFFF31
:1001DE00FFFFFFFFFFFFFFFFFFFFFFFFFFFFFFFF21
:1001EE00FFFFFFFFFFFFFFFFFFFFFFFFFFFFFFFF11
:1001FE00FFFFFFFFFFFFFFFFFFFFFFFFFFFFFFFF01
:10020E00FFFFFFFFFFFFFFFFFFFFFFFFFFFFFFFFF0
:10021E00FFFFFFFFFFFFFFFFFFFFFFFFFFFFFFFFE0
:10022E00FFFFFFFF1010FFFFFFFFFFFFFFFFFFFFAE
:10023E00FFFFFFFFFFFFFFFFFFFFFFFFFFFFFFFFC0
:10024E00FFFFFFFFFFFFFFFFFFFFFFFFFFFFFFFFB0
:10025E00FFFFFFFFFFFFFFFFFFFFFFFFFFFFFFFFA0
:10026E00FFFFFFFFFFFFFFFFFFFFFFFFFFFFFFFF90
:10027E00FFFFFFFFFFFFFFFFFFFFFFFFFFFFFFFF80
:10028E00FFFFFFFFFFFFFFFFFFFFFFFFFFFFFFFF70
:10029E00FFFFFFFFFFFFFFFFFFFFFFFFFFFFFFFF60
:1002AE00FFFFFFFFFFFFFFFFFFFFFFFFFFFFFFFF50
:1002BE00FFFFFFFFFFFFFFFFFFFFFFFFFFFFFFFF40
:1002CE00FFFFFFFFFFFFFFFFFFFFFFFFFFFFFFFF30
:1002DE00FFFFFFFFFFFFFFFFFFFFFFFFFFFFFFFF20
:1002EE00FFFFFFFFFFFFFFFFFFFFFFFFFFFFFFFF10
:1002FE00FFFFFFFFFFFFFFFFFFFFFFFFFFFFFFFF00
:10030E00FFFFFFFFFFFFFFFFFFFFFFFFFFFFFFFFEF
:10031E00FFFFFFFFFFFFFFFFFFFFFFFFFFFFFFFFDF
:10032E00FFFFFFFFFFFF1010FFFFFFFFFFFFFFFFAD
:10033E00FFFFFFFFFFFFFFFFFFFFFFFFFFFFFFFFBF
:10034E00FFFFFFFFFFFFFFFFFFFFFFFFFFFFFFFFAF
:10035E00FFFFFFFFFFFFFFFFFFFFFFFFFFFFFFFF9F
:10036E00FFFFFFFFFFFFFFFFFFFFFFFFFFFFFFFF8F
:10037E00FFFFFFFFFFFFFFFFFFFFFFFFFFFFFFFF7F
:10038E00FFFFFFFFFFFFFFFFFFFFFFFFFFFFFFFF6F
:10039E00FFFFFFFFFFFFFFFFFFFFFFFFFFFFFFFF5F
:1003AE00FFFFFFFFFFFFFFFFFFFFFFFFFFFFFFFF4F
:1003BE00FFFFFFFFFFFFFFFFFFFFFFFFFFFFFFFF3F
:1003CE00FFFFFFFFFFFFFFFFFFFFFFFFFFFFFFFF2F
:1003DE00FFFFFFFFFFFFFFFFFFFFFFFFFFFFFFFF1F
:1003EE00FFFFFFFFFFFFFFFFFFFFFFFFFFFFFFFF0F
:1003FE00FFFFFFFFFFFFFFFFFFFFFFFFFFFFFFFFFF
:10040E00FFFFFFFFFFFFFFFFFFFFFFFFFFFFFFFFEE
:10041E00FFFFFFFFFFFFFFFFFFFFFFFFFFFFFFFFDE
:10042E00FFFFFFFFFFFFFFFF1010FFFFFFFFFFFFAC
:10043E00FFFFFFFFFFFFFFFFFFFFFFFFFFFFFFFFBE
:10044E00FFFFFFFFFFFFFFFFFFFFFFFFFFFFFFFFAE
:10045E00FFFFFFFFFFFFFFFFFFFFFFFFFFFFFFFF9E
:10046E00FFFFFFFFFFFFFFFFFFFFFFFFFFFFFFFF8E
:10047E00FFFFFFFFFFFFFFFFFFFFFFFFFFFFFFFF7E
:10048E00FFFFFFFFFFFFFFFFFFFFFFFFFFFFFFFF6E
:10049E00FFFFFFFFFFFFFFFFFFFFFFFFFFFFFFFF5E
:1004AE00FFFFFFFFFFFFFFFFFFFFFFFFFFFFFFFF4E
:1004BE00FFFFFFFFFFFFFFFFFFFFFFFFFFFFFFFF3E
:1004CE00FFFFFFFFFFFFFFFFFFFFFFFFFFFFFFFF2E
:1004DE00FFFFFFFFFFFFFFFFFFFFFFFFFFFFFFFF1E
:1004EE00FFFFFFFFFFFFFFFFFFFFFFFFFFFFFFFF0E
:1004FE00FFFFFFFFFFFFFFFFFFFFFFFFFFFFFFFFFE
:10050E00FFFFFFFFFFFFFFFFFFFFFFFFFFFFFFFFED
:10051E00FFFFFFFFFFFFFFFFFFFFFFFFFFFFFFFFDD
:10052E00FFFFFFFFFFFFFFFFFFFF1010FFFFFFFFAB
:10053E00FFFF00000000FFFFFFFFFFFFFFFFFFFFB9
:10054E00FF000000000000FFFFFFFFFFFFFFFFFFA7
:10055E000000020202020000FFFFFFFFFFFFFFFF8D
:10056E000000020202020000FFFFFFFFFFFFFF007C
:10057E00000202000002020000FFFFFFFFFFFF006B
:10058E00000202000002020000FFFFFFFFFF00005A
:10059E0002020000000002020000FFFFFFFF000049
:1005AE00020200FFFF0002020000FFFFFF00000238
:1005BE00020000FFFF000002020000FFFF00000229
:1005CE000200000000000002020000FF0000020214
:1005DE0002020202020202020202000000000202F5
:1005EE0002020202020202020202000000000202E5
:1005FE0000000000000000000202000000000202E5
:10060E000000FFFFFFFF00000202000000000202D8
:10061E000000FFFFFFFF00000202000000000000CC
:10062E000000FFFFFFFF00000000000010100000A0
:10063E00000000000000000000000000FFFF0002AC
:10064E0002020202020202020202000000FF000287
:10065E000202020202020202020202000000000076
:10066E000002020000000000020202020000FF0071
:10067E0000020200FFFFFF00000202020000FF0066
:10068E0000020200FFFFFF00000202020000FF0056
:10069E0000020200000000000202020000FFFF0044
:1006AE00000202020202020202020000FFFFFF002D
:1006BE00000202020202020202020000FFFFFF001D
:1006CE0000020200000000000202020000FFFF0014
:1006DE0000020200FFFFFF00000202020000FF0006
:1006EE0000020200FFFFFF000002020200000000F5
:1006FE0000020200000000000202020200000002DE
:10070E0002020202020202020202020000000002C3
:10071E0002020202020202020202000000FF0000B8
:10072E00000000000000000000000000FFFF10109D
:10073E00FFFFFF00000000000000000000FFFFFFB1
:10074E00FFFF00000202020202020202000000FF8E
:10075E00FF00000202020202020202020200000078
:10076E000000000202000000000000020202000071
:10077E0000000202020000FFFFFF00000202000064
:10078E00000002020000FFFFFFFFFF000202000058
:10079E00000002020000FFFFFFFFFFFF000000004D
:1007AE00000002020000FFFFFFFFFFFFFFFFFFFF41
:1007BE00000002020000FFFFFFFFFFFFFFFFFFFF31
:1007CE00000002020000FFFFFFFFFF00000000001C
:1007DE00000002020000FFFFFFFFFF000202000008
:1007EE0000000202000000FFFFFF000002020000F6
:1007FE0000000202020000000000000202020000DF
:10080E00FF000002020202020202020202000000C7
:10081E00FFFF00000202020202020202000000FFBD
:10082E00FFFFFF0000000000000000000000FFFFBF
:10083E001010000000000000000000000000FFFF8C
:10084E00FFFF00000202020202020202020000FF8B
:10085E00FFFF000002020202020202020202000078
:10086E00FFFF000002020000000000020202000072
:10087E00FFFF000002020000FFFF00000202000066
:10088E00FFFF000002020000FFFF00000202000056
:10089E00FFFF000002020000000000020202000042
:1008AE00FFFF00000202020202020202020000FF2B
:1008BE00FFFF00000202020202020202000000FF1D
:1008CE00FFFF000002020000020202000000FFFF14
:1008DE00FFFF000002020000000202020000FFFF04
:1008EE00FFFF00000202000000000202020000FFF3
:1008FE00FFFF000002020000FF00000202020000E3
:10090E00FFFF000002020000FFFF000002020200D3
:10091E0000FF000002020000FFFFFF0000020202C3
:10092E0000FF000000000000FFFFFFFF00000000BE
:10093E0000FF101000000000FFFFFFFFFFFFFFFF92
:10094E00000000000000000000FFFFFFFFFFFF009F
:10095E000000000000000C0C0000FFFFFFFF000075
:10096E000C0C000000000C0C0C0000000000000C31
:10097E000C0C000000000C0C0C0C000000000C0C09
:10098E000C0C000000000C0C0C0C0C0C0C0C0C0CC9
:10099E000C0C000000000C0C0C0C0C0C0C0C0C0CB9
:1009AE000C0C000000000C0C0C000C0C0C0C000CC1
:1009BE000C0C000000000C0C0C00000C0C00000CC9
:1009CE000C0C000000000C0C0C0000000000000CD1
:1009DE000C0C000000000C0C0C0000000000000CC1
:1009EE000C0C000000000C0C0C0000FFFF00000CB3
:1009FE000C0C000000000C0C0C0000FFFF00000CA3
:100A0E000C0C000000000C0C0C0000FFFF00000C92
:100A1E000C0C000000000C0C0C0000FFFF00000C82
:100A2E000C0C000000000000000000FFFF000000A2
:100A3E00000000001010FF00000000000000000089
:100A4E000000000000FFFF0000020202020202028C
:100A5E000202020000FFFF00000202020202020276
:100A6E000202020000FFFF00000000000000020270
:100A7E000200000000FFFFFFFFFFFFFF0000020269
:100A8E00020000FFFFFFFFFFFFFFFFFF000002025B
:100A9E00020000FFFFFFFFFFFFFFFFFF000002024B
:100AAE00020000FFFFFFFFFFFFFFFFFF000002023B
:100ABE00020000FFFFFFFFFFFFFFFFFF000002022B
:100ACE00020000FFFFFFFFFFFFFFFFFF000002021B
:100ADE00020000FFFFFFFF00000000FF0000020207
:100AEE00020000FFFFFFFF000202000000000202F2
:100AFE00020000FFFFFFFF000202020000020202DE
:100B0E00020000FFFFFFFF000002020202020202CB
:100B1E00000000FFFFFFFFFF0000020202020200C2
:100B2E000000FFFFFFFFFFFFFF00000000000000BE
:100B3E0000FFFFFFFFFF1010FFFFFFFFFFFFFFFF94
:100B4E00FFFFFFFFFFFFFFFFFFFFFFFFFF000000A4
:100B5E0000000000FFFFFFFFFFFFFFFF000001018D
:100B6E0001010000FFFFFFFFFFFFFF000001010179
:100B7E0001010000FFFFFFFFFFFF00000101010167
:100B8E00010000FFFFFFFFFFFF0000010101010157
:100B9E000000000000000000000001010101010141
:100BAE00010101010101000000010101010101012A
:100BBE00010101010101000000010101010101011A
:100BCE00010101010101000000000101010101010B
:100BDE000101010101010000FF00000101010101FD
:100BEE000000000000000000FFFF000001010101F5
:100BFE00010000FFFFFFFFFFFFFFFF0000010101EB
:100C0E0001010000FFFFFFFFFFFFFFFF00000101DA
:100C1E0001010000FFFFFFFFFFFFFFFFFF000000CD
:100C2E0000000000FFFFFFFFFFFFFFFFFFFFFFFFC2
:100C3E00FFFFFFFFFFFFFFFF1010FFFFFFFFFFFF94
:100C4E00FFFFFFFFFFFFFFFFFFFFFFFFFFFF0000A4
:100C5E000000000000FFFFFFFFFFFFFFFFFF00008F
:100C6E00010101010000FFFFFFFFFFFFFFFF00007A
:100C7E0001010101010000FFFFFFFFFFFFFFFF0069
:100C8E000001010101010000FFFF00000000000053
:100C9E00000001010101010000FF0000010101013E
:100CAE00010101010101010100000000010101012A
:100CBE000101010101010101010000000101010119
:100CCE00010101010101010101000000000000000D
:100CDE00000001010101010000FF00000000000002
:100CEE00000001010101010000FFFFFFFFFFFF00F7
:100CFE000001010101010000FFFFFFFFFFFF0000E7
:100D0E0001010101010000FFFFFFFFFFFFFF0000D7
:100D1E00010101010000FFFFFFFFFFFFFFFF0000C9
:100D2E000000000000FFFFFFFFFFFFFFFFFFFFFFC0
:100D3E00FFFFFFFFFFFFFFFFFFFF1010FFFFFFFF93
:100D4E000000000000000000FFFFFFFFFFFFFFFF9D
:100D5E000000010101010000FFFFFFFFFFFFFFFF89
:100D6E000000010101010000FFFFFFFFFFFFFFFF79
:100D7E000000010101010000FFFFFFFFFFFFFFFF69
:100D8E000000010101010000FFFFFFFF0000000055
:100D9E00000001010101000000000000000001013F
:100DAE00000001010101000001010000000001012D
:100DBE00010001010101000101010000000001011B
:100DCE000101010101010101010100000000010109
:100DDE00010101010101010101010000FF000001FB
:100DEE000101010101010101010000FFFFFF0000EF
:100DFE0001010101010101010000FFFFFFFFFF00E2
:100E0E00000101010101010000FFFFFFFFFFFFFFD5
:100E1E000000010101010000FFFFFFFFFFFFFFFFC8
:100E2E00FF000001010000FFFFFFFFFFFFFFFFFFBC
:100E3E00FFFF00000000FFFFFFFFFFFF1010FFFF8E
:100E4E00FFFFFFFFFFFF0000000000000000FFFF9C
:100E5E00FFFFFFFFFF000002020202020000FFFF81
:100E6E00FFFFFFFF00000202020202020000FFFF6E
:100E7E00FFFFFF000002020200000202000000005D
:100E8E00000000000202020000000202000000004A
:100E9E000202020202020200FF0002020000000033
:100EAE000202020202020200FF0002020000000023
:100EBE000202000000020200FF0002020000000019
:100ECE00020200FF00020200FF000202000000000A
:100EDE000202000000020200FF00020200000000F9
:100EEE000202020202020200FF00020200000000E3
:100EFE0002020202020202000000020200000000D2
:100F0E000000000000020202000002020000FFFFCB
:100F1E00FFFFFFFF00000202020202020000FFFFBD
:100F2E00FFFFFFFFFF000002020202020000FFFFB0
:100F3E00FFFFFFFFFFFF0000000000000000101089
:100F4E000000000000FFFFFFFFFFFF000000000099
:100F5E000001010100FFFFFFFFFFFF000101010083
:100F6E000001010100FFFFFFFFFFFF000101010073
:100F7E000001010100FFFFFFFFFFFF000101010063
:100F8E000001010100FFFFFFFFFFFF000101010053
:100F9E00000101010000FFFFFFFF00000101010041
:100FAE00000101010100FFFFFFFF0001010101002F
:100FBE00000001010100FFFFFFFF00010101000021
:100FCE0000000101010000FFFF000001010100000F
:100FDE00FF0000010101000000000101010000FFFF
:100FEE00FFFF000001010100000101010000FFFFF1
:100FFE00FFFF000000010100000101000000FFFFE3
:10100E00FFFFFF00000101010101010000FFFFFFD2
:10101E00FFFFFFFF0000010101010000FFFFFFFFC6
:10102E00FFFFFFFFFF00000101000000FFFFFFFFB9
:10103E00FFFFFFFFFFFF0000000000FFFFFFFFFFAD
:10104E00101000000000000000FFFFFFFFFFFFFF79
:10105E00FFFF00000101010000FFFFFFFFFFFFFF88
:10106E00FFFF00000101010000FFFFFFFFFFFFFF78
:10107E00FFFF00000101010000FFFFFFFFFFFFFF68
:10108E00FFFF00000101010000FFFFFFFFFFFFFF58
:10109E00FFFF00000101010000FFFFFFFFFFFFFF48
:1010AE00FFFF00000101010000FFFFFFFFFFFFFF38
:1010BE00FFFF00000101010000FFFFFFFFFFFFFF28
:1010CE00FFFF00000101010000FFFFFFFFFFFFFF18
:1010DE00FFFF00000101010000FFFFFFFFFF000006
:1010EE00000000000101010000FFFFFFFFFF0000F4
:1010FE00000000000101010000FFFFFFFF000001E2
:10110E0000000000010101000000000000000101CC
:10111E0000000000010101010101010101010101B5
:10112E0000000000010101010101010101010101A5
:10113E0000000000000000000000000000000000A1
:10114E0000001010FFFFFFFFFFFFFFFFFFFFFFFF7D
:10115E00FFFFFFFFFFFFFFFFFFFFFFFFFFFFFFFF91
:10116E00FFFFFFFFFFFFFFFFFFFFFFFFFFFFFFFF81
:10117E00FFFFFFFFFFFFFFFF00000000000000FF6A
:10118E00FFFFFFFFFFFFFF00000001010100000055
:10119E00FFFFFFFFFFFF0000010101010101010040
:1011AE0000FFFFFFFF00000101010000000101012F
:1011BE000000FFFF00000001010000FF0000010120
:1011CE00000000FF00000101010000FF000001010E
:1011DE00010000FF00000101010000FF00000101FD
:1011EE00010000FF00000101010000FF00000101ED
:1011FE00010000FF00000001010000FF00000101DE
:10120E00000000FFFF0000010101000000010101CC
:10121E000000FFFFFFFF00000101010101010100BD
:10122E0000FFFFFFFFFFFF000000010101000000B3
:10123E00FFFFFFFFFFFFFFFF00000000000000FFA9
:10124E00FFFFFFFF1010FFFFFFFFFFFFFFFFFFFF7E
:10125E00FFFFFFFFFFFFFFFFFFFF0000000000008A
:10126E000000FFFFFFFFFFFF00000000020202026E
:10127E00000000FFFFFFFF00000002020202020258
:10128E0002020000FFFFFF00000202020000000049
:10129E000202020000FFFF00000202020000FF0037
:1012AE000000000000FFFF0000000202020200002A
:1012BE000000FFFFFFFFFFFFFF000002020202021D
:1012CE00020000FFFFFFFFFFFFFF00000000020211
:1012DE0002020000FFFFFF0000000000FFFF000001
:1012EE000202020000FFFF000002020200000000E6
:1012FE000202020000FFFF000000020202020202D0
:10130E0002020000FFFFFFFFFF00000002020202C8
:10131E00000000FFFFFFFFFFFFFFFF0000000000C7
:10132E000000FFFFFFFFFFFFFFFFFFFFFFFFFFFFBD
:10133E00FFFFFFFFFFFFFFFFFFFFFFFFFFFFFFFFAF
:10134E00FFFFFFFFFFFF1010FFFFFFFFFFFFFFFF7D
:10135E00FFFFFFFFFFFFFFFFFFFFFFFFFFFFFFFF8F
:10136E00FFFFFFFFFFFFFFFFFFFFFFFFFFFFFFFF7F
:10137E00FFFFFFFFFFFFFFFFFFFFFFFFFFFFFFFF6F
:10138E00FFFFFFFFFFFFFFFFFFFFFFFFFFFFFFFF5F
:10139E00FFFFFFFFFFFFFFFFFFFFFFFFFFFFFFFF4F
:1013AE00FFFFFFFFFFFFFFFFFFFFFFFFFFFFFFFF3F
:1013BE00FFFFFFFFFFFFFFFFFFFFFFFFFFFFFFFF2F
:1013CE00FFFFFFFFFFFFFFFF1010FFFFFFFFFFFFFD
:1013DE00FFFFFFFFFFFFFFFFFFFFFFFFFFFFFFFF0F
:1013EE00FFFFFFFFFFFFFFFFFFFFFFFFFFFFFFFFFF
:1013FE00FFFFFFFFFFFFFFFFFFFFFFFFFFFFFFFFEF
:10140E00FFFFFFFFFFFFFFFFFFFFFFFFFFFFFFFFDE
:10141E00FFFFFFFFFFFFFFFFFFFFFFFFFFFFFFFFCE
:10142E00FFFFFFFFFFFFFFFFFFFFFFFFFFFFFFFFBE
:10143E00FFFFFFFFFFFFFFFFFFFFFFFFFFFFFFFFAE
:10144E00FFFFFFFFFFFFFFFFFFFF1010FFFFFFFF7C
:10145E00FFFFFFFFFFFFFFFFFFFFFFFFFFFFFFFF8E
:10146E00FFFFFFFFFFFFFFFFFFFFFFFFFFFFFFFF7E
:10147E00FFFFFFFFFFFFFFFFFFFFFFFFFFFFFFFF6E
:10148E00FFFFFFFFFFFFFFFFFFFFFFFFFFFFFFFF5E
:10149E00FFFFFFFFFFFFFFFFFFFFFFFFFFFFFFFF4E
:1014AE00FFFFFFFFFFFFFFFFFFFFFFFFFFFFFFFF3E
:1014BE00FFFFFFFFFFFFFFFFFFFFFFFFFFFFFFFF2E
:1014CE00FFFFFFFFFFFFFFFFFFFFFFFF1010FFFFFC
:1014DE00FFFFFFFFFFFFFFFFFFFFFFFFFFFFFFFF0E
:1014EE00FFFFFFFFFFFFFFFFFFFFFFFFFFFFFFFFFE
:1014FE00FFFFFFFFFFFFFFFFFFFFFFFFFFFFFFFFEE
:10150E00FFFFFFFFFFFFFFFFFFFFFFFFFFFFFFFFDD
:10151E00FFFFFFFFFFFFFFFFFFFFFFFFFFFFFFFFCD
:10152E00FFFFFFFFFFFFFFFFFFFFFFFFFFFFFFFFBD
:10153E00FFFFFFFFFFFFFFFFFFFFFFFFFFFFFFFFAD
:10154E00FFFFFFFFFFFFFFFFFFFFFFFFFFFF10107B
:10155E00FFFFFFFFFFFFFFFFFFFFFFFFFFFFFFFF8D
:10156E00FFFFFFFFFFFFFFFFFFFFFFFFFFFFFFFF7D
:10157E00FFFFFFFFFFFFFFFFFFFFFFFFFFFFFFFF6D
:10158E00FFFFFFFFFFFFFFFFFFFFFFFFFFFFFFFF5D
:10159E00FFFFFFFFFFFFFFFFFFFFFFFFFFFFFFFF4D
:1015AE00FFFFFFFFFFFFFFFFFFFFFFFFFFFFFFFF3D
:1015BE00FFFFFFFFFFFFFFFFFFFFFFFFFFFFFFFF2D
:1015CE00FFFFFFFFFFFFFFFFFFFFFFFFFFFFFFFF1D
:1015DE001010FFFFFF0000FFFFFFFFFFF000000FE6
:1015EE00FFFFFFFF00222200FFFFFFFF002222006D
:1015FE00FFFFFFF0022002200FFFFFF0022002206B
:10160E000FFFFF002200002200FFFF00220FF0223A
:10161E0000FFF002200FF002200FF0022000000267
:10162E00200F002222222222220000222222222207
:10163E0022000022000000002200002200FFFF0016
:10164E002200002200FFFF002200000000FFFF002A
:10165E000000101000000000000000FF02222222F5
:10166E002222000F0222222222222000000220002B
:10167E0000222200F00220FFF0022200F00220FFE2
:10168E00F0022200F00220000022200FF00222229F
:10169E00222200FFF0022222222200FFF00220006E
:1016AE000022200FF00220FFF0022200F00220FFA5
:1016BE00F00222000002200000222200022222223A
:1016CE0022222000022222222222000F00000000ED
:1016DE00000000FF1010101010101010101010103D
:0A16EE001010101010101010101052
:109D10001226A7FF9003EFE02F9001F5F0229001AB
:109D2000EFE0FBA3E0FAA3E0F922F09001EFE0FB03
:109D3000A3E475F001122763A9F0FA02268E9001C0
:089D4000E6E0D3648094802268
:06A7C300E49003EFF02218
:06A7C9009003EFEFF02207
:0B64B9009001E7EFF0A3ECF0A3EDF082
:1064C4009001E7E0FF25E0F0E02408F09001EEF011
:1064D4009001E8E0FEA3E07803C333CE33CED8F9CD
:1064E400F0EE9001E8F0A3E02408F09001E8E03435
:1064F40000F0AF037E007C017D021226E6742E2F8D
:10650400F974003EFA9001EF74FFF0A3EAF0A3E9F6
:10651400129D2A9001EA129D2A9001EBF0E4A3F067
:106524009001EAE0FF9001ECE0C39F4003026600A3
:10653400E4A3F09001EBE0FF9001EDE0C39F400382
:106544000265E1129D1E12268E129D13E4FB7D024C
:10655400FF12901F129D1E900001129D107B0112CC
:10656400662A900002129D107B0212662A90000394
:10657400129D107B0312663D9001F57480F07B043C
:1065840012663D9001F0E475F00412274D9001EE7F
:10659400E09001F5F07B05126645A3E09001F5F06B
:1065A4007B07126645E07E007802C333CE33CED833
:1065B400F912660112665020E7FA9001E8E025E03E
:1065C40025E0440812660112665020E7FA9001EEB5
:1065D400E004F09001EDE02404F00265379001E757
:1065E400E09001EEF09001E9E004F070069001E81B
:0C65F400E004F09001ECE004F0026524EB
:10660000229001F5F07B097D02E4FF12901F7B0AC6
:106610007D02E4FF1289D5EF543F44809001F5F0EC
:106620007B0A7D02E4FF12901F227D02E4FF12909C
:106630001F9001EFE0FBA3E0FAA3E0F9227D02E462
:10664000FF12901F227D02E4FF12901F9001E822AA
:0B6650007B0A7D02E4FF1289D5EF22D7
:0B920C009001E0EFF0A3EDF0A3EBF009
:10921700A3129D2112A5989001E6EFF0C3648094F4
:109227008040429001E0E030E0339001E1E0FFA3AD
:10923700E0FD7C00A3129D2112268EFB1264B990DB
:1092470001E6E014F09001E4E475F00112274D9077
:1092570001E1E02402F0129D3E50CF8005129D3EB1
:0592670050FB12A7ED11
:01926C0022DF
:10A3E8000500000600000700000800000900000A38
:10A3F800000012000020000B000C000D000E0000F1
:036FAE00012100BE
:10839A0090036EE075F003A424E8F974A335F0FAAB
:1083AA009001E374FFF0A3229001DDE0FBA3E0FA61
:1083BA00A3E0F92290036EE0FF74017E00A807088B
:1083CA0022FF90037BE0FDEF5D2274A4F0A3740703
:1083DA00F0229000010226A774A3F0A374F4F022FD
:1083EA0074A4F0A37405F022EAF0A3E9F0E4FB22F6
:1083FA009000020226A712268E540C1313543FF53E
:10840A003022EAF0A3E9F07B12227B017D127C0084
:10841A00227D197B057C007F3A22EBF0A3EAF0A3C8
:10842A00E9F0229000030226A77B017D0F7C00223F
:10843A00EAF0A3E9F07B0F227B01E4FDFC7F1C221A
:08844A007B01E4FDFC7F4122EF
:10950F0012749312A7C37F0412A7E77F0312A7EA6F
:10951F00E4F530AF301295450530E530C394064081
:10952F00F27F01129DED7FFF12A7EA7F081295458A
:05953F00E490036BF055
:109544002212A4289001E1E4F0A37426F07B5AE4EB
:07955400FDFCFF1285082257
:104400009001DD1284247F0212A7E77FFF12A7EA42
:1044100090036DE01229DE44451144542144882262
:1044200044BC3144FA3345353445704145C091456B
:10443000D7A14603A2462CB14671B346B2B446F4A6
:10444000C1000047511283B212268E20E1030247B9
:10445000510245CC1283B212268E30E10D12839A9E
:104460001283F27DFF7F0112920C1283B21283DC61
:1044700020E10302475190036F12839DEAF0A3E904
:10448000F07B1D7D5D02474C1283B212268E30E117
:104490001112839AEAF0A3E9F07B0E7D487F0112A6
:1044A000920C1283B21283DC20E103024751900385
:1044B0006F12839D1283F27D1402474C1283B21255
:1044C000268E30E10912839A1283F212479E1283DC
:1044D000B21283DC30E10990036F12839D12477F93
:1044E0001283B21283FA20E1030247519003701243
:1044F000839D12843A7D3E02474C1283B212268E6F
:1045000030E10612839A1247521283B21283DC30D2
:10451000E10990036F12839D1247701283B21283D8
:10452000FA20E10302475190037012839D12843AEE
:104530007D3E02474C1283B212268E30E106128372
:104540009A1247521283B21283DC30E10990036F52
:1045500012839D1247701283B21283FA20E1030284
:10456000475190037012839D12843A7D1402474C88
:104570001283B212268E30E10612839A124761121C
:1045800083B21283DC30E10C90036F12839D12839F
:10459000F21247961283B21283FA30E10990037047
:1045A00012839D12477F1283B212842D20E10302F1
:1045B000475190037112839D12843A7D3E02474C0D
:1045C0001283B212268E20E10302475112839A12FF
:1045D00083F27D2902474C1283B212268E30E10904
:1045E00012839A1283F212479E1283B21283DC2046
:1045F000E10302475190036F12839D12840C7D29C1
:1046000002474C1283B212268E30E10612839A12B0
:1046100047611283B21283DC20E103024751900309
:104620006F12839D1283F27D3E02474C1283B212B9
:10463000268E30E10D12839A1283F27D297F0112BA
:10464000920C1283B21283DC30E10C90036F128360
:104650009D12840C12478E1283B21283FA20E1035A
:1046600002475190037012839D12840C7D3E0247D5
:104670004C1283B212268E30E10912839A1283F211
:1046800012478E1283B21283DC30E10C90036F125A
:10469000839D1283F21247961283B21283FA20E1AD
:1046A0000302475190037012839D12840C7D3E02D9
:1046B000474C1283B212268E30E10912839A12837C
:1046C000F21247A61283B21283DC30E11090036F1E
:1046D00012839D1283F27D3E7F0112920C1283B2EF
:1046E0001283FA30E16B90037012839D12840C7D6B
:1046F0001402474C1283B212268E30E10912839ABB
:104700001283F21247A61283B21283DC30E11090BA
:10471000036F12839D1283F27D3E7F0112920C1271
:1047200083B21283FA30E11090037012839D1284D9
:104730000C7D147F0112920C1283B212842D30E191
:104740001090037112839D12840C7D3E7F011292A2
:104750000C22EAF0A3E9F0E4FB7D147F0112920C35
:1047600022EAF0A3E9F0E4FB7D147F0112920C220F
:10477000EAF0A3E9F0E4FB7D3E7F0112920C22EA0D
:10478000F0A3E9F07B0F7D147F0112920C227D14BF
:104790007F0112920C227D3E7F0112920C227D2914
:0E47A0007F0112920C227D147F0112920C22D6
:08A7B30090036CE04480F022E9
:1097ED007B787D01E4FF1289D5EF540FFF90037B49
:1097FD00F090036CE06F602ED2277B31E4FDFF12F9
:10980D0089D5EF547F9001F5F07B31E4FDFF129087
:10981D001F7F4D12A7E77F4012A7C912A7C3900360
:07982D007BE090036CF022C8
:066DFB009001DD1284246A
:106E01007F4112A7E790036DE01229DE6E35116E06
:106E110046216E7A226EB1316ED4336EF1346E3505
:106E2100916E46A16E7AA26EB1B16ED4B36EF1B419
:106E310000006F2E9001DD1283B512840060030201
:106E41006EBC026ECA9001DD1283B512840060121D
:106E5100126F2F1283A91283F27D1C7F0112920CF3
:106E610080061284421284529001DD1283B512838E
:106E7100DC1284036037026EFF9001DD1283B512CC
:106E810084006012126F2F1283A91283F27D1C7F7E
:106E91000112920C80061284421284529001DD127A
:106EA10083B51283DC1284036003026EFF026F2438
:106EB1009001DD1283B5128400600E126F481283B7
:106EC100A91283F27D31026F1F7B01E4FDFC7F314A
:106ED100026F2B9001DD1283B5128400600D126FD9
:106EE100481283A91283F27D1C8033128442803AB6
:106EF1009001DD1283B51283DC12840360257B02CD
:106F0100E4FDFCFF128452E53025E0FFE433FE741A
:106F1100FD2FF974A33E1283A91283F27D467F01EE
:0D6F210002920C7B01E4FDFC7F46128452BD
:106F2E00227B02E4FDFCFF128452E53025E0FFE4F3
:106F3E0033FE74FD2FF974A33E227B02E4FDFCFFA9
:106F4E00128452E53025E0FFE433FE74FD2FF97410
:036F5E00A33E222D
:10321F009001DD1284247F0C12A7E790036DE0125A
:10322F0029DE325F11327121329D2232C6313311C4
:10323F003333543433A341341191342EA13469A262
:10324F0034A2B134FFB33554B435AFC100003628C2
:10325F009001DD1283B512268E30E00302341D0279
:10326F0034279001DD1283B512268E30E00B1283C6
:10327F00AA1283E21236AB80031236809001DD1260
:10328F0083B51283DC30E0030234540234619001C1
:10329F00DD1283B512268E30E0081283AA1236296A
:1032AF00800312364B9001DD1283B51283DC30E0C0
:1032BF000302348F02349C9001DD1283B512268EE7
:1032CF0030E00B1283AA1283E21236AB8003123660
:1032DF00809001DD1283B51283DC30E00B1283AADC
:1032EF001283E21236D580081284337F171284526C
:1032FF009001DD1283B51283FA30E0030233FF022F
:10330F00340A9001DD1283B512268E30E008128345
:10331F00AA123629800312364B9001DD1283B512A3
:10332F0083DC30E00B1283AA1283E21236968003FD
:10333F001236569001DD1283B51283FA30E0030284
:10334F0033FF02340A9001DD1283B512268E30E06E
:10335F00081283AA12363A80031236619001DD12E9
:10336F0083B51283DC30E00B1283AA1283E212368C
:10337F009680031236569001DD1283B51283FA3010
:10338F00E00B1283AA1283E27B0F02359F7B017D34
:10339F000F0235A89001DD1283B512268E30E0089A
:1033AF001283AA12363A80031236619001DD12831E
:1033BF00B51283DC30E00B1283AA1283E21236C0FF
:1033CF00800312368B9001DD1283B51283FA30E041
:1033DF000B1283AA1283E21236D580081284337F30
:1033EF00171284529001DD1283B512842D30E00B39
:1033FF001283AA1283E27B0F0234977B017D0F02A7
:10340F0034F89001DD1283B512268E30E00A128354
:10341F00AA1283E2E4FB80357B01E4FDFC80369049
:10342F0001DD1283B512268E30E00B1283AA1283B0
:10343F00E21236DF80031236B59001DD1283B5122A
:10344F0083DC30E00D1283AA1283E27B0F7D2C0206
:10345F00361B1284337F2C0236259001DD1283B583
:10346F0012268E30E00B1283AA1283E212366C8082
:10347F00031236A09001DD1283B51283DC30E00D0C
:10348F001283AA1283E2E4FB7D4102361B12844AA7
:10349F000236259001DD1283B512268E30E00B1215
:1034AF0083AA1283E21236DF80031236B59001DD54
:1034BF001283B51283DC30E00B1283AA1283E2125F
:1034CF0036E980081284147F171284529001DD129E
:1034DF0083B51283FA30E00D1283AA1283E27B12B6
:1034EF007D4102361B7B017D127C007F4102362518
:1034FF009001DD1283B512268E30E00B1283AA12D3
:10350F0083E212366C80031236A09001DD1283B570
:10351F001283DC30E00B1283AA1283E21236C080D2
:10352F000312368B9001DD1283B51283FA30E00D52
:10353F001283AA1283E27B127D4102361B1284147E
:10354F007F410236259001DD1283B512268E30E0C1
:10355F000B1283AA1283E212367680031236CA90B8
:10356F0001DD1283B51283DC30E00B1283AA1283C4
:10357F00E21236F3800612844A1284529001DD1251
:10358F0083B51283FA30E00D1283AA1283E27B1205
:10359F007D1702361B7B017D127C007F17023625BB
:1035AF009001DD1283B512268E30E00B1283AA1222
:1035BF0083E212367680031236CA9001DD1283B58C
:1035CF001283DC30E00B1283AA1283E21236F380EF
:1035DF000612844A1284529001DD1283B51283FAC7
:1035EF0030E00B1283AA1283E21236E980081284AC
:1035FF00147F171284529001DD1283B512842D307F
:10360F00E00F1283AA1283E27B127D417F010292A7
:10361F000C1284147F411284522274A3F0A374F409
:10362F00F0E4FB7D177F0112920C2274A3F0A374B8
:10363F00F4F0E4FB7D177F0112920C227B01E4FD75
:10364F00FC7F17128452227B01E4FDFC7F41128420
:10365F0052227B01E4FDFC7F1712845222E4FB7D92
:10366F00177F0112920C22E4FB7D177F0112920C3F
:10367F00227B01E4FDFC7F2C128452227B01E4FDAE
:10368F00FC7F4112845222E4FB7D417F0112920C98
:10369F00227B01E4FDFC7F1712845222E4FB7D2C78
:1036AF007F0112920C227B01E4FDFC7F2C128452CD
:1036BF0022E4FB7D417F0112920C227B01E4FDFC91
:1036CF007F17128452227B0F7D177F0112920C22DB
:1036DF00E4FB7D2C7F0112920C227B127D177F0160
:0E36EF0012920C22E4FB7D417F0112920C220C
:1036FD009003DD1284247F0212A7E790036DE01280
:10370D0029DE373A11374C21377B2237A43137EF79
:10371D003338323438814138EF913912A2394FB1F3
:10372D0039B9B33A0EB43A66C100003ADC9003DD04
:10373D001283B512268E30E4030238FB023908904D
:10374D0003DD1283B512268E30E40B1283AA128389
:10375D00EA123B748003123B549003DD1283B512C1
:10376D00268E30E4030238FB12843302390D9003A8
:10377D00DD1283B512268E30E4081283AA123ADDCB
:10378D008003123AFF9003DD1283B51283DC30E41F
:10379D00030239380239459003DD1283B512268EA6
:1037AD0030E40B1283AA1283EA123B748003123B9E
:1037BD00549003DD1283B51283DC30E40B1283AA1F
:1037CD001283EA123B7E80081284337F1F128452CB
:1037DD009003DD1283B51283FA30E4030238DD0263
:1037ED0038E89003DD1283B512268E30E40812837B
:1037FD00AA123ADD8003123AFF9003DD1283B5124F
:10380D0083DC30E40B1283AA1283EA123B4A800355
:10381D00123B0A9003DD1283B51283FA30E40302E2
:10382D0038DD0238E89003DD1283B512268E30E4C0
:10383D00081283AA123AEE8003123B159003DD1293
:10384D0083B51283DC30E40B1283AA1283EA123B98
:10385D004A8003123B0A9003DD1283B51283FA30BE
:10386D00E40B1283AA1283EA7B0F023A567B017D89
:10387D000F023A5F9003DD1283B512268E30E408F5
:10388D001283AA123AEE8003123B159003DD1283C8
:10389D00B51283DC30E40B1283AA1283EA123B5F6C
:1038AD008003123B349003DD1283B51283FA30E4AA
:1038BD000B1283AA1283EA123B7E80081284337F97
:1038CD001F1284529003DD1283B512842D30E40B48
:1038DD001283AA1283EA7B0F0239407B017D0F020E
:1038ED0039B29003DD1283B512268E30E40D1283AA
:1038FD00AA1283EAE4FB7D34023ACF7B01E4FDFC9E
:10390D007F34023AD99003DD1283B512268E30E44E
:10391D000B1283AA1283EA123B208003123B3F90C5
:10392D0003DD1283B51283DC30E40D1283AA1283FA
:10393D00EAE4FB7D49023ACF7B01E4FDFC7F4902BD
:10394D003AD99003DD1283B512268E30E41112831D
:10395D00AA1283EAE4FB7D347F0112920C800A7B6C
:10396D0001E4FDFC7F341284529003DD1283B51205
:10397D0083DC30E40B1283AA1283EA123B9D80088C
:10398D001284147F1F1284529003DD1283B51283AB
:10399D00FA30E40D1283AA1283EA7B127D49023AB2
:1039AD00CF7B017D127C007F49023AD99003DD1255
:1039BD0083B512268E30E40B1283AA1283EA123BD2
:1039CD00208003123B3F9003DD1283B51283DC3060
:1039DD00E40B1283AA1283EA123B5F8003123B347D
:1039ED009003DD1283B51283FA30E40D1283AA120F
:1039FD0083EA7B127D49023ACF1284147F49023A41
:103A0D00D99003DD1283B512268E30E40B1283AAF2
:103A1D001283EA123B2A8003123B699003DD128365
:103A2D00B51283DC30E40B1283AA1283EA123B93A6
:103A3D008003123B889003DD1283B51283FA30E4C4
:103A4D000D1283AA1283EA7B127D1F023ACF7B01EE
:103A5D007D127C007F1F023AD99003DD1283B512CF
:103A6D00268E30E40B1283AA1283EA123B2A8003BE
:103A7D00123B699003DD1283B51283DC30E40B1227
:103A8D0083AA1283EA123B938003123B889003DDD5
:103A9D001283B51283FA30E40B1283AA1283EA1251
:103AAD003B9D80081284147F1F1284529003DD12F7
:103ABD0083B512842D30E40F1283AA1283EA7B1290
:103ACD007D497F0102920C1284147F491284522287
:103ADD0074A4F0A37405F0E4FB7D1F7F0112920C1A
:103AED002274A4F0A37405F0E4FB7D1F7F011292F4
:103AFD000C227B01E4FDFC7F1F128452227B01E42A
:103B0D00FDFC7F49128452227B01E4FDFC7F1F12D4
:103B1D00845222E4FB7D1F7F0112920C22E4FB7D77
:103B2D001F7F0112920C227B01E4FDFC7F49128460
:103B3D0052227B01E4FDFC7F1F12845222E4FB7DA7
:103B4D00497F0112920C227B01E4FDFC7F3412842B
:103B5D005222E4FB7D497F0112920C227B01E4FD90
:103B6D00FC7F1F12845222E4FB7D347F0112920CE4
:103B7D00227B0F7D1F7F0112920C227B01E4FDFC45
:103B8D007F4912845222E4FB7D497F0112920C225F
:0A3B9D007B127D1F7F0112920C22A3
:102C9B0090037BE0FD90036CE06DF565A3E01229DA
:102CAB00DE2CD4112CF7222D3C312DAD332E1434C8
:102CBB002E82412F11912F3AA22F87B12FF7B330CC
:102CCB0061B430DCC1000031681283BE8005C333B0
:102CDB00CE33CED8F9FFEF5D600B1283AA1283D4EB
:102CEB007B0D022F2A7B057D0D022F331283BE80B5
:102CFB0005C333CE33CED8F91283CB600B1283AA24
:102D0B001283D41231C5800312318190036F128369
:102D1B00C18005C333CE33CED8F91283CB600B12EF
:102D2B0083AA1283D47B0D022F777B057D0D022F97
:102D3B00801283BE8005C333CE33CED8F91283CB3A
:102D4B0060111283AA1283D47B077D257F01129217
:102D5B000C80057D0712320B90036F1283C1800527
:102D6B00C333CE33CED8F91283CB600D1283AA12A4
:102D7B0083D47B151231E580031231CF900370128F
:102D8B0083C18005C333CE33CED8F91283CB600B0E
:102D9B001283AA1283D47B15022F777B057D150234
:102DAB002F801283BE8005C333CE33CED8F9128366
:102DBB00CB600B1283AA1283D41231C5800312315C
:102DCB008190036F1283C18005C333CE33CED8F904
:102DDB001283CB600B1283AA1283D41231DB8003D4
:102DEB0012318D9003701283C18005C333CE33CE65
:102DFB00D8F91283CB600B1283AA1283D47B1502F2
:102E0B002F777B057D15022F801283BE8005C33380
:102E1B00CE33CED8F91283CB600B1283AA1283D494
:102E2B00123199800312316990036F1283C18005AF
:102E3B00C333CE33CED8F91283CB600D1283AA12D3
:102E4B0083D47D3A12320380087D0D12841D1284C7
:102E5B00529003701283C18005C333CE33CED8F9A1
:102E6B001283CB600B1283AA1283D47B150230CC56
:102E7B007B057D150230D51283BE8005C333CE335F
:102E8B00CED8F91283CB600B1283AA1283D41231E2
:102E9B0099800312316990036F1283C18005C3338C
:102EAB00CE33CED8F91283CB600B1283AA1283D404
:102EBB001231DB800312318D9003701283C18005B8
:102ECB00C333CE33CED8F91283CB60111283AA123F
:102EDB0083D47B157D107F0112920C80031231CFAE
:102EEB009003711283C18005C333CE33CED8F91250
:102EFB0083CB600B1283AA1283D47B15022F777BB3
:102F0B00057D15022F801283BE8005C333CE33CED1
:102F1B00D8F91283CB600D1283AA1283D47B107D58
:102F2B002502315D7B057D107C007F25023165120A
:102F3B0083BE8005C333CE33CED8F91283CB600D5D
:102F4B001283AA1283D47B101231E580031231A3B2
:102F5B0090036F1283C18005C333CE33CED8F912E1
:102F6B0083CB600D1283AA1283D47B107D3A02317E
:102F7B005D7B057D107C007F3A0231651283BE803C
:102F8B0005C333CE33CED8F91283CB60111283AA8B
:102F9B001283D47B087D257F0112920C80057D085E
:102FAB0012320B90036F1283C18005C333CE33CE25
:102FBB00D8F91283CB600B1283AA1283D412321569
:102FCB0080031231ED9003701283C18005C333CEA1
:102FDB0033CED8F91283CB600D1283AA1283D47B24
:102FEB00197D3A02315D12841B0231651283BE805A
:102FFB0005C333CE33CED8F91283CB600D1283AA1F
:10300B001283D47D1012320380031231A390036F0D
:10301B001283C18005C333CE33CED8F91283CB6074
:10302B000B1283AA1283D41231F980031231B99097
:10303B0003701283C18005C333CE33CED8F912830C
:10304B00CB600D1283AA1283D47B197D3A02315DBA
:10305B0012841B0231651283BE8005C333CE33CE7F
:10306B00D8F91283CB600B1283AA1283D41231AF1F
:10307B00800312317590036F1283C18005C333CE69
:10308B0033CED8F91283CB60111283AA1283D47B6F
:10309B00107D3A7F0112920C800B7B057D107C001A
:1030AB007F3A1284529003701283C18005C333CED2
:1030BB0033CED8F91283CB600D1283AA1283D47B43
:1030CB00197D1002315D7B057D197C007F1002316B
:1030DB00651283BE8005C333CE33CED8F91283CBB2
:1030EB00600B1283AA1283D41231AF800312317595
:1030FB0090036F1283C18005C333CE33CED8F91240
:10310B0083CB600B1283AA1283D41231F980031282
:10311B0031B99003701283C18005C333CE33CED83F
:10312B00F91283CB600B1283AA1283D4123215804F
:10313B00031231ED9003711283C18005C333CE337B
:10314B00CED8F91283CB600F1283AA1283D47B19CA
:0D315B007D3A7F0102920C12841B128452F7
:10316800227B057D077C007F10128452227B057D1F
:10317800087C007F10128452227B057D0D7C007F25
:1031880010128452227B057D077C007F3A128452FC
:10319800227B077D107F0112920C227B057D107C1B
:1031A800007F10128452227B087D107F0112920C3E
:1031B800227B057D087C007F3A128452227B0D7D9C
:1031C800107F0112920C227B057D157C007F101266
:1031D8008452227B077D3A7F0112920C227D107F58
:1031E8000112920C227B057D197C007F10128452FB
:1031F800227B087D3A7F0112920C227B0D7F0112FF
:10320800920C227B057C007F25128452227B197D3B
:07321800107F0112920C224D
:1099DC00E4FF12A42890036BE024FE6011047029AC
:1099EC00129A161283AA74A3F0A374F7800C129A1D
:1099FC00161283AA74A3F0A374FAF0E4FB7D017F22
:109A0C000112920C7FFF12A7EA227F0312A7EA7FB2
:059A1C000412A7E7227F
:10A35600E4FF12A428900373E030E1127B017A0334
:10A36600797312321F7B017A037973126DFB12A780
:06A37600B3E4FF029DEDBF
:1016F80000000000000000000000000000000000E2
:1017080000000000000000000000000000000000D1
:10171800003E007E00FE01CE038E7F8E7F8E738E8C
:10172800738E738E7F8E7F8E01CE00FE007E003E0C
:1017380000000000020006000E001E003FFE7FFEB3
:101748007FFE3FFE1E000E000600020000000000A3
:101758000000000000400060007000787FFC7FFE01
:101768007FFE7FFC007800700060004000000000F1
:10177800000003C003C003C003C003C003C003C00C
:1017880003C03FFC1FF80FF007E003C00180000012
:1017980003C003C007E007E00E700E701C381C3849
:1017A800381C381C7FFE7FFE700E700E700E700E97
:1017B8007FF87FFC383E381E381E381E383C3FF80C
:1017C8003FF8383C381E381E381E383E7FFC7FF8FC
:1017D8000FF81FFC3C1C380E780E700E700070005D
:1017E80070007000700E700E380E3C1C1FFC0FF855
:1017F8007FF07FF07078703C703C703C70787FF0C0
:101808007FE0778073C071E070F07078703C701E74
:1018180000006006700E781E7C3E7FFE77EE73CE69
:10182800718E700E700E700E700E700E700E700E3F
:1018380000001FF81FF800E000E000E000E000E012
:1018480000E000E000E070E079E03FC01F800F009A
:1018580000000000000003C007800F001E003FFCCE
:101868003FFC1E000F00078003C0000000000000BE
:1018780000000000000003C001E000F000783FFC19
:101888003FFC007800F001E003C000000000000009
:1018980000000000018001800180018011881998F2
:1018A8001DB81FF80FF007E003C00180000000001A
:1018B800003E007E00FE01CE038E7F8E7F8E738EEB
:1018C800738E738E7F8E7F8E01CE00FE007E003E6B
:1018D800700E700E700E700E700E700E781E381C22
:1018E800381C1C381C380E700FF007E003C001804C
:1018F8000000380038003800380038003800380058
:1019080038003800380038063806380E3FFE3FFEEB
:101918000000000000000000000003800FE01C70C1
:10192800183038383838383818301C700FE00380D1
:101938000000000000000000000003C00FF01C3889
:101948001C000F0007E000F000381C380FF003C03F
:10195800000000000000000000000000000000007F
:10196800000000000000000000000000000000006F
:10197800000000000000000000000000000000005F
:10198800000000000000000000000000000000004F
:10199800000000000000000000000000000000003F
:1019A800000000000000000000000000000000002F
:1019B800000000000000000000000000000000001F
:1019C800000000000000000000000000000000000F
:1019D80000000000000000000000000000000000FF
:1019E80000000000000000000000000000000000EF
:1019F80000000000000000000000000000000000DF
:101A080000000000000000000000000000000000CE
:101A180000000000000000000000000000000000BE
:101A280000000000000000000000000000000000AE
:101A3800000000000000000000000000000000009E
:101A4800000000000000000000000000000000008E
:101A5800000000000000000000000000000000007E
:101A6800000000000000000000000000000000006E
:101A7800000000000000000000000000000000005E
:101A8800000000000000000000000000000000004E
:101A9800000000000000000000000000000000003E
:101AA800000000000000000000000000000000002E
:101AB800000000000000000000000000000000001E
:101AC800000000000000000000000000000000000E
:101AD80000000000000000000000000000000000FE
:101AE80000000000000000000000000000000000EE
:101AF80000000000000000000000000000000000DE
:101B080000000000000000000000000000000000CD
:101B1800000007000F800F800F800F80070007006C
:101B28000700020002000000020007000700020090
:101B38000000EE006600440088000000000000007D
:101B4800000000000000000000000000000000008D
:101B5800000008200820082008203FF80820082056
:101B68000820082008203FF808200820082008201E
:101B780000000FC01B603330333033001B000F00F0
:101B880003C0036013303B3033301B600FC00300C9
:101B980000003808441084200440048009001270B2
:101BA800E4880908120822084210822001C00000B7
:101BB80000000E001B00318031801B000E001C004D
:101BC8003678632061A060E0606030F01F9C000000
:101BD80000000000000000000000000000000000FD
:101BE800000000000000800060007000380018004D
:101BF8000000000400080018001000300030003019
:101C08000030003000300010001800080004000206
:101C180000008000400060002000300030003000EC
:101C280030003000300020006000400080000000DC
:101C3800000002004210222012400A800700FFFC28
:101C480007000A8012402220421002000200000011
:101C580000000000030003000300030003007FF8F6
:101C68007FF80300030003000300030000000000E6
:101C7800000000000000000000000000000000005C
:101C8800000018003C003C00180010002000400034
:101C980000000000000000000000000000007FF8C5
:101CA8007FF80000000000000000000000000000B5
:101CB800000000000000000000000000000000001C
:101CC8000000000000007800840084008400780090
:101CD800000000180030006000C00180030006000A
:101CE8000C00180030006000C000800000000000F8
:101CF80000000FE0183030183038307830D831987C
:101D0800331836183C183818301818300FE000000F
:101D18000000030007000F00030003000300030096
:101D28000300030003000300030003001FE000009A
:101D380000000FE01830301830183038007001C03B
:101D480003000E001800300830083FF83FF8000084
:101D5800000007C0183030183018003000E003C009
:101D680000E00030001830183018183007C00000A4
:101D7800000000C001C003C006C00CC018C030C0BD
:101D880060C0C0C0C0C0FFF800C000C003F00000C1
:101D980000003FF03FF030003000300037C03830EE
:101DA80030180018001830183018183007C0000014
:101DB800000007E01830303030003000300037E0E5
:101DC8003830301830183018301818300FC000006C
:101DD80000003FF83FF8201820180030006000C0CD
:101DE8000180030003000300030003000300000058
:101DF80000000780186030303030303018600FC075
:101E08001860303060186018601830300FC000005B
:101E1800000007801860303030183018301830381B
:101E2800187807980018303038301860078000009C
:101E3800000000000000000003000780030000000D
:101E480000000300078003000000000000000000FD
:101E580000000000000000000300078003000000ED
:101E680000000300078003800180070000000000D5
:101E780000000000001800600180060018006000E3
:101E88008000600018000600018000600018000053
:101E9800000000000000000000007FF87FF800004C
:101EA80000007FF87FF8000000000000000000003C
:101EB8000000800060001800060001800060001823
:101EC800000400180060018006001800600080000F
:101ED800000007800FC01CE038E038E011C0018026
:101EE80003000300020002000000020007000700D0
:101EF80000000FC030604010478888C890C890C85C
:101F080090C890C888D84770400830700FC000004B
:101F1800000003000300078007800CC00CC0186095
:101F280018601FE03030303060186018F03C000056
:101F380000003F80186018301830183018601FC033
:101F48001860183018181818181818303FC00000F2
:101F58000000078818683038601860086000600062
:101F6800600060006008601830301860078000006A
:101F780000007F8030E030383018301830183018C2
:101F88003018301830183018303030E07F800000BA
:101F980000003FF0183018101800188018801F80B3
:101FA8001880188018001800181018303FF000002A
:101FB80000003FF0183018101800188018801F8093
:101FC8001880188018001800180018003C0000003D
:101FD80000000F90187030306010601060006000D2
:101FE8006078603060306030307018F00FB00000FA
:101FF80000007878303030303030303030303FF0DA
:102008003030303030303030303030307878000098
:1020180000000FC0030003000300030003000300D7
:102028000300030003000300030003000FC00000C7
:10203800000001F000600060006000600060006067
:10204800006000603060306030E019C00F000000B0
:10205800000078F8306030C03180330036003C0032
:102068003E003300318030C030603030787C000072
:1020780000003C001800180018001800180018008C
:102088001800180018001808181818383FF8000029
:102098000000E03CE038F078F078D8D8D8D8C89874
